{
	"CitreaNativeYeildManager.sol": {
		"CitreaNativeYieldManager": {
			"abi": [
				{
					"inputs": [],
					"stateMutability": "nonpayable",
					"type": "constructor"
				},
				{
					"inputs": [
						{
							"internalType": "address",
							"name": "owner",
							"type": "address"
						}
					],
					"name": "OwnableInvalidOwner",
					"type": "error"
				},
				{
					"inputs": [
						{
							"internalType": "address",
							"name": "account",
							"type": "address"
						}
					],
					"name": "OwnableUnauthorizedAccount",
					"type": "error"
				},
				{
					"anonymous": false,
					"inputs": [
						{
							"indexed": true,
							"internalType": "address",
							"name": "caller",
							"type": "address"
						},
						{
							"indexed": false,
							"internalType": "bool",
							"name": "authorized",
							"type": "bool"
						}
					],
					"name": "AuthorizedCallerUpdated",
					"type": "event"
				},
				{
					"anonymous": false,
					"inputs": [
						{
							"indexed": true,
							"internalType": "address",
							"name": "user",
							"type": "address"
						},
						{
							"indexed": false,
							"internalType": "uint256",
							"name": "amount",
							"type": "uint256"
						},
						{
							"indexed": false,
							"internalType": "uint256",
							"name": "potId",
							"type": "uint256"
						},
						{
							"indexed": false,
							"internalType": "uint256",
							"name": "stakeIndex",
							"type": "uint256"
						}
					],
					"name": "BtcStaked",
					"type": "event"
				},
				{
					"anonymous": false,
					"inputs": [
						{
							"indexed": true,
							"internalType": "address",
							"name": "user",
							"type": "address"
						},
						{
							"indexed": false,
							"internalType": "uint256",
							"name": "amount",
							"type": "uint256"
						},
						{
							"indexed": false,
							"internalType": "uint256",
							"name": "yield",
							"type": "uint256"
						},
						{
							"indexed": false,
							"internalType": "uint256",
							"name": "stakeIndex",
							"type": "uint256"
						}
					],
					"name": "BtcUnstaked",
					"type": "event"
				},
				{
					"anonymous": false,
					"inputs": [
						{
							"indexed": true,
							"internalType": "address",
							"name": "user",
							"type": "address"
						},
						{
							"indexed": false,
							"internalType": "uint256",
							"name": "amount",
							"type": "uint256"
						}
					],
					"name": "EmergencyWithdrawalExecuted",
					"type": "event"
				},
				{
					"anonymous": false,
					"inputs": [
						{
							"indexed": true,
							"internalType": "address",
							"name": "user",
							"type": "address"
						},
						{
							"indexed": false,
							"internalType": "uint256",
							"name": "requestTime",
							"type": "uint256"
						}
					],
					"name": "EmergencyWithdrawalRequested",
					"type": "event"
				},
				{
					"anonymous": false,
					"inputs": [
						{
							"indexed": false,
							"internalType": "uint256",
							"name": "amount",
							"type": "uint256"
						}
					],
					"name": "NetworkFeesCollected",
					"type": "event"
				},
				{
					"anonymous": false,
					"inputs": [
						{
							"indexed": true,
							"internalType": "address",
							"name": "previousOwner",
							"type": "address"
						},
						{
							"indexed": true,
							"internalType": "address",
							"name": "newOwner",
							"type": "address"
						}
					],
					"name": "OwnershipTransferred",
					"type": "event"
				},
				{
					"anonymous": false,
					"inputs": [
						{
							"indexed": false,
							"internalType": "address",
							"name": "account",
							"type": "address"
						}
					],
					"name": "Paused",
					"type": "event"
				},
				{
					"anonymous": false,
					"inputs": [
						{
							"indexed": false,
							"internalType": "uint256",
							"name": "oldRate",
							"type": "uint256"
						},
						{
							"indexed": false,
							"internalType": "uint256",
							"name": "newRate",
							"type": "uint256"
						}
					],
					"name": "ProtocolFeeRateUpdated",
					"type": "event"
				},
				{
					"anonymous": false,
					"inputs": [
						{
							"indexed": false,
							"internalType": "address",
							"name": "account",
							"type": "address"
						}
					],
					"name": "Unpaused",
					"type": "event"
				},
				{
					"anonymous": false,
					"inputs": [
						{
							"indexed": true,
							"internalType": "address",
							"name": "user",
							"type": "address"
						},
						{
							"indexed": false,
							"internalType": "uint256",
							"name": "amount",
							"type": "uint256"
						},
						{
							"indexed": false,
							"internalType": "uint256",
							"name": "stakeIndex",
							"type": "uint256"
						}
					],
					"name": "YieldAccrued",
					"type": "event"
				},
				{
					"anonymous": false,
					"inputs": [
						{
							"indexed": false,
							"internalType": "uint256",
							"name": "oldRate",
							"type": "uint256"
						},
						{
							"indexed": false,
							"internalType": "uint256",
							"name": "newRate",
							"type": "uint256"
						}
					],
					"name": "YieldRateUpdated",
					"type": "event"
				},
				{
					"stateMutability": "payable",
					"type": "fallback"
				},
				{
					"inputs": [],
					"name": "BASIS_POINTS",
					"outputs": [
						{
							"internalType": "uint256",
							"name": "",
							"type": "uint256"
						}
					],
					"stateMutability": "view",
					"type": "function"
				},
				{
					"inputs": [],
					"name": "MAX_YIELD_RATE",
					"outputs": [
						{
							"internalType": "uint256",
							"name": "",
							"type": "uint256"
						}
					],
					"stateMutability": "view",
					"type": "function"
				},
				{
					"inputs": [],
					"name": "MIN_STAKE_AMOUNT",
					"outputs": [
						{
							"internalType": "uint256",
							"name": "",
							"type": "uint256"
						}
					],
					"stateMutability": "view",
					"type": "function"
				},
				{
					"inputs": [],
					"name": "MIN_YIELD_RATE",
					"outputs": [
						{
							"internalType": "uint256",
							"name": "",
							"type": "uint256"
						}
					],
					"stateMutability": "view",
					"type": "function"
				},
				{
					"inputs": [],
					"name": "YIELD_CALCULATION_PERIOD",
					"outputs": [
						{
							"internalType": "uint256",
							"name": "",
							"type": "uint256"
						}
					],
					"stateMutability": "view",
					"type": "function"
				},
				{
					"inputs": [
						{
							"internalType": "address",
							"name": "",
							"type": "address"
						}
					],
					"name": "authorizedCallers",
					"outputs": [
						{
							"internalType": "bool",
							"name": "",
							"type": "bool"
						}
					],
					"stateMutability": "view",
					"type": "function"
				},
				{
					"inputs": [],
					"name": "collectNetworkFees",
					"outputs": [],
					"stateMutability": "payable",
					"type": "function"
				},
				{
					"inputs": [],
					"name": "distributeFees",
					"outputs": [],
					"stateMutability": "nonpayable",
					"type": "function"
				},
				{
					"inputs": [],
					"name": "emergencyPause",
					"outputs": [],
					"stateMutability": "nonpayable",
					"type": "function"
				},
				{
					"inputs": [
						{
							"internalType": "address",
							"name": "",
							"type": "address"
						}
					],
					"name": "emergencyRequestTime",
					"outputs": [
						{
							"internalType": "uint256",
							"name": "",
							"type": "uint256"
						}
					],
					"stateMutability": "view",
					"type": "function"
				},
				{
					"inputs": [],
					"name": "emergencyUnpause",
					"outputs": [],
					"stateMutability": "nonpayable",
					"type": "function"
				},
				{
					"inputs": [],
					"name": "emergencyWithdrawalDelay",
					"outputs": [
						{
							"internalType": "uint256",
							"name": "",
							"type": "uint256"
						}
					],
					"stateMutability": "view",
					"type": "function"
				},
				{
					"inputs": [],
					"name": "executeEmergencyWithdrawal",
					"outputs": [],
					"stateMutability": "nonpayable",
					"type": "function"
				},
				{
					"inputs": [],
					"name": "getCurrentAPY",
					"outputs": [
						{
							"internalType": "uint256",
							"name": "",
							"type": "uint256"
						}
					],
					"stateMutability": "view",
					"type": "function"
				},
				{
					"inputs": [],
					"name": "getGlobalYieldPool",
					"outputs": [
						{
							"internalType": "uint256",
							"name": "totalStaked",
							"type": "uint256"
						},
						{
							"internalType": "uint256",
							"name": "totalYieldGenerated",
							"type": "uint256"
						},
						{
							"internalType": "uint256",
							"name": "currentYieldRate",
							"type": "uint256"
						},
						{
							"internalType": "uint256",
							"name": "participantCount",
							"type": "uint256"
						}
					],
					"stateMutability": "view",
					"type": "function"
				},
				{
					"inputs": [],
					"name": "getNetworkFeePool",
					"outputs": [
						{
							"internalType": "uint256",
							"name": "",
							"type": "uint256"
						}
					],
					"stateMutability": "view",
					"type": "function"
				},
				{
					"inputs": [
						{
							"internalType": "uint256",
							"name": "potId",
							"type": "uint256"
						}
					],
					"name": "getPotTotalStaked",
					"outputs": [
						{
							"internalType": "uint256",
							"name": "",
							"type": "uint256"
						}
					],
					"stateMutability": "view",
					"type": "function"
				},
				{
					"inputs": [
						{
							"internalType": "address",
							"name": "user",
							"type": "address"
						},
						{
							"internalType": "uint256",
							"name": "stakeIndex",
							"type": "uint256"
						}
					],
					"name": "getUserCurrentYield",
					"outputs": [
						{
							"internalType": "uint256",
							"name": "",
							"type": "uint256"
						}
					],
					"stateMutability": "view",
					"type": "function"
				},
				{
					"inputs": [
						{
							"internalType": "address",
							"name": "user",
							"type": "address"
						},
						{
							"internalType": "uint256",
							"name": "stakeIndex",
							"type": "uint256"
						}
					],
					"name": "getUserStake",
					"outputs": [
						{
							"components": [
								{
									"internalType": "uint256",
									"name": "principal",
									"type": "uint256"
								},
								{
									"internalType": "uint256",
									"name": "accruedYield",
									"type": "uint256"
								},
								{
									"internalType": "uint256",
									"name": "lastUpdateTime",
									"type": "uint256"
								},
								{
									"internalType": "uint256",
									"name": "potId",
									"type": "uint256"
								},
								{
									"internalType": "bool",
									"name": "isActive",
									"type": "bool"
								}
							],
							"internalType": "struct CitreaNativeYieldManager.StakeInfo",
							"name": "",
							"type": "tuple"
						}
					],
					"stateMutability": "view",
					"type": "function"
				},
				{
					"inputs": [
						{
							"internalType": "address",
							"name": "user",
							"type": "address"
						}
					],
					"name": "getUserStakeCount",
					"outputs": [
						{
							"internalType": "uint256",
							"name": "",
							"type": "uint256"
						}
					],
					"stateMutability": "view",
					"type": "function"
				},
				{
					"inputs": [
						{
							"internalType": "address",
							"name": "user",
							"type": "address"
						}
					],
					"name": "getUserTotalYield",
					"outputs": [
						{
							"internalType": "uint256",
							"name": "totalYield",
							"type": "uint256"
						}
					],
					"stateMutability": "view",
					"type": "function"
				},
				{
					"inputs": [],
					"name": "globalYieldPool",
					"outputs": [
						{
							"internalType": "uint256",
							"name": "totalStaked",
							"type": "uint256"
						},
						{
							"internalType": "uint256",
							"name": "totalYieldGenerated",
							"type": "uint256"
						},
						{
							"internalType": "uint256",
							"name": "currentYieldRate",
							"type": "uint256"
						},
						{
							"internalType": "uint256",
							"name": "lastYieldUpdate",
							"type": "uint256"
						},
						{
							"internalType": "uint256",
							"name": "participantCount",
							"type": "uint256"
						}
					],
					"stateMutability": "view",
					"type": "function"
				},
				{
					"inputs": [],
					"name": "networkFeePool",
					"outputs": [
						{
							"internalType": "uint256",
							"name": "",
							"type": "uint256"
						}
					],
					"stateMutability": "view",
					"type": "function"
				},
				{
					"inputs": [],
					"name": "owner",
					"outputs": [
						{
							"internalType": "address",
							"name": "",
							"type": "address"
						}
					],
					"stateMutability": "view",
					"type": "function"
				},
				{
					"inputs": [],
					"name": "pause",
					"outputs": [],
					"stateMutability": "nonpayable",
					"type": "function"
				},
				{
					"inputs": [],
					"name": "paused",
					"outputs": [
						{
							"internalType": "bool",
							"name": "",
							"type": "bool"
						}
					],
					"stateMutability": "view",
					"type": "function"
				},
				{
					"inputs": [
						{
							"internalType": "uint256",
							"name": "",
							"type": "uint256"
						},
						{
							"internalType": "uint256",
							"name": "",
							"type": "uint256"
						}
					],
					"name": "potStakes",
					"outputs": [
						{
							"internalType": "uint256",
							"name": "principal",
							"type": "uint256"
						},
						{
							"internalType": "uint256",
							"name": "accruedYield",
							"type": "uint256"
						},
						{
							"internalType": "uint256",
							"name": "lastUpdateTime",
							"type": "uint256"
						},
						{
							"internalType": "uint256",
							"name": "potId",
							"type": "uint256"
						},
						{
							"internalType": "bool",
							"name": "isActive",
							"type": "bool"
						}
					],
					"stateMutability": "view",
					"type": "function"
				},
				{
					"inputs": [
						{
							"internalType": "uint256",
							"name": "",
							"type": "uint256"
						}
					],
					"name": "potTotalStaked",
					"outputs": [
						{
							"internalType": "uint256",
							"name": "",
							"type": "uint256"
						}
					],
					"stateMutability": "view",
					"type": "function"
				},
				{
					"inputs": [],
					"name": "protocolFeeRate",
					"outputs": [
						{
							"internalType": "uint256",
							"name": "",
							"type": "uint256"
						}
					],
					"stateMutability": "view",
					"type": "function"
				},
				{
					"inputs": [],
					"name": "renounceOwnership",
					"outputs": [],
					"stateMutability": "nonpayable",
					"type": "function"
				},
				{
					"inputs": [],
					"name": "requestEmergencyWithdrawal",
					"outputs": [],
					"stateMutability": "nonpayable",
					"type": "function"
				},
				{
					"inputs": [
						{
							"internalType": "address",
							"name": "caller",
							"type": "address"
						},
						{
							"internalType": "bool",
							"name": "authorized",
							"type": "bool"
						}
					],
					"name": "setAuthorizedCaller",
					"outputs": [],
					"stateMutability": "nonpayable",
					"type": "function"
				},
				{
					"inputs": [
						{
							"internalType": "uint256",
							"name": "potId",
							"type": "uint256"
						}
					],
					"name": "stakeBtc",
					"outputs": [],
					"stateMutability": "payable",
					"type": "function"
				},
				{
					"inputs": [
						{
							"internalType": "address",
							"name": "user",
							"type": "address"
						},
						{
							"internalType": "uint256",
							"name": "potId",
							"type": "uint256"
						}
					],
					"name": "stakeBtcForUser",
					"outputs": [],
					"stateMutability": "payable",
					"type": "function"
				},
				{
					"inputs": [
						{
							"internalType": "address",
							"name": "newOwner",
							"type": "address"
						}
					],
					"name": "transferOwnership",
					"outputs": [],
					"stateMutability": "nonpayable",
					"type": "function"
				},
				{
					"inputs": [],
					"name": "unpause",
					"outputs": [],
					"stateMutability": "nonpayable",
					"type": "function"
				},
				{
					"inputs": [
						{
							"internalType": "uint256",
							"name": "stakeIndex",
							"type": "uint256"
						}
					],
					"name": "unstakeBtc",
					"outputs": [],
					"stateMutability": "nonpayable",
					"type": "function"
				},
				{
					"inputs": [
						{
							"internalType": "address",
							"name": "user",
							"type": "address"
						},
						{
							"internalType": "uint256",
							"name": "stakeIndex",
							"type": "uint256"
						},
						{
							"internalType": "address",
							"name": "recipient",
							"type": "address"
						}
					],
					"name": "unstakeBtcForUser",
					"outputs": [],
					"stateMutability": "nonpayable",
					"type": "function"
				},
				{
					"inputs": [
						{
							"internalType": "uint256",
							"name": "newRate",
							"type": "uint256"
						}
					],
					"name": "updateProtocolFeeRate",
					"outputs": [],
					"stateMutability": "nonpayable",
					"type": "function"
				},
				{
					"inputs": [
						{
							"internalType": "address",
							"name": "user",
							"type": "address"
						},
						{
							"internalType": "uint256",
							"name": "stakeIndex",
							"type": "uint256"
						}
					],
					"name": "updateStakeYield",
					"outputs": [],
					"stateMutability": "nonpayable",
					"type": "function"
				},
				{
					"inputs": [
						{
							"internalType": "uint256",
							"name": "newRate",
							"type": "uint256"
						}
					],
					"name": "updateYieldRate",
					"outputs": [],
					"stateMutability": "nonpayable",
					"type": "function"
				},
				{
					"inputs": [
						{
							"internalType": "address",
							"name": "",
							"type": "address"
						},
						{
							"internalType": "uint256",
							"name": "",
							"type": "uint256"
						}
					],
					"name": "userStakes",
					"outputs": [
						{
							"internalType": "uint256",
							"name": "principal",
							"type": "uint256"
						},
						{
							"internalType": "uint256",
							"name": "accruedYield",
							"type": "uint256"
						},
						{
							"internalType": "uint256",
							"name": "lastUpdateTime",
							"type": "uint256"
						},
						{
							"internalType": "uint256",
							"name": "potId",
							"type": "uint256"
						},
						{
							"internalType": "bool",
							"name": "isActive",
							"type": "bool"
						}
					],
					"stateMutability": "view",
					"type": "function"
				},
				{
					"inputs": [
						{
							"internalType": "address",
							"name": "",
							"type": "address"
						}
					],
					"name": "userTotalStaked",
					"outputs": [
						{
							"internalType": "uint256",
							"name": "",
							"type": "uint256"
						}
					],
					"stateMutability": "view",
					"type": "function"
				},
				{
					"inputs": [
						{
							"internalType": "address",
							"name": "recipient",
							"type": "address"
						},
						{
							"internalType": "uint256",
							"name": "amount",
							"type": "uint256"
						}
					],
					"name": "withdrawProtocolFees",
					"outputs": [],
					"stateMutability": "nonpayable",
					"type": "function"
				},
				{
					"stateMutability": "payable",
					"type": "receive"
				}
			],
			"devdoc": {
				"details": "Generates yield through Bitcoin staking and network fee collection mechanisms",
				"errors": {
					"OwnableInvalidOwner(address)": [
						{
							"details": "The owner is not a valid owner account. (eg. `address(0)`)"
						}
					],
					"OwnableUnauthorizedAccount(address)": [
						{
							"details": "The caller account is not authorized to perform an operation."
						}
					]
				},
				"events": {
					"Paused(address)": {
						"details": "Emitted when the pause is triggered by `account`."
					},
					"Unpaused(address)": {
						"details": "Emitted when the pause is lifted by `account`."
					}
				},
				"kind": "dev",
				"methods": {
					"owner()": {
						"details": "Returns the address of the current owner."
					},
					"paused()": {
						"details": "Returns true if the contract is paused, and false otherwise."
					},
					"renounceOwnership()": {
						"details": "Leaves the contract without owner. It will not be possible to call `onlyOwner` functions. Can only be called by the current owner. NOTE: Renouncing ownership will leave the contract without an owner, thereby disabling any functionality that is only available to the owner."
					},
					"stakeBtc(uint256)": {
						"params": {
							"potId": "The pot ID this stake belongs to (0 for individual staking)"
						}
					},
					"transferOwnership(address)": {
						"details": "Transfers ownership of the contract to a new account (`newOwner`). Can only be called by the current owner."
					}
				},
				"title": "CitreaNativeYieldManager",
				"version": 1
			},
			"evm": {
				"assembly": "    /* \"CitreaNativeYeildManager.sol\":434:16913  contract CitreaNativeYieldManager is Ownable, ReentrancyGuard, Pausable {... */\n  mstore(0x40, 0x80)\n    /* \"CitreaNativeYeildManager.sol\":1966:1969  200 */\n  0xc8\n    /* \"CitreaNativeYeildManager.sol\":1933:1969  uint256 public protocolFeeRate = 200 */\n  0x0e\n  sstore\n    /* \"CitreaNativeYeildManager.sol\":2083:2089  7 days */\n  0x093a80\n    /* \"CitreaNativeYeildManager.sol\":2041:2089  uint256 public emergencyWithdrawalDelay = 7 days */\n  0x0f\n  sstore\n    /* \"CitreaNativeYeildManager.sol\":2996:3168  constructor() Ownable(msg.sender) {... */\n  callvalue\n  dup1\n  iszero\n  tag_1\n  jumpi\n  revert(0x00, 0x00)\ntag_1:\n  pop\n    /* \"CitreaNativeYeildManager.sol\":3018:3028  msg.sender */\n  caller\n    /* \"@openzeppelin/contracts/access/Ownable.sol\":1297:1298  0 */\n  0x00\n    /* \"@openzeppelin/contracts/access/Ownable.sol\":1273:1299  initialOwner == address(0) */\n  0xffffffffffffffffffffffffffffffffffffffff\n  and\n    /* \"@openzeppelin/contracts/access/Ownable.sol\":1273:1285  initialOwner */\n  dup2\n    /* \"@openzeppelin/contracts/access/Ownable.sol\":1273:1299  initialOwner == address(0) */\n  0xffffffffffffffffffffffffffffffffffffffff\n  and\n  sub\n    /* \"@openzeppelin/contracts/access/Ownable.sol\":1269:1364  if (initialOwner == address(0)) {... */\n  tag_7\n  jumpi\n    /* \"@openzeppelin/contracts/access/Ownable.sol\":1350:1351  0 */\n  0x00\n    /* \"@openzeppelin/contracts/access/Ownable.sol\":1322:1353  OwnableInvalidOwner(address(0)) */\n  mload(0x40)\n  0x1e4fbdf700000000000000000000000000000000000000000000000000000000\n  dup2\n  mstore\n  0x04\n  add\n  tag_8\n  swap2\n  swap1\n  tag_9\n  jump\t// in\ntag_8:\n  mload(0x40)\n  dup1\n  swap2\n  sub\n  swap1\n  revert\n    /* \"@openzeppelin/contracts/access/Ownable.sol\":1269:1364  if (initialOwner == address(0)) {... */\ntag_7:\n    /* \"@openzeppelin/contracts/access/Ownable.sol\":1373:1405  _transferOwnership(initialOwner) */\n  tag_10\n    /* \"@openzeppelin/contracts/access/Ownable.sol\":1392:1404  initialOwner */\n  dup2\n    /* \"@openzeppelin/contracts/access/Ownable.sol\":1373:1391  _transferOwnership */\n  shl(0x20, tag_11)\n    /* \"@openzeppelin/contracts/access/Ownable.sol\":1373:1405  _transferOwnership(initialOwner) */\n  0x20\n  shr\n  jump\t// in\ntag_10:\n    /* \"@openzeppelin/contracts/access/Ownable.sol\":1225:1412  constructor(address initialOwner) {... */\n  pop\n    /* \"@openzeppelin/contracts/security/ReentrancyGuard.sol\":1716:1717  1 */\n  0x01\n    /* \"@openzeppelin/contracts/security/ReentrancyGuard.sol\":1821:1828  _status */\n  dup1\n    /* \"@openzeppelin/contracts/security/ReentrancyGuard.sol\":1821:1843  _status = _NOT_ENTERED */\n  dup2\n  swap1\n  sstore\n  pop\n    /* \"@openzeppelin/contracts/security/Pausable.sol\":1006:1011  false */\n  0x00\n    /* \"@openzeppelin/contracts/security/Pausable.sol\":996:1003  _paused */\n  0x02\n  0x00\n    /* \"@openzeppelin/contracts/security/Pausable.sol\":996:1011  _paused = false */\n  0x0100\n  exp\n  dup2\n  sload\n  dup2\n  0xff\n  mul\n  not\n  and\n  swap1\n  dup4\n  iszero\n  iszero\n  mul\n  or\n  swap1\n  sstore\n  pop\n    /* \"CitreaNativeYeildManager.sol\":3076:3079  400 */\n  0x0190\n    /* \"CitreaNativeYeildManager.sol\":3041:3056  globalYieldPool */\n  0x07\n    /* \"CitreaNativeYeildManager.sol\":3041:3073  globalYieldPool.currentYieldRate */\n  0x02\n  add\n    /* \"CitreaNativeYeildManager.sol\":3041:3079  globalYieldPool.currentYieldRate = 400 */\n  dup2\n  swap1\n  sstore\n  pop\n    /* \"CitreaNativeYeildManager.sol\":3145:3160  block.timestamp */\n  timestamp\n    /* \"CitreaNativeYeildManager.sol\":3111:3126  globalYieldPool */\n  0x07\n    /* \"CitreaNativeYeildManager.sol\":3111:3142  globalYieldPool.lastYieldUpdate */\n  0x03\n  add\n    /* \"CitreaNativeYeildManager.sol\":3111:3160  globalYieldPool.lastYieldUpdate = block.timestamp */\n  dup2\n  swap1\n  sstore\n  pop\n    /* \"CitreaNativeYeildManager.sol\":434:16913  contract CitreaNativeYieldManager is Ownable, ReentrancyGuard, Pausable {... */\n  jump(tag_15)\n    /* \"@openzeppelin/contracts/access/Ownable.sol\":2912:3099  function _transferOwnership(address newOwner) internal virtual {... */\ntag_11:\n    /* \"@openzeppelin/contracts/access/Ownable.sol\":2985:3001  address oldOwner */\n  0x00\n    /* \"@openzeppelin/contracts/access/Ownable.sol\":3004:3010  _owner */\n  0x00\n  0x00\n  swap1\n  sload\n  swap1\n  0x0100\n  exp\n  swap1\n  div\n  0xffffffffffffffffffffffffffffffffffffffff\n  and\n    /* \"@openzeppelin/contracts/access/Ownable.sol\":2985:3010  address oldOwner = _owner */\n  swap1\n  pop\n    /* \"@openzeppelin/contracts/access/Ownable.sol\":3029:3037  newOwner */\n  dup2\n    /* \"@openzeppelin/contracts/access/Ownable.sol\":3020:3026  _owner */\n  0x00\n  0x00\n    /* \"@openzeppelin/contracts/access/Ownable.sol\":3020:3037  _owner = newOwner */\n  0x0100\n  exp\n  dup2\n  sload\n  dup2\n  0xffffffffffffffffffffffffffffffffffffffff\n  mul\n  not\n  and\n  swap1\n  dup4\n  0xffffffffffffffffffffffffffffffffffffffff\n  and\n  mul\n  or\n  swap1\n  sstore\n  pop\n    /* \"@openzeppelin/contracts/access/Ownable.sol\":3083:3091  newOwner */\n  dup2\n    /* \"@openzeppelin/contracts/access/Ownable.sol\":3052:3092  OwnershipTransferred(oldOwner, newOwner) */\n  0xffffffffffffffffffffffffffffffffffffffff\n  and\n    /* \"@openzeppelin/contracts/access/Ownable.sol\":3073:3081  oldOwner */\n  dup2\n    /* \"@openzeppelin/contracts/access/Ownable.sol\":3052:3092  OwnershipTransferred(oldOwner, newOwner) */\n  0xffffffffffffffffffffffffffffffffffffffff\n  and\n  0x8be0079c531659141344cd1fd0a4f28419497f9722a3daafe3b4186f6b6457e0\n  mload(0x40)\n  mload(0x40)\n  dup1\n  swap2\n  sub\n  swap1\n  log3\n    /* \"@openzeppelin/contracts/access/Ownable.sol\":2975:3099  {... */\n  pop\n    /* \"@openzeppelin/contracts/access/Ownable.sol\":2912:3099  function _transferOwnership(address newOwner) internal virtual {... */\n  pop\n  jump\t// out\n    /* \"#utility.yul\":7:133   */\ntag_17:\n    /* \"#utility.yul\":44:51   */\n  0x00\n    /* \"#utility.yul\":84:126   */\n  0xffffffffffffffffffffffffffffffffffffffff\n    /* \"#utility.yul\":77:82   */\n  dup3\n    /* \"#utility.yul\":73:127   */\n  and\n    /* \"#utility.yul\":62:127   */\n  swap1\n  pop\n    /* \"#utility.yul\":7:133   */\n  swap2\n  swap1\n  pop\n  jump\t// out\n    /* \"#utility.yul\":139:235   */\ntag_18:\n    /* \"#utility.yul\":176:183   */\n  0x00\n    /* \"#utility.yul\":205:229   */\n  tag_23\n    /* \"#utility.yul\":223:228   */\n  dup3\n    /* \"#utility.yul\":205:229   */\n  tag_17\n  jump\t// in\ntag_23:\n    /* \"#utility.yul\":194:229   */\n  swap1\n  pop\n    /* \"#utility.yul\":139:235   */\n  swap2\n  swap1\n  pop\n  jump\t// out\n    /* \"#utility.yul\":241:359   */\ntag_19:\n    /* \"#utility.yul\":328:352   */\n  tag_25\n    /* \"#utility.yul\":346:351   */\n  dup2\n    /* \"#utility.yul\":328:352   */\n  tag_18\n  jump\t// in\ntag_25:\n    /* \"#utility.yul\":323:326   */\n  dup3\n    /* \"#utility.yul\":316:353   */\n  mstore\n    /* \"#utility.yul\":241:359   */\n  pop\n  pop\n  jump\t// out\n    /* \"#utility.yul\":365:587   */\ntag_9:\n    /* \"#utility.yul\":458:462   */\n  0x00\n    /* \"#utility.yul\":496:498   */\n  0x20\n    /* \"#utility.yul\":485:494   */\n  dup3\n    /* \"#utility.yul\":481:499   */\n  add\n    /* \"#utility.yul\":473:499   */\n  swap1\n  pop\n    /* \"#utility.yul\":509:580   */\n  tag_27\n    /* \"#utility.yul\":577:578   */\n  0x00\n    /* \"#utility.yul\":566:575   */\n  dup4\n    /* \"#utility.yul\":562:579   */\n  add\n    /* \"#utility.yul\":553:559   */\n  dup5\n    /* \"#utility.yul\":509:580   */\n  tag_19\n  jump\t// in\ntag_27:\n    /* \"#utility.yul\":365:587   */\n  swap3\n  swap2\n  pop\n  pop\n  jump\t// out\n    /* \"CitreaNativeYeildManager.sol\":434:16913  contract CitreaNativeYieldManager is Ownable, ReentrancyGuard, Pausable {... */\ntag_15:\n  dataSize(sub_0)\n  dup1\n  dataOffset(sub_0)\n  0x00\n  codecopy\n  0x00\n  return\nstop\n\nsub_0: assembly {\n        /* \"CitreaNativeYeildManager.sol\":434:16913  contract CitreaNativeYieldManager is Ownable, ReentrancyGuard, Pausable {... */\n      mstore(0x40, 0x80)\n      jumpi(tag_1, lt(calldatasize, 0x04))\n      shr(0xe0, calldataload(0x00))\n      dup1\n      0x715018a6\n      gt\n      tag_47\n      jumpi\n      dup1\n      0xc69ecf0b\n      gt\n      tag_48\n      jumpi\n      dup1\n      0xe65eaff7\n      gt\n      tag_49\n      jumpi\n      dup1\n      0xe65eaff7\n      eq\n      tag_41\n      jumpi\n      dup1\n      0xe8421b5e\n      eq\n      tag_42\n      jumpi\n      dup1\n      0xec669457\n      eq\n      tag_43\n      jumpi\n      dup1\n      0xf2fde38b\n      eq\n      tag_44\n      jumpi\n      dup1\n      0xf4993bbd\n      eq\n      tag_45\n      jumpi\n      dup1\n      0xf74b51b3\n      eq\n      tag_46\n      jumpi\n      jump(tag_2)\n    tag_49:\n      dup1\n      0xc69ecf0b\n      eq\n      tag_36\n      jumpi\n      dup1\n      0xcaa7c8aa\n      eq\n      tag_37\n      jumpi\n      dup1\n      0xcec695fa\n      eq\n      tag_38\n      jumpi\n      dup1\n      0xcffb911e\n      eq\n      tag_39\n      jumpi\n      dup1\n      0xe1f1c4a7\n      eq\n      tag_40\n      jumpi\n      jump(tag_2)\n    tag_48:\n      dup1\n      0x96ca8d27\n      gt\n      tag_50\n      jumpi\n      dup1\n      0x96ca8d27\n      eq\n      tag_30\n      jumpi\n      dup1\n      0xa83481e1\n      eq\n      tag_31\n      jumpi\n      dup1\n      0xb4f74031\n      eq\n      tag_32\n      jumpi\n      dup1\n      0xb5d5b5fa\n      eq\n      tag_33\n      jumpi\n      dup1\n      0xbb57ad20\n      eq\n      tag_34\n      jumpi\n      dup1\n      0xc5b4f407\n      eq\n      tag_35\n      jumpi\n      jump(tag_2)\n    tag_50:\n      dup1\n      0x715018a6\n      eq\n      tag_25\n      jumpi\n      dup1\n      0x719de1ef\n      eq\n      tag_26\n      jumpi\n      dup1\n      0x8456cb59\n      eq\n      tag_27\n      jumpi\n      dup1\n      0x8da5cb5b\n      eq\n      tag_28\n      jumpi\n      dup1\n      0x962ca496\n      eq\n      tag_29\n      jumpi\n      jump(tag_2)\n    tag_47:\n      dup1\n      0x30063e3b\n      gt\n      tag_51\n      jumpi\n      dup1\n      0x51858e27\n      gt\n      tag_52\n      jumpi\n      dup1\n      0x51858e27\n      eq\n      tag_19\n      jumpi\n      dup1\n      0x536fff6c\n      eq\n      tag_20\n      jumpi\n      dup1\n      0x58f85880\n      eq\n      tag_21\n      jumpi\n      dup1\n      0x5c975abb\n      eq\n      tag_22\n      jumpi\n      dup1\n      0x6340d55c\n      eq\n      tag_23\n      jumpi\n      dup1\n      0x6987ca1d\n      eq\n      tag_24\n      jumpi\n      jump(tag_2)\n    tag_52:\n      dup1\n      0x30063e3b\n      eq\n      tag_14\n      jumpi\n      dup1\n      0x304a900d\n      eq\n      tag_15\n      jumpi\n      dup1\n      0x3f4ba83a\n      eq\n      tag_16\n      jumpi\n      dup1\n      0x454bbd29\n      eq\n      tag_17\n      jumpi\n      dup1\n      0x4a4e3bd5\n      eq\n      tag_18\n      jumpi\n      jump(tag_2)\n    tag_51:\n      dup1\n      0x1b545a17\n      gt\n      tag_53\n      jumpi\n      dup1\n      0x1b545a17\n      eq\n      tag_8\n      jumpi\n      dup1\n      0x1bc6a778\n      eq\n      tag_9\n      jumpi\n      dup1\n      0x1e99921b\n      eq\n      tag_10\n      jumpi\n      dup1\n      0x27ed7188\n      eq\n      tag_11\n      jumpi\n      dup1\n      0x2d4c5abe\n      eq\n      tag_12\n      jumpi\n      dup1\n      0x2f0f8a7a\n      eq\n      tag_13\n      jumpi\n      jump(tag_2)\n    tag_53:\n      dup1\n      0x0b48baba\n      eq\n      tag_3\n      jumpi\n      dup1\n      0x148a1ed7\n      eq\n      tag_4\n      jumpi\n      dup1\n      0x1683e9ce\n      eq\n      tag_5\n      jumpi\n      dup1\n      0x16a54675\n      eq\n      tag_6\n      jumpi\n      dup1\n      0x1a7a73c2\n      eq\n      tag_7\n      jumpi\n      jump(tag_2)\n    tag_1:\n      jumpi(tag_2, calldatasize)\n        /* \"CitreaNativeYeildManager.sol\":16708:16709  0 */\n      0x00\n        /* \"CitreaNativeYeildManager.sol\":16696:16705  msg.value */\n      callvalue\n        /* \"CitreaNativeYeildManager.sol\":16696:16709  msg.value > 0 */\n      gt\n        /* \"CitreaNativeYeildManager.sol\":16692:16816  if (msg.value > 0) {... */\n      iszero\n      tag_56\n      jumpi\n        /* \"CitreaNativeYeildManager.sol\":16744:16753  msg.value */\n      callvalue\n        /* \"CitreaNativeYeildManager.sol\":16726:16740  networkFeePool */\n      0x0d\n      0x00\n        /* \"CitreaNativeYeildManager.sol\":16726:16753  networkFeePool += msg.value */\n      dup3\n      dup3\n      sload\n      tag_57\n      swap2\n      swap1\n      tag_58\n      jump\t// in\n    tag_57:\n      swap3\n      pop\n      pop\n      dup2\n      swap1\n      sstore\n      pop\n        /* \"CitreaNativeYeildManager.sol\":16773:16804  NetworkFeesCollected(msg.value) */\n      0xfd89f3716628d726d771436aef1a2b241477089ecdea8429f2dcdf2f2106c4a4\n        /* \"CitreaNativeYeildManager.sol\":16794:16803  msg.value */\n      callvalue\n        /* \"CitreaNativeYeildManager.sol\":16773:16804  NetworkFeesCollected(msg.value) */\n      mload(0x40)\n      tag_59\n      swap2\n      swap1\n      tag_60\n      jump\t// in\n    tag_59:\n      mload(0x40)\n      dup1\n      swap2\n      sub\n      swap1\n      log1\n        /* \"CitreaNativeYeildManager.sol\":16692:16816  if (msg.value > 0) {... */\n    tag_56:\n        /* \"CitreaNativeYeildManager.sol\":434:16913  contract CitreaNativeYieldManager is Ownable, ReentrancyGuard, Pausable {... */\n      stop\n    tag_2:\n        /* \"CitreaNativeYeildManager.sol\":16874:16902  revert(\"Function not found\") */\n      mload(0x40)\n      0x08c379a000000000000000000000000000000000000000000000000000000000\n      dup2\n      mstore\n      0x04\n      add\n      tag_63\n      swap1\n      tag_64\n      jump\t// in\n    tag_63:\n      mload(0x40)\n      dup1\n      swap2\n      sub\n      swap1\n      revert\n        /* \"CitreaNativeYeildManager.sol\":14404:14656  function getUserCurrentYield(address user, uint256 stakeIndex) ... */\n    tag_3:\n      callvalue\n      dup1\n      iszero\n      tag_65\n      jumpi\n      revert(0x00, 0x00)\n    tag_65:\n      pop\n      tag_66\n      0x04\n      dup1\n      calldatasize\n      sub\n      dup2\n      add\n      swap1\n      tag_67\n      swap2\n      swap1\n      tag_68\n      jump\t// in\n    tag_67:\n      tag_69\n      jump\t// in\n    tag_66:\n      mload(0x40)\n      tag_70\n      swap2\n      swap1\n      tag_60\n      jump\t// in\n    tag_70:\n      mload(0x40)\n      dup1\n      swap2\n      sub\n      swap1\n      return\n        /* \"CitreaNativeYeildManager.sol\":14972:15093  function getPotTotalStaked(uint256 potId) external view returns (uint256) {... */\n    tag_4:\n      callvalue\n      dup1\n      iszero\n      tag_71\n      jumpi\n      revert(0x00, 0x00)\n    tag_71:\n      pop\n      tag_72\n      0x04\n      dup1\n      calldatasize\n      sub\n      dup2\n      add\n      swap1\n      tag_73\n      swap2\n      swap1\n      tag_74\n      jump\t// in\n    tag_73:\n      tag_75\n      jump\t// in\n    tag_72:\n      mload(0x40)\n      tag_76\n      swap2\n      swap1\n      tag_60\n      jump\t// in\n    tag_76:\n      mload(0x40)\n      dup1\n      swap2\n      sub\n      swap1\n      return\n        /* \"CitreaNativeYeildManager.sol\":15105:15582  function getGlobalYieldPool() ... */\n    tag_5:\n      callvalue\n      dup1\n      iszero\n      tag_77\n      jumpi\n      revert(0x00, 0x00)\n    tag_77:\n      pop\n      tag_78\n      tag_79\n      jump\t// in\n    tag_78:\n      mload(0x40)\n      tag_80\n      swap5\n      swap4\n      swap3\n      swap2\n      swap1\n      tag_81\n      jump\t// in\n    tag_80:\n      mload(0x40)\n      dup1\n      swap2\n      sub\n      swap1\n      return\n        /* \"CitreaNativeYeildManager.sol\":1897:1926  uint256 public networkFeePool */\n    tag_6:\n      callvalue\n      dup1\n      iszero\n      tag_82\n      jumpi\n      revert(0x00, 0x00)\n    tag_82:\n      pop\n      tag_83\n      tag_84\n      jump\t// in\n    tag_83:\n      mload(0x40)\n      tag_85\n      swap2\n      swap1\n      tag_60\n      jump\t// in\n    tag_85:\n      mload(0x40)\n      dup1\n      swap2\n      sub\n      swap1\n      return\n        /* \"CitreaNativeYeildManager.sol\":15906:16355  function withdrawProtocolFees(address recipient, uint256 amount) ... */\n    tag_7:\n      callvalue\n      dup1\n      iszero\n      tag_86\n      jumpi\n      revert(0x00, 0x00)\n    tag_86:\n      pop\n      tag_87\n      0x04\n      dup1\n      calldatasize\n      sub\n      dup2\n      add\n      swap1\n      tag_88\n      swap2\n      swap1\n      tag_68\n      jump\t// in\n    tag_88:\n      tag_89\n      jump\t// in\n    tag_87:\n      stop\n        /* \"CitreaNativeYeildManager.sol\":13992:14114  function getUserStakeCount(address user) external view returns (uint256) {... */\n    tag_8:\n      callvalue\n      dup1\n      iszero\n      tag_90\n      jumpi\n      revert(0x00, 0x00)\n    tag_90:\n      pop\n      tag_91\n      0x04\n      dup1\n      calldatasize\n      sub\n      dup2\n      add\n      swap1\n      tag_92\n      swap2\n      swap1\n      tag_93\n      jump\t// in\n    tag_92:\n      tag_94\n      jump\t// in\n    tag_91:\n      mload(0x40)\n      tag_95\n      swap2\n      swap1\n      tag_60\n      jump\t// in\n    tag_95:\n      mload(0x40)\n      dup1\n      swap2\n      sub\n      swap1\n      return\n        /* \"CitreaNativeYeildManager.sol\":14668:14960  function getUserTotalYield(address user) external view returns (uint256 totalYield) {... */\n    tag_9:\n      callvalue\n      dup1\n      iszero\n      tag_96\n      jumpi\n      revert(0x00, 0x00)\n    tag_96:\n      pop\n      tag_97\n      0x04\n      dup1\n      calldatasize\n      sub\n      dup2\n      add\n      swap1\n      tag_98\n      swap2\n      swap1\n      tag_93\n      jump\t// in\n    tag_98:\n      tag_99\n      jump\t// in\n    tag_97:\n      mload(0x40)\n      tag_100\n      swap2\n      swap1\n      tag_60\n      jump\t// in\n    tag_100:\n      mload(0x40)\n      dup1\n      swap2\n      sub\n      swap1\n      return\n        /* \"CitreaNativeYeildManager.sol\":763:820  uint256 public constant YIELD_CALCULATION_PERIOD = 1 days */\n    tag_10:\n      callvalue\n      dup1\n      iszero\n      tag_101\n      jumpi\n      revert(0x00, 0x00)\n    tag_101:\n      pop\n      tag_102\n      tag_103\n      jump\t// in\n    tag_102:\n      mload(0x40)\n      tag_104\n      swap2\n      swap1\n      tag_60\n      jump\t// in\n    tag_104:\n      mload(0x40)\n      dup1\n      swap2\n      sub\n      swap1\n      return\n        /* \"CitreaNativeYeildManager.sol\":678:732  uint256 public constant MIN_STAKE_AMOUNT = 0.001 ether */\n    tag_11:\n      callvalue\n      dup1\n      iszero\n      tag_105\n      jumpi\n      revert(0x00, 0x00)\n    tag_105:\n      pop\n      tag_106\n      tag_107\n      jump\t// in\n    tag_106:\n      mload(0x40)\n      tag_108\n      swap2\n      swap1\n      tag_60\n      jump\t// in\n    tag_108:\n      mload(0x40)\n      dup1\n      swap2\n      sub\n      swap1\n      return\n        /* \"CitreaNativeYeildManager.sol\":7735:8086  function unstakeBtcForUser(address user, uint256 stakeIndex, address recipient) ... */\n    tag_12:\n      callvalue\n      dup1\n      iszero\n      tag_109\n      jumpi\n      revert(0x00, 0x00)\n    tag_109:\n      pop\n      tag_110\n      0x04\n      dup1\n      calldatasize\n      sub\n      dup2\n      add\n      swap1\n      tag_111\n      swap2\n      swap1\n      tag_112\n      jump\t// in\n    tag_111:\n      tag_113\n      jump\t// in\n    tag_110:\n      stop\n        /* \"CitreaNativeYeildManager.sol\":4027:4477  function updateYieldRate(uint256 newRate) external onlyOwner {... */\n    tag_13:\n      callvalue\n      dup1\n      iszero\n      tag_114\n      jumpi\n      revert(0x00, 0x00)\n    tag_114:\n      pop\n      tag_115\n      0x04\n      dup1\n      calldatasize\n      sub\n      dup2\n      add\n      swap1\n      tag_116\n      swap2\n      swap1\n      tag_74\n      jump\t// in\n    tag_116:\n      tag_117\n      jump\t// in\n    tag_115:\n      stop\n        /* \"CitreaNativeYeildManager.sol\":15721:15822  function getNetworkFeePool() external view returns (uint256) {... */\n    tag_14:\n      callvalue\n      dup1\n      iszero\n      tag_118\n      jumpi\n      revert(0x00, 0x00)\n    tag_118:\n      pop\n      tag_119\n      tag_120\n      jump\t// in\n    tag_119:\n      mload(0x40)\n      tag_121\n      swap2\n      swap1\n      tag_60\n      jump\t// in\n    tag_121:\n      mload(0x40)\n      dup1\n      swap2\n      sub\n      swap1\n      return\n        /* \"CitreaNativeYeildManager.sol\":901:944  uint256 public constant MIN_YIELD_RATE = 50 */\n    tag_15:\n      callvalue\n      dup1\n      iszero\n      tag_122\n      jumpi\n      revert(0x00, 0x00)\n    tag_122:\n      pop\n      tag_123\n      tag_124\n      jump\t// in\n    tag_123:\n      mload(0x40)\n      tag_125\n      swap2\n      swap1\n      tag_60\n      jump\t// in\n    tag_125:\n      mload(0x40)\n      dup1\n      swap2\n      sub\n      swap1\n      return\n        /* \"CitreaNativeYeildManager.sol\":4872:4939  function unpause() external onlyOwner {... */\n    tag_16:\n      callvalue\n      dup1\n      iszero\n      tag_126\n      jumpi\n      revert(0x00, 0x00)\n    tag_126:\n      pop\n      tag_127\n      tag_128\n      jump\t// in\n    tag_127:\n      stop\n        /* \"CitreaNativeYeildManager.sol\":3752:4015  function setAuthorizedCaller(address caller, bool authorized) external onlyOwner {... */\n    tag_17:\n      callvalue\n      dup1\n      iszero\n      tag_129\n      jumpi\n      revert(0x00, 0x00)\n    tag_129:\n      pop\n      tag_130\n      0x04\n      dup1\n      calldatasize\n      sub\n      dup2\n      add\n      swap1\n      tag_131\n      swap2\n      swap1\n      tag_132\n      jump\t// in\n    tag_131:\n      tag_133\n      jump\t// in\n    tag_130:\n      stop\n        /* \"CitreaNativeYeildManager.sol\":16451:16527  function emergencyUnpause() external onlyOwner {... */\n    tag_18:\n      callvalue\n      dup1\n      iszero\n      tag_134\n      jumpi\n      revert(0x00, 0x00)\n    tag_134:\n      pop\n      tag_135\n      tag_136\n      jump\t// in\n    tag_135:\n      stop\n        /* \"CitreaNativeYeildManager.sol\":16367:16439  function emergencyPause() external onlyOwner {... */\n    tag_19:\n      callvalue\n      dup1\n      iszero\n      tag_137\n      jumpi\n      revert(0x00, 0x00)\n    tag_137:\n      pop\n      tag_138\n      tag_139\n      jump\t// in\n    tag_138:\n      stop\n        /* \"CitreaNativeYeildManager.sol\":1804:1853  mapping(address => bool) public authorizedCallers */\n    tag_20:\n      callvalue\n      dup1\n      iszero\n      tag_140\n      jumpi\n      revert(0x00, 0x00)\n    tag_140:\n      pop\n      tag_141\n      0x04\n      dup1\n      calldatasize\n      sub\n      dup2\n      add\n      swap1\n      tag_142\n      swap2\n      swap1\n      tag_93\n      jump\t// in\n    tag_142:\n      tag_143\n      jump\t// in\n    tag_141:\n      mload(0x40)\n      tag_144\n      swap2\n      swap1\n      tag_145\n      jump\t// in\n    tag_144:\n      mload(0x40)\n      dup1\n      swap2\n      sub\n      swap1\n      return\n        /* \"CitreaNativeYeildManager.sol\":1933:1969  uint256 public protocolFeeRate = 200 */\n    tag_21:\n      callvalue\n      dup1\n      iszero\n      tag_146\n      jumpi\n      revert(0x00, 0x00)\n    tag_146:\n      pop\n      tag_147\n      tag_148\n      jump\t// in\n    tag_147:\n      mload(0x40)\n      tag_149\n      swap2\n      swap1\n      tag_60\n      jump\t// in\n    tag_149:\n      mload(0x40)\n      dup1\n      swap2\n      sub\n      swap1\n      return\n        /* \"@openzeppelin/contracts/security/Pausable.sol\":1615:1699  function paused() public view virtual returns (bool) {... */\n    tag_22:\n      callvalue\n      dup1\n      iszero\n      tag_150\n      jumpi\n      revert(0x00, 0x00)\n    tag_150:\n      pop\n      tag_151\n      tag_152\n      jump\t// in\n    tag_151:\n      mload(0x40)\n      tag_153\n      swap2\n      swap1\n      tag_145\n      jump\t// in\n    tag_153:\n      mload(0x40)\n      dup1\n      swap2\n      sub\n      swap1\n      return\n        /* \"CitreaNativeYeildManager.sol\":4489:4785  function updateProtocolFeeRate(uint256 newRate) external onlyOwner {... */\n    tag_23:\n      callvalue\n      dup1\n      iszero\n      tag_154\n      jumpi\n      revert(0x00, 0x00)\n    tag_154:\n      pop\n      tag_155\n      0x04\n      dup1\n      calldatasize\n      sub\n      dup2\n      add\n      swap1\n      tag_156\n      swap2\n      swap1\n      tag_74\n      jump\t// in\n    tag_156:\n      tag_157\n      jump\t// in\n    tag_155:\n      stop\n        /* \"CitreaNativeYeildManager.sol\":827:871  uint256 public constant MAX_YIELD_RATE = 800 */\n    tag_24:\n      callvalue\n      dup1\n      iszero\n      tag_158\n      jumpi\n      revert(0x00, 0x00)\n    tag_158:\n      pop\n      tag_159\n      tag_160\n      jump\t// in\n    tag_159:\n      mload(0x40)\n      tag_161\n      swap2\n      swap1\n      tag_60\n      jump\t// in\n    tag_161:\n      mload(0x40)\n      dup1\n      swap2\n      sub\n      swap1\n      return\n        /* \"@openzeppelin/contracts/access/Ownable.sol\":2293:2394  function renounceOwnership() public virtual onlyOwner {... */\n    tag_25:\n      callvalue\n      dup1\n      iszero\n      tag_162\n      jumpi\n      revert(0x00, 0x00)\n    tag_162:\n      pop\n      tag_163\n      tag_164\n      jump\t// in\n    tag_163:\n      stop\n        /* \"CitreaNativeYeildManager.sol\":1621:1671  mapping(address => uint256) public userTotalStaked */\n    tag_26:\n      callvalue\n      dup1\n      iszero\n      tag_165\n      jumpi\n      revert(0x00, 0x00)\n    tag_165:\n      pop\n      tag_166\n      0x04\n      dup1\n      calldatasize\n      sub\n      dup2\n      add\n      swap1\n      tag_167\n      swap2\n      swap1\n      tag_93\n      jump\t// in\n    tag_167:\n      tag_168\n      jump\t// in\n    tag_166:\n      mload(0x40)\n      tag_169\n      swap2\n      swap1\n      tag_60\n      jump\t// in\n    tag_169:\n      mload(0x40)\n      dup1\n      swap2\n      sub\n      swap1\n      return\n        /* \"CitreaNativeYeildManager.sol\":4797:4860  function pause() external onlyOwner {... */\n    tag_27:\n      callvalue\n      dup1\n      iszero\n      tag_170\n      jumpi\n      revert(0x00, 0x00)\n    tag_170:\n      pop\n      tag_171\n      tag_172\n      jump\t// in\n    tag_171:\n      stop\n        /* \"@openzeppelin/contracts/access/Ownable.sol\":1638:1723  function owner() public view virtual returns (address) {... */\n    tag_28:\n      callvalue\n      dup1\n      iszero\n      tag_173\n      jumpi\n      revert(0x00, 0x00)\n    tag_173:\n      pop\n      tag_174\n      tag_175\n      jump\t// in\n    tag_174:\n      mload(0x40)\n      tag_176\n      swap2\n      swap1\n      tag_177\n      jump\t// in\n    tag_176:\n      mload(0x40)\n      dup1\n      swap2\n      sub\n      swap1\n      return\n        /* \"CitreaNativeYeildManager.sol\":15594:15709  function getCurrentAPY() external view returns (uint256) {... */\n    tag_29:\n      callvalue\n      dup1\n      iszero\n      tag_178\n      jumpi\n      revert(0x00, 0x00)\n    tag_178:\n      pop\n      tag_179\n      tag_180\n      jump\t// in\n    tag_179:\n      mload(0x40)\n      tag_181\n      swap2\n      swap1\n      tag_60\n      jump\t// in\n    tag_181:\n      mload(0x40)\n      dup1\n      swap2\n      sub\n      swap1\n      return\n        /* \"CitreaNativeYeildManager.sol\":2096:2151  mapping(address => uint256) public emergencyRequestTime */\n    tag_30:\n      callvalue\n      dup1\n      iszero\n      tag_182\n      jumpi\n      revert(0x00, 0x00)\n    tag_182:\n      pop\n      tag_183\n      0x04\n      dup1\n      calldatasize\n      sub\n      dup2\n      add\n      swap1\n      tag_184\n      swap2\n      swap1\n      tag_93\n      jump\t// in\n    tag_184:\n      tag_185\n      jump\t// in\n    tag_183:\n      mload(0x40)\n      tag_186\n      swap2\n      swap1\n      tag_60\n      jump\t// in\n    tag_186:\n      mload(0x40)\n      dup1\n      swap2\n      sub\n      swap1\n      return\n        /* \"CitreaNativeYeildManager.sol\":10138:10636  function updateStakeYield(address user, uint256 stakeIndex) ... */\n    tag_31:\n      callvalue\n      dup1\n      iszero\n      tag_187\n      jumpi\n      revert(0x00, 0x00)\n    tag_187:\n      pop\n      tag_188\n      0x04\n      dup1\n      calldatasize\n      sub\n      dup2\n      add\n      swap1\n      tag_189\n      swap2\n      swap1\n      tag_68\n      jump\t// in\n    tag_189:\n      tag_190\n      jump\t// in\n    tag_188:\n      stop\n        /* \"CitreaNativeYeildManager.sol\":2041:2089  uint256 public emergencyWithdrawalDelay = 7 days */\n    tag_32:\n      callvalue\n      dup1\n      iszero\n      tag_191\n      jumpi\n      revert(0x00, 0x00)\n    tag_191:\n      pop\n      tag_192\n      tag_193\n      jump\t// in\n    tag_192:\n      mload(0x40)\n      tag_194\n      swap2\n      swap1\n      tag_60\n      jump\t// in\n    tag_194:\n      mload(0x40)\n      dup1\n      swap2\n      sub\n      swap1\n      return\n        /* \"CitreaNativeYeildManager.sol\":1491:1540  mapping(address => StakeInfo[]) public userStakes */\n    tag_33:\n      callvalue\n      dup1\n      iszero\n      tag_195\n      jumpi\n      revert(0x00, 0x00)\n    tag_195:\n      pop\n      tag_196\n      0x04\n      dup1\n      calldatasize\n      sub\n      dup2\n      add\n      swap1\n      tag_197\n      swap2\n      swap1\n      tag_68\n      jump\t// in\n    tag_197:\n      tag_198\n      jump\t// in\n    tag_196:\n      mload(0x40)\n      tag_199\n      swap6\n      swap5\n      swap4\n      swap3\n      swap2\n      swap1\n      tag_200\n      jump\t// in\n    tag_199:\n      mload(0x40)\n      dup1\n      swap2\n      sub\n      swap1\n      return\n        /* \"CitreaNativeYeildManager.sol\":11846:12345  function distributeFees() external onlyAuthorized nonReentrant {... */\n    tag_34:\n      callvalue\n      dup1\n      iszero\n      tag_201\n      jumpi\n      revert(0x00, 0x00)\n    tag_201:\n      pop\n      tag_202\n      tag_203\n      jump\t// in\n    tag_202:\n      stop\n        /* \"CitreaNativeYeildManager.sol\":6289:7358  function stakeBtcForUser(address user, uint256 potId) ... */\n    tag_35:\n      tag_204\n      0x04\n      dup1\n      calldatasize\n      sub\n      dup2\n      add\n      swap1\n      tag_205\n      swap2\n      swap1\n      tag_68\n      jump\t// in\n    tag_205:\n      tag_206\n      jump\t// in\n    tag_204:\n      stop\n        /* \"CitreaNativeYeildManager.sol\":11553:11773  function collectNetworkFees() external payable onlyAuthorized {... */\n    tag_36:\n      tag_207\n      tag_208\n      jump\t// in\n    tag_207:\n      stop\n        /* \"CitreaNativeYeildManager.sol\":12492:12681  function requestEmergencyWithdrawal() external {... */\n    tag_37:\n      callvalue\n      dup1\n      iszero\n      tag_209\n      jumpi\n      revert(0x00, 0x00)\n    tag_209:\n      pop\n      tag_210\n      tag_211\n      jump\t// in\n    tag_210:\n      stop\n        /* \"CitreaNativeYeildManager.sol\":14126:14392  function getUserStake(address user, uint256 stakeIndex) ... */\n    tag_38:\n      callvalue\n      dup1\n      iszero\n      tag_212\n      jumpi\n      revert(0x00, 0x00)\n    tag_212:\n      pop\n      tag_213\n      0x04\n      dup1\n      calldatasize\n      sub\n      dup2\n      add\n      swap1\n      tag_214\n      swap2\n      swap1\n      tag_68\n      jump\t// in\n    tag_214:\n      tag_215\n      jump\t// in\n    tag_213:\n      mload(0x40)\n      tag_216\n      swap2\n      swap1\n      tag_217\n      jump\t// in\n    tag_216:\n      mload(0x40)\n      dup1\n      swap2\n      sub\n      swap1\n      return\n        /* \"CitreaNativeYeildManager.sol\":1547:1595  mapping(uint256 => StakeInfo[]) public potStakes */\n    tag_39:\n      callvalue\n      dup1\n      iszero\n      tag_218\n      jumpi\n      revert(0x00, 0x00)\n    tag_218:\n      pop\n      tag_219\n      0x04\n      dup1\n      calldatasize\n      sub\n      dup2\n      add\n      swap1\n      tag_220\n      swap2\n      swap1\n      tag_221\n      jump\t// in\n    tag_220:\n      tag_222\n      jump\t// in\n    tag_219:\n      mload(0x40)\n      tag_223\n      swap6\n      swap5\n      swap4\n      swap3\n      swap2\n      swap1\n      tag_200\n      jump\t// in\n    tag_223:\n      mload(0x40)\n      dup1\n      swap2\n      sub\n      swap1\n      return\n        /* \"CitreaNativeYeildManager.sol\":598:642  uint256 public constant BASIS_POINTS = 10000 */\n    tag_40:\n      callvalue\n      dup1\n      iszero\n      tag_224\n      jumpi\n      revert(0x00, 0x00)\n    tag_224:\n      pop\n      tag_225\n      tag_226\n      jump\t// in\n    tag_225:\n      mload(0x40)\n      tag_227\n      swap2\n      swap1\n      tag_60\n      jump\t// in\n    tag_227:\n      mload(0x40)\n      dup1\n      swap2\n      sub\n      swap1\n      return\n        /* \"CitreaNativeYeildManager.sol\":1765:1797  YieldPool public globalYieldPool */\n    tag_41:\n      callvalue\n      dup1\n      iszero\n      tag_228\n      jumpi\n      revert(0x00, 0x00)\n    tag_228:\n      pop\n      tag_229\n      tag_230\n      jump\t// in\n    tag_229:\n      mload(0x40)\n      tag_231\n      swap6\n      swap5\n      swap4\n      swap3\n      swap2\n      swap1\n      tag_232\n      jump\t// in\n    tag_231:\n      mload(0x40)\n      dup1\n      swap2\n      sub\n      swap1\n      return\n        /* \"CitreaNativeYeildManager.sol\":7422:7657  function unstakeBtc(uint256 stakeIndex) ... */\n    tag_42:\n      callvalue\n      dup1\n      iszero\n      tag_233\n      jumpi\n      revert(0x00, 0x00)\n    tag_233:\n      pop\n      tag_234\n      0x04\n      dup1\n      calldatasize\n      sub\n      dup2\n      add\n      swap1\n      tag_235\n      swap2\n      swap1\n      tag_74\n      jump\t// in\n    tag_235:\n      tag_236\n      jump\t// in\n    tag_234:\n      stop\n        /* \"CitreaNativeYeildManager.sol\":1678:1727  mapping(uint256 => uint256) public potTotalStaked */\n    tag_43:\n      callvalue\n      dup1\n      iszero\n      tag_237\n      jumpi\n      revert(0x00, 0x00)\n    tag_237:\n      pop\n      tag_238\n      0x04\n      dup1\n      calldatasize\n      sub\n      dup2\n      add\n      swap1\n      tag_239\n      swap2\n      swap1\n      tag_74\n      jump\t// in\n    tag_239:\n      tag_240\n      jump\t// in\n    tag_238:\n      mload(0x40)\n      tag_241\n      swap2\n      swap1\n      tag_60\n      jump\t// in\n    tag_241:\n      mload(0x40)\n      dup1\n      swap2\n      sub\n      swap1\n      return\n        /* \"@openzeppelin/contracts/access/Ownable.sol\":2543:2758  function transferOwnership(address newOwner) public virtual onlyOwner {... */\n    tag_44:\n      callvalue\n      dup1\n      iszero\n      tag_242\n      jumpi\n      revert(0x00, 0x00)\n    tag_242:\n      pop\n      tag_243\n      0x04\n      dup1\n      calldatasize\n      sub\n      dup2\n      add\n      swap1\n      tag_244\n      swap2\n      swap1\n      tag_93\n      jump\t// in\n    tag_244:\n      tag_245\n      jump\t// in\n    tag_243:\n      stop\n        /* \"CitreaNativeYeildManager.sol\":12751:13909  function executeEmergencyWithdrawal() external nonReentrant {... */\n    tag_45:\n      callvalue\n      dup1\n      iszero\n      tag_246\n      jumpi\n      revert(0x00, 0x00)\n    tag_246:\n      pop\n      tag_247\n      tag_248\n      jump\t// in\n    tag_247:\n      stop\n        /* \"CitreaNativeYeildManager.sol\":5160:6203  function stakeBtc(uint256 potId) external payable whenNotPaused nonReentrant {... */\n    tag_46:\n      tag_249\n      0x04\n      dup1\n      calldatasize\n      sub\n      dup2\n      add\n      swap1\n      tag_250\n      swap2\n      swap1\n      tag_74\n      jump\t// in\n    tag_250:\n      tag_251\n      jump\t// in\n    tag_249:\n      stop\n        /* \"CitreaNativeYeildManager.sol\":14404:14656  function getUserCurrentYield(address user, uint256 stakeIndex) ... */\n    tag_69:\n        /* \"CitreaNativeYeildManager.sol\":14520:14527  uint256 */\n      0x00\n        /* \"CitreaNativeYeildManager.sol\":14564:14574  userStakes */\n      0x03\n        /* \"CitreaNativeYeildManager.sol\":14564:14580  userStakes[user] */\n      0x00\n        /* \"CitreaNativeYeildManager.sol\":14575:14579  user */\n      dup5\n        /* \"CitreaNativeYeildManager.sol\":14564:14580  userStakes[user] */\n      0xffffffffffffffffffffffffffffffffffffffff\n      and\n      0xffffffffffffffffffffffffffffffffffffffff\n      and\n      dup2\n      mstore\n      0x20\n      add\n      swap1\n      dup2\n      mstore\n      0x20\n      add\n      0x00\n      keccak256\n        /* \"CitreaNativeYeildManager.sol\":14564:14587  userStakes[user].length */\n      dup1\n      sload\n      swap1\n      pop\n        /* \"CitreaNativeYeildManager.sol\":14550:14560  stakeIndex */\n      dup3\n        /* \"CitreaNativeYeildManager.sol\":14550:14587  stakeIndex >= userStakes[user].length */\n      lt\n        /* \"CitreaNativeYeildManager.sol\":14546:14597  if (stakeIndex >= userStakes[user].length) return 0 */\n      tag_253\n      jumpi\n        /* \"CitreaNativeYeildManager.sol\":14596:14597  0 */\n      0x00\n        /* \"CitreaNativeYeildManager.sol\":14589:14597  return 0 */\n      swap1\n      pop\n      jump(tag_252)\n        /* \"CitreaNativeYeildManager.sol\":14546:14597  if (stakeIndex >= userStakes[user].length) return 0 */\n    tag_253:\n        /* \"CitreaNativeYeildManager.sol\":14615:14648  _calculateYield(user, stakeIndex) */\n      tag_254\n        /* \"CitreaNativeYeildManager.sol\":14631:14635  user */\n      dup4\n        /* \"CitreaNativeYeildManager.sol\":14637:14647  stakeIndex */\n      dup4\n        /* \"CitreaNativeYeildManager.sol\":14615:14630  _calculateYield */\n      tag_255\n        /* \"CitreaNativeYeildManager.sol\":14615:14648  _calculateYield(user, stakeIndex) */\n      jump\t// in\n    tag_254:\n        /* \"CitreaNativeYeildManager.sol\":14608:14648  return _calculateYield(user, stakeIndex) */\n      swap1\n      pop\n        /* \"CitreaNativeYeildManager.sol\":14404:14656  function getUserCurrentYield(address user, uint256 stakeIndex) ... */\n    tag_252:\n      swap3\n      swap2\n      pop\n      pop\n      jump\t// out\n        /* \"CitreaNativeYeildManager.sol\":14972:15093  function getPotTotalStaked(uint256 potId) external view returns (uint256) {... */\n    tag_75:\n        /* \"CitreaNativeYeildManager.sol\":15037:15044  uint256 */\n      0x00\n        /* \"CitreaNativeYeildManager.sol\":15064:15078  potTotalStaked */\n      0x06\n        /* \"CitreaNativeYeildManager.sol\":15064:15085  potTotalStaked[potId] */\n      0x00\n        /* \"CitreaNativeYeildManager.sol\":15079:15084  potId */\n      dup4\n        /* \"CitreaNativeYeildManager.sol\":15064:15085  potTotalStaked[potId] */\n      dup2\n      mstore\n      0x20\n      add\n      swap1\n      dup2\n      mstore\n      0x20\n      add\n      0x00\n      keccak256\n      sload\n        /* \"CitreaNativeYeildManager.sol\":15057:15085  return potTotalStaked[potId] */\n      swap1\n      pop\n        /* \"CitreaNativeYeildManager.sol\":14972:15093  function getPotTotalStaked(uint256 potId) external view returns (uint256) {... */\n      swap2\n      swap1\n      pop\n      jump\t// out\n        /* \"CitreaNativeYeildManager.sol\":15105:15582  function getGlobalYieldPool() ... */\n    tag_79:\n        /* \"CitreaNativeYeildManager.sol\":15202:15221  uint256 totalStaked */\n      0x00\n        /* \"CitreaNativeYeildManager.sol\":15236:15263  uint256 totalYieldGenerated */\n      0x00\n        /* \"CitreaNativeYeildManager.sol\":15278:15302  uint256 currentYieldRate */\n      0x00\n        /* \"CitreaNativeYeildManager.sol\":15317:15341  uint256 participantCount */\n      0x00\n        /* \"CitreaNativeYeildManager.sol\":15392:15407  globalYieldPool */\n      0x07\n        /* \"CitreaNativeYeildManager.sol\":15392:15419  globalYieldPool.totalStaked */\n      0x00\n      add\n      sload\n        /* \"CitreaNativeYeildManager.sol\":15434:15449  globalYieldPool */\n      0x07\n        /* \"CitreaNativeYeildManager.sol\":15434:15469  globalYieldPool.totalYieldGenerated */\n      0x01\n      add\n      sload\n        /* \"CitreaNativeYeildManager.sol\":15484:15499  globalYieldPool */\n      0x07\n        /* \"CitreaNativeYeildManager.sol\":15484:15516  globalYieldPool.currentYieldRate */\n      0x02\n      add\n      sload\n        /* \"CitreaNativeYeildManager.sol\":15531:15546  globalYieldPool */\n      0x07\n        /* \"CitreaNativeYeildManager.sol\":15531:15563  globalYieldPool.participantCount */\n      0x04\n      add\n      sload\n        /* \"CitreaNativeYeildManager.sol\":15370:15574  return (... */\n      swap4\n      pop\n      swap4\n      pop\n      swap4\n      pop\n      swap4\n      pop\n        /* \"CitreaNativeYeildManager.sol\":15105:15582  function getGlobalYieldPool() ... */\n      swap1\n      swap2\n      swap3\n      swap4\n      jump\t// out\n        /* \"CitreaNativeYeildManager.sol\":1897:1926  uint256 public networkFeePool */\n    tag_84:\n      sload(0x0d)\n      dup2\n      jump\t// out\n        /* \"CitreaNativeYeildManager.sol\":15906:16355  function withdrawProtocolFees(address recipient, uint256 amount) ... */\n    tag_89:\n        /* \"@openzeppelin/contracts/access/Ownable.sol\":1531:1544  _checkOwner() */\n      tag_259\n        /* \"@openzeppelin/contracts/access/Ownable.sol\":1531:1542  _checkOwner */\n      tag_260\n        /* \"@openzeppelin/contracts/access/Ownable.sol\":1531:1544  _checkOwner() */\n      jump\t// in\n    tag_259:\n        /* \"@openzeppelin/contracts/security/ReentrancyGuard.sol\":2261:2282  _nonReentrantBefore() */\n      tag_262\n        /* \"@openzeppelin/contracts/security/ReentrancyGuard.sol\":2261:2280  _nonReentrantBefore */\n      tag_263\n        /* \"@openzeppelin/contracts/security/ReentrancyGuard.sol\":2261:2282  _nonReentrantBefore() */\n      jump\t// in\n    tag_262:\n        /* \"CitreaNativeYeildManager.sol\":16079:16080  0 */\n      0x00\n        /* \"CitreaNativeYeildManager.sol\":16058:16081  recipient != address(0) */\n      0xffffffffffffffffffffffffffffffffffffffff\n      and\n        /* \"CitreaNativeYeildManager.sol\":16058:16067  recipient */\n      dup3\n        /* \"CitreaNativeYeildManager.sol\":16058:16081  recipient != address(0) */\n      0xffffffffffffffffffffffffffffffffffffffff\n      and\n      sub\n        /* \"CitreaNativeYeildManager.sol\":16050:16103  require(recipient != address(0), \"Invalid recipient\") */\n      tag_265\n      jumpi\n      mload(0x40)\n      0x08c379a000000000000000000000000000000000000000000000000000000000\n      dup2\n      mstore\n      0x04\n      add\n      tag_266\n      swap1\n      tag_267\n      jump\t// in\n    tag_266:\n      mload(0x40)\n      dup1\n      swap2\n      sub\n      swap1\n      revert\n    tag_265:\n        /* \"CitreaNativeYeildManager.sol\":16132:16146  networkFeePool */\n      sload(0x0d)\n        /* \"CitreaNativeYeildManager.sol\":16122:16128  amount */\n      dup2\n        /* \"CitreaNativeYeildManager.sol\":16122:16146  amount <= networkFeePool */\n      gt\n      iszero\n        /* \"CitreaNativeYeildManager.sol\":16114:16168  require(amount <= networkFeePool, \"Insufficient fees\") */\n      tag_268\n      jumpi\n      mload(0x40)\n      0x08c379a000000000000000000000000000000000000000000000000000000000\n      dup2\n      mstore\n      0x04\n      add\n      tag_269\n      swap1\n      tag_270\n      jump\t// in\n    tag_269:\n      mload(0x40)\n      dup1\n      swap2\n      sub\n      swap1\n      revert\n    tag_268:\n        /* \"CitreaNativeYeildManager.sol\":16207:16213  amount */\n      dup1\n        /* \"CitreaNativeYeildManager.sol\":16189:16203  networkFeePool */\n      0x0d\n      0x00\n        /* \"CitreaNativeYeildManager.sol\":16189:16213  networkFeePool -= amount */\n      dup3\n      dup3\n      sload\n      tag_271\n      swap2\n      swap1\n      tag_272\n      jump\t// in\n    tag_271:\n      swap3\n      pop\n      pop\n      dup2\n      swap1\n      sstore\n      pop\n        /* \"CitreaNativeYeildManager.sol\":16235:16247  bool success */\n      0x00\n        /* \"CitreaNativeYeildManager.sol\":16261:16270  recipient */\n      dup3\n        /* \"CitreaNativeYeildManager.sol\":16253:16276  payable(recipient).call */\n      0xffffffffffffffffffffffffffffffffffffffff\n      and\n        /* \"CitreaNativeYeildManager.sol\":16284:16290  amount */\n      dup3\n        /* \"CitreaNativeYeildManager.sol\":16253:16295  payable(recipient).call{value: amount}(\"\") */\n      mload(0x40)\n      tag_273\n      swap1\n      tag_274\n      jump\t// in\n    tag_273:\n      0x00\n      mload(0x40)\n      dup1\n      dup4\n      sub\n      dup2\n      dup6\n      dup8\n      gas\n      call\n      swap3\n      pop\n      pop\n      pop\n      returndatasize\n      dup1\n      0x00\n      dup2\n      eq\n      tag_277\n      jumpi\n      mload(0x40)\n      swap2\n      pop\n      and(add(returndatasize, 0x3f), not(0x1f))\n      dup3\n      add\n      0x40\n      mstore\n      returndatasize\n      dup3\n      mstore\n      returndatasize\n      0x00\n      0x20\n      dup5\n      add\n      returndatacopy\n      jump(tag_276)\n    tag_277:\n      0x60\n      swap2\n      pop\n    tag_276:\n      pop\n        /* \"CitreaNativeYeildManager.sol\":16234:16295  (bool success, ) = payable(recipient).call{value: amount}(\"\") */\n      pop\n      swap1\n      pop\n        /* \"CitreaNativeYeildManager.sol\":16314:16321  success */\n      dup1\n        /* \"CitreaNativeYeildManager.sol\":16306:16347  require(success, \"Fee withdrawal failed\") */\n      tag_278\n      jumpi\n      mload(0x40)\n      0x08c379a000000000000000000000000000000000000000000000000000000000\n      dup2\n      mstore\n      0x04\n      add\n      tag_279\n      swap1\n      tag_280\n      jump\t// in\n    tag_279:\n      mload(0x40)\n      dup1\n      swap2\n      sub\n      swap1\n      revert\n    tag_278:\n        /* \"CitreaNativeYeildManager.sol\":16039:16355  {... */\n      pop\n        /* \"@openzeppelin/contracts/security/ReentrancyGuard.sol\":2303:2323  _nonReentrantAfter() */\n      tag_281\n        /* \"@openzeppelin/contracts/security/ReentrancyGuard.sol\":2303:2321  _nonReentrantAfter */\n      tag_282\n        /* \"@openzeppelin/contracts/security/ReentrancyGuard.sol\":2303:2323  _nonReentrantAfter() */\n      jump\t// in\n    tag_281:\n        /* \"CitreaNativeYeildManager.sol\":15906:16355  function withdrawProtocolFees(address recipient, uint256 amount) ... */\n      pop\n      pop\n      jump\t// out\n        /* \"CitreaNativeYeildManager.sol\":13992:14114  function getUserStakeCount(address user) external view returns (uint256) {... */\n    tag_94:\n        /* \"CitreaNativeYeildManager.sol\":14056:14063  uint256 */\n      0x00\n        /* \"CitreaNativeYeildManager.sol\":14083:14093  userStakes */\n      0x03\n        /* \"CitreaNativeYeildManager.sol\":14083:14099  userStakes[user] */\n      0x00\n        /* \"CitreaNativeYeildManager.sol\":14094:14098  user */\n      dup4\n        /* \"CitreaNativeYeildManager.sol\":14083:14099  userStakes[user] */\n      0xffffffffffffffffffffffffffffffffffffffff\n      and\n      0xffffffffffffffffffffffffffffffffffffffff\n      and\n      dup2\n      mstore\n      0x20\n      add\n      swap1\n      dup2\n      mstore\n      0x20\n      add\n      0x00\n      keccak256\n        /* \"CitreaNativeYeildManager.sol\":14083:14106  userStakes[user].length */\n      dup1\n      sload\n      swap1\n      pop\n        /* \"CitreaNativeYeildManager.sol\":14076:14106  return userStakes[user].length */\n      swap1\n      pop\n        /* \"CitreaNativeYeildManager.sol\":13992:14114  function getUserStakeCount(address user) external view returns (uint256) {... */\n      swap2\n      swap1\n      pop\n      jump\t// out\n        /* \"CitreaNativeYeildManager.sol\":14668:14960  function getUserTotalYield(address user) external view returns (uint256 totalYield) {... */\n    tag_99:\n        /* \"CitreaNativeYeildManager.sol\":14732:14750  uint256 totalYield */\n      0x00\n        /* \"CitreaNativeYeildManager.sol\":14763:14789  StakeInfo[] storage stakes */\n      0x00\n        /* \"CitreaNativeYeildManager.sol\":14792:14802  userStakes */\n      0x03\n        /* \"CitreaNativeYeildManager.sol\":14792:14808  userStakes[user] */\n      0x00\n        /* \"CitreaNativeYeildManager.sol\":14803:14807  user */\n      dup5\n        /* \"CitreaNativeYeildManager.sol\":14792:14808  userStakes[user] */\n      0xffffffffffffffffffffffffffffffffffffffff\n      and\n      0xffffffffffffffffffffffffffffffffffffffff\n      and\n      dup2\n      mstore\n      0x20\n      add\n      swap1\n      dup2\n      mstore\n      0x20\n      add\n      0x00\n      keccak256\n        /* \"CitreaNativeYeildManager.sol\":14763:14808  StakeInfo[] storage stakes = userStakes[user] */\n      swap1\n      pop\n        /* \"CitreaNativeYeildManager.sol\":14824:14833  uint256 i */\n      0x00\n        /* \"CitreaNativeYeildManager.sol\":14836:14837  0 */\n      0x00\n        /* \"CitreaNativeYeildManager.sol\":14824:14837  uint256 i = 0 */\n      swap1\n      pop\n        /* \"CitreaNativeYeildManager.sol\":14819:14953  for (uint256 i = 0; i < stakes.length; i++) {... */\n    tag_285:\n        /* \"CitreaNativeYeildManager.sol\":14843:14849  stakes */\n      dup2\n        /* \"CitreaNativeYeildManager.sol\":14843:14856  stakes.length */\n      dup1\n      sload\n      swap1\n      pop\n        /* \"CitreaNativeYeildManager.sol\":14839:14840  i */\n      dup2\n        /* \"CitreaNativeYeildManager.sol\":14839:14856  i < stakes.length */\n      lt\n        /* \"CitreaNativeYeildManager.sol\":14819:14953  for (uint256 i = 0; i < stakes.length; i++) {... */\n      iszero\n      tag_286\n      jumpi\n        /* \"CitreaNativeYeildManager.sol\":14917:14941  _calculateYield(user, i) */\n      tag_288\n        /* \"CitreaNativeYeildManager.sol\":14933:14937  user */\n      dup5\n        /* \"CitreaNativeYeildManager.sol\":14939:14940  i */\n      dup3\n        /* \"CitreaNativeYeildManager.sol\":14917:14932  _calculateYield */\n      tag_255\n        /* \"CitreaNativeYeildManager.sol\":14917:14941  _calculateYield(user, i) */\n      jump\t// in\n    tag_288:\n        /* \"CitreaNativeYeildManager.sol\":14892:14898  stakes */\n      dup3\n        /* \"CitreaNativeYeildManager.sol\":14899:14900  i */\n      dup3\n        /* \"CitreaNativeYeildManager.sol\":14892:14901  stakes[i] */\n      dup2\n      sload\n      dup2\n      lt\n      tag_289\n      jumpi\n      tag_290\n      tag_291\n      jump\t// in\n    tag_290:\n    tag_289:\n      swap1\n      0x00\n      mstore\n      keccak256(0x00, 0x20)\n      swap1\n      0x05\n      mul\n      add\n        /* \"CitreaNativeYeildManager.sol\":14892:14914  stakes[i].accruedYield */\n      0x01\n      add\n      sload\n        /* \"CitreaNativeYeildManager.sol\":14892:14941  stakes[i].accruedYield + _calculateYield(user, i) */\n      tag_293\n      swap2\n      swap1\n      tag_58\n      jump\t// in\n    tag_293:\n        /* \"CitreaNativeYeildManager.sol\":14878:14941  totalYield += stakes[i].accruedYield + _calculateYield(user, i) */\n      dup4\n      tag_294\n      swap2\n      swap1\n      tag_58\n      jump\t// in\n    tag_294:\n      swap3\n      pop\n        /* \"CitreaNativeYeildManager.sol\":14858:14861  i++ */\n      dup1\n      dup1\n      0x01\n      add\n      swap2\n      pop\n      pop\n        /* \"CitreaNativeYeildManager.sol\":14819:14953  for (uint256 i = 0; i < stakes.length; i++) {... */\n      jump(tag_285)\n    tag_286:\n      pop\n        /* \"CitreaNativeYeildManager.sol\":14752:14960  {... */\n      pop\n        /* \"CitreaNativeYeildManager.sol\":14668:14960  function getUserTotalYield(address user) external view returns (uint256 totalYield) {... */\n      swap2\n      swap1\n      pop\n      jump\t// out\n        /* \"CitreaNativeYeildManager.sol\":763:820  uint256 public constant YIELD_CALCULATION_PERIOD = 1 days */\n    tag_103:\n        /* \"CitreaNativeYeildManager.sol\":814:820  1 days */\n      0x015180\n        /* \"CitreaNativeYeildManager.sol\":763:820  uint256 public constant YIELD_CALCULATION_PERIOD = 1 days */\n      dup2\n      jump\t// out\n        /* \"CitreaNativeYeildManager.sol\":678:732  uint256 public constant MIN_STAKE_AMOUNT = 0.001 ether */\n    tag_107:\n        /* \"CitreaNativeYeildManager.sol\":721:732  0.001 ether */\n      0x038d7ea4c68000\n        /* \"CitreaNativeYeildManager.sol\":678:732  uint256 public constant MIN_STAKE_AMOUNT = 0.001 ether */\n      dup2\n      jump\t// out\n        /* \"CitreaNativeYeildManager.sol\":7735:8086  function unstakeBtcForUser(address user, uint256 stakeIndex, address recipient) ... */\n    tag_113:\n        /* \"CitreaNativeYeildManager.sol\":3305:3322  authorizedCallers */\n      0x0c\n        /* \"CitreaNativeYeildManager.sol\":3305:3334  authorizedCallers[msg.sender] */\n      0x00\n        /* \"CitreaNativeYeildManager.sol\":3323:3333  msg.sender */\n      caller\n        /* \"CitreaNativeYeildManager.sol\":3305:3334  authorizedCallers[msg.sender] */\n      0xffffffffffffffffffffffffffffffffffffffff\n      and\n      0xffffffffffffffffffffffffffffffffffffffff\n      and\n      dup2\n      mstore\n      0x20\n      add\n      swap1\n      dup2\n      mstore\n      0x20\n      add\n      0x00\n      keccak256\n      0x00\n      swap1\n      sload\n      swap1\n      0x0100\n      exp\n      swap1\n      div\n      0xff\n      and\n        /* \"CitreaNativeYeildManager.sol\":3305:3359  authorizedCallers[msg.sender] || msg.sender == owner() */\n      dup1\n      tag_296\n      jumpi\n      pop\n        /* \"CitreaNativeYeildManager.sol\":3352:3359  owner() */\n      tag_297\n        /* \"CitreaNativeYeildManager.sol\":3352:3357  owner */\n      tag_175\n        /* \"CitreaNativeYeildManager.sol\":3352:3359  owner() */\n      jump\t// in\n    tag_297:\n        /* \"CitreaNativeYeildManager.sol\":3338:3359  msg.sender == owner() */\n      0xffffffffffffffffffffffffffffffffffffffff\n      and\n        /* \"CitreaNativeYeildManager.sol\":3338:3348  msg.sender */\n      caller\n        /* \"CitreaNativeYeildManager.sol\":3338:3359  msg.sender == owner() */\n      0xffffffffffffffffffffffffffffffffffffffff\n      and\n      eq\n        /* \"CitreaNativeYeildManager.sol\":3305:3359  authorizedCallers[msg.sender] || msg.sender == owner() */\n    tag_296:\n        /* \"CitreaNativeYeildManager.sol\":3283:3401  require(... */\n      tag_298\n      jumpi\n      mload(0x40)\n      0x08c379a000000000000000000000000000000000000000000000000000000000\n      dup2\n      mstore\n      0x04\n      add\n      tag_299\n      swap1\n      tag_300\n      jump\t// in\n    tag_299:\n      mload(0x40)\n      dup1\n      swap2\n      sub\n      swap1\n      revert\n    tag_298:\n        /* \"@openzeppelin/contracts/security/Pausable.sol\":1239:1258  _requireNotPaused() */\n      tag_302\n        /* \"@openzeppelin/contracts/security/Pausable.sol\":1239:1256  _requireNotPaused */\n      tag_303\n        /* \"@openzeppelin/contracts/security/Pausable.sol\":1239:1258  _requireNotPaused() */\n      jump\t// in\n    tag_302:\n        /* \"@openzeppelin/contracts/security/ReentrancyGuard.sol\":2261:2282  _nonReentrantBefore() */\n      tag_305\n        /* \"@openzeppelin/contracts/security/ReentrancyGuard.sol\":2261:2280  _nonReentrantBefore */\n      tag_263\n        /* \"@openzeppelin/contracts/security/ReentrancyGuard.sol\":2261:2282  _nonReentrantBefore() */\n      jump\t// in\n    tag_305:\n        /* \"CitreaNativeYeildManager.sol\":7932:7936  user */\n      dup3\n        /* \"CitreaNativeYeildManager.sol\":7938:7948  stakeIndex */\n      dup3\n        /* \"CitreaNativeYeildManager.sol\":3524:3534  userStakes */\n      0x03\n        /* \"CitreaNativeYeildManager.sol\":3524:3540  userStakes[user] */\n      0x00\n        /* \"CitreaNativeYeildManager.sol\":3535:3539  user */\n      dup4\n        /* \"CitreaNativeYeildManager.sol\":3524:3540  userStakes[user] */\n      0xffffffffffffffffffffffffffffffffffffffff\n      and\n      0xffffffffffffffffffffffffffffffffffffffff\n      and\n      dup2\n      mstore\n      0x20\n      add\n      swap1\n      dup2\n      mstore\n      0x20\n      add\n      0x00\n      keccak256\n        /* \"CitreaNativeYeildManager.sol\":3524:3547  userStakes[user].length */\n      dup1\n      sload\n      swap1\n      pop\n        /* \"CitreaNativeYeildManager.sol\":3511:3521  stakeIndex */\n      dup2\n        /* \"CitreaNativeYeildManager.sol\":3511:3547  stakeIndex < userStakes[user].length */\n      lt\n        /* \"CitreaNativeYeildManager.sol\":3503:3571  require(stakeIndex < userStakes[user].length, \"Invalid stake index\") */\n      tag_307\n      jumpi\n      mload(0x40)\n      0x08c379a000000000000000000000000000000000000000000000000000000000\n      dup2\n      mstore\n      0x04\n      add\n      tag_308\n      swap1\n      tag_309\n      jump\t// in\n    tag_308:\n      mload(0x40)\n      dup1\n      swap2\n      sub\n      swap1\n      revert\n    tag_307:\n        /* \"CitreaNativeYeildManager.sol\":3590:3600  userStakes */\n      0x03\n        /* \"CitreaNativeYeildManager.sol\":3590:3606  userStakes[user] */\n      0x00\n        /* \"CitreaNativeYeildManager.sol\":3601:3605  user */\n      dup4\n        /* \"CitreaNativeYeildManager.sol\":3590:3606  userStakes[user] */\n      0xffffffffffffffffffffffffffffffffffffffff\n      and\n      0xffffffffffffffffffffffffffffffffffffffff\n      and\n      dup2\n      mstore\n      0x20\n      add\n      swap1\n      dup2\n      mstore\n      0x20\n      add\n      0x00\n      keccak256\n        /* \"CitreaNativeYeildManager.sol\":3607:3617  stakeIndex */\n      dup2\n        /* \"CitreaNativeYeildManager.sol\":3590:3618  userStakes[user][stakeIndex] */\n      dup2\n      sload\n      dup2\n      lt\n      tag_310\n      jumpi\n      tag_311\n      tag_291\n      jump\t// in\n    tag_311:\n    tag_310:\n      swap1\n      0x00\n      mstore\n      keccak256(0x00, 0x20)\n      swap1\n      0x05\n      mul\n      add\n        /* \"CitreaNativeYeildManager.sol\":3590:3627  userStakes[user][stakeIndex].isActive */\n      0x04\n      add\n      0x00\n      swap1\n      sload\n      swap1\n      0x0100\n      exp\n      swap1\n      div\n      0xff\n      and\n        /* \"CitreaNativeYeildManager.sol\":3582:3648  require(userStakes[user][stakeIndex].isActive, \"Stake not active\") */\n      tag_313\n      jumpi\n      mload(0x40)\n      0x08c379a000000000000000000000000000000000000000000000000000000000\n      dup2\n      mstore\n      0x04\n      add\n      tag_314\n      swap1\n      tag_315\n      jump\t// in\n    tag_314:\n      mload(0x40)\n      dup1\n      swap2\n      sub\n      swap1\n      revert\n    tag_313:\n        /* \"CitreaNativeYeildManager.sol\":7995:7996  0 */\n      0x00\n        /* \"CitreaNativeYeildManager.sol\":7974:7997  recipient != address(0) */\n      0xffffffffffffffffffffffffffffffffffffffff\n      and\n        /* \"CitreaNativeYeildManager.sol\":7974:7983  recipient */\n      dup4\n        /* \"CitreaNativeYeildManager.sol\":7974:7997  recipient != address(0) */\n      0xffffffffffffffffffffffffffffffffffffffff\n      and\n      sub\n        /* \"CitreaNativeYeildManager.sol\":7966:8019  require(recipient != address(0), \"Invalid recipient\") */\n      tag_317\n      jumpi\n      mload(0x40)\n      0x08c379a000000000000000000000000000000000000000000000000000000000\n      dup2\n      mstore\n      0x04\n      add\n      tag_318\n      swap1\n      tag_267\n      jump\t// in\n    tag_318:\n      mload(0x40)\n      dup1\n      swap2\n      sub\n      swap1\n      revert\n    tag_317:\n        /* \"CitreaNativeYeildManager.sol\":8030:8078  _unstakeBtcInternal(user, stakeIndex, recipient) */\n      tag_319\n        /* \"CitreaNativeYeildManager.sol\":8050:8054  user */\n      dup6\n        /* \"CitreaNativeYeildManager.sol\":8056:8066  stakeIndex */\n      dup6\n        /* \"CitreaNativeYeildManager.sol\":8068:8077  recipient */\n      dup6\n        /* \"CitreaNativeYeildManager.sol\":8030:8049  _unstakeBtcInternal */\n      tag_320\n        /* \"CitreaNativeYeildManager.sol\":8030:8078  _unstakeBtcInternal(user, stakeIndex, recipient) */\n      jump\t// in\n    tag_319:\n        /* \"@openzeppelin/contracts/security/ReentrancyGuard.sol\":2292:2293  _ */\n      pop\n      pop\n        /* \"@openzeppelin/contracts/security/ReentrancyGuard.sol\":2303:2323  _nonReentrantAfter() */\n      tag_321\n        /* \"@openzeppelin/contracts/security/ReentrancyGuard.sol\":2303:2321  _nonReentrantAfter */\n      tag_282\n        /* \"@openzeppelin/contracts/security/ReentrancyGuard.sol\":2303:2323  _nonReentrantAfter() */\n      jump\t// in\n    tag_321:\n        /* \"CitreaNativeYeildManager.sol\":7735:8086  function unstakeBtcForUser(address user, uint256 stakeIndex, address recipient) ... */\n      pop\n      pop\n      pop\n      jump\t// out\n        /* \"CitreaNativeYeildManager.sol\":4027:4477  function updateYieldRate(uint256 newRate) external onlyOwner {... */\n    tag_117:\n        /* \"@openzeppelin/contracts/access/Ownable.sol\":1531:1544  _checkOwner() */\n      tag_323\n        /* \"@openzeppelin/contracts/access/Ownable.sol\":1531:1542  _checkOwner */\n      tag_260\n        /* \"@openzeppelin/contracts/access/Ownable.sol\":1531:1544  _checkOwner() */\n      jump\t// in\n    tag_323:\n        /* \"CitreaNativeYeildManager.sol\":942:944  50 */\n      0x32\n        /* \"CitreaNativeYeildManager.sol\":4107:4114  newRate */\n      dup2\n        /* \"CitreaNativeYeildManager.sol\":4107:4132  newRate >= MIN_YIELD_RATE */\n      lt\n      iszero\n        /* \"CitreaNativeYeildManager.sol\":4107:4161  newRate >= MIN_YIELD_RATE && newRate <= MAX_YIELD_RATE */\n      dup1\n      iszero\n      tag_325\n      jumpi\n      pop\n        /* \"CitreaNativeYeildManager.sol\":868:871  800 */\n      0x0320\n        /* \"CitreaNativeYeildManager.sol\":4136:4143  newRate */\n      dup2\n        /* \"CitreaNativeYeildManager.sol\":4136:4161  newRate <= MAX_YIELD_RATE */\n      gt\n      iszero\n        /* \"CitreaNativeYeildManager.sol\":4107:4161  newRate >= MIN_YIELD_RATE && newRate <= MAX_YIELD_RATE */\n    tag_325:\n        /* \"CitreaNativeYeildManager.sol\":4099:4184  require(newRate >= MIN_YIELD_RATE && newRate <= MAX_YIELD_RATE, \"Invalid yield rate\") */\n      tag_326\n      jumpi\n      mload(0x40)\n      0x08c379a000000000000000000000000000000000000000000000000000000000\n      dup2\n      mstore\n      0x04\n      add\n      tag_327\n      swap1\n      tag_328\n      jump\t// in\n    tag_327:\n      mload(0x40)\n      dup1\n      swap2\n      sub\n      swap1\n      revert\n    tag_326:\n        /* \"CitreaNativeYeildManager.sol\":4265:4285  _updateGlobalYield() */\n      tag_329\n        /* \"CitreaNativeYeildManager.sol\":4265:4283  _updateGlobalYield */\n      tag_330\n        /* \"CitreaNativeYeildManager.sol\":4265:4285  _updateGlobalYield() */\n      jump\t// in\n    tag_329:\n        /* \"CitreaNativeYeildManager.sol\":4306:4321  uint256 oldRate */\n      0x00\n        /* \"CitreaNativeYeildManager.sol\":4324:4339  globalYieldPool */\n      0x07\n        /* \"CitreaNativeYeildManager.sol\":4324:4356  globalYieldPool.currentYieldRate */\n      0x02\n      add\n      sload\n        /* \"CitreaNativeYeildManager.sol\":4306:4356  uint256 oldRate = globalYieldPool.currentYieldRate */\n      swap1\n      pop\n        /* \"CitreaNativeYeildManager.sol\":4402:4409  newRate */\n      dup2\n        /* \"CitreaNativeYeildManager.sol\":4367:4382  globalYieldPool */\n      0x07\n        /* \"CitreaNativeYeildManager.sol\":4367:4399  globalYieldPool.currentYieldRate */\n      0x02\n      add\n        /* \"CitreaNativeYeildManager.sol\":4367:4409  globalYieldPool.currentYieldRate = newRate */\n      dup2\n      swap1\n      sstore\n      pop\n        /* \"CitreaNativeYeildManager.sol\":4435:4469  YieldRateUpdated(oldRate, newRate) */\n      0x4959ad9023bf5b492922b51fbc7c0b5e5ec66aa39700e0da6d8af9b2d430898e\n        /* \"CitreaNativeYeildManager.sol\":4452:4459  oldRate */\n      dup2\n        /* \"CitreaNativeYeildManager.sol\":4461:4468  newRate */\n      dup4\n        /* \"CitreaNativeYeildManager.sol\":4435:4469  YieldRateUpdated(oldRate, newRate) */\n      mload(0x40)\n      tag_331\n      swap3\n      swap2\n      swap1\n      tag_332\n      jump\t// in\n    tag_331:\n      mload(0x40)\n      dup1\n      swap2\n      sub\n      swap1\n      log1\n        /* \"CitreaNativeYeildManager.sol\":4088:4477  {... */\n      pop\n        /* \"CitreaNativeYeildManager.sol\":4027:4477  function updateYieldRate(uint256 newRate) external onlyOwner {... */\n      pop\n      jump\t// out\n        /* \"CitreaNativeYeildManager.sol\":15721:15822  function getNetworkFeePool() external view returns (uint256) {... */\n    tag_120:\n        /* \"CitreaNativeYeildManager.sol\":15773:15780  uint256 */\n      0x00\n        /* \"CitreaNativeYeildManager.sol\":15800:15814  networkFeePool */\n      sload(0x0d)\n        /* \"CitreaNativeYeildManager.sol\":15793:15814  return networkFeePool */\n      swap1\n      pop\n        /* \"CitreaNativeYeildManager.sol\":15721:15822  function getNetworkFeePool() external view returns (uint256) {... */\n      swap1\n      jump\t// out\n        /* \"CitreaNativeYeildManager.sol\":901:944  uint256 public constant MIN_YIELD_RATE = 50 */\n    tag_124:\n        /* \"CitreaNativeYeildManager.sol\":942:944  50 */\n      0x32\n        /* \"CitreaNativeYeildManager.sol\":901:944  uint256 public constant MIN_YIELD_RATE = 50 */\n      dup2\n      jump\t// out\n        /* \"CitreaNativeYeildManager.sol\":4872:4939  function unpause() external onlyOwner {... */\n    tag_128:\n        /* \"@openzeppelin/contracts/access/Ownable.sol\":1531:1544  _checkOwner() */\n      tag_335\n        /* \"@openzeppelin/contracts/access/Ownable.sol\":1531:1542  _checkOwner */\n      tag_260\n        /* \"@openzeppelin/contracts/access/Ownable.sol\":1531:1544  _checkOwner() */\n      jump\t// in\n    tag_335:\n        /* \"CitreaNativeYeildManager.sol\":4921:4931  _unpause() */\n      tag_337\n        /* \"CitreaNativeYeildManager.sol\":4921:4929  _unpause */\n      tag_338\n        /* \"CitreaNativeYeildManager.sol\":4921:4931  _unpause() */\n      jump\t// in\n    tag_337:\n        /* \"CitreaNativeYeildManager.sol\":4872:4939  function unpause() external onlyOwner {... */\n      jump\t// out\n        /* \"CitreaNativeYeildManager.sol\":3752:4015  function setAuthorizedCaller(address caller, bool authorized) external onlyOwner {... */\n    tag_133:\n        /* \"@openzeppelin/contracts/access/Ownable.sol\":1531:1544  _checkOwner() */\n      tag_340\n        /* \"@openzeppelin/contracts/access/Ownable.sol\":1531:1542  _checkOwner */\n      tag_260\n        /* \"@openzeppelin/contracts/access/Ownable.sol\":1531:1544  _checkOwner() */\n      jump\t// in\n    tag_340:\n        /* \"CitreaNativeYeildManager.sol\":3870:3871  0 */\n      0x00\n        /* \"CitreaNativeYeildManager.sol\":3852:3872  caller != address(0) */\n      0xffffffffffffffffffffffffffffffffffffffff\n      and\n        /* \"CitreaNativeYeildManager.sol\":3852:3858  caller */\n      dup3\n        /* \"CitreaNativeYeildManager.sol\":3852:3872  caller != address(0) */\n      0xffffffffffffffffffffffffffffffffffffffff\n      and\n      sub\n        /* \"CitreaNativeYeildManager.sol\":3844:3899  require(caller != address(0), \"Invalid caller address\") */\n      tag_342\n      jumpi\n      mload(0x40)\n      0x08c379a000000000000000000000000000000000000000000000000000000000\n      dup2\n      mstore\n      0x04\n      add\n      tag_343\n      swap1\n      tag_344\n      jump\t// in\n    tag_343:\n      mload(0x40)\n      dup1\n      swap2\n      sub\n      swap1\n      revert\n    tag_342:\n        /* \"CitreaNativeYeildManager.sol\":3938:3948  authorized */\n      dup1\n        /* \"CitreaNativeYeildManager.sol\":3910:3927  authorizedCallers */\n      0x0c\n        /* \"CitreaNativeYeildManager.sol\":3910:3935  authorizedCallers[caller] */\n      0x00\n        /* \"CitreaNativeYeildManager.sol\":3928:3934  caller */\n      dup5\n        /* \"CitreaNativeYeildManager.sol\":3910:3935  authorizedCallers[caller] */\n      0xffffffffffffffffffffffffffffffffffffffff\n      and\n      0xffffffffffffffffffffffffffffffffffffffff\n      and\n      dup2\n      mstore\n      0x20\n      add\n      swap1\n      dup2\n      mstore\n      0x20\n      add\n      0x00\n      keccak256\n      0x00\n        /* \"CitreaNativeYeildManager.sol\":3910:3948  authorizedCallers[caller] = authorized */\n      0x0100\n      exp\n      dup2\n      sload\n      dup2\n      0xff\n      mul\n      not\n      and\n      swap1\n      dup4\n      iszero\n      iszero\n      mul\n      or\n      swap1\n      sstore\n      pop\n        /* \"CitreaNativeYeildManager.sol\":3988:3994  caller */\n      dup2\n        /* \"CitreaNativeYeildManager.sol\":3964:4007  AuthorizedCallerUpdated(caller, authorized) */\n      0xffffffffffffffffffffffffffffffffffffffff\n      and\n      0xad857fa38c9319cb80848f1ef2f924383b90297eb5d71755738ff037d100faa1\n        /* \"CitreaNativeYeildManager.sol\":3996:4006  authorized */\n      dup3\n        /* \"CitreaNativeYeildManager.sol\":3964:4007  AuthorizedCallerUpdated(caller, authorized) */\n      mload(0x40)\n      tag_345\n      swap2\n      swap1\n      tag_145\n      jump\t// in\n    tag_345:\n      mload(0x40)\n      dup1\n      swap2\n      sub\n      swap1\n      log2\n        /* \"CitreaNativeYeildManager.sol\":3752:4015  function setAuthorizedCaller(address caller, bool authorized) external onlyOwner {... */\n      pop\n      pop\n      jump\t// out\n        /* \"CitreaNativeYeildManager.sol\":16451:16527  function emergencyUnpause() external onlyOwner {... */\n    tag_136:\n        /* \"@openzeppelin/contracts/access/Ownable.sol\":1531:1544  _checkOwner() */\n      tag_347\n        /* \"@openzeppelin/contracts/access/Ownable.sol\":1531:1542  _checkOwner */\n      tag_260\n        /* \"@openzeppelin/contracts/access/Ownable.sol\":1531:1544  _checkOwner() */\n      jump\t// in\n    tag_347:\n        /* \"CitreaNativeYeildManager.sol\":16509:16519  _unpause() */\n      tag_349\n        /* \"CitreaNativeYeildManager.sol\":16509:16517  _unpause */\n      tag_338\n        /* \"CitreaNativeYeildManager.sol\":16509:16519  _unpause() */\n      jump\t// in\n    tag_349:\n        /* \"CitreaNativeYeildManager.sol\":16451:16527  function emergencyUnpause() external onlyOwner {... */\n      jump\t// out\n        /* \"CitreaNativeYeildManager.sol\":16367:16439  function emergencyPause() external onlyOwner {... */\n    tag_139:\n        /* \"@openzeppelin/contracts/access/Ownable.sol\":1531:1544  _checkOwner() */\n      tag_351\n        /* \"@openzeppelin/contracts/access/Ownable.sol\":1531:1542  _checkOwner */\n      tag_260\n        /* \"@openzeppelin/contracts/access/Ownable.sol\":1531:1544  _checkOwner() */\n      jump\t// in\n    tag_351:\n        /* \"CitreaNativeYeildManager.sol\":16423:16431  _pause() */\n      tag_353\n        /* \"CitreaNativeYeildManager.sol\":16423:16429  _pause */\n      tag_354\n        /* \"CitreaNativeYeildManager.sol\":16423:16431  _pause() */\n      jump\t// in\n    tag_353:\n        /* \"CitreaNativeYeildManager.sol\":16367:16439  function emergencyPause() external onlyOwner {... */\n      jump\t// out\n        /* \"CitreaNativeYeildManager.sol\":1804:1853  mapping(address => bool) public authorizedCallers */\n    tag_143:\n      mstore(0x20, 0x0c)\n      dup1\n      0x00\n      mstore\n      keccak256(0x00, 0x40)\n      0x00\n      swap2\n      pop\n      sload\n      swap1\n      0x0100\n      exp\n      swap1\n      div\n      0xff\n      and\n      dup2\n      jump\t// out\n        /* \"CitreaNativeYeildManager.sol\":1933:1969  uint256 public protocolFeeRate = 200 */\n    tag_148:\n      sload(0x0e)\n      dup2\n      jump\t// out\n        /* \"@openzeppelin/contracts/security/Pausable.sol\":1615:1699  function paused() public view virtual returns (bool) {... */\n    tag_152:\n        /* \"@openzeppelin/contracts/security/Pausable.sol\":1662:1666  bool */\n      0x00\n        /* \"@openzeppelin/contracts/security/Pausable.sol\":1685:1692  _paused */\n      0x02\n      0x00\n      swap1\n      sload\n      swap1\n      0x0100\n      exp\n      swap1\n      div\n      0xff\n      and\n        /* \"@openzeppelin/contracts/security/Pausable.sol\":1678:1692  return _paused */\n      swap1\n      pop\n        /* \"@openzeppelin/contracts/security/Pausable.sol\":1615:1699  function paused() public view virtual returns (bool) {... */\n      swap1\n      jump\t// out\n        /* \"CitreaNativeYeildManager.sol\":4489:4785  function updateProtocolFeeRate(uint256 newRate) external onlyOwner {... */\n    tag_157:\n        /* \"@openzeppelin/contracts/access/Ownable.sol\":1531:1544  _checkOwner() */\n      tag_357\n        /* \"@openzeppelin/contracts/access/Ownable.sol\":1531:1542  _checkOwner */\n      tag_260\n        /* \"@openzeppelin/contracts/access/Ownable.sol\":1531:1544  _checkOwner() */\n      jump\t// in\n    tag_357:\n        /* \"CitreaNativeYeildManager.sol\":4586:4589  500 */\n      0x01f4\n        /* \"CitreaNativeYeildManager.sol\":4575:4582  newRate */\n      dup2\n        /* \"CitreaNativeYeildManager.sol\":4575:4589  newRate <= 500 */\n      gt\n      iszero\n        /* \"CitreaNativeYeildManager.sol\":4567:4611  require(newRate <= 500, \"Fee rate too high\") */\n      tag_359\n      jumpi\n      mload(0x40)\n      0x08c379a000000000000000000000000000000000000000000000000000000000\n      dup2\n      mstore\n      0x04\n      add\n      tag_360\n      swap1\n      tag_361\n      jump\t// in\n    tag_360:\n      mload(0x40)\n      dup1\n      swap2\n      sub\n      swap1\n      revert\n    tag_359:\n        /* \"CitreaNativeYeildManager.sol\":4642:4657  uint256 oldRate */\n      0x00\n        /* \"CitreaNativeYeildManager.sol\":4660:4675  protocolFeeRate */\n      sload(0x0e)\n        /* \"CitreaNativeYeildManager.sol\":4642:4675  uint256 oldRate = protocolFeeRate */\n      swap1\n      pop\n        /* \"CitreaNativeYeildManager.sol\":4704:4711  newRate */\n      dup2\n        /* \"CitreaNativeYeildManager.sol\":4686:4701  protocolFeeRate */\n      0x0e\n        /* \"CitreaNativeYeildManager.sol\":4686:4711  protocolFeeRate = newRate */\n      dup2\n      swap1\n      sstore\n      pop\n        /* \"CitreaNativeYeildManager.sol\":4737:4777  ProtocolFeeRateUpdated(oldRate, newRate) */\n      0x1d830358c94d390366ad7162b72e731448e195f3576e63b1f57f5e43c719c5aa\n        /* \"CitreaNativeYeildManager.sol\":4760:4767  oldRate */\n      dup2\n        /* \"CitreaNativeYeildManager.sol\":4769:4776  newRate */\n      dup4\n        /* \"CitreaNativeYeildManager.sol\":4737:4777  ProtocolFeeRateUpdated(oldRate, newRate) */\n      mload(0x40)\n      tag_362\n      swap3\n      swap2\n      swap1\n      tag_332\n      jump\t// in\n    tag_362:\n      mload(0x40)\n      dup1\n      swap2\n      sub\n      swap1\n      log1\n        /* \"CitreaNativeYeildManager.sol\":4556:4785  {... */\n      pop\n        /* \"CitreaNativeYeildManager.sol\":4489:4785  function updateProtocolFeeRate(uint256 newRate) external onlyOwner {... */\n      pop\n      jump\t// out\n        /* \"CitreaNativeYeildManager.sol\":827:871  uint256 public constant MAX_YIELD_RATE = 800 */\n    tag_160:\n        /* \"CitreaNativeYeildManager.sol\":868:871  800 */\n      0x0320\n        /* \"CitreaNativeYeildManager.sol\":827:871  uint256 public constant MAX_YIELD_RATE = 800 */\n      dup2\n      jump\t// out\n        /* \"@openzeppelin/contracts/access/Ownable.sol\":2293:2394  function renounceOwnership() public virtual onlyOwner {... */\n    tag_164:\n        /* \"@openzeppelin/contracts/access/Ownable.sol\":1531:1544  _checkOwner() */\n      tag_364\n        /* \"@openzeppelin/contracts/access/Ownable.sol\":1531:1542  _checkOwner */\n      tag_260\n        /* \"@openzeppelin/contracts/access/Ownable.sol\":1531:1544  _checkOwner() */\n      jump\t// in\n    tag_364:\n        /* \"@openzeppelin/contracts/access/Ownable.sol\":2357:2387  _transferOwnership(address(0)) */\n      tag_366\n        /* \"@openzeppelin/contracts/access/Ownable.sol\":2384:2385  0 */\n      0x00\n        /* \"@openzeppelin/contracts/access/Ownable.sol\":2357:2375  _transferOwnership */\n      tag_367\n        /* \"@openzeppelin/contracts/access/Ownable.sol\":2357:2387  _transferOwnership(address(0)) */\n      jump\t// in\n    tag_366:\n        /* \"@openzeppelin/contracts/access/Ownable.sol\":2293:2394  function renounceOwnership() public virtual onlyOwner {... */\n      jump\t// out\n        /* \"CitreaNativeYeildManager.sol\":1621:1671  mapping(address => uint256) public userTotalStaked */\n    tag_168:\n      mstore(0x20, 0x05)\n      dup1\n      0x00\n      mstore\n      keccak256(0x00, 0x40)\n      0x00\n      swap2\n      pop\n      swap1\n      pop\n      sload\n      dup2\n      jump\t// out\n        /* \"CitreaNativeYeildManager.sol\":4797:4860  function pause() external onlyOwner {... */\n    tag_172:\n        /* \"@openzeppelin/contracts/access/Ownable.sol\":1531:1544  _checkOwner() */\n      tag_369\n        /* \"@openzeppelin/contracts/access/Ownable.sol\":1531:1542  _checkOwner */\n      tag_260\n        /* \"@openzeppelin/contracts/access/Ownable.sol\":1531:1544  _checkOwner() */\n      jump\t// in\n    tag_369:\n        /* \"CitreaNativeYeildManager.sol\":4844:4852  _pause() */\n      tag_371\n        /* \"CitreaNativeYeildManager.sol\":4844:4850  _pause */\n      tag_354\n        /* \"CitreaNativeYeildManager.sol\":4844:4852  _pause() */\n      jump\t// in\n    tag_371:\n        /* \"CitreaNativeYeildManager.sol\":4797:4860  function pause() external onlyOwner {... */\n      jump\t// out\n        /* \"@openzeppelin/contracts/access/Ownable.sol\":1638:1723  function owner() public view virtual returns (address) {... */\n    tag_175:\n        /* \"@openzeppelin/contracts/access/Ownable.sol\":1684:1691  address */\n      0x00\n        /* \"@openzeppelin/contracts/access/Ownable.sol\":1710:1716  _owner */\n      0x00\n      0x00\n      swap1\n      sload\n      swap1\n      0x0100\n      exp\n      swap1\n      div\n      0xffffffffffffffffffffffffffffffffffffffff\n      and\n        /* \"@openzeppelin/contracts/access/Ownable.sol\":1703:1716  return _owner */\n      swap1\n      pop\n        /* \"@openzeppelin/contracts/access/Ownable.sol\":1638:1723  function owner() public view virtual returns (address) {... */\n      swap1\n      jump\t// out\n        /* \"CitreaNativeYeildManager.sol\":15594:15709  function getCurrentAPY() external view returns (uint256) {... */\n    tag_180:\n        /* \"CitreaNativeYeildManager.sol\":15642:15649  uint256 */\n      0x00\n        /* \"CitreaNativeYeildManager.sol\":15669:15684  globalYieldPool */\n      0x07\n        /* \"CitreaNativeYeildManager.sol\":15669:15701  globalYieldPool.currentYieldRate */\n      0x02\n      add\n      sload\n        /* \"CitreaNativeYeildManager.sol\":15662:15701  return globalYieldPool.currentYieldRate */\n      swap1\n      pop\n        /* \"CitreaNativeYeildManager.sol\":15594:15709  function getCurrentAPY() external view returns (uint256) {... */\n      swap1\n      jump\t// out\n        /* \"CitreaNativeYeildManager.sol\":2096:2151  mapping(address => uint256) public emergencyRequestTime */\n    tag_185:\n      mstore(0x20, 0x10)\n      dup1\n      0x00\n      mstore\n      keccak256(0x00, 0x40)\n      0x00\n      swap2\n      pop\n      swap1\n      pop\n      sload\n      dup2\n      jump\t// out\n        /* \"CitreaNativeYeildManager.sol\":10138:10636  function updateStakeYield(address user, uint256 stakeIndex) ... */\n    tag_190:\n        /* \"CitreaNativeYeildManager.sol\":10243:10247  user */\n      dup2\n        /* \"CitreaNativeYeildManager.sol\":10249:10259  stakeIndex */\n      dup2\n        /* \"CitreaNativeYeildManager.sol\":3524:3534  userStakes */\n      0x03\n        /* \"CitreaNativeYeildManager.sol\":3524:3540  userStakes[user] */\n      0x00\n        /* \"CitreaNativeYeildManager.sol\":3535:3539  user */\n      dup4\n        /* \"CitreaNativeYeildManager.sol\":3524:3540  userStakes[user] */\n      0xffffffffffffffffffffffffffffffffffffffff\n      and\n      0xffffffffffffffffffffffffffffffffffffffff\n      and\n      dup2\n      mstore\n      0x20\n      add\n      swap1\n      dup2\n      mstore\n      0x20\n      add\n      0x00\n      keccak256\n        /* \"CitreaNativeYeildManager.sol\":3524:3547  userStakes[user].length */\n      dup1\n      sload\n      swap1\n      pop\n        /* \"CitreaNativeYeildManager.sol\":3511:3521  stakeIndex */\n      dup2\n        /* \"CitreaNativeYeildManager.sol\":3511:3547  stakeIndex < userStakes[user].length */\n      lt\n        /* \"CitreaNativeYeildManager.sol\":3503:3571  require(stakeIndex < userStakes[user].length, \"Invalid stake index\") */\n      tag_375\n      jumpi\n      mload(0x40)\n      0x08c379a000000000000000000000000000000000000000000000000000000000\n      dup2\n      mstore\n      0x04\n      add\n      tag_376\n      swap1\n      tag_309\n      jump\t// in\n    tag_376:\n      mload(0x40)\n      dup1\n      swap2\n      sub\n      swap1\n      revert\n    tag_375:\n        /* \"CitreaNativeYeildManager.sol\":3590:3600  userStakes */\n      0x03\n        /* \"CitreaNativeYeildManager.sol\":3590:3606  userStakes[user] */\n      0x00\n        /* \"CitreaNativeYeildManager.sol\":3601:3605  user */\n      dup4\n        /* \"CitreaNativeYeildManager.sol\":3590:3606  userStakes[user] */\n      0xffffffffffffffffffffffffffffffffffffffff\n      and\n      0xffffffffffffffffffffffffffffffffffffffff\n      and\n      dup2\n      mstore\n      0x20\n      add\n      swap1\n      dup2\n      mstore\n      0x20\n      add\n      0x00\n      keccak256\n        /* \"CitreaNativeYeildManager.sol\":3607:3617  stakeIndex */\n      dup2\n        /* \"CitreaNativeYeildManager.sol\":3590:3618  userStakes[user][stakeIndex] */\n      dup2\n      sload\n      dup2\n      lt\n      tag_377\n      jumpi\n      tag_378\n      tag_291\n      jump\t// in\n    tag_378:\n    tag_377:\n      swap1\n      0x00\n      mstore\n      keccak256(0x00, 0x20)\n      swap1\n      0x05\n      mul\n      add\n        /* \"CitreaNativeYeildManager.sol\":3590:3627  userStakes[user][stakeIndex].isActive */\n      0x04\n      add\n      0x00\n      swap1\n      sload\n      swap1\n      0x0100\n      exp\n      swap1\n      div\n      0xff\n      and\n        /* \"CitreaNativeYeildManager.sol\":3582:3648  require(userStakes[user][stakeIndex].isActive, \"Stake not active\") */\n      tag_380\n      jumpi\n      mload(0x40)\n      0x08c379a000000000000000000000000000000000000000000000000000000000\n      dup2\n      mstore\n      0x04\n      add\n      tag_381\n      swap1\n      tag_315\n      jump\t// in\n    tag_381:\n      mload(0x40)\n      dup1\n      swap2\n      sub\n      swap1\n      revert\n    tag_380:\n        /* \"CitreaNativeYeildManager.sol\":10277:10300  StakeInfo storage stake */\n      0x00\n        /* \"CitreaNativeYeildManager.sol\":10303:10313  userStakes */\n      0x03\n        /* \"CitreaNativeYeildManager.sol\":10303:10319  userStakes[user] */\n      0x00\n        /* \"CitreaNativeYeildManager.sol\":10314:10318  user */\n      dup7\n        /* \"CitreaNativeYeildManager.sol\":10303:10319  userStakes[user] */\n      0xffffffffffffffffffffffffffffffffffffffff\n      and\n      0xffffffffffffffffffffffffffffffffffffffff\n      and\n      dup2\n      mstore\n      0x20\n      add\n      swap1\n      dup2\n      mstore\n      0x20\n      add\n      0x00\n      keccak256\n        /* \"CitreaNativeYeildManager.sol\":10320:10330  stakeIndex */\n      dup5\n        /* \"CitreaNativeYeildManager.sol\":10303:10331  userStakes[user][stakeIndex] */\n      dup2\n      sload\n      dup2\n      lt\n      tag_383\n      jumpi\n      tag_384\n      tag_291\n      jump\t// in\n    tag_384:\n    tag_383:\n      swap1\n      0x00\n      mstore\n      keccak256(0x00, 0x20)\n      swap1\n      0x05\n      mul\n      add\n        /* \"CitreaNativeYeildManager.sol\":10277:10331  StakeInfo storage stake = userStakes[user][stakeIndex] */\n      swap1\n      pop\n        /* \"CitreaNativeYeildManager.sol\":10342:10358  uint256 newYield */\n      0x00\n        /* \"CitreaNativeYeildManager.sol\":10361:10394  _calculateYield(user, stakeIndex) */\n      tag_386\n        /* \"CitreaNativeYeildManager.sol\":10377:10381  user */\n      dup7\n        /* \"CitreaNativeYeildManager.sol\":10383:10393  stakeIndex */\n      dup7\n        /* \"CitreaNativeYeildManager.sol\":10361:10376  _calculateYield */\n      tag_255\n        /* \"CitreaNativeYeildManager.sol\":10361:10394  _calculateYield(user, stakeIndex) */\n      jump\t// in\n    tag_386:\n        /* \"CitreaNativeYeildManager.sol\":10342:10394  uint256 newYield = _calculateYield(user, stakeIndex) */\n      swap1\n      pop\n        /* \"CitreaNativeYeildManager.sol\":10437:10445  newYield */\n      dup1\n        /* \"CitreaNativeYeildManager.sol\":10415:10420  stake */\n      dup3\n        /* \"CitreaNativeYeildManager.sol\":10415:10433  stake.accruedYield */\n      0x01\n      add\n      0x00\n        /* \"CitreaNativeYeildManager.sol\":10415:10445  stake.accruedYield += newYield */\n      dup3\n      dup3\n      sload\n      tag_387\n      swap2\n      swap1\n      tag_58\n      jump\t// in\n    tag_387:\n      swap3\n      pop\n      pop\n      dup2\n      swap1\n      sstore\n      pop\n        /* \"CitreaNativeYeildManager.sol\":10479:10494  block.timestamp */\n      timestamp\n        /* \"CitreaNativeYeildManager.sol\":10456:10461  stake */\n      dup3\n        /* \"CitreaNativeYeildManager.sol\":10456:10476  stake.lastUpdateTime */\n      0x02\n      add\n        /* \"CitreaNativeYeildManager.sol\":10456:10494  stake.lastUpdateTime = block.timestamp */\n      dup2\n      swap1\n      sstore\n      pop\n        /* \"CitreaNativeYeildManager.sol\":10554:10562  newYield */\n      dup1\n        /* \"CitreaNativeYeildManager.sol\":10515:10530  globalYieldPool */\n      0x07\n        /* \"CitreaNativeYeildManager.sol\":10515:10550  globalYieldPool.totalYieldGenerated */\n      0x01\n      add\n      0x00\n        /* \"CitreaNativeYeildManager.sol\":10515:10562  globalYieldPool.totalYieldGenerated += newYield */\n      dup3\n      dup3\n      sload\n      tag_388\n      swap2\n      swap1\n      tag_58\n      jump\t// in\n    tag_388:\n      swap3\n      pop\n      pop\n      dup2\n      swap1\n      sstore\n      pop\n        /* \"CitreaNativeYeildManager.sol\":10601:10605  user */\n      dup6\n        /* \"CitreaNativeYeildManager.sol\":10588:10628  YieldAccrued(user, newYield, stakeIndex) */\n      0xffffffffffffffffffffffffffffffffffffffff\n      and\n      0xaced61c86c507aa3c2be43553434c6ff191ea7cbbd812491a6ae59abc99d29dc\n        /* \"CitreaNativeYeildManager.sol\":10607:10615  newYield */\n      dup3\n        /* \"CitreaNativeYeildManager.sol\":10617:10627  stakeIndex */\n      dup8\n        /* \"CitreaNativeYeildManager.sol\":10588:10628  YieldAccrued(user, newYield, stakeIndex) */\n      mload(0x40)\n      tag_389\n      swap3\n      swap2\n      swap1\n      tag_332\n      jump\t// in\n    tag_389:\n      mload(0x40)\n      dup1\n      swap2\n      sub\n      swap1\n      log2\n        /* \"CitreaNativeYeildManager.sol\":10266:10636  {... */\n      pop\n      pop\n        /* \"CitreaNativeYeildManager.sol\":10138:10636  function updateStakeYield(address user, uint256 stakeIndex) ... */\n      pop\n      pop\n      pop\n      pop\n      jump\t// out\n        /* \"CitreaNativeYeildManager.sol\":2041:2089  uint256 public emergencyWithdrawalDelay = 7 days */\n    tag_193:\n      sload(0x0f)\n      dup2\n      jump\t// out\n        /* \"CitreaNativeYeildManager.sol\":1491:1540  mapping(address => StakeInfo[]) public userStakes */\n    tag_198:\n      mstore(0x20, 0x03)\n      dup2\n      0x00\n      mstore\n      keccak256(0x00, 0x40)\n      dup2\n      dup2\n      sload\n      dup2\n      lt\n      tag_390\n      jumpi\n      0x00\n      dup1\n      revert\n    tag_390:\n      swap1\n      0x00\n      mstore\n      keccak256(0x00, 0x20)\n      swap1\n      0x05\n      mul\n      add\n      0x00\n      swap2\n      pop\n      swap2\n      pop\n      pop\n      dup1\n      0x00\n      add\n      sload\n      swap1\n      dup1\n      0x01\n      add\n      sload\n      swap1\n      dup1\n      0x02\n      add\n      sload\n      swap1\n      dup1\n      0x03\n      add\n      sload\n      swap1\n      dup1\n      0x04\n      add\n      0x00\n      swap1\n      sload\n      swap1\n      0x0100\n      exp\n      swap1\n      div\n      0xff\n      and\n      swap1\n      pop\n      dup6\n      jump\t// out\n        /* \"CitreaNativeYeildManager.sol\":11846:12345  function distributeFees() external onlyAuthorized nonReentrant {... */\n    tag_203:\n        /* \"CitreaNativeYeildManager.sol\":3305:3322  authorizedCallers */\n      0x0c\n        /* \"CitreaNativeYeildManager.sol\":3305:3334  authorizedCallers[msg.sender] */\n      0x00\n        /* \"CitreaNativeYeildManager.sol\":3323:3333  msg.sender */\n      caller\n        /* \"CitreaNativeYeildManager.sol\":3305:3334  authorizedCallers[msg.sender] */\n      0xffffffffffffffffffffffffffffffffffffffff\n      and\n      0xffffffffffffffffffffffffffffffffffffffff\n      and\n      dup2\n      mstore\n      0x20\n      add\n      swap1\n      dup2\n      mstore\n      0x20\n      add\n      0x00\n      keccak256\n      0x00\n      swap1\n      sload\n      swap1\n      0x0100\n      exp\n      swap1\n      div\n      0xff\n      and\n        /* \"CitreaNativeYeildManager.sol\":3305:3359  authorizedCallers[msg.sender] || msg.sender == owner() */\n      dup1\n      tag_393\n      jumpi\n      pop\n        /* \"CitreaNativeYeildManager.sol\":3352:3359  owner() */\n      tag_394\n        /* \"CitreaNativeYeildManager.sol\":3352:3357  owner */\n      tag_175\n        /* \"CitreaNativeYeildManager.sol\":3352:3359  owner() */\n      jump\t// in\n    tag_394:\n        /* \"CitreaNativeYeildManager.sol\":3338:3359  msg.sender == owner() */\n      0xffffffffffffffffffffffffffffffffffffffff\n      and\n        /* \"CitreaNativeYeildManager.sol\":3338:3348  msg.sender */\n      caller\n        /* \"CitreaNativeYeildManager.sol\":3338:3359  msg.sender == owner() */\n      0xffffffffffffffffffffffffffffffffffffffff\n      and\n      eq\n        /* \"CitreaNativeYeildManager.sol\":3305:3359  authorizedCallers[msg.sender] || msg.sender == owner() */\n    tag_393:\n        /* \"CitreaNativeYeildManager.sol\":3283:3401  require(... */\n      tag_395\n      jumpi\n      mload(0x40)\n      0x08c379a000000000000000000000000000000000000000000000000000000000\n      dup2\n      mstore\n      0x04\n      add\n      tag_396\n      swap1\n      tag_300\n      jump\t// in\n    tag_396:\n      mload(0x40)\n      dup1\n      swap2\n      sub\n      swap1\n      revert\n    tag_395:\n        /* \"@openzeppelin/contracts/security/ReentrancyGuard.sol\":2261:2282  _nonReentrantBefore() */\n      tag_398\n        /* \"@openzeppelin/contracts/security/ReentrancyGuard.sol\":2261:2280  _nonReentrantBefore */\n      tag_263\n        /* \"@openzeppelin/contracts/security/ReentrancyGuard.sol\":2261:2282  _nonReentrantBefore() */\n      jump\t// in\n    tag_398:\n        /* \"CitreaNativeYeildManager.sol\":11945:11946  0 */\n      0x00\n        /* \"CitreaNativeYeildManager.sol\":11928:11942  networkFeePool */\n      sload(0x0d)\n        /* \"CitreaNativeYeildManager.sol\":11928:11946  networkFeePool > 0 */\n      gt\n        /* \"CitreaNativeYeildManager.sol\":11920:11972  require(networkFeePool > 0, \"No fees to distribute\") */\n      tag_400\n      jumpi\n      mload(0x40)\n      0x08c379a000000000000000000000000000000000000000000000000000000000\n      dup2\n      mstore\n      0x04\n      add\n      tag_401\n      swap1\n      tag_402\n      jump\t// in\n    tag_401:\n      mload(0x40)\n      dup1\n      swap2\n      sub\n      swap1\n      revert\n    tag_400:\n        /* \"CitreaNativeYeildManager.sol\":12021:12022  0 */\n      0x00\n        /* \"CitreaNativeYeildManager.sol\":11991:12006  globalYieldPool */\n      0x07\n        /* \"CitreaNativeYeildManager.sol\":11991:12018  globalYieldPool.totalStaked */\n      0x00\n      add\n      sload\n        /* \"CitreaNativeYeildManager.sol\":11991:12022  globalYieldPool.totalStaked > 0 */\n      gt\n        /* \"CitreaNativeYeildManager.sol\":11983:12043  require(globalYieldPool.totalStaked > 0, \"No active stakes\") */\n      tag_403\n      jumpi\n      mload(0x40)\n      0x08c379a000000000000000000000000000000000000000000000000000000000\n      dup2\n      mstore\n      0x04\n      add\n      tag_404\n      swap1\n      tag_405\n      jump\t// in\n    tag_404:\n      mload(0x40)\n      dup1\n      swap2\n      sub\n      swap1\n      revert\n    tag_403:\n        /* \"CitreaNativeYeildManager.sol\":12064:12088  uint256 feesToDistribute */\n      0x00\n        /* \"CitreaNativeYeildManager.sol\":12091:12105  networkFeePool */\n      sload(0x0d)\n        /* \"CitreaNativeYeildManager.sol\":12064:12105  uint256 feesToDistribute = networkFeePool */\n      swap1\n      pop\n        /* \"CitreaNativeYeildManager.sol\":12133:12134  0 */\n      0x00\n        /* \"CitreaNativeYeildManager.sol\":12116:12130  networkFeePool */\n      0x0d\n        /* \"CitreaNativeYeildManager.sol\":12116:12134  networkFeePool = 0 */\n      dup2\n      swap1\n      sstore\n      pop\n        /* \"CitreaNativeYeildManager.sol\":12321:12337  feesToDistribute */\n      dup1\n        /* \"CitreaNativeYeildManager.sol\":12282:12297  globalYieldPool */\n      0x07\n        /* \"CitreaNativeYeildManager.sol\":12282:12317  globalYieldPool.totalYieldGenerated */\n      0x01\n      add\n      0x00\n        /* \"CitreaNativeYeildManager.sol\":12282:12337  globalYieldPool.totalYieldGenerated += feesToDistribute */\n      dup3\n      dup3\n      sload\n      tag_406\n      swap2\n      swap1\n      tag_58\n      jump\t// in\n    tag_406:\n      swap3\n      pop\n      pop\n      dup2\n      swap1\n      sstore\n      pop\n        /* \"CitreaNativeYeildManager.sol\":11909:12345  {... */\n      pop\n        /* \"@openzeppelin/contracts/security/ReentrancyGuard.sol\":2303:2323  _nonReentrantAfter() */\n      tag_407\n        /* \"@openzeppelin/contracts/security/ReentrancyGuard.sol\":2303:2321  _nonReentrantAfter */\n      tag_282\n        /* \"@openzeppelin/contracts/security/ReentrancyGuard.sol\":2303:2323  _nonReentrantAfter() */\n      jump\t// in\n    tag_407:\n        /* \"CitreaNativeYeildManager.sol\":11846:12345  function distributeFees() external onlyAuthorized nonReentrant {... */\n      jump\t// out\n        /* \"CitreaNativeYeildManager.sol\":6289:7358  function stakeBtcForUser(address user, uint256 potId) ... */\n    tag_206:\n        /* \"CitreaNativeYeildManager.sol\":3305:3322  authorizedCallers */\n      0x0c\n        /* \"CitreaNativeYeildManager.sol\":3305:3334  authorizedCallers[msg.sender] */\n      0x00\n        /* \"CitreaNativeYeildManager.sol\":3323:3333  msg.sender */\n      caller\n        /* \"CitreaNativeYeildManager.sol\":3305:3334  authorizedCallers[msg.sender] */\n      0xffffffffffffffffffffffffffffffffffffffff\n      and\n      0xffffffffffffffffffffffffffffffffffffffff\n      and\n      dup2\n      mstore\n      0x20\n      add\n      swap1\n      dup2\n      mstore\n      0x20\n      add\n      0x00\n      keccak256\n      0x00\n      swap1\n      sload\n      swap1\n      0x0100\n      exp\n      swap1\n      div\n      0xff\n      and\n        /* \"CitreaNativeYeildManager.sol\":3305:3359  authorizedCallers[msg.sender] || msg.sender == owner() */\n      dup1\n      tag_409\n      jumpi\n      pop\n        /* \"CitreaNativeYeildManager.sol\":3352:3359  owner() */\n      tag_410\n        /* \"CitreaNativeYeildManager.sol\":3352:3357  owner */\n      tag_175\n        /* \"CitreaNativeYeildManager.sol\":3352:3359  owner() */\n      jump\t// in\n    tag_410:\n        /* \"CitreaNativeYeildManager.sol\":3338:3359  msg.sender == owner() */\n      0xffffffffffffffffffffffffffffffffffffffff\n      and\n        /* \"CitreaNativeYeildManager.sol\":3338:3348  msg.sender */\n      caller\n        /* \"CitreaNativeYeildManager.sol\":3338:3359  msg.sender == owner() */\n      0xffffffffffffffffffffffffffffffffffffffff\n      and\n      eq\n        /* \"CitreaNativeYeildManager.sol\":3305:3359  authorizedCallers[msg.sender] || msg.sender == owner() */\n    tag_409:\n        /* \"CitreaNativeYeildManager.sol\":3283:3401  require(... */\n      tag_411\n      jumpi\n      mload(0x40)\n      0x08c379a000000000000000000000000000000000000000000000000000000000\n      dup2\n      mstore\n      0x04\n      add\n      tag_412\n      swap1\n      tag_300\n      jump\t// in\n    tag_412:\n      mload(0x40)\n      dup1\n      swap2\n      sub\n      swap1\n      revert\n    tag_411:\n        /* \"@openzeppelin/contracts/security/Pausable.sol\":1239:1258  _requireNotPaused() */\n      tag_414\n        /* \"@openzeppelin/contracts/security/Pausable.sol\":1239:1256  _requireNotPaused */\n      tag_303\n        /* \"@openzeppelin/contracts/security/Pausable.sol\":1239:1258  _requireNotPaused() */\n      jump\t// in\n    tag_414:\n        /* \"@openzeppelin/contracts/security/ReentrancyGuard.sol\":2261:2282  _nonReentrantBefore() */\n      tag_416\n        /* \"@openzeppelin/contracts/security/ReentrancyGuard.sol\":2261:2280  _nonReentrantBefore */\n      tag_263\n        /* \"@openzeppelin/contracts/security/ReentrancyGuard.sol\":2261:2282  _nonReentrantBefore() */\n      jump\t// in\n    tag_416:\n        /* \"CitreaNativeYeildManager.sol\":6493:6494  0 */\n      0x00\n        /* \"CitreaNativeYeildManager.sol\":6477:6495  user != address(0) */\n      0xffffffffffffffffffffffffffffffffffffffff\n      and\n        /* \"CitreaNativeYeildManager.sol\":6477:6481  user */\n      dup3\n        /* \"CitreaNativeYeildManager.sol\":6477:6495  user != address(0) */\n      0xffffffffffffffffffffffffffffffffffffffff\n      and\n      sub\n        /* \"CitreaNativeYeildManager.sol\":6469:6520  require(user != address(0), \"Invalid user address\") */\n      tag_418\n      jumpi\n      mload(0x40)\n      0x08c379a000000000000000000000000000000000000000000000000000000000\n      dup2\n      mstore\n      0x04\n      add\n      tag_419\n      swap1\n      tag_420\n      jump\t// in\n    tag_419:\n      mload(0x40)\n      dup1\n      swap2\n      sub\n      swap1\n      revert\n    tag_418:\n        /* \"CitreaNativeYeildManager.sol\":721:732  0.001 ether */\n      0x038d7ea4c68000\n        /* \"CitreaNativeYeildManager.sol\":6539:6548  msg.value */\n      callvalue\n        /* \"CitreaNativeYeildManager.sol\":6539:6568  msg.value >= MIN_STAKE_AMOUNT */\n      lt\n      iszero\n        /* \"CitreaNativeYeildManager.sol\":6531:6593  require(msg.value >= MIN_STAKE_AMOUNT, \"Stake amount too low\") */\n      tag_421\n      jumpi\n      mload(0x40)\n      0x08c379a000000000000000000000000000000000000000000000000000000000\n      dup2\n      mstore\n      0x04\n      add\n      tag_422\n      swap1\n      tag_423\n      jump\t// in\n    tag_422:\n      mload(0x40)\n      dup1\n      swap2\n      sub\n      swap1\n      revert\n    tag_421:\n        /* \"CitreaNativeYeildManager.sol\":6614:6634  _updateGlobalYield() */\n      tag_424\n        /* \"CitreaNativeYeildManager.sol\":6614:6632  _updateGlobalYield */\n      tag_330\n        /* \"CitreaNativeYeildManager.sol\":6614:6634  _updateGlobalYield() */\n      jump\t// in\n    tag_424:\n        /* \"CitreaNativeYeildManager.sol\":6655:6680  StakeInfo memory newStake */\n      0x00\n        /* \"CitreaNativeYeildManager.sol\":6683:6872  StakeInfo({... */\n      mload(0x40)\n      dup1\n      0xa0\n      add\n      0x40\n      mstore\n      dup1\n        /* \"CitreaNativeYeildManager.sol\":6719:6728  msg.value */\n      callvalue\n        /* \"CitreaNativeYeildManager.sol\":6683:6872  StakeInfo({... */\n      dup2\n      mstore\n      0x20\n      add\n        /* \"CitreaNativeYeildManager.sol\":6757:6758  0 */\n      0x00\n        /* \"CitreaNativeYeildManager.sol\":6683:6872  StakeInfo({... */\n      dup2\n      mstore\n      0x20\n      add\n        /* \"CitreaNativeYeildManager.sol\":6789:6804  block.timestamp */\n      timestamp\n        /* \"CitreaNativeYeildManager.sol\":6683:6872  StakeInfo({... */\n      dup2\n      mstore\n      0x20\n      add\n        /* \"CitreaNativeYeildManager.sol\":6826:6831  potId */\n      dup4\n        /* \"CitreaNativeYeildManager.sol\":6683:6872  StakeInfo({... */\n      dup2\n      mstore\n      0x20\n      add\n        /* \"CitreaNativeYeildManager.sol\":6856:6860  true */\n      0x01\n        /* \"CitreaNativeYeildManager.sol\":6683:6872  StakeInfo({... */\n      iszero\n      iszero\n      dup2\n      mstore\n      pop\n        /* \"CitreaNativeYeildManager.sol\":6655:6872  StakeInfo memory newStake = StakeInfo({... */\n      swap1\n      pop\n        /* \"CitreaNativeYeildManager.sol\":6893:6903  userStakes */\n      0x03\n        /* \"CitreaNativeYeildManager.sol\":6893:6909  userStakes[user] */\n      0x00\n        /* \"CitreaNativeYeildManager.sol\":6904:6908  user */\n      dup5\n        /* \"CitreaNativeYeildManager.sol\":6893:6909  userStakes[user] */\n      0xffffffffffffffffffffffffffffffffffffffff\n      and\n      0xffffffffffffffffffffffffffffffffffffffff\n      and\n      dup2\n      mstore\n      0x20\n      add\n      swap1\n      dup2\n      mstore\n      0x20\n      add\n      0x00\n      keccak256\n        /* \"CitreaNativeYeildManager.sol\":6915:6923  newStake */\n      dup2\n        /* \"CitreaNativeYeildManager.sol\":6893:6924  userStakes[user].push(newStake) */\n      swap1\n      dup1\n      0x01\n      dup2\n      sload\n      add\n      dup1\n      dup3\n      sstore\n      dup1\n      swap2\n      pop\n      pop\n      0x01\n      swap1\n      sub\n      swap1\n      0x00\n      mstore\n      keccak256(0x00, 0x20)\n      swap1\n      0x05\n      mul\n      add\n      0x00\n      swap1\n      swap2\n      swap1\n      swap2\n      swap1\n      swap2\n      pop\n      0x00\n      dup3\n      add\n      mload\n      dup2\n      0x00\n      add\n      sstore\n      0x20\n      dup3\n      add\n      mload\n      dup2\n      0x01\n      add\n      sstore\n      0x40\n      dup3\n      add\n      mload\n      dup2\n      0x02\n      add\n      sstore\n      0x60\n      dup3\n      add\n      mload\n      dup2\n      0x03\n      add\n      sstore\n      0x80\n      dup3\n      add\n      mload\n      dup2\n      0x04\n      add\n      exp(0x0100, 0x00)\n      dup2\n      sload\n      dup2\n      0xff\n      mul\n      not\n      and\n      swap1\n      dup4\n      iszero\n      iszero\n      mul\n      or\n      swap1\n      sstore\n      pop\n      pop\n      pop\n        /* \"CitreaNativeYeildManager.sol\":6935:6953  uint256 stakeIndex */\n      0x00\n        /* \"CitreaNativeYeildManager.sol\":6982:6983  1 */\n      0x01\n        /* \"CitreaNativeYeildManager.sol\":6956:6966  userStakes */\n      0x03\n        /* \"CitreaNativeYeildManager.sol\":6956:6972  userStakes[user] */\n      0x00\n        /* \"CitreaNativeYeildManager.sol\":6967:6971  user */\n      dup7\n        /* \"CitreaNativeYeildManager.sol\":6956:6972  userStakes[user] */\n      0xffffffffffffffffffffffffffffffffffffffff\n      and\n      0xffffffffffffffffffffffffffffffffffffffff\n      and\n      dup2\n      mstore\n      0x20\n      add\n      swap1\n      dup2\n      mstore\n      0x20\n      add\n      0x00\n      keccak256\n        /* \"CitreaNativeYeildManager.sol\":6956:6979  userStakes[user].length */\n      dup1\n      sload\n      swap1\n      pop\n        /* \"CitreaNativeYeildManager.sol\":6956:6983  userStakes[user].length - 1 */\n      tag_426\n      swap2\n      swap1\n      tag_272\n      jump\t// in\n    tag_426:\n        /* \"CitreaNativeYeildManager.sol\":6935:6983  uint256 stakeIndex = userStakes[user].length - 1 */\n      swap1\n      pop\n        /* \"CitreaNativeYeildManager.sol\":7016:7017  0 */\n      0x00\n        /* \"CitreaNativeYeildManager.sol\":7008:7013  potId */\n      dup4\n        /* \"CitreaNativeYeildManager.sol\":7008:7017  potId > 0 */\n      gt\n        /* \"CitreaNativeYeildManager.sol\":7004:7126  if (potId > 0) {... */\n      iszero\n      tag_427\n      jumpi\n        /* \"CitreaNativeYeildManager.sol\":7034:7043  potStakes */\n      0x04\n        /* \"CitreaNativeYeildManager.sol\":7034:7050  potStakes[potId] */\n      0x00\n        /* \"CitreaNativeYeildManager.sol\":7044:7049  potId */\n      dup5\n        /* \"CitreaNativeYeildManager.sol\":7034:7050  potStakes[potId] */\n      dup2\n      mstore\n      0x20\n      add\n      swap1\n      dup2\n      mstore\n      0x20\n      add\n      0x00\n      keccak256\n        /* \"CitreaNativeYeildManager.sol\":7056:7064  newStake */\n      dup3\n        /* \"CitreaNativeYeildManager.sol\":7034:7065  potStakes[potId].push(newStake) */\n      swap1\n      dup1\n      0x01\n      dup2\n      sload\n      add\n      dup1\n      dup3\n      sstore\n      dup1\n      swap2\n      pop\n      pop\n      0x01\n      swap1\n      sub\n      swap1\n      0x00\n      mstore\n      keccak256(0x00, 0x20)\n      swap1\n      0x05\n      mul\n      add\n      0x00\n      swap1\n      swap2\n      swap1\n      swap2\n      swap1\n      swap2\n      pop\n      0x00\n      dup3\n      add\n      mload\n      dup2\n      0x00\n      add\n      sstore\n      0x20\n      dup3\n      add\n      mload\n      dup2\n      0x01\n      add\n      sstore\n      0x40\n      dup3\n      add\n      mload\n      dup2\n      0x02\n      add\n      sstore\n      0x60\n      dup3\n      add\n      mload\n      dup2\n      0x03\n      add\n      sstore\n      0x80\n      dup3\n      add\n      mload\n      dup2\n      0x04\n      add\n      exp(0x0100, 0x00)\n      dup2\n      sload\n      dup2\n      0xff\n      mul\n      not\n      and\n      swap1\n      dup4\n      iszero\n      iszero\n      mul\n      or\n      swap1\n      sstore\n      pop\n      pop\n      pop\n        /* \"CitreaNativeYeildManager.sol\":7105:7114  msg.value */\n      callvalue\n        /* \"CitreaNativeYeildManager.sol\":7080:7094  potTotalStaked */\n      0x06\n        /* \"CitreaNativeYeildManager.sol\":7080:7101  potTotalStaked[potId] */\n      0x00\n        /* \"CitreaNativeYeildManager.sol\":7095:7100  potId */\n      dup6\n        /* \"CitreaNativeYeildManager.sol\":7080:7101  potTotalStaked[potId] */\n      dup2\n      mstore\n      0x20\n      add\n      swap1\n      dup2\n      mstore\n      0x20\n      add\n      0x00\n      keccak256\n      0x00\n        /* \"CitreaNativeYeildManager.sol\":7080:7114  potTotalStaked[potId] += msg.value */\n      dup3\n      dup3\n      sload\n      tag_429\n      swap2\n      swap1\n      tag_58\n      jump\t// in\n    tag_429:\n      swap3\n      pop\n      pop\n      dup2\n      swap1\n      sstore\n      pop\n        /* \"CitreaNativeYeildManager.sol\":7004:7126  if (potId > 0) {... */\n    tag_427:\n        /* \"CitreaNativeYeildManager.sol\":7171:7180  msg.value */\n      callvalue\n        /* \"CitreaNativeYeildManager.sol\":7146:7161  userTotalStaked */\n      0x05\n        /* \"CitreaNativeYeildManager.sol\":7146:7167  userTotalStaked[user] */\n      0x00\n        /* \"CitreaNativeYeildManager.sol\":7162:7166  user */\n      dup7\n        /* \"CitreaNativeYeildManager.sol\":7146:7167  userTotalStaked[user] */\n      0xffffffffffffffffffffffffffffffffffffffff\n      and\n      0xffffffffffffffffffffffffffffffffffffffff\n      and\n      dup2\n      mstore\n      0x20\n      add\n      swap1\n      dup2\n      mstore\n      0x20\n      add\n      0x00\n      keccak256\n      0x00\n        /* \"CitreaNativeYeildManager.sol\":7146:7180  userTotalStaked[user] += msg.value */\n      dup3\n      dup3\n      sload\n      tag_430\n      swap2\n      swap1\n      tag_58\n      jump\t// in\n    tag_430:\n      swap3\n      pop\n      pop\n      dup2\n      swap1\n      sstore\n      pop\n        /* \"CitreaNativeYeildManager.sol\":7222:7231  msg.value */\n      callvalue\n        /* \"CitreaNativeYeildManager.sol\":7191:7206  globalYieldPool */\n      0x07\n        /* \"CitreaNativeYeildManager.sol\":7191:7218  globalYieldPool.totalStaked */\n      0x00\n      add\n      0x00\n        /* \"CitreaNativeYeildManager.sol\":7191:7231  globalYieldPool.totalStaked += msg.value */\n      dup3\n      dup3\n      sload\n      tag_431\n      swap2\n      swap1\n      tag_58\n      jump\t// in\n    tag_431:\n      swap3\n      pop\n      pop\n      dup2\n      swap1\n      sstore\n      pop\n        /* \"CitreaNativeYeildManager.sol\":7278:7279  1 */\n      0x01\n        /* \"CitreaNativeYeildManager.sol\":7242:7257  globalYieldPool */\n      0x07\n        /* \"CitreaNativeYeildManager.sol\":7242:7274  globalYieldPool.participantCount */\n      0x04\n      add\n      0x00\n        /* \"CitreaNativeYeildManager.sol\":7242:7279  globalYieldPool.participantCount += 1 */\n      dup3\n      dup3\n      sload\n      tag_432\n      swap2\n      swap1\n      tag_58\n      jump\t// in\n    tag_432:\n      swap3\n      pop\n      pop\n      dup2\n      swap1\n      sstore\n      pop\n        /* \"CitreaNativeYeildManager.sol\":7315:7319  user */\n      dup4\n        /* \"CitreaNativeYeildManager.sol\":7305:7350  BtcStaked(user, msg.value, potId, stakeIndex) */\n      0xffffffffffffffffffffffffffffffffffffffff\n      and\n      0x55b223c72892936a872c1f417e7e143a0592419fe999642dbb4bccb55b8c6e83\n        /* \"CitreaNativeYeildManager.sol\":7321:7330  msg.value */\n      callvalue\n        /* \"CitreaNativeYeildManager.sol\":7332:7337  potId */\n      dup6\n        /* \"CitreaNativeYeildManager.sol\":7339:7349  stakeIndex */\n      dup5\n        /* \"CitreaNativeYeildManager.sol\":7305:7350  BtcStaked(user, msg.value, potId, stakeIndex) */\n      mload(0x40)\n      tag_433\n      swap4\n      swap3\n      swap2\n      swap1\n      tag_434\n      jump\t// in\n    tag_433:\n      mload(0x40)\n      dup1\n      swap2\n      sub\n      swap1\n      log2\n        /* \"CitreaNativeYeildManager.sol\":6458:7358  {... */\n      pop\n      pop\n        /* \"@openzeppelin/contracts/security/ReentrancyGuard.sol\":2303:2323  _nonReentrantAfter() */\n      tag_435\n        /* \"@openzeppelin/contracts/security/ReentrancyGuard.sol\":2303:2321  _nonReentrantAfter */\n      tag_282\n        /* \"@openzeppelin/contracts/security/ReentrancyGuard.sol\":2303:2323  _nonReentrantAfter() */\n      jump\t// in\n    tag_435:\n        /* \"CitreaNativeYeildManager.sol\":6289:7358  function stakeBtcForUser(address user, uint256 potId) ... */\n      pop\n      pop\n      jump\t// out\n        /* \"CitreaNativeYeildManager.sol\":11553:11773  function collectNetworkFees() external payable onlyAuthorized {... */\n    tag_208:\n        /* \"CitreaNativeYeildManager.sol\":3305:3322  authorizedCallers */\n      0x0c\n        /* \"CitreaNativeYeildManager.sol\":3305:3334  authorizedCallers[msg.sender] */\n      0x00\n        /* \"CitreaNativeYeildManager.sol\":3323:3333  msg.sender */\n      caller\n        /* \"CitreaNativeYeildManager.sol\":3305:3334  authorizedCallers[msg.sender] */\n      0xffffffffffffffffffffffffffffffffffffffff\n      and\n      0xffffffffffffffffffffffffffffffffffffffff\n      and\n      dup2\n      mstore\n      0x20\n      add\n      swap1\n      dup2\n      mstore\n      0x20\n      add\n      0x00\n      keccak256\n      0x00\n      swap1\n      sload\n      swap1\n      0x0100\n      exp\n      swap1\n      div\n      0xff\n      and\n        /* \"CitreaNativeYeildManager.sol\":3305:3359  authorizedCallers[msg.sender] || msg.sender == owner() */\n      dup1\n      tag_437\n      jumpi\n      pop\n        /* \"CitreaNativeYeildManager.sol\":3352:3359  owner() */\n      tag_438\n        /* \"CitreaNativeYeildManager.sol\":3352:3357  owner */\n      tag_175\n        /* \"CitreaNativeYeildManager.sol\":3352:3359  owner() */\n      jump\t// in\n    tag_438:\n        /* \"CitreaNativeYeildManager.sol\":3338:3359  msg.sender == owner() */\n      0xffffffffffffffffffffffffffffffffffffffff\n      and\n        /* \"CitreaNativeYeildManager.sol\":3338:3348  msg.sender */\n      caller\n        /* \"CitreaNativeYeildManager.sol\":3338:3359  msg.sender == owner() */\n      0xffffffffffffffffffffffffffffffffffffffff\n      and\n      eq\n        /* \"CitreaNativeYeildManager.sol\":3305:3359  authorizedCallers[msg.sender] || msg.sender == owner() */\n    tag_437:\n        /* \"CitreaNativeYeildManager.sol\":3283:3401  require(... */\n      tag_439\n      jumpi\n      mload(0x40)\n      0x08c379a000000000000000000000000000000000000000000000000000000000\n      dup2\n      mstore\n      0x04\n      add\n      tag_440\n      swap1\n      tag_300\n      jump\t// in\n    tag_440:\n      mload(0x40)\n      dup1\n      swap2\n      sub\n      swap1\n      revert\n    tag_439:\n        /* \"CitreaNativeYeildManager.sol\":11646:11647  0 */\n      0x00\n        /* \"CitreaNativeYeildManager.sol\":11634:11643  msg.value */\n      callvalue\n        /* \"CitreaNativeYeildManager.sol\":11634:11647  msg.value > 0 */\n      gt\n        /* \"CitreaNativeYeildManager.sol\":11626:11670  require(msg.value > 0, \"No fees to collect\") */\n      tag_442\n      jumpi\n      mload(0x40)\n      0x08c379a000000000000000000000000000000000000000000000000000000000\n      dup2\n      mstore\n      0x04\n      add\n      tag_443\n      swap1\n      tag_444\n      jump\t// in\n    tag_443:\n      mload(0x40)\n      dup1\n      swap2\n      sub\n      swap1\n      revert\n    tag_442:\n        /* \"CitreaNativeYeildManager.sol\":11709:11718  msg.value */\n      callvalue\n        /* \"CitreaNativeYeildManager.sol\":11691:11705  networkFeePool */\n      0x0d\n      0x00\n        /* \"CitreaNativeYeildManager.sol\":11691:11718  networkFeePool += msg.value */\n      dup3\n      dup3\n      sload\n      tag_445\n      swap2\n      swap1\n      tag_58\n      jump\t// in\n    tag_445:\n      swap3\n      pop\n      pop\n      dup2\n      swap1\n      sstore\n      pop\n        /* \"CitreaNativeYeildManager.sol\":11734:11765  NetworkFeesCollected(msg.value) */\n      0xfd89f3716628d726d771436aef1a2b241477089ecdea8429f2dcdf2f2106c4a4\n        /* \"CitreaNativeYeildManager.sol\":11755:11764  msg.value */\n      callvalue\n        /* \"CitreaNativeYeildManager.sol\":11734:11765  NetworkFeesCollected(msg.value) */\n      mload(0x40)\n      tag_446\n      swap2\n      swap1\n      tag_60\n      jump\t// in\n    tag_446:\n      mload(0x40)\n      dup1\n      swap2\n      sub\n      swap1\n      log1\n        /* \"CitreaNativeYeildManager.sol\":11553:11773  function collectNetworkFees() external payable onlyAuthorized {... */\n      jump\t// out\n        /* \"CitreaNativeYeildManager.sol\":12492:12681  function requestEmergencyWithdrawal() external {... */\n    tag_211:\n        /* \"CitreaNativeYeildManager.sol\":12585:12600  block.timestamp */\n      timestamp\n        /* \"CitreaNativeYeildManager.sol\":12550:12570  emergencyRequestTime */\n      0x10\n        /* \"CitreaNativeYeildManager.sol\":12550:12582  emergencyRequestTime[msg.sender] */\n      0x00\n        /* \"CitreaNativeYeildManager.sol\":12571:12581  msg.sender */\n      caller\n        /* \"CitreaNativeYeildManager.sol\":12550:12582  emergencyRequestTime[msg.sender] */\n      0xffffffffffffffffffffffffffffffffffffffff\n      and\n      0xffffffffffffffffffffffffffffffffffffffff\n      and\n      dup2\n      mstore\n      0x20\n      add\n      swap1\n      dup2\n      mstore\n      0x20\n      add\n      0x00\n      keccak256\n        /* \"CitreaNativeYeildManager.sol\":12550:12600  emergencyRequestTime[msg.sender] = block.timestamp */\n      dup2\n      swap1\n      sstore\n      pop\n        /* \"CitreaNativeYeildManager.sol\":12645:12655  msg.sender */\n      caller\n        /* \"CitreaNativeYeildManager.sol\":12616:12673  EmergencyWithdrawalRequested(msg.sender, block.timestamp) */\n      0xffffffffffffffffffffffffffffffffffffffff\n      and\n      0xdcbf58b4b48819c95c8100c354ffdc3633d192e7c3eebfb025492de8c9226b11\n        /* \"CitreaNativeYeildManager.sol\":12657:12672  block.timestamp */\n      timestamp\n        /* \"CitreaNativeYeildManager.sol\":12616:12673  EmergencyWithdrawalRequested(msg.sender, block.timestamp) */\n      mload(0x40)\n      tag_448\n      swap2\n      swap1\n      tag_60\n      jump\t// in\n    tag_448:\n      mload(0x40)\n      dup1\n      swap2\n      sub\n      swap1\n      log2\n        /* \"CitreaNativeYeildManager.sol\":12492:12681  function requestEmergencyWithdrawal() external {... */\n      jump\t// out\n        /* \"CitreaNativeYeildManager.sol\":14126:14392  function getUserStake(address user, uint256 stakeIndex) ... */\n    tag_215:\n        /* \"CitreaNativeYeildManager.sol\":14235:14251  StakeInfo memory */\n      tag_449\n      tag_450\n      jump\t// in\n    tag_449:\n        /* \"CitreaNativeYeildManager.sol\":14291:14301  userStakes */\n      0x03\n        /* \"CitreaNativeYeildManager.sol\":14291:14307  userStakes[user] */\n      0x00\n        /* \"CitreaNativeYeildManager.sol\":14302:14306  user */\n      dup5\n        /* \"CitreaNativeYeildManager.sol\":14291:14307  userStakes[user] */\n      0xffffffffffffffffffffffffffffffffffffffff\n      and\n      0xffffffffffffffffffffffffffffffffffffffff\n      and\n      dup2\n      mstore\n      0x20\n      add\n      swap1\n      dup2\n      mstore\n      0x20\n      add\n      0x00\n      keccak256\n        /* \"CitreaNativeYeildManager.sol\":14291:14314  userStakes[user].length */\n      dup1\n      sload\n      swap1\n      pop\n        /* \"CitreaNativeYeildManager.sol\":14278:14288  stakeIndex */\n      dup3\n        /* \"CitreaNativeYeildManager.sol\":14278:14314  stakeIndex < userStakes[user].length */\n      lt\n        /* \"CitreaNativeYeildManager.sol\":14270:14338  require(stakeIndex < userStakes[user].length, \"Invalid stake index\") */\n      tag_452\n      jumpi\n      mload(0x40)\n      0x08c379a000000000000000000000000000000000000000000000000000000000\n      dup2\n      mstore\n      0x04\n      add\n      tag_453\n      swap1\n      tag_309\n      jump\t// in\n    tag_453:\n      mload(0x40)\n      dup1\n      swap2\n      sub\n      swap1\n      revert\n    tag_452:\n        /* \"CitreaNativeYeildManager.sol\":14356:14366  userStakes */\n      0x03\n        /* \"CitreaNativeYeildManager.sol\":14356:14372  userStakes[user] */\n      0x00\n        /* \"CitreaNativeYeildManager.sol\":14367:14371  user */\n      dup5\n        /* \"CitreaNativeYeildManager.sol\":14356:14372  userStakes[user] */\n      0xffffffffffffffffffffffffffffffffffffffff\n      and\n      0xffffffffffffffffffffffffffffffffffffffff\n      and\n      dup2\n      mstore\n      0x20\n      add\n      swap1\n      dup2\n      mstore\n      0x20\n      add\n      0x00\n      keccak256\n        /* \"CitreaNativeYeildManager.sol\":14373:14383  stakeIndex */\n      dup3\n        /* \"CitreaNativeYeildManager.sol\":14356:14384  userStakes[user][stakeIndex] */\n      dup2\n      sload\n      dup2\n      lt\n      tag_454\n      jumpi\n      tag_455\n      tag_291\n      jump\t// in\n    tag_455:\n    tag_454:\n      swap1\n      0x00\n      mstore\n      keccak256(0x00, 0x20)\n      swap1\n      0x05\n      mul\n      add\n        /* \"CitreaNativeYeildManager.sol\":14349:14384  return userStakes[user][stakeIndex] */\n      mload(0x40)\n      dup1\n      0xa0\n      add\n      0x40\n      mstore\n      swap1\n      dup2\n      0x00\n      dup3\n      add\n      sload\n      dup2\n      mstore\n      0x20\n      add\n      0x01\n      dup3\n      add\n      sload\n      dup2\n      mstore\n      0x20\n      add\n      0x02\n      dup3\n      add\n      sload\n      dup2\n      mstore\n      0x20\n      add\n      0x03\n      dup3\n      add\n      sload\n      dup2\n      mstore\n      0x20\n      add\n      0x04\n      dup3\n      add\n      0x00\n      swap1\n      sload\n      swap1\n      0x0100\n      exp\n      swap1\n      div\n      0xff\n      and\n      iszero\n      iszero\n      iszero\n      iszero\n      dup2\n      mstore\n      pop\n      pop\n      swap1\n      pop\n        /* \"CitreaNativeYeildManager.sol\":14126:14392  function getUserStake(address user, uint256 stakeIndex) ... */\n      swap3\n      swap2\n      pop\n      pop\n      jump\t// out\n        /* \"CitreaNativeYeildManager.sol\":1547:1595  mapping(uint256 => StakeInfo[]) public potStakes */\n    tag_222:\n      mstore(0x20, 0x04)\n      dup2\n      0x00\n      mstore\n      keccak256(0x00, 0x40)\n      dup2\n      dup2\n      sload\n      dup2\n      lt\n      tag_457\n      jumpi\n      0x00\n      dup1\n      revert\n    tag_457:\n      swap1\n      0x00\n      mstore\n      keccak256(0x00, 0x20)\n      swap1\n      0x05\n      mul\n      add\n      0x00\n      swap2\n      pop\n      swap2\n      pop\n      pop\n      dup1\n      0x00\n      add\n      sload\n      swap1\n      dup1\n      0x01\n      add\n      sload\n      swap1\n      dup1\n      0x02\n      add\n      sload\n      swap1\n      dup1\n      0x03\n      add\n      sload\n      swap1\n      dup1\n      0x04\n      add\n      0x00\n      swap1\n      sload\n      swap1\n      0x0100\n      exp\n      swap1\n      div\n      0xff\n      and\n      swap1\n      pop\n      dup6\n      jump\t// out\n        /* \"CitreaNativeYeildManager.sol\":598:642  uint256 public constant BASIS_POINTS = 10000 */\n    tag_226:\n        /* \"CitreaNativeYeildManager.sol\":637:642  10000 */\n      0x2710\n        /* \"CitreaNativeYeildManager.sol\":598:642  uint256 public constant BASIS_POINTS = 10000 */\n      dup2\n      jump\t// out\n        /* \"CitreaNativeYeildManager.sol\":1765:1797  YieldPool public globalYieldPool */\n    tag_230:\n      0x07\n      dup1\n      0x00\n      add\n      sload\n      swap1\n      dup1\n      0x01\n      add\n      sload\n      swap1\n      dup1\n      0x02\n      add\n      sload\n      swap1\n      dup1\n      0x03\n      add\n      sload\n      swap1\n      dup1\n      0x04\n      add\n      sload\n      swap1\n      pop\n      dup6\n      jump\t// out\n        /* \"CitreaNativeYeildManager.sol\":7422:7657  function unstakeBtc(uint256 stakeIndex) ... */\n    tag_236:\n        /* \"@openzeppelin/contracts/security/Pausable.sol\":1239:1258  _requireNotPaused() */\n      tag_460\n        /* \"@openzeppelin/contracts/security/Pausable.sol\":1239:1256  _requireNotPaused */\n      tag_303\n        /* \"@openzeppelin/contracts/security/Pausable.sol\":1239:1258  _requireNotPaused() */\n      jump\t// in\n    tag_460:\n        /* \"@openzeppelin/contracts/security/ReentrancyGuard.sol\":2261:2282  _nonReentrantBefore() */\n      tag_462\n        /* \"@openzeppelin/contracts/security/ReentrancyGuard.sol\":2261:2280  _nonReentrantBefore */\n      tag_263\n        /* \"@openzeppelin/contracts/security/ReentrancyGuard.sol\":2261:2282  _nonReentrantBefore() */\n      jump\t// in\n    tag_462:\n        /* \"CitreaNativeYeildManager.sol\":7554:7564  msg.sender */\n      caller\n        /* \"CitreaNativeYeildManager.sol\":7566:7576  stakeIndex */\n      dup2\n        /* \"CitreaNativeYeildManager.sol\":3524:3534  userStakes */\n      0x03\n        /* \"CitreaNativeYeildManager.sol\":3524:3540  userStakes[user] */\n      0x00\n        /* \"CitreaNativeYeildManager.sol\":3535:3539  user */\n      dup4\n        /* \"CitreaNativeYeildManager.sol\":3524:3540  userStakes[user] */\n      0xffffffffffffffffffffffffffffffffffffffff\n      and\n      0xffffffffffffffffffffffffffffffffffffffff\n      and\n      dup2\n      mstore\n      0x20\n      add\n      swap1\n      dup2\n      mstore\n      0x20\n      add\n      0x00\n      keccak256\n        /* \"CitreaNativeYeildManager.sol\":3524:3547  userStakes[user].length */\n      dup1\n      sload\n      swap1\n      pop\n        /* \"CitreaNativeYeildManager.sol\":3511:3521  stakeIndex */\n      dup2\n        /* \"CitreaNativeYeildManager.sol\":3511:3547  stakeIndex < userStakes[user].length */\n      lt\n        /* \"CitreaNativeYeildManager.sol\":3503:3571  require(stakeIndex < userStakes[user].length, \"Invalid stake index\") */\n      tag_464\n      jumpi\n      mload(0x40)\n      0x08c379a000000000000000000000000000000000000000000000000000000000\n      dup2\n      mstore\n      0x04\n      add\n      tag_465\n      swap1\n      tag_309\n      jump\t// in\n    tag_465:\n      mload(0x40)\n      dup1\n      swap2\n      sub\n      swap1\n      revert\n    tag_464:\n        /* \"CitreaNativeYeildManager.sol\":3590:3600  userStakes */\n      0x03\n        /* \"CitreaNativeYeildManager.sol\":3590:3606  userStakes[user] */\n      0x00\n        /* \"CitreaNativeYeildManager.sol\":3601:3605  user */\n      dup4\n        /* \"CitreaNativeYeildManager.sol\":3590:3606  userStakes[user] */\n      0xffffffffffffffffffffffffffffffffffffffff\n      and\n      0xffffffffffffffffffffffffffffffffffffffff\n      and\n      dup2\n      mstore\n      0x20\n      add\n      swap1\n      dup2\n      mstore\n      0x20\n      add\n      0x00\n      keccak256\n        /* \"CitreaNativeYeildManager.sol\":3607:3617  stakeIndex */\n      dup2\n        /* \"CitreaNativeYeildManager.sol\":3590:3618  userStakes[user][stakeIndex] */\n      dup2\n      sload\n      dup2\n      lt\n      tag_466\n      jumpi\n      tag_467\n      tag_291\n      jump\t// in\n    tag_467:\n    tag_466:\n      swap1\n      0x00\n      mstore\n      keccak256(0x00, 0x20)\n      swap1\n      0x05\n      mul\n      add\n        /* \"CitreaNativeYeildManager.sol\":3590:3627  userStakes[user][stakeIndex].isActive */\n      0x04\n      add\n      0x00\n      swap1\n      sload\n      swap1\n      0x0100\n      exp\n      swap1\n      div\n      0xff\n      and\n        /* \"CitreaNativeYeildManager.sol\":3582:3648  require(userStakes[user][stakeIndex].isActive, \"Stake not active\") */\n      tag_469\n      jumpi\n      mload(0x40)\n      0x08c379a000000000000000000000000000000000000000000000000000000000\n      dup2\n      mstore\n      0x04\n      add\n      tag_470\n      swap1\n      tag_315\n      jump\t// in\n    tag_470:\n      mload(0x40)\n      dup1\n      swap2\n      sub\n      swap1\n      revert\n    tag_469:\n        /* \"CitreaNativeYeildManager.sol\":7594:7649  _unstakeBtcInternal(msg.sender, stakeIndex, msg.sender) */\n      tag_472\n        /* \"CitreaNativeYeildManager.sol\":7614:7624  msg.sender */\n      caller\n        /* \"CitreaNativeYeildManager.sol\":7626:7636  stakeIndex */\n      dup5\n        /* \"CitreaNativeYeildManager.sol\":7638:7648  msg.sender */\n      caller\n        /* \"CitreaNativeYeildManager.sol\":7594:7613  _unstakeBtcInternal */\n      tag_320\n        /* \"CitreaNativeYeildManager.sol\":7594:7649  _unstakeBtcInternal(msg.sender, stakeIndex, msg.sender) */\n      jump\t// in\n    tag_472:\n        /* \"@openzeppelin/contracts/security/ReentrancyGuard.sol\":2292:2293  _ */\n      pop\n      pop\n        /* \"@openzeppelin/contracts/security/ReentrancyGuard.sol\":2303:2323  _nonReentrantAfter() */\n      tag_473\n        /* \"@openzeppelin/contracts/security/ReentrancyGuard.sol\":2303:2321  _nonReentrantAfter */\n      tag_282\n        /* \"@openzeppelin/contracts/security/ReentrancyGuard.sol\":2303:2323  _nonReentrantAfter() */\n      jump\t// in\n    tag_473:\n        /* \"CitreaNativeYeildManager.sol\":7422:7657  function unstakeBtc(uint256 stakeIndex) ... */\n      pop\n      jump\t// out\n        /* \"CitreaNativeYeildManager.sol\":1678:1727  mapping(uint256 => uint256) public potTotalStaked */\n    tag_240:\n      mstore(0x20, 0x06)\n      dup1\n      0x00\n      mstore\n      keccak256(0x00, 0x40)\n      0x00\n      swap2\n      pop\n      swap1\n      pop\n      sload\n      dup2\n      jump\t// out\n        /* \"@openzeppelin/contracts/access/Ownable.sol\":2543:2758  function transferOwnership(address newOwner) public virtual onlyOwner {... */\n    tag_245:\n        /* \"@openzeppelin/contracts/access/Ownable.sol\":1531:1544  _checkOwner() */\n      tag_475\n        /* \"@openzeppelin/contracts/access/Ownable.sol\":1531:1542  _checkOwner */\n      tag_260\n        /* \"@openzeppelin/contracts/access/Ownable.sol\":1531:1544  _checkOwner() */\n      jump\t// in\n    tag_475:\n        /* \"@openzeppelin/contracts/access/Ownable.sol\":2647:2648  0 */\n      0x00\n        /* \"@openzeppelin/contracts/access/Ownable.sol\":2627:2649  newOwner == address(0) */\n      0xffffffffffffffffffffffffffffffffffffffff\n      and\n        /* \"@openzeppelin/contracts/access/Ownable.sol\":2627:2635  newOwner */\n      dup2\n        /* \"@openzeppelin/contracts/access/Ownable.sol\":2627:2649  newOwner == address(0) */\n      0xffffffffffffffffffffffffffffffffffffffff\n      and\n      sub\n        /* \"@openzeppelin/contracts/access/Ownable.sol\":2623:2714  if (newOwner == address(0)) {... */\n      tag_477\n      jumpi\n        /* \"@openzeppelin/contracts/access/Ownable.sol\":2700:2701  0 */\n      0x00\n        /* \"@openzeppelin/contracts/access/Ownable.sol\":2672:2703  OwnableInvalidOwner(address(0)) */\n      mload(0x40)\n      0x1e4fbdf700000000000000000000000000000000000000000000000000000000\n      dup2\n      mstore\n      0x04\n      add\n      tag_478\n      swap2\n      swap1\n      tag_177\n      jump\t// in\n    tag_478:\n      mload(0x40)\n      dup1\n      swap2\n      sub\n      swap1\n      revert\n        /* \"@openzeppelin/contracts/access/Ownable.sol\":2623:2714  if (newOwner == address(0)) {... */\n    tag_477:\n        /* \"@openzeppelin/contracts/access/Ownable.sol\":2723:2751  _transferOwnership(newOwner) */\n      tag_479\n        /* \"@openzeppelin/contracts/access/Ownable.sol\":2742:2750  newOwner */\n      dup2\n        /* \"@openzeppelin/contracts/access/Ownable.sol\":2723:2741  _transferOwnership */\n      tag_367\n        /* \"@openzeppelin/contracts/access/Ownable.sol\":2723:2751  _transferOwnership(newOwner) */\n      jump\t// in\n    tag_479:\n        /* \"@openzeppelin/contracts/access/Ownable.sol\":2543:2758  function transferOwnership(address newOwner) public virtual onlyOwner {... */\n      pop\n      jump\t// out\n        /* \"CitreaNativeYeildManager.sol\":12751:13909  function executeEmergencyWithdrawal() external nonReentrant {... */\n    tag_248:\n        /* \"@openzeppelin/contracts/security/ReentrancyGuard.sol\":2261:2282  _nonReentrantBefore() */\n      tag_481\n        /* \"@openzeppelin/contracts/security/ReentrancyGuard.sol\":2261:2280  _nonReentrantBefore */\n      tag_263\n        /* \"@openzeppelin/contracts/security/ReentrancyGuard.sol\":2261:2282  _nonReentrantBefore() */\n      jump\t// in\n    tag_481:\n        /* \"CitreaNativeYeildManager.sol\":12879:12880  0 */\n      0x00\n        /* \"CitreaNativeYeildManager.sol\":12844:12864  emergencyRequestTime */\n      0x10\n        /* \"CitreaNativeYeildManager.sol\":12844:12876  emergencyRequestTime[msg.sender] */\n      0x00\n        /* \"CitreaNativeYeildManager.sol\":12865:12875  msg.sender */\n      caller\n        /* \"CitreaNativeYeildManager.sol\":12844:12876  emergencyRequestTime[msg.sender] */\n      0xffffffffffffffffffffffffffffffffffffffff\n      and\n      0xffffffffffffffffffffffffffffffffffffffff\n      and\n      dup2\n      mstore\n      0x20\n      add\n      swap1\n      dup2\n      mstore\n      0x20\n      add\n      0x00\n      keccak256\n      sload\n        /* \"CitreaNativeYeildManager.sol\":12844:12880  emergencyRequestTime[msg.sender] > 0 */\n      gt\n        /* \"CitreaNativeYeildManager.sol\":12844:12975  emergencyRequestTime[msg.sender] > 0 &&... */\n      dup1\n      iszero\n      tag_483\n      jumpi\n      pop\n        /* \"CitreaNativeYeildManager.sol\":12951:12975  emergencyWithdrawalDelay */\n      sload(0x0f)\n        /* \"CitreaNativeYeildManager.sol\":12916:12936  emergencyRequestTime */\n      0x10\n        /* \"CitreaNativeYeildManager.sol\":12916:12948  emergencyRequestTime[msg.sender] */\n      0x00\n        /* \"CitreaNativeYeildManager.sol\":12937:12947  msg.sender */\n      caller\n        /* \"CitreaNativeYeildManager.sol\":12916:12948  emergencyRequestTime[msg.sender] */\n      0xffffffffffffffffffffffffffffffffffffffff\n      and\n      0xffffffffffffffffffffffffffffffffffffffff\n      and\n      dup2\n      mstore\n      0x20\n      add\n      swap1\n      dup2\n      mstore\n      0x20\n      add\n      0x00\n      keccak256\n      sload\n        /* \"CitreaNativeYeildManager.sol\":12916:12975  emergencyRequestTime[msg.sender] + emergencyWithdrawalDelay */\n      tag_484\n      swap2\n      swap1\n      tag_58\n      jump\t// in\n    tag_484:\n        /* \"CitreaNativeYeildManager.sol\":12897:12912  block.timestamp */\n      timestamp\n        /* \"CitreaNativeYeildManager.sol\":12897:12975  block.timestamp >= emergencyRequestTime[msg.sender] + emergencyWithdrawalDelay */\n      lt\n      iszero\n        /* \"CitreaNativeYeildManager.sol\":12844:12975  emergencyRequestTime[msg.sender] > 0 &&... */\n    tag_483:\n        /* \"CitreaNativeYeildManager.sol\":12822:13026  require(... */\n      tag_485\n      jumpi\n      mload(0x40)\n      0x08c379a000000000000000000000000000000000000000000000000000000000\n      dup2\n      mstore\n      0x04\n      add\n      tag_486\n      swap1\n      tag_487\n      jump\t// in\n    tag_486:\n      mload(0x40)\n      dup1\n      swap2\n      sub\n      swap1\n      revert\n    tag_485:\n        /* \"CitreaNativeYeildManager.sol\":13047:13070  uint256 totalToWithdraw */\n      0x00\n        /* \"CitreaNativeYeildManager.sol\":13073:13088  userTotalStaked */\n      0x05\n        /* \"CitreaNativeYeildManager.sol\":13073:13100  userTotalStaked[msg.sender] */\n      0x00\n        /* \"CitreaNativeYeildManager.sol\":13089:13099  msg.sender */\n      caller\n        /* \"CitreaNativeYeildManager.sol\":13073:13100  userTotalStaked[msg.sender] */\n      0xffffffffffffffffffffffffffffffffffffffff\n      and\n      0xffffffffffffffffffffffffffffffffffffffff\n      and\n      dup2\n      mstore\n      0x20\n      add\n      swap1\n      dup2\n      mstore\n      0x20\n      add\n      0x00\n      keccak256\n      sload\n        /* \"CitreaNativeYeildManager.sol\":13047:13100  uint256 totalToWithdraw = userTotalStaked[msg.sender] */\n      swap1\n      pop\n        /* \"CitreaNativeYeildManager.sol\":13137:13138  0 */\n      0x00\n        /* \"CitreaNativeYeildManager.sol\":13119:13134  totalToWithdraw */\n      dup2\n        /* \"CitreaNativeYeildManager.sol\":13119:13138  totalToWithdraw > 0 */\n      gt\n        /* \"CitreaNativeYeildManager.sol\":13111:13163  require(totalToWithdraw > 0, \"No funds to withdraw\") */\n      tag_488\n      jumpi\n      mload(0x40)\n      0x08c379a000000000000000000000000000000000000000000000000000000000\n      dup2\n      mstore\n      0x04\n      add\n      tag_489\n      swap1\n      tag_490\n      jump\t// in\n    tag_489:\n      mload(0x40)\n      dup1\n      swap2\n      sub\n      swap1\n      revert\n    tag_488:\n        /* \"CitreaNativeYeildManager.sol\":13229:13255  StakeInfo[] storage stakes */\n      0x00\n        /* \"CitreaNativeYeildManager.sol\":13258:13268  userStakes */\n      0x03\n        /* \"CitreaNativeYeildManager.sol\":13258:13280  userStakes[msg.sender] */\n      0x00\n        /* \"CitreaNativeYeildManager.sol\":13269:13279  msg.sender */\n      caller\n        /* \"CitreaNativeYeildManager.sol\":13258:13280  userStakes[msg.sender] */\n      0xffffffffffffffffffffffffffffffffffffffff\n      and\n      0xffffffffffffffffffffffffffffffffffffffff\n      and\n      dup2\n      mstore\n      0x20\n      add\n      swap1\n      dup2\n      mstore\n      0x20\n      add\n      0x00\n      keccak256\n        /* \"CitreaNativeYeildManager.sol\":13229:13280  StakeInfo[] storage stakes = userStakes[msg.sender] */\n      swap1\n      pop\n        /* \"CitreaNativeYeildManager.sol\":13296:13305  uint256 i */\n      0x00\n        /* \"CitreaNativeYeildManager.sol\":13308:13309  0 */\n      0x00\n        /* \"CitreaNativeYeildManager.sol\":13296:13309  uint256 i = 0 */\n      swap1\n      pop\n        /* \"CitreaNativeYeildManager.sol\":13291:13571  for (uint256 i = 0; i < stakes.length; i++) {... */\n    tag_491:\n        /* \"CitreaNativeYeildManager.sol\":13315:13321  stakes */\n      dup2\n        /* \"CitreaNativeYeildManager.sol\":13315:13328  stakes.length */\n      dup1\n      sload\n      swap1\n      pop\n        /* \"CitreaNativeYeildManager.sol\":13311:13312  i */\n      dup2\n        /* \"CitreaNativeYeildManager.sol\":13311:13328  i < stakes.length */\n      lt\n        /* \"CitreaNativeYeildManager.sol\":13291:13571  for (uint256 i = 0; i < stakes.length; i++) {... */\n      iszero\n      tag_492\n      jumpi\n        /* \"CitreaNativeYeildManager.sol\":13354:13360  stakes */\n      dup2\n        /* \"CitreaNativeYeildManager.sol\":13361:13362  i */\n      dup2\n        /* \"CitreaNativeYeildManager.sol\":13354:13363  stakes[i] */\n      dup2\n      sload\n      dup2\n      lt\n      tag_494\n      jumpi\n      tag_495\n      tag_291\n      jump\t// in\n    tag_495:\n    tag_494:\n      swap1\n      0x00\n      mstore\n      keccak256(0x00, 0x20)\n      swap1\n      0x05\n      mul\n      add\n        /* \"CitreaNativeYeildManager.sol\":13354:13372  stakes[i].isActive */\n      0x04\n      add\n      0x00\n      swap1\n      sload\n      swap1\n      0x0100\n      exp\n      swap1\n      div\n      0xff\n      and\n        /* \"CitreaNativeYeildManager.sol\":13350:13560  if (stakes[i].isActive) {... */\n      iszero\n      tag_497\n      jumpi\n        /* \"CitreaNativeYeildManager.sol\":13414:13419  false */\n      0x00\n        /* \"CitreaNativeYeildManager.sol\":13393:13399  stakes */\n      dup3\n        /* \"CitreaNativeYeildManager.sol\":13400:13401  i */\n      dup3\n        /* \"CitreaNativeYeildManager.sol\":13393:13402  stakes[i] */\n      dup2\n      sload\n      dup2\n      lt\n      tag_498\n      jumpi\n      tag_499\n      tag_291\n      jump\t// in\n    tag_499:\n    tag_498:\n      swap1\n      0x00\n      mstore\n      keccak256(0x00, 0x20)\n      swap1\n      0x05\n      mul\n      add\n        /* \"CitreaNativeYeildManager.sol\":13393:13411  stakes[i].isActive */\n      0x04\n      add\n      0x00\n        /* \"CitreaNativeYeildManager.sol\":13393:13419  stakes[i].isActive = false */\n      0x0100\n      exp\n      dup2\n      sload\n      dup2\n      0xff\n      mul\n      not\n      and\n      swap1\n      dup4\n      iszero\n      iszero\n      mul\n      or\n      swap1\n      sstore\n      pop\n        /* \"CitreaNativeYeildManager.sol\":13469:13475  stakes */\n      dup2\n        /* \"CitreaNativeYeildManager.sol\":13476:13477  i */\n      dup2\n        /* \"CitreaNativeYeildManager.sol\":13469:13478  stakes[i] */\n      dup2\n      sload\n      dup2\n      lt\n      tag_501\n      jumpi\n      tag_502\n      tag_291\n      jump\t// in\n    tag_502:\n    tag_501:\n      swap1\n      0x00\n      mstore\n      keccak256(0x00, 0x20)\n      swap1\n      0x05\n      mul\n      add\n        /* \"CitreaNativeYeildManager.sol\":13469:13488  stakes[i].principal */\n      0x00\n      add\n      sload\n        /* \"CitreaNativeYeildManager.sol\":13438:13453  globalYieldPool */\n      0x07\n        /* \"CitreaNativeYeildManager.sol\":13438:13465  globalYieldPool.totalStaked */\n      0x00\n      add\n      0x00\n        /* \"CitreaNativeYeildManager.sol\":13438:13488  globalYieldPool.totalStaked -= stakes[i].principal */\n      dup3\n      dup3\n      sload\n      tag_504\n      swap2\n      swap1\n      tag_272\n      jump\t// in\n    tag_504:\n      swap3\n      pop\n      pop\n      dup2\n      swap1\n      sstore\n      pop\n        /* \"CitreaNativeYeildManager.sol\":13543:13544  1 */\n      0x01\n        /* \"CitreaNativeYeildManager.sol\":13507:13522  globalYieldPool */\n      0x07\n        /* \"CitreaNativeYeildManager.sol\":13507:13539  globalYieldPool.participantCount */\n      0x04\n      add\n      0x00\n        /* \"CitreaNativeYeildManager.sol\":13507:13544  globalYieldPool.participantCount -= 1 */\n      dup3\n      dup3\n      sload\n      tag_505\n      swap2\n      swap1\n      tag_272\n      jump\t// in\n    tag_505:\n      swap3\n      pop\n      pop\n      dup2\n      swap1\n      sstore\n      pop\n        /* \"CitreaNativeYeildManager.sol\":13350:13560  if (stakes[i].isActive) {... */\n    tag_497:\n        /* \"CitreaNativeYeildManager.sol\":13330:13333  i++ */\n      dup1\n      dup1\n      0x01\n      add\n      swap2\n      pop\n      pop\n        /* \"CitreaNativeYeildManager.sol\":13291:13571  for (uint256 i = 0; i < stakes.length; i++) {... */\n      jump(tag_491)\n    tag_492:\n      pop\n        /* \"CitreaNativeYeildManager.sol\":13621:13622  0 */\n      0x00\n        /* \"CitreaNativeYeildManager.sol\":13591:13606  userTotalStaked */\n      0x05\n        /* \"CitreaNativeYeildManager.sol\":13591:13618  userTotalStaked[msg.sender] */\n      0x00\n        /* \"CitreaNativeYeildManager.sol\":13607:13617  msg.sender */\n      caller\n        /* \"CitreaNativeYeildManager.sol\":13591:13618  userTotalStaked[msg.sender] */\n      0xffffffffffffffffffffffffffffffffffffffff\n      and\n      0xffffffffffffffffffffffffffffffffffffffff\n      and\n      dup2\n      mstore\n      0x20\n      add\n      swap1\n      dup2\n      mstore\n      0x20\n      add\n      0x00\n      keccak256\n        /* \"CitreaNativeYeildManager.sol\":13591:13622  userTotalStaked[msg.sender] = 0 */\n      dup2\n      swap1\n      sstore\n      pop\n        /* \"CitreaNativeYeildManager.sol\":13668:13669  0 */\n      0x00\n        /* \"CitreaNativeYeildManager.sol\":13633:13653  emergencyRequestTime */\n      0x10\n        /* \"CitreaNativeYeildManager.sol\":13633:13665  emergencyRequestTime[msg.sender] */\n      0x00\n        /* \"CitreaNativeYeildManager.sol\":13654:13664  msg.sender */\n      caller\n        /* \"CitreaNativeYeildManager.sol\":13633:13665  emergencyRequestTime[msg.sender] */\n      0xffffffffffffffffffffffffffffffffffffffff\n      and\n      0xffffffffffffffffffffffffffffffffffffffff\n      and\n      dup2\n      mstore\n      0x20\n      add\n      swap1\n      dup2\n      mstore\n      0x20\n      add\n      0x00\n      keccak256\n        /* \"CitreaNativeYeildManager.sol\":13633:13669  emergencyRequestTime[msg.sender] = 0 */\n      dup2\n      swap1\n      sstore\n      pop\n        /* \"CitreaNativeYeildManager.sol\":13691:13703  bool success */\n      0x00\n        /* \"CitreaNativeYeildManager.sol\":13717:13727  msg.sender */\n      caller\n        /* \"CitreaNativeYeildManager.sol\":13709:13733  payable(msg.sender).call */\n      0xffffffffffffffffffffffffffffffffffffffff\n      and\n        /* \"CitreaNativeYeildManager.sol\":13741:13756  totalToWithdraw */\n      dup4\n        /* \"CitreaNativeYeildManager.sol\":13709:13761  payable(msg.sender).call{value: totalToWithdraw}(\"\") */\n      mload(0x40)\n      tag_506\n      swap1\n      tag_274\n      jump\t// in\n    tag_506:\n      0x00\n      mload(0x40)\n      dup1\n      dup4\n      sub\n      dup2\n      dup6\n      dup8\n      gas\n      call\n      swap3\n      pop\n      pop\n      pop\n      returndatasize\n      dup1\n      0x00\n      dup2\n      eq\n      tag_509\n      jumpi\n      mload(0x40)\n      swap2\n      pop\n      and(add(returndatasize, 0x3f), not(0x1f))\n      dup3\n      add\n      0x40\n      mstore\n      returndatasize\n      dup3\n      mstore\n      returndatasize\n      0x00\n      0x20\n      dup5\n      add\n      returndatacopy\n      jump(tag_508)\n    tag_509:\n      0x60\n      swap2\n      pop\n    tag_508:\n      pop\n        /* \"CitreaNativeYeildManager.sol\":13690:13761  (bool success, ) = payable(msg.sender).call{value: totalToWithdraw}(\"\") */\n      pop\n      swap1\n      pop\n        /* \"CitreaNativeYeildManager.sol\":13780:13787  success */\n      dup1\n        /* \"CitreaNativeYeildManager.sol\":13772:13819  require(success, \"Emergency withdrawal failed\") */\n      tag_510\n      jumpi\n      mload(0x40)\n      0x08c379a000000000000000000000000000000000000000000000000000000000\n      dup2\n      mstore\n      0x04\n      add\n      tag_511\n      swap1\n      tag_512\n      jump\t// in\n    tag_511:\n      mload(0x40)\n      dup1\n      swap2\n      sub\n      swap1\n      revert\n    tag_510:\n        /* \"CitreaNativeYeildManager.sol\":13873:13883  msg.sender */\n      caller\n        /* \"CitreaNativeYeildManager.sol\":13845:13901  EmergencyWithdrawalExecuted(msg.sender, totalToWithdraw) */\n      0xffffffffffffffffffffffffffffffffffffffff\n      and\n      0xaf6e7d750e5a786a0b4d0e00806a5f778d09769d9c8c0ee377cc6df72af07115\n        /* \"CitreaNativeYeildManager.sol\":13885:13900  totalToWithdraw */\n      dup5\n        /* \"CitreaNativeYeildManager.sol\":13845:13901  EmergencyWithdrawalExecuted(msg.sender, totalToWithdraw) */\n      mload(0x40)\n      tag_513\n      swap2\n      swap1\n      tag_60\n      jump\t// in\n    tag_513:\n      mload(0x40)\n      dup1\n      swap2\n      sub\n      swap1\n      log2\n        /* \"CitreaNativeYeildManager.sol\":12811:13909  {... */\n      pop\n      pop\n      pop\n        /* \"@openzeppelin/contracts/security/ReentrancyGuard.sol\":2303:2323  _nonReentrantAfter() */\n      tag_514\n        /* \"@openzeppelin/contracts/security/ReentrancyGuard.sol\":2303:2321  _nonReentrantAfter */\n      tag_282\n        /* \"@openzeppelin/contracts/security/ReentrancyGuard.sol\":2303:2323  _nonReentrantAfter() */\n      jump\t// in\n    tag_514:\n        /* \"CitreaNativeYeildManager.sol\":12751:13909  function executeEmergencyWithdrawal() external nonReentrant {... */\n      jump\t// out\n        /* \"CitreaNativeYeildManager.sol\":5160:6203  function stakeBtc(uint256 potId) external payable whenNotPaused nonReentrant {... */\n    tag_251:\n        /* \"@openzeppelin/contracts/security/Pausable.sol\":1239:1258  _requireNotPaused() */\n      tag_516\n        /* \"@openzeppelin/contracts/security/Pausable.sol\":1239:1256  _requireNotPaused */\n      tag_303\n        /* \"@openzeppelin/contracts/security/Pausable.sol\":1239:1258  _requireNotPaused() */\n      jump\t// in\n    tag_516:\n        /* \"@openzeppelin/contracts/security/ReentrancyGuard.sol\":2261:2282  _nonReentrantBefore() */\n      tag_518\n        /* \"@openzeppelin/contracts/security/ReentrancyGuard.sol\":2261:2280  _nonReentrantBefore */\n      tag_263\n        /* \"@openzeppelin/contracts/security/ReentrancyGuard.sol\":2261:2282  _nonReentrantBefore() */\n      jump\t// in\n    tag_518:\n        /* \"CitreaNativeYeildManager.sol\":721:732  0.001 ether */\n      0x038d7ea4c68000\n        /* \"CitreaNativeYeildManager.sol\":5256:5265  msg.value */\n      callvalue\n        /* \"CitreaNativeYeildManager.sol\":5256:5285  msg.value >= MIN_STAKE_AMOUNT */\n      lt\n      iszero\n        /* \"CitreaNativeYeildManager.sol\":5248:5310  require(msg.value >= MIN_STAKE_AMOUNT, \"Stake amount too low\") */\n      tag_520\n      jumpi\n      mload(0x40)\n      0x08c379a000000000000000000000000000000000000000000000000000000000\n      dup2\n      mstore\n      0x04\n      add\n      tag_521\n      swap1\n      tag_423\n      jump\t// in\n    tag_521:\n      mload(0x40)\n      dup1\n      swap2\n      sub\n      swap1\n      revert\n    tag_520:\n        /* \"CitreaNativeYeildManager.sol\":5380:5400  _updateGlobalYield() */\n      tag_522\n        /* \"CitreaNativeYeildManager.sol\":5380:5398  _updateGlobalYield */\n      tag_330\n        /* \"CitreaNativeYeildManager.sol\":5380:5400  _updateGlobalYield() */\n      jump\t// in\n    tag_522:\n        /* \"CitreaNativeYeildManager.sol\":5450:5475  StakeInfo memory newStake */\n      0x00\n        /* \"CitreaNativeYeildManager.sol\":5478:5667  StakeInfo({... */\n      mload(0x40)\n      dup1\n      0xa0\n      add\n      0x40\n      mstore\n      dup1\n        /* \"CitreaNativeYeildManager.sol\":5514:5523  msg.value */\n      callvalue\n        /* \"CitreaNativeYeildManager.sol\":5478:5667  StakeInfo({... */\n      dup2\n      mstore\n      0x20\n      add\n        /* \"CitreaNativeYeildManager.sol\":5552:5553  0 */\n      0x00\n        /* \"CitreaNativeYeildManager.sol\":5478:5667  StakeInfo({... */\n      dup2\n      mstore\n      0x20\n      add\n        /* \"CitreaNativeYeildManager.sol\":5584:5599  block.timestamp */\n      timestamp\n        /* \"CitreaNativeYeildManager.sol\":5478:5667  StakeInfo({... */\n      dup2\n      mstore\n      0x20\n      add\n        /* \"CitreaNativeYeildManager.sol\":5621:5626  potId */\n      dup4\n        /* \"CitreaNativeYeildManager.sol\":5478:5667  StakeInfo({... */\n      dup2\n      mstore\n      0x20\n      add\n        /* \"CitreaNativeYeildManager.sol\":5651:5655  true */\n      0x01\n        /* \"CitreaNativeYeildManager.sol\":5478:5667  StakeInfo({... */\n      iszero\n      iszero\n      dup2\n      mstore\n      pop\n        /* \"CitreaNativeYeildManager.sol\":5450:5667  StakeInfo memory newStake = StakeInfo({... */\n      swap1\n      pop\n        /* \"CitreaNativeYeildManager.sol\":5688:5698  userStakes */\n      0x03\n        /* \"CitreaNativeYeildManager.sol\":5688:5710  userStakes[msg.sender] */\n      0x00\n        /* \"CitreaNativeYeildManager.sol\":5699:5709  msg.sender */\n      caller\n        /* \"CitreaNativeYeildManager.sol\":5688:5710  userStakes[msg.sender] */\n      0xffffffffffffffffffffffffffffffffffffffff\n      and\n      0xffffffffffffffffffffffffffffffffffffffff\n      and\n      dup2\n      mstore\n      0x20\n      add\n      swap1\n      dup2\n      mstore\n      0x20\n      add\n      0x00\n      keccak256\n        /* \"CitreaNativeYeildManager.sol\":5716:5724  newStake */\n      dup2\n        /* \"CitreaNativeYeildManager.sol\":5688:5725  userStakes[msg.sender].push(newStake) */\n      swap1\n      dup1\n      0x01\n      dup2\n      sload\n      add\n      dup1\n      dup3\n      sstore\n      dup1\n      swap2\n      pop\n      pop\n      0x01\n      swap1\n      sub\n      swap1\n      0x00\n      mstore\n      keccak256(0x00, 0x20)\n      swap1\n      0x05\n      mul\n      add\n      0x00\n      swap1\n      swap2\n      swap1\n      swap2\n      swap1\n      swap2\n      pop\n      0x00\n      dup3\n      add\n      mload\n      dup2\n      0x00\n      add\n      sstore\n      0x20\n      dup3\n      add\n      mload\n      dup2\n      0x01\n      add\n      sstore\n      0x40\n      dup3\n      add\n      mload\n      dup2\n      0x02\n      add\n      sstore\n      0x60\n      dup3\n      add\n      mload\n      dup2\n      0x03\n      add\n      sstore\n      0x80\n      dup3\n      add\n      mload\n      dup2\n      0x04\n      add\n      exp(0x0100, 0x00)\n      dup2\n      sload\n      dup2\n      0xff\n      mul\n      not\n      and\n      swap1\n      dup4\n      iszero\n      iszero\n      mul\n      or\n      swap1\n      sstore\n      pop\n      pop\n      pop\n        /* \"CitreaNativeYeildManager.sol\":5736:5754  uint256 stakeIndex */\n      0x00\n        /* \"CitreaNativeYeildManager.sol\":5789:5790  1 */\n      0x01\n        /* \"CitreaNativeYeildManager.sol\":5757:5767  userStakes */\n      0x03\n        /* \"CitreaNativeYeildManager.sol\":5757:5779  userStakes[msg.sender] */\n      0x00\n        /* \"CitreaNativeYeildManager.sol\":5768:5778  msg.sender */\n      caller\n        /* \"CitreaNativeYeildManager.sol\":5757:5779  userStakes[msg.sender] */\n      0xffffffffffffffffffffffffffffffffffffffff\n      and\n      0xffffffffffffffffffffffffffffffffffffffff\n      and\n      dup2\n      mstore\n      0x20\n      add\n      swap1\n      dup2\n      mstore\n      0x20\n      add\n      0x00\n      keccak256\n        /* \"CitreaNativeYeildManager.sol\":5757:5786  userStakes[msg.sender].length */\n      dup1\n      sload\n      swap1\n      pop\n        /* \"CitreaNativeYeildManager.sol\":5757:5790  userStakes[msg.sender].length - 1 */\n      tag_524\n      swap2\n      swap1\n      tag_272\n      jump\t// in\n    tag_524:\n        /* \"CitreaNativeYeildManager.sol\":5736:5790  uint256 stakeIndex = userStakes[msg.sender].length - 1 */\n      swap1\n      pop\n        /* \"CitreaNativeYeildManager.sol\":5823:5824  0 */\n      0x00\n        /* \"CitreaNativeYeildManager.sol\":5815:5820  potId */\n      dup4\n        /* \"CitreaNativeYeildManager.sol\":5815:5824  potId > 0 */\n      gt\n        /* \"CitreaNativeYeildManager.sol\":5811:5933  if (potId > 0) {... */\n      iszero\n      tag_525\n      jumpi\n        /* \"CitreaNativeYeildManager.sol\":5841:5850  potStakes */\n      0x04\n        /* \"CitreaNativeYeildManager.sol\":5841:5857  potStakes[potId] */\n      0x00\n        /* \"CitreaNativeYeildManager.sol\":5851:5856  potId */\n      dup5\n        /* \"CitreaNativeYeildManager.sol\":5841:5857  potStakes[potId] */\n      dup2\n      mstore\n      0x20\n      add\n      swap1\n      dup2\n      mstore\n      0x20\n      add\n      0x00\n      keccak256\n        /* \"CitreaNativeYeildManager.sol\":5863:5871  newStake */\n      dup3\n        /* \"CitreaNativeYeildManager.sol\":5841:5872  potStakes[potId].push(newStake) */\n      swap1\n      dup1\n      0x01\n      dup2\n      sload\n      add\n      dup1\n      dup3\n      sstore\n      dup1\n      swap2\n      pop\n      pop\n      0x01\n      swap1\n      sub\n      swap1\n      0x00\n      mstore\n      keccak256(0x00, 0x20)\n      swap1\n      0x05\n      mul\n      add\n      0x00\n      swap1\n      swap2\n      swap1\n      swap2\n      swap1\n      swap2\n      pop\n      0x00\n      dup3\n      add\n      mload\n      dup2\n      0x00\n      add\n      sstore\n      0x20\n      dup3\n      add\n      mload\n      dup2\n      0x01\n      add\n      sstore\n      0x40\n      dup3\n      add\n      mload\n      dup2\n      0x02\n      add\n      sstore\n      0x60\n      dup3\n      add\n      mload\n      dup2\n      0x03\n      add\n      sstore\n      0x80\n      dup3\n      add\n      mload\n      dup2\n      0x04\n      add\n      exp(0x0100, 0x00)\n      dup2\n      sload\n      dup2\n      0xff\n      mul\n      not\n      and\n      swap1\n      dup4\n      iszero\n      iszero\n      mul\n      or\n      swap1\n      sstore\n      pop\n      pop\n      pop\n        /* \"CitreaNativeYeildManager.sol\":5912:5921  msg.value */\n      callvalue\n        /* \"CitreaNativeYeildManager.sol\":5887:5901  potTotalStaked */\n      0x06\n        /* \"CitreaNativeYeildManager.sol\":5887:5908  potTotalStaked[potId] */\n      0x00\n        /* \"CitreaNativeYeildManager.sol\":5902:5907  potId */\n      dup6\n        /* \"CitreaNativeYeildManager.sol\":5887:5908  potTotalStaked[potId] */\n      dup2\n      mstore\n      0x20\n      add\n      swap1\n      dup2\n      mstore\n      0x20\n      add\n      0x00\n      keccak256\n      0x00\n        /* \"CitreaNativeYeildManager.sol\":5887:5921  potTotalStaked[potId] += msg.value */\n      dup3\n      dup3\n      sload\n      tag_527\n      swap2\n      swap1\n      tag_58\n      jump\t// in\n    tag_527:\n      swap3\n      pop\n      pop\n      dup2\n      swap1\n      sstore\n      pop\n        /* \"CitreaNativeYeildManager.sol\":5811:5933  if (potId > 0) {... */\n    tag_525:\n        /* \"CitreaNativeYeildManager.sol\":6010:6019  msg.value */\n      callvalue\n        /* \"CitreaNativeYeildManager.sol\":5979:5994  userTotalStaked */\n      0x05\n        /* \"CitreaNativeYeildManager.sol\":5979:6006  userTotalStaked[msg.sender] */\n      0x00\n        /* \"CitreaNativeYeildManager.sol\":5995:6005  msg.sender */\n      caller\n        /* \"CitreaNativeYeildManager.sol\":5979:6006  userTotalStaked[msg.sender] */\n      0xffffffffffffffffffffffffffffffffffffffff\n      and\n      0xffffffffffffffffffffffffffffffffffffffff\n      and\n      dup2\n      mstore\n      0x20\n      add\n      swap1\n      dup2\n      mstore\n      0x20\n      add\n      0x00\n      keccak256\n      0x00\n        /* \"CitreaNativeYeildManager.sol\":5979:6019  userTotalStaked[msg.sender] += msg.value */\n      dup3\n      dup3\n      sload\n      tag_528\n      swap2\n      swap1\n      tag_58\n      jump\t// in\n    tag_528:\n      swap3\n      pop\n      pop\n      dup2\n      swap1\n      sstore\n      pop\n        /* \"CitreaNativeYeildManager.sol\":6061:6070  msg.value */\n      callvalue\n        /* \"CitreaNativeYeildManager.sol\":6030:6045  globalYieldPool */\n      0x07\n        /* \"CitreaNativeYeildManager.sol\":6030:6057  globalYieldPool.totalStaked */\n      0x00\n      add\n      0x00\n        /* \"CitreaNativeYeildManager.sol\":6030:6070  globalYieldPool.totalStaked += msg.value */\n      dup3\n      dup3\n      sload\n      tag_529\n      swap2\n      swap1\n      tag_58\n      jump\t// in\n    tag_529:\n      swap3\n      pop\n      pop\n      dup2\n      swap1\n      sstore\n      pop\n        /* \"CitreaNativeYeildManager.sol\":6117:6118  1 */\n      0x01\n        /* \"CitreaNativeYeildManager.sol\":6081:6096  globalYieldPool */\n      0x07\n        /* \"CitreaNativeYeildManager.sol\":6081:6113  globalYieldPool.participantCount */\n      0x04\n      add\n      0x00\n        /* \"CitreaNativeYeildManager.sol\":6081:6118  globalYieldPool.participantCount += 1 */\n      dup3\n      dup3\n      sload\n      tag_530\n      swap2\n      swap1\n      tag_58\n      jump\t// in\n    tag_530:\n      swap3\n      pop\n      pop\n      dup2\n      swap1\n      sstore\n      pop\n        /* \"CitreaNativeYeildManager.sol\":6154:6164  msg.sender */\n      caller\n        /* \"CitreaNativeYeildManager.sol\":6144:6195  BtcStaked(msg.sender, msg.value, potId, stakeIndex) */\n      0xffffffffffffffffffffffffffffffffffffffff\n      and\n      0x55b223c72892936a872c1f417e7e143a0592419fe999642dbb4bccb55b8c6e83\n        /* \"CitreaNativeYeildManager.sol\":6166:6175  msg.value */\n      callvalue\n        /* \"CitreaNativeYeildManager.sol\":6177:6182  potId */\n      dup6\n        /* \"CitreaNativeYeildManager.sol\":6184:6194  stakeIndex */\n      dup5\n        /* \"CitreaNativeYeildManager.sol\":6144:6195  BtcStaked(msg.sender, msg.value, potId, stakeIndex) */\n      mload(0x40)\n      tag_531\n      swap4\n      swap3\n      swap2\n      swap1\n      tag_434\n      jump\t// in\n    tag_531:\n      mload(0x40)\n      dup1\n      swap2\n      sub\n      swap1\n      log2\n        /* \"CitreaNativeYeildManager.sol\":5237:6203  {... */\n      pop\n      pop\n        /* \"@openzeppelin/contracts/security/ReentrancyGuard.sol\":2303:2323  _nonReentrantAfter() */\n      tag_532\n        /* \"@openzeppelin/contracts/security/ReentrancyGuard.sol\":2303:2321  _nonReentrantAfter */\n      tag_282\n        /* \"@openzeppelin/contracts/security/ReentrancyGuard.sol\":2303:2323  _nonReentrantAfter() */\n      jump\t// in\n    tag_532:\n        /* \"CitreaNativeYeildManager.sol\":5160:6203  function stakeBtc(uint256 potId) external payable whenNotPaused nonReentrant {... */\n      pop\n      jump\t// out\n        /* \"CitreaNativeYeildManager.sol\":9578:10075  function _calculateYield(address user, uint256 stakeIndex) internal view returns (uint256) {... */\n    tag_255:\n        /* \"CitreaNativeYeildManager.sol\":9660:9667  uint256 */\n      0x00\n        /* \"CitreaNativeYeildManager.sol\":9680:9703  StakeInfo storage stake */\n      0x00\n        /* \"CitreaNativeYeildManager.sol\":9706:9716  userStakes */\n      0x03\n        /* \"CitreaNativeYeildManager.sol\":9706:9722  userStakes[user] */\n      0x00\n        /* \"CitreaNativeYeildManager.sol\":9717:9721  user */\n      dup6\n        /* \"CitreaNativeYeildManager.sol\":9706:9722  userStakes[user] */\n      0xffffffffffffffffffffffffffffffffffffffff\n      and\n      0xffffffffffffffffffffffffffffffffffffffff\n      and\n      dup2\n      mstore\n      0x20\n      add\n      swap1\n      dup2\n      mstore\n      0x20\n      add\n      0x00\n      keccak256\n        /* \"CitreaNativeYeildManager.sol\":9723:9733  stakeIndex */\n      dup4\n        /* \"CitreaNativeYeildManager.sol\":9706:9734  userStakes[user][stakeIndex] */\n      dup2\n      sload\n      dup2\n      lt\n      tag_534\n      jumpi\n      tag_535\n      tag_291\n      jump\t// in\n    tag_535:\n    tag_534:\n      swap1\n      0x00\n      mstore\n      keccak256(0x00, 0x20)\n      swap1\n      0x05\n      mul\n      add\n        /* \"CitreaNativeYeildManager.sol\":9680:9734  StakeInfo storage stake = userStakes[user][stakeIndex] */\n      swap1\n      pop\n        /* \"CitreaNativeYeildManager.sol\":9750:9755  stake */\n      dup1\n        /* \"CitreaNativeYeildManager.sol\":9750:9764  stake.isActive */\n      0x04\n      add\n      0x00\n      swap1\n      sload\n      swap1\n      0x0100\n      exp\n      swap1\n      div\n      0xff\n      and\n        /* \"CitreaNativeYeildManager.sol\":9745:9774  if (!stake.isActive) return 0 */\n      tag_537\n      jumpi\n        /* \"CitreaNativeYeildManager.sol\":9773:9774  0 */\n      0x00\n        /* \"CitreaNativeYeildManager.sol\":9766:9774  return 0 */\n      swap2\n      pop\n      pop\n      jump(tag_533)\n        /* \"CitreaNativeYeildManager.sol\":9745:9774  if (!stake.isActive) return 0 */\n    tag_537:\n        /* \"CitreaNativeYeildManager.sol\":9795:9814  uint256 timeElapsed */\n      0x00\n        /* \"CitreaNativeYeildManager.sol\":9835:9840  stake */\n      dup2\n        /* \"CitreaNativeYeildManager.sol\":9835:9855  stake.lastUpdateTime */\n      0x02\n      add\n      sload\n        /* \"CitreaNativeYeildManager.sol\":9817:9832  block.timestamp */\n      timestamp\n        /* \"CitreaNativeYeildManager.sol\":9817:9855  block.timestamp - stake.lastUpdateTime */\n      tag_538\n      swap2\n      swap1\n      tag_272\n      jump\t// in\n    tag_538:\n        /* \"CitreaNativeYeildManager.sol\":9795:9855  uint256 timeElapsed = block.timestamp - stake.lastUpdateTime */\n      swap1\n      pop\n        /* \"CitreaNativeYeildManager.sol\":9866:9885  uint256 annualYield */\n      0x00\n        /* \"CitreaNativeYeildManager.sol\":637:642  10000 */\n      0x2710\n        /* \"CitreaNativeYeildManager.sol\":9907:9922  globalYieldPool */\n      0x07\n        /* \"CitreaNativeYeildManager.sol\":9907:9939  globalYieldPool.currentYieldRate */\n      0x02\n      add\n      sload\n        /* \"CitreaNativeYeildManager.sol\":9889:9894  stake */\n      dup5\n        /* \"CitreaNativeYeildManager.sol\":9889:9904  stake.principal */\n      0x00\n      add\n      sload\n        /* \"CitreaNativeYeildManager.sol\":9889:9939  stake.principal * globalYieldPool.currentYieldRate */\n      tag_539\n      swap2\n      swap1\n      tag_540\n      jump\t// in\n    tag_539:\n        /* \"CitreaNativeYeildManager.sol\":9888:9955  (stake.principal * globalYieldPool.currentYieldRate) / BASIS_POINTS */\n      tag_541\n      swap2\n      swap1\n      tag_542\n      jump\t// in\n    tag_541:\n        /* \"CitreaNativeYeildManager.sol\":9866:9955  uint256 annualYield = (stake.principal * globalYieldPool.currentYieldRate) / BASIS_POINTS */\n      swap1\n      pop\n        /* \"CitreaNativeYeildManager.sol\":9966:9986  uint256 currentYield */\n      0x00\n        /* \"CitreaNativeYeildManager.sol\":10019:10027  365 days */\n      0x01e13380\n        /* \"CitreaNativeYeildManager.sol\":10004:10015  timeElapsed */\n      dup4\n        /* \"CitreaNativeYeildManager.sol\":9990:10001  annualYield */\n      dup4\n        /* \"CitreaNativeYeildManager.sol\":9990:10015  annualYield * timeElapsed */\n      tag_543\n      swap2\n      swap1\n      tag_540\n      jump\t// in\n    tag_543:\n        /* \"CitreaNativeYeildManager.sol\":9989:10027  (annualYield * timeElapsed) / 365 days */\n      tag_544\n      swap2\n      swap1\n      tag_542\n      jump\t// in\n    tag_544:\n        /* \"CitreaNativeYeildManager.sol\":9966:10027  uint256 currentYield = (annualYield * timeElapsed) / 365 days */\n      swap1\n      pop\n        /* \"CitreaNativeYeildManager.sol\":10055:10067  currentYield */\n      dup1\n        /* \"CitreaNativeYeildManager.sol\":10048:10067  return currentYield */\n      swap5\n      pop\n      pop\n      pop\n      pop\n      pop\n        /* \"CitreaNativeYeildManager.sol\":9578:10075  function _calculateYield(address user, uint256 stakeIndex) internal view returns (uint256) {... */\n    tag_533:\n      swap3\n      swap2\n      pop\n      pop\n      jump\t// out\n        /* \"@openzeppelin/contracts/access/Ownable.sol\":1796:1958  function _checkOwner() internal view virtual {... */\n    tag_260:\n        /* \"@openzeppelin/contracts/access/Ownable.sol\":1866:1878  _msgSender() */\n      tag_546\n        /* \"@openzeppelin/contracts/access/Ownable.sol\":1866:1876  _msgSender */\n      tag_547\n        /* \"@openzeppelin/contracts/access/Ownable.sol\":1866:1878  _msgSender() */\n      jump\t// in\n    tag_546:\n        /* \"@openzeppelin/contracts/access/Ownable.sol\":1855:1878  owner() != _msgSender() */\n      0xffffffffffffffffffffffffffffffffffffffff\n      and\n        /* \"@openzeppelin/contracts/access/Ownable.sol\":1855:1862  owner() */\n      tag_548\n        /* \"@openzeppelin/contracts/access/Ownable.sol\":1855:1860  owner */\n      tag_175\n        /* \"@openzeppelin/contracts/access/Ownable.sol\":1855:1862  owner() */\n      jump\t// in\n    tag_548:\n        /* \"@openzeppelin/contracts/access/Ownable.sol\":1855:1878  owner() != _msgSender() */\n      0xffffffffffffffffffffffffffffffffffffffff\n      and\n      eq\n        /* \"@openzeppelin/contracts/access/Ownable.sol\":1851:1952  if (owner() != _msgSender()) {... */\n      tag_549\n      jumpi\n        /* \"@openzeppelin/contracts/access/Ownable.sol\":1928:1940  _msgSender() */\n      tag_550\n        /* \"@openzeppelin/contracts/access/Ownable.sol\":1928:1938  _msgSender */\n      tag_547\n        /* \"@openzeppelin/contracts/access/Ownable.sol\":1928:1940  _msgSender() */\n      jump\t// in\n    tag_550:\n        /* \"@openzeppelin/contracts/access/Ownable.sol\":1901:1941  OwnableUnauthorizedAccount(_msgSender()) */\n      mload(0x40)\n      0x118cdaa700000000000000000000000000000000000000000000000000000000\n      dup2\n      mstore\n      0x04\n      add\n      tag_551\n      swap2\n      swap1\n      tag_177\n      jump\t// in\n    tag_551:\n      mload(0x40)\n      dup1\n      swap2\n      sub\n      swap1\n      revert\n        /* \"@openzeppelin/contracts/access/Ownable.sol\":1851:1952  if (owner() != _msgSender()) {... */\n    tag_549:\n        /* \"@openzeppelin/contracts/access/Ownable.sol\":1796:1958  function _checkOwner() internal view virtual {... */\n      jump\t// out\n        /* \"@openzeppelin/contracts/security/ReentrancyGuard.sol\":2336:2623  function _nonReentrantBefore() private {... */\n    tag_263:\n        /* \"@openzeppelin/contracts/security/ReentrancyGuard.sol\":1759:1760  2 */\n      0x02\n        /* \"@openzeppelin/contracts/security/ReentrancyGuard.sol\":2468:2475  _status */\n      sload(0x01)\n        /* \"@openzeppelin/contracts/security/ReentrancyGuard.sol\":2468:2487  _status != _ENTERED */\n      sub\n        /* \"@openzeppelin/contracts/security/ReentrancyGuard.sol\":2460:2523  require(_status != _ENTERED, \"ReentrancyGuard: reentrant call\") */\n      tag_553\n      jumpi\n      mload(0x40)\n      0x08c379a000000000000000000000000000000000000000000000000000000000\n      dup2\n      mstore\n      0x04\n      add\n      tag_554\n      swap1\n      tag_555\n      jump\t// in\n    tag_554:\n      mload(0x40)\n      dup1\n      swap2\n      sub\n      swap1\n      revert\n    tag_553:\n        /* \"@openzeppelin/contracts/security/ReentrancyGuard.sol\":1759:1760  2 */\n      0x02\n        /* \"@openzeppelin/contracts/security/ReentrancyGuard.sol\":2598:2605  _status */\n      0x01\n        /* \"@openzeppelin/contracts/security/ReentrancyGuard.sol\":2598:2616  _status = _ENTERED */\n      dup2\n      swap1\n      sstore\n      pop\n        /* \"@openzeppelin/contracts/security/ReentrancyGuard.sol\":2336:2623  function _nonReentrantBefore() private {... */\n      jump\t// out\n        /* \"@openzeppelin/contracts/security/ReentrancyGuard.sol\":2629:2838  function _nonReentrantAfter() private {... */\n    tag_282:\n        /* \"@openzeppelin/contracts/security/ReentrancyGuard.sol\":1716:1717  1 */\n      0x01\n        /* \"@openzeppelin/contracts/security/ReentrancyGuard.sol\":2809:2816  _status */\n      dup1\n        /* \"@openzeppelin/contracts/security/ReentrancyGuard.sol\":2809:2831  _status = _NOT_ENTERED */\n      dup2\n      swap1\n      sstore\n      pop\n        /* \"@openzeppelin/contracts/security/ReentrancyGuard.sol\":2629:2838  function _nonReentrantAfter() private {... */\n      jump\t// out\n        /* \"@openzeppelin/contracts/security/Pausable.sol\":1767:1873  function _requireNotPaused() internal view virtual {... */\n    tag_303:\n        /* \"@openzeppelin/contracts/security/Pausable.sol\":1837:1845  paused() */\n      tag_558\n        /* \"@openzeppelin/contracts/security/Pausable.sol\":1837:1843  paused */\n      tag_152\n        /* \"@openzeppelin/contracts/security/Pausable.sol\":1837:1845  paused() */\n      jump\t// in\n    tag_558:\n        /* \"@openzeppelin/contracts/security/Pausable.sol\":1836:1845  !paused() */\n      iszero\n        /* \"@openzeppelin/contracts/security/Pausable.sol\":1828:1866  require(!paused(), \"Pausable: paused\") */\n      tag_559\n      jumpi\n      mload(0x40)\n      0x08c379a000000000000000000000000000000000000000000000000000000000\n      dup2\n      mstore\n      0x04\n      add\n      tag_560\n      swap1\n      tag_561\n      jump\t// in\n    tag_560:\n      mload(0x40)\n      dup1\n      swap2\n      sub\n      swap1\n      revert\n    tag_559:\n        /* \"@openzeppelin/contracts/security/Pausable.sol\":1767:1873  function _requireNotPaused() internal view virtual {... */\n      jump\t// out\n        /* \"CitreaNativeYeildManager.sol\":8140:9439  function _unstakeBtcInternal(address user, uint256 stakeIndex, address recipient) internal {... */\n    tag_320:\n        /* \"CitreaNativeYeildManager.sol\":8242:8265  StakeInfo storage stake */\n      0x00\n        /* \"CitreaNativeYeildManager.sol\":8268:8278  userStakes */\n      0x03\n        /* \"CitreaNativeYeildManager.sol\":8268:8284  userStakes[user] */\n      0x00\n        /* \"CitreaNativeYeildManager.sol\":8279:8283  user */\n      dup6\n        /* \"CitreaNativeYeildManager.sol\":8268:8284  userStakes[user] */\n      0xffffffffffffffffffffffffffffffffffffffff\n      and\n      0xffffffffffffffffffffffffffffffffffffffff\n      and\n      dup2\n      mstore\n      0x20\n      add\n      swap1\n      dup2\n      mstore\n      0x20\n      add\n      0x00\n      keccak256\n        /* \"CitreaNativeYeildManager.sol\":8285:8295  stakeIndex */\n      dup4\n        /* \"CitreaNativeYeildManager.sol\":8268:8296  userStakes[user][stakeIndex] */\n      dup2\n      sload\n      dup2\n      lt\n      tag_563\n      jumpi\n      tag_564\n      tag_291\n      jump\t// in\n    tag_564:\n    tag_563:\n      swap1\n      0x00\n      mstore\n      keccak256(0x00, 0x20)\n      swap1\n      0x05\n      mul\n      add\n        /* \"CitreaNativeYeildManager.sol\":8242:8296  StakeInfo storage stake = userStakes[user][stakeIndex] */\n      swap1\n      pop\n        /* \"CitreaNativeYeildManager.sol\":8353:8373  uint256 currentYield */\n      0x00\n        /* \"CitreaNativeYeildManager.sol\":8376:8409  _calculateYield(user, stakeIndex) */\n      tag_566\n        /* \"CitreaNativeYeildManager.sol\":8392:8396  user */\n      dup6\n        /* \"CitreaNativeYeildManager.sol\":8398:8408  stakeIndex */\n      dup6\n        /* \"CitreaNativeYeildManager.sol\":8376:8391  _calculateYield */\n      tag_255\n        /* \"CitreaNativeYeildManager.sol\":8376:8409  _calculateYield(user, stakeIndex) */\n      jump\t// in\n    tag_566:\n        /* \"CitreaNativeYeildManager.sol\":8353:8409  uint256 currentYield = _calculateYield(user, stakeIndex) */\n      swap1\n      pop\n        /* \"CitreaNativeYeildManager.sol\":8442:8454  currentYield */\n      dup1\n        /* \"CitreaNativeYeildManager.sol\":8420:8425  stake */\n      dup3\n        /* \"CitreaNativeYeildManager.sol\":8420:8438  stake.accruedYield */\n      0x01\n      add\n      0x00\n        /* \"CitreaNativeYeildManager.sol\":8420:8454  stake.accruedYield += currentYield */\n      dup3\n      dup3\n      sload\n      tag_567\n      swap2\n      swap1\n      tag_58\n      jump\t// in\n    tag_567:\n      swap3\n      pop\n      pop\n      dup2\n      swap1\n      sstore\n      pop\n        /* \"CitreaNativeYeildManager.sol\":8475:8494  uint256 totalAmount */\n      0x00\n        /* \"CitreaNativeYeildManager.sol\":8515:8520  stake */\n      dup3\n        /* \"CitreaNativeYeildManager.sol\":8515:8533  stake.accruedYield */\n      0x01\n      add\n      sload\n        /* \"CitreaNativeYeildManager.sol\":8497:8502  stake */\n      dup4\n        /* \"CitreaNativeYeildManager.sol\":8497:8512  stake.principal */\n      0x00\n      add\n      sload\n        /* \"CitreaNativeYeildManager.sol\":8497:8533  stake.principal + stake.accruedYield */\n      tag_568\n      swap2\n      swap1\n      tag_58\n      jump\t// in\n    tag_568:\n        /* \"CitreaNativeYeildManager.sol\":8475:8533  uint256 totalAmount = stake.principal + stake.accruedYield */\n      swap1\n      pop\n        /* \"CitreaNativeYeildManager.sol\":8544:8563  uint256 protocolFee */\n      0x00\n        /* \"CitreaNativeYeildManager.sol\":637:642  10000 */\n      0x2710\n        /* \"CitreaNativeYeildManager.sol\":8588:8603  protocolFeeRate */\n      sload(0x0e)\n        /* \"CitreaNativeYeildManager.sol\":8567:8572  stake */\n      dup6\n        /* \"CitreaNativeYeildManager.sol\":8567:8585  stake.accruedYield */\n      0x01\n      add\n      sload\n        /* \"CitreaNativeYeildManager.sol\":8567:8603  stake.accruedYield * protocolFeeRate */\n      tag_569\n      swap2\n      swap1\n      tag_540\n      jump\t// in\n    tag_569:\n        /* \"CitreaNativeYeildManager.sol\":8566:8619  (stake.accruedYield * protocolFeeRate) / BASIS_POINTS */\n      tag_570\n      swap2\n      swap1\n      tag_542\n      jump\t// in\n    tag_570:\n        /* \"CitreaNativeYeildManager.sol\":8544:8619  uint256 protocolFee = (stake.accruedYield * protocolFeeRate) / BASIS_POINTS */\n      swap1\n      pop\n        /* \"CitreaNativeYeildManager.sol\":8630:8648  uint256 userAmount */\n      0x00\n        /* \"CitreaNativeYeildManager.sol\":8665:8676  protocolFee */\n      dup2\n        /* \"CitreaNativeYeildManager.sol\":8651:8662  totalAmount */\n      dup4\n        /* \"CitreaNativeYeildManager.sol\":8651:8676  totalAmount - protocolFee */\n      tag_571\n      swap2\n      swap1\n      tag_272\n      jump\t// in\n    tag_571:\n        /* \"CitreaNativeYeildManager.sol\":8630:8676  uint256 userAmount = totalAmount - protocolFee */\n      swap1\n      pop\n        /* \"CitreaNativeYeildManager.sol\":8722:8735  uint256 potId */\n      0x00\n        /* \"CitreaNativeYeildManager.sol\":8738:8743  stake */\n      dup6\n        /* \"CitreaNativeYeildManager.sol\":8738:8749  stake.potId */\n      0x03\n      add\n      sload\n        /* \"CitreaNativeYeildManager.sol\":8722:8749  uint256 potId = stake.potId */\n      swap1\n      pop\n        /* \"CitreaNativeYeildManager.sol\":8777:8782  false */\n      0x00\n        /* \"CitreaNativeYeildManager.sol\":8760:8765  stake */\n      dup7\n        /* \"CitreaNativeYeildManager.sol\":8760:8774  stake.isActive */\n      0x04\n      add\n      0x00\n        /* \"CitreaNativeYeildManager.sol\":8760:8782  stake.isActive = false */\n      0x0100\n      exp\n      dup2\n      sload\n      dup2\n      0xff\n      mul\n      not\n      and\n      swap1\n      dup4\n      iszero\n      iszero\n      mul\n      or\n      swap1\n      sstore\n      pop\n        /* \"CitreaNativeYeildManager.sol\":8828:8833  stake */\n      dup6\n        /* \"CitreaNativeYeildManager.sol\":8828:8843  stake.principal */\n      0x00\n      add\n      sload\n        /* \"CitreaNativeYeildManager.sol\":8803:8818  userTotalStaked */\n      0x05\n        /* \"CitreaNativeYeildManager.sol\":8803:8824  userTotalStaked[user] */\n      0x00\n        /* \"CitreaNativeYeildManager.sol\":8819:8823  user */\n      dup12\n        /* \"CitreaNativeYeildManager.sol\":8803:8824  userTotalStaked[user] */\n      0xffffffffffffffffffffffffffffffffffffffff\n      and\n      0xffffffffffffffffffffffffffffffffffffffff\n      and\n      dup2\n      mstore\n      0x20\n      add\n      swap1\n      dup2\n      mstore\n      0x20\n      add\n      0x00\n      keccak256\n      0x00\n        /* \"CitreaNativeYeildManager.sol\":8803:8843  userTotalStaked[user] -= stake.principal */\n      dup3\n      dup3\n      sload\n      tag_572\n      swap2\n      swap1\n      tag_272\n      jump\t// in\n    tag_572:\n      swap3\n      pop\n      pop\n      dup2\n      swap1\n      sstore\n      pop\n        /* \"CitreaNativeYeildManager.sol\":8885:8890  stake */\n      dup6\n        /* \"CitreaNativeYeildManager.sol\":8885:8900  stake.principal */\n      0x00\n      add\n      sload\n        /* \"CitreaNativeYeildManager.sol\":8854:8869  globalYieldPool */\n      0x07\n        /* \"CitreaNativeYeildManager.sol\":8854:8881  globalYieldPool.totalStaked */\n      0x00\n      add\n      0x00\n        /* \"CitreaNativeYeildManager.sol\":8854:8900  globalYieldPool.totalStaked -= stake.principal */\n      dup3\n      dup3\n      sload\n      tag_573\n      swap2\n      swap1\n      tag_272\n      jump\t// in\n    tag_573:\n      swap3\n      pop\n      pop\n      dup2\n      swap1\n      sstore\n      pop\n        /* \"CitreaNativeYeildManager.sol\":8947:8948  1 */\n      0x01\n        /* \"CitreaNativeYeildManager.sol\":8911:8926  globalYieldPool */\n      0x07\n        /* \"CitreaNativeYeildManager.sol\":8911:8943  globalYieldPool.participantCount */\n      0x04\n      add\n      0x00\n        /* \"CitreaNativeYeildManager.sol\":8911:8948  globalYieldPool.participantCount -= 1 */\n      dup3\n      dup3\n      sload\n      tag_574\n      swap2\n      swap1\n      tag_272\n      jump\t// in\n    tag_574:\n      swap3\n      pop\n      pop\n      dup2\n      swap1\n      sstore\n      pop\n        /* \"CitreaNativeYeildManager.sol\":8981:8982  0 */\n      0x00\n        /* \"CitreaNativeYeildManager.sol\":8973:8978  potId */\n      dup2\n        /* \"CitreaNativeYeildManager.sol\":8973:8982  potId > 0 */\n      gt\n        /* \"CitreaNativeYeildManager.sol\":8969:9051  if (potId > 0) {... */\n      iszero\n      tag_575\n      jumpi\n        /* \"CitreaNativeYeildManager.sol\":9024:9029  stake */\n      dup6\n        /* \"CitreaNativeYeildManager.sol\":9024:9039  stake.principal */\n      0x00\n      add\n      sload\n        /* \"CitreaNativeYeildManager.sol\":8999:9013  potTotalStaked */\n      0x06\n        /* \"CitreaNativeYeildManager.sol\":8999:9020  potTotalStaked[potId] */\n      0x00\n        /* \"CitreaNativeYeildManager.sol\":9014:9019  potId */\n      dup4\n        /* \"CitreaNativeYeildManager.sol\":8999:9020  potTotalStaked[potId] */\n      dup2\n      mstore\n      0x20\n      add\n      swap1\n      dup2\n      mstore\n      0x20\n      add\n      0x00\n      keccak256\n      0x00\n        /* \"CitreaNativeYeildManager.sol\":8999:9039  potTotalStaked[potId] -= stake.principal */\n      dup3\n      dup3\n      sload\n      tag_576\n      swap2\n      swap1\n      tag_272\n      jump\t// in\n    tag_576:\n      swap3\n      pop\n      pop\n      dup2\n      swap1\n      sstore\n      pop\n        /* \"CitreaNativeYeildManager.sol\":8969:9051  if (potId > 0) {... */\n    tag_575:\n        /* \"CitreaNativeYeildManager.sol\":9122:9123  0 */\n      0x00\n        /* \"CitreaNativeYeildManager.sol\":9108:9119  protocolFee */\n      dup4\n        /* \"CitreaNativeYeildManager.sol\":9108:9123  protocolFee > 0 */\n      gt\n        /* \"CitreaNativeYeildManager.sol\":9104:9181  if (protocolFee > 0) {... */\n      iszero\n      tag_577\n      jumpi\n        /* \"CitreaNativeYeildManager.sol\":9158:9169  protocolFee */\n      dup3\n        /* \"CitreaNativeYeildManager.sol\":9140:9154  networkFeePool */\n      0x0d\n      0x00\n        /* \"CitreaNativeYeildManager.sol\":9140:9169  networkFeePool += protocolFee */\n      dup3\n      dup3\n      sload\n      tag_578\n      swap2\n      swap1\n      tag_58\n      jump\t// in\n    tag_578:\n      swap3\n      pop\n      pop\n      dup2\n      swap1\n      sstore\n      pop\n        /* \"CitreaNativeYeildManager.sol\":9104:9181  if (protocolFee > 0) {... */\n    tag_577:\n        /* \"CitreaNativeYeildManager.sol\":9229:9241  bool success */\n      0x00\n        /* \"CitreaNativeYeildManager.sol\":9255:9264  recipient */\n      dup8\n        /* \"CitreaNativeYeildManager.sol\":9247:9270  payable(recipient).call */\n      0xffffffffffffffffffffffffffffffffffffffff\n      and\n        /* \"CitreaNativeYeildManager.sol\":9278:9288  userAmount */\n      dup4\n        /* \"CitreaNativeYeildManager.sol\":9247:9293  payable(recipient).call{value: userAmount}(\"\") */\n      mload(0x40)\n      tag_579\n      swap1\n      tag_274\n      jump\t// in\n    tag_579:\n      0x00\n      mload(0x40)\n      dup1\n      dup4\n      sub\n      dup2\n      dup6\n      dup8\n      gas\n      call\n      swap3\n      pop\n      pop\n      pop\n      returndatasize\n      dup1\n      0x00\n      dup2\n      eq\n      tag_582\n      jumpi\n      mload(0x40)\n      swap2\n      pop\n      and(add(returndatasize, 0x3f), not(0x1f))\n      dup3\n      add\n      0x40\n      mstore\n      returndatasize\n      dup3\n      mstore\n      returndatasize\n      0x00\n      0x20\n      dup5\n      add\n      returndatacopy\n      jump(tag_581)\n    tag_582:\n      0x60\n      swap2\n      pop\n    tag_581:\n      pop\n        /* \"CitreaNativeYeildManager.sol\":9228:9293  (bool success, ) = payable(recipient).call{value: userAmount}(\"\") */\n      pop\n      swap1\n      pop\n        /* \"CitreaNativeYeildManager.sol\":9312:9319  success */\n      dup1\n        /* \"CitreaNativeYeildManager.sol\":9304:9339  require(success, \"Transfer failed\") */\n      tag_583\n      jumpi\n      mload(0x40)\n      0x08c379a000000000000000000000000000000000000000000000000000000000\n      dup2\n      mstore\n      0x04\n      add\n      tag_584\n      swap1\n      tag_585\n      jump\t// in\n    tag_584:\n      mload(0x40)\n      dup1\n      swap2\n      sub\n      swap1\n      revert\n    tag_583:\n        /* \"CitreaNativeYeildManager.sol\":9377:9381  user */\n      dup10\n        /* \"CitreaNativeYeildManager.sol\":9365:9431  BtcUnstaked(user, stake.principal, stake.accruedYield, stakeIndex) */\n      0xffffffffffffffffffffffffffffffffffffffff\n      and\n      0xc8b5ab210e9d3b6a82b80aa35e2cc486dc439d18cbfef6006c423a516768f70b\n        /* \"CitreaNativeYeildManager.sol\":9383:9388  stake */\n      dup9\n        /* \"CitreaNativeYeildManager.sol\":9383:9398  stake.principal */\n      0x00\n      add\n      sload\n        /* \"CitreaNativeYeildManager.sol\":9400:9405  stake */\n      dup10\n        /* \"CitreaNativeYeildManager.sol\":9400:9418  stake.accruedYield */\n      0x01\n      add\n      sload\n        /* \"CitreaNativeYeildManager.sol\":9420:9430  stakeIndex */\n      dup13\n        /* \"CitreaNativeYeildManager.sol\":9365:9431  BtcUnstaked(user, stake.principal, stake.accruedYield, stakeIndex) */\n      mload(0x40)\n      tag_586\n      swap4\n      swap3\n      swap2\n      swap1\n      tag_434\n      jump\t// in\n    tag_586:\n      mload(0x40)\n      dup1\n      swap2\n      sub\n      swap1\n      log2\n        /* \"CitreaNativeYeildManager.sol\":8231:9439  {... */\n      pop\n      pop\n      pop\n      pop\n      pop\n      pop\n      pop\n        /* \"CitreaNativeYeildManager.sol\":8140:9439  function _unstakeBtcInternal(address user, uint256 stakeIndex, address recipient) internal {... */\n      pop\n      pop\n      pop\n      jump\t// out\n        /* \"CitreaNativeYeildManager.sol\":10690:11404  function _updateGlobalYield() internal {... */\n    tag_330:\n        /* \"CitreaNativeYeildManager.sol\":10774:10789  block.timestamp */\n      timestamp\n        /* \"CitreaNativeYeildManager.sol\":10740:10755  globalYieldPool */\n      0x07\n        /* \"CitreaNativeYeildManager.sol\":10740:10771  globalYieldPool.lastYieldUpdate */\n      0x03\n      add\n        /* \"CitreaNativeYeildManager.sol\":10740:10789  globalYieldPool.lastYieldUpdate = block.timestamp */\n      dup2\n      swap1\n      sstore\n      pop\n        /* \"CitreaNativeYeildManager.sol\":10905:10914  100 ether */\n      0x056bc75e2d63100000\n        /* \"CitreaNativeYeildManager.sol\":10875:10890  globalYieldPool */\n      0x07\n        /* \"CitreaNativeYeildManager.sol\":10875:10902  globalYieldPool.totalStaked */\n      0x00\n      add\n      sload\n        /* \"CitreaNativeYeildManager.sol\":10875:10914  globalYieldPool.totalStaked > 100 ether */\n      gt\n        /* \"CitreaNativeYeildManager.sol\":10871:11397  if (globalYieldPool.totalStaked > 100 ether) {... */\n      iszero\n      tag_588\n      jumpi\n        /* \"CitreaNativeYeildManager.sol\":11040:11042  50 */\n      0x32\n        /* \"CitreaNativeYeildManager.sol\":942:944  50 */\n      dup1\n        /* \"CitreaNativeYeildManager.sol\":11023:11042  MIN_YIELD_RATE + 50 */\n      tag_589\n      swap2\n      swap1\n      tag_58\n      jump\t// in\n    tag_589:\n        /* \"CitreaNativeYeildManager.sol\":10988:11003  globalYieldPool */\n      0x07\n        /* \"CitreaNativeYeildManager.sol\":10988:11020  globalYieldPool.currentYieldRate */\n      0x02\n      add\n      sload\n        /* \"CitreaNativeYeildManager.sol\":10988:11042  globalYieldPool.currentYieldRate > MIN_YIELD_RATE + 50 */\n      gt\n        /* \"CitreaNativeYeildManager.sol\":10984:11117  if (globalYieldPool.currentYieldRate > MIN_YIELD_RATE + 50) {... */\n      iszero\n      tag_590\n      jumpi\n        /* \"CitreaNativeYeildManager.sol\":11099:11101  10 */\n      0x0a\n        /* \"CitreaNativeYeildManager.sol\":11063:11078  globalYieldPool */\n      0x07\n        /* \"CitreaNativeYeildManager.sol\":11063:11095  globalYieldPool.currentYieldRate */\n      0x02\n      add\n      0x00\n        /* \"CitreaNativeYeildManager.sol\":11063:11101  globalYieldPool.currentYieldRate -= 10 */\n      dup3\n      dup3\n      sload\n      tag_591\n      swap2\n      swap1\n      tag_272\n      jump\t// in\n    tag_591:\n      swap3\n      pop\n      pop\n      dup2\n      swap1\n      sstore\n      pop\n        /* \"CitreaNativeYeildManager.sol\":10984:11117  if (globalYieldPool.currentYieldRate > MIN_YIELD_RATE + 50) {... */\n    tag_590:\n        /* \"CitreaNativeYeildManager.sol\":10871:11397  if (globalYieldPool.totalStaked > 100 ether) {... */\n      jump(tag_592)\n    tag_588:\n        /* \"CitreaNativeYeildManager.sol\":11168:11176  10 ether */\n      0x8ac7230489e80000\n        /* \"CitreaNativeYeildManager.sol\":11138:11153  globalYieldPool */\n      0x07\n        /* \"CitreaNativeYeildManager.sol\":11138:11165  globalYieldPool.totalStaked */\n      0x00\n      add\n      sload\n        /* \"CitreaNativeYeildManager.sol\":11138:11176  globalYieldPool.totalStaked < 10 ether */\n      lt\n        /* \"CitreaNativeYeildManager.sol\":11134:11397  if (globalYieldPool.totalStaked < 10 ether) {... */\n      iszero\n      tag_593\n      jumpi\n        /* \"CitreaNativeYeildManager.sol\":11309:11311  50 */\n      0x32\n        /* \"CitreaNativeYeildManager.sol\":868:871  800 */\n      0x0320\n        /* \"CitreaNativeYeildManager.sol\":11292:11311  MAX_YIELD_RATE - 50 */\n      tag_594\n      swap2\n      swap1\n      tag_272\n      jump\t// in\n    tag_594:\n        /* \"CitreaNativeYeildManager.sol\":11257:11272  globalYieldPool */\n      0x07\n        /* \"CitreaNativeYeildManager.sol\":11257:11289  globalYieldPool.currentYieldRate */\n      0x02\n      add\n      sload\n        /* \"CitreaNativeYeildManager.sol\":11257:11311  globalYieldPool.currentYieldRate < MAX_YIELD_RATE - 50 */\n      lt\n        /* \"CitreaNativeYeildManager.sol\":11253:11386  if (globalYieldPool.currentYieldRate < MAX_YIELD_RATE - 50) {... */\n      iszero\n      tag_595\n      jumpi\n        /* \"CitreaNativeYeildManager.sol\":11368:11370  10 */\n      0x0a\n        /* \"CitreaNativeYeildManager.sol\":11332:11347  globalYieldPool */\n      0x07\n        /* \"CitreaNativeYeildManager.sol\":11332:11364  globalYieldPool.currentYieldRate */\n      0x02\n      add\n      0x00\n        /* \"CitreaNativeYeildManager.sol\":11332:11370  globalYieldPool.currentYieldRate += 10 */\n      dup3\n      dup3\n      sload\n      tag_596\n      swap2\n      swap1\n      tag_58\n      jump\t// in\n    tag_596:\n      swap3\n      pop\n      pop\n      dup2\n      swap1\n      sstore\n      pop\n        /* \"CitreaNativeYeildManager.sol\":11253:11386  if (globalYieldPool.currentYieldRate < MAX_YIELD_RATE - 50) {... */\n    tag_595:\n        /* \"CitreaNativeYeildManager.sol\":11134:11397  if (globalYieldPool.totalStaked < 10 ether) {... */\n    tag_593:\n        /* \"CitreaNativeYeildManager.sol\":10871:11397  if (globalYieldPool.totalStaked > 100 ether) {... */\n    tag_592:\n        /* \"CitreaNativeYeildManager.sol\":10690:11404  function _updateGlobalYield() internal {... */\n      jump\t// out\n        /* \"@openzeppelin/contracts/security/Pausable.sol\":2433:2550  function _unpause() internal virtual whenPaused {... */\n    tag_338:\n        /* \"@openzeppelin/contracts/security/Pausable.sol\":1486:1502  _requirePaused() */\n      tag_598\n        /* \"@openzeppelin/contracts/security/Pausable.sol\":1486:1500  _requirePaused */\n      tag_599\n        /* \"@openzeppelin/contracts/security/Pausable.sol\":1486:1502  _requirePaused() */\n      jump\t// in\n    tag_598:\n        /* \"@openzeppelin/contracts/security/Pausable.sol\":2501:2506  false */\n      0x00\n        /* \"@openzeppelin/contracts/security/Pausable.sol\":2491:2498  _paused */\n      0x02\n      0x00\n        /* \"@openzeppelin/contracts/security/Pausable.sol\":2491:2506  _paused = false */\n      0x0100\n      exp\n      dup2\n      sload\n      dup2\n      0xff\n      mul\n      not\n      and\n      swap1\n      dup4\n      iszero\n      iszero\n      mul\n      or\n      swap1\n      sstore\n      pop\n        /* \"@openzeppelin/contracts/security/Pausable.sol\":2521:2543  Unpaused(_msgSender()) */\n      0x5db9ee0a495bf2e6ff9c91a7834c1ba4fdd244a5e8aa4e537bd38aeae4b073aa\n        /* \"@openzeppelin/contracts/security/Pausable.sol\":2530:2542  _msgSender() */\n      tag_601\n        /* \"@openzeppelin/contracts/security/Pausable.sol\":2530:2540  _msgSender */\n      tag_547\n        /* \"@openzeppelin/contracts/security/Pausable.sol\":2530:2542  _msgSender() */\n      jump\t// in\n    tag_601:\n        /* \"@openzeppelin/contracts/security/Pausable.sol\":2521:2543  Unpaused(_msgSender()) */\n      mload(0x40)\n      tag_602\n      swap2\n      swap1\n      tag_177\n      jump\t// in\n    tag_602:\n      mload(0x40)\n      dup1\n      swap2\n      sub\n      swap1\n      log1\n        /* \"@openzeppelin/contracts/security/Pausable.sol\":2433:2550  function _unpause() internal virtual whenPaused {... */\n      jump\t// out\n        /* \"@openzeppelin/contracts/security/Pausable.sol\":2186:2301  function _pause() internal virtual whenNotPaused {... */\n    tag_354:\n        /* \"@openzeppelin/contracts/security/Pausable.sol\":1239:1258  _requireNotPaused() */\n      tag_604\n        /* \"@openzeppelin/contracts/security/Pausable.sol\":1239:1256  _requireNotPaused */\n      tag_303\n        /* \"@openzeppelin/contracts/security/Pausable.sol\":1239:1258  _requireNotPaused() */\n      jump\t// in\n    tag_604:\n        /* \"@openzeppelin/contracts/security/Pausable.sol\":2255:2259  true */\n      0x01\n        /* \"@openzeppelin/contracts/security/Pausable.sol\":2245:2252  _paused */\n      0x02\n      0x00\n        /* \"@openzeppelin/contracts/security/Pausable.sol\":2245:2259  _paused = true */\n      0x0100\n      exp\n      dup2\n      sload\n      dup2\n      0xff\n      mul\n      not\n      and\n      swap1\n      dup4\n      iszero\n      iszero\n      mul\n      or\n      swap1\n      sstore\n      pop\n        /* \"@openzeppelin/contracts/security/Pausable.sol\":2274:2294  Paused(_msgSender()) */\n      0x62e78cea01bee320cd4e420270b5ea74000d11b0c9f74754ebdbfc544b05a258\n        /* \"@openzeppelin/contracts/security/Pausable.sol\":2281:2293  _msgSender() */\n      tag_606\n        /* \"@openzeppelin/contracts/security/Pausable.sol\":2281:2291  _msgSender */\n      tag_547\n        /* \"@openzeppelin/contracts/security/Pausable.sol\":2281:2293  _msgSender() */\n      jump\t// in\n    tag_606:\n        /* \"@openzeppelin/contracts/security/Pausable.sol\":2274:2294  Paused(_msgSender()) */\n      mload(0x40)\n      tag_607\n      swap2\n      swap1\n      tag_177\n      jump\t// in\n    tag_607:\n      mload(0x40)\n      dup1\n      swap2\n      sub\n      swap1\n      log1\n        /* \"@openzeppelin/contracts/security/Pausable.sol\":2186:2301  function _pause() internal virtual whenNotPaused {... */\n      jump\t// out\n        /* \"@openzeppelin/contracts/access/Ownable.sol\":2912:3099  function _transferOwnership(address newOwner) internal virtual {... */\n    tag_367:\n        /* \"@openzeppelin/contracts/access/Ownable.sol\":2985:3001  address oldOwner */\n      0x00\n        /* \"@openzeppelin/contracts/access/Ownable.sol\":3004:3010  _owner */\n      0x00\n      0x00\n      swap1\n      sload\n      swap1\n      0x0100\n      exp\n      swap1\n      div\n      0xffffffffffffffffffffffffffffffffffffffff\n      and\n        /* \"@openzeppelin/contracts/access/Ownable.sol\":2985:3010  address oldOwner = _owner */\n      swap1\n      pop\n        /* \"@openzeppelin/contracts/access/Ownable.sol\":3029:3037  newOwner */\n      dup2\n        /* \"@openzeppelin/contracts/access/Ownable.sol\":3020:3026  _owner */\n      0x00\n      0x00\n        /* \"@openzeppelin/contracts/access/Ownable.sol\":3020:3037  _owner = newOwner */\n      0x0100\n      exp\n      dup2\n      sload\n      dup2\n      0xffffffffffffffffffffffffffffffffffffffff\n      mul\n      not\n      and\n      swap1\n      dup4\n      0xffffffffffffffffffffffffffffffffffffffff\n      and\n      mul\n      or\n      swap1\n      sstore\n      pop\n        /* \"@openzeppelin/contracts/access/Ownable.sol\":3083:3091  newOwner */\n      dup2\n        /* \"@openzeppelin/contracts/access/Ownable.sol\":3052:3092  OwnershipTransferred(oldOwner, newOwner) */\n      0xffffffffffffffffffffffffffffffffffffffff\n      and\n        /* \"@openzeppelin/contracts/access/Ownable.sol\":3073:3081  oldOwner */\n      dup2\n        /* \"@openzeppelin/contracts/access/Ownable.sol\":3052:3092  OwnershipTransferred(oldOwner, newOwner) */\n      0xffffffffffffffffffffffffffffffffffffffff\n      and\n      0x8be0079c531659141344cd1fd0a4f28419497f9722a3daafe3b4186f6b6457e0\n      mload(0x40)\n      mload(0x40)\n      dup1\n      swap2\n      sub\n      swap1\n      log3\n        /* \"@openzeppelin/contracts/access/Ownable.sol\":2975:3099  {... */\n      pop\n        /* \"@openzeppelin/contracts/access/Ownable.sol\":2912:3099  function _transferOwnership(address newOwner) internal virtual {... */\n      pop\n      jump\t// out\n        /* \"@openzeppelin/contracts/utils/Context.sol\":656:752  function _msgSender() internal view virtual returns (address) {... */\n    tag_547:\n        /* \"@openzeppelin/contracts/utils/Context.sol\":709:716  address */\n      0x00\n        /* \"@openzeppelin/contracts/utils/Context.sol\":735:745  msg.sender */\n      caller\n        /* \"@openzeppelin/contracts/utils/Context.sol\":728:745  return msg.sender */\n      swap1\n      pop\n        /* \"@openzeppelin/contracts/utils/Context.sol\":656:752  function _msgSender() internal view virtual returns (address) {... */\n      swap1\n      jump\t// out\n        /* \"@openzeppelin/contracts/security/Pausable.sol\":1945:2051  function _requirePaused() internal view virtual {... */\n    tag_599:\n        /* \"@openzeppelin/contracts/security/Pausable.sol\":2011:2019  paused() */\n      tag_611\n        /* \"@openzeppelin/contracts/security/Pausable.sol\":2011:2017  paused */\n      tag_152\n        /* \"@openzeppelin/contracts/security/Pausable.sol\":2011:2019  paused() */\n      jump\t// in\n    tag_611:\n        /* \"@openzeppelin/contracts/security/Pausable.sol\":2003:2044  require(paused(), \"Pausable: not paused\") */\n      tag_612\n      jumpi\n      mload(0x40)\n      0x08c379a000000000000000000000000000000000000000000000000000000000\n      dup2\n      mstore\n      0x04\n      add\n      tag_613\n      swap1\n      tag_614\n      jump\t// in\n    tag_613:\n      mload(0x40)\n      dup1\n      swap2\n      sub\n      swap1\n      revert\n    tag_612:\n        /* \"@openzeppelin/contracts/security/Pausable.sol\":1945:2051  function _requirePaused() internal view virtual {... */\n      jump\t// out\n    tag_450:\n      mload(0x40)\n      dup1\n      0xa0\n      add\n      0x40\n      mstore\n      dup1\n      0x00\n      dup2\n      mstore\n      0x20\n      add\n      0x00\n      dup2\n      mstore\n      0x20\n      add\n      0x00\n      dup2\n      mstore\n      0x20\n      add\n      0x00\n      dup2\n      mstore\n      0x20\n      add\n      iszero(iszero(0x00))\n      dup2\n      mstore\n      pop\n      swap1\n      jump\t// out\n        /* \"#utility.yul\":7:84   */\n    tag_615:\n        /* \"#utility.yul\":44:51   */\n      0x00\n        /* \"#utility.yul\":73:78   */\n      dup2\n        /* \"#utility.yul\":62:78   */\n      swap1\n      pop\n        /* \"#utility.yul\":7:84   */\n      swap2\n      swap1\n      pop\n      jump\t// out\n        /* \"#utility.yul\":90:270   */\n    tag_616:\n        /* \"#utility.yul\":138:215   */\n      0x4e487b7100000000000000000000000000000000000000000000000000000000\n        /* \"#utility.yul\":135:136   */\n      0x00\n        /* \"#utility.yul\":128:216   */\n      mstore\n        /* \"#utility.yul\":235:239   */\n      0x11\n        /* \"#utility.yul\":232:233   */\n      0x04\n        /* \"#utility.yul\":225:240   */\n      mstore\n        /* \"#utility.yul\":259:263   */\n      0x24\n        /* \"#utility.yul\":256:257   */\n      0x00\n        /* \"#utility.yul\":249:264   */\n      revert\n        /* \"#utility.yul\":276:467   */\n    tag_58:\n        /* \"#utility.yul\":316:319   */\n      0x00\n        /* \"#utility.yul\":335:355   */\n      tag_688\n        /* \"#utility.yul\":353:354   */\n      dup3\n        /* \"#utility.yul\":335:355   */\n      tag_615\n      jump\t// in\n    tag_688:\n        /* \"#utility.yul\":330:355   */\n      swap2\n      pop\n        /* \"#utility.yul\":369:389   */\n      tag_689\n        /* \"#utility.yul\":387:388   */\n      dup4\n        /* \"#utility.yul\":369:389   */\n      tag_615\n      jump\t// in\n    tag_689:\n        /* \"#utility.yul\":364:389   */\n      swap3\n      pop\n        /* \"#utility.yul\":412:413   */\n      dup3\n        /* \"#utility.yul\":409:410   */\n      dup3\n        /* \"#utility.yul\":405:414   */\n      add\n        /* \"#utility.yul\":398:414   */\n      swap1\n      pop\n        /* \"#utility.yul\":433:436   */\n      dup1\n        /* \"#utility.yul\":430:431   */\n      dup3\n        /* \"#utility.yul\":427:437   */\n      gt\n        /* \"#utility.yul\":424:460   */\n      iszero\n      tag_690\n      jumpi\n        /* \"#utility.yul\":440:458   */\n      tag_691\n      tag_616\n      jump\t// in\n    tag_691:\n        /* \"#utility.yul\":424:460   */\n    tag_690:\n        /* \"#utility.yul\":276:467   */\n      swap3\n      swap2\n      pop\n      pop\n      jump\t// out\n        /* \"#utility.yul\":473:591   */\n    tag_617:\n        /* \"#utility.yul\":560:584   */\n      tag_693\n        /* \"#utility.yul\":578:583   */\n      dup2\n        /* \"#utility.yul\":560:584   */\n      tag_615\n      jump\t// in\n    tag_693:\n        /* \"#utility.yul\":555:558   */\n      dup3\n        /* \"#utility.yul\":548:585   */\n      mstore\n        /* \"#utility.yul\":473:591   */\n      pop\n      pop\n      jump\t// out\n        /* \"#utility.yul\":597:819   */\n    tag_60:\n        /* \"#utility.yul\":690:694   */\n      0x00\n        /* \"#utility.yul\":728:730   */\n      0x20\n        /* \"#utility.yul\":717:726   */\n      dup3\n        /* \"#utility.yul\":713:731   */\n      add\n        /* \"#utility.yul\":705:731   */\n      swap1\n      pop\n        /* \"#utility.yul\":741:812   */\n      tag_695\n        /* \"#utility.yul\":809:810   */\n      0x00\n        /* \"#utility.yul\":798:807   */\n      dup4\n        /* \"#utility.yul\":794:811   */\n      add\n        /* \"#utility.yul\":785:791   */\n      dup5\n        /* \"#utility.yul\":741:812   */\n      tag_617\n      jump\t// in\n    tag_695:\n        /* \"#utility.yul\":597:819   */\n      swap3\n      swap2\n      pop\n      pop\n      jump\t// out\n        /* \"#utility.yul\":825:994   */\n    tag_618:\n        /* \"#utility.yul\":909:920   */\n      0x00\n        /* \"#utility.yul\":943:949   */\n      dup3\n        /* \"#utility.yul\":938:941   */\n      dup3\n        /* \"#utility.yul\":931:950   */\n      mstore\n        /* \"#utility.yul\":983:987   */\n      0x20\n        /* \"#utility.yul\":978:981   */\n      dup3\n        /* \"#utility.yul\":974:988   */\n      add\n        /* \"#utility.yul\":959:988   */\n      swap1\n      pop\n        /* \"#utility.yul\":825:994   */\n      swap3\n      swap2\n      pop\n      pop\n      jump\t// out\n        /* \"#utility.yul\":1000:1168   */\n    tag_619:\n        /* \"#utility.yul\":1140:1160   */\n      0x46756e6374696f6e206e6f7420666f756e640000000000000000000000000000\n        /* \"#utility.yul\":1136:1137   */\n      0x00\n        /* \"#utility.yul\":1128:1134   */\n      dup3\n        /* \"#utility.yul\":1124:1138   */\n      add\n        /* \"#utility.yul\":1117:1161   */\n      mstore\n        /* \"#utility.yul\":1000:1168   */\n      pop\n      jump\t// out\n        /* \"#utility.yul\":1174:1540   */\n    tag_620:\n        /* \"#utility.yul\":1316:1319   */\n      0x00\n        /* \"#utility.yul\":1337:1404   */\n      tag_699\n        /* \"#utility.yul\":1401:1403   */\n      0x12\n        /* \"#utility.yul\":1396:1399   */\n      dup4\n        /* \"#utility.yul\":1337:1404   */\n      tag_618\n      jump\t// in\n    tag_699:\n        /* \"#utility.yul\":1330:1404   */\n      swap2\n      pop\n        /* \"#utility.yul\":1413:1506   */\n      tag_700\n        /* \"#utility.yul\":1502:1505   */\n      dup3\n        /* \"#utility.yul\":1413:1506   */\n      tag_619\n      jump\t// in\n    tag_700:\n        /* \"#utility.yul\":1531:1533   */\n      0x20\n        /* \"#utility.yul\":1526:1529   */\n      dup3\n        /* \"#utility.yul\":1522:1534   */\n      add\n        /* \"#utility.yul\":1515:1534   */\n      swap1\n      pop\n        /* \"#utility.yul\":1174:1540   */\n      swap2\n      swap1\n      pop\n      jump\t// out\n        /* \"#utility.yul\":1546:1965   */\n    tag_64:\n        /* \"#utility.yul\":1712:1716   */\n      0x00\n        /* \"#utility.yul\":1750:1752   */\n      0x20\n        /* \"#utility.yul\":1739:1748   */\n      dup3\n        /* \"#utility.yul\":1735:1753   */\n      add\n        /* \"#utility.yul\":1727:1753   */\n      swap1\n      pop\n        /* \"#utility.yul\":1799:1808   */\n      dup2\n        /* \"#utility.yul\":1793:1797   */\n      dup2\n        /* \"#utility.yul\":1789:1809   */\n      sub\n        /* \"#utility.yul\":1785:1786   */\n      0x00\n        /* \"#utility.yul\":1774:1783   */\n      dup4\n        /* \"#utility.yul\":1770:1787   */\n      add\n        /* \"#utility.yul\":1763:1810   */\n      mstore\n        /* \"#utility.yul\":1827:1958   */\n      tag_702\n        /* \"#utility.yul\":1953:1957   */\n      dup2\n        /* \"#utility.yul\":1827:1958   */\n      tag_620\n      jump\t// in\n    tag_702:\n        /* \"#utility.yul\":1819:1958   */\n      swap1\n      pop\n        /* \"#utility.yul\":1546:1965   */\n      swap2\n      swap1\n      pop\n      jump\t// out\n        /* \"#utility.yul\":2052:2169   */\n    tag_622:\n        /* \"#utility.yul\":2161:2162   */\n      0x00\n        /* \"#utility.yul\":2158:2159   */\n      0x00\n        /* \"#utility.yul\":2151:2163   */\n      revert\n        /* \"#utility.yul\":2298:2424   */\n    tag_624:\n        /* \"#utility.yul\":2335:2342   */\n      0x00\n        /* \"#utility.yul\":2375:2417   */\n      0xffffffffffffffffffffffffffffffffffffffff\n        /* \"#utility.yul\":2368:2373   */\n      dup3\n        /* \"#utility.yul\":2364:2418   */\n      and\n        /* \"#utility.yul\":2353:2418   */\n      swap1\n      pop\n        /* \"#utility.yul\":2298:2424   */\n      swap2\n      swap1\n      pop\n      jump\t// out\n        /* \"#utility.yul\":2430:2526   */\n    tag_625:\n        /* \"#utility.yul\":2467:2474   */\n      0x00\n        /* \"#utility.yul\":2496:2520   */\n      tag_708\n        /* \"#utility.yul\":2514:2519   */\n      dup3\n        /* \"#utility.yul\":2496:2520   */\n      tag_624\n      jump\t// in\n    tag_708:\n        /* \"#utility.yul\":2485:2520   */\n      swap1\n      pop\n        /* \"#utility.yul\":2430:2526   */\n      swap2\n      swap1\n      pop\n      jump\t// out\n        /* \"#utility.yul\":2532:2654   */\n    tag_626:\n        /* \"#utility.yul\":2605:2629   */\n      tag_710\n        /* \"#utility.yul\":2623:2628   */\n      dup2\n        /* \"#utility.yul\":2605:2629   */\n      tag_625\n      jump\t// in\n    tag_710:\n        /* \"#utility.yul\":2598:2603   */\n      dup2\n        /* \"#utility.yul\":2595:2630   */\n      eq\n        /* \"#utility.yul\":2585:2648   */\n      tag_711\n      jumpi\n        /* \"#utility.yul\":2644:2645   */\n      0x00\n        /* \"#utility.yul\":2641:2642   */\n      0x00\n        /* \"#utility.yul\":2634:2646   */\n      revert\n        /* \"#utility.yul\":2585:2648   */\n    tag_711:\n        /* \"#utility.yul\":2532:2654   */\n      pop\n      jump\t// out\n        /* \"#utility.yul\":2660:2799   */\n    tag_627:\n        /* \"#utility.yul\":2706:2711   */\n      0x00\n        /* \"#utility.yul\":2744:2750   */\n      dup2\n        /* \"#utility.yul\":2731:2751   */\n      calldataload\n        /* \"#utility.yul\":2722:2751   */\n      swap1\n      pop\n        /* \"#utility.yul\":2760:2793   */\n      tag_713\n        /* \"#utility.yul\":2787:2792   */\n      dup2\n        /* \"#utility.yul\":2760:2793   */\n      tag_626\n      jump\t// in\n    tag_713:\n        /* \"#utility.yul\":2660:2799   */\n      swap3\n      swap2\n      pop\n      pop\n      jump\t// out\n        /* \"#utility.yul\":2805:2927   */\n    tag_628:\n        /* \"#utility.yul\":2878:2902   */\n      tag_715\n        /* \"#utility.yul\":2896:2901   */\n      dup2\n        /* \"#utility.yul\":2878:2902   */\n      tag_615\n      jump\t// in\n    tag_715:\n        /* \"#utility.yul\":2871:2876   */\n      dup2\n        /* \"#utility.yul\":2868:2903   */\n      eq\n        /* \"#utility.yul\":2858:2921   */\n      tag_716\n      jumpi\n        /* \"#utility.yul\":2917:2918   */\n      0x00\n        /* \"#utility.yul\":2914:2915   */\n      0x00\n        /* \"#utility.yul\":2907:2919   */\n      revert\n        /* \"#utility.yul\":2858:2921   */\n    tag_716:\n        /* \"#utility.yul\":2805:2927   */\n      pop\n      jump\t// out\n        /* \"#utility.yul\":2933:3072   */\n    tag_629:\n        /* \"#utility.yul\":2979:2984   */\n      0x00\n        /* \"#utility.yul\":3017:3023   */\n      dup2\n        /* \"#utility.yul\":3004:3024   */\n      calldataload\n        /* \"#utility.yul\":2995:3024   */\n      swap1\n      pop\n        /* \"#utility.yul\":3033:3066   */\n      tag_718\n        /* \"#utility.yul\":3060:3065   */\n      dup2\n        /* \"#utility.yul\":3033:3066   */\n      tag_628\n      jump\t// in\n    tag_718:\n        /* \"#utility.yul\":2933:3072   */\n      swap3\n      swap2\n      pop\n      pop\n      jump\t// out\n        /* \"#utility.yul\":3078:3552   */\n    tag_68:\n        /* \"#utility.yul\":3146:3152   */\n      0x00\n        /* \"#utility.yul\":3154:3160   */\n      0x00\n        /* \"#utility.yul\":3203:3205   */\n      0x40\n        /* \"#utility.yul\":3191:3200   */\n      dup4\n        /* \"#utility.yul\":3182:3189   */\n      dup6\n        /* \"#utility.yul\":3178:3201   */\n      sub\n        /* \"#utility.yul\":3174:3206   */\n      slt\n        /* \"#utility.yul\":3171:3290   */\n      iszero\n      tag_720\n      jumpi\n        /* \"#utility.yul\":3209:3288   */\n      tag_721\n      tag_622\n      jump\t// in\n    tag_721:\n        /* \"#utility.yul\":3171:3290   */\n    tag_720:\n        /* \"#utility.yul\":3329:3330   */\n      0x00\n        /* \"#utility.yul\":3354:3407   */\n      tag_722\n        /* \"#utility.yul\":3399:3406   */\n      dup6\n        /* \"#utility.yul\":3390:3396   */\n      dup3\n        /* \"#utility.yul\":3379:3388   */\n      dup7\n        /* \"#utility.yul\":3375:3397   */\n      add\n        /* \"#utility.yul\":3354:3407   */\n      tag_627\n      jump\t// in\n    tag_722:\n        /* \"#utility.yul\":3344:3407   */\n      swap3\n      pop\n        /* \"#utility.yul\":3300:3417   */\n      pop\n        /* \"#utility.yul\":3456:3458   */\n      0x20\n        /* \"#utility.yul\":3482:3535   */\n      tag_723\n        /* \"#utility.yul\":3527:3534   */\n      dup6\n        /* \"#utility.yul\":3518:3524   */\n      dup3\n        /* \"#utility.yul\":3507:3516   */\n      dup7\n        /* \"#utility.yul\":3503:3525   */\n      add\n        /* \"#utility.yul\":3482:3535   */\n      tag_629\n      jump\t// in\n    tag_723:\n        /* \"#utility.yul\":3472:3535   */\n      swap2\n      pop\n        /* \"#utility.yul\":3427:3545   */\n      pop\n        /* \"#utility.yul\":3078:3552   */\n      swap3\n      pop\n      swap3\n      swap1\n      pop\n      jump\t// out\n        /* \"#utility.yul\":3558:3887   */\n    tag_74:\n        /* \"#utility.yul\":3617:3623   */\n      0x00\n        /* \"#utility.yul\":3666:3668   */\n      0x20\n        /* \"#utility.yul\":3654:3663   */\n      dup3\n        /* \"#utility.yul\":3645:3652   */\n      dup5\n        /* \"#utility.yul\":3641:3664   */\n      sub\n        /* \"#utility.yul\":3637:3669   */\n      slt\n        /* \"#utility.yul\":3634:3753   */\n      iszero\n      tag_725\n      jumpi\n        /* \"#utility.yul\":3672:3751   */\n      tag_726\n      tag_622\n      jump\t// in\n    tag_726:\n        /* \"#utility.yul\":3634:3753   */\n    tag_725:\n        /* \"#utility.yul\":3792:3793   */\n      0x00\n        /* \"#utility.yul\":3817:3870   */\n      tag_727\n        /* \"#utility.yul\":3862:3869   */\n      dup5\n        /* \"#utility.yul\":3853:3859   */\n      dup3\n        /* \"#utility.yul\":3842:3851   */\n      dup6\n        /* \"#utility.yul\":3838:3860   */\n      add\n        /* \"#utility.yul\":3817:3870   */\n      tag_629\n      jump\t// in\n    tag_727:\n        /* \"#utility.yul\":3807:3870   */\n      swap2\n      pop\n        /* \"#utility.yul\":3763:3880   */\n      pop\n        /* \"#utility.yul\":3558:3887   */\n      swap3\n      swap2\n      pop\n      pop\n      jump\t// out\n        /* \"#utility.yul\":3893:4446   */\n    tag_81:\n        /* \"#utility.yul\":4070:4074   */\n      0x00\n        /* \"#utility.yul\":4108:4111   */\n      0x80\n        /* \"#utility.yul\":4097:4106   */\n      dup3\n        /* \"#utility.yul\":4093:4112   */\n      add\n        /* \"#utility.yul\":4085:4112   */\n      swap1\n      pop\n        /* \"#utility.yul\":4122:4193   */\n      tag_729\n        /* \"#utility.yul\":4190:4191   */\n      0x00\n        /* \"#utility.yul\":4179:4188   */\n      dup4\n        /* \"#utility.yul\":4175:4192   */\n      add\n        /* \"#utility.yul\":4166:4172   */\n      dup8\n        /* \"#utility.yul\":4122:4193   */\n      tag_617\n      jump\t// in\n    tag_729:\n        /* \"#utility.yul\":4203:4275   */\n      tag_730\n        /* \"#utility.yul\":4271:4273   */\n      0x20\n        /* \"#utility.yul\":4260:4269   */\n      dup4\n        /* \"#utility.yul\":4256:4274   */\n      add\n        /* \"#utility.yul\":4247:4253   */\n      dup7\n        /* \"#utility.yul\":4203:4275   */\n      tag_617\n      jump\t// in\n    tag_730:\n        /* \"#utility.yul\":4285:4357   */\n      tag_731\n        /* \"#utility.yul\":4353:4355   */\n      0x40\n        /* \"#utility.yul\":4342:4351   */\n      dup4\n        /* \"#utility.yul\":4338:4356   */\n      add\n        /* \"#utility.yul\":4329:4335   */\n      dup6\n        /* \"#utility.yul\":4285:4357   */\n      tag_617\n      jump\t// in\n    tag_731:\n        /* \"#utility.yul\":4367:4439   */\n      tag_732\n        /* \"#utility.yul\":4435:4437   */\n      0x60\n        /* \"#utility.yul\":4424:4433   */\n      dup4\n        /* \"#utility.yul\":4420:4438   */\n      add\n        /* \"#utility.yul\":4411:4417   */\n      dup5\n        /* \"#utility.yul\":4367:4439   */\n      tag_617\n      jump\t// in\n    tag_732:\n        /* \"#utility.yul\":3893:4446   */\n      swap6\n      swap5\n      pop\n      pop\n      pop\n      pop\n      pop\n      jump\t// out\n        /* \"#utility.yul\":4452:4781   */\n    tag_93:\n        /* \"#utility.yul\":4511:4517   */\n      0x00\n        /* \"#utility.yul\":4560:4562   */\n      0x20\n        /* \"#utility.yul\":4548:4557   */\n      dup3\n        /* \"#utility.yul\":4539:4546   */\n      dup5\n        /* \"#utility.yul\":4535:4558   */\n      sub\n        /* \"#utility.yul\":4531:4563   */\n      slt\n        /* \"#utility.yul\":4528:4647   */\n      iszero\n      tag_734\n      jumpi\n        /* \"#utility.yul\":4566:4645   */\n      tag_735\n      tag_622\n      jump\t// in\n    tag_735:\n        /* \"#utility.yul\":4528:4647   */\n    tag_734:\n        /* \"#utility.yul\":4686:4687   */\n      0x00\n        /* \"#utility.yul\":4711:4764   */\n      tag_736\n        /* \"#utility.yul\":4756:4763   */\n      dup5\n        /* \"#utility.yul\":4747:4753   */\n      dup3\n        /* \"#utility.yul\":4736:4745   */\n      dup6\n        /* \"#utility.yul\":4732:4754   */\n      add\n        /* \"#utility.yul\":4711:4764   */\n      tag_627\n      jump\t// in\n    tag_736:\n        /* \"#utility.yul\":4701:4764   */\n      swap2\n      pop\n        /* \"#utility.yul\":4657:4774   */\n      pop\n        /* \"#utility.yul\":4452:4781   */\n      swap3\n      swap2\n      pop\n      pop\n      jump\t// out\n        /* \"#utility.yul\":4787:5406   */\n    tag_112:\n        /* \"#utility.yul\":4864:4870   */\n      0x00\n        /* \"#utility.yul\":4872:4878   */\n      0x00\n        /* \"#utility.yul\":4880:4886   */\n      0x00\n        /* \"#utility.yul\":4929:4931   */\n      0x60\n        /* \"#utility.yul\":4917:4926   */\n      dup5\n        /* \"#utility.yul\":4908:4915   */\n      dup7\n        /* \"#utility.yul\":4904:4927   */\n      sub\n        /* \"#utility.yul\":4900:4932   */\n      slt\n        /* \"#utility.yul\":4897:5016   */\n      iszero\n      tag_738\n      jumpi\n        /* \"#utility.yul\":4935:5014   */\n      tag_739\n      tag_622\n      jump\t// in\n    tag_739:\n        /* \"#utility.yul\":4897:5016   */\n    tag_738:\n        /* \"#utility.yul\":5055:5056   */\n      0x00\n        /* \"#utility.yul\":5080:5133   */\n      tag_740\n        /* \"#utility.yul\":5125:5132   */\n      dup7\n        /* \"#utility.yul\":5116:5122   */\n      dup3\n        /* \"#utility.yul\":5105:5114   */\n      dup8\n        /* \"#utility.yul\":5101:5123   */\n      add\n        /* \"#utility.yul\":5080:5133   */\n      tag_627\n      jump\t// in\n    tag_740:\n        /* \"#utility.yul\":5070:5133   */\n      swap4\n      pop\n        /* \"#utility.yul\":5026:5143   */\n      pop\n        /* \"#utility.yul\":5182:5184   */\n      0x20\n        /* \"#utility.yul\":5208:5261   */\n      tag_741\n        /* \"#utility.yul\":5253:5260   */\n      dup7\n        /* \"#utility.yul\":5244:5250   */\n      dup3\n        /* \"#utility.yul\":5233:5242   */\n      dup8\n        /* \"#utility.yul\":5229:5251   */\n      add\n        /* \"#utility.yul\":5208:5261   */\n      tag_629\n      jump\t// in\n    tag_741:\n        /* \"#utility.yul\":5198:5261   */\n      swap3\n      pop\n        /* \"#utility.yul\":5153:5271   */\n      pop\n        /* \"#utility.yul\":5310:5312   */\n      0x40\n        /* \"#utility.yul\":5336:5389   */\n      tag_742\n        /* \"#utility.yul\":5381:5388   */\n      dup7\n        /* \"#utility.yul\":5372:5378   */\n      dup3\n        /* \"#utility.yul\":5361:5370   */\n      dup8\n        /* \"#utility.yul\":5357:5379   */\n      add\n        /* \"#utility.yul\":5336:5389   */\n      tag_627\n      jump\t// in\n    tag_742:\n        /* \"#utility.yul\":5326:5389   */\n      swap2\n      pop\n        /* \"#utility.yul\":5281:5399   */\n      pop\n        /* \"#utility.yul\":4787:5406   */\n      swap3\n      pop\n      swap3\n      pop\n      swap3\n      jump\t// out\n        /* \"#utility.yul\":5412:5502   */\n    tag_630:\n        /* \"#utility.yul\":5446:5453   */\n      0x00\n        /* \"#utility.yul\":5489:5494   */\n      dup2\n        /* \"#utility.yul\":5482:5495   */\n      iszero\n        /* \"#utility.yul\":5475:5496   */\n      iszero\n        /* \"#utility.yul\":5464:5496   */\n      swap1\n      pop\n        /* \"#utility.yul\":5412:5502   */\n      swap2\n      swap1\n      pop\n      jump\t// out\n        /* \"#utility.yul\":5508:5624   */\n    tag_631:\n        /* \"#utility.yul\":5578:5599   */\n      tag_745\n        /* \"#utility.yul\":5593:5598   */\n      dup2\n        /* \"#utility.yul\":5578:5599   */\n      tag_630\n      jump\t// in\n    tag_745:\n        /* \"#utility.yul\":5571:5576   */\n      dup2\n        /* \"#utility.yul\":5568:5600   */\n      eq\n        /* \"#utility.yul\":5558:5618   */\n      tag_746\n      jumpi\n        /* \"#utility.yul\":5614:5615   */\n      0x00\n        /* \"#utility.yul\":5611:5612   */\n      0x00\n        /* \"#utility.yul\":5604:5616   */\n      revert\n        /* \"#utility.yul\":5558:5618   */\n    tag_746:\n        /* \"#utility.yul\":5508:5624   */\n      pop\n      jump\t// out\n        /* \"#utility.yul\":5630:5763   */\n    tag_632:\n        /* \"#utility.yul\":5673:5678   */\n      0x00\n        /* \"#utility.yul\":5711:5717   */\n      dup2\n        /* \"#utility.yul\":5698:5718   */\n      calldataload\n        /* \"#utility.yul\":5689:5718   */\n      swap1\n      pop\n        /* \"#utility.yul\":5727:5757   */\n      tag_748\n        /* \"#utility.yul\":5751:5756   */\n      dup2\n        /* \"#utility.yul\":5727:5757   */\n      tag_631\n      jump\t// in\n    tag_748:\n        /* \"#utility.yul\":5630:5763   */\n      swap3\n      swap2\n      pop\n      pop\n      jump\t// out\n        /* \"#utility.yul\":5769:6237   */\n    tag_132:\n        /* \"#utility.yul\":5834:5840   */\n      0x00\n        /* \"#utility.yul\":5842:5848   */\n      0x00\n        /* \"#utility.yul\":5891:5893   */\n      0x40\n        /* \"#utility.yul\":5879:5888   */\n      dup4\n        /* \"#utility.yul\":5870:5877   */\n      dup6\n        /* \"#utility.yul\":5866:5889   */\n      sub\n        /* \"#utility.yul\":5862:5894   */\n      slt\n        /* \"#utility.yul\":5859:5978   */\n      iszero\n      tag_750\n      jumpi\n        /* \"#utility.yul\":5897:5976   */\n      tag_751\n      tag_622\n      jump\t// in\n    tag_751:\n        /* \"#utility.yul\":5859:5978   */\n    tag_750:\n        /* \"#utility.yul\":6017:6018   */\n      0x00\n        /* \"#utility.yul\":6042:6095   */\n      tag_752\n        /* \"#utility.yul\":6087:6094   */\n      dup6\n        /* \"#utility.yul\":6078:6084   */\n      dup3\n        /* \"#utility.yul\":6067:6076   */\n      dup7\n        /* \"#utility.yul\":6063:6085   */\n      add\n        /* \"#utility.yul\":6042:6095   */\n      tag_627\n      jump\t// in\n    tag_752:\n        /* \"#utility.yul\":6032:6095   */\n      swap3\n      pop\n        /* \"#utility.yul\":5988:6105   */\n      pop\n        /* \"#utility.yul\":6144:6146   */\n      0x20\n        /* \"#utility.yul\":6170:6220   */\n      tag_753\n        /* \"#utility.yul\":6212:6219   */\n      dup6\n        /* \"#utility.yul\":6203:6209   */\n      dup3\n        /* \"#utility.yul\":6192:6201   */\n      dup7\n        /* \"#utility.yul\":6188:6210   */\n      add\n        /* \"#utility.yul\":6170:6220   */\n      tag_632\n      jump\t// in\n    tag_753:\n        /* \"#utility.yul\":6160:6220   */\n      swap2\n      pop\n        /* \"#utility.yul\":6115:6230   */\n      pop\n        /* \"#utility.yul\":5769:6237   */\n      swap3\n      pop\n      swap3\n      swap1\n      pop\n      jump\t// out\n        /* \"#utility.yul\":6243:6352   */\n    tag_633:\n        /* \"#utility.yul\":6324:6345   */\n      tag_755\n        /* \"#utility.yul\":6339:6344   */\n      dup2\n        /* \"#utility.yul\":6324:6345   */\n      tag_630\n      jump\t// in\n    tag_755:\n        /* \"#utility.yul\":6319:6322   */\n      dup3\n        /* \"#utility.yul\":6312:6346   */\n      mstore\n        /* \"#utility.yul\":6243:6352   */\n      pop\n      pop\n      jump\t// out\n        /* \"#utility.yul\":6358:6568   */\n    tag_145:\n        /* \"#utility.yul\":6445:6449   */\n      0x00\n        /* \"#utility.yul\":6483:6485   */\n      0x20\n        /* \"#utility.yul\":6472:6481   */\n      dup3\n        /* \"#utility.yul\":6468:6486   */\n      add\n        /* \"#utility.yul\":6460:6486   */\n      swap1\n      pop\n        /* \"#utility.yul\":6496:6561   */\n      tag_757\n        /* \"#utility.yul\":6558:6559   */\n      0x00\n        /* \"#utility.yul\":6547:6556   */\n      dup4\n        /* \"#utility.yul\":6543:6560   */\n      add\n        /* \"#utility.yul\":6534:6540   */\n      dup5\n        /* \"#utility.yul\":6496:6561   */\n      tag_633\n      jump\t// in\n    tag_757:\n        /* \"#utility.yul\":6358:6568   */\n      swap3\n      swap2\n      pop\n      pop\n      jump\t// out\n        /* \"#utility.yul\":6574:6692   */\n    tag_634:\n        /* \"#utility.yul\":6661:6685   */\n      tag_759\n        /* \"#utility.yul\":6679:6684   */\n      dup2\n        /* \"#utility.yul\":6661:6685   */\n      tag_625\n      jump\t// in\n    tag_759:\n        /* \"#utility.yul\":6656:6659   */\n      dup3\n        /* \"#utility.yul\":6649:6686   */\n      mstore\n        /* \"#utility.yul\":6574:6692   */\n      pop\n      pop\n      jump\t// out\n        /* \"#utility.yul\":6698:6920   */\n    tag_177:\n        /* \"#utility.yul\":6791:6795   */\n      0x00\n        /* \"#utility.yul\":6829:6831   */\n      0x20\n        /* \"#utility.yul\":6818:6827   */\n      dup3\n        /* \"#utility.yul\":6814:6832   */\n      add\n        /* \"#utility.yul\":6806:6832   */\n      swap1\n      pop\n        /* \"#utility.yul\":6842:6913   */\n      tag_761\n        /* \"#utility.yul\":6910:6911   */\n      0x00\n        /* \"#utility.yul\":6899:6908   */\n      dup4\n        /* \"#utility.yul\":6895:6912   */\n      add\n        /* \"#utility.yul\":6886:6892   */\n      dup5\n        /* \"#utility.yul\":6842:6913   */\n      tag_634\n      jump\t// in\n    tag_761:\n        /* \"#utility.yul\":6698:6920   */\n      swap3\n      swap2\n      pop\n      pop\n      jump\t// out\n        /* \"#utility.yul\":6926:7578   */\n    tag_200:\n        /* \"#utility.yul\":7125:7129   */\n      0x00\n        /* \"#utility.yul\":7163:7166   */\n      0xa0\n        /* \"#utility.yul\":7152:7161   */\n      dup3\n        /* \"#utility.yul\":7148:7167   */\n      add\n        /* \"#utility.yul\":7140:7167   */\n      swap1\n      pop\n        /* \"#utility.yul\":7177:7248   */\n      tag_763\n        /* \"#utility.yul\":7245:7246   */\n      0x00\n        /* \"#utility.yul\":7234:7243   */\n      dup4\n        /* \"#utility.yul\":7230:7247   */\n      add\n        /* \"#utility.yul\":7221:7227   */\n      dup9\n        /* \"#utility.yul\":7177:7248   */\n      tag_617\n      jump\t// in\n    tag_763:\n        /* \"#utility.yul\":7258:7330   */\n      tag_764\n        /* \"#utility.yul\":7326:7328   */\n      0x20\n        /* \"#utility.yul\":7315:7324   */\n      dup4\n        /* \"#utility.yul\":7311:7329   */\n      add\n        /* \"#utility.yul\":7302:7308   */\n      dup8\n        /* \"#utility.yul\":7258:7330   */\n      tag_617\n      jump\t// in\n    tag_764:\n        /* \"#utility.yul\":7340:7412   */\n      tag_765\n        /* \"#utility.yul\":7408:7410   */\n      0x40\n        /* \"#utility.yul\":7397:7406   */\n      dup4\n        /* \"#utility.yul\":7393:7411   */\n      add\n        /* \"#utility.yul\":7384:7390   */\n      dup7\n        /* \"#utility.yul\":7340:7412   */\n      tag_617\n      jump\t// in\n    tag_765:\n        /* \"#utility.yul\":7422:7494   */\n      tag_766\n        /* \"#utility.yul\":7490:7492   */\n      0x60\n        /* \"#utility.yul\":7479:7488   */\n      dup4\n        /* \"#utility.yul\":7475:7493   */\n      add\n        /* \"#utility.yul\":7466:7472   */\n      dup6\n        /* \"#utility.yul\":7422:7494   */\n      tag_617\n      jump\t// in\n    tag_766:\n        /* \"#utility.yul\":7504:7571   */\n      tag_767\n        /* \"#utility.yul\":7566:7569   */\n      0x80\n        /* \"#utility.yul\":7555:7564   */\n      dup4\n        /* \"#utility.yul\":7551:7570   */\n      add\n        /* \"#utility.yul\":7542:7548   */\n      dup5\n        /* \"#utility.yul\":7504:7571   */\n      tag_633\n      jump\t// in\n    tag_767:\n        /* \"#utility.yul\":6926:7578   */\n      swap7\n      swap6\n      pop\n      pop\n      pop\n      pop\n      pop\n      pop\n      jump\t// out\n        /* \"#utility.yul\":7584:7692   */\n    tag_635:\n        /* \"#utility.yul\":7661:7685   */\n      tag_769\n        /* \"#utility.yul\":7679:7684   */\n      dup2\n        /* \"#utility.yul\":7661:7685   */\n      tag_615\n      jump\t// in\n    tag_769:\n        /* \"#utility.yul\":7656:7659   */\n      dup3\n        /* \"#utility.yul\":7649:7686   */\n      mstore\n        /* \"#utility.yul\":7584:7692   */\n      pop\n      pop\n      jump\t// out\n        /* \"#utility.yul\":7698:7797   */\n    tag_636:\n        /* \"#utility.yul\":7769:7790   */\n      tag_771\n        /* \"#utility.yul\":7784:7789   */\n      dup2\n        /* \"#utility.yul\":7769:7790   */\n      tag_630\n      jump\t// in\n    tag_771:\n        /* \"#utility.yul\":7764:7767   */\n      dup3\n        /* \"#utility.yul\":7757:7791   */\n      mstore\n        /* \"#utility.yul\":7698:7797   */\n      pop\n      pop\n      jump\t// out\n        /* \"#utility.yul\":7897:8950   */\n    tag_637:\n        /* \"#utility.yul\":8046:8050   */\n      0xa0\n        /* \"#utility.yul\":8041:8044   */\n      dup3\n        /* \"#utility.yul\":8037:8051   */\n      add\n        /* \"#utility.yul\":8138:8142   */\n      0x00\n        /* \"#utility.yul\":8131:8136   */\n      dup3\n        /* \"#utility.yul\":8127:8143   */\n      add\n        /* \"#utility.yul\":8121:8144   */\n      mload\n        /* \"#utility.yul\":8157:8220   */\n      tag_773\n        /* \"#utility.yul\":8214:8218   */\n      0x00\n        /* \"#utility.yul\":8209:8212   */\n      dup6\n        /* \"#utility.yul\":8205:8219   */\n      add\n        /* \"#utility.yul\":8191:8203   */\n      dup3\n        /* \"#utility.yul\":8157:8220   */\n      tag_635\n      jump\t// in\n    tag_773:\n        /* \"#utility.yul\":8061:8230   */\n      pop\n        /* \"#utility.yul\":8320:8324   */\n      0x20\n        /* \"#utility.yul\":8313:8318   */\n      dup3\n        /* \"#utility.yul\":8309:8325   */\n      add\n        /* \"#utility.yul\":8303:8326   */\n      mload\n        /* \"#utility.yul\":8339:8402   */\n      tag_774\n        /* \"#utility.yul\":8396:8400   */\n      0x20\n        /* \"#utility.yul\":8391:8394   */\n      dup6\n        /* \"#utility.yul\":8387:8401   */\n      add\n        /* \"#utility.yul\":8373:8385   */\n      dup3\n        /* \"#utility.yul\":8339:8402   */\n      tag_635\n      jump\t// in\n    tag_774:\n        /* \"#utility.yul\":8240:8412   */\n      pop\n        /* \"#utility.yul\":8504:8508   */\n      0x40\n        /* \"#utility.yul\":8497:8502   */\n      dup3\n        /* \"#utility.yul\":8493:8509   */\n      add\n        /* \"#utility.yul\":8487:8510   */\n      mload\n        /* \"#utility.yul\":8523:8586   */\n      tag_775\n        /* \"#utility.yul\":8580:8584   */\n      0x40\n        /* \"#utility.yul\":8575:8578   */\n      dup6\n        /* \"#utility.yul\":8571:8585   */\n      add\n        /* \"#utility.yul\":8557:8569   */\n      dup3\n        /* \"#utility.yul\":8523:8586   */\n      tag_635\n      jump\t// in\n    tag_775:\n        /* \"#utility.yul\":8422:8596   */\n      pop\n        /* \"#utility.yul\":8679:8683   */\n      0x60\n        /* \"#utility.yul\":8672:8677   */\n      dup3\n        /* \"#utility.yul\":8668:8684   */\n      add\n        /* \"#utility.yul\":8662:8685   */\n      mload\n        /* \"#utility.yul\":8698:8761   */\n      tag_776\n        /* \"#utility.yul\":8755:8759   */\n      0x60\n        /* \"#utility.yul\":8750:8753   */\n      dup6\n        /* \"#utility.yul\":8746:8760   */\n      add\n        /* \"#utility.yul\":8732:8744   */\n      dup3\n        /* \"#utility.yul\":8698:8761   */\n      tag_635\n      jump\t// in\n    tag_776:\n        /* \"#utility.yul\":8606:8771   */\n      pop\n        /* \"#utility.yul\":8857:8861   */\n      0x80\n        /* \"#utility.yul\":8850:8855   */\n      dup3\n        /* \"#utility.yul\":8846:8862   */\n      add\n        /* \"#utility.yul\":8840:8863   */\n      mload\n        /* \"#utility.yul\":8876:8933   */\n      tag_777\n        /* \"#utility.yul\":8927:8931   */\n      0x80\n        /* \"#utility.yul\":8922:8925   */\n      dup6\n        /* \"#utility.yul\":8918:8932   */\n      add\n        /* \"#utility.yul\":8904:8916   */\n      dup3\n        /* \"#utility.yul\":8876:8933   */\n      tag_636\n      jump\t// in\n    tag_777:\n        /* \"#utility.yul\":8781:8943   */\n      pop\n        /* \"#utility.yul\":8015:8950   */\n      pop\n        /* \"#utility.yul\":7897:8950   */\n      pop\n      pop\n      jump\t// out\n        /* \"#utility.yul\":8956:9283   */\n    tag_217:\n        /* \"#utility.yul\":9101:9105   */\n      0x00\n        /* \"#utility.yul\":9139:9142   */\n      0xa0\n        /* \"#utility.yul\":9128:9137   */\n      dup3\n        /* \"#utility.yul\":9124:9143   */\n      add\n        /* \"#utility.yul\":9116:9143   */\n      swap1\n      pop\n        /* \"#utility.yul\":9153:9276   */\n      tag_779\n        /* \"#utility.yul\":9273:9274   */\n      0x00\n        /* \"#utility.yul\":9262:9271   */\n      dup4\n        /* \"#utility.yul\":9258:9275   */\n      add\n        /* \"#utility.yul\":9249:9255   */\n      dup5\n        /* \"#utility.yul\":9153:9276   */\n      tag_637\n      jump\t// in\n    tag_779:\n        /* \"#utility.yul\":8956:9283   */\n      swap3\n      swap2\n      pop\n      pop\n      jump\t// out\n        /* \"#utility.yul\":9289:9763   */\n    tag_221:\n        /* \"#utility.yul\":9357:9363   */\n      0x00\n        /* \"#utility.yul\":9365:9371   */\n      0x00\n        /* \"#utility.yul\":9414:9416   */\n      0x40\n        /* \"#utility.yul\":9402:9411   */\n      dup4\n        /* \"#utility.yul\":9393:9400   */\n      dup6\n        /* \"#utility.yul\":9389:9412   */\n      sub\n        /* \"#utility.yul\":9385:9417   */\n      slt\n        /* \"#utility.yul\":9382:9501   */\n      iszero\n      tag_781\n      jumpi\n        /* \"#utility.yul\":9420:9499   */\n      tag_782\n      tag_622\n      jump\t// in\n    tag_782:\n        /* \"#utility.yul\":9382:9501   */\n    tag_781:\n        /* \"#utility.yul\":9540:9541   */\n      0x00\n        /* \"#utility.yul\":9565:9618   */\n      tag_783\n        /* \"#utility.yul\":9610:9617   */\n      dup6\n        /* \"#utility.yul\":9601:9607   */\n      dup3\n        /* \"#utility.yul\":9590:9599   */\n      dup7\n        /* \"#utility.yul\":9586:9608   */\n      add\n        /* \"#utility.yul\":9565:9618   */\n      tag_629\n      jump\t// in\n    tag_783:\n        /* \"#utility.yul\":9555:9618   */\n      swap3\n      pop\n        /* \"#utility.yul\":9511:9628   */\n      pop\n        /* \"#utility.yul\":9667:9669   */\n      0x20\n        /* \"#utility.yul\":9693:9746   */\n      tag_784\n        /* \"#utility.yul\":9738:9745   */\n      dup6\n        /* \"#utility.yul\":9729:9735   */\n      dup3\n        /* \"#utility.yul\":9718:9727   */\n      dup7\n        /* \"#utility.yul\":9714:9736   */\n      add\n        /* \"#utility.yul\":9693:9746   */\n      tag_629\n      jump\t// in\n    tag_784:\n        /* \"#utility.yul\":9683:9746   */\n      swap2\n      pop\n        /* \"#utility.yul\":9638:9756   */\n      pop\n        /* \"#utility.yul\":9289:9763   */\n      swap3\n      pop\n      swap3\n      swap1\n      pop\n      jump\t// out\n        /* \"#utility.yul\":9769:10433   */\n    tag_232:\n        /* \"#utility.yul\":9974:9978   */\n      0x00\n        /* \"#utility.yul\":10012:10015   */\n      0xa0\n        /* \"#utility.yul\":10001:10010   */\n      dup3\n        /* \"#utility.yul\":9997:10016   */\n      add\n        /* \"#utility.yul\":9989:10016   */\n      swap1\n      pop\n        /* \"#utility.yul\":10026:10097   */\n      tag_786\n        /* \"#utility.yul\":10094:10095   */\n      0x00\n        /* \"#utility.yul\":10083:10092   */\n      dup4\n        /* \"#utility.yul\":10079:10096   */\n      add\n        /* \"#utility.yul\":10070:10076   */\n      dup9\n        /* \"#utility.yul\":10026:10097   */\n      tag_617\n      jump\t// in\n    tag_786:\n        /* \"#utility.yul\":10107:10179   */\n      tag_787\n        /* \"#utility.yul\":10175:10177   */\n      0x20\n        /* \"#utility.yul\":10164:10173   */\n      dup4\n        /* \"#utility.yul\":10160:10178   */\n      add\n        /* \"#utility.yul\":10151:10157   */\n      dup8\n        /* \"#utility.yul\":10107:10179   */\n      tag_617\n      jump\t// in\n    tag_787:\n        /* \"#utility.yul\":10189:10261   */\n      tag_788\n        /* \"#utility.yul\":10257:10259   */\n      0x40\n        /* \"#utility.yul\":10246:10255   */\n      dup4\n        /* \"#utility.yul\":10242:10260   */\n      add\n        /* \"#utility.yul\":10233:10239   */\n      dup7\n        /* \"#utility.yul\":10189:10261   */\n      tag_617\n      jump\t// in\n    tag_788:\n        /* \"#utility.yul\":10271:10343   */\n      tag_789\n        /* \"#utility.yul\":10339:10341   */\n      0x60\n        /* \"#utility.yul\":10328:10337   */\n      dup4\n        /* \"#utility.yul\":10324:10342   */\n      add\n        /* \"#utility.yul\":10315:10321   */\n      dup6\n        /* \"#utility.yul\":10271:10343   */\n      tag_617\n      jump\t// in\n    tag_789:\n        /* \"#utility.yul\":10353:10426   */\n      tag_790\n        /* \"#utility.yul\":10421:10424   */\n      0x80\n        /* \"#utility.yul\":10410:10419   */\n      dup4\n        /* \"#utility.yul\":10406:10425   */\n      add\n        /* \"#utility.yul\":10397:10403   */\n      dup5\n        /* \"#utility.yul\":10353:10426   */\n      tag_617\n      jump\t// in\n    tag_790:\n        /* \"#utility.yul\":9769:10433   */\n      swap7\n      swap6\n      pop\n      pop\n      pop\n      pop\n      pop\n      pop\n      jump\t// out\n        /* \"#utility.yul\":10439:10606   */\n    tag_638:\n        /* \"#utility.yul\":10579:10598   */\n      0x496e76616c696420726563697069656e74000000000000000000000000000000\n        /* \"#utility.yul\":10575:10576   */\n      0x00\n        /* \"#utility.yul\":10567:10573   */\n      dup3\n        /* \"#utility.yul\":10563:10577   */\n      add\n        /* \"#utility.yul\":10556:10599   */\n      mstore\n        /* \"#utility.yul\":10439:10606   */\n      pop\n      jump\t// out\n        /* \"#utility.yul\":10612:10978   */\n    tag_639:\n        /* \"#utility.yul\":10754:10757   */\n      0x00\n        /* \"#utility.yul\":10775:10842   */\n      tag_793\n        /* \"#utility.yul\":10839:10841   */\n      0x11\n        /* \"#utility.yul\":10834:10837   */\n      dup4\n        /* \"#utility.yul\":10775:10842   */\n      tag_618\n      jump\t// in\n    tag_793:\n        /* \"#utility.yul\":10768:10842   */\n      swap2\n      pop\n        /* \"#utility.yul\":10851:10944   */\n      tag_794\n        /* \"#utility.yul\":10940:10943   */\n      dup3\n        /* \"#utility.yul\":10851:10944   */\n      tag_638\n      jump\t// in\n    tag_794:\n        /* \"#utility.yul\":10969:10971   */\n      0x20\n        /* \"#utility.yul\":10964:10967   */\n      dup3\n        /* \"#utility.yul\":10960:10972   */\n      add\n        /* \"#utility.yul\":10953:10972   */\n      swap1\n      pop\n        /* \"#utility.yul\":10612:10978   */\n      swap2\n      swap1\n      pop\n      jump\t// out\n        /* \"#utility.yul\":10984:11403   */\n    tag_267:\n        /* \"#utility.yul\":11150:11154   */\n      0x00\n        /* \"#utility.yul\":11188:11190   */\n      0x20\n        /* \"#utility.yul\":11177:11186   */\n      dup3\n        /* \"#utility.yul\":11173:11191   */\n      add\n        /* \"#utility.yul\":11165:11191   */\n      swap1\n      pop\n        /* \"#utility.yul\":11237:11246   */\n      dup2\n        /* \"#utility.yul\":11231:11235   */\n      dup2\n        /* \"#utility.yul\":11227:11247   */\n      sub\n        /* \"#utility.yul\":11223:11224   */\n      0x00\n        /* \"#utility.yul\":11212:11221   */\n      dup4\n        /* \"#utility.yul\":11208:11225   */\n      add\n        /* \"#utility.yul\":11201:11248   */\n      mstore\n        /* \"#utility.yul\":11265:11396   */\n      tag_796\n        /* \"#utility.yul\":11391:11395   */\n      dup2\n        /* \"#utility.yul\":11265:11396   */\n      tag_639\n      jump\t// in\n    tag_796:\n        /* \"#utility.yul\":11257:11396   */\n      swap1\n      pop\n        /* \"#utility.yul\":10984:11403   */\n      swap2\n      swap1\n      pop\n      jump\t// out\n        /* \"#utility.yul\":11409:11576   */\n    tag_640:\n        /* \"#utility.yul\":11549:11568   */\n      0x496e73756666696369656e742066656573000000000000000000000000000000\n        /* \"#utility.yul\":11545:11546   */\n      0x00\n        /* \"#utility.yul\":11537:11543   */\n      dup3\n        /* \"#utility.yul\":11533:11547   */\n      add\n        /* \"#utility.yul\":11526:11569   */\n      mstore\n        /* \"#utility.yul\":11409:11576   */\n      pop\n      jump\t// out\n        /* \"#utility.yul\":11582:11948   */\n    tag_641:\n        /* \"#utility.yul\":11724:11727   */\n      0x00\n        /* \"#utility.yul\":11745:11812   */\n      tag_799\n        /* \"#utility.yul\":11809:11811   */\n      0x11\n        /* \"#utility.yul\":11804:11807   */\n      dup4\n        /* \"#utility.yul\":11745:11812   */\n      tag_618\n      jump\t// in\n    tag_799:\n        /* \"#utility.yul\":11738:11812   */\n      swap2\n      pop\n        /* \"#utility.yul\":11821:11914   */\n      tag_800\n        /* \"#utility.yul\":11910:11913   */\n      dup3\n        /* \"#utility.yul\":11821:11914   */\n      tag_640\n      jump\t// in\n    tag_800:\n        /* \"#utility.yul\":11939:11941   */\n      0x20\n        /* \"#utility.yul\":11934:11937   */\n      dup3\n        /* \"#utility.yul\":11930:11942   */\n      add\n        /* \"#utility.yul\":11923:11942   */\n      swap1\n      pop\n        /* \"#utility.yul\":11582:11948   */\n      swap2\n      swap1\n      pop\n      jump\t// out\n        /* \"#utility.yul\":11954:12373   */\n    tag_270:\n        /* \"#utility.yul\":12120:12124   */\n      0x00\n        /* \"#utility.yul\":12158:12160   */\n      0x20\n        /* \"#utility.yul\":12147:12156   */\n      dup3\n        /* \"#utility.yul\":12143:12161   */\n      add\n        /* \"#utility.yul\":12135:12161   */\n      swap1\n      pop\n        /* \"#utility.yul\":12207:12216   */\n      dup2\n        /* \"#utility.yul\":12201:12205   */\n      dup2\n        /* \"#utility.yul\":12197:12217   */\n      sub\n        /* \"#utility.yul\":12193:12194   */\n      0x00\n        /* \"#utility.yul\":12182:12191   */\n      dup4\n        /* \"#utility.yul\":12178:12195   */\n      add\n        /* \"#utility.yul\":12171:12218   */\n      mstore\n        /* \"#utility.yul\":12235:12366   */\n      tag_802\n        /* \"#utility.yul\":12361:12365   */\n      dup2\n        /* \"#utility.yul\":12235:12366   */\n      tag_641\n      jump\t// in\n    tag_802:\n        /* \"#utility.yul\":12227:12366   */\n      swap1\n      pop\n        /* \"#utility.yul\":11954:12373   */\n      swap2\n      swap1\n      pop\n      jump\t// out\n        /* \"#utility.yul\":12379:12573   */\n    tag_272:\n        /* \"#utility.yul\":12419:12423   */\n      0x00\n        /* \"#utility.yul\":12439:12459   */\n      tag_804\n        /* \"#utility.yul\":12457:12458   */\n      dup3\n        /* \"#utility.yul\":12439:12459   */\n      tag_615\n      jump\t// in\n    tag_804:\n        /* \"#utility.yul\":12434:12459   */\n      swap2\n      pop\n        /* \"#utility.yul\":12473:12493   */\n      tag_805\n        /* \"#utility.yul\":12491:12492   */\n      dup4\n        /* \"#utility.yul\":12473:12493   */\n      tag_615\n      jump\t// in\n    tag_805:\n        /* \"#utility.yul\":12468:12493   */\n      swap3\n      pop\n        /* \"#utility.yul\":12517:12518   */\n      dup3\n        /* \"#utility.yul\":12514:12515   */\n      dup3\n        /* \"#utility.yul\":12510:12519   */\n      sub\n        /* \"#utility.yul\":12502:12519   */\n      swap1\n      pop\n        /* \"#utility.yul\":12541:12542   */\n      dup2\n        /* \"#utility.yul\":12535:12539   */\n      dup2\n        /* \"#utility.yul\":12532:12543   */\n      gt\n        /* \"#utility.yul\":12529:12566   */\n      iszero\n      tag_806\n      jumpi\n        /* \"#utility.yul\":12546:12564   */\n      tag_807\n      tag_616\n      jump\t// in\n    tag_807:\n        /* \"#utility.yul\":12529:12566   */\n    tag_806:\n        /* \"#utility.yul\":12379:12573   */\n      swap3\n      swap2\n      pop\n      pop\n      jump\t// out\n        /* \"#utility.yul\":12579:12726   */\n    tag_642:\n        /* \"#utility.yul\":12680:12691   */\n      0x00\n        /* \"#utility.yul\":12717:12720   */\n      dup2\n        /* \"#utility.yul\":12702:12720   */\n      swap1\n      pop\n        /* \"#utility.yul\":12579:12726   */\n      swap3\n      swap2\n      pop\n      pop\n      jump\t// out\n        /* \"#utility.yul\":12732:12846   */\n    tag_643:\n      pop\n      jump\t// out\n        /* \"#utility.yul\":12852:13250   */\n    tag_644:\n        /* \"#utility.yul\":13011:13014   */\n      0x00\n        /* \"#utility.yul\":13032:13115   */\n      tag_811\n        /* \"#utility.yul\":13113:13114   */\n      0x00\n        /* \"#utility.yul\":13108:13111   */\n      dup4\n        /* \"#utility.yul\":13032:13115   */\n      tag_642\n      jump\t// in\n    tag_811:\n        /* \"#utility.yul\":13025:13115   */\n      swap2\n      pop\n        /* \"#utility.yul\":13124:13217   */\n      tag_812\n        /* \"#utility.yul\":13213:13216   */\n      dup3\n        /* \"#utility.yul\":13124:13217   */\n      tag_643\n      jump\t// in\n    tag_812:\n        /* \"#utility.yul\":13242:13243   */\n      0x00\n        /* \"#utility.yul\":13237:13240   */\n      dup3\n        /* \"#utility.yul\":13233:13244   */\n      add\n        /* \"#utility.yul\":13226:13244   */\n      swap1\n      pop\n        /* \"#utility.yul\":12852:13250   */\n      swap2\n      swap1\n      pop\n      jump\t// out\n        /* \"#utility.yul\":13256:13635   */\n    tag_274:\n        /* \"#utility.yul\":13440:13443   */\n      0x00\n        /* \"#utility.yul\":13462:13609   */\n      tag_814\n        /* \"#utility.yul\":13605:13608   */\n      dup3\n        /* \"#utility.yul\":13462:13609   */\n      tag_644\n      jump\t// in\n    tag_814:\n        /* \"#utility.yul\":13455:13609   */\n      swap2\n      pop\n        /* \"#utility.yul\":13626:13629   */\n      dup2\n        /* \"#utility.yul\":13619:13629   */\n      swap1\n      pop\n        /* \"#utility.yul\":13256:13635   */\n      swap2\n      swap1\n      pop\n      jump\t// out\n        /* \"#utility.yul\":13641:13812   */\n    tag_645:\n        /* \"#utility.yul\":13781:13804   */\n      0x466565207769746864726177616c206661696c65640000000000000000000000\n        /* \"#utility.yul\":13777:13778   */\n      0x00\n        /* \"#utility.yul\":13769:13775   */\n      dup3\n        /* \"#utility.yul\":13765:13779   */\n      add\n        /* \"#utility.yul\":13758:13805   */\n      mstore\n        /* \"#utility.yul\":13641:13812   */\n      pop\n      jump\t// out\n        /* \"#utility.yul\":13818:14184   */\n    tag_646:\n        /* \"#utility.yul\":13960:13963   */\n      0x00\n        /* \"#utility.yul\":13981:14048   */\n      tag_817\n        /* \"#utility.yul\":14045:14047   */\n      0x15\n        /* \"#utility.yul\":14040:14043   */\n      dup4\n        /* \"#utility.yul\":13981:14048   */\n      tag_618\n      jump\t// in\n    tag_817:\n        /* \"#utility.yul\":13974:14048   */\n      swap2\n      pop\n        /* \"#utility.yul\":14057:14150   */\n      tag_818\n        /* \"#utility.yul\":14146:14149   */\n      dup3\n        /* \"#utility.yul\":14057:14150   */\n      tag_645\n      jump\t// in\n    tag_818:\n        /* \"#utility.yul\":14175:14177   */\n      0x20\n        /* \"#utility.yul\":14170:14173   */\n      dup3\n        /* \"#utility.yul\":14166:14178   */\n      add\n        /* \"#utility.yul\":14159:14178   */\n      swap1\n      pop\n        /* \"#utility.yul\":13818:14184   */\n      swap2\n      swap1\n      pop\n      jump\t// out\n        /* \"#utility.yul\":14190:14609   */\n    tag_280:\n        /* \"#utility.yul\":14356:14360   */\n      0x00\n        /* \"#utility.yul\":14394:14396   */\n      0x20\n        /* \"#utility.yul\":14383:14392   */\n      dup3\n        /* \"#utility.yul\":14379:14397   */\n      add\n        /* \"#utility.yul\":14371:14397   */\n      swap1\n      pop\n        /* \"#utility.yul\":14443:14452   */\n      dup2\n        /* \"#utility.yul\":14437:14441   */\n      dup2\n        /* \"#utility.yul\":14433:14453   */\n      sub\n        /* \"#utility.yul\":14429:14430   */\n      0x00\n        /* \"#utility.yul\":14418:14427   */\n      dup4\n        /* \"#utility.yul\":14414:14431   */\n      add\n        /* \"#utility.yul\":14407:14454   */\n      mstore\n        /* \"#utility.yul\":14471:14602   */\n      tag_820\n        /* \"#utility.yul\":14597:14601   */\n      dup2\n        /* \"#utility.yul\":14471:14602   */\n      tag_646\n      jump\t// in\n    tag_820:\n        /* \"#utility.yul\":14463:14602   */\n      swap1\n      pop\n        /* \"#utility.yul\":14190:14609   */\n      swap2\n      swap1\n      pop\n      jump\t// out\n        /* \"#utility.yul\":14615:14795   */\n    tag_291:\n        /* \"#utility.yul\":14663:14740   */\n      0x4e487b7100000000000000000000000000000000000000000000000000000000\n        /* \"#utility.yul\":14660:14661   */\n      0x00\n        /* \"#utility.yul\":14653:14741   */\n      mstore\n        /* \"#utility.yul\":14760:14764   */\n      0x32\n        /* \"#utility.yul\":14757:14758   */\n      0x04\n        /* \"#utility.yul\":14750:14765   */\n      mstore\n        /* \"#utility.yul\":14784:14788   */\n      0x24\n        /* \"#utility.yul\":14781:14782   */\n      0x00\n        /* \"#utility.yul\":14774:14789   */\n      revert\n        /* \"#utility.yul\":14801:14965   */\n    tag_647:\n        /* \"#utility.yul\":14941:14957   */\n      0x4e6f7420617574686f72697a6564000000000000000000000000000000000000\n        /* \"#utility.yul\":14937:14938   */\n      0x00\n        /* \"#utility.yul\":14929:14935   */\n      dup3\n        /* \"#utility.yul\":14925:14939   */\n      add\n        /* \"#utility.yul\":14918:14958   */\n      mstore\n        /* \"#utility.yul\":14801:14965   */\n      pop\n      jump\t// out\n        /* \"#utility.yul\":14971:15337   */\n    tag_648:\n        /* \"#utility.yul\":15113:15116   */\n      0x00\n        /* \"#utility.yul\":15134:15201   */\n      tag_824\n        /* \"#utility.yul\":15198:15200   */\n      0x0e\n        /* \"#utility.yul\":15193:15196   */\n      dup4\n        /* \"#utility.yul\":15134:15201   */\n      tag_618\n      jump\t// in\n    tag_824:\n        /* \"#utility.yul\":15127:15201   */\n      swap2\n      pop\n        /* \"#utility.yul\":15210:15303   */\n      tag_825\n        /* \"#utility.yul\":15299:15302   */\n      dup3\n        /* \"#utility.yul\":15210:15303   */\n      tag_647\n      jump\t// in\n    tag_825:\n        /* \"#utility.yul\":15328:15330   */\n      0x20\n        /* \"#utility.yul\":15323:15326   */\n      dup3\n        /* \"#utility.yul\":15319:15331   */\n      add\n        /* \"#utility.yul\":15312:15331   */\n      swap1\n      pop\n        /* \"#utility.yul\":14971:15337   */\n      swap2\n      swap1\n      pop\n      jump\t// out\n        /* \"#utility.yul\":15343:15762   */\n    tag_300:\n        /* \"#utility.yul\":15509:15513   */\n      0x00\n        /* \"#utility.yul\":15547:15549   */\n      0x20\n        /* \"#utility.yul\":15536:15545   */\n      dup3\n        /* \"#utility.yul\":15532:15550   */\n      add\n        /* \"#utility.yul\":15524:15550   */\n      swap1\n      pop\n        /* \"#utility.yul\":15596:15605   */\n      dup2\n        /* \"#utility.yul\":15590:15594   */\n      dup2\n        /* \"#utility.yul\":15586:15606   */\n      sub\n        /* \"#utility.yul\":15582:15583   */\n      0x00\n        /* \"#utility.yul\":15571:15580   */\n      dup4\n        /* \"#utility.yul\":15567:15584   */\n      add\n        /* \"#utility.yul\":15560:15607   */\n      mstore\n        /* \"#utility.yul\":15624:15755   */\n      tag_827\n        /* \"#utility.yul\":15750:15754   */\n      dup2\n        /* \"#utility.yul\":15624:15755   */\n      tag_648\n      jump\t// in\n    tag_827:\n        /* \"#utility.yul\":15616:15755   */\n      swap1\n      pop\n        /* \"#utility.yul\":15343:15762   */\n      swap2\n      swap1\n      pop\n      jump\t// out\n        /* \"#utility.yul\":15768:15937   */\n    tag_649:\n        /* \"#utility.yul\":15908:15929   */\n      0x496e76616c6964207374616b6520696e64657800000000000000000000000000\n        /* \"#utility.yul\":15904:15905   */\n      0x00\n        /* \"#utility.yul\":15896:15902   */\n      dup3\n        /* \"#utility.yul\":15892:15906   */\n      add\n        /* \"#utility.yul\":15885:15930   */\n      mstore\n        /* \"#utility.yul\":15768:15937   */\n      pop\n      jump\t// out\n        /* \"#utility.yul\":15943:16309   */\n    tag_650:\n        /* \"#utility.yul\":16085:16088   */\n      0x00\n        /* \"#utility.yul\":16106:16173   */\n      tag_830\n        /* \"#utility.yul\":16170:16172   */\n      0x13\n        /* \"#utility.yul\":16165:16168   */\n      dup4\n        /* \"#utility.yul\":16106:16173   */\n      tag_618\n      jump\t// in\n    tag_830:\n        /* \"#utility.yul\":16099:16173   */\n      swap2\n      pop\n        /* \"#utility.yul\":16182:16275   */\n      tag_831\n        /* \"#utility.yul\":16271:16274   */\n      dup3\n        /* \"#utility.yul\":16182:16275   */\n      tag_649\n      jump\t// in\n    tag_831:\n        /* \"#utility.yul\":16300:16302   */\n      0x20\n        /* \"#utility.yul\":16295:16298   */\n      dup3\n        /* \"#utility.yul\":16291:16303   */\n      add\n        /* \"#utility.yul\":16284:16303   */\n      swap1\n      pop\n        /* \"#utility.yul\":15943:16309   */\n      swap2\n      swap1\n      pop\n      jump\t// out\n        /* \"#utility.yul\":16315:16734   */\n    tag_309:\n        /* \"#utility.yul\":16481:16485   */\n      0x00\n        /* \"#utility.yul\":16519:16521   */\n      0x20\n        /* \"#utility.yul\":16508:16517   */\n      dup3\n        /* \"#utility.yul\":16504:16522   */\n      add\n        /* \"#utility.yul\":16496:16522   */\n      swap1\n      pop\n        /* \"#utility.yul\":16568:16577   */\n      dup2\n        /* \"#utility.yul\":16562:16566   */\n      dup2\n        /* \"#utility.yul\":16558:16578   */\n      sub\n        /* \"#utility.yul\":16554:16555   */\n      0x00\n        /* \"#utility.yul\":16543:16552   */\n      dup4\n        /* \"#utility.yul\":16539:16556   */\n      add\n        /* \"#utility.yul\":16532:16579   */\n      mstore\n        /* \"#utility.yul\":16596:16727   */\n      tag_833\n        /* \"#utility.yul\":16722:16726   */\n      dup2\n        /* \"#utility.yul\":16596:16727   */\n      tag_650\n      jump\t// in\n    tag_833:\n        /* \"#utility.yul\":16588:16727   */\n      swap1\n      pop\n        /* \"#utility.yul\":16315:16734   */\n      swap2\n      swap1\n      pop\n      jump\t// out\n        /* \"#utility.yul\":16740:16906   */\n    tag_651:\n        /* \"#utility.yul\":16880:16898   */\n      0x5374616b65206e6f742061637469766500000000000000000000000000000000\n        /* \"#utility.yul\":16876:16877   */\n      0x00\n        /* \"#utility.yul\":16868:16874   */\n      dup3\n        /* \"#utility.yul\":16864:16878   */\n      add\n        /* \"#utility.yul\":16857:16899   */\n      mstore\n        /* \"#utility.yul\":16740:16906   */\n      pop\n      jump\t// out\n        /* \"#utility.yul\":16912:17278   */\n    tag_652:\n        /* \"#utility.yul\":17054:17057   */\n      0x00\n        /* \"#utility.yul\":17075:17142   */\n      tag_836\n        /* \"#utility.yul\":17139:17141   */\n      0x10\n        /* \"#utility.yul\":17134:17137   */\n      dup4\n        /* \"#utility.yul\":17075:17142   */\n      tag_618\n      jump\t// in\n    tag_836:\n        /* \"#utility.yul\":17068:17142   */\n      swap2\n      pop\n        /* \"#utility.yul\":17151:17244   */\n      tag_837\n        /* \"#utility.yul\":17240:17243   */\n      dup3\n        /* \"#utility.yul\":17151:17244   */\n      tag_651\n      jump\t// in\n    tag_837:\n        /* \"#utility.yul\":17269:17271   */\n      0x20\n        /* \"#utility.yul\":17264:17267   */\n      dup3\n        /* \"#utility.yul\":17260:17272   */\n      add\n        /* \"#utility.yul\":17253:17272   */\n      swap1\n      pop\n        /* \"#utility.yul\":16912:17278   */\n      swap2\n      swap1\n      pop\n      jump\t// out\n        /* \"#utility.yul\":17284:17703   */\n    tag_315:\n        /* \"#utility.yul\":17450:17454   */\n      0x00\n        /* \"#utility.yul\":17488:17490   */\n      0x20\n        /* \"#utility.yul\":17477:17486   */\n      dup3\n        /* \"#utility.yul\":17473:17491   */\n      add\n        /* \"#utility.yul\":17465:17491   */\n      swap1\n      pop\n        /* \"#utility.yul\":17537:17546   */\n      dup2\n        /* \"#utility.yul\":17531:17535   */\n      dup2\n        /* \"#utility.yul\":17527:17547   */\n      sub\n        /* \"#utility.yul\":17523:17524   */\n      0x00\n        /* \"#utility.yul\":17512:17521   */\n      dup4\n        /* \"#utility.yul\":17508:17525   */\n      add\n        /* \"#utility.yul\":17501:17548   */\n      mstore\n        /* \"#utility.yul\":17565:17696   */\n      tag_839\n        /* \"#utility.yul\":17691:17695   */\n      dup2\n        /* \"#utility.yul\":17565:17696   */\n      tag_652\n      jump\t// in\n    tag_839:\n        /* \"#utility.yul\":17557:17696   */\n      swap1\n      pop\n        /* \"#utility.yul\":17284:17703   */\n      swap2\n      swap1\n      pop\n      jump\t// out\n        /* \"#utility.yul\":17709:17877   */\n    tag_653:\n        /* \"#utility.yul\":17849:17869   */\n      0x496e76616c6964207969656c6420726174650000000000000000000000000000\n        /* \"#utility.yul\":17845:17846   */\n      0x00\n        /* \"#utility.yul\":17837:17843   */\n      dup3\n        /* \"#utility.yul\":17833:17847   */\n      add\n        /* \"#utility.yul\":17826:17870   */\n      mstore\n        /* \"#utility.yul\":17709:17877   */\n      pop\n      jump\t// out\n        /* \"#utility.yul\":17883:18249   */\n    tag_654:\n        /* \"#utility.yul\":18025:18028   */\n      0x00\n        /* \"#utility.yul\":18046:18113   */\n      tag_842\n        /* \"#utility.yul\":18110:18112   */\n      0x12\n        /* \"#utility.yul\":18105:18108   */\n      dup4\n        /* \"#utility.yul\":18046:18113   */\n      tag_618\n      jump\t// in\n    tag_842:\n        /* \"#utility.yul\":18039:18113   */\n      swap2\n      pop\n        /* \"#utility.yul\":18122:18215   */\n      tag_843\n        /* \"#utility.yul\":18211:18214   */\n      dup3\n        /* \"#utility.yul\":18122:18215   */\n      tag_653\n      jump\t// in\n    tag_843:\n        /* \"#utility.yul\":18240:18242   */\n      0x20\n        /* \"#utility.yul\":18235:18238   */\n      dup3\n        /* \"#utility.yul\":18231:18243   */\n      add\n        /* \"#utility.yul\":18224:18243   */\n      swap1\n      pop\n        /* \"#utility.yul\":17883:18249   */\n      swap2\n      swap1\n      pop\n      jump\t// out\n        /* \"#utility.yul\":18255:18674   */\n    tag_328:\n        /* \"#utility.yul\":18421:18425   */\n      0x00\n        /* \"#utility.yul\":18459:18461   */\n      0x20\n        /* \"#utility.yul\":18448:18457   */\n      dup3\n        /* \"#utility.yul\":18444:18462   */\n      add\n        /* \"#utility.yul\":18436:18462   */\n      swap1\n      pop\n        /* \"#utility.yul\":18508:18517   */\n      dup2\n        /* \"#utility.yul\":18502:18506   */\n      dup2\n        /* \"#utility.yul\":18498:18518   */\n      sub\n        /* \"#utility.yul\":18494:18495   */\n      0x00\n        /* \"#utility.yul\":18483:18492   */\n      dup4\n        /* \"#utility.yul\":18479:18496   */\n      add\n        /* \"#utility.yul\":18472:18519   */\n      mstore\n        /* \"#utility.yul\":18536:18667   */\n      tag_845\n        /* \"#utility.yul\":18662:18666   */\n      dup2\n        /* \"#utility.yul\":18536:18667   */\n      tag_654\n      jump\t// in\n    tag_845:\n        /* \"#utility.yul\":18528:18667   */\n      swap1\n      pop\n        /* \"#utility.yul\":18255:18674   */\n      swap2\n      swap1\n      pop\n      jump\t// out\n        /* \"#utility.yul\":18680:19012   */\n    tag_332:\n        /* \"#utility.yul\":18801:18805   */\n      0x00\n        /* \"#utility.yul\":18839:18841   */\n      0x40\n        /* \"#utility.yul\":18828:18837   */\n      dup3\n        /* \"#utility.yul\":18824:18842   */\n      add\n        /* \"#utility.yul\":18816:18842   */\n      swap1\n      pop\n        /* \"#utility.yul\":18852:18923   */\n      tag_847\n        /* \"#utility.yul\":18920:18921   */\n      0x00\n        /* \"#utility.yul\":18909:18918   */\n      dup4\n        /* \"#utility.yul\":18905:18922   */\n      add\n        /* \"#utility.yul\":18896:18902   */\n      dup6\n        /* \"#utility.yul\":18852:18923   */\n      tag_617\n      jump\t// in\n    tag_847:\n        /* \"#utility.yul\":18933:19005   */\n      tag_848\n        /* \"#utility.yul\":19001:19003   */\n      0x20\n        /* \"#utility.yul\":18990:18999   */\n      dup4\n        /* \"#utility.yul\":18986:19004   */\n      add\n        /* \"#utility.yul\":18977:18983   */\n      dup5\n        /* \"#utility.yul\":18933:19005   */\n      tag_617\n      jump\t// in\n    tag_848:\n        /* \"#utility.yul\":18680:19012   */\n      swap4\n      swap3\n      pop\n      pop\n      pop\n      jump\t// out\n        /* \"#utility.yul\":19018:19190   */\n    tag_655:\n        /* \"#utility.yul\":19158:19182   */\n      0x496e76616c69642063616c6c6572206164647265737300000000000000000000\n        /* \"#utility.yul\":19154:19155   */\n      0x00\n        /* \"#utility.yul\":19146:19152   */\n      dup3\n        /* \"#utility.yul\":19142:19156   */\n      add\n        /* \"#utility.yul\":19135:19183   */\n      mstore\n        /* \"#utility.yul\":19018:19190   */\n      pop\n      jump\t// out\n        /* \"#utility.yul\":19196:19562   */\n    tag_656:\n        /* \"#utility.yul\":19338:19341   */\n      0x00\n        /* \"#utility.yul\":19359:19426   */\n      tag_851\n        /* \"#utility.yul\":19423:19425   */\n      0x16\n        /* \"#utility.yul\":19418:19421   */\n      dup4\n        /* \"#utility.yul\":19359:19426   */\n      tag_618\n      jump\t// in\n    tag_851:\n        /* \"#utility.yul\":19352:19426   */\n      swap2\n      pop\n        /* \"#utility.yul\":19435:19528   */\n      tag_852\n        /* \"#utility.yul\":19524:19527   */\n      dup3\n        /* \"#utility.yul\":19435:19528   */\n      tag_655\n      jump\t// in\n    tag_852:\n        /* \"#utility.yul\":19553:19555   */\n      0x20\n        /* \"#utility.yul\":19548:19551   */\n      dup3\n        /* \"#utility.yul\":19544:19556   */\n      add\n        /* \"#utility.yul\":19537:19556   */\n      swap1\n      pop\n        /* \"#utility.yul\":19196:19562   */\n      swap2\n      swap1\n      pop\n      jump\t// out\n        /* \"#utility.yul\":19568:19987   */\n    tag_344:\n        /* \"#utility.yul\":19734:19738   */\n      0x00\n        /* \"#utility.yul\":19772:19774   */\n      0x20\n        /* \"#utility.yul\":19761:19770   */\n      dup3\n        /* \"#utility.yul\":19757:19775   */\n      add\n        /* \"#utility.yul\":19749:19775   */\n      swap1\n      pop\n        /* \"#utility.yul\":19821:19830   */\n      dup2\n        /* \"#utility.yul\":19815:19819   */\n      dup2\n        /* \"#utility.yul\":19811:19831   */\n      sub\n        /* \"#utility.yul\":19807:19808   */\n      0x00\n        /* \"#utility.yul\":19796:19805   */\n      dup4\n        /* \"#utility.yul\":19792:19809   */\n      add\n        /* \"#utility.yul\":19785:19832   */\n      mstore\n        /* \"#utility.yul\":19849:19980   */\n      tag_854\n        /* \"#utility.yul\":19975:19979   */\n      dup2\n        /* \"#utility.yul\":19849:19980   */\n      tag_656\n      jump\t// in\n    tag_854:\n        /* \"#utility.yul\":19841:19980   */\n      swap1\n      pop\n        /* \"#utility.yul\":19568:19987   */\n      swap2\n      swap1\n      pop\n      jump\t// out\n        /* \"#utility.yul\":19993:20160   */\n    tag_657:\n        /* \"#utility.yul\":20133:20152   */\n      0x466565207261746520746f6f2068696768000000000000000000000000000000\n        /* \"#utility.yul\":20129:20130   */\n      0x00\n        /* \"#utility.yul\":20121:20127   */\n      dup3\n        /* \"#utility.yul\":20117:20131   */\n      add\n        /* \"#utility.yul\":20110:20153   */\n      mstore\n        /* \"#utility.yul\":19993:20160   */\n      pop\n      jump\t// out\n        /* \"#utility.yul\":20166:20532   */\n    tag_658:\n        /* \"#utility.yul\":20308:20311   */\n      0x00\n        /* \"#utility.yul\":20329:20396   */\n      tag_857\n        /* \"#utility.yul\":20393:20395   */\n      0x11\n        /* \"#utility.yul\":20388:20391   */\n      dup4\n        /* \"#utility.yul\":20329:20396   */\n      tag_618\n      jump\t// in\n    tag_857:\n        /* \"#utility.yul\":20322:20396   */\n      swap2\n      pop\n        /* \"#utility.yul\":20405:20498   */\n      tag_858\n        /* \"#utility.yul\":20494:20497   */\n      dup3\n        /* \"#utility.yul\":20405:20498   */\n      tag_657\n      jump\t// in\n    tag_858:\n        /* \"#utility.yul\":20523:20525   */\n      0x20\n        /* \"#utility.yul\":20518:20521   */\n      dup3\n        /* \"#utility.yul\":20514:20526   */\n      add\n        /* \"#utility.yul\":20507:20526   */\n      swap1\n      pop\n        /* \"#utility.yul\":20166:20532   */\n      swap2\n      swap1\n      pop\n      jump\t// out\n        /* \"#utility.yul\":20538:20957   */\n    tag_361:\n        /* \"#utility.yul\":20704:20708   */\n      0x00\n        /* \"#utility.yul\":20742:20744   */\n      0x20\n        /* \"#utility.yul\":20731:20740   */\n      dup3\n        /* \"#utility.yul\":20727:20745   */\n      add\n        /* \"#utility.yul\":20719:20745   */\n      swap1\n      pop\n        /* \"#utility.yul\":20791:20800   */\n      dup2\n        /* \"#utility.yul\":20785:20789   */\n      dup2\n        /* \"#utility.yul\":20781:20801   */\n      sub\n        /* \"#utility.yul\":20777:20778   */\n      0x00\n        /* \"#utility.yul\":20766:20775   */\n      dup4\n        /* \"#utility.yul\":20762:20779   */\n      add\n        /* \"#utility.yul\":20755:20802   */\n      mstore\n        /* \"#utility.yul\":20819:20950   */\n      tag_860\n        /* \"#utility.yul\":20945:20949   */\n      dup2\n        /* \"#utility.yul\":20819:20950   */\n      tag_658\n      jump\t// in\n    tag_860:\n        /* \"#utility.yul\":20811:20950   */\n      swap1\n      pop\n        /* \"#utility.yul\":20538:20957   */\n      swap2\n      swap1\n      pop\n      jump\t// out\n        /* \"#utility.yul\":20963:21134   */\n    tag_659:\n        /* \"#utility.yul\":21103:21126   */\n      0x4e6f206665657320746f20646973747269627574650000000000000000000000\n        /* \"#utility.yul\":21099:21100   */\n      0x00\n        /* \"#utility.yul\":21091:21097   */\n      dup3\n        /* \"#utility.yul\":21087:21101   */\n      add\n        /* \"#utility.yul\":21080:21127   */\n      mstore\n        /* \"#utility.yul\":20963:21134   */\n      pop\n      jump\t// out\n        /* \"#utility.yul\":21140:21506   */\n    tag_660:\n        /* \"#utility.yul\":21282:21285   */\n      0x00\n        /* \"#utility.yul\":21303:21370   */\n      tag_863\n        /* \"#utility.yul\":21367:21369   */\n      0x15\n        /* \"#utility.yul\":21362:21365   */\n      dup4\n        /* \"#utility.yul\":21303:21370   */\n      tag_618\n      jump\t// in\n    tag_863:\n        /* \"#utility.yul\":21296:21370   */\n      swap2\n      pop\n        /* \"#utility.yul\":21379:21472   */\n      tag_864\n        /* \"#utility.yul\":21468:21471   */\n      dup3\n        /* \"#utility.yul\":21379:21472   */\n      tag_659\n      jump\t// in\n    tag_864:\n        /* \"#utility.yul\":21497:21499   */\n      0x20\n        /* \"#utility.yul\":21492:21495   */\n      dup3\n        /* \"#utility.yul\":21488:21500   */\n      add\n        /* \"#utility.yul\":21481:21500   */\n      swap1\n      pop\n        /* \"#utility.yul\":21140:21506   */\n      swap2\n      swap1\n      pop\n      jump\t// out\n        /* \"#utility.yul\":21512:21931   */\n    tag_402:\n        /* \"#utility.yul\":21678:21682   */\n      0x00\n        /* \"#utility.yul\":21716:21718   */\n      0x20\n        /* \"#utility.yul\":21705:21714   */\n      dup3\n        /* \"#utility.yul\":21701:21719   */\n      add\n        /* \"#utility.yul\":21693:21719   */\n      swap1\n      pop\n        /* \"#utility.yul\":21765:21774   */\n      dup2\n        /* \"#utility.yul\":21759:21763   */\n      dup2\n        /* \"#utility.yul\":21755:21775   */\n      sub\n        /* \"#utility.yul\":21751:21752   */\n      0x00\n        /* \"#utility.yul\":21740:21749   */\n      dup4\n        /* \"#utility.yul\":21736:21753   */\n      add\n        /* \"#utility.yul\":21729:21776   */\n      mstore\n        /* \"#utility.yul\":21793:21924   */\n      tag_866\n        /* \"#utility.yul\":21919:21923   */\n      dup2\n        /* \"#utility.yul\":21793:21924   */\n      tag_660\n      jump\t// in\n    tag_866:\n        /* \"#utility.yul\":21785:21924   */\n      swap1\n      pop\n        /* \"#utility.yul\":21512:21931   */\n      swap2\n      swap1\n      pop\n      jump\t// out\n        /* \"#utility.yul\":21937:22103   */\n    tag_661:\n        /* \"#utility.yul\":22077:22095   */\n      0x4e6f20616374697665207374616b657300000000000000000000000000000000\n        /* \"#utility.yul\":22073:22074   */\n      0x00\n        /* \"#utility.yul\":22065:22071   */\n      dup3\n        /* \"#utility.yul\":22061:22075   */\n      add\n        /* \"#utility.yul\":22054:22096   */\n      mstore\n        /* \"#utility.yul\":21937:22103   */\n      pop\n      jump\t// out\n        /* \"#utility.yul\":22109:22475   */\n    tag_662:\n        /* \"#utility.yul\":22251:22254   */\n      0x00\n        /* \"#utility.yul\":22272:22339   */\n      tag_869\n        /* \"#utility.yul\":22336:22338   */\n      0x10\n        /* \"#utility.yul\":22331:22334   */\n      dup4\n        /* \"#utility.yul\":22272:22339   */\n      tag_618\n      jump\t// in\n    tag_869:\n        /* \"#utility.yul\":22265:22339   */\n      swap2\n      pop\n        /* \"#utility.yul\":22348:22441   */\n      tag_870\n        /* \"#utility.yul\":22437:22440   */\n      dup3\n        /* \"#utility.yul\":22348:22441   */\n      tag_661\n      jump\t// in\n    tag_870:\n        /* \"#utility.yul\":22466:22468   */\n      0x20\n        /* \"#utility.yul\":22461:22464   */\n      dup3\n        /* \"#utility.yul\":22457:22469   */\n      add\n        /* \"#utility.yul\":22450:22469   */\n      swap1\n      pop\n        /* \"#utility.yul\":22109:22475   */\n      swap2\n      swap1\n      pop\n      jump\t// out\n        /* \"#utility.yul\":22481:22900   */\n    tag_405:\n        /* \"#utility.yul\":22647:22651   */\n      0x00\n        /* \"#utility.yul\":22685:22687   */\n      0x20\n        /* \"#utility.yul\":22674:22683   */\n      dup3\n        /* \"#utility.yul\":22670:22688   */\n      add\n        /* \"#utility.yul\":22662:22688   */\n      swap1\n      pop\n        /* \"#utility.yul\":22734:22743   */\n      dup2\n        /* \"#utility.yul\":22728:22732   */\n      dup2\n        /* \"#utility.yul\":22724:22744   */\n      sub\n        /* \"#utility.yul\":22720:22721   */\n      0x00\n        /* \"#utility.yul\":22709:22718   */\n      dup4\n        /* \"#utility.yul\":22705:22722   */\n      add\n        /* \"#utility.yul\":22698:22745   */\n      mstore\n        /* \"#utility.yul\":22762:22893   */\n      tag_872\n        /* \"#utility.yul\":22888:22892   */\n      dup2\n        /* \"#utility.yul\":22762:22893   */\n      tag_662\n      jump\t// in\n    tag_872:\n        /* \"#utility.yul\":22754:22893   */\n      swap1\n      pop\n        /* \"#utility.yul\":22481:22900   */\n      swap2\n      swap1\n      pop\n      jump\t// out\n        /* \"#utility.yul\":22906:23076   */\n    tag_663:\n        /* \"#utility.yul\":23046:23068   */\n      0x496e76616c696420757365722061646472657373000000000000000000000000\n        /* \"#utility.yul\":23042:23043   */\n      0x00\n        /* \"#utility.yul\":23034:23040   */\n      dup3\n        /* \"#utility.yul\":23030:23044   */\n      add\n        /* \"#utility.yul\":23023:23069   */\n      mstore\n        /* \"#utility.yul\":22906:23076   */\n      pop\n      jump\t// out\n        /* \"#utility.yul\":23082:23448   */\n    tag_664:\n        /* \"#utility.yul\":23224:23227   */\n      0x00\n        /* \"#utility.yul\":23245:23312   */\n      tag_875\n        /* \"#utility.yul\":23309:23311   */\n      0x14\n        /* \"#utility.yul\":23304:23307   */\n      dup4\n        /* \"#utility.yul\":23245:23312   */\n      tag_618\n      jump\t// in\n    tag_875:\n        /* \"#utility.yul\":23238:23312   */\n      swap2\n      pop\n        /* \"#utility.yul\":23321:23414   */\n      tag_876\n        /* \"#utility.yul\":23410:23413   */\n      dup3\n        /* \"#utility.yul\":23321:23414   */\n      tag_663\n      jump\t// in\n    tag_876:\n        /* \"#utility.yul\":23439:23441   */\n      0x20\n        /* \"#utility.yul\":23434:23437   */\n      dup3\n        /* \"#utility.yul\":23430:23442   */\n      add\n        /* \"#utility.yul\":23423:23442   */\n      swap1\n      pop\n        /* \"#utility.yul\":23082:23448   */\n      swap2\n      swap1\n      pop\n      jump\t// out\n        /* \"#utility.yul\":23454:23873   */\n    tag_420:\n        /* \"#utility.yul\":23620:23624   */\n      0x00\n        /* \"#utility.yul\":23658:23660   */\n      0x20\n        /* \"#utility.yul\":23647:23656   */\n      dup3\n        /* \"#utility.yul\":23643:23661   */\n      add\n        /* \"#utility.yul\":23635:23661   */\n      swap1\n      pop\n        /* \"#utility.yul\":23707:23716   */\n      dup2\n        /* \"#utility.yul\":23701:23705   */\n      dup2\n        /* \"#utility.yul\":23697:23717   */\n      sub\n        /* \"#utility.yul\":23693:23694   */\n      0x00\n        /* \"#utility.yul\":23682:23691   */\n      dup4\n        /* \"#utility.yul\":23678:23695   */\n      add\n        /* \"#utility.yul\":23671:23718   */\n      mstore\n        /* \"#utility.yul\":23735:23866   */\n      tag_878\n        /* \"#utility.yul\":23861:23865   */\n      dup2\n        /* \"#utility.yul\":23735:23866   */\n      tag_664\n      jump\t// in\n    tag_878:\n        /* \"#utility.yul\":23727:23866   */\n      swap1\n      pop\n        /* \"#utility.yul\":23454:23873   */\n      swap2\n      swap1\n      pop\n      jump\t// out\n        /* \"#utility.yul\":23879:24049   */\n    tag_665:\n        /* \"#utility.yul\":24019:24041   */\n      0x5374616b6520616d6f756e7420746f6f206c6f77000000000000000000000000\n        /* \"#utility.yul\":24015:24016   */\n      0x00\n        /* \"#utility.yul\":24007:24013   */\n      dup3\n        /* \"#utility.yul\":24003:24017   */\n      add\n        /* \"#utility.yul\":23996:24042   */\n      mstore\n        /* \"#utility.yul\":23879:24049   */\n      pop\n      jump\t// out\n        /* \"#utility.yul\":24055:24421   */\n    tag_666:\n        /* \"#utility.yul\":24197:24200   */\n      0x00\n        /* \"#utility.yul\":24218:24285   */\n      tag_881\n        /* \"#utility.yul\":24282:24284   */\n      0x14\n        /* \"#utility.yul\":24277:24280   */\n      dup4\n        /* \"#utility.yul\":24218:24285   */\n      tag_618\n      jump\t// in\n    tag_881:\n        /* \"#utility.yul\":24211:24285   */\n      swap2\n      pop\n        /* \"#utility.yul\":24294:24387   */\n      tag_882\n        /* \"#utility.yul\":24383:24386   */\n      dup3\n        /* \"#utility.yul\":24294:24387   */\n      tag_665\n      jump\t// in\n    tag_882:\n        /* \"#utility.yul\":24412:24414   */\n      0x20\n        /* \"#utility.yul\":24407:24410   */\n      dup3\n        /* \"#utility.yul\":24403:24415   */\n      add\n        /* \"#utility.yul\":24396:24415   */\n      swap1\n      pop\n        /* \"#utility.yul\":24055:24421   */\n      swap2\n      swap1\n      pop\n      jump\t// out\n        /* \"#utility.yul\":24427:24846   */\n    tag_423:\n        /* \"#utility.yul\":24593:24597   */\n      0x00\n        /* \"#utility.yul\":24631:24633   */\n      0x20\n        /* \"#utility.yul\":24620:24629   */\n      dup3\n        /* \"#utility.yul\":24616:24634   */\n      add\n        /* \"#utility.yul\":24608:24634   */\n      swap1\n      pop\n        /* \"#utility.yul\":24680:24689   */\n      dup2\n        /* \"#utility.yul\":24674:24678   */\n      dup2\n        /* \"#utility.yul\":24670:24690   */\n      sub\n        /* \"#utility.yul\":24666:24667   */\n      0x00\n        /* \"#utility.yul\":24655:24664   */\n      dup4\n        /* \"#utility.yul\":24651:24668   */\n      add\n        /* \"#utility.yul\":24644:24691   */\n      mstore\n        /* \"#utility.yul\":24708:24839   */\n      tag_884\n        /* \"#utility.yul\":24834:24838   */\n      dup2\n        /* \"#utility.yul\":24708:24839   */\n      tag_666\n      jump\t// in\n    tag_884:\n        /* \"#utility.yul\":24700:24839   */\n      swap1\n      pop\n        /* \"#utility.yul\":24427:24846   */\n      swap2\n      swap1\n      pop\n      jump\t// out\n        /* \"#utility.yul\":24852:25294   */\n    tag_434:\n        /* \"#utility.yul\":25001:25005   */\n      0x00\n        /* \"#utility.yul\":25039:25041   */\n      0x60\n        /* \"#utility.yul\":25028:25037   */\n      dup3\n        /* \"#utility.yul\":25024:25042   */\n      add\n        /* \"#utility.yul\":25016:25042   */\n      swap1\n      pop\n        /* \"#utility.yul\":25052:25123   */\n      tag_886\n        /* \"#utility.yul\":25120:25121   */\n      0x00\n        /* \"#utility.yul\":25109:25118   */\n      dup4\n        /* \"#utility.yul\":25105:25122   */\n      add\n        /* \"#utility.yul\":25096:25102   */\n      dup7\n        /* \"#utility.yul\":25052:25123   */\n      tag_617\n      jump\t// in\n    tag_886:\n        /* \"#utility.yul\":25133:25205   */\n      tag_887\n        /* \"#utility.yul\":25201:25203   */\n      0x20\n        /* \"#utility.yul\":25190:25199   */\n      dup4\n        /* \"#utility.yul\":25186:25204   */\n      add\n        /* \"#utility.yul\":25177:25183   */\n      dup6\n        /* \"#utility.yul\":25133:25205   */\n      tag_617\n      jump\t// in\n    tag_887:\n        /* \"#utility.yul\":25215:25287   */\n      tag_888\n        /* \"#utility.yul\":25283:25285   */\n      0x40\n        /* \"#utility.yul\":25272:25281   */\n      dup4\n        /* \"#utility.yul\":25268:25286   */\n      add\n        /* \"#utility.yul\":25259:25265   */\n      dup5\n        /* \"#utility.yul\":25215:25287   */\n      tag_617\n      jump\t// in\n    tag_888:\n        /* \"#utility.yul\":24852:25294   */\n      swap5\n      swap4\n      pop\n      pop\n      pop\n      pop\n      jump\t// out\n        /* \"#utility.yul\":25300:25468   */\n    tag_667:\n        /* \"#utility.yul\":25440:25460   */\n      0x4e6f206665657320746f20636f6c6c6563740000000000000000000000000000\n        /* \"#utility.yul\":25436:25437   */\n      0x00\n        /* \"#utility.yul\":25428:25434   */\n      dup3\n        /* \"#utility.yul\":25424:25438   */\n      add\n        /* \"#utility.yul\":25417:25461   */\n      mstore\n        /* \"#utility.yul\":25300:25468   */\n      pop\n      jump\t// out\n        /* \"#utility.yul\":25474:25840   */\n    tag_668:\n        /* \"#utility.yul\":25616:25619   */\n      0x00\n        /* \"#utility.yul\":25637:25704   */\n      tag_891\n        /* \"#utility.yul\":25701:25703   */\n      0x12\n        /* \"#utility.yul\":25696:25699   */\n      dup4\n        /* \"#utility.yul\":25637:25704   */\n      tag_618\n      jump\t// in\n    tag_891:\n        /* \"#utility.yul\":25630:25704   */\n      swap2\n      pop\n        /* \"#utility.yul\":25713:25806   */\n      tag_892\n        /* \"#utility.yul\":25802:25805   */\n      dup3\n        /* \"#utility.yul\":25713:25806   */\n      tag_667\n      jump\t// in\n    tag_892:\n        /* \"#utility.yul\":25831:25833   */\n      0x20\n        /* \"#utility.yul\":25826:25829   */\n      dup3\n        /* \"#utility.yul\":25822:25834   */\n      add\n        /* \"#utility.yul\":25815:25834   */\n      swap1\n      pop\n        /* \"#utility.yul\":25474:25840   */\n      swap2\n      swap1\n      pop\n      jump\t// out\n        /* \"#utility.yul\":25846:26265   */\n    tag_444:\n        /* \"#utility.yul\":26012:26016   */\n      0x00\n        /* \"#utility.yul\":26050:26052   */\n      0x20\n        /* \"#utility.yul\":26039:26048   */\n      dup3\n        /* \"#utility.yul\":26035:26053   */\n      add\n        /* \"#utility.yul\":26027:26053   */\n      swap1\n      pop\n        /* \"#utility.yul\":26099:26108   */\n      dup2\n        /* \"#utility.yul\":26093:26097   */\n      dup2\n        /* \"#utility.yul\":26089:26109   */\n      sub\n        /* \"#utility.yul\":26085:26086   */\n      0x00\n        /* \"#utility.yul\":26074:26083   */\n      dup4\n        /* \"#utility.yul\":26070:26087   */\n      add\n        /* \"#utility.yul\":26063:26110   */\n      mstore\n        /* \"#utility.yul\":26127:26258   */\n      tag_894\n        /* \"#utility.yul\":26253:26257   */\n      dup2\n        /* \"#utility.yul\":26127:26258   */\n      tag_668\n      jump\t// in\n    tag_894:\n        /* \"#utility.yul\":26119:26258   */\n      swap1\n      pop\n        /* \"#utility.yul\":25846:26265   */\n      swap2\n      swap1\n      pop\n      jump\t// out\n        /* \"#utility.yul\":26271:26444   */\n    tag_669:\n        /* \"#utility.yul\":26411:26436   */\n      0x456d657267656e63792064656c6179206e6f74206d6574000000000000000000\n        /* \"#utility.yul\":26407:26408   */\n      0x00\n        /* \"#utility.yul\":26399:26405   */\n      dup3\n        /* \"#utility.yul\":26395:26409   */\n      add\n        /* \"#utility.yul\":26388:26437   */\n      mstore\n        /* \"#utility.yul\":26271:26444   */\n      pop\n      jump\t// out\n        /* \"#utility.yul\":26450:26816   */\n    tag_670:\n        /* \"#utility.yul\":26592:26595   */\n      0x00\n        /* \"#utility.yul\":26613:26680   */\n      tag_897\n        /* \"#utility.yul\":26677:26679   */\n      0x17\n        /* \"#utility.yul\":26672:26675   */\n      dup4\n        /* \"#utility.yul\":26613:26680   */\n      tag_618\n      jump\t// in\n    tag_897:\n        /* \"#utility.yul\":26606:26680   */\n      swap2\n      pop\n        /* \"#utility.yul\":26689:26782   */\n      tag_898\n        /* \"#utility.yul\":26778:26781   */\n      dup3\n        /* \"#utility.yul\":26689:26782   */\n      tag_669\n      jump\t// in\n    tag_898:\n        /* \"#utility.yul\":26807:26809   */\n      0x20\n        /* \"#utility.yul\":26802:26805   */\n      dup3\n        /* \"#utility.yul\":26798:26810   */\n      add\n        /* \"#utility.yul\":26791:26810   */\n      swap1\n      pop\n        /* \"#utility.yul\":26450:26816   */\n      swap2\n      swap1\n      pop\n      jump\t// out\n        /* \"#utility.yul\":26822:27241   */\n    tag_487:\n        /* \"#utility.yul\":26988:26992   */\n      0x00\n        /* \"#utility.yul\":27026:27028   */\n      0x20\n        /* \"#utility.yul\":27015:27024   */\n      dup3\n        /* \"#utility.yul\":27011:27029   */\n      add\n        /* \"#utility.yul\":27003:27029   */\n      swap1\n      pop\n        /* \"#utility.yul\":27075:27084   */\n      dup2\n        /* \"#utility.yul\":27069:27073   */\n      dup2\n        /* \"#utility.yul\":27065:27085   */\n      sub\n        /* \"#utility.yul\":27061:27062   */\n      0x00\n        /* \"#utility.yul\":27050:27059   */\n      dup4\n        /* \"#utility.yul\":27046:27063   */\n      add\n        /* \"#utility.yul\":27039:27086   */\n      mstore\n        /* \"#utility.yul\":27103:27234   */\n      tag_900\n        /* \"#utility.yul\":27229:27233   */\n      dup2\n        /* \"#utility.yul\":27103:27234   */\n      tag_670\n      jump\t// in\n    tag_900:\n        /* \"#utility.yul\":27095:27234   */\n      swap1\n      pop\n        /* \"#utility.yul\":26822:27241   */\n      swap2\n      swap1\n      pop\n      jump\t// out\n        /* \"#utility.yul\":27247:27417   */\n    tag_671:\n        /* \"#utility.yul\":27387:27409   */\n      0x4e6f2066756e647320746f207769746864726177000000000000000000000000\n        /* \"#utility.yul\":27383:27384   */\n      0x00\n        /* \"#utility.yul\":27375:27381   */\n      dup3\n        /* \"#utility.yul\":27371:27385   */\n      add\n        /* \"#utility.yul\":27364:27410   */\n      mstore\n        /* \"#utility.yul\":27247:27417   */\n      pop\n      jump\t// out\n        /* \"#utility.yul\":27423:27789   */\n    tag_672:\n        /* \"#utility.yul\":27565:27568   */\n      0x00\n        /* \"#utility.yul\":27586:27653   */\n      tag_903\n        /* \"#utility.yul\":27650:27652   */\n      0x14\n        /* \"#utility.yul\":27645:27648   */\n      dup4\n        /* \"#utility.yul\":27586:27653   */\n      tag_618\n      jump\t// in\n    tag_903:\n        /* \"#utility.yul\":27579:27653   */\n      swap2\n      pop\n        /* \"#utility.yul\":27662:27755   */\n      tag_904\n        /* \"#utility.yul\":27751:27754   */\n      dup3\n        /* \"#utility.yul\":27662:27755   */\n      tag_671\n      jump\t// in\n    tag_904:\n        /* \"#utility.yul\":27780:27782   */\n      0x20\n        /* \"#utility.yul\":27775:27778   */\n      dup3\n        /* \"#utility.yul\":27771:27783   */\n      add\n        /* \"#utility.yul\":27764:27783   */\n      swap1\n      pop\n        /* \"#utility.yul\":27423:27789   */\n      swap2\n      swap1\n      pop\n      jump\t// out\n        /* \"#utility.yul\":27795:28214   */\n    tag_490:\n        /* \"#utility.yul\":27961:27965   */\n      0x00\n        /* \"#utility.yul\":27999:28001   */\n      0x20\n        /* \"#utility.yul\":27988:27997   */\n      dup3\n        /* \"#utility.yul\":27984:28002   */\n      add\n        /* \"#utility.yul\":27976:28002   */\n      swap1\n      pop\n        /* \"#utility.yul\":28048:28057   */\n      dup2\n        /* \"#utility.yul\":28042:28046   */\n      dup2\n        /* \"#utility.yul\":28038:28058   */\n      sub\n        /* \"#utility.yul\":28034:28035   */\n      0x00\n        /* \"#utility.yul\":28023:28032   */\n      dup4\n        /* \"#utility.yul\":28019:28036   */\n      add\n        /* \"#utility.yul\":28012:28059   */\n      mstore\n        /* \"#utility.yul\":28076:28207   */\n      tag_906\n        /* \"#utility.yul\":28202:28206   */\n      dup2\n        /* \"#utility.yul\":28076:28207   */\n      tag_672\n      jump\t// in\n    tag_906:\n        /* \"#utility.yul\":28068:28207   */\n      swap1\n      pop\n        /* \"#utility.yul\":27795:28214   */\n      swap2\n      swap1\n      pop\n      jump\t// out\n        /* \"#utility.yul\":28220:28397   */\n    tag_673:\n        /* \"#utility.yul\":28360:28389   */\n      0x456d657267656e6379207769746864726177616c206661696c65640000000000\n        /* \"#utility.yul\":28356:28357   */\n      0x00\n        /* \"#utility.yul\":28348:28354   */\n      dup3\n        /* \"#utility.yul\":28344:28358   */\n      add\n        /* \"#utility.yul\":28337:28390   */\n      mstore\n        /* \"#utility.yul\":28220:28397   */\n      pop\n      jump\t// out\n        /* \"#utility.yul\":28403:28769   */\n    tag_674:\n        /* \"#utility.yul\":28545:28548   */\n      0x00\n        /* \"#utility.yul\":28566:28633   */\n      tag_909\n        /* \"#utility.yul\":28630:28632   */\n      0x1b\n        /* \"#utility.yul\":28625:28628   */\n      dup4\n        /* \"#utility.yul\":28566:28633   */\n      tag_618\n      jump\t// in\n    tag_909:\n        /* \"#utility.yul\":28559:28633   */\n      swap2\n      pop\n        /* \"#utility.yul\":28642:28735   */\n      tag_910\n        /* \"#utility.yul\":28731:28734   */\n      dup3\n        /* \"#utility.yul\":28642:28735   */\n      tag_673\n      jump\t// in\n    tag_910:\n        /* \"#utility.yul\":28760:28762   */\n      0x20\n        /* \"#utility.yul\":28755:28758   */\n      dup3\n        /* \"#utility.yul\":28751:28763   */\n      add\n        /* \"#utility.yul\":28744:28763   */\n      swap1\n      pop\n        /* \"#utility.yul\":28403:28769   */\n      swap2\n      swap1\n      pop\n      jump\t// out\n        /* \"#utility.yul\":28775:29194   */\n    tag_512:\n        /* \"#utility.yul\":28941:28945   */\n      0x00\n        /* \"#utility.yul\":28979:28981   */\n      0x20\n        /* \"#utility.yul\":28968:28977   */\n      dup3\n        /* \"#utility.yul\":28964:28982   */\n      add\n        /* \"#utility.yul\":28956:28982   */\n      swap1\n      pop\n        /* \"#utility.yul\":29028:29037   */\n      dup2\n        /* \"#utility.yul\":29022:29026   */\n      dup2\n        /* \"#utility.yul\":29018:29038   */\n      sub\n        /* \"#utility.yul\":29014:29015   */\n      0x00\n        /* \"#utility.yul\":29003:29012   */\n      dup4\n        /* \"#utility.yul\":28999:29016   */\n      add\n        /* \"#utility.yul\":28992:29039   */\n      mstore\n        /* \"#utility.yul\":29056:29187   */\n      tag_912\n        /* \"#utility.yul\":29182:29186   */\n      dup2\n        /* \"#utility.yul\":29056:29187   */\n      tag_674\n      jump\t// in\n    tag_912:\n        /* \"#utility.yul\":29048:29187   */\n      swap1\n      pop\n        /* \"#utility.yul\":28775:29194   */\n      swap2\n      swap1\n      pop\n      jump\t// out\n        /* \"#utility.yul\":29200:29610   */\n    tag_540:\n        /* \"#utility.yul\":29240:29247   */\n      0x00\n        /* \"#utility.yul\":29263:29283   */\n      tag_914\n        /* \"#utility.yul\":29281:29282   */\n      dup3\n        /* \"#utility.yul\":29263:29283   */\n      tag_615\n      jump\t// in\n    tag_914:\n        /* \"#utility.yul\":29258:29283   */\n      swap2\n      pop\n        /* \"#utility.yul\":29297:29317   */\n      tag_915\n        /* \"#utility.yul\":29315:29316   */\n      dup4\n        /* \"#utility.yul\":29297:29317   */\n      tag_615\n      jump\t// in\n    tag_915:\n        /* \"#utility.yul\":29292:29317   */\n      swap3\n      pop\n        /* \"#utility.yul\":29352:29353   */\n      dup3\n        /* \"#utility.yul\":29349:29350   */\n      dup3\n        /* \"#utility.yul\":29345:29354   */\n      mul\n        /* \"#utility.yul\":29374:29404   */\n      tag_916\n        /* \"#utility.yul\":29392:29403   */\n      dup2\n        /* \"#utility.yul\":29374:29404   */\n      tag_615\n      jump\t// in\n    tag_916:\n        /* \"#utility.yul\":29363:29404   */\n      swap2\n      pop\n        /* \"#utility.yul\":29553:29554   */\n      dup3\n        /* \"#utility.yul\":29544:29551   */\n      dup3\n        /* \"#utility.yul\":29540:29555   */\n      div\n        /* \"#utility.yul\":29537:29538   */\n      dup5\n        /* \"#utility.yul\":29534:29556   */\n      eq\n        /* \"#utility.yul\":29514:29515   */\n      dup4\n        /* \"#utility.yul\":29507:29516   */\n      iszero\n        /* \"#utility.yul\":29487:29570   */\n      or\n        /* \"#utility.yul\":29464:29603   */\n      tag_917\n      jumpi\n        /* \"#utility.yul\":29583:29601   */\n      tag_918\n      tag_616\n      jump\t// in\n    tag_918:\n        /* \"#utility.yul\":29464:29603   */\n    tag_917:\n        /* \"#utility.yul\":29248:29610   */\n      pop\n        /* \"#utility.yul\":29200:29610   */\n      swap3\n      swap2\n      pop\n      pop\n      jump\t// out\n        /* \"#utility.yul\":29616:29796   */\n    tag_675:\n        /* \"#utility.yul\":29664:29741   */\n      0x4e487b7100000000000000000000000000000000000000000000000000000000\n        /* \"#utility.yul\":29661:29662   */\n      0x00\n        /* \"#utility.yul\":29654:29742   */\n      mstore\n        /* \"#utility.yul\":29761:29765   */\n      0x12\n        /* \"#utility.yul\":29758:29759   */\n      0x04\n        /* \"#utility.yul\":29751:29766   */\n      mstore\n        /* \"#utility.yul\":29785:29789   */\n      0x24\n        /* \"#utility.yul\":29782:29783   */\n      0x00\n        /* \"#utility.yul\":29775:29790   */\n      revert\n        /* \"#utility.yul\":29802:29987   */\n    tag_542:\n        /* \"#utility.yul\":29842:29843   */\n      0x00\n        /* \"#utility.yul\":29859:29879   */\n      tag_921\n        /* \"#utility.yul\":29877:29878   */\n      dup3\n        /* \"#utility.yul\":29859:29879   */\n      tag_615\n      jump\t// in\n    tag_921:\n        /* \"#utility.yul\":29854:29879   */\n      swap2\n      pop\n        /* \"#utility.yul\":29893:29913   */\n      tag_922\n        /* \"#utility.yul\":29911:29912   */\n      dup4\n        /* \"#utility.yul\":29893:29913   */\n      tag_615\n      jump\t// in\n    tag_922:\n        /* \"#utility.yul\":29888:29913   */\n      swap3\n      pop\n        /* \"#utility.yul\":29932:29933   */\n      dup3\n        /* \"#utility.yul\":29922:29957   */\n      tag_923\n      jumpi\n        /* \"#utility.yul\":29937:29955   */\n      tag_924\n      tag_675\n      jump\t// in\n    tag_924:\n        /* \"#utility.yul\":29922:29957   */\n    tag_923:\n        /* \"#utility.yul\":29979:29980   */\n      dup3\n        /* \"#utility.yul\":29976:29977   */\n      dup3\n        /* \"#utility.yul\":29972:29981   */\n      div\n        /* \"#utility.yul\":29967:29981   */\n      swap1\n      pop\n        /* \"#utility.yul\":29802:29987   */\n      swap3\n      swap2\n      pop\n      pop\n      jump\t// out\n        /* \"#utility.yul\":29993:30174   */\n    tag_676:\n        /* \"#utility.yul\":30133:30166   */\n      0x5265656e7472616e637947756172643a207265656e7472616e742063616c6c00\n        /* \"#utility.yul\":30129:30130   */\n      0x00\n        /* \"#utility.yul\":30121:30127   */\n      dup3\n        /* \"#utility.yul\":30117:30131   */\n      add\n        /* \"#utility.yul\":30110:30167   */\n      mstore\n        /* \"#utility.yul\":29993:30174   */\n      pop\n      jump\t// out\n        /* \"#utility.yul\":30180:30546   */\n    tag_677:\n        /* \"#utility.yul\":30322:30325   */\n      0x00\n        /* \"#utility.yul\":30343:30410   */\n      tag_927\n        /* \"#utility.yul\":30407:30409   */\n      0x1f\n        /* \"#utility.yul\":30402:30405   */\n      dup4\n        /* \"#utility.yul\":30343:30410   */\n      tag_618\n      jump\t// in\n    tag_927:\n        /* \"#utility.yul\":30336:30410   */\n      swap2\n      pop\n        /* \"#utility.yul\":30419:30512   */\n      tag_928\n        /* \"#utility.yul\":30508:30511   */\n      dup3\n        /* \"#utility.yul\":30419:30512   */\n      tag_676\n      jump\t// in\n    tag_928:\n        /* \"#utility.yul\":30537:30539   */\n      0x20\n        /* \"#utility.yul\":30532:30535   */\n      dup3\n        /* \"#utility.yul\":30528:30540   */\n      add\n        /* \"#utility.yul\":30521:30540   */\n      swap1\n      pop\n        /* \"#utility.yul\":30180:30546   */\n      swap2\n      swap1\n      pop\n      jump\t// out\n        /* \"#utility.yul\":30552:30971   */\n    tag_555:\n        /* \"#utility.yul\":30718:30722   */\n      0x00\n        /* \"#utility.yul\":30756:30758   */\n      0x20\n        /* \"#utility.yul\":30745:30754   */\n      dup3\n        /* \"#utility.yul\":30741:30759   */\n      add\n        /* \"#utility.yul\":30733:30759   */\n      swap1\n      pop\n        /* \"#utility.yul\":30805:30814   */\n      dup2\n        /* \"#utility.yul\":30799:30803   */\n      dup2\n        /* \"#utility.yul\":30795:30815   */\n      sub\n        /* \"#utility.yul\":30791:30792   */\n      0x00\n        /* \"#utility.yul\":30780:30789   */\n      dup4\n        /* \"#utility.yul\":30776:30793   */\n      add\n        /* \"#utility.yul\":30769:30816   */\n      mstore\n        /* \"#utility.yul\":30833:30964   */\n      tag_930\n        /* \"#utility.yul\":30959:30963   */\n      dup2\n        /* \"#utility.yul\":30833:30964   */\n      tag_677\n      jump\t// in\n    tag_930:\n        /* \"#utility.yul\":30825:30964   */\n      swap1\n      pop\n        /* \"#utility.yul\":30552:30971   */\n      swap2\n      swap1\n      pop\n      jump\t// out\n        /* \"#utility.yul\":30977:31143   */\n    tag_678:\n        /* \"#utility.yul\":31117:31135   */\n      0x5061757361626c653a2070617573656400000000000000000000000000000000\n        /* \"#utility.yul\":31113:31114   */\n      0x00\n        /* \"#utility.yul\":31105:31111   */\n      dup3\n        /* \"#utility.yul\":31101:31115   */\n      add\n        /* \"#utility.yul\":31094:31136   */\n      mstore\n        /* \"#utility.yul\":30977:31143   */\n      pop\n      jump\t// out\n        /* \"#utility.yul\":31149:31515   */\n    tag_679:\n        /* \"#utility.yul\":31291:31294   */\n      0x00\n        /* \"#utility.yul\":31312:31379   */\n      tag_933\n        /* \"#utility.yul\":31376:31378   */\n      0x10\n        /* \"#utility.yul\":31371:31374   */\n      dup4\n        /* \"#utility.yul\":31312:31379   */\n      tag_618\n      jump\t// in\n    tag_933:\n        /* \"#utility.yul\":31305:31379   */\n      swap2\n      pop\n        /* \"#utility.yul\":31388:31481   */\n      tag_934\n        /* \"#utility.yul\":31477:31480   */\n      dup3\n        /* \"#utility.yul\":31388:31481   */\n      tag_678\n      jump\t// in\n    tag_934:\n        /* \"#utility.yul\":31506:31508   */\n      0x20\n        /* \"#utility.yul\":31501:31504   */\n      dup3\n        /* \"#utility.yul\":31497:31509   */\n      add\n        /* \"#utility.yul\":31490:31509   */\n      swap1\n      pop\n        /* \"#utility.yul\":31149:31515   */\n      swap2\n      swap1\n      pop\n      jump\t// out\n        /* \"#utility.yul\":31521:31940   */\n    tag_561:\n        /* \"#utility.yul\":31687:31691   */\n      0x00\n        /* \"#utility.yul\":31725:31727   */\n      0x20\n        /* \"#utility.yul\":31714:31723   */\n      dup3\n        /* \"#utility.yul\":31710:31728   */\n      add\n        /* \"#utility.yul\":31702:31728   */\n      swap1\n      pop\n        /* \"#utility.yul\":31774:31783   */\n      dup2\n        /* \"#utility.yul\":31768:31772   */\n      dup2\n        /* \"#utility.yul\":31764:31784   */\n      sub\n        /* \"#utility.yul\":31760:31761   */\n      0x00\n        /* \"#utility.yul\":31749:31758   */\n      dup4\n        /* \"#utility.yul\":31745:31762   */\n      add\n        /* \"#utility.yul\":31738:31785   */\n      mstore\n        /* \"#utility.yul\":31802:31933   */\n      tag_936\n        /* \"#utility.yul\":31928:31932   */\n      dup2\n        /* \"#utility.yul\":31802:31933   */\n      tag_679\n      jump\t// in\n    tag_936:\n        /* \"#utility.yul\":31794:31933   */\n      swap1\n      pop\n        /* \"#utility.yul\":31521:31940   */\n      swap2\n      swap1\n      pop\n      jump\t// out\n        /* \"#utility.yul\":31946:32111   */\n    tag_680:\n        /* \"#utility.yul\":32086:32103   */\n      0x5472616e73666572206661696c65640000000000000000000000000000000000\n        /* \"#utility.yul\":32082:32083   */\n      0x00\n        /* \"#utility.yul\":32074:32080   */\n      dup3\n        /* \"#utility.yul\":32070:32084   */\n      add\n        /* \"#utility.yul\":32063:32104   */\n      mstore\n        /* \"#utility.yul\":31946:32111   */\n      pop\n      jump\t// out\n        /* \"#utility.yul\":32117:32483   */\n    tag_681:\n        /* \"#utility.yul\":32259:32262   */\n      0x00\n        /* \"#utility.yul\":32280:32347   */\n      tag_939\n        /* \"#utility.yul\":32344:32346   */\n      0x0f\n        /* \"#utility.yul\":32339:32342   */\n      dup4\n        /* \"#utility.yul\":32280:32347   */\n      tag_618\n      jump\t// in\n    tag_939:\n        /* \"#utility.yul\":32273:32347   */\n      swap2\n      pop\n        /* \"#utility.yul\":32356:32449   */\n      tag_940\n        /* \"#utility.yul\":32445:32448   */\n      dup3\n        /* \"#utility.yul\":32356:32449   */\n      tag_680\n      jump\t// in\n    tag_940:\n        /* \"#utility.yul\":32474:32476   */\n      0x20\n        /* \"#utility.yul\":32469:32472   */\n      dup3\n        /* \"#utility.yul\":32465:32477   */\n      add\n        /* \"#utility.yul\":32458:32477   */\n      swap1\n      pop\n        /* \"#utility.yul\":32117:32483   */\n      swap2\n      swap1\n      pop\n      jump\t// out\n        /* \"#utility.yul\":32489:32908   */\n    tag_585:\n        /* \"#utility.yul\":32655:32659   */\n      0x00\n        /* \"#utility.yul\":32693:32695   */\n      0x20\n        /* \"#utility.yul\":32682:32691   */\n      dup3\n        /* \"#utility.yul\":32678:32696   */\n      add\n        /* \"#utility.yul\":32670:32696   */\n      swap1\n      pop\n        /* \"#utility.yul\":32742:32751   */\n      dup2\n        /* \"#utility.yul\":32736:32740   */\n      dup2\n        /* \"#utility.yul\":32732:32752   */\n      sub\n        /* \"#utility.yul\":32728:32729   */\n      0x00\n        /* \"#utility.yul\":32717:32726   */\n      dup4\n        /* \"#utility.yul\":32713:32730   */\n      add\n        /* \"#utility.yul\":32706:32753   */\n      mstore\n        /* \"#utility.yul\":32770:32901   */\n      tag_942\n        /* \"#utility.yul\":32896:32900   */\n      dup2\n        /* \"#utility.yul\":32770:32901   */\n      tag_681\n      jump\t// in\n    tag_942:\n        /* \"#utility.yul\":32762:32901   */\n      swap1\n      pop\n        /* \"#utility.yul\":32489:32908   */\n      swap2\n      swap1\n      pop\n      jump\t// out\n        /* \"#utility.yul\":32914:33084   */\n    tag_682:\n        /* \"#utility.yul\":33054:33076   */\n      0x5061757361626c653a206e6f7420706175736564000000000000000000000000\n        /* \"#utility.yul\":33050:33051   */\n      0x00\n        /* \"#utility.yul\":33042:33048   */\n      dup3\n        /* \"#utility.yul\":33038:33052   */\n      add\n        /* \"#utility.yul\":33031:33077   */\n      mstore\n        /* \"#utility.yul\":32914:33084   */\n      pop\n      jump\t// out\n        /* \"#utility.yul\":33090:33456   */\n    tag_683:\n        /* \"#utility.yul\":33232:33235   */\n      0x00\n        /* \"#utility.yul\":33253:33320   */\n      tag_945\n        /* \"#utility.yul\":33317:33319   */\n      0x14\n        /* \"#utility.yul\":33312:33315   */\n      dup4\n        /* \"#utility.yul\":33253:33320   */\n      tag_618\n      jump\t// in\n    tag_945:\n        /* \"#utility.yul\":33246:33320   */\n      swap2\n      pop\n        /* \"#utility.yul\":33329:33422   */\n      tag_946\n        /* \"#utility.yul\":33418:33421   */\n      dup3\n        /* \"#utility.yul\":33329:33422   */\n      tag_682\n      jump\t// in\n    tag_946:\n        /* \"#utility.yul\":33447:33449   */\n      0x20\n        /* \"#utility.yul\":33442:33445   */\n      dup3\n        /* \"#utility.yul\":33438:33450   */\n      add\n        /* \"#utility.yul\":33431:33450   */\n      swap1\n      pop\n        /* \"#utility.yul\":33090:33456   */\n      swap2\n      swap1\n      pop\n      jump\t// out\n        /* \"#utility.yul\":33462:33881   */\n    tag_614:\n        /* \"#utility.yul\":33628:33632   */\n      0x00\n        /* \"#utility.yul\":33666:33668   */\n      0x20\n        /* \"#utility.yul\":33655:33664   */\n      dup3\n        /* \"#utility.yul\":33651:33669   */\n      add\n        /* \"#utility.yul\":33643:33669   */\n      swap1\n      pop\n        /* \"#utility.yul\":33715:33724   */\n      dup2\n        /* \"#utility.yul\":33709:33713   */\n      dup2\n        /* \"#utility.yul\":33705:33725   */\n      sub\n        /* \"#utility.yul\":33701:33702   */\n      0x00\n        /* \"#utility.yul\":33690:33699   */\n      dup4\n        /* \"#utility.yul\":33686:33703   */\n      add\n        /* \"#utility.yul\":33679:33726   */\n      mstore\n        /* \"#utility.yul\":33743:33874   */\n      tag_948\n        /* \"#utility.yul\":33869:33873   */\n      dup2\n        /* \"#utility.yul\":33743:33874   */\n      tag_683\n      jump\t// in\n    tag_948:\n        /* \"#utility.yul\":33735:33874   */\n      swap1\n      pop\n        /* \"#utility.yul\":33462:33881   */\n      swap2\n      swap1\n      pop\n      jump\t// out\n\n    auxdata: 0xa26469706673582212206a208a6494ed47384da9fbf6e67dbabcf9c126da380c19c036bae54cb1b5516b64736f6c634300081e0033\n}\n",
				"bytecode": {
					"linkReferences": {},
					"object": "608060405260c8600e5562093a80600f5534801561001b575f5ffd5b50335f73ffffffffffffffffffffffffffffffffffffffff168173ffffffffffffffffffffffffffffffffffffffff160361008d575f6040517f1e4fbdf700000000000000000000000000000000000000000000000000000000815260040161008491906101d8565b60405180910390fd5b61009c816100d860201b60201c565b50600180819055505f60025f6101000a81548160ff021916908315150217905550610190600760020181905550426007600301819055506101f1565b5f5f5f9054906101000a900473ffffffffffffffffffffffffffffffffffffffff169050815f5f6101000a81548173ffffffffffffffffffffffffffffffffffffffff021916908373ffffffffffffffffffffffffffffffffffffffff1602179055508173ffffffffffffffffffffffffffffffffffffffff168173ffffffffffffffffffffffffffffffffffffffff167f8be0079c531659141344cd1fd0a4f28419497f9722a3daafe3b4186f6b6457e060405160405180910390a35050565b5f73ffffffffffffffffffffffffffffffffffffffff82169050919050565b5f6101c282610199565b9050919050565b6101d2816101b8565b82525050565b5f6020820190506101eb5f8301846101c9565b92915050565b613f6c806101fe5f395ff3fe60806040526004361061026a575f3560e01c8063715018a611610143578063c69ecf0b116100b5578063e65eaff711610079578063e65eaff714610939578063e8421b5e14610967578063ec6694571461098f578063f2fde38b146109cb578063f4993bbd146109f3578063f74b51b314610a09576102c9565b8063c69ecf0b14610873578063caa7c8aa1461087d578063cec695fa14610893578063cffb911e146108cf578063e1f1c4a71461090f576102c9565b806396ca8d271161010757806396ca8d2714610773578063a83481e1146107af578063b4f74031146107d7578063b5d5b5fa14610801578063bb57ad2014610841578063c5b4f40714610857576102c9565b8063715018a6146106b7578063719de1ef146106cd5780638456cb59146107095780638da5cb5b1461071f578063962ca49614610749576102c9565b806330063e3b116101dc57806351858e27116101a057806351858e27146105bf578063536fff6c146105d557806358f85880146106115780635c975abb1461063b5780636340d55c146106655780636987ca1d1461068d576102c9565b806330063e3b14610517578063304a900d146105415780633f4ba83a1461056b578063454bbd29146105815780634a4e3bd5146105a9576102c9565b80631b545a171161022e5780631b545a17146103fb5780631bc6a778146104375780631e99921b1461047357806327ed71881461049d5780632d4c5abe146104c75780632f0f8a7a146104ef576102c9565b80630b48baba14610304578063148a1ed7146103405780631683e9ce1461037c57806316a54675146103a95780631a7a73c2146103d3576102c9565b366102c9575f3411156102c75734600d5f8282546102889190613051565b925050819055507ffd89f3716628d726d771436aef1a2b241477089ecdea8429f2dcdf2f2106c4a4346040516102be9190613093565b60405180910390a15b005b6040517f08c379a00000000000000000000000000000000000000000000000000000000081526004016102fb90613106565b60405180910390fd5b34801561030f575f5ffd5b5061032a600480360381019061032591906131ac565b610a25565b6040516103379190613093565b60405180910390f35b34801561034b575f5ffd5b50610366600480360381019061036191906131ea565b610a88565b6040516103739190613093565b60405180910390f35b348015610387575f5ffd5b50610390610aa2565b6040516103a09493929190613215565b60405180910390f35b3480156103b4575f5ffd5b506103bd610acb565b6040516103ca9190613093565b60405180910390f35b3480156103de575f5ffd5b506103f960048036038101906103f491906131ac565b610ad1565b005b348015610406575f5ffd5b50610421600480360381019061041c9190613258565b610c61565b60405161042e9190613093565b60405180910390f35b348015610442575f5ffd5b5061045d60048036038101906104589190613258565b610caa565b60405161046a9190613093565b60405180910390f35b34801561047e575f5ffd5b50610487610d54565b6040516104949190613093565b60405180910390f35b3480156104a8575f5ffd5b506104b1610d5b565b6040516104be9190613093565b60405180910390f35b3480156104d2575f5ffd5b506104ed60048036038101906104e89190613283565b610d66565b005b3480156104fa575f5ffd5b50610515600480360381019061051091906131ea565b610ff2565b005b348015610522575f5ffd5b5061052b6110a4565b6040516105389190613093565b60405180910390f35b34801561054c575f5ffd5b506105556110ad565b6040516105629190613093565b60405180910390f35b348015610576575f5ffd5b5061057f6110b2565b005b34801561058c575f5ffd5b506105a760048036038101906105a29190613308565b6110c4565b005b3480156105b4575f5ffd5b506105bd6111e0565b005b3480156105ca575f5ffd5b506105d36111f2565b005b3480156105e0575f5ffd5b506105fb60048036038101906105f69190613258565b611204565b6040516106089190613355565b60405180910390f35b34801561061c575f5ffd5b50610625611221565b6040516106329190613093565b60405180910390f35b348015610646575f5ffd5b5061064f611227565b60405161065c9190613355565b60405180910390f35b348015610670575f5ffd5b5061068b600480360381019061068691906131ea565b61123c565b005b348015610698575f5ffd5b506106a16112d3565b6040516106ae9190613093565b60405180910390f35b3480156106c2575f5ffd5b506106cb6112d9565b005b3480156106d8575f5ffd5b506106f360048036038101906106ee9190613258565b6112ec565b6040516107009190613093565b60405180910390f35b348015610714575f5ffd5b5061071d611301565b005b34801561072a575f5ffd5b50610733611313565b604051610740919061337d565b60405180910390f35b348015610754575f5ffd5b5061075d61133a565b60405161076a9190613093565b60405180910390f35b34801561077e575f5ffd5b5061079960048036038101906107949190613258565b611346565b6040516107a69190613093565b60405180910390f35b3480156107ba575f5ffd5b506107d560048036038101906107d091906131ac565b61135b565b005b3480156107e2575f5ffd5b506107eb61158a565b6040516107f89190613093565b60405180910390f35b34801561080c575f5ffd5b50610827600480360381019061082291906131ac565b611590565b604051610838959493929190613396565b60405180910390f35b34801561084c575f5ffd5b506108556115e8565b005b610871600480360381019061086c91906131ac565b611773565b005b61087b611bc9565b005b348015610888575f5ffd5b50610891611d22565b005b34801561089e575f5ffd5b506108b960048036038101906108b491906131ac565b611db4565b6040516108c6919061346b565b60405180910390f35b3480156108da575f5ffd5b506108f560048036038101906108f09190613484565b611eed565b604051610906959493929190613396565b60405180910390f35b34801561091a575f5ffd5b50610923611f45565b6040516109309190613093565b60405180910390f35b348015610944575f5ffd5b5061094d611f4b565b60405161095e9594939291906134c2565b60405180910390f35b348015610972575f5ffd5b5061098d600480360381019061098891906131ea565b611f6e565b005b34801561099a575f5ffd5b506109b560048036038101906109b091906131ea565b6120c4565b6040516109c29190613093565b60405180910390f35b3480156109d6575f5ffd5b506109f160048036038101906109ec9190613258565b6120d9565b005b3480156109fe575f5ffd5b50610a0761215d565b005b610a236004803603810190610a1e91906131ea565b612568565b005b5f60035f8473ffffffffffffffffffffffffffffffffffffffff1673ffffffffffffffffffffffffffffffffffffffff1681526020019081526020015f20805490508210610a75575f9050610a82565b610a7f8383612889565b90505b92915050565b5f60065f8381526020019081526020015f20549050919050565b5f5f5f5f60075f0154600760010154600760020154600760040154935093509350935090919293565b600d5481565b610ad9612969565b610ae16129f0565b5f73ffffffffffffffffffffffffffffffffffffffff168273ffffffffffffffffffffffffffffffffffffffff1603610b4f576040517f08c379a0000000000000000000000000000000000000000000000000000000008152600401610b469061355d565b60405180910390fd5b600d54811115610b94576040517f08c379a0000000000000000000000000000000000000000000000000000000008152600401610b8b906135c5565b60405180910390fd5b80600d5f828254610ba591906135e3565b925050819055505f8273ffffffffffffffffffffffffffffffffffffffff1682604051610bd190613643565b5f6040518083038185875af1925050503d805f8114610c0b576040519150601f19603f3d011682016040523d82523d5f602084013e610c10565b606091505b5050905080610c54576040517f08c379a0000000000000000000000000000000000000000000000000000000008152600401610c4b906136a1565b60405180910390fd5b50610c5d612a3f565b5050565b5f60035f8373ffffffffffffffffffffffffffffffffffffffff1673ffffffffffffffffffffffffffffffffffffffff1681526020019081526020015f20805490509050919050565b5f5f60035f8473ffffffffffffffffffffffffffffffffffffffff1673ffffffffffffffffffffffffffffffffffffffff1681526020019081526020015f2090505f5f90505b8180549050811015610d4d57610d068482612889565b828281548110610d1957610d186136bf565b5b905f5260205f20906005020160010154610d339190613051565b83610d3e9190613051565b92508080600101915050610cf0565b5050919050565b6201518081565b66038d7ea4c6800081565b600c5f3373ffffffffffffffffffffffffffffffffffffffff1673ffffffffffffffffffffffffffffffffffffffff1681526020019081526020015f205f9054906101000a900460ff1680610ded5750610dbe611313565b73ffffffffffffffffffffffffffffffffffffffff163373ffffffffffffffffffffffffffffffffffffffff16145b610e2c576040517f08c379a0000000000000000000000000000000000000000000000000000000008152600401610e2390613736565b60405180910390fd5b610e34612a48565b610e3c6129f0565b828260035f8373ffffffffffffffffffffffffffffffffffffffff1673ffffffffffffffffffffffffffffffffffffffff1681526020019081526020015f20805490508110610ec0576040517f08c379a0000000000000000000000000000000000000000000000000000000008152600401610eb79061379e565b60405180910390fd5b60035f8373ffffffffffffffffffffffffffffffffffffffff1673ffffffffffffffffffffffffffffffffffffffff1681526020019081526020015f208181548110610f0f57610f0e6136bf565b5b905f5260205f2090600502016004015f9054906101000a900460ff16610f6a576040517f08c379a0000000000000000000000000000000000000000000000000000000008152600401610f6190613806565b60405180910390fd5b5f73ffffffffffffffffffffffffffffffffffffffff168373ffffffffffffffffffffffffffffffffffffffff1603610fd8576040517f08c379a0000000000000000000000000000000000000000000000000000000008152600401610fcf9061355d565b60405180910390fd5b610fe3858585612a92565b5050610fed612a3f565b505050565b610ffa612969565b6032811015801561100d57506103208111155b61104c576040517f08c379a00000000000000000000000000000000000000000000000000000000081526004016110439061386e565b60405180910390fd5b611054612d71565b5f6007600201549050816007600201819055507f4959ad9023bf5b492922b51fbc7c0b5e5ec66aa39700e0da6d8af9b2d430898e818360405161109892919061388c565b60405180910390a15050565b5f600d54905090565b603281565b6110ba612969565b6110c2612e1b565b565b6110cc612969565b5f73ffffffffffffffffffffffffffffffffffffffff168273ffffffffffffffffffffffffffffffffffffffff160361113a576040517f08c379a0000000000000000000000000000000000000000000000000000000008152600401611131906138fd565b60405180910390fd5b80600c5f8473ffffffffffffffffffffffffffffffffffffffff1673ffffffffffffffffffffffffffffffffffffffff1681526020019081526020015f205f6101000a81548160ff0219169083151502179055508173ffffffffffffffffffffffffffffffffffffffff167fad857fa38c9319cb80848f1ef2f924383b90297eb5d71755738ff037d100faa1826040516111d49190613355565b60405180910390a25050565b6111e8612969565b6111f0612e1b565b565b6111fa612969565b611202612e7c565b565b600c602052805f5260405f205f915054906101000a900460ff1681565b600e5481565b5f60025f9054906101000a900460ff16905090565b611244612969565b6101f4811115611289576040517f08c379a000000000000000000000000000000000000000000000000000000000815260040161128090613965565b60405180910390fd5b5f600e54905081600e819055507f1d830358c94d390366ad7162b72e731448e195f3576e63b1f57f5e43c719c5aa81836040516112c792919061388c565b60405180910390a15050565b61032081565b6112e1612969565b6112ea5f612ede565b565b6005602052805f5260405f205f915090505481565b611309612969565b611311612e7c565b565b5f5f5f9054906101000a900473ffffffffffffffffffffffffffffffffffffffff16905090565b5f600760020154905090565b6010602052805f5260405f205f915090505481565b818160035f8373ffffffffffffffffffffffffffffffffffffffff1673ffffffffffffffffffffffffffffffffffffffff1681526020019081526020015f208054905081106113df576040517f08c379a00000000000000000000000000000000000000000000000000000000081526004016113d69061379e565b60405180910390fd5b60035f8373ffffffffffffffffffffffffffffffffffffffff1673ffffffffffffffffffffffffffffffffffffffff1681526020019081526020015f20818154811061142e5761142d6136bf565b5b905f5260205f2090600502016004015f9054906101000a900460ff16611489576040517f08c379a000000000000000000000000000000000000000000000000000000000815260040161148090613806565b60405180910390fd5b5f60035f8673ffffffffffffffffffffffffffffffffffffffff1673ffffffffffffffffffffffffffffffffffffffff1681526020019081526020015f2084815481106114d9576114d86136bf565b5b905f5260205f20906005020190505f6114f28686612889565b905080826001015f8282546115079190613051565b925050819055504282600201819055508060076001015f82825461152b9190613051565b925050819055508573ffffffffffffffffffffffffffffffffffffffff167faced61c86c507aa3c2be43553434c6ff191ea7cbbd812491a6ae59abc99d29dc828760405161157a92919061388c565b60405180910390a2505050505050565b600f5481565b6003602052815f5260405f2081815481106115a9575f80fd5b905f5260205f2090600502015f9150915050805f015490806001015490806002015490806003015490806004015f9054906101000a900460ff16905085565b600c5f3373ffffffffffffffffffffffffffffffffffffffff1673ffffffffffffffffffffffffffffffffffffffff1681526020019081526020015f205f9054906101000a900460ff168061166f5750611640611313565b73ffffffffffffffffffffffffffffffffffffffff163373ffffffffffffffffffffffffffffffffffffffff16145b6116ae576040517f08c379a00000000000000000000000000000000000000000000000000000000081526004016116a590613736565b60405180910390fd5b6116b66129f0565b5f600d54116116fa576040517f08c379a00000000000000000000000000000000000000000000000000000000081526004016116f1906139cd565b60405180910390fd5b5f60075f015411611740576040517f08c379a000000000000000000000000000000000000000000000000000000000815260040161173790613a35565b60405180910390fd5b5f600d5490505f600d819055508060076001015f8282546117619190613051565b9250508190555050611771612a3f565b565b600c5f3373ffffffffffffffffffffffffffffffffffffffff1673ffffffffffffffffffffffffffffffffffffffff1681526020019081526020015f205f9054906101000a900460ff16806117fa57506117cb611313565b73ffffffffffffffffffffffffffffffffffffffff163373ffffffffffffffffffffffffffffffffffffffff16145b611839576040517f08c379a000000000000000000000000000000000000000000000000000000000815260040161183090613736565b60405180910390fd5b611841612a48565b6118496129f0565b5f73ffffffffffffffffffffffffffffffffffffffff168273ffffffffffffffffffffffffffffffffffffffff16036118b7576040517f08c379a00000000000000000000000000000000000000000000000000000000081526004016118ae90613a9d565b60405180910390fd5b66038d7ea4c68000341015611901576040517f08c379a00000000000000000000000000000000000000000000000000000000081526004016118f890613b05565b60405180910390fd5b611909612d71565b5f6040518060a001604052803481526020015f815260200142815260200183815260200160011515815250905060035f8473ffffffffffffffffffffffffffffffffffffffff1673ffffffffffffffffffffffffffffffffffffffff1681526020019081526020015f2081908060018154018082558091505060019003905f5260205f2090600502015f909190919091505f820151815f01556020820151816001015560408201518160020155606082015181600301556080820151816004015f6101000a81548160ff02191690831515021790555050505f600160035f8673ffffffffffffffffffffffffffffffffffffffff1673ffffffffffffffffffffffffffffffffffffffff1681526020019081526020015f2080549050611a2f91906135e3565b90505f831115611ae05760045f8481526020019081526020015f2082908060018154018082558091505060019003905f5260205f2090600502015f909190919091505f820151815f01556020820151816001015560408201518160020155606082015181600301556080820151816004015f6101000a81548160ff02191690831515021790555050503460065f8581526020019081526020015f205f828254611ad89190613051565b925050819055505b3460055f8673ffffffffffffffffffffffffffffffffffffffff1673ffffffffffffffffffffffffffffffffffffffff1681526020019081526020015f205f828254611b2c9190613051565b925050819055503460075f015f828254611b469190613051565b92505081905550600160076004015f828254611b629190613051565b925050819055508373ffffffffffffffffffffffffffffffffffffffff167f55b223c72892936a872c1f417e7e143a0592419fe999642dbb4bccb55b8c6e83348584604051611bb393929190613b23565b60405180910390a25050611bc5612a3f565b5050565b600c5f3373ffffffffffffffffffffffffffffffffffffffff1673ffffffffffffffffffffffffffffffffffffffff1681526020019081526020015f205f9054906101000a900460ff1680611c505750611c21611313565b73ffffffffffffffffffffffffffffffffffffffff163373ffffffffffffffffffffffffffffffffffffffff16145b611c8f576040517f08c379a0000000000000000000000000000000000000000000000000000000008152600401611c8690613736565b60405180910390fd5b5f3411611cd1576040517f08c379a0000000000000000000000000000000000000000000000000000000008152600401611cc890613ba2565b60405180910390fd5b34600d5f828254611ce29190613051565b925050819055507ffd89f3716628d726d771436aef1a2b241477089ecdea8429f2dcdf2f2106c4a434604051611d189190613093565b60405180910390a1565b4260105f3373ffffffffffffffffffffffffffffffffffffffff1673ffffffffffffffffffffffffffffffffffffffff1681526020019081526020015f20819055503373ffffffffffffffffffffffffffffffffffffffff167fdcbf58b4b48819c95c8100c354ffdc3633d192e7c3eebfb025492de8c9226b1142604051611daa9190613093565b60405180910390a2565b611dbc612fef565b60035f8473ffffffffffffffffffffffffffffffffffffffff1673ffffffffffffffffffffffffffffffffffffffff1681526020019081526020015f20805490508210611e3e576040517f08c379a0000000000000000000000000000000000000000000000000000000008152600401611e359061379e565b60405180910390fd5b60035f8473ffffffffffffffffffffffffffffffffffffffff1673ffffffffffffffffffffffffffffffffffffffff1681526020019081526020015f208281548110611e8d57611e8c6136bf565b5b905f5260205f2090600502016040518060a00160405290815f8201548152602001600182015481526020016002820154815260200160038201548152602001600482015f9054906101000a900460ff161515151581525050905092915050565b6004602052815f5260405f208181548110611f06575f80fd5b905f5260205f2090600502015f9150915050805f015490806001015490806002015490806003015490806004015f9054906101000a900460ff16905085565b61271081565b6007805f0154908060010154908060020154908060030154908060040154905085565b611f76612a48565b611f7e6129f0565b338160035f8373ffffffffffffffffffffffffffffffffffffffff1673ffffffffffffffffffffffffffffffffffffffff1681526020019081526020015f20805490508110612002576040517f08c379a0000000000000000000000000000000000000000000000000000000008152600401611ff99061379e565b60405180910390fd5b60035f8373ffffffffffffffffffffffffffffffffffffffff1673ffffffffffffffffffffffffffffffffffffffff1681526020019081526020015f208181548110612051576120506136bf565b5b905f5260205f2090600502016004015f9054906101000a900460ff166120ac576040517f08c379a00000000000000000000000000000000000000000000000000000000081526004016120a390613806565b60405180910390fd5b6120b7338433612a92565b50506120c1612a3f565b50565b6006602052805f5260405f205f915090505481565b6120e1612969565b5f73ffffffffffffffffffffffffffffffffffffffff168173ffffffffffffffffffffffffffffffffffffffff1603612151575f6040517f1e4fbdf7000000000000000000000000000000000000000000000000000000008152600401612148919061337d565b60405180910390fd5b61215a81612ede565b50565b6121656129f0565b5f60105f3373ffffffffffffffffffffffffffffffffffffffff1673ffffffffffffffffffffffffffffffffffffffff1681526020019081526020015f20541180156121fb5750600f5460105f3373ffffffffffffffffffffffffffffffffffffffff1673ffffffffffffffffffffffffffffffffffffffff1681526020019081526020015f20546121f79190613051565b4210155b61223a576040517f08c379a000000000000000000000000000000000000000000000000000000000815260040161223190613c0a565b60405180910390fd5b5f60055f3373ffffffffffffffffffffffffffffffffffffffff1673ffffffffffffffffffffffffffffffffffffffff1681526020019081526020015f205490505f81116122bd576040517f08c379a00000000000000000000000000000000000000000000000000000000081526004016122b490613c72565b60405180910390fd5b5f60035f3373ffffffffffffffffffffffffffffffffffffffff1673ffffffffffffffffffffffffffffffffffffffff1681526020019081526020015f2090505f5f90505b81805490508110156123e057818181548110612321576123206136bf565b5b905f5260205f2090600502016004015f9054906101000a900460ff16156123d3575f828281548110612356576123556136bf565b5b905f5260205f2090600502016004015f6101000a81548160ff02191690831515021790555081818154811061238e5761238d6136bf565b5b905f5260205f2090600502015f015460075f015f8282546123af91906135e3565b92505081905550600160076004015f8282546123cb91906135e3565b925050819055505b8080600101915050612302565b505f60055f3373ffffffffffffffffffffffffffffffffffffffff1673ffffffffffffffffffffffffffffffffffffffff1681526020019081526020015f20819055505f60105f3373ffffffffffffffffffffffffffffffffffffffff1673ffffffffffffffffffffffffffffffffffffffff1681526020019081526020015f20819055505f3373ffffffffffffffffffffffffffffffffffffffff168360405161248a90613643565b5f6040518083038185875af1925050503d805f81146124c4576040519150601f19603f3d011682016040523d82523d5f602084013e6124c9565b606091505b505090508061250d576040517f08c379a000000000000000000000000000000000000000000000000000000000815260040161250490613cda565b60405180910390fd5b3373ffffffffffffffffffffffffffffffffffffffff167faf6e7d750e5a786a0b4d0e00806a5f778d09769d9c8c0ee377cc6df72af07115846040516125539190613093565b60405180910390a2505050612566612a3f565b565b612570612a48565b6125786129f0565b66038d7ea4c680003410156125c2576040517f08c379a00000000000000000000000000000000000000000000000000000000081526004016125b990613b05565b60405180910390fd5b6125ca612d71565b5f6040518060a001604052803481526020015f815260200142815260200183815260200160011515815250905060035f3373ffffffffffffffffffffffffffffffffffffffff1673ffffffffffffffffffffffffffffffffffffffff1681526020019081526020015f2081908060018154018082558091505060019003905f5260205f2090600502015f909190919091505f820151815f01556020820151816001015560408201518160020155606082015181600301556080820151816004015f6101000a81548160ff02191690831515021790555050505f600160035f3373ffffffffffffffffffffffffffffffffffffffff1673ffffffffffffffffffffffffffffffffffffffff1681526020019081526020015f20805490506126f091906135e3565b90505f8311156127a15760045f8481526020019081526020015f2082908060018154018082558091505060019003905f5260205f2090600502015f909190919091505f820151815f01556020820151816001015560408201518160020155606082015181600301556080820151816004015f6101000a81548160ff02191690831515021790555050503460065f8581526020019081526020015f205f8282546127999190613051565b925050819055505b3460055f3373ffffffffffffffffffffffffffffffffffffffff1673ffffffffffffffffffffffffffffffffffffffff1681526020019081526020015f205f8282546127ed9190613051565b925050819055503460075f015f8282546128079190613051565b92505081905550600160076004015f8282546128239190613051565b925050819055503373ffffffffffffffffffffffffffffffffffffffff167f55b223c72892936a872c1f417e7e143a0592419fe999642dbb4bccb55b8c6e8334858460405161287493929190613b23565b60405180910390a25050612886612a3f565b50565b5f5f60035f8573ffffffffffffffffffffffffffffffffffffffff1673ffffffffffffffffffffffffffffffffffffffff1681526020019081526020015f2083815481106128da576128d96136bf565b5b905f5260205f2090600502019050806004015f9054906101000a900460ff16612906575f915050612963565b5f81600201544261291791906135e3565b90505f612710600760020154845f01546129319190613cf8565b61293b9190613d66565b90505f6301e13380838361294f9190613cf8565b6129599190613d66565b9050809450505050505b92915050565b612971612f9f565b73ffffffffffffffffffffffffffffffffffffffff1661298f611313565b73ffffffffffffffffffffffffffffffffffffffff16146129ee576129b2612f9f565b6040517f118cdaa70000000000000000000000000000000000000000000000000000000081526004016129e5919061337d565b60405180910390fd5b565b600260015403612a35576040517f08c379a0000000000000000000000000000000000000000000000000000000008152600401612a2c90613de0565b60405180910390fd5b6002600181905550565b60018081905550565b612a50611227565b15612a90576040517f08c379a0000000000000000000000000000000000000000000000000000000008152600401612a8790613e48565b60405180910390fd5b565b5f60035f8573ffffffffffffffffffffffffffffffffffffffff1673ffffffffffffffffffffffffffffffffffffffff1681526020019081526020015f208381548110612ae257612ae16136bf565b5b905f5260205f20906005020190505f612afb8585612889565b905080826001015f828254612b109190613051565b925050819055505f8260010154835f0154612b2b9190613051565b90505f612710600e548560010154612b439190613cf8565b612b4d9190613d66565b90505f8183612b5c91906135e3565b90505f856003015490505f866004015f6101000a81548160ff021916908315150217905550855f015460055f8b73ffffffffffffffffffffffffffffffffffffffff1673ffffffffffffffffffffffffffffffffffffffff1681526020019081526020015f205f828254612bd091906135e3565b92505081905550855f015460075f015f828254612bed91906135e3565b92505081905550600160076004015f828254612c0991906135e3565b925050819055505f811115612c4357855f015460065f8381526020019081526020015f205f828254612c3b91906135e3565b925050819055505b5f831115612c645782600d5f828254612c5c9190613051565b925050819055505b5f8773ffffffffffffffffffffffffffffffffffffffff1683604051612c8990613643565b5f6040518083038185875af1925050503d805f8114612cc3576040519150601f19603f3d011682016040523d82523d5f602084013e612cc8565b606091505b5050905080612d0c576040517f08c379a0000000000000000000000000000000000000000000000000000000008152600401612d0390613eb0565b60405180910390fd5b8973ffffffffffffffffffffffffffffffffffffffff167fc8b5ab210e9d3b6a82b80aa35e2cc486dc439d18cbfef6006c423a516768f70b885f015489600101548c604051612d5d93929190613b23565b60405180910390a250505050505050505050565b4260076003018190555068056bc75e2d6310000060075f01541115612dcb57603280612d9d9190613051565b6007600201541115612dc657600a60076002015f828254612dbe91906135e3565b925050819055505b612e19565b678ac7230489e8000060075f01541015612e18576032610320612dee91906135e3565b6007600201541015612e1757600a60076002015f828254612e0f9190613051565b925050819055505b5b5b565b612e23612fa6565b5f60025f6101000a81548160ff0219169083151502179055507f5db9ee0a495bf2e6ff9c91a7834c1ba4fdd244a5e8aa4e537bd38aeae4b073aa612e65612f9f565b604051612e72919061337d565b60405180910390a1565b612e84612a48565b600160025f6101000a81548160ff0219169083151502179055507f62e78cea01bee320cd4e420270b5ea74000d11b0c9f74754ebdbfc544b05a258612ec7612f9f565b604051612ed4919061337d565b60405180910390a1565b5f5f5f9054906101000a900473ffffffffffffffffffffffffffffffffffffffff169050815f5f6101000a81548173ffffffffffffffffffffffffffffffffffffffff021916908373ffffffffffffffffffffffffffffffffffffffff1602179055508173ffffffffffffffffffffffffffffffffffffffff168173ffffffffffffffffffffffffffffffffffffffff167f8be0079c531659141344cd1fd0a4f28419497f9722a3daafe3b4186f6b6457e060405160405180910390a35050565b5f33905090565b612fae611227565b612fed576040517f08c379a0000000000000000000000000000000000000000000000000000000008152600401612fe490613f18565b60405180910390fd5b565b6040518060a001604052805f81526020015f81526020015f81526020015f81526020015f151581525090565b5f819050919050565b7f4e487b71000000000000000000000000000000000000000000000000000000005f52601160045260245ffd5b5f61305b8261301b565b91506130668361301b565b925082820190508082111561307e5761307d613024565b5b92915050565b61308d8161301b565b82525050565b5f6020820190506130a65f830184613084565b92915050565b5f82825260208201905092915050565b7f46756e6374696f6e206e6f7420666f756e6400000000000000000000000000005f82015250565b5f6130f06012836130ac565b91506130fb826130bc565b602082019050919050565b5f6020820190508181035f83015261311d816130e4565b9050919050565b5f5ffd5b5f73ffffffffffffffffffffffffffffffffffffffff82169050919050565b5f61315182613128565b9050919050565b61316181613147565b811461316b575f5ffd5b50565b5f8135905061317c81613158565b92915050565b61318b8161301b565b8114613195575f5ffd5b50565b5f813590506131a681613182565b92915050565b5f5f604083850312156131c2576131c1613124565b5b5f6131cf8582860161316e565b92505060206131e085828601613198565b9150509250929050565b5f602082840312156131ff576131fe613124565b5b5f61320c84828501613198565b91505092915050565b5f6080820190506132285f830187613084565b6132356020830186613084565b6132426040830185613084565b61324f6060830184613084565b95945050505050565b5f6020828403121561326d5761326c613124565b5b5f61327a8482850161316e565b91505092915050565b5f5f5f6060848603121561329a57613299613124565b5b5f6132a78682870161316e565b93505060206132b886828701613198565b92505060406132c98682870161316e565b9150509250925092565b5f8115159050919050565b6132e7816132d3565b81146132f1575f5ffd5b50565b5f81359050613302816132de565b92915050565b5f5f6040838503121561331e5761331d613124565b5b5f61332b8582860161316e565b925050602061333c858286016132f4565b9150509250929050565b61334f816132d3565b82525050565b5f6020820190506133685f830184613346565b92915050565b61337781613147565b82525050565b5f6020820190506133905f83018461336e565b92915050565b5f60a0820190506133a95f830188613084565b6133b66020830187613084565b6133c36040830186613084565b6133d06060830185613084565b6133dd6080830184613346565b9695505050505050565b6133f08161301b565b82525050565b6133ff816132d3565b82525050565b60a082015f8201516134195f8501826133e7565b50602082015161342c60208501826133e7565b50604082015161343f60408501826133e7565b50606082015161345260608501826133e7565b50608082015161346560808501826133f6565b50505050565b5f60a08201905061347e5f830184613405565b92915050565b5f5f6040838503121561349a57613499613124565b5b5f6134a785828601613198565b92505060206134b885828601613198565b9150509250929050565b5f60a0820190506134d55f830188613084565b6134e26020830187613084565b6134ef6040830186613084565b6134fc6060830185613084565b6135096080830184613084565b9695505050505050565b7f496e76616c696420726563697069656e740000000000000000000000000000005f82015250565b5f6135476011836130ac565b915061355282613513565b602082019050919050565b5f6020820190508181035f8301526135748161353b565b9050919050565b7f496e73756666696369656e7420666565730000000000000000000000000000005f82015250565b5f6135af6011836130ac565b91506135ba8261357b565b602082019050919050565b5f6020820190508181035f8301526135dc816135a3565b9050919050565b5f6135ed8261301b565b91506135f88361301b565b92508282039050818111156136105761360f613024565b5b92915050565b5f81905092915050565b50565b5f61362e5f83613616565b915061363982613620565b5f82019050919050565b5f61364d82613623565b9150819050919050565b7f466565207769746864726177616c206661696c656400000000000000000000005f82015250565b5f61368b6015836130ac565b915061369682613657565b602082019050919050565b5f6020820190508181035f8301526136b88161367f565b9050919050565b7f4e487b71000000000000000000000000000000000000000000000000000000005f52603260045260245ffd5b7f4e6f7420617574686f72697a65640000000000000000000000000000000000005f82015250565b5f613720600e836130ac565b915061372b826136ec565b602082019050919050565b5f6020820190508181035f83015261374d81613714565b9050919050565b7f496e76616c6964207374616b6520696e646578000000000000000000000000005f82015250565b5f6137886013836130ac565b915061379382613754565b602082019050919050565b5f6020820190508181035f8301526137b58161377c565b9050919050565b7f5374616b65206e6f7420616374697665000000000000000000000000000000005f82015250565b5f6137f06010836130ac565b91506137fb826137bc565b602082019050919050565b5f6020820190508181035f83015261381d816137e4565b9050919050565b7f496e76616c6964207969656c64207261746500000000000000000000000000005f82015250565b5f6138586012836130ac565b915061386382613824565b602082019050919050565b5f6020820190508181035f8301526138858161384c565b9050919050565b5f60408201905061389f5f830185613084565b6138ac6020830184613084565b9392505050565b7f496e76616c69642063616c6c65722061646472657373000000000000000000005f82015250565b5f6138e76016836130ac565b91506138f2826138b3565b602082019050919050565b5f6020820190508181035f830152613914816138db565b9050919050565b7f466565207261746520746f6f20686967680000000000000000000000000000005f82015250565b5f61394f6011836130ac565b915061395a8261391b565b602082019050919050565b5f6020820190508181035f83015261397c81613943565b9050919050565b7f4e6f206665657320746f206469737472696275746500000000000000000000005f82015250565b5f6139b76015836130ac565b91506139c282613983565b602082019050919050565b5f6020820190508181035f8301526139e4816139ab565b9050919050565b7f4e6f20616374697665207374616b6573000000000000000000000000000000005f82015250565b5f613a1f6010836130ac565b9150613a2a826139eb565b602082019050919050565b5f6020820190508181035f830152613a4c81613a13565b9050919050565b7f496e76616c6964207573657220616464726573730000000000000000000000005f82015250565b5f613a876014836130ac565b9150613a9282613a53565b602082019050919050565b5f6020820190508181035f830152613ab481613a7b565b9050919050565b7f5374616b6520616d6f756e7420746f6f206c6f770000000000000000000000005f82015250565b5f613aef6014836130ac565b9150613afa82613abb565b602082019050919050565b5f6020820190508181035f830152613b1c81613ae3565b9050919050565b5f606082019050613b365f830186613084565b613b436020830185613084565b613b506040830184613084565b949350505050565b7f4e6f206665657320746f20636f6c6c65637400000000000000000000000000005f82015250565b5f613b8c6012836130ac565b9150613b9782613b58565b602082019050919050565b5f6020820190508181035f830152613bb981613b80565b9050919050565b7f456d657267656e63792064656c6179206e6f74206d65740000000000000000005f82015250565b5f613bf46017836130ac565b9150613bff82613bc0565b602082019050919050565b5f6020820190508181035f830152613c2181613be8565b9050919050565b7f4e6f2066756e647320746f2077697468647261770000000000000000000000005f82015250565b5f613c5c6014836130ac565b9150613c6782613c28565b602082019050919050565b5f6020820190508181035f830152613c8981613c50565b9050919050565b7f456d657267656e6379207769746864726177616c206661696c656400000000005f82015250565b5f613cc4601b836130ac565b9150613ccf82613c90565b602082019050919050565b5f6020820190508181035f830152613cf181613cb8565b9050919050565b5f613d028261301b565b9150613d0d8361301b565b9250828202613d1b8161301b565b91508282048414831517613d3257613d31613024565b5b5092915050565b7f4e487b71000000000000000000000000000000000000000000000000000000005f52601260045260245ffd5b5f613d708261301b565b9150613d7b8361301b565b925082613d8b57613d8a613d39565b5b828204905092915050565b7f5265656e7472616e637947756172643a207265656e7472616e742063616c6c005f82015250565b5f613dca601f836130ac565b9150613dd582613d96565b602082019050919050565b5f6020820190508181035f830152613df781613dbe565b9050919050565b7f5061757361626c653a20706175736564000000000000000000000000000000005f82015250565b5f613e326010836130ac565b9150613e3d82613dfe565b602082019050919050565b5f6020820190508181035f830152613e5f81613e26565b9050919050565b7f5472616e73666572206661696c656400000000000000000000000000000000005f82015250565b5f613e9a600f836130ac565b9150613ea582613e66565b602082019050919050565b5f6020820190508181035f830152613ec781613e8e565b9050919050565b7f5061757361626c653a206e6f74207061757365640000000000000000000000005f82015250565b5f613f026014836130ac565b9150613f0d82613ece565b602082019050919050565b5f6020820190508181035f830152613f2f81613ef6565b905091905056fea26469706673582212206a208a6494ed47384da9fbf6e67dbabcf9c126da380c19c036bae54cb1b5516b64736f6c634300081e0033",
					"opcodes": "PUSH1 0x80 PUSH1 0x40 MSTORE PUSH1 0xC8 PUSH1 0xE SSTORE PUSH3 0x93A80 PUSH1 0xF SSTORE CALLVALUE DUP1 ISZERO PUSH2 0x1B JUMPI PUSH0 PUSH0 REVERT JUMPDEST POP CALLER PUSH0 PUSH20 0xFFFFFFFFFFFFFFFFFFFFFFFFFFFFFFFFFFFFFFFF AND DUP2 PUSH20 0xFFFFFFFFFFFFFFFFFFFFFFFFFFFFFFFFFFFFFFFF AND SUB PUSH2 0x8D JUMPI PUSH0 PUSH1 0x40 MLOAD PUSH32 0x1E4FBDF700000000000000000000000000000000000000000000000000000000 DUP2 MSTORE PUSH1 0x4 ADD PUSH2 0x84 SWAP2 SWAP1 PUSH2 0x1D8 JUMP JUMPDEST PUSH1 0x40 MLOAD DUP1 SWAP2 SUB SWAP1 REVERT JUMPDEST PUSH2 0x9C DUP2 PUSH2 0xD8 PUSH1 0x20 SHL PUSH1 0x20 SHR JUMP JUMPDEST POP PUSH1 0x1 DUP1 DUP2 SWAP1 SSTORE POP PUSH0 PUSH1 0x2 PUSH0 PUSH2 0x100 EXP DUP2 SLOAD DUP2 PUSH1 0xFF MUL NOT AND SWAP1 DUP4 ISZERO ISZERO MUL OR SWAP1 SSTORE POP PUSH2 0x190 PUSH1 0x7 PUSH1 0x2 ADD DUP2 SWAP1 SSTORE POP TIMESTAMP PUSH1 0x7 PUSH1 0x3 ADD DUP2 SWAP1 SSTORE POP PUSH2 0x1F1 JUMP JUMPDEST PUSH0 PUSH0 PUSH0 SWAP1 SLOAD SWAP1 PUSH2 0x100 EXP SWAP1 DIV PUSH20 0xFFFFFFFFFFFFFFFFFFFFFFFFFFFFFFFFFFFFFFFF AND SWAP1 POP DUP2 PUSH0 PUSH0 PUSH2 0x100 EXP DUP2 SLOAD DUP2 PUSH20 0xFFFFFFFFFFFFFFFFFFFFFFFFFFFFFFFFFFFFFFFF MUL NOT AND SWAP1 DUP4 PUSH20 0xFFFFFFFFFFFFFFFFFFFFFFFFFFFFFFFFFFFFFFFF AND MUL OR SWAP1 SSTORE POP DUP2 PUSH20 0xFFFFFFFFFFFFFFFFFFFFFFFFFFFFFFFFFFFFFFFF AND DUP2 PUSH20 0xFFFFFFFFFFFFFFFFFFFFFFFFFFFFFFFFFFFFFFFF AND PUSH32 0x8BE0079C531659141344CD1FD0A4F28419497F9722A3DAAFE3B4186F6B6457E0 PUSH1 0x40 MLOAD PUSH1 0x40 MLOAD DUP1 SWAP2 SUB SWAP1 LOG3 POP POP JUMP JUMPDEST PUSH0 PUSH20 0xFFFFFFFFFFFFFFFFFFFFFFFFFFFFFFFFFFFFFFFF DUP3 AND SWAP1 POP SWAP2 SWAP1 POP JUMP JUMPDEST PUSH0 PUSH2 0x1C2 DUP3 PUSH2 0x199 JUMP JUMPDEST SWAP1 POP SWAP2 SWAP1 POP JUMP JUMPDEST PUSH2 0x1D2 DUP2 PUSH2 0x1B8 JUMP JUMPDEST DUP3 MSTORE POP POP JUMP JUMPDEST PUSH0 PUSH1 0x20 DUP3 ADD SWAP1 POP PUSH2 0x1EB PUSH0 DUP4 ADD DUP5 PUSH2 0x1C9 JUMP JUMPDEST SWAP3 SWAP2 POP POP JUMP JUMPDEST PUSH2 0x3F6C DUP1 PUSH2 0x1FE PUSH0 CODECOPY PUSH0 RETURN INVALID PUSH1 0x80 PUSH1 0x40 MSTORE PUSH1 0x4 CALLDATASIZE LT PUSH2 0x26A JUMPI PUSH0 CALLDATALOAD PUSH1 0xE0 SHR DUP1 PUSH4 0x715018A6 GT PUSH2 0x143 JUMPI DUP1 PUSH4 0xC69ECF0B GT PUSH2 0xB5 JUMPI DUP1 PUSH4 0xE65EAFF7 GT PUSH2 0x79 JUMPI DUP1 PUSH4 0xE65EAFF7 EQ PUSH2 0x939 JUMPI DUP1 PUSH4 0xE8421B5E EQ PUSH2 0x967 JUMPI DUP1 PUSH4 0xEC669457 EQ PUSH2 0x98F JUMPI DUP1 PUSH4 0xF2FDE38B EQ PUSH2 0x9CB JUMPI DUP1 PUSH4 0xF4993BBD EQ PUSH2 0x9F3 JUMPI DUP1 PUSH4 0xF74B51B3 EQ PUSH2 0xA09 JUMPI PUSH2 0x2C9 JUMP JUMPDEST DUP1 PUSH4 0xC69ECF0B EQ PUSH2 0x873 JUMPI DUP1 PUSH4 0xCAA7C8AA EQ PUSH2 0x87D JUMPI DUP1 PUSH4 0xCEC695FA EQ PUSH2 0x893 JUMPI DUP1 PUSH4 0xCFFB911E EQ PUSH2 0x8CF JUMPI DUP1 PUSH4 0xE1F1C4A7 EQ PUSH2 0x90F JUMPI PUSH2 0x2C9 JUMP JUMPDEST DUP1 PUSH4 0x96CA8D27 GT PUSH2 0x107 JUMPI DUP1 PUSH4 0x96CA8D27 EQ PUSH2 0x773 JUMPI DUP1 PUSH4 0xA83481E1 EQ PUSH2 0x7AF JUMPI DUP1 PUSH4 0xB4F74031 EQ PUSH2 0x7D7 JUMPI DUP1 PUSH4 0xB5D5B5FA EQ PUSH2 0x801 JUMPI DUP1 PUSH4 0xBB57AD20 EQ PUSH2 0x841 JUMPI DUP1 PUSH4 0xC5B4F407 EQ PUSH2 0x857 JUMPI PUSH2 0x2C9 JUMP JUMPDEST DUP1 PUSH4 0x715018A6 EQ PUSH2 0x6B7 JUMPI DUP1 PUSH4 0x719DE1EF EQ PUSH2 0x6CD JUMPI DUP1 PUSH4 0x8456CB59 EQ PUSH2 0x709 JUMPI DUP1 PUSH4 0x8DA5CB5B EQ PUSH2 0x71F JUMPI DUP1 PUSH4 0x962CA496 EQ PUSH2 0x749 JUMPI PUSH2 0x2C9 JUMP JUMPDEST DUP1 PUSH4 0x30063E3B GT PUSH2 0x1DC JUMPI DUP1 PUSH4 0x51858E27 GT PUSH2 0x1A0 JUMPI DUP1 PUSH4 0x51858E27 EQ PUSH2 0x5BF JUMPI DUP1 PUSH4 0x536FFF6C EQ PUSH2 0x5D5 JUMPI DUP1 PUSH4 0x58F85880 EQ PUSH2 0x611 JUMPI DUP1 PUSH4 0x5C975ABB EQ PUSH2 0x63B JUMPI DUP1 PUSH4 0x6340D55C EQ PUSH2 0x665 JUMPI DUP1 PUSH4 0x6987CA1D EQ PUSH2 0x68D JUMPI PUSH2 0x2C9 JUMP JUMPDEST DUP1 PUSH4 0x30063E3B EQ PUSH2 0x517 JUMPI DUP1 PUSH4 0x304A900D EQ PUSH2 0x541 JUMPI DUP1 PUSH4 0x3F4BA83A EQ PUSH2 0x56B JUMPI DUP1 PUSH4 0x454BBD29 EQ PUSH2 0x581 JUMPI DUP1 PUSH4 0x4A4E3BD5 EQ PUSH2 0x5A9 JUMPI PUSH2 0x2C9 JUMP JUMPDEST DUP1 PUSH4 0x1B545A17 GT PUSH2 0x22E JUMPI DUP1 PUSH4 0x1B545A17 EQ PUSH2 0x3FB JUMPI DUP1 PUSH4 0x1BC6A778 EQ PUSH2 0x437 JUMPI DUP1 PUSH4 0x1E99921B EQ PUSH2 0x473 JUMPI DUP1 PUSH4 0x27ED7188 EQ PUSH2 0x49D JUMPI DUP1 PUSH4 0x2D4C5ABE EQ PUSH2 0x4C7 JUMPI DUP1 PUSH4 0x2F0F8A7A EQ PUSH2 0x4EF JUMPI PUSH2 0x2C9 JUMP JUMPDEST DUP1 PUSH4 0xB48BABA EQ PUSH2 0x304 JUMPI DUP1 PUSH4 0x148A1ED7 EQ PUSH2 0x340 JUMPI DUP1 PUSH4 0x1683E9CE EQ PUSH2 0x37C JUMPI DUP1 PUSH4 0x16A54675 EQ PUSH2 0x3A9 JUMPI DUP1 PUSH4 0x1A7A73C2 EQ PUSH2 0x3D3 JUMPI PUSH2 0x2C9 JUMP JUMPDEST CALLDATASIZE PUSH2 0x2C9 JUMPI PUSH0 CALLVALUE GT ISZERO PUSH2 0x2C7 JUMPI CALLVALUE PUSH1 0xD PUSH0 DUP3 DUP3 SLOAD PUSH2 0x288 SWAP2 SWAP1 PUSH2 0x3051 JUMP JUMPDEST SWAP3 POP POP DUP2 SWAP1 SSTORE POP PUSH32 0xFD89F3716628D726D771436AEF1A2B241477089ECDEA8429F2DCDF2F2106C4A4 CALLVALUE PUSH1 0x40 MLOAD PUSH2 0x2BE SWAP2 SWAP1 PUSH2 0x3093 JUMP JUMPDEST PUSH1 0x40 MLOAD DUP1 SWAP2 SUB SWAP1 LOG1 JUMPDEST STOP JUMPDEST PUSH1 0x40 MLOAD PUSH32 0x8C379A000000000000000000000000000000000000000000000000000000000 DUP2 MSTORE PUSH1 0x4 ADD PUSH2 0x2FB SWAP1 PUSH2 0x3106 JUMP JUMPDEST PUSH1 0x40 MLOAD DUP1 SWAP2 SUB SWAP1 REVERT JUMPDEST CALLVALUE DUP1 ISZERO PUSH2 0x30F JUMPI PUSH0 PUSH0 REVERT JUMPDEST POP PUSH2 0x32A PUSH1 0x4 DUP1 CALLDATASIZE SUB DUP2 ADD SWAP1 PUSH2 0x325 SWAP2 SWAP1 PUSH2 0x31AC JUMP JUMPDEST PUSH2 0xA25 JUMP JUMPDEST PUSH1 0x40 MLOAD PUSH2 0x337 SWAP2 SWAP1 PUSH2 0x3093 JUMP JUMPDEST PUSH1 0x40 MLOAD DUP1 SWAP2 SUB SWAP1 RETURN JUMPDEST CALLVALUE DUP1 ISZERO PUSH2 0x34B JUMPI PUSH0 PUSH0 REVERT JUMPDEST POP PUSH2 0x366 PUSH1 0x4 DUP1 CALLDATASIZE SUB DUP2 ADD SWAP1 PUSH2 0x361 SWAP2 SWAP1 PUSH2 0x31EA JUMP JUMPDEST PUSH2 0xA88 JUMP JUMPDEST PUSH1 0x40 MLOAD PUSH2 0x373 SWAP2 SWAP1 PUSH2 0x3093 JUMP JUMPDEST PUSH1 0x40 MLOAD DUP1 SWAP2 SUB SWAP1 RETURN JUMPDEST CALLVALUE DUP1 ISZERO PUSH2 0x387 JUMPI PUSH0 PUSH0 REVERT JUMPDEST POP PUSH2 0x390 PUSH2 0xAA2 JUMP JUMPDEST PUSH1 0x40 MLOAD PUSH2 0x3A0 SWAP5 SWAP4 SWAP3 SWAP2 SWAP1 PUSH2 0x3215 JUMP JUMPDEST PUSH1 0x40 MLOAD DUP1 SWAP2 SUB SWAP1 RETURN JUMPDEST CALLVALUE DUP1 ISZERO PUSH2 0x3B4 JUMPI PUSH0 PUSH0 REVERT JUMPDEST POP PUSH2 0x3BD PUSH2 0xACB JUMP JUMPDEST PUSH1 0x40 MLOAD PUSH2 0x3CA SWAP2 SWAP1 PUSH2 0x3093 JUMP JUMPDEST PUSH1 0x40 MLOAD DUP1 SWAP2 SUB SWAP1 RETURN JUMPDEST CALLVALUE DUP1 ISZERO PUSH2 0x3DE JUMPI PUSH0 PUSH0 REVERT JUMPDEST POP PUSH2 0x3F9 PUSH1 0x4 DUP1 CALLDATASIZE SUB DUP2 ADD SWAP1 PUSH2 0x3F4 SWAP2 SWAP1 PUSH2 0x31AC JUMP JUMPDEST PUSH2 0xAD1 JUMP JUMPDEST STOP JUMPDEST CALLVALUE DUP1 ISZERO PUSH2 0x406 JUMPI PUSH0 PUSH0 REVERT JUMPDEST POP PUSH2 0x421 PUSH1 0x4 DUP1 CALLDATASIZE SUB DUP2 ADD SWAP1 PUSH2 0x41C SWAP2 SWAP1 PUSH2 0x3258 JUMP JUMPDEST PUSH2 0xC61 JUMP JUMPDEST PUSH1 0x40 MLOAD PUSH2 0x42E SWAP2 SWAP1 PUSH2 0x3093 JUMP JUMPDEST PUSH1 0x40 MLOAD DUP1 SWAP2 SUB SWAP1 RETURN JUMPDEST CALLVALUE DUP1 ISZERO PUSH2 0x442 JUMPI PUSH0 PUSH0 REVERT JUMPDEST POP PUSH2 0x45D PUSH1 0x4 DUP1 CALLDATASIZE SUB DUP2 ADD SWAP1 PUSH2 0x458 SWAP2 SWAP1 PUSH2 0x3258 JUMP JUMPDEST PUSH2 0xCAA JUMP JUMPDEST PUSH1 0x40 MLOAD PUSH2 0x46A SWAP2 SWAP1 PUSH2 0x3093 JUMP JUMPDEST PUSH1 0x40 MLOAD DUP1 SWAP2 SUB SWAP1 RETURN JUMPDEST CALLVALUE DUP1 ISZERO PUSH2 0x47E JUMPI PUSH0 PUSH0 REVERT JUMPDEST POP PUSH2 0x487 PUSH2 0xD54 JUMP JUMPDEST PUSH1 0x40 MLOAD PUSH2 0x494 SWAP2 SWAP1 PUSH2 0x3093 JUMP JUMPDEST PUSH1 0x40 MLOAD DUP1 SWAP2 SUB SWAP1 RETURN JUMPDEST CALLVALUE DUP1 ISZERO PUSH2 0x4A8 JUMPI PUSH0 PUSH0 REVERT JUMPDEST POP PUSH2 0x4B1 PUSH2 0xD5B JUMP JUMPDEST PUSH1 0x40 MLOAD PUSH2 0x4BE SWAP2 SWAP1 PUSH2 0x3093 JUMP JUMPDEST PUSH1 0x40 MLOAD DUP1 SWAP2 SUB SWAP1 RETURN JUMPDEST CALLVALUE DUP1 ISZERO PUSH2 0x4D2 JUMPI PUSH0 PUSH0 REVERT JUMPDEST POP PUSH2 0x4ED PUSH1 0x4 DUP1 CALLDATASIZE SUB DUP2 ADD SWAP1 PUSH2 0x4E8 SWAP2 SWAP1 PUSH2 0x3283 JUMP JUMPDEST PUSH2 0xD66 JUMP JUMPDEST STOP JUMPDEST CALLVALUE DUP1 ISZERO PUSH2 0x4FA JUMPI PUSH0 PUSH0 REVERT JUMPDEST POP PUSH2 0x515 PUSH1 0x4 DUP1 CALLDATASIZE SUB DUP2 ADD SWAP1 PUSH2 0x510 SWAP2 SWAP1 PUSH2 0x31EA JUMP JUMPDEST PUSH2 0xFF2 JUMP JUMPDEST STOP JUMPDEST CALLVALUE DUP1 ISZERO PUSH2 0x522 JUMPI PUSH0 PUSH0 REVERT JUMPDEST POP PUSH2 0x52B PUSH2 0x10A4 JUMP JUMPDEST PUSH1 0x40 MLOAD PUSH2 0x538 SWAP2 SWAP1 PUSH2 0x3093 JUMP JUMPDEST PUSH1 0x40 MLOAD DUP1 SWAP2 SUB SWAP1 RETURN JUMPDEST CALLVALUE DUP1 ISZERO PUSH2 0x54C JUMPI PUSH0 PUSH0 REVERT JUMPDEST POP PUSH2 0x555 PUSH2 0x10AD JUMP JUMPDEST PUSH1 0x40 MLOAD PUSH2 0x562 SWAP2 SWAP1 PUSH2 0x3093 JUMP JUMPDEST PUSH1 0x40 MLOAD DUP1 SWAP2 SUB SWAP1 RETURN JUMPDEST CALLVALUE DUP1 ISZERO PUSH2 0x576 JUMPI PUSH0 PUSH0 REVERT JUMPDEST POP PUSH2 0x57F PUSH2 0x10B2 JUMP JUMPDEST STOP JUMPDEST CALLVALUE DUP1 ISZERO PUSH2 0x58C JUMPI PUSH0 PUSH0 REVERT JUMPDEST POP PUSH2 0x5A7 PUSH1 0x4 DUP1 CALLDATASIZE SUB DUP2 ADD SWAP1 PUSH2 0x5A2 SWAP2 SWAP1 PUSH2 0x3308 JUMP JUMPDEST PUSH2 0x10C4 JUMP JUMPDEST STOP JUMPDEST CALLVALUE DUP1 ISZERO PUSH2 0x5B4 JUMPI PUSH0 PUSH0 REVERT JUMPDEST POP PUSH2 0x5BD PUSH2 0x11E0 JUMP JUMPDEST STOP JUMPDEST CALLVALUE DUP1 ISZERO PUSH2 0x5CA JUMPI PUSH0 PUSH0 REVERT JUMPDEST POP PUSH2 0x5D3 PUSH2 0x11F2 JUMP JUMPDEST STOP JUMPDEST CALLVALUE DUP1 ISZERO PUSH2 0x5E0 JUMPI PUSH0 PUSH0 REVERT JUMPDEST POP PUSH2 0x5FB PUSH1 0x4 DUP1 CALLDATASIZE SUB DUP2 ADD SWAP1 PUSH2 0x5F6 SWAP2 SWAP1 PUSH2 0x3258 JUMP JUMPDEST PUSH2 0x1204 JUMP JUMPDEST PUSH1 0x40 MLOAD PUSH2 0x608 SWAP2 SWAP1 PUSH2 0x3355 JUMP JUMPDEST PUSH1 0x40 MLOAD DUP1 SWAP2 SUB SWAP1 RETURN JUMPDEST CALLVALUE DUP1 ISZERO PUSH2 0x61C JUMPI PUSH0 PUSH0 REVERT JUMPDEST POP PUSH2 0x625 PUSH2 0x1221 JUMP JUMPDEST PUSH1 0x40 MLOAD PUSH2 0x632 SWAP2 SWAP1 PUSH2 0x3093 JUMP JUMPDEST PUSH1 0x40 MLOAD DUP1 SWAP2 SUB SWAP1 RETURN JUMPDEST CALLVALUE DUP1 ISZERO PUSH2 0x646 JUMPI PUSH0 PUSH0 REVERT JUMPDEST POP PUSH2 0x64F PUSH2 0x1227 JUMP JUMPDEST PUSH1 0x40 MLOAD PUSH2 0x65C SWAP2 SWAP1 PUSH2 0x3355 JUMP JUMPDEST PUSH1 0x40 MLOAD DUP1 SWAP2 SUB SWAP1 RETURN JUMPDEST CALLVALUE DUP1 ISZERO PUSH2 0x670 JUMPI PUSH0 PUSH0 REVERT JUMPDEST POP PUSH2 0x68B PUSH1 0x4 DUP1 CALLDATASIZE SUB DUP2 ADD SWAP1 PUSH2 0x686 SWAP2 SWAP1 PUSH2 0x31EA JUMP JUMPDEST PUSH2 0x123C JUMP JUMPDEST STOP JUMPDEST CALLVALUE DUP1 ISZERO PUSH2 0x698 JUMPI PUSH0 PUSH0 REVERT JUMPDEST POP PUSH2 0x6A1 PUSH2 0x12D3 JUMP JUMPDEST PUSH1 0x40 MLOAD PUSH2 0x6AE SWAP2 SWAP1 PUSH2 0x3093 JUMP JUMPDEST PUSH1 0x40 MLOAD DUP1 SWAP2 SUB SWAP1 RETURN JUMPDEST CALLVALUE DUP1 ISZERO PUSH2 0x6C2 JUMPI PUSH0 PUSH0 REVERT JUMPDEST POP PUSH2 0x6CB PUSH2 0x12D9 JUMP JUMPDEST STOP JUMPDEST CALLVALUE DUP1 ISZERO PUSH2 0x6D8 JUMPI PUSH0 PUSH0 REVERT JUMPDEST POP PUSH2 0x6F3 PUSH1 0x4 DUP1 CALLDATASIZE SUB DUP2 ADD SWAP1 PUSH2 0x6EE SWAP2 SWAP1 PUSH2 0x3258 JUMP JUMPDEST PUSH2 0x12EC JUMP JUMPDEST PUSH1 0x40 MLOAD PUSH2 0x700 SWAP2 SWAP1 PUSH2 0x3093 JUMP JUMPDEST PUSH1 0x40 MLOAD DUP1 SWAP2 SUB SWAP1 RETURN JUMPDEST CALLVALUE DUP1 ISZERO PUSH2 0x714 JUMPI PUSH0 PUSH0 REVERT JUMPDEST POP PUSH2 0x71D PUSH2 0x1301 JUMP JUMPDEST STOP JUMPDEST CALLVALUE DUP1 ISZERO PUSH2 0x72A JUMPI PUSH0 PUSH0 REVERT JUMPDEST POP PUSH2 0x733 PUSH2 0x1313 JUMP JUMPDEST PUSH1 0x40 MLOAD PUSH2 0x740 SWAP2 SWAP1 PUSH2 0x337D JUMP JUMPDEST PUSH1 0x40 MLOAD DUP1 SWAP2 SUB SWAP1 RETURN JUMPDEST CALLVALUE DUP1 ISZERO PUSH2 0x754 JUMPI PUSH0 PUSH0 REVERT JUMPDEST POP PUSH2 0x75D PUSH2 0x133A JUMP JUMPDEST PUSH1 0x40 MLOAD PUSH2 0x76A SWAP2 SWAP1 PUSH2 0x3093 JUMP JUMPDEST PUSH1 0x40 MLOAD DUP1 SWAP2 SUB SWAP1 RETURN JUMPDEST CALLVALUE DUP1 ISZERO PUSH2 0x77E JUMPI PUSH0 PUSH0 REVERT JUMPDEST POP PUSH2 0x799 PUSH1 0x4 DUP1 CALLDATASIZE SUB DUP2 ADD SWAP1 PUSH2 0x794 SWAP2 SWAP1 PUSH2 0x3258 JUMP JUMPDEST PUSH2 0x1346 JUMP JUMPDEST PUSH1 0x40 MLOAD PUSH2 0x7A6 SWAP2 SWAP1 PUSH2 0x3093 JUMP JUMPDEST PUSH1 0x40 MLOAD DUP1 SWAP2 SUB SWAP1 RETURN JUMPDEST CALLVALUE DUP1 ISZERO PUSH2 0x7BA JUMPI PUSH0 PUSH0 REVERT JUMPDEST POP PUSH2 0x7D5 PUSH1 0x4 DUP1 CALLDATASIZE SUB DUP2 ADD SWAP1 PUSH2 0x7D0 SWAP2 SWAP1 PUSH2 0x31AC JUMP JUMPDEST PUSH2 0x135B JUMP JUMPDEST STOP JUMPDEST CALLVALUE DUP1 ISZERO PUSH2 0x7E2 JUMPI PUSH0 PUSH0 REVERT JUMPDEST POP PUSH2 0x7EB PUSH2 0x158A JUMP JUMPDEST PUSH1 0x40 MLOAD PUSH2 0x7F8 SWAP2 SWAP1 PUSH2 0x3093 JUMP JUMPDEST PUSH1 0x40 MLOAD DUP1 SWAP2 SUB SWAP1 RETURN JUMPDEST CALLVALUE DUP1 ISZERO PUSH2 0x80C JUMPI PUSH0 PUSH0 REVERT JUMPDEST POP PUSH2 0x827 PUSH1 0x4 DUP1 CALLDATASIZE SUB DUP2 ADD SWAP1 PUSH2 0x822 SWAP2 SWAP1 PUSH2 0x31AC JUMP JUMPDEST PUSH2 0x1590 JUMP JUMPDEST PUSH1 0x40 MLOAD PUSH2 0x838 SWAP6 SWAP5 SWAP4 SWAP3 SWAP2 SWAP1 PUSH2 0x3396 JUMP JUMPDEST PUSH1 0x40 MLOAD DUP1 SWAP2 SUB SWAP1 RETURN JUMPDEST CALLVALUE DUP1 ISZERO PUSH2 0x84C JUMPI PUSH0 PUSH0 REVERT JUMPDEST POP PUSH2 0x855 PUSH2 0x15E8 JUMP JUMPDEST STOP JUMPDEST PUSH2 0x871 PUSH1 0x4 DUP1 CALLDATASIZE SUB DUP2 ADD SWAP1 PUSH2 0x86C SWAP2 SWAP1 PUSH2 0x31AC JUMP JUMPDEST PUSH2 0x1773 JUMP JUMPDEST STOP JUMPDEST PUSH2 0x87B PUSH2 0x1BC9 JUMP JUMPDEST STOP JUMPDEST CALLVALUE DUP1 ISZERO PUSH2 0x888 JUMPI PUSH0 PUSH0 REVERT JUMPDEST POP PUSH2 0x891 PUSH2 0x1D22 JUMP JUMPDEST STOP JUMPDEST CALLVALUE DUP1 ISZERO PUSH2 0x89E JUMPI PUSH0 PUSH0 REVERT JUMPDEST POP PUSH2 0x8B9 PUSH1 0x4 DUP1 CALLDATASIZE SUB DUP2 ADD SWAP1 PUSH2 0x8B4 SWAP2 SWAP1 PUSH2 0x31AC JUMP JUMPDEST PUSH2 0x1DB4 JUMP JUMPDEST PUSH1 0x40 MLOAD PUSH2 0x8C6 SWAP2 SWAP1 PUSH2 0x346B JUMP JUMPDEST PUSH1 0x40 MLOAD DUP1 SWAP2 SUB SWAP1 RETURN JUMPDEST CALLVALUE DUP1 ISZERO PUSH2 0x8DA JUMPI PUSH0 PUSH0 REVERT JUMPDEST POP PUSH2 0x8F5 PUSH1 0x4 DUP1 CALLDATASIZE SUB DUP2 ADD SWAP1 PUSH2 0x8F0 SWAP2 SWAP1 PUSH2 0x3484 JUMP JUMPDEST PUSH2 0x1EED JUMP JUMPDEST PUSH1 0x40 MLOAD PUSH2 0x906 SWAP6 SWAP5 SWAP4 SWAP3 SWAP2 SWAP1 PUSH2 0x3396 JUMP JUMPDEST PUSH1 0x40 MLOAD DUP1 SWAP2 SUB SWAP1 RETURN JUMPDEST CALLVALUE DUP1 ISZERO PUSH2 0x91A JUMPI PUSH0 PUSH0 REVERT JUMPDEST POP PUSH2 0x923 PUSH2 0x1F45 JUMP JUMPDEST PUSH1 0x40 MLOAD PUSH2 0x930 SWAP2 SWAP1 PUSH2 0x3093 JUMP JUMPDEST PUSH1 0x40 MLOAD DUP1 SWAP2 SUB SWAP1 RETURN JUMPDEST CALLVALUE DUP1 ISZERO PUSH2 0x944 JUMPI PUSH0 PUSH0 REVERT JUMPDEST POP PUSH2 0x94D PUSH2 0x1F4B JUMP JUMPDEST PUSH1 0x40 MLOAD PUSH2 0x95E SWAP6 SWAP5 SWAP4 SWAP3 SWAP2 SWAP1 PUSH2 0x34C2 JUMP JUMPDEST PUSH1 0x40 MLOAD DUP1 SWAP2 SUB SWAP1 RETURN JUMPDEST CALLVALUE DUP1 ISZERO PUSH2 0x972 JUMPI PUSH0 PUSH0 REVERT JUMPDEST POP PUSH2 0x98D PUSH1 0x4 DUP1 CALLDATASIZE SUB DUP2 ADD SWAP1 PUSH2 0x988 SWAP2 SWAP1 PUSH2 0x31EA JUMP JUMPDEST PUSH2 0x1F6E JUMP JUMPDEST STOP JUMPDEST CALLVALUE DUP1 ISZERO PUSH2 0x99A JUMPI PUSH0 PUSH0 REVERT JUMPDEST POP PUSH2 0x9B5 PUSH1 0x4 DUP1 CALLDATASIZE SUB DUP2 ADD SWAP1 PUSH2 0x9B0 SWAP2 SWAP1 PUSH2 0x31EA JUMP JUMPDEST PUSH2 0x20C4 JUMP JUMPDEST PUSH1 0x40 MLOAD PUSH2 0x9C2 SWAP2 SWAP1 PUSH2 0x3093 JUMP JUMPDEST PUSH1 0x40 MLOAD DUP1 SWAP2 SUB SWAP1 RETURN JUMPDEST CALLVALUE DUP1 ISZERO PUSH2 0x9D6 JUMPI PUSH0 PUSH0 REVERT JUMPDEST POP PUSH2 0x9F1 PUSH1 0x4 DUP1 CALLDATASIZE SUB DUP2 ADD SWAP1 PUSH2 0x9EC SWAP2 SWAP1 PUSH2 0x3258 JUMP JUMPDEST PUSH2 0x20D9 JUMP JUMPDEST STOP JUMPDEST CALLVALUE DUP1 ISZERO PUSH2 0x9FE JUMPI PUSH0 PUSH0 REVERT JUMPDEST POP PUSH2 0xA07 PUSH2 0x215D JUMP JUMPDEST STOP JUMPDEST PUSH2 0xA23 PUSH1 0x4 DUP1 CALLDATASIZE SUB DUP2 ADD SWAP1 PUSH2 0xA1E SWAP2 SWAP1 PUSH2 0x31EA JUMP JUMPDEST PUSH2 0x2568 JUMP JUMPDEST STOP JUMPDEST PUSH0 PUSH1 0x3 PUSH0 DUP5 PUSH20 0xFFFFFFFFFFFFFFFFFFFFFFFFFFFFFFFFFFFFFFFF AND PUSH20 0xFFFFFFFFFFFFFFFFFFFFFFFFFFFFFFFFFFFFFFFF AND DUP2 MSTORE PUSH1 0x20 ADD SWAP1 DUP2 MSTORE PUSH1 0x20 ADD PUSH0 KECCAK256 DUP1 SLOAD SWAP1 POP DUP3 LT PUSH2 0xA75 JUMPI PUSH0 SWAP1 POP PUSH2 0xA82 JUMP JUMPDEST PUSH2 0xA7F DUP4 DUP4 PUSH2 0x2889 JUMP JUMPDEST SWAP1 POP JUMPDEST SWAP3 SWAP2 POP POP JUMP JUMPDEST PUSH0 PUSH1 0x6 PUSH0 DUP4 DUP2 MSTORE PUSH1 0x20 ADD SWAP1 DUP2 MSTORE PUSH1 0x20 ADD PUSH0 KECCAK256 SLOAD SWAP1 POP SWAP2 SWAP1 POP JUMP JUMPDEST PUSH0 PUSH0 PUSH0 PUSH0 PUSH1 0x7 PUSH0 ADD SLOAD PUSH1 0x7 PUSH1 0x1 ADD SLOAD PUSH1 0x7 PUSH1 0x2 ADD SLOAD PUSH1 0x7 PUSH1 0x4 ADD SLOAD SWAP4 POP SWAP4 POP SWAP4 POP SWAP4 POP SWAP1 SWAP2 SWAP3 SWAP4 JUMP JUMPDEST PUSH1 0xD SLOAD DUP2 JUMP JUMPDEST PUSH2 0xAD9 PUSH2 0x2969 JUMP JUMPDEST PUSH2 0xAE1 PUSH2 0x29F0 JUMP JUMPDEST PUSH0 PUSH20 0xFFFFFFFFFFFFFFFFFFFFFFFFFFFFFFFFFFFFFFFF AND DUP3 PUSH20 0xFFFFFFFFFFFFFFFFFFFFFFFFFFFFFFFFFFFFFFFF AND SUB PUSH2 0xB4F JUMPI PUSH1 0x40 MLOAD PUSH32 0x8C379A000000000000000000000000000000000000000000000000000000000 DUP2 MSTORE PUSH1 0x4 ADD PUSH2 0xB46 SWAP1 PUSH2 0x355D JUMP JUMPDEST PUSH1 0x40 MLOAD DUP1 SWAP2 SUB SWAP1 REVERT JUMPDEST PUSH1 0xD SLOAD DUP2 GT ISZERO PUSH2 0xB94 JUMPI PUSH1 0x40 MLOAD PUSH32 0x8C379A000000000000000000000000000000000000000000000000000000000 DUP2 MSTORE PUSH1 0x4 ADD PUSH2 0xB8B SWAP1 PUSH2 0x35C5 JUMP JUMPDEST PUSH1 0x40 MLOAD DUP1 SWAP2 SUB SWAP1 REVERT JUMPDEST DUP1 PUSH1 0xD PUSH0 DUP3 DUP3 SLOAD PUSH2 0xBA5 SWAP2 SWAP1 PUSH2 0x35E3 JUMP JUMPDEST SWAP3 POP POP DUP2 SWAP1 SSTORE POP PUSH0 DUP3 PUSH20 0xFFFFFFFFFFFFFFFFFFFFFFFFFFFFFFFFFFFFFFFF AND DUP3 PUSH1 0x40 MLOAD PUSH2 0xBD1 SWAP1 PUSH2 0x3643 JUMP JUMPDEST PUSH0 PUSH1 0x40 MLOAD DUP1 DUP4 SUB DUP2 DUP6 DUP8 GAS CALL SWAP3 POP POP POP RETURNDATASIZE DUP1 PUSH0 DUP2 EQ PUSH2 0xC0B JUMPI PUSH1 0x40 MLOAD SWAP2 POP PUSH1 0x1F NOT PUSH1 0x3F RETURNDATASIZE ADD AND DUP3 ADD PUSH1 0x40 MSTORE RETURNDATASIZE DUP3 MSTORE RETURNDATASIZE PUSH0 PUSH1 0x20 DUP5 ADD RETURNDATACOPY PUSH2 0xC10 JUMP JUMPDEST PUSH1 0x60 SWAP2 POP JUMPDEST POP POP SWAP1 POP DUP1 PUSH2 0xC54 JUMPI PUSH1 0x40 MLOAD PUSH32 0x8C379A000000000000000000000000000000000000000000000000000000000 DUP2 MSTORE PUSH1 0x4 ADD PUSH2 0xC4B SWAP1 PUSH2 0x36A1 JUMP JUMPDEST PUSH1 0x40 MLOAD DUP1 SWAP2 SUB SWAP1 REVERT JUMPDEST POP PUSH2 0xC5D PUSH2 0x2A3F JUMP JUMPDEST POP POP JUMP JUMPDEST PUSH0 PUSH1 0x3 PUSH0 DUP4 PUSH20 0xFFFFFFFFFFFFFFFFFFFFFFFFFFFFFFFFFFFFFFFF AND PUSH20 0xFFFFFFFFFFFFFFFFFFFFFFFFFFFFFFFFFFFFFFFF AND DUP2 MSTORE PUSH1 0x20 ADD SWAP1 DUP2 MSTORE PUSH1 0x20 ADD PUSH0 KECCAK256 DUP1 SLOAD SWAP1 POP SWAP1 POP SWAP2 SWAP1 POP JUMP JUMPDEST PUSH0 PUSH0 PUSH1 0x3 PUSH0 DUP5 PUSH20 0xFFFFFFFFFFFFFFFFFFFFFFFFFFFFFFFFFFFFFFFF AND PUSH20 0xFFFFFFFFFFFFFFFFFFFFFFFFFFFFFFFFFFFFFFFF AND DUP2 MSTORE PUSH1 0x20 ADD SWAP1 DUP2 MSTORE PUSH1 0x20 ADD PUSH0 KECCAK256 SWAP1 POP PUSH0 PUSH0 SWAP1 POP JUMPDEST DUP2 DUP1 SLOAD SWAP1 POP DUP2 LT ISZERO PUSH2 0xD4D JUMPI PUSH2 0xD06 DUP5 DUP3 PUSH2 0x2889 JUMP JUMPDEST DUP3 DUP3 DUP2 SLOAD DUP2 LT PUSH2 0xD19 JUMPI PUSH2 0xD18 PUSH2 0x36BF JUMP JUMPDEST JUMPDEST SWAP1 PUSH0 MSTORE PUSH1 0x20 PUSH0 KECCAK256 SWAP1 PUSH1 0x5 MUL ADD PUSH1 0x1 ADD SLOAD PUSH2 0xD33 SWAP2 SWAP1 PUSH2 0x3051 JUMP JUMPDEST DUP4 PUSH2 0xD3E SWAP2 SWAP1 PUSH2 0x3051 JUMP JUMPDEST SWAP3 POP DUP1 DUP1 PUSH1 0x1 ADD SWAP2 POP POP PUSH2 0xCF0 JUMP JUMPDEST POP POP SWAP2 SWAP1 POP JUMP JUMPDEST PUSH3 0x15180 DUP2 JUMP JUMPDEST PUSH7 0x38D7EA4C68000 DUP2 JUMP JUMPDEST PUSH1 0xC PUSH0 CALLER PUSH20 0xFFFFFFFFFFFFFFFFFFFFFFFFFFFFFFFFFFFFFFFF AND PUSH20 0xFFFFFFFFFFFFFFFFFFFFFFFFFFFFFFFFFFFFFFFF AND DUP2 MSTORE PUSH1 0x20 ADD SWAP1 DUP2 MSTORE PUSH1 0x20 ADD PUSH0 KECCAK256 PUSH0 SWAP1 SLOAD SWAP1 PUSH2 0x100 EXP SWAP1 DIV PUSH1 0xFF AND DUP1 PUSH2 0xDED JUMPI POP PUSH2 0xDBE PUSH2 0x1313 JUMP JUMPDEST PUSH20 0xFFFFFFFFFFFFFFFFFFFFFFFFFFFFFFFFFFFFFFFF AND CALLER PUSH20 0xFFFFFFFFFFFFFFFFFFFFFFFFFFFFFFFFFFFFFFFF AND EQ JUMPDEST PUSH2 0xE2C JUMPI PUSH1 0x40 MLOAD PUSH32 0x8C379A000000000000000000000000000000000000000000000000000000000 DUP2 MSTORE PUSH1 0x4 ADD PUSH2 0xE23 SWAP1 PUSH2 0x3736 JUMP JUMPDEST PUSH1 0x40 MLOAD DUP1 SWAP2 SUB SWAP1 REVERT JUMPDEST PUSH2 0xE34 PUSH2 0x2A48 JUMP JUMPDEST PUSH2 0xE3C PUSH2 0x29F0 JUMP JUMPDEST DUP3 DUP3 PUSH1 0x3 PUSH0 DUP4 PUSH20 0xFFFFFFFFFFFFFFFFFFFFFFFFFFFFFFFFFFFFFFFF AND PUSH20 0xFFFFFFFFFFFFFFFFFFFFFFFFFFFFFFFFFFFFFFFF AND DUP2 MSTORE PUSH1 0x20 ADD SWAP1 DUP2 MSTORE PUSH1 0x20 ADD PUSH0 KECCAK256 DUP1 SLOAD SWAP1 POP DUP2 LT PUSH2 0xEC0 JUMPI PUSH1 0x40 MLOAD PUSH32 0x8C379A000000000000000000000000000000000000000000000000000000000 DUP2 MSTORE PUSH1 0x4 ADD PUSH2 0xEB7 SWAP1 PUSH2 0x379E JUMP JUMPDEST PUSH1 0x40 MLOAD DUP1 SWAP2 SUB SWAP1 REVERT JUMPDEST PUSH1 0x3 PUSH0 DUP4 PUSH20 0xFFFFFFFFFFFFFFFFFFFFFFFFFFFFFFFFFFFFFFFF AND PUSH20 0xFFFFFFFFFFFFFFFFFFFFFFFFFFFFFFFFFFFFFFFF AND DUP2 MSTORE PUSH1 0x20 ADD SWAP1 DUP2 MSTORE PUSH1 0x20 ADD PUSH0 KECCAK256 DUP2 DUP2 SLOAD DUP2 LT PUSH2 0xF0F JUMPI PUSH2 0xF0E PUSH2 0x36BF JUMP JUMPDEST JUMPDEST SWAP1 PUSH0 MSTORE PUSH1 0x20 PUSH0 KECCAK256 SWAP1 PUSH1 0x5 MUL ADD PUSH1 0x4 ADD PUSH0 SWAP1 SLOAD SWAP1 PUSH2 0x100 EXP SWAP1 DIV PUSH1 0xFF AND PUSH2 0xF6A JUMPI PUSH1 0x40 MLOAD PUSH32 0x8C379A000000000000000000000000000000000000000000000000000000000 DUP2 MSTORE PUSH1 0x4 ADD PUSH2 0xF61 SWAP1 PUSH2 0x3806 JUMP JUMPDEST PUSH1 0x40 MLOAD DUP1 SWAP2 SUB SWAP1 REVERT JUMPDEST PUSH0 PUSH20 0xFFFFFFFFFFFFFFFFFFFFFFFFFFFFFFFFFFFFFFFF AND DUP4 PUSH20 0xFFFFFFFFFFFFFFFFFFFFFFFFFFFFFFFFFFFFFFFF AND SUB PUSH2 0xFD8 JUMPI PUSH1 0x40 MLOAD PUSH32 0x8C379A000000000000000000000000000000000000000000000000000000000 DUP2 MSTORE PUSH1 0x4 ADD PUSH2 0xFCF SWAP1 PUSH2 0x355D JUMP JUMPDEST PUSH1 0x40 MLOAD DUP1 SWAP2 SUB SWAP1 REVERT JUMPDEST PUSH2 0xFE3 DUP6 DUP6 DUP6 PUSH2 0x2A92 JUMP JUMPDEST POP POP PUSH2 0xFED PUSH2 0x2A3F JUMP JUMPDEST POP POP POP JUMP JUMPDEST PUSH2 0xFFA PUSH2 0x2969 JUMP JUMPDEST PUSH1 0x32 DUP2 LT ISZERO DUP1 ISZERO PUSH2 0x100D JUMPI POP PUSH2 0x320 DUP2 GT ISZERO JUMPDEST PUSH2 0x104C JUMPI PUSH1 0x40 MLOAD PUSH32 0x8C379A000000000000000000000000000000000000000000000000000000000 DUP2 MSTORE PUSH1 0x4 ADD PUSH2 0x1043 SWAP1 PUSH2 0x386E JUMP JUMPDEST PUSH1 0x40 MLOAD DUP1 SWAP2 SUB SWAP1 REVERT JUMPDEST PUSH2 0x1054 PUSH2 0x2D71 JUMP JUMPDEST PUSH0 PUSH1 0x7 PUSH1 0x2 ADD SLOAD SWAP1 POP DUP2 PUSH1 0x7 PUSH1 0x2 ADD DUP2 SWAP1 SSTORE POP PUSH32 0x4959AD9023BF5B492922B51FBC7C0B5E5EC66AA39700E0DA6D8AF9B2D430898E DUP2 DUP4 PUSH1 0x40 MLOAD PUSH2 0x1098 SWAP3 SWAP2 SWAP1 PUSH2 0x388C JUMP JUMPDEST PUSH1 0x40 MLOAD DUP1 SWAP2 SUB SWAP1 LOG1 POP POP JUMP JUMPDEST PUSH0 PUSH1 0xD SLOAD SWAP1 POP SWAP1 JUMP JUMPDEST PUSH1 0x32 DUP2 JUMP JUMPDEST PUSH2 0x10BA PUSH2 0x2969 JUMP JUMPDEST PUSH2 0x10C2 PUSH2 0x2E1B JUMP JUMPDEST JUMP JUMPDEST PUSH2 0x10CC PUSH2 0x2969 JUMP JUMPDEST PUSH0 PUSH20 0xFFFFFFFFFFFFFFFFFFFFFFFFFFFFFFFFFFFFFFFF AND DUP3 PUSH20 0xFFFFFFFFFFFFFFFFFFFFFFFFFFFFFFFFFFFFFFFF AND SUB PUSH2 0x113A JUMPI PUSH1 0x40 MLOAD PUSH32 0x8C379A000000000000000000000000000000000000000000000000000000000 DUP2 MSTORE PUSH1 0x4 ADD PUSH2 0x1131 SWAP1 PUSH2 0x38FD JUMP JUMPDEST PUSH1 0x40 MLOAD DUP1 SWAP2 SUB SWAP1 REVERT JUMPDEST DUP1 PUSH1 0xC PUSH0 DUP5 PUSH20 0xFFFFFFFFFFFFFFFFFFFFFFFFFFFFFFFFFFFFFFFF AND PUSH20 0xFFFFFFFFFFFFFFFFFFFFFFFFFFFFFFFFFFFFFFFF AND DUP2 MSTORE PUSH1 0x20 ADD SWAP1 DUP2 MSTORE PUSH1 0x20 ADD PUSH0 KECCAK256 PUSH0 PUSH2 0x100 EXP DUP2 SLOAD DUP2 PUSH1 0xFF MUL NOT AND SWAP1 DUP4 ISZERO ISZERO MUL OR SWAP1 SSTORE POP DUP2 PUSH20 0xFFFFFFFFFFFFFFFFFFFFFFFFFFFFFFFFFFFFFFFF AND PUSH32 0xAD857FA38C9319CB80848F1EF2F924383B90297EB5D71755738FF037D100FAA1 DUP3 PUSH1 0x40 MLOAD PUSH2 0x11D4 SWAP2 SWAP1 PUSH2 0x3355 JUMP JUMPDEST PUSH1 0x40 MLOAD DUP1 SWAP2 SUB SWAP1 LOG2 POP POP JUMP JUMPDEST PUSH2 0x11E8 PUSH2 0x2969 JUMP JUMPDEST PUSH2 0x11F0 PUSH2 0x2E1B JUMP JUMPDEST JUMP JUMPDEST PUSH2 0x11FA PUSH2 0x2969 JUMP JUMPDEST PUSH2 0x1202 PUSH2 0x2E7C JUMP JUMPDEST JUMP JUMPDEST PUSH1 0xC PUSH1 0x20 MSTORE DUP1 PUSH0 MSTORE PUSH1 0x40 PUSH0 KECCAK256 PUSH0 SWAP2 POP SLOAD SWAP1 PUSH2 0x100 EXP SWAP1 DIV PUSH1 0xFF AND DUP2 JUMP JUMPDEST PUSH1 0xE SLOAD DUP2 JUMP JUMPDEST PUSH0 PUSH1 0x2 PUSH0 SWAP1 SLOAD SWAP1 PUSH2 0x100 EXP SWAP1 DIV PUSH1 0xFF AND SWAP1 POP SWAP1 JUMP JUMPDEST PUSH2 0x1244 PUSH2 0x2969 JUMP JUMPDEST PUSH2 0x1F4 DUP2 GT ISZERO PUSH2 0x1289 JUMPI PUSH1 0x40 MLOAD PUSH32 0x8C379A000000000000000000000000000000000000000000000000000000000 DUP2 MSTORE PUSH1 0x4 ADD PUSH2 0x1280 SWAP1 PUSH2 0x3965 JUMP JUMPDEST PUSH1 0x40 MLOAD DUP1 SWAP2 SUB SWAP1 REVERT JUMPDEST PUSH0 PUSH1 0xE SLOAD SWAP1 POP DUP2 PUSH1 0xE DUP2 SWAP1 SSTORE POP PUSH32 0x1D830358C94D390366AD7162B72E731448E195F3576E63B1F57F5E43C719C5AA DUP2 DUP4 PUSH1 0x40 MLOAD PUSH2 0x12C7 SWAP3 SWAP2 SWAP1 PUSH2 0x388C JUMP JUMPDEST PUSH1 0x40 MLOAD DUP1 SWAP2 SUB SWAP1 LOG1 POP POP JUMP JUMPDEST PUSH2 0x320 DUP2 JUMP JUMPDEST PUSH2 0x12E1 PUSH2 0x2969 JUMP JUMPDEST PUSH2 0x12EA PUSH0 PUSH2 0x2EDE JUMP JUMPDEST JUMP JUMPDEST PUSH1 0x5 PUSH1 0x20 MSTORE DUP1 PUSH0 MSTORE PUSH1 0x40 PUSH0 KECCAK256 PUSH0 SWAP2 POP SWAP1 POP SLOAD DUP2 JUMP JUMPDEST PUSH2 0x1309 PUSH2 0x2969 JUMP JUMPDEST PUSH2 0x1311 PUSH2 0x2E7C JUMP JUMPDEST JUMP JUMPDEST PUSH0 PUSH0 PUSH0 SWAP1 SLOAD SWAP1 PUSH2 0x100 EXP SWAP1 DIV PUSH20 0xFFFFFFFFFFFFFFFFFFFFFFFFFFFFFFFFFFFFFFFF AND SWAP1 POP SWAP1 JUMP JUMPDEST PUSH0 PUSH1 0x7 PUSH1 0x2 ADD SLOAD SWAP1 POP SWAP1 JUMP JUMPDEST PUSH1 0x10 PUSH1 0x20 MSTORE DUP1 PUSH0 MSTORE PUSH1 0x40 PUSH0 KECCAK256 PUSH0 SWAP2 POP SWAP1 POP SLOAD DUP2 JUMP JUMPDEST DUP2 DUP2 PUSH1 0x3 PUSH0 DUP4 PUSH20 0xFFFFFFFFFFFFFFFFFFFFFFFFFFFFFFFFFFFFFFFF AND PUSH20 0xFFFFFFFFFFFFFFFFFFFFFFFFFFFFFFFFFFFFFFFF AND DUP2 MSTORE PUSH1 0x20 ADD SWAP1 DUP2 MSTORE PUSH1 0x20 ADD PUSH0 KECCAK256 DUP1 SLOAD SWAP1 POP DUP2 LT PUSH2 0x13DF JUMPI PUSH1 0x40 MLOAD PUSH32 0x8C379A000000000000000000000000000000000000000000000000000000000 DUP2 MSTORE PUSH1 0x4 ADD PUSH2 0x13D6 SWAP1 PUSH2 0x379E JUMP JUMPDEST PUSH1 0x40 MLOAD DUP1 SWAP2 SUB SWAP1 REVERT JUMPDEST PUSH1 0x3 PUSH0 DUP4 PUSH20 0xFFFFFFFFFFFFFFFFFFFFFFFFFFFFFFFFFFFFFFFF AND PUSH20 0xFFFFFFFFFFFFFFFFFFFFFFFFFFFFFFFFFFFFFFFF AND DUP2 MSTORE PUSH1 0x20 ADD SWAP1 DUP2 MSTORE PUSH1 0x20 ADD PUSH0 KECCAK256 DUP2 DUP2 SLOAD DUP2 LT PUSH2 0x142E JUMPI PUSH2 0x142D PUSH2 0x36BF JUMP JUMPDEST JUMPDEST SWAP1 PUSH0 MSTORE PUSH1 0x20 PUSH0 KECCAK256 SWAP1 PUSH1 0x5 MUL ADD PUSH1 0x4 ADD PUSH0 SWAP1 SLOAD SWAP1 PUSH2 0x100 EXP SWAP1 DIV PUSH1 0xFF AND PUSH2 0x1489 JUMPI PUSH1 0x40 MLOAD PUSH32 0x8C379A000000000000000000000000000000000000000000000000000000000 DUP2 MSTORE PUSH1 0x4 ADD PUSH2 0x1480 SWAP1 PUSH2 0x3806 JUMP JUMPDEST PUSH1 0x40 MLOAD DUP1 SWAP2 SUB SWAP1 REVERT JUMPDEST PUSH0 PUSH1 0x3 PUSH0 DUP7 PUSH20 0xFFFFFFFFFFFFFFFFFFFFFFFFFFFFFFFFFFFFFFFF AND PUSH20 0xFFFFFFFFFFFFFFFFFFFFFFFFFFFFFFFFFFFFFFFF AND DUP2 MSTORE PUSH1 0x20 ADD SWAP1 DUP2 MSTORE PUSH1 0x20 ADD PUSH0 KECCAK256 DUP5 DUP2 SLOAD DUP2 LT PUSH2 0x14D9 JUMPI PUSH2 0x14D8 PUSH2 0x36BF JUMP JUMPDEST JUMPDEST SWAP1 PUSH0 MSTORE PUSH1 0x20 PUSH0 KECCAK256 SWAP1 PUSH1 0x5 MUL ADD SWAP1 POP PUSH0 PUSH2 0x14F2 DUP7 DUP7 PUSH2 0x2889 JUMP JUMPDEST SWAP1 POP DUP1 DUP3 PUSH1 0x1 ADD PUSH0 DUP3 DUP3 SLOAD PUSH2 0x1507 SWAP2 SWAP1 PUSH2 0x3051 JUMP JUMPDEST SWAP3 POP POP DUP2 SWAP1 SSTORE POP TIMESTAMP DUP3 PUSH1 0x2 ADD DUP2 SWAP1 SSTORE POP DUP1 PUSH1 0x7 PUSH1 0x1 ADD PUSH0 DUP3 DUP3 SLOAD PUSH2 0x152B SWAP2 SWAP1 PUSH2 0x3051 JUMP JUMPDEST SWAP3 POP POP DUP2 SWAP1 SSTORE POP DUP6 PUSH20 0xFFFFFFFFFFFFFFFFFFFFFFFFFFFFFFFFFFFFFFFF AND PUSH32 0xACED61C86C507AA3C2BE43553434C6FF191EA7CBBD812491A6AE59ABC99D29DC DUP3 DUP8 PUSH1 0x40 MLOAD PUSH2 0x157A SWAP3 SWAP2 SWAP1 PUSH2 0x388C JUMP JUMPDEST PUSH1 0x40 MLOAD DUP1 SWAP2 SUB SWAP1 LOG2 POP POP POP POP POP POP JUMP JUMPDEST PUSH1 0xF SLOAD DUP2 JUMP JUMPDEST PUSH1 0x3 PUSH1 0x20 MSTORE DUP2 PUSH0 MSTORE PUSH1 0x40 PUSH0 KECCAK256 DUP2 DUP2 SLOAD DUP2 LT PUSH2 0x15A9 JUMPI PUSH0 DUP1 REVERT JUMPDEST SWAP1 PUSH0 MSTORE PUSH1 0x20 PUSH0 KECCAK256 SWAP1 PUSH1 0x5 MUL ADD PUSH0 SWAP2 POP SWAP2 POP POP DUP1 PUSH0 ADD SLOAD SWAP1 DUP1 PUSH1 0x1 ADD SLOAD SWAP1 DUP1 PUSH1 0x2 ADD SLOAD SWAP1 DUP1 PUSH1 0x3 ADD SLOAD SWAP1 DUP1 PUSH1 0x4 ADD PUSH0 SWAP1 SLOAD SWAP1 PUSH2 0x100 EXP SWAP1 DIV PUSH1 0xFF AND SWAP1 POP DUP6 JUMP JUMPDEST PUSH1 0xC PUSH0 CALLER PUSH20 0xFFFFFFFFFFFFFFFFFFFFFFFFFFFFFFFFFFFFFFFF AND PUSH20 0xFFFFFFFFFFFFFFFFFFFFFFFFFFFFFFFFFFFFFFFF AND DUP2 MSTORE PUSH1 0x20 ADD SWAP1 DUP2 MSTORE PUSH1 0x20 ADD PUSH0 KECCAK256 PUSH0 SWAP1 SLOAD SWAP1 PUSH2 0x100 EXP SWAP1 DIV PUSH1 0xFF AND DUP1 PUSH2 0x166F JUMPI POP PUSH2 0x1640 PUSH2 0x1313 JUMP JUMPDEST PUSH20 0xFFFFFFFFFFFFFFFFFFFFFFFFFFFFFFFFFFFFFFFF AND CALLER PUSH20 0xFFFFFFFFFFFFFFFFFFFFFFFFFFFFFFFFFFFFFFFF AND EQ JUMPDEST PUSH2 0x16AE JUMPI PUSH1 0x40 MLOAD PUSH32 0x8C379A000000000000000000000000000000000000000000000000000000000 DUP2 MSTORE PUSH1 0x4 ADD PUSH2 0x16A5 SWAP1 PUSH2 0x3736 JUMP JUMPDEST PUSH1 0x40 MLOAD DUP1 SWAP2 SUB SWAP1 REVERT JUMPDEST PUSH2 0x16B6 PUSH2 0x29F0 JUMP JUMPDEST PUSH0 PUSH1 0xD SLOAD GT PUSH2 0x16FA JUMPI PUSH1 0x40 MLOAD PUSH32 0x8C379A000000000000000000000000000000000000000000000000000000000 DUP2 MSTORE PUSH1 0x4 ADD PUSH2 0x16F1 SWAP1 PUSH2 0x39CD JUMP JUMPDEST PUSH1 0x40 MLOAD DUP1 SWAP2 SUB SWAP1 REVERT JUMPDEST PUSH0 PUSH1 0x7 PUSH0 ADD SLOAD GT PUSH2 0x1740 JUMPI PUSH1 0x40 MLOAD PUSH32 0x8C379A000000000000000000000000000000000000000000000000000000000 DUP2 MSTORE PUSH1 0x4 ADD PUSH2 0x1737 SWAP1 PUSH2 0x3A35 JUMP JUMPDEST PUSH1 0x40 MLOAD DUP1 SWAP2 SUB SWAP1 REVERT JUMPDEST PUSH0 PUSH1 0xD SLOAD SWAP1 POP PUSH0 PUSH1 0xD DUP2 SWAP1 SSTORE POP DUP1 PUSH1 0x7 PUSH1 0x1 ADD PUSH0 DUP3 DUP3 SLOAD PUSH2 0x1761 SWAP2 SWAP1 PUSH2 0x3051 JUMP JUMPDEST SWAP3 POP POP DUP2 SWAP1 SSTORE POP POP PUSH2 0x1771 PUSH2 0x2A3F JUMP JUMPDEST JUMP JUMPDEST PUSH1 0xC PUSH0 CALLER PUSH20 0xFFFFFFFFFFFFFFFFFFFFFFFFFFFFFFFFFFFFFFFF AND PUSH20 0xFFFFFFFFFFFFFFFFFFFFFFFFFFFFFFFFFFFFFFFF AND DUP2 MSTORE PUSH1 0x20 ADD SWAP1 DUP2 MSTORE PUSH1 0x20 ADD PUSH0 KECCAK256 PUSH0 SWAP1 SLOAD SWAP1 PUSH2 0x100 EXP SWAP1 DIV PUSH1 0xFF AND DUP1 PUSH2 0x17FA JUMPI POP PUSH2 0x17CB PUSH2 0x1313 JUMP JUMPDEST PUSH20 0xFFFFFFFFFFFFFFFFFFFFFFFFFFFFFFFFFFFFFFFF AND CALLER PUSH20 0xFFFFFFFFFFFFFFFFFFFFFFFFFFFFFFFFFFFFFFFF AND EQ JUMPDEST PUSH2 0x1839 JUMPI PUSH1 0x40 MLOAD PUSH32 0x8C379A000000000000000000000000000000000000000000000000000000000 DUP2 MSTORE PUSH1 0x4 ADD PUSH2 0x1830 SWAP1 PUSH2 0x3736 JUMP JUMPDEST PUSH1 0x40 MLOAD DUP1 SWAP2 SUB SWAP1 REVERT JUMPDEST PUSH2 0x1841 PUSH2 0x2A48 JUMP JUMPDEST PUSH2 0x1849 PUSH2 0x29F0 JUMP JUMPDEST PUSH0 PUSH20 0xFFFFFFFFFFFFFFFFFFFFFFFFFFFFFFFFFFFFFFFF AND DUP3 PUSH20 0xFFFFFFFFFFFFFFFFFFFFFFFFFFFFFFFFFFFFFFFF AND SUB PUSH2 0x18B7 JUMPI PUSH1 0x40 MLOAD PUSH32 0x8C379A000000000000000000000000000000000000000000000000000000000 DUP2 MSTORE PUSH1 0x4 ADD PUSH2 0x18AE SWAP1 PUSH2 0x3A9D JUMP JUMPDEST PUSH1 0x40 MLOAD DUP1 SWAP2 SUB SWAP1 REVERT JUMPDEST PUSH7 0x38D7EA4C68000 CALLVALUE LT ISZERO PUSH2 0x1901 JUMPI PUSH1 0x40 MLOAD PUSH32 0x8C379A000000000000000000000000000000000000000000000000000000000 DUP2 MSTORE PUSH1 0x4 ADD PUSH2 0x18F8 SWAP1 PUSH2 0x3B05 JUMP JUMPDEST PUSH1 0x40 MLOAD DUP1 SWAP2 SUB SWAP1 REVERT JUMPDEST PUSH2 0x1909 PUSH2 0x2D71 JUMP JUMPDEST PUSH0 PUSH1 0x40 MLOAD DUP1 PUSH1 0xA0 ADD PUSH1 0x40 MSTORE DUP1 CALLVALUE DUP2 MSTORE PUSH1 0x20 ADD PUSH0 DUP2 MSTORE PUSH1 0x20 ADD TIMESTAMP DUP2 MSTORE PUSH1 0x20 ADD DUP4 DUP2 MSTORE PUSH1 0x20 ADD PUSH1 0x1 ISZERO ISZERO DUP2 MSTORE POP SWAP1 POP PUSH1 0x3 PUSH0 DUP5 PUSH20 0xFFFFFFFFFFFFFFFFFFFFFFFFFFFFFFFFFFFFFFFF AND PUSH20 0xFFFFFFFFFFFFFFFFFFFFFFFFFFFFFFFFFFFFFFFF AND DUP2 MSTORE PUSH1 0x20 ADD SWAP1 DUP2 MSTORE PUSH1 0x20 ADD PUSH0 KECCAK256 DUP2 SWAP1 DUP1 PUSH1 0x1 DUP2 SLOAD ADD DUP1 DUP3 SSTORE DUP1 SWAP2 POP POP PUSH1 0x1 SWAP1 SUB SWAP1 PUSH0 MSTORE PUSH1 0x20 PUSH0 KECCAK256 SWAP1 PUSH1 0x5 MUL ADD PUSH0 SWAP1 SWAP2 SWAP1 SWAP2 SWAP1 SWAP2 POP PUSH0 DUP3 ADD MLOAD DUP2 PUSH0 ADD SSTORE PUSH1 0x20 DUP3 ADD MLOAD DUP2 PUSH1 0x1 ADD SSTORE PUSH1 0x40 DUP3 ADD MLOAD DUP2 PUSH1 0x2 ADD SSTORE PUSH1 0x60 DUP3 ADD MLOAD DUP2 PUSH1 0x3 ADD SSTORE PUSH1 0x80 DUP3 ADD MLOAD DUP2 PUSH1 0x4 ADD PUSH0 PUSH2 0x100 EXP DUP2 SLOAD DUP2 PUSH1 0xFF MUL NOT AND SWAP1 DUP4 ISZERO ISZERO MUL OR SWAP1 SSTORE POP POP POP PUSH0 PUSH1 0x1 PUSH1 0x3 PUSH0 DUP7 PUSH20 0xFFFFFFFFFFFFFFFFFFFFFFFFFFFFFFFFFFFFFFFF AND PUSH20 0xFFFFFFFFFFFFFFFFFFFFFFFFFFFFFFFFFFFFFFFF AND DUP2 MSTORE PUSH1 0x20 ADD SWAP1 DUP2 MSTORE PUSH1 0x20 ADD PUSH0 KECCAK256 DUP1 SLOAD SWAP1 POP PUSH2 0x1A2F SWAP2 SWAP1 PUSH2 0x35E3 JUMP JUMPDEST SWAP1 POP PUSH0 DUP4 GT ISZERO PUSH2 0x1AE0 JUMPI PUSH1 0x4 PUSH0 DUP5 DUP2 MSTORE PUSH1 0x20 ADD SWAP1 DUP2 MSTORE PUSH1 0x20 ADD PUSH0 KECCAK256 DUP3 SWAP1 DUP1 PUSH1 0x1 DUP2 SLOAD ADD DUP1 DUP3 SSTORE DUP1 SWAP2 POP POP PUSH1 0x1 SWAP1 SUB SWAP1 PUSH0 MSTORE PUSH1 0x20 PUSH0 KECCAK256 SWAP1 PUSH1 0x5 MUL ADD PUSH0 SWAP1 SWAP2 SWAP1 SWAP2 SWAP1 SWAP2 POP PUSH0 DUP3 ADD MLOAD DUP2 PUSH0 ADD SSTORE PUSH1 0x20 DUP3 ADD MLOAD DUP2 PUSH1 0x1 ADD SSTORE PUSH1 0x40 DUP3 ADD MLOAD DUP2 PUSH1 0x2 ADD SSTORE PUSH1 0x60 DUP3 ADD MLOAD DUP2 PUSH1 0x3 ADD SSTORE PUSH1 0x80 DUP3 ADD MLOAD DUP2 PUSH1 0x4 ADD PUSH0 PUSH2 0x100 EXP DUP2 SLOAD DUP2 PUSH1 0xFF MUL NOT AND SWAP1 DUP4 ISZERO ISZERO MUL OR SWAP1 SSTORE POP POP POP CALLVALUE PUSH1 0x6 PUSH0 DUP6 DUP2 MSTORE PUSH1 0x20 ADD SWAP1 DUP2 MSTORE PUSH1 0x20 ADD PUSH0 KECCAK256 PUSH0 DUP3 DUP3 SLOAD PUSH2 0x1AD8 SWAP2 SWAP1 PUSH2 0x3051 JUMP JUMPDEST SWAP3 POP POP DUP2 SWAP1 SSTORE POP JUMPDEST CALLVALUE PUSH1 0x5 PUSH0 DUP7 PUSH20 0xFFFFFFFFFFFFFFFFFFFFFFFFFFFFFFFFFFFFFFFF AND PUSH20 0xFFFFFFFFFFFFFFFFFFFFFFFFFFFFFFFFFFFFFFFF AND DUP2 MSTORE PUSH1 0x20 ADD SWAP1 DUP2 MSTORE PUSH1 0x20 ADD PUSH0 KECCAK256 PUSH0 DUP3 DUP3 SLOAD PUSH2 0x1B2C SWAP2 SWAP1 PUSH2 0x3051 JUMP JUMPDEST SWAP3 POP POP DUP2 SWAP1 SSTORE POP CALLVALUE PUSH1 0x7 PUSH0 ADD PUSH0 DUP3 DUP3 SLOAD PUSH2 0x1B46 SWAP2 SWAP1 PUSH2 0x3051 JUMP JUMPDEST SWAP3 POP POP DUP2 SWAP1 SSTORE POP PUSH1 0x1 PUSH1 0x7 PUSH1 0x4 ADD PUSH0 DUP3 DUP3 SLOAD PUSH2 0x1B62 SWAP2 SWAP1 PUSH2 0x3051 JUMP JUMPDEST SWAP3 POP POP DUP2 SWAP1 SSTORE POP DUP4 PUSH20 0xFFFFFFFFFFFFFFFFFFFFFFFFFFFFFFFFFFFFFFFF AND PUSH32 0x55B223C72892936A872C1F417E7E143A0592419FE999642DBB4BCCB55B8C6E83 CALLVALUE DUP6 DUP5 PUSH1 0x40 MLOAD PUSH2 0x1BB3 SWAP4 SWAP3 SWAP2 SWAP1 PUSH2 0x3B23 JUMP JUMPDEST PUSH1 0x40 MLOAD DUP1 SWAP2 SUB SWAP1 LOG2 POP POP PUSH2 0x1BC5 PUSH2 0x2A3F JUMP JUMPDEST POP POP JUMP JUMPDEST PUSH1 0xC PUSH0 CALLER PUSH20 0xFFFFFFFFFFFFFFFFFFFFFFFFFFFFFFFFFFFFFFFF AND PUSH20 0xFFFFFFFFFFFFFFFFFFFFFFFFFFFFFFFFFFFFFFFF AND DUP2 MSTORE PUSH1 0x20 ADD SWAP1 DUP2 MSTORE PUSH1 0x20 ADD PUSH0 KECCAK256 PUSH0 SWAP1 SLOAD SWAP1 PUSH2 0x100 EXP SWAP1 DIV PUSH1 0xFF AND DUP1 PUSH2 0x1C50 JUMPI POP PUSH2 0x1C21 PUSH2 0x1313 JUMP JUMPDEST PUSH20 0xFFFFFFFFFFFFFFFFFFFFFFFFFFFFFFFFFFFFFFFF AND CALLER PUSH20 0xFFFFFFFFFFFFFFFFFFFFFFFFFFFFFFFFFFFFFFFF AND EQ JUMPDEST PUSH2 0x1C8F JUMPI PUSH1 0x40 MLOAD PUSH32 0x8C379A000000000000000000000000000000000000000000000000000000000 DUP2 MSTORE PUSH1 0x4 ADD PUSH2 0x1C86 SWAP1 PUSH2 0x3736 JUMP JUMPDEST PUSH1 0x40 MLOAD DUP1 SWAP2 SUB SWAP1 REVERT JUMPDEST PUSH0 CALLVALUE GT PUSH2 0x1CD1 JUMPI PUSH1 0x40 MLOAD PUSH32 0x8C379A000000000000000000000000000000000000000000000000000000000 DUP2 MSTORE PUSH1 0x4 ADD PUSH2 0x1CC8 SWAP1 PUSH2 0x3BA2 JUMP JUMPDEST PUSH1 0x40 MLOAD DUP1 SWAP2 SUB SWAP1 REVERT JUMPDEST CALLVALUE PUSH1 0xD PUSH0 DUP3 DUP3 SLOAD PUSH2 0x1CE2 SWAP2 SWAP1 PUSH2 0x3051 JUMP JUMPDEST SWAP3 POP POP DUP2 SWAP1 SSTORE POP PUSH32 0xFD89F3716628D726D771436AEF1A2B241477089ECDEA8429F2DCDF2F2106C4A4 CALLVALUE PUSH1 0x40 MLOAD PUSH2 0x1D18 SWAP2 SWAP1 PUSH2 0x3093 JUMP JUMPDEST PUSH1 0x40 MLOAD DUP1 SWAP2 SUB SWAP1 LOG1 JUMP JUMPDEST TIMESTAMP PUSH1 0x10 PUSH0 CALLER PUSH20 0xFFFFFFFFFFFFFFFFFFFFFFFFFFFFFFFFFFFFFFFF AND PUSH20 0xFFFFFFFFFFFFFFFFFFFFFFFFFFFFFFFFFFFFFFFF AND DUP2 MSTORE PUSH1 0x20 ADD SWAP1 DUP2 MSTORE PUSH1 0x20 ADD PUSH0 KECCAK256 DUP2 SWAP1 SSTORE POP CALLER PUSH20 0xFFFFFFFFFFFFFFFFFFFFFFFFFFFFFFFFFFFFFFFF AND PUSH32 0xDCBF58B4B48819C95C8100C354FFDC3633D192E7C3EEBFB025492DE8C9226B11 TIMESTAMP PUSH1 0x40 MLOAD PUSH2 0x1DAA SWAP2 SWAP1 PUSH2 0x3093 JUMP JUMPDEST PUSH1 0x40 MLOAD DUP1 SWAP2 SUB SWAP1 LOG2 JUMP JUMPDEST PUSH2 0x1DBC PUSH2 0x2FEF JUMP JUMPDEST PUSH1 0x3 PUSH0 DUP5 PUSH20 0xFFFFFFFFFFFFFFFFFFFFFFFFFFFFFFFFFFFFFFFF AND PUSH20 0xFFFFFFFFFFFFFFFFFFFFFFFFFFFFFFFFFFFFFFFF AND DUP2 MSTORE PUSH1 0x20 ADD SWAP1 DUP2 MSTORE PUSH1 0x20 ADD PUSH0 KECCAK256 DUP1 SLOAD SWAP1 POP DUP3 LT PUSH2 0x1E3E JUMPI PUSH1 0x40 MLOAD PUSH32 0x8C379A000000000000000000000000000000000000000000000000000000000 DUP2 MSTORE PUSH1 0x4 ADD PUSH2 0x1E35 SWAP1 PUSH2 0x379E JUMP JUMPDEST PUSH1 0x40 MLOAD DUP1 SWAP2 SUB SWAP1 REVERT JUMPDEST PUSH1 0x3 PUSH0 DUP5 PUSH20 0xFFFFFFFFFFFFFFFFFFFFFFFFFFFFFFFFFFFFFFFF AND PUSH20 0xFFFFFFFFFFFFFFFFFFFFFFFFFFFFFFFFFFFFFFFF AND DUP2 MSTORE PUSH1 0x20 ADD SWAP1 DUP2 MSTORE PUSH1 0x20 ADD PUSH0 KECCAK256 DUP3 DUP2 SLOAD DUP2 LT PUSH2 0x1E8D JUMPI PUSH2 0x1E8C PUSH2 0x36BF JUMP JUMPDEST JUMPDEST SWAP1 PUSH0 MSTORE PUSH1 0x20 PUSH0 KECCAK256 SWAP1 PUSH1 0x5 MUL ADD PUSH1 0x40 MLOAD DUP1 PUSH1 0xA0 ADD PUSH1 0x40 MSTORE SWAP1 DUP2 PUSH0 DUP3 ADD SLOAD DUP2 MSTORE PUSH1 0x20 ADD PUSH1 0x1 DUP3 ADD SLOAD DUP2 MSTORE PUSH1 0x20 ADD PUSH1 0x2 DUP3 ADD SLOAD DUP2 MSTORE PUSH1 0x20 ADD PUSH1 0x3 DUP3 ADD SLOAD DUP2 MSTORE PUSH1 0x20 ADD PUSH1 0x4 DUP3 ADD PUSH0 SWAP1 SLOAD SWAP1 PUSH2 0x100 EXP SWAP1 DIV PUSH1 0xFF AND ISZERO ISZERO ISZERO ISZERO DUP2 MSTORE POP POP SWAP1 POP SWAP3 SWAP2 POP POP JUMP JUMPDEST PUSH1 0x4 PUSH1 0x20 MSTORE DUP2 PUSH0 MSTORE PUSH1 0x40 PUSH0 KECCAK256 DUP2 DUP2 SLOAD DUP2 LT PUSH2 0x1F06 JUMPI PUSH0 DUP1 REVERT JUMPDEST SWAP1 PUSH0 MSTORE PUSH1 0x20 PUSH0 KECCAK256 SWAP1 PUSH1 0x5 MUL ADD PUSH0 SWAP2 POP SWAP2 POP POP DUP1 PUSH0 ADD SLOAD SWAP1 DUP1 PUSH1 0x1 ADD SLOAD SWAP1 DUP1 PUSH1 0x2 ADD SLOAD SWAP1 DUP1 PUSH1 0x3 ADD SLOAD SWAP1 DUP1 PUSH1 0x4 ADD PUSH0 SWAP1 SLOAD SWAP1 PUSH2 0x100 EXP SWAP1 DIV PUSH1 0xFF AND SWAP1 POP DUP6 JUMP JUMPDEST PUSH2 0x2710 DUP2 JUMP JUMPDEST PUSH1 0x7 DUP1 PUSH0 ADD SLOAD SWAP1 DUP1 PUSH1 0x1 ADD SLOAD SWAP1 DUP1 PUSH1 0x2 ADD SLOAD SWAP1 DUP1 PUSH1 0x3 ADD SLOAD SWAP1 DUP1 PUSH1 0x4 ADD SLOAD SWAP1 POP DUP6 JUMP JUMPDEST PUSH2 0x1F76 PUSH2 0x2A48 JUMP JUMPDEST PUSH2 0x1F7E PUSH2 0x29F0 JUMP JUMPDEST CALLER DUP2 PUSH1 0x3 PUSH0 DUP4 PUSH20 0xFFFFFFFFFFFFFFFFFFFFFFFFFFFFFFFFFFFFFFFF AND PUSH20 0xFFFFFFFFFFFFFFFFFFFFFFFFFFFFFFFFFFFFFFFF AND DUP2 MSTORE PUSH1 0x20 ADD SWAP1 DUP2 MSTORE PUSH1 0x20 ADD PUSH0 KECCAK256 DUP1 SLOAD SWAP1 POP DUP2 LT PUSH2 0x2002 JUMPI PUSH1 0x40 MLOAD PUSH32 0x8C379A000000000000000000000000000000000000000000000000000000000 DUP2 MSTORE PUSH1 0x4 ADD PUSH2 0x1FF9 SWAP1 PUSH2 0x379E JUMP JUMPDEST PUSH1 0x40 MLOAD DUP1 SWAP2 SUB SWAP1 REVERT JUMPDEST PUSH1 0x3 PUSH0 DUP4 PUSH20 0xFFFFFFFFFFFFFFFFFFFFFFFFFFFFFFFFFFFFFFFF AND PUSH20 0xFFFFFFFFFFFFFFFFFFFFFFFFFFFFFFFFFFFFFFFF AND DUP2 MSTORE PUSH1 0x20 ADD SWAP1 DUP2 MSTORE PUSH1 0x20 ADD PUSH0 KECCAK256 DUP2 DUP2 SLOAD DUP2 LT PUSH2 0x2051 JUMPI PUSH2 0x2050 PUSH2 0x36BF JUMP JUMPDEST JUMPDEST SWAP1 PUSH0 MSTORE PUSH1 0x20 PUSH0 KECCAK256 SWAP1 PUSH1 0x5 MUL ADD PUSH1 0x4 ADD PUSH0 SWAP1 SLOAD SWAP1 PUSH2 0x100 EXP SWAP1 DIV PUSH1 0xFF AND PUSH2 0x20AC JUMPI PUSH1 0x40 MLOAD PUSH32 0x8C379A000000000000000000000000000000000000000000000000000000000 DUP2 MSTORE PUSH1 0x4 ADD PUSH2 0x20A3 SWAP1 PUSH2 0x3806 JUMP JUMPDEST PUSH1 0x40 MLOAD DUP1 SWAP2 SUB SWAP1 REVERT JUMPDEST PUSH2 0x20B7 CALLER DUP5 CALLER PUSH2 0x2A92 JUMP JUMPDEST POP POP PUSH2 0x20C1 PUSH2 0x2A3F JUMP JUMPDEST POP JUMP JUMPDEST PUSH1 0x6 PUSH1 0x20 MSTORE DUP1 PUSH0 MSTORE PUSH1 0x40 PUSH0 KECCAK256 PUSH0 SWAP2 POP SWAP1 POP SLOAD DUP2 JUMP JUMPDEST PUSH2 0x20E1 PUSH2 0x2969 JUMP JUMPDEST PUSH0 PUSH20 0xFFFFFFFFFFFFFFFFFFFFFFFFFFFFFFFFFFFFFFFF AND DUP2 PUSH20 0xFFFFFFFFFFFFFFFFFFFFFFFFFFFFFFFFFFFFFFFF AND SUB PUSH2 0x2151 JUMPI PUSH0 PUSH1 0x40 MLOAD PUSH32 0x1E4FBDF700000000000000000000000000000000000000000000000000000000 DUP2 MSTORE PUSH1 0x4 ADD PUSH2 0x2148 SWAP2 SWAP1 PUSH2 0x337D JUMP JUMPDEST PUSH1 0x40 MLOAD DUP1 SWAP2 SUB SWAP1 REVERT JUMPDEST PUSH2 0x215A DUP2 PUSH2 0x2EDE JUMP JUMPDEST POP JUMP JUMPDEST PUSH2 0x2165 PUSH2 0x29F0 JUMP JUMPDEST PUSH0 PUSH1 0x10 PUSH0 CALLER PUSH20 0xFFFFFFFFFFFFFFFFFFFFFFFFFFFFFFFFFFFFFFFF AND PUSH20 0xFFFFFFFFFFFFFFFFFFFFFFFFFFFFFFFFFFFFFFFF AND DUP2 MSTORE PUSH1 0x20 ADD SWAP1 DUP2 MSTORE PUSH1 0x20 ADD PUSH0 KECCAK256 SLOAD GT DUP1 ISZERO PUSH2 0x21FB JUMPI POP PUSH1 0xF SLOAD PUSH1 0x10 PUSH0 CALLER PUSH20 0xFFFFFFFFFFFFFFFFFFFFFFFFFFFFFFFFFFFFFFFF AND PUSH20 0xFFFFFFFFFFFFFFFFFFFFFFFFFFFFFFFFFFFFFFFF AND DUP2 MSTORE PUSH1 0x20 ADD SWAP1 DUP2 MSTORE PUSH1 0x20 ADD PUSH0 KECCAK256 SLOAD PUSH2 0x21F7 SWAP2 SWAP1 PUSH2 0x3051 JUMP JUMPDEST TIMESTAMP LT ISZERO JUMPDEST PUSH2 0x223A JUMPI PUSH1 0x40 MLOAD PUSH32 0x8C379A000000000000000000000000000000000000000000000000000000000 DUP2 MSTORE PUSH1 0x4 ADD PUSH2 0x2231 SWAP1 PUSH2 0x3C0A JUMP JUMPDEST PUSH1 0x40 MLOAD DUP1 SWAP2 SUB SWAP1 REVERT JUMPDEST PUSH0 PUSH1 0x5 PUSH0 CALLER PUSH20 0xFFFFFFFFFFFFFFFFFFFFFFFFFFFFFFFFFFFFFFFF AND PUSH20 0xFFFFFFFFFFFFFFFFFFFFFFFFFFFFFFFFFFFFFFFF AND DUP2 MSTORE PUSH1 0x20 ADD SWAP1 DUP2 MSTORE PUSH1 0x20 ADD PUSH0 KECCAK256 SLOAD SWAP1 POP PUSH0 DUP2 GT PUSH2 0x22BD JUMPI PUSH1 0x40 MLOAD PUSH32 0x8C379A000000000000000000000000000000000000000000000000000000000 DUP2 MSTORE PUSH1 0x4 ADD PUSH2 0x22B4 SWAP1 PUSH2 0x3C72 JUMP JUMPDEST PUSH1 0x40 MLOAD DUP1 SWAP2 SUB SWAP1 REVERT JUMPDEST PUSH0 PUSH1 0x3 PUSH0 CALLER PUSH20 0xFFFFFFFFFFFFFFFFFFFFFFFFFFFFFFFFFFFFFFFF AND PUSH20 0xFFFFFFFFFFFFFFFFFFFFFFFFFFFFFFFFFFFFFFFF AND DUP2 MSTORE PUSH1 0x20 ADD SWAP1 DUP2 MSTORE PUSH1 0x20 ADD PUSH0 KECCAK256 SWAP1 POP PUSH0 PUSH0 SWAP1 POP JUMPDEST DUP2 DUP1 SLOAD SWAP1 POP DUP2 LT ISZERO PUSH2 0x23E0 JUMPI DUP2 DUP2 DUP2 SLOAD DUP2 LT PUSH2 0x2321 JUMPI PUSH2 0x2320 PUSH2 0x36BF JUMP JUMPDEST JUMPDEST SWAP1 PUSH0 MSTORE PUSH1 0x20 PUSH0 KECCAK256 SWAP1 PUSH1 0x5 MUL ADD PUSH1 0x4 ADD PUSH0 SWAP1 SLOAD SWAP1 PUSH2 0x100 EXP SWAP1 DIV PUSH1 0xFF AND ISZERO PUSH2 0x23D3 JUMPI PUSH0 DUP3 DUP3 DUP2 SLOAD DUP2 LT PUSH2 0x2356 JUMPI PUSH2 0x2355 PUSH2 0x36BF JUMP JUMPDEST JUMPDEST SWAP1 PUSH0 MSTORE PUSH1 0x20 PUSH0 KECCAK256 SWAP1 PUSH1 0x5 MUL ADD PUSH1 0x4 ADD PUSH0 PUSH2 0x100 EXP DUP2 SLOAD DUP2 PUSH1 0xFF MUL NOT AND SWAP1 DUP4 ISZERO ISZERO MUL OR SWAP1 SSTORE POP DUP2 DUP2 DUP2 SLOAD DUP2 LT PUSH2 0x238E JUMPI PUSH2 0x238D PUSH2 0x36BF JUMP JUMPDEST JUMPDEST SWAP1 PUSH0 MSTORE PUSH1 0x20 PUSH0 KECCAK256 SWAP1 PUSH1 0x5 MUL ADD PUSH0 ADD SLOAD PUSH1 0x7 PUSH0 ADD PUSH0 DUP3 DUP3 SLOAD PUSH2 0x23AF SWAP2 SWAP1 PUSH2 0x35E3 JUMP JUMPDEST SWAP3 POP POP DUP2 SWAP1 SSTORE POP PUSH1 0x1 PUSH1 0x7 PUSH1 0x4 ADD PUSH0 DUP3 DUP3 SLOAD PUSH2 0x23CB SWAP2 SWAP1 PUSH2 0x35E3 JUMP JUMPDEST SWAP3 POP POP DUP2 SWAP1 SSTORE POP JUMPDEST DUP1 DUP1 PUSH1 0x1 ADD SWAP2 POP POP PUSH2 0x2302 JUMP JUMPDEST POP PUSH0 PUSH1 0x5 PUSH0 CALLER PUSH20 0xFFFFFFFFFFFFFFFFFFFFFFFFFFFFFFFFFFFFFFFF AND PUSH20 0xFFFFFFFFFFFFFFFFFFFFFFFFFFFFFFFFFFFFFFFF AND DUP2 MSTORE PUSH1 0x20 ADD SWAP1 DUP2 MSTORE PUSH1 0x20 ADD PUSH0 KECCAK256 DUP2 SWAP1 SSTORE POP PUSH0 PUSH1 0x10 PUSH0 CALLER PUSH20 0xFFFFFFFFFFFFFFFFFFFFFFFFFFFFFFFFFFFFFFFF AND PUSH20 0xFFFFFFFFFFFFFFFFFFFFFFFFFFFFFFFFFFFFFFFF AND DUP2 MSTORE PUSH1 0x20 ADD SWAP1 DUP2 MSTORE PUSH1 0x20 ADD PUSH0 KECCAK256 DUP2 SWAP1 SSTORE POP PUSH0 CALLER PUSH20 0xFFFFFFFFFFFFFFFFFFFFFFFFFFFFFFFFFFFFFFFF AND DUP4 PUSH1 0x40 MLOAD PUSH2 0x248A SWAP1 PUSH2 0x3643 JUMP JUMPDEST PUSH0 PUSH1 0x40 MLOAD DUP1 DUP4 SUB DUP2 DUP6 DUP8 GAS CALL SWAP3 POP POP POP RETURNDATASIZE DUP1 PUSH0 DUP2 EQ PUSH2 0x24C4 JUMPI PUSH1 0x40 MLOAD SWAP2 POP PUSH1 0x1F NOT PUSH1 0x3F RETURNDATASIZE ADD AND DUP3 ADD PUSH1 0x40 MSTORE RETURNDATASIZE DUP3 MSTORE RETURNDATASIZE PUSH0 PUSH1 0x20 DUP5 ADD RETURNDATACOPY PUSH2 0x24C9 JUMP JUMPDEST PUSH1 0x60 SWAP2 POP JUMPDEST POP POP SWAP1 POP DUP1 PUSH2 0x250D JUMPI PUSH1 0x40 MLOAD PUSH32 0x8C379A000000000000000000000000000000000000000000000000000000000 DUP2 MSTORE PUSH1 0x4 ADD PUSH2 0x2504 SWAP1 PUSH2 0x3CDA JUMP JUMPDEST PUSH1 0x40 MLOAD DUP1 SWAP2 SUB SWAP1 REVERT JUMPDEST CALLER PUSH20 0xFFFFFFFFFFFFFFFFFFFFFFFFFFFFFFFFFFFFFFFF AND PUSH32 0xAF6E7D750E5A786A0B4D0E00806A5F778D09769D9C8C0EE377CC6DF72AF07115 DUP5 PUSH1 0x40 MLOAD PUSH2 0x2553 SWAP2 SWAP1 PUSH2 0x3093 JUMP JUMPDEST PUSH1 0x40 MLOAD DUP1 SWAP2 SUB SWAP1 LOG2 POP POP POP PUSH2 0x2566 PUSH2 0x2A3F JUMP JUMPDEST JUMP JUMPDEST PUSH2 0x2570 PUSH2 0x2A48 JUMP JUMPDEST PUSH2 0x2578 PUSH2 0x29F0 JUMP JUMPDEST PUSH7 0x38D7EA4C68000 CALLVALUE LT ISZERO PUSH2 0x25C2 JUMPI PUSH1 0x40 MLOAD PUSH32 0x8C379A000000000000000000000000000000000000000000000000000000000 DUP2 MSTORE PUSH1 0x4 ADD PUSH2 0x25B9 SWAP1 PUSH2 0x3B05 JUMP JUMPDEST PUSH1 0x40 MLOAD DUP1 SWAP2 SUB SWAP1 REVERT JUMPDEST PUSH2 0x25CA PUSH2 0x2D71 JUMP JUMPDEST PUSH0 PUSH1 0x40 MLOAD DUP1 PUSH1 0xA0 ADD PUSH1 0x40 MSTORE DUP1 CALLVALUE DUP2 MSTORE PUSH1 0x20 ADD PUSH0 DUP2 MSTORE PUSH1 0x20 ADD TIMESTAMP DUP2 MSTORE PUSH1 0x20 ADD DUP4 DUP2 MSTORE PUSH1 0x20 ADD PUSH1 0x1 ISZERO ISZERO DUP2 MSTORE POP SWAP1 POP PUSH1 0x3 PUSH0 CALLER PUSH20 0xFFFFFFFFFFFFFFFFFFFFFFFFFFFFFFFFFFFFFFFF AND PUSH20 0xFFFFFFFFFFFFFFFFFFFFFFFFFFFFFFFFFFFFFFFF AND DUP2 MSTORE PUSH1 0x20 ADD SWAP1 DUP2 MSTORE PUSH1 0x20 ADD PUSH0 KECCAK256 DUP2 SWAP1 DUP1 PUSH1 0x1 DUP2 SLOAD ADD DUP1 DUP3 SSTORE DUP1 SWAP2 POP POP PUSH1 0x1 SWAP1 SUB SWAP1 PUSH0 MSTORE PUSH1 0x20 PUSH0 KECCAK256 SWAP1 PUSH1 0x5 MUL ADD PUSH0 SWAP1 SWAP2 SWAP1 SWAP2 SWAP1 SWAP2 POP PUSH0 DUP3 ADD MLOAD DUP2 PUSH0 ADD SSTORE PUSH1 0x20 DUP3 ADD MLOAD DUP2 PUSH1 0x1 ADD SSTORE PUSH1 0x40 DUP3 ADD MLOAD DUP2 PUSH1 0x2 ADD SSTORE PUSH1 0x60 DUP3 ADD MLOAD DUP2 PUSH1 0x3 ADD SSTORE PUSH1 0x80 DUP3 ADD MLOAD DUP2 PUSH1 0x4 ADD PUSH0 PUSH2 0x100 EXP DUP2 SLOAD DUP2 PUSH1 0xFF MUL NOT AND SWAP1 DUP4 ISZERO ISZERO MUL OR SWAP1 SSTORE POP POP POP PUSH0 PUSH1 0x1 PUSH1 0x3 PUSH0 CALLER PUSH20 0xFFFFFFFFFFFFFFFFFFFFFFFFFFFFFFFFFFFFFFFF AND PUSH20 0xFFFFFFFFFFFFFFFFFFFFFFFFFFFFFFFFFFFFFFFF AND DUP2 MSTORE PUSH1 0x20 ADD SWAP1 DUP2 MSTORE PUSH1 0x20 ADD PUSH0 KECCAK256 DUP1 SLOAD SWAP1 POP PUSH2 0x26F0 SWAP2 SWAP1 PUSH2 0x35E3 JUMP JUMPDEST SWAP1 POP PUSH0 DUP4 GT ISZERO PUSH2 0x27A1 JUMPI PUSH1 0x4 PUSH0 DUP5 DUP2 MSTORE PUSH1 0x20 ADD SWAP1 DUP2 MSTORE PUSH1 0x20 ADD PUSH0 KECCAK256 DUP3 SWAP1 DUP1 PUSH1 0x1 DUP2 SLOAD ADD DUP1 DUP3 SSTORE DUP1 SWAP2 POP POP PUSH1 0x1 SWAP1 SUB SWAP1 PUSH0 MSTORE PUSH1 0x20 PUSH0 KECCAK256 SWAP1 PUSH1 0x5 MUL ADD PUSH0 SWAP1 SWAP2 SWAP1 SWAP2 SWAP1 SWAP2 POP PUSH0 DUP3 ADD MLOAD DUP2 PUSH0 ADD SSTORE PUSH1 0x20 DUP3 ADD MLOAD DUP2 PUSH1 0x1 ADD SSTORE PUSH1 0x40 DUP3 ADD MLOAD DUP2 PUSH1 0x2 ADD SSTORE PUSH1 0x60 DUP3 ADD MLOAD DUP2 PUSH1 0x3 ADD SSTORE PUSH1 0x80 DUP3 ADD MLOAD DUP2 PUSH1 0x4 ADD PUSH0 PUSH2 0x100 EXP DUP2 SLOAD DUP2 PUSH1 0xFF MUL NOT AND SWAP1 DUP4 ISZERO ISZERO MUL OR SWAP1 SSTORE POP POP POP CALLVALUE PUSH1 0x6 PUSH0 DUP6 DUP2 MSTORE PUSH1 0x20 ADD SWAP1 DUP2 MSTORE PUSH1 0x20 ADD PUSH0 KECCAK256 PUSH0 DUP3 DUP3 SLOAD PUSH2 0x2799 SWAP2 SWAP1 PUSH2 0x3051 JUMP JUMPDEST SWAP3 POP POP DUP2 SWAP1 SSTORE POP JUMPDEST CALLVALUE PUSH1 0x5 PUSH0 CALLER PUSH20 0xFFFFFFFFFFFFFFFFFFFFFFFFFFFFFFFFFFFFFFFF AND PUSH20 0xFFFFFFFFFFFFFFFFFFFFFFFFFFFFFFFFFFFFFFFF AND DUP2 MSTORE PUSH1 0x20 ADD SWAP1 DUP2 MSTORE PUSH1 0x20 ADD PUSH0 KECCAK256 PUSH0 DUP3 DUP3 SLOAD PUSH2 0x27ED SWAP2 SWAP1 PUSH2 0x3051 JUMP JUMPDEST SWAP3 POP POP DUP2 SWAP1 SSTORE POP CALLVALUE PUSH1 0x7 PUSH0 ADD PUSH0 DUP3 DUP3 SLOAD PUSH2 0x2807 SWAP2 SWAP1 PUSH2 0x3051 JUMP JUMPDEST SWAP3 POP POP DUP2 SWAP1 SSTORE POP PUSH1 0x1 PUSH1 0x7 PUSH1 0x4 ADD PUSH0 DUP3 DUP3 SLOAD PUSH2 0x2823 SWAP2 SWAP1 PUSH2 0x3051 JUMP JUMPDEST SWAP3 POP POP DUP2 SWAP1 SSTORE POP CALLER PUSH20 0xFFFFFFFFFFFFFFFFFFFFFFFFFFFFFFFFFFFFFFFF AND PUSH32 0x55B223C72892936A872C1F417E7E143A0592419FE999642DBB4BCCB55B8C6E83 CALLVALUE DUP6 DUP5 PUSH1 0x40 MLOAD PUSH2 0x2874 SWAP4 SWAP3 SWAP2 SWAP1 PUSH2 0x3B23 JUMP JUMPDEST PUSH1 0x40 MLOAD DUP1 SWAP2 SUB SWAP1 LOG2 POP POP PUSH2 0x2886 PUSH2 0x2A3F JUMP JUMPDEST POP JUMP JUMPDEST PUSH0 PUSH0 PUSH1 0x3 PUSH0 DUP6 PUSH20 0xFFFFFFFFFFFFFFFFFFFFFFFFFFFFFFFFFFFFFFFF AND PUSH20 0xFFFFFFFFFFFFFFFFFFFFFFFFFFFFFFFFFFFFFFFF AND DUP2 MSTORE PUSH1 0x20 ADD SWAP1 DUP2 MSTORE PUSH1 0x20 ADD PUSH0 KECCAK256 DUP4 DUP2 SLOAD DUP2 LT PUSH2 0x28DA JUMPI PUSH2 0x28D9 PUSH2 0x36BF JUMP JUMPDEST JUMPDEST SWAP1 PUSH0 MSTORE PUSH1 0x20 PUSH0 KECCAK256 SWAP1 PUSH1 0x5 MUL ADD SWAP1 POP DUP1 PUSH1 0x4 ADD PUSH0 SWAP1 SLOAD SWAP1 PUSH2 0x100 EXP SWAP1 DIV PUSH1 0xFF AND PUSH2 0x2906 JUMPI PUSH0 SWAP2 POP POP PUSH2 0x2963 JUMP JUMPDEST PUSH0 DUP2 PUSH1 0x2 ADD SLOAD TIMESTAMP PUSH2 0x2917 SWAP2 SWAP1 PUSH2 0x35E3 JUMP JUMPDEST SWAP1 POP PUSH0 PUSH2 0x2710 PUSH1 0x7 PUSH1 0x2 ADD SLOAD DUP5 PUSH0 ADD SLOAD PUSH2 0x2931 SWAP2 SWAP1 PUSH2 0x3CF8 JUMP JUMPDEST PUSH2 0x293B SWAP2 SWAP1 PUSH2 0x3D66 JUMP JUMPDEST SWAP1 POP PUSH0 PUSH4 0x1E13380 DUP4 DUP4 PUSH2 0x294F SWAP2 SWAP1 PUSH2 0x3CF8 JUMP JUMPDEST PUSH2 0x2959 SWAP2 SWAP1 PUSH2 0x3D66 JUMP JUMPDEST SWAP1 POP DUP1 SWAP5 POP POP POP POP POP JUMPDEST SWAP3 SWAP2 POP POP JUMP JUMPDEST PUSH2 0x2971 PUSH2 0x2F9F JUMP JUMPDEST PUSH20 0xFFFFFFFFFFFFFFFFFFFFFFFFFFFFFFFFFFFFFFFF AND PUSH2 0x298F PUSH2 0x1313 JUMP JUMPDEST PUSH20 0xFFFFFFFFFFFFFFFFFFFFFFFFFFFFFFFFFFFFFFFF AND EQ PUSH2 0x29EE JUMPI PUSH2 0x29B2 PUSH2 0x2F9F JUMP JUMPDEST PUSH1 0x40 MLOAD PUSH32 0x118CDAA700000000000000000000000000000000000000000000000000000000 DUP2 MSTORE PUSH1 0x4 ADD PUSH2 0x29E5 SWAP2 SWAP1 PUSH2 0x337D JUMP JUMPDEST PUSH1 0x40 MLOAD DUP1 SWAP2 SUB SWAP1 REVERT JUMPDEST JUMP JUMPDEST PUSH1 0x2 PUSH1 0x1 SLOAD SUB PUSH2 0x2A35 JUMPI PUSH1 0x40 MLOAD PUSH32 0x8C379A000000000000000000000000000000000000000000000000000000000 DUP2 MSTORE PUSH1 0x4 ADD PUSH2 0x2A2C SWAP1 PUSH2 0x3DE0 JUMP JUMPDEST PUSH1 0x40 MLOAD DUP1 SWAP2 SUB SWAP1 REVERT JUMPDEST PUSH1 0x2 PUSH1 0x1 DUP2 SWAP1 SSTORE POP JUMP JUMPDEST PUSH1 0x1 DUP1 DUP2 SWAP1 SSTORE POP JUMP JUMPDEST PUSH2 0x2A50 PUSH2 0x1227 JUMP JUMPDEST ISZERO PUSH2 0x2A90 JUMPI PUSH1 0x40 MLOAD PUSH32 0x8C379A000000000000000000000000000000000000000000000000000000000 DUP2 MSTORE PUSH1 0x4 ADD PUSH2 0x2A87 SWAP1 PUSH2 0x3E48 JUMP JUMPDEST PUSH1 0x40 MLOAD DUP1 SWAP2 SUB SWAP1 REVERT JUMPDEST JUMP JUMPDEST PUSH0 PUSH1 0x3 PUSH0 DUP6 PUSH20 0xFFFFFFFFFFFFFFFFFFFFFFFFFFFFFFFFFFFFFFFF AND PUSH20 0xFFFFFFFFFFFFFFFFFFFFFFFFFFFFFFFFFFFFFFFF AND DUP2 MSTORE PUSH1 0x20 ADD SWAP1 DUP2 MSTORE PUSH1 0x20 ADD PUSH0 KECCAK256 DUP4 DUP2 SLOAD DUP2 LT PUSH2 0x2AE2 JUMPI PUSH2 0x2AE1 PUSH2 0x36BF JUMP JUMPDEST JUMPDEST SWAP1 PUSH0 MSTORE PUSH1 0x20 PUSH0 KECCAK256 SWAP1 PUSH1 0x5 MUL ADD SWAP1 POP PUSH0 PUSH2 0x2AFB DUP6 DUP6 PUSH2 0x2889 JUMP JUMPDEST SWAP1 POP DUP1 DUP3 PUSH1 0x1 ADD PUSH0 DUP3 DUP3 SLOAD PUSH2 0x2B10 SWAP2 SWAP1 PUSH2 0x3051 JUMP JUMPDEST SWAP3 POP POP DUP2 SWAP1 SSTORE POP PUSH0 DUP3 PUSH1 0x1 ADD SLOAD DUP4 PUSH0 ADD SLOAD PUSH2 0x2B2B SWAP2 SWAP1 PUSH2 0x3051 JUMP JUMPDEST SWAP1 POP PUSH0 PUSH2 0x2710 PUSH1 0xE SLOAD DUP6 PUSH1 0x1 ADD SLOAD PUSH2 0x2B43 SWAP2 SWAP1 PUSH2 0x3CF8 JUMP JUMPDEST PUSH2 0x2B4D SWAP2 SWAP1 PUSH2 0x3D66 JUMP JUMPDEST SWAP1 POP PUSH0 DUP2 DUP4 PUSH2 0x2B5C SWAP2 SWAP1 PUSH2 0x35E3 JUMP JUMPDEST SWAP1 POP PUSH0 DUP6 PUSH1 0x3 ADD SLOAD SWAP1 POP PUSH0 DUP7 PUSH1 0x4 ADD PUSH0 PUSH2 0x100 EXP DUP2 SLOAD DUP2 PUSH1 0xFF MUL NOT AND SWAP1 DUP4 ISZERO ISZERO MUL OR SWAP1 SSTORE POP DUP6 PUSH0 ADD SLOAD PUSH1 0x5 PUSH0 DUP12 PUSH20 0xFFFFFFFFFFFFFFFFFFFFFFFFFFFFFFFFFFFFFFFF AND PUSH20 0xFFFFFFFFFFFFFFFFFFFFFFFFFFFFFFFFFFFFFFFF AND DUP2 MSTORE PUSH1 0x20 ADD SWAP1 DUP2 MSTORE PUSH1 0x20 ADD PUSH0 KECCAK256 PUSH0 DUP3 DUP3 SLOAD PUSH2 0x2BD0 SWAP2 SWAP1 PUSH2 0x35E3 JUMP JUMPDEST SWAP3 POP POP DUP2 SWAP1 SSTORE POP DUP6 PUSH0 ADD SLOAD PUSH1 0x7 PUSH0 ADD PUSH0 DUP3 DUP3 SLOAD PUSH2 0x2BED SWAP2 SWAP1 PUSH2 0x35E3 JUMP JUMPDEST SWAP3 POP POP DUP2 SWAP1 SSTORE POP PUSH1 0x1 PUSH1 0x7 PUSH1 0x4 ADD PUSH0 DUP3 DUP3 SLOAD PUSH2 0x2C09 SWAP2 SWAP1 PUSH2 0x35E3 JUMP JUMPDEST SWAP3 POP POP DUP2 SWAP1 SSTORE POP PUSH0 DUP2 GT ISZERO PUSH2 0x2C43 JUMPI DUP6 PUSH0 ADD SLOAD PUSH1 0x6 PUSH0 DUP4 DUP2 MSTORE PUSH1 0x20 ADD SWAP1 DUP2 MSTORE PUSH1 0x20 ADD PUSH0 KECCAK256 PUSH0 DUP3 DUP3 SLOAD PUSH2 0x2C3B SWAP2 SWAP1 PUSH2 0x35E3 JUMP JUMPDEST SWAP3 POP POP DUP2 SWAP1 SSTORE POP JUMPDEST PUSH0 DUP4 GT ISZERO PUSH2 0x2C64 JUMPI DUP3 PUSH1 0xD PUSH0 DUP3 DUP3 SLOAD PUSH2 0x2C5C SWAP2 SWAP1 PUSH2 0x3051 JUMP JUMPDEST SWAP3 POP POP DUP2 SWAP1 SSTORE POP JUMPDEST PUSH0 DUP8 PUSH20 0xFFFFFFFFFFFFFFFFFFFFFFFFFFFFFFFFFFFFFFFF AND DUP4 PUSH1 0x40 MLOAD PUSH2 0x2C89 SWAP1 PUSH2 0x3643 JUMP JUMPDEST PUSH0 PUSH1 0x40 MLOAD DUP1 DUP4 SUB DUP2 DUP6 DUP8 GAS CALL SWAP3 POP POP POP RETURNDATASIZE DUP1 PUSH0 DUP2 EQ PUSH2 0x2CC3 JUMPI PUSH1 0x40 MLOAD SWAP2 POP PUSH1 0x1F NOT PUSH1 0x3F RETURNDATASIZE ADD AND DUP3 ADD PUSH1 0x40 MSTORE RETURNDATASIZE DUP3 MSTORE RETURNDATASIZE PUSH0 PUSH1 0x20 DUP5 ADD RETURNDATACOPY PUSH2 0x2CC8 JUMP JUMPDEST PUSH1 0x60 SWAP2 POP JUMPDEST POP POP SWAP1 POP DUP1 PUSH2 0x2D0C JUMPI PUSH1 0x40 MLOAD PUSH32 0x8C379A000000000000000000000000000000000000000000000000000000000 DUP2 MSTORE PUSH1 0x4 ADD PUSH2 0x2D03 SWAP1 PUSH2 0x3EB0 JUMP JUMPDEST PUSH1 0x40 MLOAD DUP1 SWAP2 SUB SWAP1 REVERT JUMPDEST DUP10 PUSH20 0xFFFFFFFFFFFFFFFFFFFFFFFFFFFFFFFFFFFFFFFF AND PUSH32 0xC8B5AB210E9D3B6A82B80AA35E2CC486DC439D18CBFEF6006C423A516768F70B DUP9 PUSH0 ADD SLOAD DUP10 PUSH1 0x1 ADD SLOAD DUP13 PUSH1 0x40 MLOAD PUSH2 0x2D5D SWAP4 SWAP3 SWAP2 SWAP1 PUSH2 0x3B23 JUMP JUMPDEST PUSH1 0x40 MLOAD DUP1 SWAP2 SUB SWAP1 LOG2 POP POP POP POP POP POP POP POP POP POP JUMP JUMPDEST TIMESTAMP PUSH1 0x7 PUSH1 0x3 ADD DUP2 SWAP1 SSTORE POP PUSH9 0x56BC75E2D63100000 PUSH1 0x7 PUSH0 ADD SLOAD GT ISZERO PUSH2 0x2DCB JUMPI PUSH1 0x32 DUP1 PUSH2 0x2D9D SWAP2 SWAP1 PUSH2 0x3051 JUMP JUMPDEST PUSH1 0x7 PUSH1 0x2 ADD SLOAD GT ISZERO PUSH2 0x2DC6 JUMPI PUSH1 0xA PUSH1 0x7 PUSH1 0x2 ADD PUSH0 DUP3 DUP3 SLOAD PUSH2 0x2DBE SWAP2 SWAP1 PUSH2 0x35E3 JUMP JUMPDEST SWAP3 POP POP DUP2 SWAP1 SSTORE POP JUMPDEST PUSH2 0x2E19 JUMP JUMPDEST PUSH8 0x8AC7230489E80000 PUSH1 0x7 PUSH0 ADD SLOAD LT ISZERO PUSH2 0x2E18 JUMPI PUSH1 0x32 PUSH2 0x320 PUSH2 0x2DEE SWAP2 SWAP1 PUSH2 0x35E3 JUMP JUMPDEST PUSH1 0x7 PUSH1 0x2 ADD SLOAD LT ISZERO PUSH2 0x2E17 JUMPI PUSH1 0xA PUSH1 0x7 PUSH1 0x2 ADD PUSH0 DUP3 DUP3 SLOAD PUSH2 0x2E0F SWAP2 SWAP1 PUSH2 0x3051 JUMP JUMPDEST SWAP3 POP POP DUP2 SWAP1 SSTORE POP JUMPDEST JUMPDEST JUMPDEST JUMP JUMPDEST PUSH2 0x2E23 PUSH2 0x2FA6 JUMP JUMPDEST PUSH0 PUSH1 0x2 PUSH0 PUSH2 0x100 EXP DUP2 SLOAD DUP2 PUSH1 0xFF MUL NOT AND SWAP1 DUP4 ISZERO ISZERO MUL OR SWAP1 SSTORE POP PUSH32 0x5DB9EE0A495BF2E6FF9C91A7834C1BA4FDD244A5E8AA4E537BD38AEAE4B073AA PUSH2 0x2E65 PUSH2 0x2F9F JUMP JUMPDEST PUSH1 0x40 MLOAD PUSH2 0x2E72 SWAP2 SWAP1 PUSH2 0x337D JUMP JUMPDEST PUSH1 0x40 MLOAD DUP1 SWAP2 SUB SWAP1 LOG1 JUMP JUMPDEST PUSH2 0x2E84 PUSH2 0x2A48 JUMP JUMPDEST PUSH1 0x1 PUSH1 0x2 PUSH0 PUSH2 0x100 EXP DUP2 SLOAD DUP2 PUSH1 0xFF MUL NOT AND SWAP1 DUP4 ISZERO ISZERO MUL OR SWAP1 SSTORE POP PUSH32 0x62E78CEA01BEE320CD4E420270B5EA74000D11B0C9F74754EBDBFC544B05A258 PUSH2 0x2EC7 PUSH2 0x2F9F JUMP JUMPDEST PUSH1 0x40 MLOAD PUSH2 0x2ED4 SWAP2 SWAP1 PUSH2 0x337D JUMP JUMPDEST PUSH1 0x40 MLOAD DUP1 SWAP2 SUB SWAP1 LOG1 JUMP JUMPDEST PUSH0 PUSH0 PUSH0 SWAP1 SLOAD SWAP1 PUSH2 0x100 EXP SWAP1 DIV PUSH20 0xFFFFFFFFFFFFFFFFFFFFFFFFFFFFFFFFFFFFFFFF AND SWAP1 POP DUP2 PUSH0 PUSH0 PUSH2 0x100 EXP DUP2 SLOAD DUP2 PUSH20 0xFFFFFFFFFFFFFFFFFFFFFFFFFFFFFFFFFFFFFFFF MUL NOT AND SWAP1 DUP4 PUSH20 0xFFFFFFFFFFFFFFFFFFFFFFFFFFFFFFFFFFFFFFFF AND MUL OR SWAP1 SSTORE POP DUP2 PUSH20 0xFFFFFFFFFFFFFFFFFFFFFFFFFFFFFFFFFFFFFFFF AND DUP2 PUSH20 0xFFFFFFFFFFFFFFFFFFFFFFFFFFFFFFFFFFFFFFFF AND PUSH32 0x8BE0079C531659141344CD1FD0A4F28419497F9722A3DAAFE3B4186F6B6457E0 PUSH1 0x40 MLOAD PUSH1 0x40 MLOAD DUP1 SWAP2 SUB SWAP1 LOG3 POP POP JUMP JUMPDEST PUSH0 CALLER SWAP1 POP SWAP1 JUMP JUMPDEST PUSH2 0x2FAE PUSH2 0x1227 JUMP JUMPDEST PUSH2 0x2FED JUMPI PUSH1 0x40 MLOAD PUSH32 0x8C379A000000000000000000000000000000000000000000000000000000000 DUP2 MSTORE PUSH1 0x4 ADD PUSH2 0x2FE4 SWAP1 PUSH2 0x3F18 JUMP JUMPDEST PUSH1 0x40 MLOAD DUP1 SWAP2 SUB SWAP1 REVERT JUMPDEST JUMP JUMPDEST PUSH1 0x40 MLOAD DUP1 PUSH1 0xA0 ADD PUSH1 0x40 MSTORE DUP1 PUSH0 DUP2 MSTORE PUSH1 0x20 ADD PUSH0 DUP2 MSTORE PUSH1 0x20 ADD PUSH0 DUP2 MSTORE PUSH1 0x20 ADD PUSH0 DUP2 MSTORE PUSH1 0x20 ADD PUSH0 ISZERO ISZERO DUP2 MSTORE POP SWAP1 JUMP JUMPDEST PUSH0 DUP2 SWAP1 POP SWAP2 SWAP1 POP JUMP JUMPDEST PUSH32 0x4E487B7100000000000000000000000000000000000000000000000000000000 PUSH0 MSTORE PUSH1 0x11 PUSH1 0x4 MSTORE PUSH1 0x24 PUSH0 REVERT JUMPDEST PUSH0 PUSH2 0x305B DUP3 PUSH2 0x301B JUMP JUMPDEST SWAP2 POP PUSH2 0x3066 DUP4 PUSH2 0x301B JUMP JUMPDEST SWAP3 POP DUP3 DUP3 ADD SWAP1 POP DUP1 DUP3 GT ISZERO PUSH2 0x307E JUMPI PUSH2 0x307D PUSH2 0x3024 JUMP JUMPDEST JUMPDEST SWAP3 SWAP2 POP POP JUMP JUMPDEST PUSH2 0x308D DUP2 PUSH2 0x301B JUMP JUMPDEST DUP3 MSTORE POP POP JUMP JUMPDEST PUSH0 PUSH1 0x20 DUP3 ADD SWAP1 POP PUSH2 0x30A6 PUSH0 DUP4 ADD DUP5 PUSH2 0x3084 JUMP JUMPDEST SWAP3 SWAP2 POP POP JUMP JUMPDEST PUSH0 DUP3 DUP3 MSTORE PUSH1 0x20 DUP3 ADD SWAP1 POP SWAP3 SWAP2 POP POP JUMP JUMPDEST PUSH32 0x46756E6374696F6E206E6F7420666F756E640000000000000000000000000000 PUSH0 DUP3 ADD MSTORE POP JUMP JUMPDEST PUSH0 PUSH2 0x30F0 PUSH1 0x12 DUP4 PUSH2 0x30AC JUMP JUMPDEST SWAP2 POP PUSH2 0x30FB DUP3 PUSH2 0x30BC JUMP JUMPDEST PUSH1 0x20 DUP3 ADD SWAP1 POP SWAP2 SWAP1 POP JUMP JUMPDEST PUSH0 PUSH1 0x20 DUP3 ADD SWAP1 POP DUP2 DUP2 SUB PUSH0 DUP4 ADD MSTORE PUSH2 0x311D DUP2 PUSH2 0x30E4 JUMP JUMPDEST SWAP1 POP SWAP2 SWAP1 POP JUMP JUMPDEST PUSH0 PUSH0 REVERT JUMPDEST PUSH0 PUSH20 0xFFFFFFFFFFFFFFFFFFFFFFFFFFFFFFFFFFFFFFFF DUP3 AND SWAP1 POP SWAP2 SWAP1 POP JUMP JUMPDEST PUSH0 PUSH2 0x3151 DUP3 PUSH2 0x3128 JUMP JUMPDEST SWAP1 POP SWAP2 SWAP1 POP JUMP JUMPDEST PUSH2 0x3161 DUP2 PUSH2 0x3147 JUMP JUMPDEST DUP2 EQ PUSH2 0x316B JUMPI PUSH0 PUSH0 REVERT JUMPDEST POP JUMP JUMPDEST PUSH0 DUP2 CALLDATALOAD SWAP1 POP PUSH2 0x317C DUP2 PUSH2 0x3158 JUMP JUMPDEST SWAP3 SWAP2 POP POP JUMP JUMPDEST PUSH2 0x318B DUP2 PUSH2 0x301B JUMP JUMPDEST DUP2 EQ PUSH2 0x3195 JUMPI PUSH0 PUSH0 REVERT JUMPDEST POP JUMP JUMPDEST PUSH0 DUP2 CALLDATALOAD SWAP1 POP PUSH2 0x31A6 DUP2 PUSH2 0x3182 JUMP JUMPDEST SWAP3 SWAP2 POP POP JUMP JUMPDEST PUSH0 PUSH0 PUSH1 0x40 DUP4 DUP6 SUB SLT ISZERO PUSH2 0x31C2 JUMPI PUSH2 0x31C1 PUSH2 0x3124 JUMP JUMPDEST JUMPDEST PUSH0 PUSH2 0x31CF DUP6 DUP3 DUP7 ADD PUSH2 0x316E JUMP JUMPDEST SWAP3 POP POP PUSH1 0x20 PUSH2 0x31E0 DUP6 DUP3 DUP7 ADD PUSH2 0x3198 JUMP JUMPDEST SWAP2 POP POP SWAP3 POP SWAP3 SWAP1 POP JUMP JUMPDEST PUSH0 PUSH1 0x20 DUP3 DUP5 SUB SLT ISZERO PUSH2 0x31FF JUMPI PUSH2 0x31FE PUSH2 0x3124 JUMP JUMPDEST JUMPDEST PUSH0 PUSH2 0x320C DUP5 DUP3 DUP6 ADD PUSH2 0x3198 JUMP JUMPDEST SWAP2 POP POP SWAP3 SWAP2 POP POP JUMP JUMPDEST PUSH0 PUSH1 0x80 DUP3 ADD SWAP1 POP PUSH2 0x3228 PUSH0 DUP4 ADD DUP8 PUSH2 0x3084 JUMP JUMPDEST PUSH2 0x3235 PUSH1 0x20 DUP4 ADD DUP7 PUSH2 0x3084 JUMP JUMPDEST PUSH2 0x3242 PUSH1 0x40 DUP4 ADD DUP6 PUSH2 0x3084 JUMP JUMPDEST PUSH2 0x324F PUSH1 0x60 DUP4 ADD DUP5 PUSH2 0x3084 JUMP JUMPDEST SWAP6 SWAP5 POP POP POP POP POP JUMP JUMPDEST PUSH0 PUSH1 0x20 DUP3 DUP5 SUB SLT ISZERO PUSH2 0x326D JUMPI PUSH2 0x326C PUSH2 0x3124 JUMP JUMPDEST JUMPDEST PUSH0 PUSH2 0x327A DUP5 DUP3 DUP6 ADD PUSH2 0x316E JUMP JUMPDEST SWAP2 POP POP SWAP3 SWAP2 POP POP JUMP JUMPDEST PUSH0 PUSH0 PUSH0 PUSH1 0x60 DUP5 DUP7 SUB SLT ISZERO PUSH2 0x329A JUMPI PUSH2 0x3299 PUSH2 0x3124 JUMP JUMPDEST JUMPDEST PUSH0 PUSH2 0x32A7 DUP7 DUP3 DUP8 ADD PUSH2 0x316E JUMP JUMPDEST SWAP4 POP POP PUSH1 0x20 PUSH2 0x32B8 DUP7 DUP3 DUP8 ADD PUSH2 0x3198 JUMP JUMPDEST SWAP3 POP POP PUSH1 0x40 PUSH2 0x32C9 DUP7 DUP3 DUP8 ADD PUSH2 0x316E JUMP JUMPDEST SWAP2 POP POP SWAP3 POP SWAP3 POP SWAP3 JUMP JUMPDEST PUSH0 DUP2 ISZERO ISZERO SWAP1 POP SWAP2 SWAP1 POP JUMP JUMPDEST PUSH2 0x32E7 DUP2 PUSH2 0x32D3 JUMP JUMPDEST DUP2 EQ PUSH2 0x32F1 JUMPI PUSH0 PUSH0 REVERT JUMPDEST POP JUMP JUMPDEST PUSH0 DUP2 CALLDATALOAD SWAP1 POP PUSH2 0x3302 DUP2 PUSH2 0x32DE JUMP JUMPDEST SWAP3 SWAP2 POP POP JUMP JUMPDEST PUSH0 PUSH0 PUSH1 0x40 DUP4 DUP6 SUB SLT ISZERO PUSH2 0x331E JUMPI PUSH2 0x331D PUSH2 0x3124 JUMP JUMPDEST JUMPDEST PUSH0 PUSH2 0x332B DUP6 DUP3 DUP7 ADD PUSH2 0x316E JUMP JUMPDEST SWAP3 POP POP PUSH1 0x20 PUSH2 0x333C DUP6 DUP3 DUP7 ADD PUSH2 0x32F4 JUMP JUMPDEST SWAP2 POP POP SWAP3 POP SWAP3 SWAP1 POP JUMP JUMPDEST PUSH2 0x334F DUP2 PUSH2 0x32D3 JUMP JUMPDEST DUP3 MSTORE POP POP JUMP JUMPDEST PUSH0 PUSH1 0x20 DUP3 ADD SWAP1 POP PUSH2 0x3368 PUSH0 DUP4 ADD DUP5 PUSH2 0x3346 JUMP JUMPDEST SWAP3 SWAP2 POP POP JUMP JUMPDEST PUSH2 0x3377 DUP2 PUSH2 0x3147 JUMP JUMPDEST DUP3 MSTORE POP POP JUMP JUMPDEST PUSH0 PUSH1 0x20 DUP3 ADD SWAP1 POP PUSH2 0x3390 PUSH0 DUP4 ADD DUP5 PUSH2 0x336E JUMP JUMPDEST SWAP3 SWAP2 POP POP JUMP JUMPDEST PUSH0 PUSH1 0xA0 DUP3 ADD SWAP1 POP PUSH2 0x33A9 PUSH0 DUP4 ADD DUP9 PUSH2 0x3084 JUMP JUMPDEST PUSH2 0x33B6 PUSH1 0x20 DUP4 ADD DUP8 PUSH2 0x3084 JUMP JUMPDEST PUSH2 0x33C3 PUSH1 0x40 DUP4 ADD DUP7 PUSH2 0x3084 JUMP JUMPDEST PUSH2 0x33D0 PUSH1 0x60 DUP4 ADD DUP6 PUSH2 0x3084 JUMP JUMPDEST PUSH2 0x33DD PUSH1 0x80 DUP4 ADD DUP5 PUSH2 0x3346 JUMP JUMPDEST SWAP7 SWAP6 POP POP POP POP POP POP JUMP JUMPDEST PUSH2 0x33F0 DUP2 PUSH2 0x301B JUMP JUMPDEST DUP3 MSTORE POP POP JUMP JUMPDEST PUSH2 0x33FF DUP2 PUSH2 0x32D3 JUMP JUMPDEST DUP3 MSTORE POP POP JUMP JUMPDEST PUSH1 0xA0 DUP3 ADD PUSH0 DUP3 ADD MLOAD PUSH2 0x3419 PUSH0 DUP6 ADD DUP3 PUSH2 0x33E7 JUMP JUMPDEST POP PUSH1 0x20 DUP3 ADD MLOAD PUSH2 0x342C PUSH1 0x20 DUP6 ADD DUP3 PUSH2 0x33E7 JUMP JUMPDEST POP PUSH1 0x40 DUP3 ADD MLOAD PUSH2 0x343F PUSH1 0x40 DUP6 ADD DUP3 PUSH2 0x33E7 JUMP JUMPDEST POP PUSH1 0x60 DUP3 ADD MLOAD PUSH2 0x3452 PUSH1 0x60 DUP6 ADD DUP3 PUSH2 0x33E7 JUMP JUMPDEST POP PUSH1 0x80 DUP3 ADD MLOAD PUSH2 0x3465 PUSH1 0x80 DUP6 ADD DUP3 PUSH2 0x33F6 JUMP JUMPDEST POP POP POP POP JUMP JUMPDEST PUSH0 PUSH1 0xA0 DUP3 ADD SWAP1 POP PUSH2 0x347E PUSH0 DUP4 ADD DUP5 PUSH2 0x3405 JUMP JUMPDEST SWAP3 SWAP2 POP POP JUMP JUMPDEST PUSH0 PUSH0 PUSH1 0x40 DUP4 DUP6 SUB SLT ISZERO PUSH2 0x349A JUMPI PUSH2 0x3499 PUSH2 0x3124 JUMP JUMPDEST JUMPDEST PUSH0 PUSH2 0x34A7 DUP6 DUP3 DUP7 ADD PUSH2 0x3198 JUMP JUMPDEST SWAP3 POP POP PUSH1 0x20 PUSH2 0x34B8 DUP6 DUP3 DUP7 ADD PUSH2 0x3198 JUMP JUMPDEST SWAP2 POP POP SWAP3 POP SWAP3 SWAP1 POP JUMP JUMPDEST PUSH0 PUSH1 0xA0 DUP3 ADD SWAP1 POP PUSH2 0x34D5 PUSH0 DUP4 ADD DUP9 PUSH2 0x3084 JUMP JUMPDEST PUSH2 0x34E2 PUSH1 0x20 DUP4 ADD DUP8 PUSH2 0x3084 JUMP JUMPDEST PUSH2 0x34EF PUSH1 0x40 DUP4 ADD DUP7 PUSH2 0x3084 JUMP JUMPDEST PUSH2 0x34FC PUSH1 0x60 DUP4 ADD DUP6 PUSH2 0x3084 JUMP JUMPDEST PUSH2 0x3509 PUSH1 0x80 DUP4 ADD DUP5 PUSH2 0x3084 JUMP JUMPDEST SWAP7 SWAP6 POP POP POP POP POP POP JUMP JUMPDEST PUSH32 0x496E76616C696420726563697069656E74000000000000000000000000000000 PUSH0 DUP3 ADD MSTORE POP JUMP JUMPDEST PUSH0 PUSH2 0x3547 PUSH1 0x11 DUP4 PUSH2 0x30AC JUMP JUMPDEST SWAP2 POP PUSH2 0x3552 DUP3 PUSH2 0x3513 JUMP JUMPDEST PUSH1 0x20 DUP3 ADD SWAP1 POP SWAP2 SWAP1 POP JUMP JUMPDEST PUSH0 PUSH1 0x20 DUP3 ADD SWAP1 POP DUP2 DUP2 SUB PUSH0 DUP4 ADD MSTORE PUSH2 0x3574 DUP2 PUSH2 0x353B JUMP JUMPDEST SWAP1 POP SWAP2 SWAP1 POP JUMP JUMPDEST PUSH32 0x496E73756666696369656E742066656573000000000000000000000000000000 PUSH0 DUP3 ADD MSTORE POP JUMP JUMPDEST PUSH0 PUSH2 0x35AF PUSH1 0x11 DUP4 PUSH2 0x30AC JUMP JUMPDEST SWAP2 POP PUSH2 0x35BA DUP3 PUSH2 0x357B JUMP JUMPDEST PUSH1 0x20 DUP3 ADD SWAP1 POP SWAP2 SWAP1 POP JUMP JUMPDEST PUSH0 PUSH1 0x20 DUP3 ADD SWAP1 POP DUP2 DUP2 SUB PUSH0 DUP4 ADD MSTORE PUSH2 0x35DC DUP2 PUSH2 0x35A3 JUMP JUMPDEST SWAP1 POP SWAP2 SWAP1 POP JUMP JUMPDEST PUSH0 PUSH2 0x35ED DUP3 PUSH2 0x301B JUMP JUMPDEST SWAP2 POP PUSH2 0x35F8 DUP4 PUSH2 0x301B JUMP JUMPDEST SWAP3 POP DUP3 DUP3 SUB SWAP1 POP DUP2 DUP2 GT ISZERO PUSH2 0x3610 JUMPI PUSH2 0x360F PUSH2 0x3024 JUMP JUMPDEST JUMPDEST SWAP3 SWAP2 POP POP JUMP JUMPDEST PUSH0 DUP2 SWAP1 POP SWAP3 SWAP2 POP POP JUMP JUMPDEST POP JUMP JUMPDEST PUSH0 PUSH2 0x362E PUSH0 DUP4 PUSH2 0x3616 JUMP JUMPDEST SWAP2 POP PUSH2 0x3639 DUP3 PUSH2 0x3620 JUMP JUMPDEST PUSH0 DUP3 ADD SWAP1 POP SWAP2 SWAP1 POP JUMP JUMPDEST PUSH0 PUSH2 0x364D DUP3 PUSH2 0x3623 JUMP JUMPDEST SWAP2 POP DUP2 SWAP1 POP SWAP2 SWAP1 POP JUMP JUMPDEST PUSH32 0x466565207769746864726177616C206661696C65640000000000000000000000 PUSH0 DUP3 ADD MSTORE POP JUMP JUMPDEST PUSH0 PUSH2 0x368B PUSH1 0x15 DUP4 PUSH2 0x30AC JUMP JUMPDEST SWAP2 POP PUSH2 0x3696 DUP3 PUSH2 0x3657 JUMP JUMPDEST PUSH1 0x20 DUP3 ADD SWAP1 POP SWAP2 SWAP1 POP JUMP JUMPDEST PUSH0 PUSH1 0x20 DUP3 ADD SWAP1 POP DUP2 DUP2 SUB PUSH0 DUP4 ADD MSTORE PUSH2 0x36B8 DUP2 PUSH2 0x367F JUMP JUMPDEST SWAP1 POP SWAP2 SWAP1 POP JUMP JUMPDEST PUSH32 0x4E487B7100000000000000000000000000000000000000000000000000000000 PUSH0 MSTORE PUSH1 0x32 PUSH1 0x4 MSTORE PUSH1 0x24 PUSH0 REVERT JUMPDEST PUSH32 0x4E6F7420617574686F72697A6564000000000000000000000000000000000000 PUSH0 DUP3 ADD MSTORE POP JUMP JUMPDEST PUSH0 PUSH2 0x3720 PUSH1 0xE DUP4 PUSH2 0x30AC JUMP JUMPDEST SWAP2 POP PUSH2 0x372B DUP3 PUSH2 0x36EC JUMP JUMPDEST PUSH1 0x20 DUP3 ADD SWAP1 POP SWAP2 SWAP1 POP JUMP JUMPDEST PUSH0 PUSH1 0x20 DUP3 ADD SWAP1 POP DUP2 DUP2 SUB PUSH0 DUP4 ADD MSTORE PUSH2 0x374D DUP2 PUSH2 0x3714 JUMP JUMPDEST SWAP1 POP SWAP2 SWAP1 POP JUMP JUMPDEST PUSH32 0x496E76616C6964207374616B6520696E64657800000000000000000000000000 PUSH0 DUP3 ADD MSTORE POP JUMP JUMPDEST PUSH0 PUSH2 0x3788 PUSH1 0x13 DUP4 PUSH2 0x30AC JUMP JUMPDEST SWAP2 POP PUSH2 0x3793 DUP3 PUSH2 0x3754 JUMP JUMPDEST PUSH1 0x20 DUP3 ADD SWAP1 POP SWAP2 SWAP1 POP JUMP JUMPDEST PUSH0 PUSH1 0x20 DUP3 ADD SWAP1 POP DUP2 DUP2 SUB PUSH0 DUP4 ADD MSTORE PUSH2 0x37B5 DUP2 PUSH2 0x377C JUMP JUMPDEST SWAP1 POP SWAP2 SWAP1 POP JUMP JUMPDEST PUSH32 0x5374616B65206E6F742061637469766500000000000000000000000000000000 PUSH0 DUP3 ADD MSTORE POP JUMP JUMPDEST PUSH0 PUSH2 0x37F0 PUSH1 0x10 DUP4 PUSH2 0x30AC JUMP JUMPDEST SWAP2 POP PUSH2 0x37FB DUP3 PUSH2 0x37BC JUMP JUMPDEST PUSH1 0x20 DUP3 ADD SWAP1 POP SWAP2 SWAP1 POP JUMP JUMPDEST PUSH0 PUSH1 0x20 DUP3 ADD SWAP1 POP DUP2 DUP2 SUB PUSH0 DUP4 ADD MSTORE PUSH2 0x381D DUP2 PUSH2 0x37E4 JUMP JUMPDEST SWAP1 POP SWAP2 SWAP1 POP JUMP JUMPDEST PUSH32 0x496E76616C6964207969656C6420726174650000000000000000000000000000 PUSH0 DUP3 ADD MSTORE POP JUMP JUMPDEST PUSH0 PUSH2 0x3858 PUSH1 0x12 DUP4 PUSH2 0x30AC JUMP JUMPDEST SWAP2 POP PUSH2 0x3863 DUP3 PUSH2 0x3824 JUMP JUMPDEST PUSH1 0x20 DUP3 ADD SWAP1 POP SWAP2 SWAP1 POP JUMP JUMPDEST PUSH0 PUSH1 0x20 DUP3 ADD SWAP1 POP DUP2 DUP2 SUB PUSH0 DUP4 ADD MSTORE PUSH2 0x3885 DUP2 PUSH2 0x384C JUMP JUMPDEST SWAP1 POP SWAP2 SWAP1 POP JUMP JUMPDEST PUSH0 PUSH1 0x40 DUP3 ADD SWAP1 POP PUSH2 0x389F PUSH0 DUP4 ADD DUP6 PUSH2 0x3084 JUMP JUMPDEST PUSH2 0x38AC PUSH1 0x20 DUP4 ADD DUP5 PUSH2 0x3084 JUMP JUMPDEST SWAP4 SWAP3 POP POP POP JUMP JUMPDEST PUSH32 0x496E76616C69642063616C6C6572206164647265737300000000000000000000 PUSH0 DUP3 ADD MSTORE POP JUMP JUMPDEST PUSH0 PUSH2 0x38E7 PUSH1 0x16 DUP4 PUSH2 0x30AC JUMP JUMPDEST SWAP2 POP PUSH2 0x38F2 DUP3 PUSH2 0x38B3 JUMP JUMPDEST PUSH1 0x20 DUP3 ADD SWAP1 POP SWAP2 SWAP1 POP JUMP JUMPDEST PUSH0 PUSH1 0x20 DUP3 ADD SWAP1 POP DUP2 DUP2 SUB PUSH0 DUP4 ADD MSTORE PUSH2 0x3914 DUP2 PUSH2 0x38DB JUMP JUMPDEST SWAP1 POP SWAP2 SWAP1 POP JUMP JUMPDEST PUSH32 0x466565207261746520746F6F2068696768000000000000000000000000000000 PUSH0 DUP3 ADD MSTORE POP JUMP JUMPDEST PUSH0 PUSH2 0x394F PUSH1 0x11 DUP4 PUSH2 0x30AC JUMP JUMPDEST SWAP2 POP PUSH2 0x395A DUP3 PUSH2 0x391B JUMP JUMPDEST PUSH1 0x20 DUP3 ADD SWAP1 POP SWAP2 SWAP1 POP JUMP JUMPDEST PUSH0 PUSH1 0x20 DUP3 ADD SWAP1 POP DUP2 DUP2 SUB PUSH0 DUP4 ADD MSTORE PUSH2 0x397C DUP2 PUSH2 0x3943 JUMP JUMPDEST SWAP1 POP SWAP2 SWAP1 POP JUMP JUMPDEST PUSH32 0x4E6F206665657320746F20646973747269627574650000000000000000000000 PUSH0 DUP3 ADD MSTORE POP JUMP JUMPDEST PUSH0 PUSH2 0x39B7 PUSH1 0x15 DUP4 PUSH2 0x30AC JUMP JUMPDEST SWAP2 POP PUSH2 0x39C2 DUP3 PUSH2 0x3983 JUMP JUMPDEST PUSH1 0x20 DUP3 ADD SWAP1 POP SWAP2 SWAP1 POP JUMP JUMPDEST PUSH0 PUSH1 0x20 DUP3 ADD SWAP1 POP DUP2 DUP2 SUB PUSH0 DUP4 ADD MSTORE PUSH2 0x39E4 DUP2 PUSH2 0x39AB JUMP JUMPDEST SWAP1 POP SWAP2 SWAP1 POP JUMP JUMPDEST PUSH32 0x4E6F20616374697665207374616B657300000000000000000000000000000000 PUSH0 DUP3 ADD MSTORE POP JUMP JUMPDEST PUSH0 PUSH2 0x3A1F PUSH1 0x10 DUP4 PUSH2 0x30AC JUMP JUMPDEST SWAP2 POP PUSH2 0x3A2A DUP3 PUSH2 0x39EB JUMP JUMPDEST PUSH1 0x20 DUP3 ADD SWAP1 POP SWAP2 SWAP1 POP JUMP JUMPDEST PUSH0 PUSH1 0x20 DUP3 ADD SWAP1 POP DUP2 DUP2 SUB PUSH0 DUP4 ADD MSTORE PUSH2 0x3A4C DUP2 PUSH2 0x3A13 JUMP JUMPDEST SWAP1 POP SWAP2 SWAP1 POP JUMP JUMPDEST PUSH32 0x496E76616C696420757365722061646472657373000000000000000000000000 PUSH0 DUP3 ADD MSTORE POP JUMP JUMPDEST PUSH0 PUSH2 0x3A87 PUSH1 0x14 DUP4 PUSH2 0x30AC JUMP JUMPDEST SWAP2 POP PUSH2 0x3A92 DUP3 PUSH2 0x3A53 JUMP JUMPDEST PUSH1 0x20 DUP3 ADD SWAP1 POP SWAP2 SWAP1 POP JUMP JUMPDEST PUSH0 PUSH1 0x20 DUP3 ADD SWAP1 POP DUP2 DUP2 SUB PUSH0 DUP4 ADD MSTORE PUSH2 0x3AB4 DUP2 PUSH2 0x3A7B JUMP JUMPDEST SWAP1 POP SWAP2 SWAP1 POP JUMP JUMPDEST PUSH32 0x5374616B6520616D6F756E7420746F6F206C6F77000000000000000000000000 PUSH0 DUP3 ADD MSTORE POP JUMP JUMPDEST PUSH0 PUSH2 0x3AEF PUSH1 0x14 DUP4 PUSH2 0x30AC JUMP JUMPDEST SWAP2 POP PUSH2 0x3AFA DUP3 PUSH2 0x3ABB JUMP JUMPDEST PUSH1 0x20 DUP3 ADD SWAP1 POP SWAP2 SWAP1 POP JUMP JUMPDEST PUSH0 PUSH1 0x20 DUP3 ADD SWAP1 POP DUP2 DUP2 SUB PUSH0 DUP4 ADD MSTORE PUSH2 0x3B1C DUP2 PUSH2 0x3AE3 JUMP JUMPDEST SWAP1 POP SWAP2 SWAP1 POP JUMP JUMPDEST PUSH0 PUSH1 0x60 DUP3 ADD SWAP1 POP PUSH2 0x3B36 PUSH0 DUP4 ADD DUP7 PUSH2 0x3084 JUMP JUMPDEST PUSH2 0x3B43 PUSH1 0x20 DUP4 ADD DUP6 PUSH2 0x3084 JUMP JUMPDEST PUSH2 0x3B50 PUSH1 0x40 DUP4 ADD DUP5 PUSH2 0x3084 JUMP JUMPDEST SWAP5 SWAP4 POP POP POP POP JUMP JUMPDEST PUSH32 0x4E6F206665657320746F20636F6C6C6563740000000000000000000000000000 PUSH0 DUP3 ADD MSTORE POP JUMP JUMPDEST PUSH0 PUSH2 0x3B8C PUSH1 0x12 DUP4 PUSH2 0x30AC JUMP JUMPDEST SWAP2 POP PUSH2 0x3B97 DUP3 PUSH2 0x3B58 JUMP JUMPDEST PUSH1 0x20 DUP3 ADD SWAP1 POP SWAP2 SWAP1 POP JUMP JUMPDEST PUSH0 PUSH1 0x20 DUP3 ADD SWAP1 POP DUP2 DUP2 SUB PUSH0 DUP4 ADD MSTORE PUSH2 0x3BB9 DUP2 PUSH2 0x3B80 JUMP JUMPDEST SWAP1 POP SWAP2 SWAP1 POP JUMP JUMPDEST PUSH32 0x456D657267656E63792064656C6179206E6F74206D6574000000000000000000 PUSH0 DUP3 ADD MSTORE POP JUMP JUMPDEST PUSH0 PUSH2 0x3BF4 PUSH1 0x17 DUP4 PUSH2 0x30AC JUMP JUMPDEST SWAP2 POP PUSH2 0x3BFF DUP3 PUSH2 0x3BC0 JUMP JUMPDEST PUSH1 0x20 DUP3 ADD SWAP1 POP SWAP2 SWAP1 POP JUMP JUMPDEST PUSH0 PUSH1 0x20 DUP3 ADD SWAP1 POP DUP2 DUP2 SUB PUSH0 DUP4 ADD MSTORE PUSH2 0x3C21 DUP2 PUSH2 0x3BE8 JUMP JUMPDEST SWAP1 POP SWAP2 SWAP1 POP JUMP JUMPDEST PUSH32 0x4E6F2066756E647320746F207769746864726177000000000000000000000000 PUSH0 DUP3 ADD MSTORE POP JUMP JUMPDEST PUSH0 PUSH2 0x3C5C PUSH1 0x14 DUP4 PUSH2 0x30AC JUMP JUMPDEST SWAP2 POP PUSH2 0x3C67 DUP3 PUSH2 0x3C28 JUMP JUMPDEST PUSH1 0x20 DUP3 ADD SWAP1 POP SWAP2 SWAP1 POP JUMP JUMPDEST PUSH0 PUSH1 0x20 DUP3 ADD SWAP1 POP DUP2 DUP2 SUB PUSH0 DUP4 ADD MSTORE PUSH2 0x3C89 DUP2 PUSH2 0x3C50 JUMP JUMPDEST SWAP1 POP SWAP2 SWAP1 POP JUMP JUMPDEST PUSH32 0x456D657267656E6379207769746864726177616C206661696C65640000000000 PUSH0 DUP3 ADD MSTORE POP JUMP JUMPDEST PUSH0 PUSH2 0x3CC4 PUSH1 0x1B DUP4 PUSH2 0x30AC JUMP JUMPDEST SWAP2 POP PUSH2 0x3CCF DUP3 PUSH2 0x3C90 JUMP JUMPDEST PUSH1 0x20 DUP3 ADD SWAP1 POP SWAP2 SWAP1 POP JUMP JUMPDEST PUSH0 PUSH1 0x20 DUP3 ADD SWAP1 POP DUP2 DUP2 SUB PUSH0 DUP4 ADD MSTORE PUSH2 0x3CF1 DUP2 PUSH2 0x3CB8 JUMP JUMPDEST SWAP1 POP SWAP2 SWAP1 POP JUMP JUMPDEST PUSH0 PUSH2 0x3D02 DUP3 PUSH2 0x301B JUMP JUMPDEST SWAP2 POP PUSH2 0x3D0D DUP4 PUSH2 0x301B JUMP JUMPDEST SWAP3 POP DUP3 DUP3 MUL PUSH2 0x3D1B DUP2 PUSH2 0x301B JUMP JUMPDEST SWAP2 POP DUP3 DUP3 DIV DUP5 EQ DUP4 ISZERO OR PUSH2 0x3D32 JUMPI PUSH2 0x3D31 PUSH2 0x3024 JUMP JUMPDEST JUMPDEST POP SWAP3 SWAP2 POP POP JUMP JUMPDEST PUSH32 0x4E487B7100000000000000000000000000000000000000000000000000000000 PUSH0 MSTORE PUSH1 0x12 PUSH1 0x4 MSTORE PUSH1 0x24 PUSH0 REVERT JUMPDEST PUSH0 PUSH2 0x3D70 DUP3 PUSH2 0x301B JUMP JUMPDEST SWAP2 POP PUSH2 0x3D7B DUP4 PUSH2 0x301B JUMP JUMPDEST SWAP3 POP DUP3 PUSH2 0x3D8B JUMPI PUSH2 0x3D8A PUSH2 0x3D39 JUMP JUMPDEST JUMPDEST DUP3 DUP3 DIV SWAP1 POP SWAP3 SWAP2 POP POP JUMP JUMPDEST PUSH32 0x5265656E7472616E637947756172643A207265656E7472616E742063616C6C00 PUSH0 DUP3 ADD MSTORE POP JUMP JUMPDEST PUSH0 PUSH2 0x3DCA PUSH1 0x1F DUP4 PUSH2 0x30AC JUMP JUMPDEST SWAP2 POP PUSH2 0x3DD5 DUP3 PUSH2 0x3D96 JUMP JUMPDEST PUSH1 0x20 DUP3 ADD SWAP1 POP SWAP2 SWAP1 POP JUMP JUMPDEST PUSH0 PUSH1 0x20 DUP3 ADD SWAP1 POP DUP2 DUP2 SUB PUSH0 DUP4 ADD MSTORE PUSH2 0x3DF7 DUP2 PUSH2 0x3DBE JUMP JUMPDEST SWAP1 POP SWAP2 SWAP1 POP JUMP JUMPDEST PUSH32 0x5061757361626C653A2070617573656400000000000000000000000000000000 PUSH0 DUP3 ADD MSTORE POP JUMP JUMPDEST PUSH0 PUSH2 0x3E32 PUSH1 0x10 DUP4 PUSH2 0x30AC JUMP JUMPDEST SWAP2 POP PUSH2 0x3E3D DUP3 PUSH2 0x3DFE JUMP JUMPDEST PUSH1 0x20 DUP3 ADD SWAP1 POP SWAP2 SWAP1 POP JUMP JUMPDEST PUSH0 PUSH1 0x20 DUP3 ADD SWAP1 POP DUP2 DUP2 SUB PUSH0 DUP4 ADD MSTORE PUSH2 0x3E5F DUP2 PUSH2 0x3E26 JUMP JUMPDEST SWAP1 POP SWAP2 SWAP1 POP JUMP JUMPDEST PUSH32 0x5472616E73666572206661696C65640000000000000000000000000000000000 PUSH0 DUP3 ADD MSTORE POP JUMP JUMPDEST PUSH0 PUSH2 0x3E9A PUSH1 0xF DUP4 PUSH2 0x30AC JUMP JUMPDEST SWAP2 POP PUSH2 0x3EA5 DUP3 PUSH2 0x3E66 JUMP JUMPDEST PUSH1 0x20 DUP3 ADD SWAP1 POP SWAP2 SWAP1 POP JUMP JUMPDEST PUSH0 PUSH1 0x20 DUP3 ADD SWAP1 POP DUP2 DUP2 SUB PUSH0 DUP4 ADD MSTORE PUSH2 0x3EC7 DUP2 PUSH2 0x3E8E JUMP JUMPDEST SWAP1 POP SWAP2 SWAP1 POP JUMP JUMPDEST PUSH32 0x5061757361626C653A206E6F7420706175736564000000000000000000000000 PUSH0 DUP3 ADD MSTORE POP JUMP JUMPDEST PUSH0 PUSH2 0x3F02 PUSH1 0x14 DUP4 PUSH2 0x30AC JUMP JUMPDEST SWAP2 POP PUSH2 0x3F0D DUP3 PUSH2 0x3ECE JUMP JUMPDEST PUSH1 0x20 DUP3 ADD SWAP1 POP SWAP2 SWAP1 POP JUMP JUMPDEST PUSH0 PUSH1 0x20 DUP3 ADD SWAP1 POP DUP2 DUP2 SUB PUSH0 DUP4 ADD MSTORE PUSH2 0x3F2F DUP2 PUSH2 0x3EF6 JUMP JUMPDEST SWAP1 POP SWAP2 SWAP1 POP JUMP INVALID LOG2 PUSH5 0x6970667358 0x22 SLT KECCAK256 PUSH11 0x208A6494ED47384DA9FBF6 DUPN 0x7D 0xBA 0xBC EXTDELEGATECALL 0xC1 0x26 0xDA CODESIZE 0xC NOT 0xC0 CALLDATASIZE 0xBA JUMPF 0x4CB1 0xB5 MLOAD PUSH12 0x64736F6C634300081E003300 "
				},
				"gasEstimates": {
					"creation": {
						"codeDepositCost": "3247200",
						"executionCost": "infinite",
						"totalCost": "infinite"
					},
					"external": {
						"": "535",
						"BASIS_POINTS()": "458",
						"MAX_YIELD_RATE()": "480",
						"MIN_STAKE_AMOUNT()": "437",
						"MIN_YIELD_RATE()": "393",
						"YIELD_CALCULATION_PERIOD()": "415",
						"authorizedCallers(address)": "2900",
						"collectNetworkFees()": "infinite",
						"distributeFees()": "infinite",
						"emergencyPause()": "infinite",
						"emergencyRequestTime(address)": "2847",
						"emergencyUnpause()": "infinite",
						"emergencyWithdrawalDelay()": "2514",
						"executeEmergencyWithdrawal()": "infinite",
						"getCurrentAPY()": "2572",
						"getGlobalYieldPool()": "infinite",
						"getNetworkFeePool()": "2478",
						"getPotTotalStaked(uint256)": "infinite",
						"getUserCurrentYield(address,uint256)": "infinite",
						"getUserStake(address,uint256)": "infinite",
						"getUserStakeCount(address)": "2883",
						"getUserTotalYield(address)": "infinite",
						"globalYieldPool()": "infinite",
						"networkFeePool()": "2538",
						"owner()": "2626",
						"pause()": "infinite",
						"paused()": "2584",
						"potStakes(uint256,uint256)": "infinite",
						"potTotalStaked(uint256)": "infinite",
						"protocolFeeRate()": "2514",
						"renounceOwnership()": "infinite",
						"requestEmergencyWithdrawal()": "23980",
						"setAuthorizedCaller(address,bool)": "infinite",
						"stakeBtc(uint256)": "infinite",
						"stakeBtcForUser(address,uint256)": "infinite",
						"transferOwnership(address)": "infinite",
						"unpause()": "infinite",
						"unstakeBtc(uint256)": "infinite",
						"unstakeBtcForUser(address,uint256,address)": "infinite",
						"updateProtocolFeeRate(uint256)": "infinite",
						"updateStakeYield(address,uint256)": "infinite",
						"updateYieldRate(uint256)": "infinite",
						"userStakes(address,uint256)": "infinite",
						"userTotalStaked(address)": "2870",
						"withdrawProtocolFees(address,uint256)": "infinite"
					},
					"internal": {
						"_calculateYield(address,uint256)": "infinite",
						"_unstakeBtcInternal(address,uint256,address)": "infinite",
						"_updateGlobalYield()": "infinite"
					}
				},
				"methodIdentifiers": {
					"BASIS_POINTS()": "e1f1c4a7",
					"MAX_YIELD_RATE()": "6987ca1d",
					"MIN_STAKE_AMOUNT()": "27ed7188",
					"MIN_YIELD_RATE()": "304a900d",
					"YIELD_CALCULATION_PERIOD()": "1e99921b",
					"authorizedCallers(address)": "536fff6c",
					"collectNetworkFees()": "c69ecf0b",
					"distributeFees()": "bb57ad20",
					"emergencyPause()": "51858e27",
					"emergencyRequestTime(address)": "96ca8d27",
					"emergencyUnpause()": "4a4e3bd5",
					"emergencyWithdrawalDelay()": "b4f74031",
					"executeEmergencyWithdrawal()": "f4993bbd",
					"getCurrentAPY()": "962ca496",
					"getGlobalYieldPool()": "1683e9ce",
					"getNetworkFeePool()": "30063e3b",
					"getPotTotalStaked(uint256)": "148a1ed7",
					"getUserCurrentYield(address,uint256)": "0b48baba",
					"getUserStake(address,uint256)": "cec695fa",
					"getUserStakeCount(address)": "1b545a17",
					"getUserTotalYield(address)": "1bc6a778",
					"globalYieldPool()": "e65eaff7",
					"networkFeePool()": "16a54675",
					"owner()": "8da5cb5b",
					"pause()": "8456cb59",
					"paused()": "5c975abb",
					"potStakes(uint256,uint256)": "cffb911e",
					"potTotalStaked(uint256)": "ec669457",
					"protocolFeeRate()": "58f85880",
					"renounceOwnership()": "715018a6",
					"requestEmergencyWithdrawal()": "caa7c8aa",
					"setAuthorizedCaller(address,bool)": "454bbd29",
					"stakeBtc(uint256)": "f74b51b3",
					"stakeBtcForUser(address,uint256)": "c5b4f407",
					"transferOwnership(address)": "f2fde38b",
					"unpause()": "3f4ba83a",
					"unstakeBtc(uint256)": "e8421b5e",
					"unstakeBtcForUser(address,uint256,address)": "2d4c5abe",
					"updateProtocolFeeRate(uint256)": "6340d55c",
					"updateStakeYield(address,uint256)": "a83481e1",
					"updateYieldRate(uint256)": "2f0f8a7a",
					"userStakes(address,uint256)": "b5d5b5fa",
					"userTotalStaked(address)": "719de1ef",
					"withdrawProtocolFees(address,uint256)": "1a7a73c2"
				}
			},
			"storageLayout": {
				"storage": [
					{
						"astId": 8,
						"contract": "CitreaNativeYeildManager.sol:CitreaNativeYieldManager",
						"label": "_owner",
						"offset": 0,
						"slot": "0",
						"type": "t_address"
					},
					{
						"astId": 266,
						"contract": "CitreaNativeYeildManager.sol:CitreaNativeYieldManager",
						"label": "_status",
						"offset": 0,
						"slot": "1",
						"type": "t_uint256"
					},
					{
						"astId": 165,
						"contract": "CitreaNativeYeildManager.sol:CitreaNativeYieldManager",
						"label": "_paused",
						"offset": 0,
						"slot": "2",
						"type": "t_bool"
					},
					{
						"astId": 405,
						"contract": "CitreaNativeYeildManager.sol:CitreaNativeYieldManager",
						"label": "userStakes",
						"offset": 0,
						"slot": "3",
						"type": "t_mapping(t_address,t_array(t_struct(StakeInfo)388_storage)dyn_storage)"
					},
					{
						"astId": 411,
						"contract": "CitreaNativeYeildManager.sol:CitreaNativeYieldManager",
						"label": "potStakes",
						"offset": 0,
						"slot": "4",
						"type": "t_mapping(t_uint256,t_array(t_struct(StakeInfo)388_storage)dyn_storage)"
					},
					{
						"astId": 415,
						"contract": "CitreaNativeYeildManager.sol:CitreaNativeYieldManager",
						"label": "userTotalStaked",
						"offset": 0,
						"slot": "5",
						"type": "t_mapping(t_address,t_uint256)"
					},
					{
						"astId": 419,
						"contract": "CitreaNativeYeildManager.sol:CitreaNativeYieldManager",
						"label": "potTotalStaked",
						"offset": 0,
						"slot": "6",
						"type": "t_mapping(t_uint256,t_uint256)"
					},
					{
						"astId": 422,
						"contract": "CitreaNativeYeildManager.sol:CitreaNativeYieldManager",
						"label": "globalYieldPool",
						"offset": 0,
						"slot": "7",
						"type": "t_struct(YieldPool)399_storage"
					},
					{
						"astId": 426,
						"contract": "CitreaNativeYeildManager.sol:CitreaNativeYieldManager",
						"label": "authorizedCallers",
						"offset": 0,
						"slot": "12",
						"type": "t_mapping(t_address,t_bool)"
					},
					{
						"astId": 428,
						"contract": "CitreaNativeYeildManager.sol:CitreaNativeYieldManager",
						"label": "networkFeePool",
						"offset": 0,
						"slot": "13",
						"type": "t_uint256"
					},
					{
						"astId": 431,
						"contract": "CitreaNativeYeildManager.sol:CitreaNativeYieldManager",
						"label": "protocolFeeRate",
						"offset": 0,
						"slot": "14",
						"type": "t_uint256"
					},
					{
						"astId": 434,
						"contract": "CitreaNativeYeildManager.sol:CitreaNativeYieldManager",
						"label": "emergencyWithdrawalDelay",
						"offset": 0,
						"slot": "15",
						"type": "t_uint256"
					},
					{
						"astId": 438,
						"contract": "CitreaNativeYeildManager.sol:CitreaNativeYieldManager",
						"label": "emergencyRequestTime",
						"offset": 0,
						"slot": "16",
						"type": "t_mapping(t_address,t_uint256)"
					}
				],
				"types": {
					"t_address": {
						"encoding": "inplace",
						"label": "address",
						"numberOfBytes": "20"
					},
					"t_array(t_struct(StakeInfo)388_storage)dyn_storage": {
						"base": "t_struct(StakeInfo)388_storage",
						"encoding": "dynamic_array",
						"label": "struct CitreaNativeYieldManager.StakeInfo[]",
						"numberOfBytes": "32"
					},
					"t_bool": {
						"encoding": "inplace",
						"label": "bool",
						"numberOfBytes": "1"
					},
					"t_mapping(t_address,t_array(t_struct(StakeInfo)388_storage)dyn_storage)": {
						"encoding": "mapping",
						"key": "t_address",
						"label": "mapping(address => struct CitreaNativeYieldManager.StakeInfo[])",
						"numberOfBytes": "32",
						"value": "t_array(t_struct(StakeInfo)388_storage)dyn_storage"
					},
					"t_mapping(t_address,t_bool)": {
						"encoding": "mapping",
						"key": "t_address",
						"label": "mapping(address => bool)",
						"numberOfBytes": "32",
						"value": "t_bool"
					},
					"t_mapping(t_address,t_uint256)": {
						"encoding": "mapping",
						"key": "t_address",
						"label": "mapping(address => uint256)",
						"numberOfBytes": "32",
						"value": "t_uint256"
					},
					"t_mapping(t_uint256,t_array(t_struct(StakeInfo)388_storage)dyn_storage)": {
						"encoding": "mapping",
						"key": "t_uint256",
						"label": "mapping(uint256 => struct CitreaNativeYieldManager.StakeInfo[])",
						"numberOfBytes": "32",
						"value": "t_array(t_struct(StakeInfo)388_storage)dyn_storage"
					},
					"t_mapping(t_uint256,t_uint256)": {
						"encoding": "mapping",
						"key": "t_uint256",
						"label": "mapping(uint256 => uint256)",
						"numberOfBytes": "32",
						"value": "t_uint256"
					},
					"t_struct(StakeInfo)388_storage": {
						"encoding": "inplace",
						"label": "struct CitreaNativeYieldManager.StakeInfo",
						"members": [
							{
								"astId": 379,
								"contract": "CitreaNativeYeildManager.sol:CitreaNativeYieldManager",
								"label": "principal",
								"offset": 0,
								"slot": "0",
								"type": "t_uint256"
							},
							{
								"astId": 381,
								"contract": "CitreaNativeYeildManager.sol:CitreaNativeYieldManager",
								"label": "accruedYield",
								"offset": 0,
								"slot": "1",
								"type": "t_uint256"
							},
							{
								"astId": 383,
								"contract": "CitreaNativeYeildManager.sol:CitreaNativeYieldManager",
								"label": "lastUpdateTime",
								"offset": 0,
								"slot": "2",
								"type": "t_uint256"
							},
							{
								"astId": 385,
								"contract": "CitreaNativeYeildManager.sol:CitreaNativeYieldManager",
								"label": "potId",
								"offset": 0,
								"slot": "3",
								"type": "t_uint256"
							},
							{
								"astId": 387,
								"contract": "CitreaNativeYeildManager.sol:CitreaNativeYieldManager",
								"label": "isActive",
								"offset": 0,
								"slot": "4",
								"type": "t_bool"
							}
						],
						"numberOfBytes": "160"
					},
					"t_struct(YieldPool)399_storage": {
						"encoding": "inplace",
						"label": "struct CitreaNativeYieldManager.YieldPool",
						"members": [
							{
								"astId": 390,
								"contract": "CitreaNativeYeildManager.sol:CitreaNativeYieldManager",
								"label": "totalStaked",
								"offset": 0,
								"slot": "0",
								"type": "t_uint256"
							},
							{
								"astId": 392,
								"contract": "CitreaNativeYeildManager.sol:CitreaNativeYieldManager",
								"label": "totalYieldGenerated",
								"offset": 0,
								"slot": "1",
								"type": "t_uint256"
							},
							{
								"astId": 394,
								"contract": "CitreaNativeYeildManager.sol:CitreaNativeYieldManager",
								"label": "currentYieldRate",
								"offset": 0,
								"slot": "2",
								"type": "t_uint256"
							},
							{
								"astId": 396,
								"contract": "CitreaNativeYeildManager.sol:CitreaNativeYieldManager",
								"label": "lastYieldUpdate",
								"offset": 0,
								"slot": "3",
								"type": "t_uint256"
							},
							{
								"astId": 398,
								"contract": "CitreaNativeYeildManager.sol:CitreaNativeYieldManager",
								"label": "participantCount",
								"offset": 0,
								"slot": "4",
								"type": "t_uint256"
							}
						],
						"numberOfBytes": "160"
					},
					"t_uint256": {
						"encoding": "inplace",
						"label": "uint256",
						"numberOfBytes": "32"
					}
				}
			},
			"userdoc": {
				"kind": "user",
				"methods": {
					"collectNetworkFees()": {
						"notice": "Collect network fees to boost yield pool"
					},
					"distributeFees()": {
						"notice": "Distribute collected fees to active stakers"
					},
					"executeEmergencyWithdrawal()": {
						"notice": "Execute emergency withdrawal after delay"
					},
					"requestEmergencyWithdrawal()": {
						"notice": "Request emergency withdrawal (with delay)"
					},
					"stakeBtc(uint256)": {
						"notice": "Stake BTC for yield generation"
					},
					"stakeBtcForUser(address,uint256)": {
						"notice": "Stake BTC on behalf of another user (for pot operations)"
					},
					"unstakeBtc(uint256)": {
						"notice": "Unstake BTC with accumulated yield"
					},
					"unstakeBtcForUser(address,uint256,address)": {
						"notice": "Unstake BTC for a user (authorized callers only)"
					},
					"updateStakeYield(address,uint256)": {
						"notice": "Update yield for a specific stake"
					}
				},
				"notice": "Native BTC-backed yield generation for ChainPot on Citrea",
				"version": 1
			}
		}
	}
}