{
	"CitreaNativeYeildManager.sol": {
		"CitreaNativeYieldManager": {
			"abi": [
				{
					"inputs": [],
					"stateMutability": "nonpayable",
					"type": "constructor"
				},
				{
					"inputs": [
						{
							"internalType": "address",
							"name": "owner",
							"type": "address"
						}
					],
					"name": "OwnableInvalidOwner",
					"type": "error"
				},
				{
					"inputs": [
						{
							"internalType": "address",
							"name": "account",
							"type": "address"
						}
					],
					"name": "OwnableUnauthorizedAccount",
					"type": "error"
				},
				{
					"anonymous": false,
					"inputs": [
						{
							"indexed": true,
							"internalType": "address",
							"name": "caller",
							"type": "address"
						},
						{
							"indexed": false,
							"internalType": "bool",
							"name": "authorized",
							"type": "bool"
						}
					],
					"name": "AuthorizedCallerUpdated",
					"type": "event"
				},
				{
					"anonymous": false,
					"inputs": [
						{
							"indexed": true,
							"internalType": "address",
							"name": "user",
							"type": "address"
						},
						{
							"indexed": false,
							"internalType": "uint256",
							"name": "amount",
							"type": "uint256"
						},
						{
							"indexed": false,
							"internalType": "uint256",
							"name": "potId",
							"type": "uint256"
						},
						{
							"indexed": false,
							"internalType": "uint256",
							"name": "stakeIndex",
							"type": "uint256"
						}
					],
					"name": "BtcStaked",
					"type": "event"
				},
				{
					"anonymous": false,
					"inputs": [
						{
							"indexed": true,
							"internalType": "address",
							"name": "user",
							"type": "address"
						},
						{
							"indexed": false,
							"internalType": "uint256",
							"name": "amount",
							"type": "uint256"
						},
						{
							"indexed": false,
							"internalType": "uint256",
							"name": "yield",
							"type": "uint256"
						},
						{
							"indexed": false,
							"internalType": "uint256",
							"name": "stakeIndex",
							"type": "uint256"
						}
					],
					"name": "BtcUnstaked",
					"type": "event"
				},
				{
					"anonymous": false,
					"inputs": [
						{
							"indexed": true,
							"internalType": "address",
							"name": "user",
							"type": "address"
						},
						{
							"indexed": false,
							"internalType": "uint256",
							"name": "amount",
							"type": "uint256"
						}
					],
					"name": "EmergencyWithdrawalExecuted",
					"type": "event"
				},
				{
					"anonymous": false,
					"inputs": [
						{
							"indexed": true,
							"internalType": "address",
							"name": "user",
							"type": "address"
						},
						{
							"indexed": false,
							"internalType": "uint256",
							"name": "requestTime",
							"type": "uint256"
						}
					],
					"name": "EmergencyWithdrawalRequested",
					"type": "event"
				},
				{
					"anonymous": false,
					"inputs": [
						{
							"indexed": false,
							"internalType": "uint256",
							"name": "amount",
							"type": "uint256"
						}
					],
					"name": "NetworkFeesCollected",
					"type": "event"
				},
				{
					"anonymous": false,
					"inputs": [
						{
							"indexed": true,
							"internalType": "address",
							"name": "previousOwner",
							"type": "address"
						},
						{
							"indexed": true,
							"internalType": "address",
							"name": "newOwner",
							"type": "address"
						}
					],
					"name": "OwnershipTransferred",
					"type": "event"
				},
				{
					"anonymous": false,
					"inputs": [
						{
							"indexed": false,
							"internalType": "address",
							"name": "account",
							"type": "address"
						}
					],
					"name": "Paused",
					"type": "event"
				},
				{
					"anonymous": false,
					"inputs": [
						{
							"indexed": false,
							"internalType": "uint256",
							"name": "oldRate",
							"type": "uint256"
						},
						{
							"indexed": false,
							"internalType": "uint256",
							"name": "newRate",
							"type": "uint256"
						}
					],
					"name": "ProtocolFeeRateUpdated",
					"type": "event"
				},
				{
					"anonymous": false,
					"inputs": [
						{
							"indexed": false,
							"internalType": "address",
							"name": "account",
							"type": "address"
						}
					],
					"name": "Unpaused",
					"type": "event"
				},
				{
					"anonymous": false,
					"inputs": [
						{
							"indexed": true,
							"internalType": "address",
							"name": "user",
							"type": "address"
						},
						{
							"indexed": false,
							"internalType": "uint256",
							"name": "amount",
							"type": "uint256"
						},
						{
							"indexed": false,
							"internalType": "uint256",
							"name": "stakeIndex",
							"type": "uint256"
						}
					],
					"name": "YieldAccrued",
					"type": "event"
				},
				{
					"anonymous": false,
					"inputs": [
						{
							"indexed": false,
							"internalType": "uint256",
							"name": "oldRate",
							"type": "uint256"
						},
						{
							"indexed": false,
							"internalType": "uint256",
							"name": "newRate",
							"type": "uint256"
						}
					],
					"name": "YieldRateUpdated",
					"type": "event"
				},
				{
					"stateMutability": "payable",
					"type": "fallback"
				},
				{
					"inputs": [],
					"name": "BASIS_POINTS",
					"outputs": [
						{
							"internalType": "uint256",
							"name": "",
							"type": "uint256"
						}
					],
					"stateMutability": "view",
					"type": "function"
				},
				{
					"inputs": [],
					"name": "MAX_YIELD_RATE",
					"outputs": [
						{
							"internalType": "uint256",
							"name": "",
							"type": "uint256"
						}
					],
					"stateMutability": "view",
					"type": "function"
				},
				{
					"inputs": [],
					"name": "MIN_STAKE_AMOUNT",
					"outputs": [
						{
							"internalType": "uint256",
							"name": "",
							"type": "uint256"
						}
					],
					"stateMutability": "view",
					"type": "function"
				},
				{
					"inputs": [],
					"name": "MIN_YIELD_RATE",
					"outputs": [
						{
							"internalType": "uint256",
							"name": "",
							"type": "uint256"
						}
					],
					"stateMutability": "view",
					"type": "function"
				},
				{
					"inputs": [],
					"name": "YIELD_CALCULATION_PERIOD",
					"outputs": [
						{
							"internalType": "uint256",
							"name": "",
							"type": "uint256"
						}
					],
					"stateMutability": "view",
					"type": "function"
				},
				{
					"inputs": [
						{
							"internalType": "address",
							"name": "",
							"type": "address"
						}
					],
					"name": "authorizedCallers",
					"outputs": [
						{
							"internalType": "bool",
							"name": "",
							"type": "bool"
						}
					],
					"stateMutability": "view",
					"type": "function"
				},
				{
					"inputs": [],
					"name": "collectNetworkFees",
					"outputs": [],
					"stateMutability": "payable",
					"type": "function"
				},
				{
					"inputs": [],
					"name": "distributeFees",
					"outputs": [],
					"stateMutability": "nonpayable",
					"type": "function"
				},
				{
					"inputs": [],
					"name": "emergencyPause",
					"outputs": [],
					"stateMutability": "nonpayable",
					"type": "function"
				},
				{
					"inputs": [
						{
							"internalType": "address",
							"name": "",
							"type": "address"
						}
					],
					"name": "emergencyRequestTime",
					"outputs": [
						{
							"internalType": "uint256",
							"name": "",
							"type": "uint256"
						}
					],
					"stateMutability": "view",
					"type": "function"
				},
				{
					"inputs": [],
					"name": "emergencyUnpause",
					"outputs": [],
					"stateMutability": "nonpayable",
					"type": "function"
				},
				{
					"inputs": [],
					"name": "emergencyWithdrawalDelay",
					"outputs": [
						{
							"internalType": "uint256",
							"name": "",
							"type": "uint256"
						}
					],
					"stateMutability": "view",
					"type": "function"
				},
				{
					"inputs": [],
					"name": "executeEmergencyWithdrawal",
					"outputs": [],
					"stateMutability": "nonpayable",
					"type": "function"
				},
				{
					"inputs": [],
					"name": "getCurrentAPY",
					"outputs": [
						{
							"internalType": "uint256",
							"name": "",
							"type": "uint256"
						}
					],
					"stateMutability": "view",
					"type": "function"
				},
				{
					"inputs": [],
					"name": "getGlobalYieldPool",
					"outputs": [
						{
							"internalType": "uint256",
							"name": "totalStaked",
							"type": "uint256"
						},
						{
							"internalType": "uint256",
							"name": "totalYieldGenerated",
							"type": "uint256"
						},
						{
							"internalType": "uint256",
							"name": "currentYieldRate",
							"type": "uint256"
						},
						{
							"internalType": "uint256",
							"name": "participantCount",
							"type": "uint256"
						}
					],
					"stateMutability": "view",
					"type": "function"
				},
				{
					"inputs": [],
					"name": "getNetworkFeePool",
					"outputs": [
						{
							"internalType": "uint256",
							"name": "",
							"type": "uint256"
						}
					],
					"stateMutability": "view",
					"type": "function"
				},
				{
					"inputs": [
						{
							"internalType": "uint256",
							"name": "potId",
							"type": "uint256"
						}
					],
					"name": "getPotTotalStaked",
					"outputs": [
						{
							"internalType": "uint256",
							"name": "",
							"type": "uint256"
						}
					],
					"stateMutability": "view",
					"type": "function"
				},
				{
					"inputs": [
						{
							"internalType": "address",
							"name": "user",
							"type": "address"
						},
						{
							"internalType": "uint256",
							"name": "stakeIndex",
							"type": "uint256"
						}
					],
					"name": "getUserCurrentYield",
					"outputs": [
						{
							"internalType": "uint256",
							"name": "",
							"type": "uint256"
						}
					],
					"stateMutability": "view",
					"type": "function"
				},
				{
					"inputs": [
						{
							"internalType": "address",
							"name": "user",
							"type": "address"
						},
						{
							"internalType": "uint256",
							"name": "stakeIndex",
							"type": "uint256"
						}
					],
					"name": "getUserStake",
					"outputs": [
						{
							"components": [
								{
									"internalType": "uint256",
									"name": "principal",
									"type": "uint256"
								},
								{
									"internalType": "uint256",
									"name": "accruedYield",
									"type": "uint256"
								},
								{
									"internalType": "uint256",
									"name": "lastUpdateTime",
									"type": "uint256"
								},
								{
									"internalType": "uint256",
									"name": "potId",
									"type": "uint256"
								},
								{
									"internalType": "bool",
									"name": "isActive",
									"type": "bool"
								}
							],
							"internalType": "struct CitreaNativeYieldManager.StakeInfo",
							"name": "",
							"type": "tuple"
						}
					],
					"stateMutability": "view",
					"type": "function"
				},
				{
					"inputs": [
						{
							"internalType": "address",
							"name": "user",
							"type": "address"
						}
					],
					"name": "getUserStakeCount",
					"outputs": [
						{
							"internalType": "uint256",
							"name": "",
							"type": "uint256"
						}
					],
					"stateMutability": "view",
					"type": "function"
				},
				{
					"inputs": [
						{
							"internalType": "address",
							"name": "user",
							"type": "address"
						}
					],
					"name": "getUserTotalYield",
					"outputs": [
						{
							"internalType": "uint256",
							"name": "totalYield",
							"type": "uint256"
						}
					],
					"stateMutability": "view",
					"type": "function"
				},
				{
					"inputs": [],
					"name": "globalYieldPool",
					"outputs": [
						{
							"internalType": "uint256",
							"name": "totalStaked",
							"type": "uint256"
						},
						{
							"internalType": "uint256",
							"name": "totalYieldGenerated",
							"type": "uint256"
						},
						{
							"internalType": "uint256",
							"name": "currentYieldRate",
							"type": "uint256"
						},
						{
							"internalType": "uint256",
							"name": "lastYieldUpdate",
							"type": "uint256"
						},
						{
							"internalType": "uint256",
							"name": "participantCount",
							"type": "uint256"
						}
					],
					"stateMutability": "view",
					"type": "function"
				},
				{
					"inputs": [],
					"name": "networkFeePool",
					"outputs": [
						{
							"internalType": "uint256",
							"name": "",
							"type": "uint256"
						}
					],
					"stateMutability": "view",
					"type": "function"
				},
				{
					"inputs": [],
					"name": "owner",
					"outputs": [
						{
							"internalType": "address",
							"name": "",
							"type": "address"
						}
					],
					"stateMutability": "view",
					"type": "function"
				},
				{
					"inputs": [],
					"name": "pause",
					"outputs": [],
					"stateMutability": "nonpayable",
					"type": "function"
				},
				{
					"inputs": [],
					"name": "paused",
					"outputs": [
						{
							"internalType": "bool",
							"name": "",
							"type": "bool"
						}
					],
					"stateMutability": "view",
					"type": "function"
				},
				{
					"inputs": [
						{
							"internalType": "uint256",
							"name": "",
							"type": "uint256"
						},
						{
							"internalType": "uint256",
							"name": "",
							"type": "uint256"
						}
					],
					"name": "potStakes",
					"outputs": [
						{
							"internalType": "uint256",
							"name": "principal",
							"type": "uint256"
						},
						{
							"internalType": "uint256",
							"name": "accruedYield",
							"type": "uint256"
						},
						{
							"internalType": "uint256",
							"name": "lastUpdateTime",
							"type": "uint256"
						},
						{
							"internalType": "uint256",
							"name": "potId",
							"type": "uint256"
						},
						{
							"internalType": "bool",
							"name": "isActive",
							"type": "bool"
						}
					],
					"stateMutability": "view",
					"type": "function"
				},
				{
					"inputs": [
						{
							"internalType": "uint256",
							"name": "",
							"type": "uint256"
						}
					],
					"name": "potTotalStaked",
					"outputs": [
						{
							"internalType": "uint256",
							"name": "",
							"type": "uint256"
						}
					],
					"stateMutability": "view",
					"type": "function"
				},
				{
					"inputs": [],
					"name": "protocolFeeRate",
					"outputs": [
						{
							"internalType": "uint256",
							"name": "",
							"type": "uint256"
						}
					],
					"stateMutability": "view",
					"type": "function"
				},
				{
					"inputs": [],
					"name": "renounceOwnership",
					"outputs": [],
					"stateMutability": "nonpayable",
					"type": "function"
				},
				{
					"inputs": [],
					"name": "requestEmergencyWithdrawal",
					"outputs": [],
					"stateMutability": "nonpayable",
					"type": "function"
				},
				{
					"inputs": [
						{
							"internalType": "address",
							"name": "caller",
							"type": "address"
						},
						{
							"internalType": "bool",
							"name": "authorized",
							"type": "bool"
						}
					],
					"name": "setAuthorizedCaller",
					"outputs": [],
					"stateMutability": "nonpayable",
					"type": "function"
				},
				{
					"inputs": [
						{
							"internalType": "uint256",
							"name": "potId",
							"type": "uint256"
						}
					],
					"name": "stakeBtc",
					"outputs": [],
					"stateMutability": "payable",
					"type": "function"
				},
				{
					"inputs": [
						{
							"internalType": "address",
							"name": "user",
							"type": "address"
						},
						{
							"internalType": "uint256",
							"name": "potId",
							"type": "uint256"
						}
					],
					"name": "stakeBtcForUser",
					"outputs": [],
					"stateMutability": "payable",
					"type": "function"
				},
				{
					"inputs": [
						{
							"internalType": "address",
							"name": "newOwner",
							"type": "address"
						}
					],
					"name": "transferOwnership",
					"outputs": [],
					"stateMutability": "nonpayable",
					"type": "function"
				},
				{
					"inputs": [],
					"name": "unpause",
					"outputs": [],
					"stateMutability": "nonpayable",
					"type": "function"
				},
				{
					"inputs": [
						{
							"internalType": "uint256",
							"name": "stakeIndex",
							"type": "uint256"
						}
					],
					"name": "unstakeBtc",
					"outputs": [],
					"stateMutability": "nonpayable",
					"type": "function"
				},
				{
					"inputs": [
						{
							"internalType": "address",
							"name": "user",
							"type": "address"
						},
						{
							"internalType": "uint256",
							"name": "stakeIndex",
							"type": "uint256"
						},
						{
							"internalType": "address",
							"name": "recipient",
							"type": "address"
						}
					],
					"name": "unstakeBtcForUser",
					"outputs": [],
					"stateMutability": "nonpayable",
					"type": "function"
				},
				{
					"inputs": [
						{
							"internalType": "uint256",
							"name": "newRate",
							"type": "uint256"
						}
					],
					"name": "updateProtocolFeeRate",
					"outputs": [],
					"stateMutability": "nonpayable",
					"type": "function"
				},
				{
					"inputs": [
						{
							"internalType": "address",
							"name": "user",
							"type": "address"
						},
						{
							"internalType": "uint256",
							"name": "stakeIndex",
							"type": "uint256"
						}
					],
					"name": "updateStakeYield",
					"outputs": [],
					"stateMutability": "nonpayable",
					"type": "function"
				},
				{
					"inputs": [
						{
							"internalType": "uint256",
							"name": "newRate",
							"type": "uint256"
						}
					],
					"name": "updateYieldRate",
					"outputs": [],
					"stateMutability": "nonpayable",
					"type": "function"
				},
				{
					"inputs": [
						{
							"internalType": "address",
							"name": "",
							"type": "address"
						},
						{
							"internalType": "uint256",
							"name": "",
							"type": "uint256"
						}
					],
					"name": "userStakes",
					"outputs": [
						{
							"internalType": "uint256",
							"name": "principal",
							"type": "uint256"
						},
						{
							"internalType": "uint256",
							"name": "accruedYield",
							"type": "uint256"
						},
						{
							"internalType": "uint256",
							"name": "lastUpdateTime",
							"type": "uint256"
						},
						{
							"internalType": "uint256",
							"name": "potId",
							"type": "uint256"
						},
						{
							"internalType": "bool",
							"name": "isActive",
							"type": "bool"
						}
					],
					"stateMutability": "view",
					"type": "function"
				},
				{
					"inputs": [
						{
							"internalType": "address",
							"name": "",
							"type": "address"
						}
					],
					"name": "userTotalStaked",
					"outputs": [
						{
							"internalType": "uint256",
							"name": "",
							"type": "uint256"
						}
					],
					"stateMutability": "view",
					"type": "function"
				},
				{
					"inputs": [
						{
							"internalType": "address",
							"name": "recipient",
							"type": "address"
						},
						{
							"internalType": "uint256",
							"name": "amount",
							"type": "uint256"
						}
					],
					"name": "withdrawProtocolFees",
					"outputs": [],
					"stateMutability": "nonpayable",
					"type": "function"
				},
				{
					"stateMutability": "payable",
					"type": "receive"
				}
			],
			"devdoc": {
				"details": "Generates yield through Bitcoin staking and network fee collection mechanisms",
				"errors": {
					"OwnableInvalidOwner(address)": [
						{
							"details": "The owner is not a valid owner account. (eg. `address(0)`)"
						}
					],
					"OwnableUnauthorizedAccount(address)": [
						{
							"details": "The caller account is not authorized to perform an operation."
						}
					]
				},
				"events": {
					"Paused(address)": {
						"details": "Emitted when the pause is triggered by `account`."
					},
					"Unpaused(address)": {
						"details": "Emitted when the pause is lifted by `account`."
					}
				},
				"kind": "dev",
				"methods": {
					"owner()": {
						"details": "Returns the address of the current owner."
					},
					"paused()": {
						"details": "Returns true if the contract is paused, and false otherwise."
					},
					"renounceOwnership()": {
						"details": "Leaves the contract without owner. It will not be possible to call `onlyOwner` functions. Can only be called by the current owner. NOTE: Renouncing ownership will leave the contract without an owner, thereby disabling any functionality that is only available to the owner."
					},
					"stakeBtc(uint256)": {
						"params": {
							"potId": "The pot ID this stake belongs to (0 for individual staking)"
						}
					},
					"transferOwnership(address)": {
						"details": "Transfers ownership of the contract to a new account (`newOwner`). Can only be called by the current owner."
					}
				},
				"title": "CitreaNativeYieldManager",
				"version": 1
			},
			"evm": {
				"assembly": "    /* \"CitreaNativeYeildManager.sol\":438:16917  contract CitreaNativeYieldManager is Ownable, ReentrancyGuard, Pausable {... */\n  0x80\n  dup1\n  0x40\n  mstore\n  jumpi(tag_1, callvalue)\n    /* \"CitreaNativeYeildManager.sol\":3022:3032  msg.sender */\n  caller\n    /* \"@openzeppelin/contracts/access/Ownable.sol\":1273:1299  initialOwner == address(0) */\n  iszero\n    /* \"@openzeppelin/contracts/access/Ownable.sol\":1269:1364  if (initialOwner == address(0)) {... */\n  tag_3\n  jumpi\n    /* \"@openzeppelin/contracts/access/Ownable.sol\":1297:1298  0 */\n  0x00\n    /* \"CitreaNativeYeildManager.sol\":438:16917  contract CitreaNativeYieldManager is Ownable, ReentrancyGuard, Pausable {... */\n  dup1\n  sload\n    /* \"CitreaNativeYeildManager.sol\":3022:3032  msg.sender */\n  caller\n  not(sub(shl(0xa0, 0x01), 0x01))\n    /* \"CitreaNativeYeildManager.sol\":438:16917  contract CitreaNativeYieldManager is Ownable, ReentrancyGuard, Pausable {... */\n  dup3\n  and\n  dup2\n  or\n  dup4\n  sstore\n    /* \"CitreaNativeYeildManager.sol\":3022:3032  msg.sender */\n  swap2\n  sub(shl(0xa0, 0x01), 0x01)\n    /* \"CitreaNativeYeildManager.sol\":438:16917  contract CitreaNativeYieldManager is Ownable, ReentrancyGuard, Pausable {... */\n  swap1\n  swap2\n  and\n  swap1\n    /* \"@openzeppelin/contracts/access/Ownable.sol\":3052:3092  OwnershipTransferred(oldOwner, newOwner) */\n  0x8be0079c531659141344cd1fd0a4f28419497f9722a3daafe3b4186f6b6457e0\n  swap1\n    /* \"@openzeppelin/contracts/access/Ownable.sol\":1297:1298  0 */\n  dup1\n    /* \"@openzeppelin/contracts/access/Ownable.sol\":3052:3092  OwnershipTransferred(oldOwner, newOwner) */\n  log3\n    /* \"@openzeppelin/contracts/security/ReentrancyGuard.sol\":1716:1717  1 */\n  0x01\n    /* \"CitreaNativeYeildManager.sol\":438:16917  contract CitreaNativeYieldManager is Ownable, ReentrancyGuard, Pausable {... */\n  dup1\n  sstore\n  not(0xff)\n    /* \"@openzeppelin/contracts/security/Pausable.sol\":996:1011  _paused = false */\n  0x02\n    /* \"CitreaNativeYeildManager.sol\":438:16917  contract CitreaNativeYieldManager is Ownable, ReentrancyGuard, Pausable {... */\n  sload\n  and\n    /* \"@openzeppelin/contracts/security/Pausable.sol\":996:1011  _paused = false */\n  0x02\n    /* \"CitreaNativeYeildManager.sol\":438:16917  contract CitreaNativeYieldManager is Ownable, ReentrancyGuard, Pausable {... */\n  sstore\n    /* \"CitreaNativeYeildManager.sol\":1970:1973  200 */\n  0xc8\n  0x0e\n    /* \"CitreaNativeYeildManager.sol\":438:16917  contract CitreaNativeYieldManager is Ownable, ReentrancyGuard, Pausable {... */\n  sstore\n    /* \"CitreaNativeYeildManager.sol\":2087:2093  7 days */\n  0x093a80\n  0x0f\n    /* \"CitreaNativeYeildManager.sol\":438:16917  contract CitreaNativeYieldManager is Ownable, ReentrancyGuard, Pausable {... */\n  sstore\n    /* \"CitreaNativeYeildManager.sol\":3080:3083  400 */\n  0x0190\n    /* \"CitreaNativeYeildManager.sol\":3045:3077  globalYieldPool.currentYieldRate */\n  0x09\n    /* \"CitreaNativeYeildManager.sol\":438:16917  contract CitreaNativeYieldManager is Ownable, ReentrancyGuard, Pausable {... */\n  sstore\n    /* \"CitreaNativeYeildManager.sol\":3149:3164  block.timestamp */\n  timestamp\n    /* \"CitreaNativeYeildManager.sol\":3115:3146  globalYieldPool.lastYieldUpdate */\n  0x0a\n    /* \"CitreaNativeYeildManager.sol\":438:16917  contract CitreaNativeYieldManager is Ownable, ReentrancyGuard, Pausable {... */\n  sstore\n  dataSize(sub_0)\n  swap1\n  dup2\n  dataOffset(sub_0)\n  dup3\n  codecopy\n  return\n    /* \"@openzeppelin/contracts/access/Ownable.sol\":1269:1364  if (initialOwner == address(0)) {... */\ntag_3:\n    /* \"@openzeppelin/contracts/access/Ownable.sol\":1322:1353  OwnableInvalidOwner(address(0)) */\n  shl(0xe0, 0x1e4fbdf7)\n    /* \"@openzeppelin/contracts/access/Ownable.sol\":1297:1298  0 */\n  0x00\n    /* \"@openzeppelin/contracts/access/Ownable.sol\":1322:1353  OwnableInvalidOwner(address(0)) */\n  mstore\n    /* \"@openzeppelin/contracts/access/Ownable.sol\":1297:1298  0 */\n  0x00\n    /* \"@openzeppelin/contracts/access/Ownable.sol\":1322:1353  OwnableInvalidOwner(address(0)) */\n  0x04\n    /* \"CitreaNativeYeildManager.sol\":438:16917  contract CitreaNativeYieldManager is Ownable, ReentrancyGuard, Pausable {... */\n  mstore\n  0x24\n    /* \"@openzeppelin/contracts/access/Ownable.sol\":1297:1298  0 */\n  0x00\n    /* \"@openzeppelin/contracts/access/Ownable.sol\":1322:1353  OwnableInvalidOwner(address(0)) */\n  revert\n    /* \"CitreaNativeYeildManager.sol\":438:16917  contract CitreaNativeYieldManager is Ownable, ReentrancyGuard, Pausable {... */\ntag_1:\n  0x00\n  dup1\n  revert\nstop\n\nsub_0: assembly {\n        /* \"CitreaNativeYeildManager.sol\":438:16917  contract CitreaNativeYieldManager is Ownable, ReentrancyGuard, Pausable {... */\n      mstore(0x40, 0x80)\n      jumpi(tag_26, iszero(lt(calldatasize, 0x04)))\n    tag_27:\n      jumpi(tag_28, iszero(calldatasize))\n      mload(0x40)\n      shl(0xe5, 0x461bcd)\n        /* \"CitreaNativeYeildManager.sol\":16878:16906  revert(\"Function not found\") */\n      dup2\n      mstore\n        /* \"CitreaNativeYeildManager.sol\":438:16917  contract CitreaNativeYieldManager is Ownable, ReentrancyGuard, Pausable {... */\n      0x20\n      0x04\n        /* \"CitreaNativeYeildManager.sol\":16878:16906  revert(\"Function not found\") */\n      dup3\n      add\n        /* \"CitreaNativeYeildManager.sol\":438:16917  contract CitreaNativeYieldManager is Ownable, ReentrancyGuard, Pausable {... */\n      mstore\n      0x12\n      0x24\n      dup3\n      add\n      mstore\n      shl(0x72, 0x119d5b98dd1a5bdb881b9bdd08199bdd5b99)\n      0x44\n      dup3\n      add\n      mstore\n        /* \"CitreaNativeYeildManager.sol\":16878:16906  revert(\"Function not found\") */\n      0x64\n      swap1\n      revert\n        /* \"CitreaNativeYeildManager.sol\":438:16917  contract CitreaNativeYieldManager is Ownable, ReentrancyGuard, Pausable {... */\n    tag_28:\n        /* \"CitreaNativeYeildManager.sol\":16700:16709  msg.value */\n      callvalue\n        /* \"CitreaNativeYeildManager.sol\":16696:16820  if (msg.value > 0) {... */\n      tag_30\n      jumpi\n        /* \"CitreaNativeYeildManager.sol\":438:16917  contract CitreaNativeYieldManager is Ownable, ReentrancyGuard, Pausable {... */\n      stop\n        /* \"CitreaNativeYeildManager.sol\":16696:16820  if (msg.value > 0) {... */\n    tag_30:\n        /* \"CitreaNativeYeildManager.sol\":16730:16757  networkFeePool += msg.value */\n      tag_32\n        /* \"CitreaNativeYeildManager.sol\":16700:16709  msg.value */\n      callvalue\n        /* \"CitreaNativeYeildManager.sol\":16730:16757  networkFeePool += msg.value */\n      0x0d\n        /* \"CitreaNativeYeildManager.sol\":438:16917  contract CitreaNativeYieldManager is Ownable, ReentrancyGuard, Pausable {... */\n      sload\n        /* \"CitreaNativeYeildManager.sol\":16730:16757  networkFeePool += msg.value */\n      tag_9\n      jump\t// in\n    tag_32:\n      0x0d\n        /* \"CitreaNativeYeildManager.sol\":438:16917  contract CitreaNativeYieldManager is Ownable, ReentrancyGuard, Pausable {... */\n      sstore\n        /* \"CitreaNativeYeildManager.sol\":16777:16808  NetworkFeesCollected(msg.value) */\n      0xfd89f3716628d726d771436aef1a2b241477089ecdea8429f2dcdf2f2106c4a4\n        /* \"CitreaNativeYeildManager.sol\":438:16917  contract CitreaNativeYieldManager is Ownable, ReentrancyGuard, Pausable {... */\n      0x20\n      mload(0x40)\n        /* \"CitreaNativeYeildManager.sol\":16700:16709  msg.value */\n      callvalue\n        /* \"CitreaNativeYeildManager.sol\":438:16917  contract CitreaNativeYieldManager is Ownable, ReentrancyGuard, Pausable {... */\n      dup2\n      mstore\n        /* \"CitreaNativeYeildManager.sol\":16777:16808  NetworkFeesCollected(msg.value) */\n      log1\n        /* \"CitreaNativeYeildManager.sol\":438:16917  contract CitreaNativeYieldManager is Ownable, ReentrancyGuard, Pausable {... */\n      stop\n    tag_26:\n      shr(0xe0, calldataload(0x00))\n      dup1\n      0x0b48baba\n      eq\n      tag_33\n      jumpi\n      dup1\n      0x148a1ed7\n      eq\n      tag_113\n      jumpi\n      dup1\n      0x1683e9ce\n      eq\n      tag_37\n      jumpi\n      dup1\n      0x16a54675\n      eq\n      tag_55\n      jumpi\n      dup1\n      0x1a7a73c2\n      eq\n      tag_41\n      jumpi\n      dup1\n      0x1b545a17\n      eq\n      tag_43\n      jumpi\n      dup1\n      0x1bc6a778\n      eq\n      tag_45\n      jumpi\n      dup1\n      0x1e99921b\n      eq\n      tag_47\n      jumpi\n      dup1\n      0x27ed7188\n      eq\n      tag_49\n      jumpi\n      dup1\n      0x2d4c5abe\n      eq\n      tag_51\n      jumpi\n      dup1\n      0x2f0f8a7a\n      eq\n      tag_53\n      jumpi\n      dup1\n      0x30063e3b\n      eq\n      tag_55\n      jumpi\n      dup1\n      0x304a900d\n      eq\n      tag_57\n      jumpi\n      dup1\n      0x3f4ba83a\n      eq\n      tag_63\n      jumpi\n      dup1\n      0x454bbd29\n      eq\n      tag_61\n      jumpi\n      dup1\n      0x4a4e3bd5\n      eq\n      tag_63\n      jumpi\n      dup1\n      0x51858e27\n      eq\n      tag_81\n      jumpi\n      dup1\n      0x536fff6c\n      eq\n      tag_67\n      jumpi\n      dup1\n      0x58f85880\n      eq\n      tag_69\n      jumpi\n      dup1\n      0x5c975abb\n      eq\n      tag_71\n      jumpi\n      dup1\n      0x6340d55c\n      eq\n      tag_73\n      jumpi\n      dup1\n      0x6987ca1d\n      eq\n      tag_75\n      jumpi\n      dup1\n      0x715018a6\n      eq\n      tag_77\n      jumpi\n      dup1\n      0x719de1ef\n      eq\n      tag_79\n      jumpi\n      dup1\n      0x8456cb59\n      eq\n      tag_81\n      jumpi\n      dup1\n      0x8da5cb5b\n      eq\n      tag_83\n      jumpi\n      dup1\n      0x962ca496\n      eq\n      tag_85\n      jumpi\n      dup1\n      0x96ca8d27\n      eq\n      tag_87\n      jumpi\n      dup1\n      0xa83481e1\n      eq\n      tag_89\n      jumpi\n      dup1\n      0xb4f74031\n      eq\n      tag_91\n      jumpi\n      dup1\n      0xb5d5b5fa\n      eq\n      tag_93\n      jumpi\n      dup1\n      0xbb57ad20\n      eq\n      tag_95\n      jumpi\n      dup1\n      0xc5b4f407\n      eq\n      tag_97\n      jumpi\n      dup1\n      0xc69ecf0b\n      eq\n      tag_99\n      jumpi\n      dup1\n      0xcaa7c8aa\n      eq\n      tag_101\n      jumpi\n      dup1\n      0xcec695fa\n      eq\n      tag_103\n      jumpi\n      dup1\n      0xcffb911e\n      eq\n      tag_105\n      jumpi\n      dup1\n      0xe1f1c4a7\n      eq\n      tag_107\n      jumpi\n      dup1\n      0xe65eaff7\n      eq\n      tag_109\n      jumpi\n      dup1\n      0xe8421b5e\n      eq\n      tag_111\n      jumpi\n      dup1\n      0xec669457\n      eq\n      tag_113\n      jumpi\n      dup1\n      0xf2fde38b\n      eq\n      tag_115\n      jumpi\n      dup1\n      0xf4993bbd\n      eq\n      tag_117\n      jumpi\n      0xf74b51b3\n      sub\n      tag_27\n      jumpi\n      jumpi(tag_121, slt(add(not(0x03), calldatasize), 0x20))\n      calldataload(0x04)\n        /* \"@openzeppelin/contracts/security/Pausable.sol\":1204:1276  modifier whenNotPaused() {... */\n      tag_123\n      tag_23\n      jump\t// in\n    tag_123:\n        /* \"@openzeppelin/contracts/security/ReentrancyGuard.sol\":2227:2330  modifier nonReentrant() {... */\n      tag_124\n      tag_22\n      jump\t// in\n    tag_124:\n        /* \"CitreaNativeYeildManager.sol\":5252:5314  require(msg.value >= MIN_STAKE_AMOUNT, \"Stake amount too low\") */\n      tag_125\n        /* \"CitreaNativeYeildManager.sol\":725:736  0.001 ether */\n      0x038d7ea4c68000\n        /* \"CitreaNativeYeildManager.sol\":5260:5269  msg.value */\n      callvalue\n        /* \"CitreaNativeYeildManager.sol\":5260:5289  msg.value >= MIN_STAKE_AMOUNT */\n      lt\n      iszero\n        /* \"CitreaNativeYeildManager.sol\":5252:5314  require(msg.value >= MIN_STAKE_AMOUNT, \"Stake amount too low\") */\n      tag_16\n      jump\t// in\n    tag_125:\n      tag_126\n      tag_25\n      jump\t// in\n    tag_126:\n        /* \"CitreaNativeYeildManager.sol\":438:16917  contract CitreaNativeYieldManager is Ownable, ReentrancyGuard, Pausable {... */\n      tag_127\n      tag_7\n      jump\t// in\n    tag_127:\n        /* \"CitreaNativeYeildManager.sol\":5260:5269  msg.value */\n      callvalue\n        /* \"CitreaNativeYeildManager.sol\":438:16917  contract CitreaNativeYieldManager is Ownable, ReentrancyGuard, Pausable {... */\n      dup2\n      mstore\n      0x00\n      0x20\n        /* \"CitreaNativeYeildManager.sol\":5482:5671  StakeInfo({... */\n      dup3\n      add\n        /* \"CitreaNativeYeildManager.sol\":438:16917  contract CitreaNativeYieldManager is Ownable, ReentrancyGuard, Pausable {... */\n      mstore\n        /* \"CitreaNativeYeildManager.sol\":5588:5603  block.timestamp */\n      timestamp\n        /* \"CitreaNativeYeildManager.sol\":438:16917  contract CitreaNativeYieldManager is Ownable, ReentrancyGuard, Pausable {... */\n      0x40\n        /* \"CitreaNativeYeildManager.sol\":5482:5671  StakeInfo({... */\n      dup3\n      add\n        /* \"CitreaNativeYeildManager.sol\":438:16917  contract CitreaNativeYieldManager is Ownable, ReentrancyGuard, Pausable {... */\n      mstore\n        /* \"CitreaNativeYeildManager.sol\":5482:5671  StakeInfo({... */\n      dup2\n      0x60\n      dup3\n      add\n        /* \"CitreaNativeYeildManager.sol\":438:16917  contract CitreaNativeYieldManager is Ownable, ReentrancyGuard, Pausable {... */\n      mstore\n      0x01\n        /* \"CitreaNativeYeildManager.sol\":5482:5671  StakeInfo({... */\n      0x80\n      dup3\n      add\n        /* \"CitreaNativeYeildManager.sol\":438:16917  contract CitreaNativeYieldManager is Ownable, ReentrancyGuard, Pausable {... */\n      mstore\n        /* \"CitreaNativeYeildManager.sol\":5703:5713  msg.sender */\n      caller\n        /* \"CitreaNativeYeildManager.sol\":438:16917  contract CitreaNativeYieldManager is Ownable, ReentrancyGuard, Pausable {... */\n      0x00\n      mstore\n        /* \"CitreaNativeYeildManager.sol\":5692:5702  userStakes */\n      0x03\n        /* \"CitreaNativeYeildManager.sol\":438:16917  contract CitreaNativeYieldManager is Ownable, ReentrancyGuard, Pausable {... */\n      0x20\n      mstore\n        /* \"CitreaNativeYeildManager.sol\":5692:5729  userStakes[msg.sender].push(newStake) */\n      tag_128\n        /* \"CitreaNativeYeildManager.sol\":438:16917  contract CitreaNativeYieldManager is Ownable, ReentrancyGuard, Pausable {... */\n      dup2\n      keccak256(0x00, 0x40)\n        /* \"CitreaNativeYeildManager.sol\":5692:5729  userStakes[msg.sender].push(newStake) */\n      tag_17\n      jump\t// in\n    tag_128:\n        /* \"CitreaNativeYeildManager.sol\":5703:5713  msg.sender */\n      caller\n        /* \"CitreaNativeYeildManager.sol\":438:16917  contract CitreaNativeYieldManager is Ownable, ReentrancyGuard, Pausable {... */\n      0x00\n      mstore\n        /* \"CitreaNativeYeildManager.sol\":5692:5702  userStakes */\n      0x03\n        /* \"CitreaNativeYeildManager.sol\":438:16917  contract CitreaNativeYieldManager is Ownable, ReentrancyGuard, Pausable {... */\n      0x20\n      mstore\n      sload(keccak256(0x00, 0x40))\n      swap1\n      not(0x00)\n      dup3\n      add\n      swap2\n      dup3\n      gt\n      tag_135\n      jumpi\n        /* \"CitreaNativeYeildManager.sol\":5819:5828  potId > 0 */\n      dup3\n        /* \"CitreaNativeYeildManager.sol\":5815:5937  if (potId > 0) {... */\n      tag_131\n      jumpi\n        /* \"CitreaNativeYeildManager.sol\":438:16917  contract CitreaNativeYieldManager is Ownable, ReentrancyGuard, Pausable {... */\n    tag_132:\n        /* \"CitreaNativeYeildManager.sol\":5703:5713  msg.sender */\n      pop\n      caller\n        /* \"CitreaNativeYeildManager.sol\":438:16917  contract CitreaNativeYieldManager is Ownable, ReentrancyGuard, Pausable {... */\n      0x00\n      mstore\n        /* \"CitreaNativeYeildManager.sol\":5983:5998  userTotalStaked */\n      0x05\n        /* \"CitreaNativeYeildManager.sol\":438:16917  contract CitreaNativeYieldManager is Ownable, ReentrancyGuard, Pausable {... */\n      0x20\n      mstore\n      keccak256(0x00, 0x40)\n        /* \"CitreaNativeYeildManager.sol\":5983:6023  userTotalStaked[msg.sender] += msg.value */\n      tag_133\n        /* \"CitreaNativeYeildManager.sol\":5260:5269  msg.value */\n      callvalue\n        /* \"CitreaNativeYeildManager.sol\":438:16917  contract CitreaNativeYieldManager is Ownable, ReentrancyGuard, Pausable {... */\n      dup3\n      sload\n        /* \"CitreaNativeYeildManager.sol\":5983:6023  userTotalStaked[msg.sender] += msg.value */\n      tag_9\n      jump\t// in\n    tag_133:\n        /* \"CitreaNativeYeildManager.sol\":438:16917  contract CitreaNativeYieldManager is Ownable, ReentrancyGuard, Pausable {... */\n      swap1\n      sstore\n        /* \"CitreaNativeYeildManager.sol\":6034:6074  globalYieldPool.totalStaked += msg.value */\n      tag_134\n        /* \"CitreaNativeYeildManager.sol\":5260:5269  msg.value */\n      callvalue\n        /* \"CitreaNativeYeildManager.sol\":6034:6049  globalYieldPool */\n      0x07\n        /* \"CitreaNativeYeildManager.sol\":438:16917  contract CitreaNativeYieldManager is Ownable, ReentrancyGuard, Pausable {... */\n      sload\n        /* \"CitreaNativeYeildManager.sol\":6034:6074  globalYieldPool.totalStaked += msg.value */\n      tag_9\n      jump\t// in\n    tag_134:\n        /* \"CitreaNativeYeildManager.sol\":6034:6049  globalYieldPool */\n      0x07\n        /* \"CitreaNativeYeildManager.sol\":438:16917  contract CitreaNativeYieldManager is Ownable, ReentrancyGuard, Pausable {... */\n      sstore\n        /* \"CitreaNativeYeildManager.sol\":6085:6117  globalYieldPool.participantCount */\n      0x0b\n        /* \"CitreaNativeYeildManager.sol\":438:16917  contract CitreaNativeYieldManager is Ownable, ReentrancyGuard, Pausable {... */\n      sload\n      0x01\n      dup2\n      add\n      dup1\n      swap2\n      gt\n      tag_135\n      jumpi\n        /* \"CitreaNativeYeildManager.sol\":6085:6117  globalYieldPool.participantCount */\n      0x0b\n        /* \"CitreaNativeYeildManager.sol\":438:16917  contract CitreaNativeYieldManager is Ownable, ReentrancyGuard, Pausable {... */\n      sstore\n      0x40\n      dup1\n      mload\n        /* \"CitreaNativeYeildManager.sol\":5260:5269  msg.value */\n      callvalue\n        /* \"CitreaNativeYeildManager.sol\":438:16917  contract CitreaNativeYieldManager is Ownable, ReentrancyGuard, Pausable {... */\n      dup2\n      mstore\n      0x20\n      dup2\n      add\n      swap4\n      swap1\n      swap4\n      mstore\n      dup3\n      add\n      mstore\n        /* \"CitreaNativeYeildManager.sol\":5703:5713  msg.sender */\n      caller\n      swap1\n        /* \"CitreaNativeYeildManager.sol\":6148:6199  BtcStaked(msg.sender, msg.value, potId, stakeIndex) */\n      0x55b223c72892936a872c1f417e7e143a0592419fe999642dbb4bccb55b8c6e83\n      swap1\n        /* \"CitreaNativeYeildManager.sol\":438:16917  contract CitreaNativeYieldManager is Ownable, ReentrancyGuard, Pausable {... */\n      dup1\n      0x60\n      dup2\n      add\n        /* \"CitreaNativeYeildManager.sol\":6148:6199  BtcStaked(msg.sender, msg.value, potId, stakeIndex) */\n    tag_137:\n      sub\n      swap1\n      log2\n        /* \"CitreaNativeYeildManager.sol\":438:16917  contract CitreaNativeYieldManager is Ownable, ReentrancyGuard, Pausable {... */\n      0x01\n      dup1\n      sstore\n      stop\n    tag_135:\n      mstore(0x00, shl(0xe0, 0x4e487b71))\n      mstore(0x04, 0x11)\n      revert(0x00, 0x24)\n        /* \"CitreaNativeYeildManager.sol\":5815:5937  if (potId > 0) {... */\n    tag_131:\n        /* \"CitreaNativeYeildManager.sol\":5845:5876  potStakes[potId].push(newStake) */\n      tag_138\n        /* \"CitreaNativeYeildManager.sol\":438:16917  contract CitreaNativeYieldManager is Ownable, ReentrancyGuard, Pausable {... */\n      swap1\n      dup4\n      0x00\n      mstore\n      mstore(0x20, 0x04)\n      keccak256(0x00, 0x40)\n        /* \"CitreaNativeYeildManager.sol\":5845:5876  potStakes[potId].push(newStake) */\n      tag_17\n      jump\t// in\n    tag_138:\n        /* \"CitreaNativeYeildManager.sol\":438:16917  contract CitreaNativeYieldManager is Ownable, ReentrancyGuard, Pausable {... */\n      dup2\n      0x00\n      mstore\n        /* \"CitreaNativeYeildManager.sol\":5891:5905  potTotalStaked */\n      0x06\n        /* \"CitreaNativeYeildManager.sol\":438:16917  contract CitreaNativeYieldManager is Ownable, ReentrancyGuard, Pausable {... */\n      0x20\n      mstore\n      keccak256(0x00, 0x40)\n        /* \"CitreaNativeYeildManager.sol\":5891:5925  potTotalStaked[potId] += msg.value */\n      tag_139\n        /* \"CitreaNativeYeildManager.sol\":5260:5269  msg.value */\n      callvalue\n        /* \"CitreaNativeYeildManager.sol\":438:16917  contract CitreaNativeYieldManager is Ownable, ReentrancyGuard, Pausable {... */\n      dup3\n      sload\n        /* \"CitreaNativeYeildManager.sol\":5891:5925  potTotalStaked[potId] += msg.value */\n      tag_9\n      jump\t// in\n    tag_139:\n        /* \"CitreaNativeYeildManager.sol\":438:16917  contract CitreaNativeYieldManager is Ownable, ReentrancyGuard, Pausable {... */\n      swap1\n      sstore\n        /* \"CitreaNativeYeildManager.sol\":5815:5937  if (potId > 0) {... */\n      0x00\n      jump(tag_132)\n        /* \"CitreaNativeYeildManager.sol\":438:16917  contract CitreaNativeYieldManager is Ownable, ReentrancyGuard, Pausable {... */\n    tag_121:\n      0x00\n      dup1\n      revert\n    tag_117:\n      jumpi(tag_121, callvalue)\n      jumpi(tag_121, slt(add(not(0x03), calldatasize), 0x00))\n        /* \"@openzeppelin/contracts/security/ReentrancyGuard.sol\":2227:2330  modifier nonReentrant() {... */\n      tag_144\n      tag_22\n      jump\t// in\n    tag_144:\n        /* \"CitreaNativeYeildManager.sol\":12869:12879  msg.sender */\n      caller\n        /* \"CitreaNativeYeildManager.sol\":438:16917  contract CitreaNativeYieldManager is Ownable, ReentrancyGuard, Pausable {... */\n      0x00\n      mstore\n        /* \"CitreaNativeYeildManager.sol\":12848:12868  emergencyRequestTime */\n      0x10\n        /* \"CitreaNativeYeildManager.sol\":438:16917  contract CitreaNativeYieldManager is Ownable, ReentrancyGuard, Pausable {... */\n      0x20\n      mstore\n      sload(keccak256(0x00, 0x40))\n        /* \"CitreaNativeYeildManager.sol\":12848:12884  emergencyRequestTime[msg.sender] > 0 */\n      iszero\n      iszero\n        /* \"CitreaNativeYeildManager.sol\":12848:12979  emergencyRequestTime[msg.sender] > 0 &&... */\n      dup1\n      tag_145\n      jumpi\n        /* \"CitreaNativeYeildManager.sol\":438:16917  contract CitreaNativeYieldManager is Ownable, ReentrancyGuard, Pausable {... */\n    tag_146:\n      iszero\n      tag_147\n      jumpi\n        /* \"CitreaNativeYeildManager.sol\":12869:12879  msg.sender */\n      caller\n        /* \"CitreaNativeYeildManager.sol\":438:16917  contract CitreaNativeYieldManager is Ownable, ReentrancyGuard, Pausable {... */\n      0x00\n      mstore\n        /* \"CitreaNativeYeildManager.sol\":13077:13092  userTotalStaked */\n      0x05\n        /* \"CitreaNativeYeildManager.sol\":438:16917  contract CitreaNativeYieldManager is Ownable, ReentrancyGuard, Pausable {... */\n      0x20\n      mstore\n      sload(keccak256(0x00, 0x40))\n        /* \"CitreaNativeYeildManager.sol\":13123:13142  totalToWithdraw > 0 */\n      dup1\n      iszero\n        /* \"CitreaNativeYeildManager.sol\":438:16917  contract CitreaNativeYieldManager is Ownable, ReentrancyGuard, Pausable {... */\n      tag_149\n      jumpi\n        /* \"CitreaNativeYeildManager.sol\":12869:12879  msg.sender */\n      caller\n        /* \"CitreaNativeYeildManager.sol\":438:16917  contract CitreaNativeYieldManager is Ownable, ReentrancyGuard, Pausable {... */\n      0x00\n      mstore\n        /* \"CitreaNativeYeildManager.sol\":13262:13272  userStakes */\n      0x03\n        /* \"CitreaNativeYeildManager.sol\":438:16917  contract CitreaNativeYieldManager is Ownable, ReentrancyGuard, Pausable {... */\n      0x20\n      mstore\n      keccak256(0x00, 0x40)\n      0x00\n        /* \"CitreaNativeYeildManager.sol\":13334:13337  i++ */\n    tag_151:\n        /* \"CitreaNativeYeildManager.sol\":438:16917  contract CitreaNativeYieldManager is Ownable, ReentrancyGuard, Pausable {... */\n      dup2\n      sload\n        /* \"CitreaNativeYeildManager.sol\":13315:13332  i < stakes.length */\n      dup2\n      lt\n      iszero\n      tag_152\n      jumpi\n        /* \"CitreaNativeYeildManager.sol\":438:16917  contract CitreaNativeYieldManager is Ownable, ReentrancyGuard, Pausable {... */\n      0xff\n      0x04\n        /* \"CitreaNativeYeildManager.sol\":13358:13367  stakes[i] */\n      tag_154\n      dup4\n      dup6\n      tag_2\n      jump\t// in\n    tag_154:\n        /* \"CitreaNativeYeildManager.sol\":13358:13376  stakes[i].isActive */\n      pop\n      add\n        /* \"CitreaNativeYeildManager.sol\":438:16917  contract CitreaNativeYieldManager is Ownable, ReentrancyGuard, Pausable {... */\n      sload\n      and\n        /* \"CitreaNativeYeildManager.sol\":13354:13564  if (stakes[i].isActive) {... */\n      tag_155\n      jumpi\n        /* \"CitreaNativeYeildManager.sol\":13334:13337  i++ */\n    tag_156:\n        /* \"CitreaNativeYeildManager.sol\":438:16917  contract CitreaNativeYieldManager is Ownable, ReentrancyGuard, Pausable {... */\n      0x01\n      add\n        /* \"CitreaNativeYeildManager.sol\":13300:13313  uint256 i = 0 */\n      jump(tag_151)\n        /* \"CitreaNativeYeildManager.sol\":13354:13564  if (stakes[i].isActive) {... */\n    tag_155:\n        /* \"CitreaNativeYeildManager.sol\":438:16917  contract CitreaNativeYieldManager is Ownable, ReentrancyGuard, Pausable {... */\n      0x04\n        /* \"CitreaNativeYeildManager.sol\":13397:13406  stakes[i] */\n      tag_157\n      dup3\n      dup5\n      tag_2\n      jump\t// in\n    tag_157:\n      pop\n        /* \"CitreaNativeYeildManager.sol\":13397:13415  stakes[i].isActive */\n      add\n        /* \"CitreaNativeYeildManager.sol\":438:16917  contract CitreaNativeYieldManager is Ownable, ReentrancyGuard, Pausable {... */\n      dup1\n      sload\n      not(0xff)\n      and\n      swap1\n      sstore\n        /* \"CitreaNativeYeildManager.sol\":13442:13492  globalYieldPool.totalStaked -= stakes[i].principal */\n      tag_158\n        /* \"CitreaNativeYeildManager.sol\":13473:13482  stakes[i] */\n      tag_159\n      dup3\n      dup5\n      tag_2\n      jump\t// in\n    tag_159:\n        /* \"CitreaNativeYeildManager.sol\":438:16917  contract CitreaNativeYieldManager is Ownable, ReentrancyGuard, Pausable {... */\n      pop\n      sload\n        /* \"CitreaNativeYeildManager.sol\":13442:13457  globalYieldPool */\n      0x07\n        /* \"CitreaNativeYeildManager.sol\":438:16917  contract CitreaNativeYieldManager is Ownable, ReentrancyGuard, Pausable {... */\n      sload\n        /* \"CitreaNativeYeildManager.sol\":13442:13492  globalYieldPool.totalStaked -= stakes[i].principal */\n      tag_6\n      jump\t// in\n    tag_158:\n        /* \"CitreaNativeYeildManager.sol\":13442:13457  globalYieldPool */\n      0x07\n        /* \"CitreaNativeYeildManager.sol\":438:16917  contract CitreaNativeYieldManager is Ownable, ReentrancyGuard, Pausable {... */\n      sstore\n        /* \"CitreaNativeYeildManager.sol\":13511:13543  globalYieldPool.participantCount */\n      0x0b\n        /* \"CitreaNativeYeildManager.sol\":438:16917  contract CitreaNativeYieldManager is Ownable, ReentrancyGuard, Pausable {... */\n      sload\n      not(0x00)\n      dup2\n      add\n      swap2\n      swap1\n      dup3\n      gt\n      tag_135\n      jumpi\n        /* \"CitreaNativeYeildManager.sol\":13511:13543  globalYieldPool.participantCount */\n      0x0b\n        /* \"CitreaNativeYeildManager.sol\":438:16917  contract CitreaNativeYieldManager is Ownable, ReentrancyGuard, Pausable {... */\n      swap2\n      swap1\n      swap2\n      sstore\n        /* \"CitreaNativeYeildManager.sol\":13354:13564  if (stakes[i].isActive) {... */\n      jump(tag_156)\n        /* \"CitreaNativeYeildManager.sol\":13315:13332  i < stakes.length */\n    tag_152:\n      dup3\n        /* \"CitreaNativeYeildManager.sol\":12869:12879  msg.sender */\n      caller\n        /* \"CitreaNativeYeildManager.sol\":438:16917  contract CitreaNativeYieldManager is Ownable, ReentrancyGuard, Pausable {... */\n      0x00\n      mstore\n        /* \"CitreaNativeYeildManager.sol\":13077:13092  userTotalStaked */\n      0x05\n        /* \"CitreaNativeYeildManager.sol\":438:16917  contract CitreaNativeYieldManager is Ownable, ReentrancyGuard, Pausable {... */\n      0x20\n      mstore\n      0x00\n      0x40\n      dup2\n      keccak256\n      sstore\n        /* \"CitreaNativeYeildManager.sol\":12869:12879  msg.sender */\n      caller\n        /* \"CitreaNativeYeildManager.sol\":438:16917  contract CitreaNativeYieldManager is Ownable, ReentrancyGuard, Pausable {... */\n      0x00\n      mstore\n        /* \"CitreaNativeYeildManager.sol\":12848:12868  emergencyRequestTime */\n      0x10\n        /* \"CitreaNativeYeildManager.sol\":438:16917  contract CitreaNativeYieldManager is Ownable, ReentrancyGuard, Pausable {... */\n      0x20\n      mstore\n      0x00\n      0x40\n      dup2\n      keccak256\n      sstore\n      0x00\n        /* \"CitreaNativeYeildManager.sol\":12869:12879  msg.sender */\n      dup1\n      dup1\n      dup1\n      dup5\n      caller\n        /* \"CitreaNativeYeildManager.sol\":13713:13765  payable(msg.sender).call{value: totalToWithdraw}(\"\") */\n      gas\n      call\n      tag_162\n      tag_8\n      jump\t// in\n    tag_162:\n      pop\n        /* \"CitreaNativeYeildManager.sol\":438:16917  contract CitreaNativeYieldManager is Ownable, ReentrancyGuard, Pausable {... */\n      iszero\n      tag_163\n      jumpi\n      mload(0x40)\n      swap1\n      dup2\n      mstore\n        /* \"CitreaNativeYeildManager.sol\":13849:13905  EmergencyWithdrawalExecuted(msg.sender, totalToWithdraw) */\n      0xaf6e7d750e5a786a0b4d0e00806a5f778d09769d9c8c0ee377cc6df72af07115\n        /* \"CitreaNativeYeildManager.sol\":438:16917  contract CitreaNativeYieldManager is Ownable, ReentrancyGuard, Pausable {... */\n      0x20\n        /* \"CitreaNativeYeildManager.sol\":12869:12879  msg.sender */\n      caller\n        /* \"CitreaNativeYeildManager.sol\":13849:13905  EmergencyWithdrawalExecuted(msg.sender, totalToWithdraw) */\n      swap3\n      log2\n        /* \"CitreaNativeYeildManager.sol\":438:16917  contract CitreaNativeYieldManager is Ownable, ReentrancyGuard, Pausable {... */\n      0x01\n      dup1\n      sstore\n      stop\n    tag_163:\n      mload(0x40)\n      shl(0xe5, 0x461bcd)\n      dup2\n      mstore\n      0x20\n      0x04\n      dup3\n      add\n      mstore\n      0x1b\n      0x24\n      dup3\n      add\n      mstore\n      0x456d657267656e6379207769746864726177616c206661696c65640000000000\n      0x44\n      dup3\n      add\n      mstore\n      0x64\n      swap1\n      revert\n    tag_149:\n      mload(0x40)\n      shl(0xe5, 0x461bcd)\n      dup2\n      mstore\n      0x20\n      0x04\n      dup3\n      add\n      mstore\n      0x14\n      0x24\n      dup3\n      add\n      mstore\n      shl(0x60, 0x4e6f2066756e647320746f207769746864726177)\n      0x44\n      dup3\n      add\n      mstore\n      0x64\n      swap1\n      revert\n    tag_147:\n      mload(0x40)\n      shl(0xe5, 0x461bcd)\n      dup2\n      mstore\n      0x20\n      0x04\n      dup3\n      add\n      mstore\n      0x17\n      0x24\n      dup3\n      add\n      mstore\n      0x456d657267656e63792064656c6179206e6f74206d6574000000000000000000\n      0x44\n      dup3\n      add\n      mstore\n      0x64\n      swap1\n      revert\n        /* \"CitreaNativeYeildManager.sol\":12848:12979  emergencyRequestTime[msg.sender] > 0 &&... */\n    tag_145:\n        /* \"CitreaNativeYeildManager.sol\":12869:12879  msg.sender */\n      pop\n      caller\n        /* \"CitreaNativeYeildManager.sol\":438:16917  contract CitreaNativeYieldManager is Ownable, ReentrancyGuard, Pausable {... */\n      0x00\n      mstore\n        /* \"CitreaNativeYeildManager.sol\":12848:12868  emergencyRequestTime */\n      0x10\n        /* \"CitreaNativeYeildManager.sol\":438:16917  contract CitreaNativeYieldManager is Ownable, ReentrancyGuard, Pausable {... */\n      0x20\n      mstore\n        /* \"CitreaNativeYeildManager.sol\":12920:12979  emergencyRequestTime[msg.sender] + emergencyWithdrawalDelay */\n      tag_165\n        /* \"CitreaNativeYeildManager.sol\":438:16917  contract CitreaNativeYieldManager is Ownable, ReentrancyGuard, Pausable {... */\n      sload(keccak256(0x00, 0x40))\n        /* \"CitreaNativeYeildManager.sol\":12955:12979  emergencyWithdrawalDelay */\n      0x0f\n        /* \"CitreaNativeYeildManager.sol\":438:16917  contract CitreaNativeYieldManager is Ownable, ReentrancyGuard, Pausable {... */\n      sload\n        /* \"CitreaNativeYeildManager.sol\":12920:12979  emergencyRequestTime[msg.sender] + emergencyWithdrawalDelay */\n      swap1\n      tag_9\n      jump\t// in\n    tag_165:\n        /* \"CitreaNativeYeildManager.sol\":12901:12916  block.timestamp */\n      timestamp\n        /* \"CitreaNativeYeildManager.sol\":12901:12979  block.timestamp >= emergencyRequestTime[msg.sender] + emergencyWithdrawalDelay */\n      lt\n      iszero\n        /* \"CitreaNativeYeildManager.sol\":12848:12979  emergencyRequestTime[msg.sender] > 0 &&... */\n      jump(tag_146)\n        /* \"CitreaNativeYeildManager.sol\":438:16917  contract CitreaNativeYieldManager is Ownable, ReentrancyGuard, Pausable {... */\n    tag_115:\n      jumpi(tag_121, callvalue)\n      jumpi(tag_121, slt(add(not(0x03), calldatasize), 0x20))\n      tag_170\n      tag_1\n      jump\t// in\n    tag_170:\n        /* \"@openzeppelin/contracts/access/Ownable.sol\":1500:1562  modifier onlyOwner() {... */\n      tag_171\n      tag_21\n      jump\t// in\n    tag_171:\n      sub(shl(0xa0, 0x01), 0x01)\n        /* \"CitreaNativeYeildManager.sol\":438:16917  contract CitreaNativeYieldManager is Ownable, ReentrancyGuard, Pausable {... */\n      and\n        /* \"@openzeppelin/contracts/access/Ownable.sol\":2627:2649  newOwner == address(0) */\n      dup1\n      iszero\n        /* \"@openzeppelin/contracts/access/Ownable.sol\":2623:2714  if (newOwner == address(0)) {... */\n      tag_172\n      jumpi\n        /* \"CitreaNativeYeildManager.sol\":438:16917  contract CitreaNativeYieldManager is Ownable, ReentrancyGuard, Pausable {... */\n      0x00\n      dup1\n      sload\n      not(sub(shl(0xa0, 0x01), 0x01))\n      dup2\n      and\n      dup4\n      or\n      dup3\n      sstore\n      sub(shl(0xa0, 0x01), 0x01)\n      and\n      swap1\n        /* \"@openzeppelin/contracts/access/Ownable.sol\":3052:3092  OwnershipTransferred(oldOwner, newOwner) */\n      0x8be0079c531659141344cd1fd0a4f28419497f9722a3daafe3b4186f6b6457e0\n      swap1\n        /* \"CitreaNativeYeildManager.sol\":438:16917  contract CitreaNativeYieldManager is Ownable, ReentrancyGuard, Pausable {... */\n      dup1\n        /* \"@openzeppelin/contracts/access/Ownable.sol\":3052:3092  OwnershipTransferred(oldOwner, newOwner) */\n      log3\n        /* \"CitreaNativeYeildManager.sol\":438:16917  contract CitreaNativeYieldManager is Ownable, ReentrancyGuard, Pausable {... */\n      stop\n        /* \"@openzeppelin/contracts/access/Ownable.sol\":2623:2714  if (newOwner == address(0)) {... */\n    tag_172:\n        /* \"@openzeppelin/contracts/access/Ownable.sol\":2672:2703  OwnableInvalidOwner(address(0)) */\n      shl(0xe0, 0x1e4fbdf7)\n        /* \"CitreaNativeYeildManager.sol\":438:16917  contract CitreaNativeYieldManager is Ownable, ReentrancyGuard, Pausable {... */\n      0x00\n        /* \"@openzeppelin/contracts/access/Ownable.sol\":2672:2703  OwnableInvalidOwner(address(0)) */\n      mstore\n        /* \"CitreaNativeYeildManager.sol\":438:16917  contract CitreaNativeYieldManager is Ownable, ReentrancyGuard, Pausable {... */\n      mstore(0x04, 0x00)\n      0x24\n      0x00\n        /* \"@openzeppelin/contracts/access/Ownable.sol\":2672:2703  OwnableInvalidOwner(address(0)) */\n      revert\n        /* \"CitreaNativeYeildManager.sol\":438:16917  contract CitreaNativeYieldManager is Ownable, ReentrancyGuard, Pausable {... */\n    tag_113:\n      jumpi(tag_121, callvalue)\n      jumpi(tag_121, slt(add(not(0x03), calldatasize), 0x20))\n      mstore(0x00, calldataload(0x04))\n        /* \"CitreaNativeYeildManager.sol\":1682:1731  mapping(uint256 => uint256) public potTotalStaked */\n      0x06\n        /* \"CitreaNativeYeildManager.sol\":438:16917  contract CitreaNativeYieldManager is Ownable, ReentrancyGuard, Pausable {... */\n      0x20\n      mstore\n      0x20\n      sload(keccak256(0x00, 0x40))\n      mload(0x40)\n      swap1\n      dup2\n      mstore\n      return\n    tag_111:\n      jumpi(tag_121, callvalue)\n      jumpi(tag_121, slt(add(not(0x03), calldatasize), 0x20))\n        /* \"CitreaNativeYeildManager.sol\":7642:7652  msg.sender */\n      tag_182\n        /* \"CitreaNativeYeildManager.sol\":438:16917  contract CitreaNativeYieldManager is Ownable, ReentrancyGuard, Pausable {... */\n      calldataload(0x04)\n        /* \"@openzeppelin/contracts/security/Pausable.sol\":1204:1276  modifier whenNotPaused() {... */\n      tag_183\n      tag_23\n      jump\t// in\n    tag_183:\n        /* \"@openzeppelin/contracts/security/ReentrancyGuard.sol\":2227:2330  modifier nonReentrant() {... */\n      tag_184\n      tag_22\n      jump\t// in\n    tag_184:\n        /* \"CitreaNativeYeildManager.sol\":7558:7568  msg.sender */\n      caller\n        /* \"CitreaNativeYeildManager.sol\":438:16917  contract CitreaNativeYieldManager is Ownable, ReentrancyGuard, Pausable {... */\n      0x00\n      mstore\n        /* \"CitreaNativeYeildManager.sol\":3528:3538  userStakes */\n      0x03\n        /* \"CitreaNativeYeildManager.sol\":438:16917  contract CitreaNativeYieldManager is Ownable, ReentrancyGuard, Pausable {... */\n      0x20\n      mstore\n        /* \"CitreaNativeYeildManager.sol\":3507:3575  require(stakeIndex < userStakes[user].length, \"Invalid stake index\") */\n      tag_185\n        /* \"CitreaNativeYeildManager.sol\":438:16917  contract CitreaNativeYieldManager is Ownable, ReentrancyGuard, Pausable {... */\n      sload(keccak256(0x00, 0x40))\n        /* \"CitreaNativeYeildManager.sol\":3515:3551  stakeIndex < userStakes[user].length */\n      dup3\n      lt\n        /* \"CitreaNativeYeildManager.sol\":3507:3575  require(stakeIndex < userStakes[user].length, \"Invalid stake index\") */\n      tag_11\n      jump\t// in\n    tag_185:\n        /* \"CitreaNativeYeildManager.sol\":7558:7568  msg.sender */\n      caller\n        /* \"CitreaNativeYeildManager.sol\":438:16917  contract CitreaNativeYieldManager is Ownable, ReentrancyGuard, Pausable {... */\n      0x00\n      mstore\n        /* \"CitreaNativeYeildManager.sol\":3528:3538  userStakes */\n      0x03\n        /* \"CitreaNativeYeildManager.sol\":438:16917  contract CitreaNativeYieldManager is Ownable, ReentrancyGuard, Pausable {... */\n      0x20\n      mstore\n        /* \"CitreaNativeYeildManager.sol\":3586:3652  require(userStakes[user][stakeIndex].isActive, \"Stake not active\") */\n      tag_186\n        /* \"CitreaNativeYeildManager.sol\":438:16917  contract CitreaNativeYieldManager is Ownable, ReentrancyGuard, Pausable {... */\n      0xff\n      0x04\n        /* \"CitreaNativeYeildManager.sol\":3594:3622  userStakes[user][stakeIndex] */\n      tag_187\n        /* \"CitreaNativeYeildManager.sol\":438:16917  contract CitreaNativeYieldManager is Ownable, ReentrancyGuard, Pausable {... */\n      dup5\n      keccak256(0x00, 0x40)\n        /* \"CitreaNativeYeildManager.sol\":3594:3622  userStakes[user][stakeIndex] */\n      tag_2\n      jump\t// in\n    tag_187:\n        /* \"CitreaNativeYeildManager.sol\":3594:3631  userStakes[user][stakeIndex].isActive */\n      pop\n      add\n        /* \"CitreaNativeYeildManager.sol\":438:16917  contract CitreaNativeYieldManager is Ownable, ReentrancyGuard, Pausable {... */\n      sload\n      and\n        /* \"CitreaNativeYeildManager.sol\":3586:3652  require(userStakes[user][stakeIndex].isActive, \"Stake not active\") */\n      tag_12\n      jump\t// in\n    tag_186:\n        /* \"CitreaNativeYeildManager.sol\":7558:7568  msg.sender */\n      caller\n      swap1\n      caller\n        /* \"CitreaNativeYeildManager.sol\":7642:7652  msg.sender */\n      tag_24\n      jump\t// in\n    tag_182:\n        /* \"CitreaNativeYeildManager.sol\":438:16917  contract CitreaNativeYieldManager is Ownable, ReentrancyGuard, Pausable {... */\n      0x01\n      dup1\n      sstore\n      stop\n    tag_109:\n      jumpi(tag_121, callvalue)\n      jumpi(tag_121, slt(add(not(0x03), calldatasize), 0x00))\n      0xa0\n        /* \"CitreaNativeYeildManager.sol\":1769:1801  YieldPool public globalYieldPool */\n      0x07\n        /* \"CitreaNativeYeildManager.sol\":438:16917  contract CitreaNativeYieldManager is Ownable, ReentrancyGuard, Pausable {... */\n      sload\n        /* \"CitreaNativeYeildManager.sol\":1769:1801  YieldPool public globalYieldPool */\n      0x08\n        /* \"CitreaNativeYeildManager.sol\":438:16917  contract CitreaNativeYieldManager is Ownable, ReentrancyGuard, Pausable {... */\n      sload\n        /* \"CitreaNativeYeildManager.sol\":1769:1801  YieldPool public globalYieldPool */\n      0x09\n        /* \"CitreaNativeYeildManager.sol\":438:16917  contract CitreaNativeYieldManager is Ownable, ReentrancyGuard, Pausable {... */\n      sload\n        /* \"CitreaNativeYeildManager.sol\":1769:1801  YieldPool public globalYieldPool */\n      0x0a\n        /* \"CitreaNativeYeildManager.sol\":438:16917  contract CitreaNativeYieldManager is Ownable, ReentrancyGuard, Pausable {... */\n      sload\n      swap1\n        /* \"CitreaNativeYeildManager.sol\":1769:1801  YieldPool public globalYieldPool */\n      0x0b\n        /* \"CitreaNativeYeildManager.sol\":438:16917  contract CitreaNativeYieldManager is Ownable, ReentrancyGuard, Pausable {... */\n      sload\n      swap3\n      mload(0x40)\n      swap5\n      dup6\n      mstore\n      0x20\n      dup6\n      add\n      mstore\n      0x40\n      dup5\n      add\n      mstore\n      0x60\n      dup4\n      add\n      mstore\n      0x80\n      dup3\n      add\n      mstore\n      return\n    tag_107:\n      jumpi(tag_121, callvalue)\n      jumpi(tag_121, slt(add(not(0x03), calldatasize), 0x00))\n      0x20\n      mload(0x40)\n        /* \"CitreaNativeYeildManager.sol\":641:646  10000 */\n      0x2710\n        /* \"CitreaNativeYeildManager.sol\":438:16917  contract CitreaNativeYieldManager is Ownable, ReentrancyGuard, Pausable {... */\n      dup2\n      mstore\n      return\n    tag_105:\n      jumpi(tag_121, callvalue)\n      jumpi(tag_121, slt(add(not(0x03), calldatasize), 0x40))\n      calldataload(0x24)\n      mstore(0x00, calldataload(0x04))\n      mstore(0x20, 0x04)\n      keccak256(0x00, 0x40)\n      swap1\n      dup2\n      sload\n        /* \"CitreaNativeYeildManager.sol\":1551:1599  mapping(uint256 => StakeInfo[]) public potStakes */\n      dup2\n      lt\n      iszero\n      tag_121\n      jumpi\n      tag_202\n      swap2\n      tag_2\n      jump\t// in\n    tag_202:\n      pop\n        /* \"CitreaNativeYeildManager.sol\":438:16917  contract CitreaNativeYieldManager is Ownable, ReentrancyGuard, Pausable {... */\n      dup1\n      sload\n      0x01\n        /* \"CitreaNativeYeildManager.sol\":1551:1599  mapping(uint256 => StakeInfo[]) public potStakes */\n      dup3\n      add\n        /* \"CitreaNativeYeildManager.sol\":438:16917  contract CitreaNativeYieldManager is Ownable, ReentrancyGuard, Pausable {... */\n      sload\n        /* \"CitreaNativeYeildManager.sol\":1551:1599  mapping(uint256 => StakeInfo[]) public potStakes */\n      0x02\n      dup4\n      add\n        /* \"CitreaNativeYeildManager.sol\":438:16917  contract CitreaNativeYieldManager is Ownable, ReentrancyGuard, Pausable {... */\n      sload\n        /* \"CitreaNativeYeildManager.sol\":1551:1599  mapping(uint256 => StakeInfo[]) public potStakes */\n      0x03\n      dup5\n      add\n        /* \"CitreaNativeYeildManager.sol\":438:16917  contract CitreaNativeYieldManager is Ownable, ReentrancyGuard, Pausable {... */\n      sload\n      0x04\n        /* \"CitreaNativeYeildManager.sol\":1551:1599  mapping(uint256 => StakeInfo[]) public potStakes */\n      swap1\n      swap5\n      add\n        /* \"CitreaNativeYeildManager.sol\":438:16917  contract CitreaNativeYieldManager is Ownable, ReentrancyGuard, Pausable {... */\n      sload\n      0x40\n      dup1\n      mload\n      swap5\n      dup6\n      mstore\n      0x20\n      dup6\n      add\n      swap4\n      swap1\n      swap4\n      mstore\n      swap2\n      dup4\n      add\n      mstore\n      0x60\n      dup3\n      add\n      swap3\n      swap1\n      swap3\n      mstore\n      0xff\n      swap1\n      swap2\n      and\n      iszero\n      iszero\n      0x80\n      dup3\n      add\n      mstore\n      0xa0\n      swap1\n      return\n    tag_103:\n      jumpi(tag_121, callvalue)\n      jumpi(tag_121, slt(add(not(0x03), calldatasize), 0x40))\n      0xa0\n        /* \"CitreaNativeYeildManager.sol\":14360:14388  userStakes[user][stakeIndex] */\n      tag_208\n        /* \"CitreaNativeYeildManager.sol\":438:16917  contract CitreaNativeYieldManager is Ownable, ReentrancyGuard, Pausable {... */\n      tag_209\n      tag_1\n      jump\t// in\n    tag_209:\n      calldataload(0x24)\n      swap1\n      0x00\n      0x80\n      tag_210\n      tag_7\n      jump\t// in\n    tag_210:\n      dup3\n      dup2\n      mstore\n      dup3\n      0x20\n      dup3\n      add\n      mstore\n      dup3\n      0x40\n      dup3\n      add\n      mstore\n      dup3\n      0x60\n      dup3\n      add\n      mstore\n      add\n      mstore\n      0x01\n      dup1\n      dup6\n      shl\n      sub\n      and\n      dup1\n      0x00\n      mstore\n        /* \"CitreaNativeYeildManager.sol\":14295:14305  userStakes */\n      0x03\n        /* \"CitreaNativeYeildManager.sol\":438:16917  contract CitreaNativeYieldManager is Ownable, ReentrancyGuard, Pausable {... */\n      0x20\n      mstore\n        /* \"CitreaNativeYeildManager.sol\":14274:14342  require(stakeIndex < userStakes[user].length, \"Invalid stake index\") */\n      tag_211\n        /* \"CitreaNativeYeildManager.sol\":438:16917  contract CitreaNativeYieldManager is Ownable, ReentrancyGuard, Pausable {... */\n      sload(keccak256(0x00, 0x40))\n        /* \"CitreaNativeYeildManager.sol\":14282:14318  stakeIndex < userStakes[user].length */\n      dup4\n      lt\n        /* \"CitreaNativeYeildManager.sol\":14274:14342  require(stakeIndex < userStakes[user].length, \"Invalid stake index\") */\n      tag_11\n      jump\t// in\n    tag_211:\n        /* \"CitreaNativeYeildManager.sol\":438:16917  contract CitreaNativeYieldManager is Ownable, ReentrancyGuard, Pausable {... */\n      0x00\n      mstore\n        /* \"CitreaNativeYeildManager.sol\":14295:14305  userStakes */\n      0x03\n        /* \"CitreaNativeYeildManager.sol\":438:16917  contract CitreaNativeYieldManager is Ownable, ReentrancyGuard, Pausable {... */\n      0x20\n      mstore\n      keccak256(0x00, 0x40)\n        /* \"CitreaNativeYeildManager.sol\":14360:14388  userStakes[user][stakeIndex] */\n      tag_2\n      jump\t// in\n    tag_208:\n        /* \"CitreaNativeYeildManager.sol\":438:16917  contract CitreaNativeYieldManager is Ownable, ReentrancyGuard, Pausable {... */\n      pop\n      tag_212\n      tag_7\n      jump\t// in\n    tag_212:\n      dup2\n      sload\n      swap2\n      dup3\n      dup3\n      mstore\n      0x01\n      dup2\n      add\n      sload\n      0x20\n      dup4\n      add\n      swap1\n      dup2\n      mstore\n      0x02\n      dup3\n      add\n      sload\n      swap1\n      0x40\n      dup5\n      add\n      swap2\n      dup3\n      mstore\n      0x80\n      0xff\n      0x04\n        /* \"CitreaNativeYeildManager.sol\":14295:14305  userStakes */\n      0x03\n        /* \"CitreaNativeYeildManager.sol\":438:16917  contract CitreaNativeYieldManager is Ownable, ReentrancyGuard, Pausable {... */\n      dup7\n      add\n      sload\n      swap6\n      0x60\n      dup9\n      add\n      swap7\n      dup8\n      mstore\n      add\n      sload\n      and\n      swap5\n      add\n      swap4\n      iszero\n      iszero\n      dup5\n      mstore\n      mload(0x40)\n      swap5\n      dup6\n      mstore\n      mload\n      0x20\n      dup6\n      add\n      mstore\n      mload\n      0x40\n      dup5\n      add\n      mstore\n      mload\n      0x60\n      dup4\n      add\n      mstore\n      mload\n      iszero\n      iszero\n      0x80\n      dup3\n      add\n      mstore\n      return\n    tag_101:\n      jumpi(tag_121, callvalue)\n      jumpi(tag_121, slt(add(not(0x03), calldatasize), 0x00))\n        /* \"CitreaNativeYeildManager.sol\":12575:12585  msg.sender */\n      caller\n        /* \"CitreaNativeYeildManager.sol\":438:16917  contract CitreaNativeYieldManager is Ownable, ReentrancyGuard, Pausable {... */\n      0x00\n      mstore\n        /* \"CitreaNativeYeildManager.sol\":12554:12574  emergencyRequestTime */\n      0x10\n        /* \"CitreaNativeYeildManager.sol\":438:16917  contract CitreaNativeYieldManager is Ownable, ReentrancyGuard, Pausable {... */\n      0x20\n      mstore\n        /* \"CitreaNativeYeildManager.sol\":12589:12604  block.timestamp */\n      timestamp\n        /* \"CitreaNativeYeildManager.sol\":438:16917  contract CitreaNativeYieldManager is Ownable, ReentrancyGuard, Pausable {... */\n      keccak256(0x00, 0x40)\n      sstore\n      mload(0x40)\n        /* \"CitreaNativeYeildManager.sol\":12589:12604  block.timestamp */\n      timestamp\n        /* \"CitreaNativeYeildManager.sol\":438:16917  contract CitreaNativeYieldManager is Ownable, ReentrancyGuard, Pausable {... */\n      dup2\n      mstore\n        /* \"CitreaNativeYeildManager.sol\":12620:12677  EmergencyWithdrawalRequested(msg.sender, block.timestamp) */\n      0xdcbf58b4b48819c95c8100c354ffdc3633d192e7c3eebfb025492de8c9226b11\n        /* \"CitreaNativeYeildManager.sol\":438:16917  contract CitreaNativeYieldManager is Ownable, ReentrancyGuard, Pausable {... */\n      0x20\n        /* \"CitreaNativeYeildManager.sol\":12575:12585  msg.sender */\n      caller\n        /* \"CitreaNativeYeildManager.sol\":12620:12677  EmergencyWithdrawalRequested(msg.sender, block.timestamp) */\n      swap3\n      log2\n        /* \"CitreaNativeYeildManager.sol\":438:16917  contract CitreaNativeYieldManager is Ownable, ReentrancyGuard, Pausable {... */\n      stop\n    tag_99:\n      jumpi(tag_121, slt(add(not(0x03), calldatasize), 0x00))\n        /* \"CitreaNativeYeildManager.sol\":3327:3337  msg.sender */\n      caller\n        /* \"CitreaNativeYeildManager.sol\":438:16917  contract CitreaNativeYieldManager is Ownable, ReentrancyGuard, Pausable {... */\n      0x00\n      mstore\n        /* \"CitreaNativeYeildManager.sol\":3309:3326  authorizedCallers */\n      0x0c\n        /* \"CitreaNativeYeildManager.sol\":438:16917  contract CitreaNativeYieldManager is Ownable, ReentrancyGuard, Pausable {... */\n      0x20\n      mstore\n      and(sload(keccak256(0x00, 0x40)), 0xff)\n        /* \"CitreaNativeYeildManager.sol\":3309:3363  authorizedCallers[msg.sender] || msg.sender == owner() */\n      dup1\n      iszero\n      tag_219\n      jumpi\n        /* \"CitreaNativeYeildManager.sol\":438:16917  contract CitreaNativeYieldManager is Ownable, ReentrancyGuard, Pausable {... */\n    tag_220:\n        /* \"CitreaNativeYeildManager.sol\":3287:3405  require(... */\n      tag_221\n      swap1\n      tag_10\n      jump\t// in\n    tag_221:\n        /* \"CitreaNativeYeildManager.sol\":11638:11647  msg.value */\n      callvalue\n        /* \"CitreaNativeYeildManager.sol\":11638:11651  msg.value > 0 */\n      iszero\n        /* \"CitreaNativeYeildManager.sol\":438:16917  contract CitreaNativeYieldManager is Ownable, ReentrancyGuard, Pausable {... */\n      tag_222\n      jumpi\n        /* \"CitreaNativeYeildManager.sol\":11695:11722  networkFeePool += msg.value */\n      tag_32\n        /* \"CitreaNativeYeildManager.sol\":11638:11647  msg.value */\n      callvalue\n        /* \"CitreaNativeYeildManager.sol\":11695:11722  networkFeePool += msg.value */\n      0x0d\n        /* \"CitreaNativeYeildManager.sol\":438:16917  contract CitreaNativeYieldManager is Ownable, ReentrancyGuard, Pausable {... */\n      sload\n        /* \"CitreaNativeYeildManager.sol\":11695:11722  networkFeePool += msg.value */\n      tag_9\n      jump\t// in\n        /* \"CitreaNativeYeildManager.sol\":438:16917  contract CitreaNativeYieldManager is Ownable, ReentrancyGuard, Pausable {... */\n    tag_222:\n      mload(0x40)\n      shl(0xe5, 0x461bcd)\n      dup2\n      mstore\n      0x20\n      0x04\n      dup3\n      add\n      mstore\n      0x12\n      0x24\n      dup3\n      add\n      mstore\n      shl(0x72, 0x139bc81999595cc81d1bc818dbdb1b1958dd)\n      0x44\n      dup3\n      add\n      mstore\n      0x64\n      swap1\n      revert\n        /* \"CitreaNativeYeildManager.sol\":3309:3363  authorizedCallers[msg.sender] || msg.sender == owner() */\n    tag_219:\n      pop\n        /* \"CitreaNativeYeildManager.sol\":438:16917  contract CitreaNativeYieldManager is Ownable, ReentrancyGuard, Pausable {... */\n      and(sub(shl(0xa0, 0x01), 0x01), sload(0x00))\n        /* \"CitreaNativeYeildManager.sol\":3327:3337  msg.sender */\n      caller\n        /* \"CitreaNativeYeildManager.sol\":3342:3363  msg.sender == owner() */\n      eq\n        /* \"CitreaNativeYeildManager.sol\":3309:3363  authorizedCallers[msg.sender] || msg.sender == owner() */\n      jump(tag_220)\n        /* \"CitreaNativeYeildManager.sol\":438:16917  contract CitreaNativeYieldManager is Ownable, ReentrancyGuard, Pausable {... */\n    tag_97:\n      jumpi(tag_121, slt(add(not(0x03), calldatasize), 0x40))\n      tag_227\n      tag_1\n      jump\t// in\n    tag_227:\n      calldataload(0x24)\n        /* \"CitreaNativeYeildManager.sol\":3327:3337  msg.sender */\n      swap1\n      caller\n        /* \"CitreaNativeYeildManager.sol\":438:16917  contract CitreaNativeYieldManager is Ownable, ReentrancyGuard, Pausable {... */\n      0x00\n      mstore\n        /* \"CitreaNativeYeildManager.sol\":3309:3326  authorizedCallers */\n      0x0c\n        /* \"CitreaNativeYeildManager.sol\":438:16917  contract CitreaNativeYieldManager is Ownable, ReentrancyGuard, Pausable {... */\n      0x20\n      mstore\n      and(sload(keccak256(0x00, 0x40)), 0xff)\n        /* \"CitreaNativeYeildManager.sol\":3309:3363  authorizedCallers[msg.sender] || msg.sender == owner() */\n      dup1\n      iszero\n      tag_228\n      jumpi\n        /* \"CitreaNativeYeildManager.sol\":438:16917  contract CitreaNativeYieldManager is Ownable, ReentrancyGuard, Pausable {... */\n    tag_229:\n        /* \"CitreaNativeYeildManager.sol\":3287:3405  require(... */\n      tag_230\n      swap1\n      tag_10\n      jump\t// in\n    tag_230:\n        /* \"@openzeppelin/contracts/security/Pausable.sol\":1204:1276  modifier whenNotPaused() {... */\n      tag_231\n      tag_23\n      jump\t// in\n    tag_231:\n        /* \"@openzeppelin/contracts/security/ReentrancyGuard.sol\":2227:2330  modifier nonReentrant() {... */\n      tag_232\n      tag_22\n      jump\t// in\n    tag_232:\n      sub(shl(0xa0, 0x01), 0x01)\n        /* \"CitreaNativeYeildManager.sol\":438:16917  contract CitreaNativeYieldManager is Ownable, ReentrancyGuard, Pausable {... */\n      and\n      swap1\n        /* \"CitreaNativeYeildManager.sol\":6481:6499  user != address(0) */\n      dup2\n      iszero\n        /* \"CitreaNativeYeildManager.sol\":438:16917  contract CitreaNativeYieldManager is Ownable, ReentrancyGuard, Pausable {... */\n      tag_233\n      jumpi\n        /* \"CitreaNativeYeildManager.sol\":6535:6597  require(msg.value >= MIN_STAKE_AMOUNT, \"Stake amount too low\") */\n      tag_235\n        /* \"CitreaNativeYeildManager.sol\":725:736  0.001 ether */\n      0x038d7ea4c68000\n        /* \"CitreaNativeYeildManager.sol\":6543:6552  msg.value */\n      callvalue\n        /* \"CitreaNativeYeildManager.sol\":6543:6572  msg.value >= MIN_STAKE_AMOUNT */\n      lt\n      iszero\n        /* \"CitreaNativeYeildManager.sol\":6535:6597  require(msg.value >= MIN_STAKE_AMOUNT, \"Stake amount too low\") */\n      tag_16\n      jump\t// in\n    tag_235:\n      tag_236\n      tag_25\n      jump\t// in\n    tag_236:\n        /* \"CitreaNativeYeildManager.sol\":438:16917  contract CitreaNativeYieldManager is Ownable, ReentrancyGuard, Pausable {... */\n      tag_237\n      tag_7\n      jump\t// in\n    tag_237:\n        /* \"CitreaNativeYeildManager.sol\":6543:6552  msg.value */\n      callvalue\n        /* \"CitreaNativeYeildManager.sol\":438:16917  contract CitreaNativeYieldManager is Ownable, ReentrancyGuard, Pausable {... */\n      dup2\n      mstore\n      0x00\n      0x20\n        /* \"CitreaNativeYeildManager.sol\":6687:6876  StakeInfo({... */\n      dup3\n      add\n        /* \"CitreaNativeYeildManager.sol\":438:16917  contract CitreaNativeYieldManager is Ownable, ReentrancyGuard, Pausable {... */\n      mstore\n        /* \"CitreaNativeYeildManager.sol\":6793:6808  block.timestamp */\n      timestamp\n        /* \"CitreaNativeYeildManager.sol\":438:16917  contract CitreaNativeYieldManager is Ownable, ReentrancyGuard, Pausable {... */\n      0x40\n        /* \"CitreaNativeYeildManager.sol\":6687:6876  StakeInfo({... */\n      dup3\n      add\n        /* \"CitreaNativeYeildManager.sol\":438:16917  contract CitreaNativeYieldManager is Ownable, ReentrancyGuard, Pausable {... */\n      mstore\n        /* \"CitreaNativeYeildManager.sol\":6687:6876  StakeInfo({... */\n      dup2\n      0x60\n      dup3\n      add\n        /* \"CitreaNativeYeildManager.sol\":438:16917  contract CitreaNativeYieldManager is Ownable, ReentrancyGuard, Pausable {... */\n      mstore\n      0x01\n        /* \"CitreaNativeYeildManager.sol\":6687:6876  StakeInfo({... */\n      0x80\n      dup3\n      add\n        /* \"CitreaNativeYeildManager.sol\":438:16917  contract CitreaNativeYieldManager is Ownable, ReentrancyGuard, Pausable {... */\n      mstore\n      dup3\n      0x00\n      mstore\n        /* \"CitreaNativeYeildManager.sol\":6897:6907  userStakes */\n      0x03\n        /* \"CitreaNativeYeildManager.sol\":438:16917  contract CitreaNativeYieldManager is Ownable, ReentrancyGuard, Pausable {... */\n      0x20\n      mstore\n        /* \"CitreaNativeYeildManager.sol\":6897:6928  userStakes[user].push(newStake) */\n      tag_238\n        /* \"CitreaNativeYeildManager.sol\":438:16917  contract CitreaNativeYieldManager is Ownable, ReentrancyGuard, Pausable {... */\n      dup2\n      keccak256(0x00, 0x40)\n        /* \"CitreaNativeYeildManager.sol\":6897:6928  userStakes[user].push(newStake) */\n      tag_17\n      jump\t// in\n    tag_238:\n        /* \"CitreaNativeYeildManager.sol\":438:16917  contract CitreaNativeYieldManager is Ownable, ReentrancyGuard, Pausable {... */\n      dup3\n      0x00\n      mstore\n        /* \"CitreaNativeYeildManager.sol\":6897:6907  userStakes */\n      0x03\n        /* \"CitreaNativeYeildManager.sol\":438:16917  contract CitreaNativeYieldManager is Ownable, ReentrancyGuard, Pausable {... */\n      0x20\n      mstore\n      sload(keccak256(0x00, 0x40))\n      swap1\n      not(0x00)\n      dup3\n      add\n      swap2\n      dup3\n      gt\n      tag_135\n      jumpi\n        /* \"CitreaNativeYeildManager.sol\":7012:7021  potId > 0 */\n      dup3\n        /* \"CitreaNativeYeildManager.sol\":7008:7130  if (potId > 0) {... */\n      tag_241\n      jumpi\n        /* \"CitreaNativeYeildManager.sol\":438:16917  contract CitreaNativeYieldManager is Ownable, ReentrancyGuard, Pausable {... */\n    tag_242:\n      pop\n      dup3\n      0x00\n      mstore\n        /* \"CitreaNativeYeildManager.sol\":7150:7165  userTotalStaked */\n      0x05\n        /* \"CitreaNativeYeildManager.sol\":438:16917  contract CitreaNativeYieldManager is Ownable, ReentrancyGuard, Pausable {... */\n      0x20\n      mstore\n      keccak256(0x00, 0x40)\n        /* \"CitreaNativeYeildManager.sol\":7150:7184  userTotalStaked[user] += msg.value */\n      tag_243\n        /* \"CitreaNativeYeildManager.sol\":6543:6552  msg.value */\n      callvalue\n        /* \"CitreaNativeYeildManager.sol\":438:16917  contract CitreaNativeYieldManager is Ownable, ReentrancyGuard, Pausable {... */\n      dup3\n      sload\n        /* \"CitreaNativeYeildManager.sol\":7150:7184  userTotalStaked[user] += msg.value */\n      tag_9\n      jump\t// in\n    tag_243:\n        /* \"CitreaNativeYeildManager.sol\":438:16917  contract CitreaNativeYieldManager is Ownable, ReentrancyGuard, Pausable {... */\n      swap1\n      sstore\n        /* \"CitreaNativeYeildManager.sol\":7195:7235  globalYieldPool.totalStaked += msg.value */\n      tag_244\n        /* \"CitreaNativeYeildManager.sol\":6543:6552  msg.value */\n      callvalue\n        /* \"CitreaNativeYeildManager.sol\":7195:7210  globalYieldPool */\n      0x07\n        /* \"CitreaNativeYeildManager.sol\":438:16917  contract CitreaNativeYieldManager is Ownable, ReentrancyGuard, Pausable {... */\n      sload\n        /* \"CitreaNativeYeildManager.sol\":7195:7235  globalYieldPool.totalStaked += msg.value */\n      tag_9\n      jump\t// in\n    tag_244:\n        /* \"CitreaNativeYeildManager.sol\":7195:7210  globalYieldPool */\n      0x07\n        /* \"CitreaNativeYeildManager.sol\":438:16917  contract CitreaNativeYieldManager is Ownable, ReentrancyGuard, Pausable {... */\n      sstore\n        /* \"CitreaNativeYeildManager.sol\":7246:7278  globalYieldPool.participantCount */\n      0x0b\n        /* \"CitreaNativeYeildManager.sol\":438:16917  contract CitreaNativeYieldManager is Ownable, ReentrancyGuard, Pausable {... */\n      sload\n      swap2\n      0x01\n      dup4\n      add\n      dup1\n      swap4\n      gt\n      tag_135\n      jumpi\n        /* \"CitreaNativeYeildManager.sol\":7246:7278  globalYieldPool.participantCount */\n      0x0b\n        /* \"CitreaNativeYeildManager.sol\":438:16917  contract CitreaNativeYieldManager is Ownable, ReentrancyGuard, Pausable {... */\n      swap3\n      swap1\n      swap3\n      sstore\n      0x40\n      dup1\n      mload\n        /* \"CitreaNativeYeildManager.sol\":6543:6552  msg.value */\n      callvalue\n        /* \"CitreaNativeYeildManager.sol\":438:16917  contract CitreaNativeYieldManager is Ownable, ReentrancyGuard, Pausable {... */\n      dup2\n      mstore\n      0x20\n      dup2\n      add\n      swap4\n      swap1\n      swap4\n      mstore\n      dup3\n      add\n      mstore\n        /* \"CitreaNativeYeildManager.sol\":7309:7354  BtcStaked(user, msg.value, potId, stakeIndex) */\n      0x55b223c72892936a872c1f417e7e143a0592419fe999642dbb4bccb55b8c6e83\n      swap1\n        /* \"CitreaNativeYeildManager.sol\":438:16917  contract CitreaNativeYieldManager is Ownable, ReentrancyGuard, Pausable {... */\n      dup1\n      0x60\n      dup2\n      add\n        /* \"CitreaNativeYeildManager.sol\":7309:7354  BtcStaked(user, msg.value, potId, stakeIndex) */\n      tag_137\n        /* \"CitreaNativeYeildManager.sol\":438:16917  contract CitreaNativeYieldManager is Ownable, ReentrancyGuard, Pausable {... */\n      jump\n        /* \"CitreaNativeYeildManager.sol\":7008:7130  if (potId > 0) {... */\n    tag_241:\n        /* \"CitreaNativeYeildManager.sol\":7038:7069  potStakes[potId].push(newStake) */\n      tag_248\n        /* \"CitreaNativeYeildManager.sol\":438:16917  contract CitreaNativeYieldManager is Ownable, ReentrancyGuard, Pausable {... */\n      swap1\n      dup4\n      0x00\n      mstore\n      mstore(0x20, 0x04)\n      keccak256(0x00, 0x40)\n        /* \"CitreaNativeYeildManager.sol\":7038:7069  potStakes[potId].push(newStake) */\n      tag_17\n      jump\t// in\n    tag_248:\n        /* \"CitreaNativeYeildManager.sol\":438:16917  contract CitreaNativeYieldManager is Ownable, ReentrancyGuard, Pausable {... */\n      dup2\n      0x00\n      mstore\n        /* \"CitreaNativeYeildManager.sol\":7084:7098  potTotalStaked */\n      0x06\n        /* \"CitreaNativeYeildManager.sol\":438:16917  contract CitreaNativeYieldManager is Ownable, ReentrancyGuard, Pausable {... */\n      0x20\n      mstore\n      keccak256(0x00, 0x40)\n        /* \"CitreaNativeYeildManager.sol\":7084:7118  potTotalStaked[potId] += msg.value */\n      tag_249\n        /* \"CitreaNativeYeildManager.sol\":6543:6552  msg.value */\n      callvalue\n        /* \"CitreaNativeYeildManager.sol\":438:16917  contract CitreaNativeYieldManager is Ownable, ReentrancyGuard, Pausable {... */\n      dup3\n      sload\n        /* \"CitreaNativeYeildManager.sol\":7084:7118  potTotalStaked[potId] += msg.value */\n      tag_9\n      jump\t// in\n    tag_249:\n        /* \"CitreaNativeYeildManager.sol\":438:16917  contract CitreaNativeYieldManager is Ownable, ReentrancyGuard, Pausable {... */\n      swap1\n      sstore\n        /* \"CitreaNativeYeildManager.sol\":7008:7130  if (potId > 0) {... */\n      dup4\n      jump(tag_242)\n        /* \"CitreaNativeYeildManager.sol\":438:16917  contract CitreaNativeYieldManager is Ownable, ReentrancyGuard, Pausable {... */\n    tag_233:\n      mload(0x40)\n      shl(0xe5, 0x461bcd)\n      dup2\n      mstore\n      0x20\n      0x04\n      dup3\n      add\n      mstore\n      0x14\n      0x24\n      dup3\n      add\n      mstore\n      shl(0x60, 0x496e76616c696420757365722061646472657373)\n      0x44\n      dup3\n      add\n      mstore\n      0x64\n      swap1\n      revert\n        /* \"CitreaNativeYeildManager.sol\":3309:3363  authorizedCallers[msg.sender] || msg.sender == owner() */\n    tag_228:\n      pop\n        /* \"CitreaNativeYeildManager.sol\":438:16917  contract CitreaNativeYieldManager is Ownable, ReentrancyGuard, Pausable {... */\n      and(sub(shl(0xa0, 0x01), 0x01), sload(0x00))\n        /* \"CitreaNativeYeildManager.sol\":3327:3337  msg.sender */\n      caller\n        /* \"CitreaNativeYeildManager.sol\":3342:3363  msg.sender == owner() */\n      eq\n        /* \"CitreaNativeYeildManager.sol\":3309:3363  authorizedCallers[msg.sender] || msg.sender == owner() */\n      jump(tag_229)\n        /* \"CitreaNativeYeildManager.sol\":438:16917  contract CitreaNativeYieldManager is Ownable, ReentrancyGuard, Pausable {... */\n    tag_95:\n      jumpi(tag_121, callvalue)\n      jumpi(tag_121, slt(add(not(0x03), calldatasize), 0x00))\n        /* \"CitreaNativeYeildManager.sol\":3327:3337  msg.sender */\n      caller\n        /* \"CitreaNativeYeildManager.sol\":438:16917  contract CitreaNativeYieldManager is Ownable, ReentrancyGuard, Pausable {... */\n      0x00\n      mstore\n        /* \"CitreaNativeYeildManager.sol\":3309:3326  authorizedCallers */\n      0x0c\n        /* \"CitreaNativeYeildManager.sol\":438:16917  contract CitreaNativeYieldManager is Ownable, ReentrancyGuard, Pausable {... */\n      0x20\n      mstore\n      and(sload(keccak256(0x00, 0x40)), 0xff)\n        /* \"CitreaNativeYeildManager.sol\":3309:3363  authorizedCallers[msg.sender] || msg.sender == owner() */\n      dup1\n      iszero\n      tag_254\n      jumpi\n        /* \"CitreaNativeYeildManager.sol\":438:16917  contract CitreaNativeYieldManager is Ownable, ReentrancyGuard, Pausable {... */\n    tag_255:\n        /* \"CitreaNativeYeildManager.sol\":3287:3405  require(... */\n      tag_256\n      swap1\n      tag_10\n      jump\t// in\n    tag_256:\n        /* \"@openzeppelin/contracts/security/ReentrancyGuard.sol\":2227:2330  modifier nonReentrant() {... */\n      tag_257\n      tag_22\n      jump\t// in\n    tag_257:\n        /* \"CitreaNativeYeildManager.sol\":11932:11946  networkFeePool */\n      0x0d\n        /* \"CitreaNativeYeildManager.sol\":438:16917  contract CitreaNativeYieldManager is Ownable, ReentrancyGuard, Pausable {... */\n      sload\n        /* \"CitreaNativeYeildManager.sol\":11932:11950  networkFeePool > 0 */\n      dup1\n      iszero\n        /* \"CitreaNativeYeildManager.sol\":438:16917  contract CitreaNativeYieldManager is Ownable, ReentrancyGuard, Pausable {... */\n      tag_258\n      jumpi\n        /* \"CitreaNativeYeildManager.sol\":11995:12010  globalYieldPool */\n      0x07\n        /* \"CitreaNativeYeildManager.sol\":438:16917  contract CitreaNativeYieldManager is Ownable, ReentrancyGuard, Pausable {... */\n      sload\n        /* \"CitreaNativeYeildManager.sol\":11995:12026  globalYieldPool.totalStaked > 0 */\n      iszero\n        /* \"CitreaNativeYeildManager.sol\":438:16917  contract CitreaNativeYieldManager is Ownable, ReentrancyGuard, Pausable {... */\n      tag_260\n      jumpi\n        /* \"CitreaNativeYeildManager.sol\":12286:12341  globalYieldPool.totalYieldGenerated += feesToDistribute */\n      tag_262\n        /* \"CitreaNativeYeildManager.sol\":438:16917  contract CitreaNativeYieldManager is Ownable, ReentrancyGuard, Pausable {... */\n      swap1\n      0x00\n        /* \"CitreaNativeYeildManager.sol\":11932:11946  networkFeePool */\n      0x0d\n        /* \"CitreaNativeYeildManager.sol\":438:16917  contract CitreaNativeYieldManager is Ownable, ReentrancyGuard, Pausable {... */\n      sstore\n        /* \"CitreaNativeYeildManager.sol\":12286:12321  globalYieldPool.totalYieldGenerated */\n      0x08\n        /* \"CitreaNativeYeildManager.sol\":438:16917  contract CitreaNativeYieldManager is Ownable, ReentrancyGuard, Pausable {... */\n      sload\n        /* \"CitreaNativeYeildManager.sol\":12286:12341  globalYieldPool.totalYieldGenerated += feesToDistribute */\n      tag_9\n      jump\t// in\n    tag_262:\n        /* \"CitreaNativeYeildManager.sol\":12286:12321  globalYieldPool.totalYieldGenerated */\n      0x08\n        /* \"CitreaNativeYeildManager.sol\":438:16917  contract CitreaNativeYieldManager is Ownable, ReentrancyGuard, Pausable {... */\n      sstore\n        /* \"@openzeppelin/contracts/security/ReentrancyGuard.sol\":1716:1717  1 */\n      0x01\n        /* \"CitreaNativeYeildManager.sol\":438:16917  contract CitreaNativeYieldManager is Ownable, ReentrancyGuard, Pausable {... */\n      dup1\n      sstore\n      stop\n    tag_260:\n      mload(0x40)\n      shl(0xe5, 0x461bcd)\n      dup2\n      mstore\n      0x20\n      0x04\n      dup3\n      add\n      mstore\n      0x10\n      0x24\n      dup3\n      add\n      mstore\n      shl(0x80, 0x4e6f20616374697665207374616b6573)\n      0x44\n      dup3\n      add\n      mstore\n      0x64\n      swap1\n      revert\n    tag_258:\n      mload(0x40)\n      shl(0xe5, 0x461bcd)\n      dup2\n      mstore\n      0x20\n      0x04\n      dup3\n      add\n      mstore\n      0x15\n      0x24\n      dup3\n      add\n      mstore\n      shl(0x58, 0x4e6f206665657320746f2064697374726962757465)\n      0x44\n      dup3\n      add\n      mstore\n      0x64\n      swap1\n      revert\n        /* \"CitreaNativeYeildManager.sol\":3309:3363  authorizedCallers[msg.sender] || msg.sender == owner() */\n    tag_254:\n      pop\n        /* \"CitreaNativeYeildManager.sol\":438:16917  contract CitreaNativeYieldManager is Ownable, ReentrancyGuard, Pausable {... */\n      and(sub(shl(0xa0, 0x01), 0x01), sload(0x00))\n        /* \"CitreaNativeYeildManager.sol\":3327:3337  msg.sender */\n      caller\n        /* \"CitreaNativeYeildManager.sol\":3342:3363  msg.sender == owner() */\n      eq\n        /* \"CitreaNativeYeildManager.sol\":3309:3363  authorizedCallers[msg.sender] || msg.sender == owner() */\n      jump(tag_255)\n        /* \"CitreaNativeYeildManager.sol\":438:16917  contract CitreaNativeYieldManager is Ownable, ReentrancyGuard, Pausable {... */\n    tag_93:\n      jumpi(tag_121, callvalue)\n      jumpi(tag_121, slt(add(not(0x03), calldatasize), 0x40))\n      tag_267\n      tag_1\n      jump\t// in\n    tag_267:\n      sub(shl(0xa0, 0x01), 0x01)\n      and\n      0x00\n      swap1\n      dup2\n      mstore\n        /* \"CitreaNativeYeildManager.sol\":1495:1544  mapping(address => StakeInfo[]) public userStakes */\n      0x03\n        /* \"CitreaNativeYeildManager.sol\":438:16917  contract CitreaNativeYieldManager is Ownable, ReentrancyGuard, Pausable {... */\n      0x20\n      mstore\n      0x40\n      swap1\n      keccak256\n      dup1\n      sload\n      calldataload(0x24)\n      swap1\n        /* \"CitreaNativeYeildManager.sol\":1495:1544  mapping(address => StakeInfo[]) public userStakes */\n      dup2\n      lt\n      iszero\n      tag_121\n      jumpi\n      tag_202\n      swap2\n      tag_2\n      jump\t// in\n        /* \"CitreaNativeYeildManager.sol\":438:16917  contract CitreaNativeYieldManager is Ownable, ReentrancyGuard, Pausable {... */\n    tag_91:\n      jumpi(tag_121, callvalue)\n      jumpi(tag_121, slt(add(not(0x03), calldatasize), 0x00))\n      0x20\n        /* \"CitreaNativeYeildManager.sol\":2045:2093  uint256 public emergencyWithdrawalDelay = 7 days */\n      0x0f\n        /* \"CitreaNativeYeildManager.sol\":438:16917  contract CitreaNativeYieldManager is Ownable, ReentrancyGuard, Pausable {... */\n      sload\n      mload(0x40)\n      swap1\n      dup2\n      mstore\n      return\n    tag_89:\n      jumpi(tag_121, callvalue)\n      jumpi(tag_121, slt(add(not(0x03), calldatasize), 0x40))\n      tag_280\n      tag_1\n      jump\t// in\n    tag_280:\n        /* \"CitreaNativeYeildManager.sol\":10592:10632  YieldAccrued(user, newYield, stakeIndex) */\n      0xaced61c86c507aa3c2be43553434c6ff191ea7cbbd812491a6ae59abc99d29dc\n        /* \"CitreaNativeYeildManager.sol\":438:16917  contract CitreaNativeYieldManager is Ownable, ReentrancyGuard, Pausable {... */\n      0x40\n      calldataload(0x24)\n      swap3\n      0x01\n      dup1\n      0xa0\n      shl\n      sub\n      dup2\n      and\n      swap4\n      dup5\n      0x00\n      mstore\n        /* \"CitreaNativeYeildManager.sol\":3528:3538  userStakes */\n      0x03\n        /* \"CitreaNativeYeildManager.sol\":438:16917  contract CitreaNativeYieldManager is Ownable, ReentrancyGuard, Pausable {... */\n      0x20\n      mstore\n        /* \"CitreaNativeYeildManager.sol\":3507:3575  require(stakeIndex < userStakes[user].length, \"Invalid stake index\") */\n      tag_281\n        /* \"CitreaNativeYeildManager.sol\":438:16917  contract CitreaNativeYieldManager is Ownable, ReentrancyGuard, Pausable {... */\n      dup4\n      0x00\n      keccak256\n      sload\n        /* \"CitreaNativeYeildManager.sol\":3515:3551  stakeIndex < userStakes[user].length */\n      dup3\n      lt\n        /* \"CitreaNativeYeildManager.sol\":3507:3575  require(stakeIndex < userStakes[user].length, \"Invalid stake index\") */\n      tag_11\n      jump\t// in\n    tag_281:\n        /* \"CitreaNativeYeildManager.sol\":438:16917  contract CitreaNativeYieldManager is Ownable, ReentrancyGuard, Pausable {... */\n      dup5\n      0x00\n      mstore\n        /* \"CitreaNativeYeildManager.sol\":3528:3538  userStakes */\n      0x03\n        /* \"CitreaNativeYeildManager.sol\":438:16917  contract CitreaNativeYieldManager is Ownable, ReentrancyGuard, Pausable {... */\n      0x20\n      mstore\n        /* \"CitreaNativeYeildManager.sol\":3586:3652  require(userStakes[user][stakeIndex].isActive, \"Stake not active\") */\n      tag_282\n        /* \"CitreaNativeYeildManager.sol\":438:16917  contract CitreaNativeYieldManager is Ownable, ReentrancyGuard, Pausable {... */\n      0xff\n      0x04\n        /* \"CitreaNativeYeildManager.sol\":3594:3622  userStakes[user][stakeIndex] */\n      tag_187\n        /* \"CitreaNativeYeildManager.sol\":438:16917  contract CitreaNativeYieldManager is Ownable, ReentrancyGuard, Pausable {... */\n      dup5\n      dup8\n      0x00\n      keccak256\n        /* \"CitreaNativeYeildManager.sol\":3594:3622  userStakes[user][stakeIndex] */\n      tag_2\n      jump\t// in\n        /* \"CitreaNativeYeildManager.sol\":3586:3652  require(userStakes[user][stakeIndex].isActive, \"Stake not active\") */\n    tag_282:\n        /* \"CitreaNativeYeildManager.sol\":438:16917  contract CitreaNativeYieldManager is Ownable, ReentrancyGuard, Pausable {... */\n      dup5\n      0x00\n      mstore\n        /* \"CitreaNativeYeildManager.sol\":3528:3538  userStakes */\n      0x03\n        /* \"CitreaNativeYeildManager.sol\":438:16917  contract CitreaNativeYieldManager is Ownable, ReentrancyGuard, Pausable {... */\n      0x20\n      mstore\n        /* \"CitreaNativeYeildManager.sol\":10365:10398  _calculateYield(user, stakeIndex) */\n      tag_284\n        /* \"CitreaNativeYeildManager.sol\":438:16917  contract CitreaNativeYieldManager is Ownable, ReentrancyGuard, Pausable {... */\n      dup2\n        /* \"CitreaNativeYeildManager.sol\":10307:10335  userStakes[user][stakeIndex] */\n      tag_285\n        /* \"CitreaNativeYeildManager.sol\":438:16917  contract CitreaNativeYieldManager is Ownable, ReentrancyGuard, Pausable {... */\n      dup2\n      dup7\n      0x00\n      keccak256\n        /* \"CitreaNativeYeildManager.sol\":10307:10335  userStakes[user][stakeIndex] */\n      tag_2\n      jump\t// in\n    tag_285:\n        /* \"CitreaNativeYeildManager.sol\":10365:10398  _calculateYield(user, stakeIndex) */\n      pop\n      swap4\n      tag_20\n      jump\t// in\n    tag_284:\n        /* \"CitreaNativeYeildManager.sol\":10419:10437  stake.accruedYield */\n      swap2\n        /* \"CitreaNativeYeildManager.sol\":438:16917  contract CitreaNativeYieldManager is Ownable, ReentrancyGuard, Pausable {... */\n      0x01\n        /* \"CitreaNativeYeildManager.sol\":10419:10437  stake.accruedYield */\n      dup2\n      add\n        /* \"CitreaNativeYeildManager.sol\":10419:10449  stake.accruedYield += newYield */\n      tag_286\n        /* \"CitreaNativeYeildManager.sol\":438:16917  contract CitreaNativeYieldManager is Ownable, ReentrancyGuard, Pausable {... */\n      dup5\n      dup3\n      sload\n        /* \"CitreaNativeYeildManager.sol\":10419:10449  stake.accruedYield += newYield */\n      tag_9\n      jump\t// in\n    tag_286:\n        /* \"CitreaNativeYeildManager.sol\":438:16917  contract CitreaNativeYieldManager is Ownable, ReentrancyGuard, Pausable {... */\n      swap1\n      sstore\n        /* \"CitreaNativeYeildManager.sol\":10460:10480  stake.lastUpdateTime */\n      0x02\n        /* \"CitreaNativeYeildManager.sol\":10483:10498  block.timestamp */\n      timestamp\n        /* \"CitreaNativeYeildManager.sol\":10460:10480  stake.lastUpdateTime */\n      swap2\n      add\n        /* \"CitreaNativeYeildManager.sol\":438:16917  contract CitreaNativeYieldManager is Ownable, ReentrancyGuard, Pausable {... */\n      sstore\n        /* \"CitreaNativeYeildManager.sol\":10519:10566  globalYieldPool.totalYieldGenerated += newYield */\n      tag_287\n        /* \"CitreaNativeYeildManager.sol\":438:16917  contract CitreaNativeYieldManager is Ownable, ReentrancyGuard, Pausable {... */\n      dup3\n        /* \"CitreaNativeYeildManager.sol\":10519:10554  globalYieldPool.totalYieldGenerated */\n      0x08\n        /* \"CitreaNativeYeildManager.sol\":438:16917  contract CitreaNativeYieldManager is Ownable, ReentrancyGuard, Pausable {... */\n      sload\n        /* \"CitreaNativeYeildManager.sol\":10519:10566  globalYieldPool.totalYieldGenerated += newYield */\n      tag_9\n      jump\t// in\n    tag_287:\n        /* \"CitreaNativeYeildManager.sol\":10519:10554  globalYieldPool.totalYieldGenerated */\n      0x08\n        /* \"CitreaNativeYeildManager.sol\":438:16917  contract CitreaNativeYieldManager is Ownable, ReentrancyGuard, Pausable {... */\n      sstore\n      dup3\n      mload\n      swap2\n      dup3\n      mstore\n      0x20\n      dup3\n      add\n      mstore\n        /* \"CitreaNativeYeildManager.sol\":10592:10632  YieldAccrued(user, newYield, stakeIndex) */\n      log2\n        /* \"CitreaNativeYeildManager.sol\":438:16917  contract CitreaNativeYieldManager is Ownable, ReentrancyGuard, Pausable {... */\n      stop\n    tag_87:\n      jumpi(tag_121, callvalue)\n      jumpi(tag_121, slt(add(not(0x03), calldatasize), 0x20))\n      sub(shl(0xa0, 0x01), 0x01)\n      tag_292\n      tag_1\n      jump\t// in\n    tag_292:\n      and\n      0x00\n      mstore\n        /* \"CitreaNativeYeildManager.sol\":2100:2155  mapping(address => uint256) public emergencyRequestTime */\n      0x10\n        /* \"CitreaNativeYeildManager.sol\":438:16917  contract CitreaNativeYieldManager is Ownable, ReentrancyGuard, Pausable {... */\n      0x20\n      mstore\n      0x20\n      sload(keccak256(0x00, 0x40))\n      mload(0x40)\n      swap1\n      dup2\n      mstore\n      return\n    tag_85:\n      jumpi(tag_121, callvalue)\n      jumpi(tag_121, slt(add(not(0x03), calldatasize), 0x00))\n      0x20\n        /* \"CitreaNativeYeildManager.sol\":15673:15705  globalYieldPool.currentYieldRate */\n      0x09\n        /* \"CitreaNativeYeildManager.sol\":438:16917  contract CitreaNativeYieldManager is Ownable, ReentrancyGuard, Pausable {... */\n      sload\n      mload(0x40)\n      swap1\n      dup2\n      mstore\n      return\n    tag_83:\n      jumpi(tag_121, callvalue)\n      jumpi(tag_121, slt(add(not(0x03), calldatasize), 0x00))\n      sload(0x00)\n      mload(0x40)\n      sub(shl(0xa0, 0x01), 0x01)\n      swap1\n      swap2\n      and\n      dup2\n      mstore\n      0x20\n      swap1\n      return\n    tag_81:\n      jumpi(tag_121, callvalue)\n      jumpi(tag_121, slt(add(not(0x03), calldatasize), 0x00))\n        /* \"CitreaNativeYeildManager.sol\":4801:4864  function pause() external onlyOwner {... */\n      tag_305\n      tag_15\n      jump\t// in\n    tag_305:\n        /* \"CitreaNativeYeildManager.sol\":438:16917  contract CitreaNativeYieldManager is Ownable, ReentrancyGuard, Pausable {... */\n      stop\n    tag_79:\n      jumpi(tag_121, callvalue)\n      jumpi(tag_121, slt(add(not(0x03), calldatasize), 0x20))\n      sub(shl(0xa0, 0x01), 0x01)\n      tag_310\n      tag_1\n      jump\t// in\n    tag_310:\n      and\n      0x00\n      mstore\n        /* \"CitreaNativeYeildManager.sol\":1625:1675  mapping(address => uint256) public userTotalStaked */\n      0x05\n        /* \"CitreaNativeYeildManager.sol\":438:16917  contract CitreaNativeYieldManager is Ownable, ReentrancyGuard, Pausable {... */\n      0x20\n      mstore\n      0x20\n      sload(keccak256(0x00, 0x40))\n      mload(0x40)\n      swap1\n      dup2\n      mstore\n      return\n    tag_77:\n      jumpi(tag_121, callvalue)\n      jumpi(tag_121, slt(add(not(0x03), calldatasize), 0x00))\n        /* \"@openzeppelin/contracts/access/Ownable.sol\":1500:1562  modifier onlyOwner() {... */\n      tag_315\n      tag_21\n      jump\t// in\n    tag_315:\n        /* \"CitreaNativeYeildManager.sol\":438:16917  contract CitreaNativeYieldManager is Ownable, ReentrancyGuard, Pausable {... */\n      0x00\n      dup1\n      sload\n      not(sub(shl(0xa0, 0x01), 0x01))\n      dup2\n      and\n      dup3\n      sstore\n      sub(shl(0xa0, 0x01), 0x01)\n      and\n        /* \"@openzeppelin/contracts/access/Ownable.sol\":3052:3092  OwnershipTransferred(oldOwner, newOwner) */\n      0x8be0079c531659141344cd1fd0a4f28419497f9722a3daafe3b4186f6b6457e0\n        /* \"CitreaNativeYeildManager.sol\":438:16917  contract CitreaNativeYieldManager is Ownable, ReentrancyGuard, Pausable {... */\n      dup3\n      dup1\n        /* \"@openzeppelin/contracts/access/Ownable.sol\":3052:3092  OwnershipTransferred(oldOwner, newOwner) */\n      log3\n        /* \"CitreaNativeYeildManager.sol\":438:16917  contract CitreaNativeYieldManager is Ownable, ReentrancyGuard, Pausable {... */\n      stop\n    tag_75:\n      jumpi(tag_121, callvalue)\n      jumpi(tag_121, slt(add(not(0x03), calldatasize), 0x00))\n      0x20\n      mload(0x40)\n        /* \"CitreaNativeYeildManager.sol\":872:875  800 */\n      0x0320\n        /* \"CitreaNativeYeildManager.sol\":438:16917  contract CitreaNativeYieldManager is Ownable, ReentrancyGuard, Pausable {... */\n      dup2\n      mstore\n      return\n    tag_73:\n      jumpi(tag_121, callvalue)\n      jumpi(tag_121, slt(add(not(0x03), calldatasize), 0x20))\n      calldataload(0x04)\n        /* \"@openzeppelin/contracts/access/Ownable.sol\":1500:1562  modifier onlyOwner() {... */\n      tag_324\n      tag_21\n      jump\t// in\n    tag_324:\n        /* \"CitreaNativeYeildManager.sol\":4590:4593  500 */\n      0x01f4\n        /* \"CitreaNativeYeildManager.sol\":4579:4593  newRate <= 500 */\n      dup2\n      gt\n        /* \"CitreaNativeYeildManager.sol\":438:16917  contract CitreaNativeYieldManager is Ownable, ReentrancyGuard, Pausable {... */\n      tag_325\n      jumpi\n      0x40\n        /* \"CitreaNativeYeildManager.sol\":4741:4781  ProtocolFeeRateUpdated(oldRate, newRate) */\n      0x1d830358c94d390366ad7162b72e731448e195f3576e63b1f57f5e43c719c5aa\n        /* \"CitreaNativeYeildManager.sol\":438:16917  contract CitreaNativeYieldManager is Ownable, ReentrancyGuard, Pausable {... */\n      swap2\n        /* \"CitreaNativeYeildManager.sol\":4664:4679  protocolFeeRate */\n      0x0e\n        /* \"CitreaNativeYeildManager.sol\":438:16917  contract CitreaNativeYieldManager is Ownable, ReentrancyGuard, Pausable {... */\n      sload\n      swap1\n      dup1\n        /* \"CitreaNativeYeildManager.sol\":4664:4679  protocolFeeRate */\n      0x0e\n        /* \"CitreaNativeYeildManager.sol\":438:16917  contract CitreaNativeYieldManager is Ownable, ReentrancyGuard, Pausable {... */\n      sstore\n      dup3\n      mload\n      swap2\n      dup3\n      mstore\n      0x20\n      dup3\n      add\n      mstore\n        /* \"CitreaNativeYeildManager.sol\":4741:4781  ProtocolFeeRateUpdated(oldRate, newRate) */\n      log1\n        /* \"CitreaNativeYeildManager.sol\":438:16917  contract CitreaNativeYieldManager is Ownable, ReentrancyGuard, Pausable {... */\n      stop\n    tag_325:\n      mload(0x40)\n      shl(0xe5, 0x461bcd)\n      dup2\n      mstore\n      0x20\n      0x04\n      dup3\n      add\n      mstore\n      0x11\n      0x24\n      dup3\n      add\n      mstore\n      shl(0x7b, 0x08ccaca40e4c2e8ca40e8dede40d0d2ced)\n      0x44\n      dup3\n      add\n      mstore\n      0x64\n      swap1\n      revert\n    tag_71:\n      jumpi(tag_121, callvalue)\n      jumpi(tag_121, slt(add(not(0x03), calldatasize), 0x00))\n      0x20\n      0xff\n        /* \"@openzeppelin/contracts/security/Pausable.sol\":1685:1692  _paused */\n      0x02\n        /* \"CitreaNativeYeildManager.sol\":438:16917  contract CitreaNativeYieldManager is Ownable, ReentrancyGuard, Pausable {... */\n      sload\n      and\n      mload(0x40)\n      swap1\n      iszero\n      iszero\n      dup2\n      mstore\n      return\n    tag_69:\n      jumpi(tag_121, callvalue)\n      jumpi(tag_121, slt(add(not(0x03), calldatasize), 0x00))\n      0x20\n        /* \"CitreaNativeYeildManager.sol\":1937:1973  uint256 public protocolFeeRate = 200 */\n      0x0e\n        /* \"CitreaNativeYeildManager.sol\":438:16917  contract CitreaNativeYieldManager is Ownable, ReentrancyGuard, Pausable {... */\n      sload\n      mload(0x40)\n      swap1\n      dup2\n      mstore\n      return\n    tag_67:\n      jumpi(tag_121, callvalue)\n      jumpi(tag_121, slt(add(not(0x03), calldatasize), 0x20))\n      sub(shl(0xa0, 0x01), 0x01)\n      tag_339\n      tag_1\n      jump\t// in\n    tag_339:\n      and\n      0x00\n      mstore\n        /* \"CitreaNativeYeildManager.sol\":1808:1857  mapping(address => bool) public authorizedCallers */\n      0x0c\n        /* \"CitreaNativeYeildManager.sol\":438:16917  contract CitreaNativeYieldManager is Ownable, ReentrancyGuard, Pausable {... */\n      0x20\n      mstore\n      0x20\n      and(sload(keccak256(0x00, 0x40)), 0xff)\n      mload(0x40)\n      swap1\n      iszero\n      iszero\n      dup2\n      mstore\n      return\n    tag_63:\n      jumpi(tag_121, callvalue)\n      jumpi(tag_121, slt(add(not(0x03), calldatasize), 0x00))\n        /* \"CitreaNativeYeildManager.sol\":16455:16531  function emergencyUnpause() external onlyOwner {... */\n      tag_305\n      tag_13\n      jump\t// in\n        /* \"CitreaNativeYeildManager.sol\":438:16917  contract CitreaNativeYieldManager is Ownable, ReentrancyGuard, Pausable {... */\n    tag_61:\n      jumpi(tag_121, callvalue)\n      jumpi(tag_121, slt(add(not(0x03), calldatasize), 0x40))\n      tag_354\n      tag_1\n      jump\t// in\n    tag_354:\n      calldataload(0x24)\n      swap1\n      dup2\n      iszero\n      iszero\n      swap1\n      dup2\n      dup4\n      sub\n      tag_121\n      jumpi\n        /* \"@openzeppelin/contracts/access/Ownable.sol\":1500:1562  modifier onlyOwner() {... */\n      tag_357\n      tag_21\n      jump\t// in\n    tag_357:\n      sub(shl(0xa0, 0x01), 0x01)\n        /* \"CitreaNativeYeildManager.sol\":438:16917  contract CitreaNativeYieldManager is Ownable, ReentrancyGuard, Pausable {... */\n      and\n      swap2\n        /* \"CitreaNativeYeildManager.sol\":3856:3876  caller != address(0) */\n      dup3\n      iszero\n        /* \"CitreaNativeYeildManager.sol\":438:16917  contract CitreaNativeYieldManager is Ownable, ReentrancyGuard, Pausable {... */\n      tag_358\n      jumpi\n        /* \"CitreaNativeYeildManager.sol\":3968:4011  AuthorizedCallerUpdated(caller, authorized) */\n      0xad857fa38c9319cb80848f1ef2f924383b90297eb5d71755738ff037d100faa1\n        /* \"CitreaNativeYeildManager.sol\":438:16917  contract CitreaNativeYieldManager is Ownable, ReentrancyGuard, Pausable {... */\n      swap2\n        /* \"CitreaNativeYeildManager.sol\":3914:3952  authorizedCallers[caller] = authorized */\n      tag_360\n        /* \"CitreaNativeYeildManager.sol\":438:16917  contract CitreaNativeYieldManager is Ownable, ReentrancyGuard, Pausable {... */\n      0x20\n      swap3\n      dup6\n      0x00\n      mstore\n        /* \"CitreaNativeYeildManager.sol\":3914:3931  authorizedCallers */\n      0x0c\n        /* \"CitreaNativeYeildManager.sol\":438:16917  contract CitreaNativeYieldManager is Ownable, ReentrancyGuard, Pausable {... */\n      dup5\n      mstore\n      keccak256(0x00, 0x40)\n      swap1\n      0xff\n      dup1\n      not\n      dup4\n      sload\n      and\n      swap2\n      iszero\n      iszero\n      and\n      or\n      swap1\n      sstore\n      jump\n        /* \"CitreaNativeYeildManager.sol\":3914:3952  authorizedCallers[caller] = authorized */\n    tag_360:\n        /* \"CitreaNativeYeildManager.sol\":438:16917  contract CitreaNativeYieldManager is Ownable, ReentrancyGuard, Pausable {... */\n      mload(0x40)\n      swap1\n      dup2\n      mstore\n        /* \"CitreaNativeYeildManager.sol\":3968:4011  AuthorizedCallerUpdated(caller, authorized) */\n      log2\n        /* \"CitreaNativeYeildManager.sol\":438:16917  contract CitreaNativeYieldManager is Ownable, ReentrancyGuard, Pausable {... */\n      stop\n    tag_358:\n      mload(0x40)\n      shl(0xe5, 0x461bcd)\n      dup2\n      mstore\n      0x20\n      0x04\n      dup3\n      add\n      mstore\n      0x16\n      0x24\n      dup3\n      add\n      mstore\n      shl(0x50, 0x496e76616c69642063616c6c65722061646472657373)\n      0x44\n      dup3\n      add\n      mstore\n      0x64\n      swap1\n      revert\n    tag_57:\n      jumpi(tag_121, callvalue)\n      jumpi(tag_121, slt(add(not(0x03), calldatasize), 0x00))\n      0x20\n      mload(0x40)\n        /* \"CitreaNativeYeildManager.sol\":946:948  50 */\n      0x32\n        /* \"CitreaNativeYeildManager.sol\":438:16917  contract CitreaNativeYieldManager is Ownable, ReentrancyGuard, Pausable {... */\n      dup2\n      mstore\n      return\n    tag_55:\n      jumpi(tag_121, callvalue)\n      jumpi(tag_121, slt(add(not(0x03), calldatasize), 0x00))\n      0x20\n        /* \"CitreaNativeYeildManager.sol\":15804:15818  networkFeePool */\n      0x0d\n        /* \"CitreaNativeYeildManager.sol\":438:16917  contract CitreaNativeYieldManager is Ownable, ReentrancyGuard, Pausable {... */\n      sload\n      mload(0x40)\n      swap1\n      dup2\n      mstore\n      return\n    tag_53:\n      jumpi(tag_121, callvalue)\n      jumpi(tag_121, slt(add(not(0x03), calldatasize), 0x20))\n      calldataload(0x04)\n        /* \"@openzeppelin/contracts/access/Ownable.sol\":1500:1562  modifier onlyOwner() {... */\n      tag_378\n      tag_21\n      jump\t// in\n    tag_378:\n        /* \"CitreaNativeYeildManager.sol\":946:948  50 */\n      0x32\n        /* \"CitreaNativeYeildManager.sol\":4111:4136  newRate >= MIN_YIELD_RATE */\n      dup2\n      lt\n      iszero\n        /* \"CitreaNativeYeildManager.sol\":4111:4165  newRate >= MIN_YIELD_RATE && newRate <= MAX_YIELD_RATE */\n      dup1\n      tag_379\n      jumpi\n        /* \"CitreaNativeYeildManager.sol\":438:16917  contract CitreaNativeYieldManager is Ownable, ReentrancyGuard, Pausable {... */\n    tag_380:\n      iszero\n      tag_381\n      jumpi\n      0x40\n        /* \"CitreaNativeYeildManager.sol\":4439:4473  YieldRateUpdated(oldRate, newRate) */\n      0x4959ad9023bf5b492922b51fbc7c0b5e5ec66aa39700e0da6d8af9b2d430898e\n        /* \"CitreaNativeYeildManager.sol\":4103:4188  require(newRate >= MIN_YIELD_RATE && newRate <= MAX_YIELD_RATE, \"Invalid yield rate\") */\n      swap2\n      tag_383\n      tag_25\n      jump\t// in\n    tag_383:\n        /* \"CitreaNativeYeildManager.sol\":4328:4360  globalYieldPool.currentYieldRate */\n      0x09\n        /* \"CitreaNativeYeildManager.sol\":438:16917  contract CitreaNativeYieldManager is Ownable, ReentrancyGuard, Pausable {... */\n      sload\n      swap1\n      dup1\n        /* \"CitreaNativeYeildManager.sol\":4328:4360  globalYieldPool.currentYieldRate */\n      0x09\n        /* \"CitreaNativeYeildManager.sol\":438:16917  contract CitreaNativeYieldManager is Ownable, ReentrancyGuard, Pausable {... */\n      sstore\n      dup3\n      mload\n      swap2\n      dup3\n      mstore\n      0x20\n      dup3\n      add\n      mstore\n        /* \"CitreaNativeYeildManager.sol\":4439:4473  YieldRateUpdated(oldRate, newRate) */\n      log1\n        /* \"CitreaNativeYeildManager.sol\":438:16917  contract CitreaNativeYieldManager is Ownable, ReentrancyGuard, Pausable {... */\n      stop\n    tag_381:\n      mload(0x40)\n      shl(0xe5, 0x461bcd)\n      dup2\n      mstore\n      0x20\n      0x04\n      dup3\n      add\n      mstore\n      0x12\n      0x24\n      dup3\n      add\n      mstore\n      shl(0x70, 0x496e76616c6964207969656c642072617465)\n      0x44\n      dup3\n      add\n      mstore\n      0x64\n      swap1\n      revert\n        /* \"CitreaNativeYeildManager.sol\":4111:4165  newRate >= MIN_YIELD_RATE && newRate <= MAX_YIELD_RATE */\n    tag_379:\n        /* \"CitreaNativeYeildManager.sol\":4140:4165  newRate <= MAX_YIELD_RATE */\n      pop\n        /* \"CitreaNativeYeildManager.sol\":872:875  800 */\n      0x0320\n        /* \"CitreaNativeYeildManager.sol\":4140:4165  newRate <= MAX_YIELD_RATE */\n      dup2\n      gt\n      iszero\n        /* \"CitreaNativeYeildManager.sol\":4111:4165  newRate >= MIN_YIELD_RATE && newRate <= MAX_YIELD_RATE */\n      jump(tag_380)\n        /* \"CitreaNativeYeildManager.sol\":438:16917  contract CitreaNativeYieldManager is Ownable, ReentrancyGuard, Pausable {... */\n    tag_51:\n      jumpi(tag_121, callvalue)\n      jumpi(tag_121, slt(add(not(0x03), calldatasize), 0x60))\n      tag_388\n      tag_1\n      jump\t// in\n    tag_388:\n      calldataload(0x44)\n      sub(shl(0xa0, 0x01), 0x01)\n      dup2\n      and\n      swap2\n      calldataload(0x24)\n      swap1\n      dup4\n      dup4\n      sub\n      tag_121\n      jumpi\n        /* \"CitreaNativeYeildManager.sol\":7970:8023  require(recipient != address(0), \"Invalid recipient\") */\n      tag_391\n        /* \"CitreaNativeYeildManager.sol\":8072:8081  recipient */\n      tag_182\n        /* \"CitreaNativeYeildManager.sol\":3327:3337  msg.sender */\n      swap5\n      caller\n        /* \"CitreaNativeYeildManager.sol\":438:16917  contract CitreaNativeYieldManager is Ownable, ReentrancyGuard, Pausable {... */\n      0x00\n      mstore\n        /* \"CitreaNativeYeildManager.sol\":3309:3326  authorizedCallers */\n      0x0c\n        /* \"CitreaNativeYeildManager.sol\":438:16917  contract CitreaNativeYieldManager is Ownable, ReentrancyGuard, Pausable {... */\n      0x20\n      mstore\n      and(sload(keccak256(0x00, 0x40)), 0xff)\n        /* \"CitreaNativeYeildManager.sol\":3309:3363  authorizedCallers[msg.sender] || msg.sender == owner() */\n      dup1\n      iszero\n      tag_393\n      jumpi\n        /* \"CitreaNativeYeildManager.sol\":438:16917  contract CitreaNativeYieldManager is Ownable, ReentrancyGuard, Pausable {... */\n    tag_394:\n        /* \"CitreaNativeYeildManager.sol\":3287:3405  require(... */\n      tag_395\n      swap1\n      tag_10\n      jump\t// in\n    tag_395:\n        /* \"@openzeppelin/contracts/security/Pausable.sol\":1204:1276  modifier whenNotPaused() {... */\n      tag_396\n      tag_23\n      jump\t// in\n    tag_396:\n        /* \"@openzeppelin/contracts/security/ReentrancyGuard.sol\":2227:2330  modifier nonReentrant() {... */\n      tag_397\n      tag_22\n      jump\t// in\n    tag_397:\n      sub(shl(0xa0, 0x01), 0x01)\n        /* \"CitreaNativeYeildManager.sol\":438:16917  contract CitreaNativeYieldManager is Ownable, ReentrancyGuard, Pausable {... */\n      dup4\n      and\n      0x00\n      dup2\n      dup2\n      mstore\n        /* \"CitreaNativeYeildManager.sol\":3528:3538  userStakes */\n      0x03\n        /* \"CitreaNativeYeildManager.sol\":438:16917  contract CitreaNativeYieldManager is Ownable, ReentrancyGuard, Pausable {... */\n      0x20\n      mstore\n      0x40\n      swap1\n      keccak256\n      sload\n        /* \"CitreaNativeYeildManager.sol\":3507:3575  require(stakeIndex < userStakes[user].length, \"Invalid stake index\") */\n      tag_398\n      swap1\n        /* \"CitreaNativeYeildManager.sol\":3515:3551  stakeIndex < userStakes[user].length */\n      dup7\n      lt\n        /* \"CitreaNativeYeildManager.sol\":3507:3575  require(stakeIndex < userStakes[user].length, \"Invalid stake index\") */\n      tag_11\n      jump\t// in\n    tag_398:\n        /* \"CitreaNativeYeildManager.sol\":438:16917  contract CitreaNativeYieldManager is Ownable, ReentrancyGuard, Pausable {... */\n      0x00\n      mstore\n        /* \"CitreaNativeYeildManager.sol\":3528:3538  userStakes */\n      0x03\n        /* \"CitreaNativeYeildManager.sol\":438:16917  contract CitreaNativeYieldManager is Ownable, ReentrancyGuard, Pausable {... */\n      0x20\n      mstore\n        /* \"CitreaNativeYeildManager.sol\":3586:3652  require(userStakes[user][stakeIndex].isActive, \"Stake not active\") */\n      tag_399\n        /* \"CitreaNativeYeildManager.sol\":438:16917  contract CitreaNativeYieldManager is Ownable, ReentrancyGuard, Pausable {... */\n      0xff\n      0x04\n        /* \"CitreaNativeYeildManager.sol\":3594:3622  userStakes[user][stakeIndex] */\n      tag_187\n        /* \"CitreaNativeYeildManager.sol\":438:16917  contract CitreaNativeYieldManager is Ownable, ReentrancyGuard, Pausable {... */\n      dup8\n      keccak256(0x00, 0x40)\n        /* \"CitreaNativeYeildManager.sol\":3594:3622  userStakes[user][stakeIndex] */\n      tag_2\n      jump\t// in\n        /* \"CitreaNativeYeildManager.sol\":3586:3652  require(userStakes[user][stakeIndex].isActive, \"Stake not active\") */\n    tag_399:\n        /* \"CitreaNativeYeildManager.sol\":7978:8001  recipient != address(0) */\n      iszero\n      iszero\n        /* \"CitreaNativeYeildManager.sol\":7970:8023  require(recipient != address(0), \"Invalid recipient\") */\n      tag_5\n      jump\t// in\n    tag_391:\n        /* \"CitreaNativeYeildManager.sol\":8072:8081  recipient */\n      tag_24\n      jump\t// in\n        /* \"CitreaNativeYeildManager.sol\":3309:3363  authorizedCallers[msg.sender] || msg.sender == owner() */\n    tag_393:\n      pop\n        /* \"CitreaNativeYeildManager.sol\":438:16917  contract CitreaNativeYieldManager is Ownable, ReentrancyGuard, Pausable {... */\n      and(sub(shl(0xa0, 0x01), 0x01), sload(0x00))\n        /* \"CitreaNativeYeildManager.sol\":3327:3337  msg.sender */\n      caller\n        /* \"CitreaNativeYeildManager.sol\":3342:3363  msg.sender == owner() */\n      eq\n        /* \"CitreaNativeYeildManager.sol\":3309:3363  authorizedCallers[msg.sender] || msg.sender == owner() */\n      jump(tag_394)\n        /* \"CitreaNativeYeildManager.sol\":438:16917  contract CitreaNativeYieldManager is Ownable, ReentrancyGuard, Pausable {... */\n    tag_49:\n      jumpi(tag_121, callvalue)\n      jumpi(tag_121, slt(add(not(0x03), calldatasize), 0x00))\n      0x20\n      mload(0x40)\n        /* \"CitreaNativeYeildManager.sol\":725:736  0.001 ether */\n      0x038d7ea4c68000\n        /* \"CitreaNativeYeildManager.sol\":438:16917  contract CitreaNativeYieldManager is Ownable, ReentrancyGuard, Pausable {... */\n      dup2\n      mstore\n      return\n    tag_47:\n      jumpi(tag_121, callvalue)\n      jumpi(tag_121, slt(add(not(0x03), calldatasize), 0x00))\n      0x20\n      mload(0x40)\n        /* \"CitreaNativeYeildManager.sol\":818:824  1 days */\n      0x015180\n        /* \"CitreaNativeYeildManager.sol\":438:16917  contract CitreaNativeYieldManager is Ownable, ReentrancyGuard, Pausable {... */\n      dup2\n      mstore\n      return\n    tag_45:\n      jumpi(tag_121, callvalue)\n      jumpi(tag_121, slt(add(not(0x03), calldatasize), 0x20))\n      tag_413\n      tag_1\n      jump\t// in\n    tag_413:\n      sub(shl(0xa0, 0x01), 0x01)\n      dup2\n      and\n      0x00\n      swap1\n      dup2\n      mstore\n        /* \"CitreaNativeYeildManager.sol\":14796:14806  userStakes */\n      0x03\n        /* \"CitreaNativeYeildManager.sol\":438:16917  contract CitreaNativeYieldManager is Ownable, ReentrancyGuard, Pausable {... */\n      0x20\n      mstore\n      0x40\n      dup2\n      keccak256\n      dup1\n      sload\n      swap2\n      swap3\n      dup4\n      swap3\n      swap2\n        /* \"CitreaNativeYeildManager.sol\":14843:14860  i < stakes.length */\n    tag_414:\n      dup3\n      dup6\n      lt\n      tag_415\n      jumpi\n        /* \"CitreaNativeYeildManager.sol\":438:16917  contract CitreaNativeYieldManager is Ownable, ReentrancyGuard, Pausable {... */\n      0x20\n      dup5\n      mload(0x40)\n      swap1\n      dup2\n      mstore\n      return\n        /* \"CitreaNativeYeildManager.sol\":14862:14865  i++ */\n    tag_415:\n        /* \"CitreaNativeYeildManager.sol\":14896:14905  stakes[i] */\n      swap1\n      swap2\n      swap3\n        /* \"CitreaNativeYeildManager.sol\":14882:14945  totalYield += stakes[i].accruedYield + _calculateYield(user, i) */\n      tag_417\n        /* \"CitreaNativeYeildManager.sol\":438:16917  contract CitreaNativeYieldManager is Ownable, ReentrancyGuard, Pausable {... */\n      0x01\n        /* \"CitreaNativeYeildManager.sol\":14896:14905  stakes[i] */\n      swap2\n        /* \"CitreaNativeYeildManager.sol\":14896:14945  stakes[i].accruedYield + _calculateYield(user, i) */\n      tag_420\n        /* \"CitreaNativeYeildManager.sol\":14896:14905  stakes[i] */\n      dup4\n      tag_419\n      dup10\n      dup8\n      tag_2\n      jump\t// in\n    tag_419:\n        /* \"CitreaNativeYeildManager.sol\":14896:14918  stakes[i].accruedYield */\n      pop\n      add\n        /* \"CitreaNativeYeildManager.sol\":438:16917  contract CitreaNativeYieldManager is Ownable, ReentrancyGuard, Pausable {... */\n      sload\n        /* \"CitreaNativeYeildManager.sol\":14921:14945  _calculateYield(user, i) */\n      tag_420\n      dup10\n      dup9\n      tag_20\n      jump\t// in\n    tag_420:\n        /* \"CitreaNativeYeildManager.sol\":14896:14945  stakes[i].accruedYield + _calculateYield(user, i) */\n      swap1\n      tag_9\n      jump\t// in\n        /* \"CitreaNativeYeildManager.sol\":14882:14945  totalYield += stakes[i].accruedYield + _calculateYield(user, i) */\n    tag_417:\n        /* \"CitreaNativeYeildManager.sol\":14862:14865  i++ */\n      swap5\n        /* \"CitreaNativeYeildManager.sol\":438:16917  contract CitreaNativeYieldManager is Ownable, ReentrancyGuard, Pausable {... */\n      add\n        /* \"CitreaNativeYeildManager.sol\":14828:14841  uint256 i = 0 */\n      swap4\n      swap3\n      swap2\n      swap1\n      jump(tag_414)\n        /* \"CitreaNativeYeildManager.sol\":438:16917  contract CitreaNativeYieldManager is Ownable, ReentrancyGuard, Pausable {... */\n    tag_43:\n      jumpi(tag_121, callvalue)\n      jumpi(tag_121, slt(add(not(0x03), calldatasize), 0x20))\n      sub(shl(0xa0, 0x01), 0x01)\n      tag_425\n      tag_1\n      jump\t// in\n    tag_425:\n      and\n      0x00\n      mstore\n        /* \"CitreaNativeYeildManager.sol\":14087:14097  userStakes */\n      0x03\n        /* \"CitreaNativeYeildManager.sol\":438:16917  contract CitreaNativeYieldManager is Ownable, ReentrancyGuard, Pausable {... */\n      0x20\n      mstore\n      0x20\n      sload(keccak256(0x00, 0x40))\n      mload(0x40)\n      swap1\n      dup2\n      mstore\n      return\n    tag_41:\n      jumpi(tag_121, callvalue)\n      jumpi(tag_121, slt(add(not(0x03), calldatasize), 0x40))\n      tag_430\n      tag_1\n      jump\t// in\n    tag_430:\n      calldataload(0x24)\n        /* \"@openzeppelin/contracts/access/Ownable.sol\":1500:1562  modifier onlyOwner() {... */\n      swap1\n      tag_431\n      tag_21\n      jump\t// in\n    tag_431:\n        /* \"@openzeppelin/contracts/security/ReentrancyGuard.sol\":2227:2330  modifier nonReentrant() {... */\n      tag_432\n      tag_22\n      jump\t// in\n    tag_432:\n      sub(shl(0xa0, 0x01), 0x01)\n        /* \"CitreaNativeYeildManager.sol\":438:16917  contract CitreaNativeYieldManager is Ownable, ReentrancyGuard, Pausable {... */\n      and\n      swap1\n        /* \"CitreaNativeYeildManager.sol\":16054:16107  require(recipient != address(0), \"Invalid recipient\") */\n      tag_433\n        /* \"CitreaNativeYeildManager.sol\":16062:16085  recipient != address(0) */\n      dup3\n      iszero\n      iszero\n        /* \"CitreaNativeYeildManager.sol\":16054:16107  require(recipient != address(0), \"Invalid recipient\") */\n      tag_5\n      jump\t// in\n    tag_433:\n        /* \"CitreaNativeYeildManager.sol\":16136:16150  networkFeePool */\n      0x0d\n        /* \"CitreaNativeYeildManager.sol\":438:16917  contract CitreaNativeYieldManager is Ownable, ReentrancyGuard, Pausable {... */\n      sload\n        /* \"CitreaNativeYeildManager.sol\":16126:16150  amount <= networkFeePool */\n      swap2\n      dup3\n      dup3\n      gt\n        /* \"CitreaNativeYeildManager.sol\":438:16917  contract CitreaNativeYieldManager is Ownable, ReentrancyGuard, Pausable {... */\n      tag_434\n      jumpi\n      0x00\n        /* \"CitreaNativeYeildManager.sol\":16193:16217  networkFeePool -= amount */\n      dup1\n      dup1\n      dup5\n      dup2\n      swap5\n      tag_436\n      dup3\n      dup10\n      tag_6\n      jump\t// in\n    tag_436:\n        /* \"CitreaNativeYeildManager.sol\":16136:16150  networkFeePool */\n      0x0d\n        /* \"CitreaNativeYeildManager.sol\":438:16917  contract CitreaNativeYieldManager is Ownable, ReentrancyGuard, Pausable {... */\n      sstore\n        /* \"CitreaNativeYeildManager.sol\":16257:16299  payable(recipient).call{value: amount}(\"\") */\n      gas\n      call\n      tag_437\n      tag_8\n      jump\t// in\n    tag_437:\n      pop\n        /* \"CitreaNativeYeildManager.sol\":438:16917  contract CitreaNativeYieldManager is Ownable, ReentrancyGuard, Pausable {... */\n      iszero\n      tag_438\n      jumpi\n      0x01\n      dup1\n      sstore\n      stop\n    tag_438:\n      mload(0x40)\n      shl(0xe5, 0x461bcd)\n      dup2\n      mstore\n      0x20\n      0x04\n      dup3\n      add\n      mstore\n      0x15\n      0x24\n      dup3\n      add\n      mstore\n      shl(0x5a, 0x119959481dda5d1a191c985dd85b0819985a5b1959)\n      0x44\n      dup3\n      add\n      mstore\n      0x64\n      swap1\n      revert\n    tag_434:\n      mload(0x40)\n      shl(0xe5, 0x461bcd)\n      dup2\n      mstore\n      0x20\n      0x04\n      dup3\n      add\n      mstore\n      0x11\n      0x24\n      dup3\n      add\n      mstore\n      shl(0x78, 0x496e73756666696369656e742066656573)\n      0x44\n      dup3\n      add\n      mstore\n      0x64\n      swap1\n      revert\n    tag_37:\n      jumpi(tag_121, callvalue)\n      jumpi(tag_121, slt(add(not(0x03), calldatasize), 0x00))\n      0x80\n        /* \"CitreaNativeYeildManager.sol\":15396:15411  globalYieldPool */\n      0x07\n        /* \"CitreaNativeYeildManager.sol\":438:16917  contract CitreaNativeYieldManager is Ownable, ReentrancyGuard, Pausable {... */\n      sload\n        /* \"CitreaNativeYeildManager.sol\":15438:15473  globalYieldPool.totalYieldGenerated */\n      0x08\n        /* \"CitreaNativeYeildManager.sol\":438:16917  contract CitreaNativeYieldManager is Ownable, ReentrancyGuard, Pausable {... */\n      sload\n        /* \"CitreaNativeYeildManager.sol\":15488:15520  globalYieldPool.currentYieldRate */\n      0x09\n        /* \"CitreaNativeYeildManager.sol\":438:16917  contract CitreaNativeYieldManager is Ownable, ReentrancyGuard, Pausable {... */\n      sload\n        /* \"CitreaNativeYeildManager.sol\":15535:15567  globalYieldPool.participantCount */\n      0x0b\n        /* \"CitreaNativeYeildManager.sol\":438:16917  contract CitreaNativeYieldManager is Ownable, ReentrancyGuard, Pausable {... */\n      sload\n      swap2\n      mload(0x40)\n      swap4\n      dup5\n      mstore\n      0x20\n      dup5\n      add\n      mstore\n      0x40\n      dup4\n      add\n      mstore\n      0x60\n      dup3\n      add\n      mstore\n      return\n    tag_33:\n      jumpi(tag_121, callvalue)\n      jumpi(tag_121, slt(add(not(0x03), calldatasize), 0x40))\n      0x20\n      tag_456\n      tag_457\n      tag_1\n      jump\t// in\n    tag_457:\n      calldataload(0x24)\n      swap1\n      tag_4\n      jump\t// in\n    tag_456:\n      mload(0x40)\n      swap1\n      dup2\n      mstore\n      return\n    tag_1:\n      calldataload(0x04)\n      swap1\n      sub(shl(0xa0, 0x01), 0x01)\n      dup3\n      and\n      dup3\n      sub\n      tag_121\n      jumpi\n      jump\t// out\n    tag_2:\n      dup1\n      sload\n      dup3\n      lt\n      iszero\n      tag_460\n      jumpi\n      0x00\n      mstore\n      0x05\n      keccak256(0x00, 0x20)\n      swap2\n      mul\n      add\n      swap1\n      0x00\n      swap1\n      jump\t// out\n    tag_460:\n      mstore(0x00, shl(0xe0, 0x4e487b71))\n      mstore(0x04, 0x32)\n      revert(0x00, 0x24)\n        /* \"CitreaNativeYeildManager.sol\":14408:14660  function getUserCurrentYield(address user, uint256 stakeIndex) ... */\n    tag_4:\n      swap1\n        /* \"CitreaNativeYeildManager.sol\":438:16917  contract CitreaNativeYieldManager is Ownable, ReentrancyGuard, Pausable {... */\n      0x01\n      dup1\n      0xa0\n      shl\n      sub\n      dup3\n      and\n      0x00\n      mstore\n        /* \"CitreaNativeYeildManager.sol\":14568:14578  userStakes */\n      0x03\n        /* \"CitreaNativeYeildManager.sol\":438:16917  contract CitreaNativeYieldManager is Ownable, ReentrancyGuard, Pausable {... */\n      0x20\n      mstore\n      sload(keccak256(0x00, 0x40))\n        /* \"CitreaNativeYeildManager.sol\":14554:14591  stakeIndex >= userStakes[user].length */\n      dup2\n      lt\n      iszero\n        /* \"CitreaNativeYeildManager.sol\":14550:14601  if (stakeIndex >= userStakes[user].length) return 0 */\n      tag_462\n      jumpi\n        /* \"CitreaNativeYeildManager.sol\":14619:14652  _calculateYield(user, stakeIndex) */\n      tag_464\n      swap2\n      tag_20\n      jump\t// in\n    tag_464:\n        /* \"CitreaNativeYeildManager.sol\":14408:14660  function getUserCurrentYield(address user, uint256 stakeIndex) ... */\n      swap1\n      jump\t// out\n        /* \"CitreaNativeYeildManager.sol\":14550:14601  if (stakeIndex >= userStakes[user].length) return 0 */\n    tag_462:\n        /* \"CitreaNativeYeildManager.sol\":14593:14601  return 0 */\n      pop\n      pop\n        /* \"CitreaNativeYeildManager.sol\":438:16917  contract CitreaNativeYieldManager is Ownable, ReentrancyGuard, Pausable {... */\n      0x00\n        /* \"CitreaNativeYeildManager.sol\":14593:14601  return 0 */\n      swap1\n      jump\t// out\n        /* \"CitreaNativeYeildManager.sol\":438:16917  contract CitreaNativeYieldManager is Ownable, ReentrancyGuard, Pausable {... */\n    tag_5:\n      iszero\n      tag_465\n      jumpi\n      jump\t// out\n    tag_465:\n      mload(0x40)\n      shl(0xe5, 0x461bcd)\n      dup2\n      mstore\n      0x20\n      0x04\n      dup3\n      add\n      mstore\n      0x11\n      0x24\n      dup3\n      add\n      mstore\n      shl(0x7a, 0x125b9d985b1a59081c9958da5c1a595b9d)\n      0x44\n      dup3\n      add\n      mstore\n      0x64\n      swap1\n      revert\n    tag_6:\n      swap2\n      swap1\n      dup3\n      sub\n      swap2\n      dup3\n      gt\n      tag_135\n      jumpi\n      jump\t// out\n    tag_7:\n      mload(0x40)\n      swap1\n      0xa0\n      dup3\n      add\n      dup3\n      dup2\n      lt\n      0xffffffffffffffff\n      dup3\n      gt\n      or\n      tag_469\n      jumpi\n      0x40\n      mstore\n      jump\t// out\n    tag_469:\n      mstore(0x00, shl(0xe0, 0x4e487b71))\n      mstore(0x04, 0x41)\n      revert(0x00, 0x24)\n    tag_8:\n      jumpi(tag_471, iszero(returndatasize))\n      returndatasize\n      swap1\n      0xffffffffffffffff\n      dup3\n      gt\n      tag_469\n      jumpi\n      mload(0x40)\n      swap2\n      0x1f\n      dup2\n      add\n      not(0x1f)\n      swap1\n      dup2\n      and\n      0x3f\n      add\n      and\n      dup4\n      add\n      0xffffffffffffffff\n      dup2\n      gt\n      dup5\n      dup3\n      lt\n      or\n      tag_469\n      jumpi\n      0x40\n      mstore\n      dup3\n      mstore\n      returndatasize\n      0x00\n      0x20\n      dup5\n      add\n      returndatacopy\n      jump\t// out\n    tag_471:\n      0x60\n      swap1\n      jump\t// out\n    tag_9:\n      swap2\n      swap1\n      dup3\n      add\n      dup1\n      swap3\n      gt\n      tag_135\n      jumpi\n      jump\t// out\n    tag_10:\n      iszero\n      tag_480\n      jumpi\n      jump\t// out\n    tag_480:\n      mload(0x40)\n      shl(0xe5, 0x461bcd)\n      dup2\n      mstore\n      0x20\n      0x04\n      dup3\n      add\n      mstore\n      0x0e\n      0x24\n      dup3\n      add\n      mstore\n      shl(0x92, 0x139bdd08185d5d1a1bdc9a5e9959)\n      0x44\n      dup3\n      add\n      mstore\n      0x64\n      swap1\n      revert\n    tag_11:\n      iszero\n      tag_482\n      jumpi\n      jump\t// out\n    tag_482:\n      mload(0x40)\n      shl(0xe5, 0x461bcd)\n      dup2\n      mstore\n      0x20\n      0x04\n      dup3\n      add\n      mstore\n      0x13\n      0x24\n      dup3\n      add\n      mstore\n      shl(0x6b, 0x092dcecc2d8d2c840e6e8c2d6ca40d2dcc8caf)\n      0x44\n      dup3\n      add\n      mstore\n      0x64\n      swap1\n      revert\n    tag_12:\n      iszero\n      tag_484\n      jumpi\n      jump\t// out\n    tag_484:\n      mload(0x40)\n      shl(0xe5, 0x461bcd)\n      dup2\n      mstore\n      0x20\n      0x04\n      dup3\n      add\n      mstore\n      0x10\n      0x24\n      dup3\n      add\n      mstore\n      shl(0x80, 0x5374616b65206e6f7420616374697665)\n      0x44\n      dup3\n      add\n      mstore\n      0x64\n      swap1\n      revert\n        /* \"@openzeppelin/contracts/access/Ownable.sol\":1500:1562  modifier onlyOwner() {... */\n    tag_13:\n      tag_486\n      tag_21\n      jump\t// in\n    tag_486:\n        /* \"@openzeppelin/contracts/security/Pausable.sol\":1685:1692  _paused */\n      0x02\n        /* \"CitreaNativeYeildManager.sol\":438:16917  contract CitreaNativeYieldManager is Ownable, ReentrancyGuard, Pausable {... */\n      sload\n      0xff\n      dup2\n      and\n      iszero\n      tag_487\n      jumpi\n      not(0xff)\n      and\n        /* \"@openzeppelin/contracts/security/Pausable.sol\":1685:1692  _paused */\n      0x02\n        /* \"CitreaNativeYeildManager.sol\":438:16917  contract CitreaNativeYieldManager is Ownable, ReentrancyGuard, Pausable {... */\n      sstore\n        /* \"@openzeppelin/contracts/security/Pausable.sol\":2521:2543  Unpaused(_msgSender()) */\n      0x5db9ee0a495bf2e6ff9c91a7834c1ba4fdd244a5e8aa4e537bd38aeae4b073aa\n        /* \"CitreaNativeYeildManager.sol\":438:16917  contract CitreaNativeYieldManager is Ownable, ReentrancyGuard, Pausable {... */\n      0x20\n      mload(0x40)\n        /* \"@openzeppelin/contracts/utils/Context.sol\":735:745  msg.sender */\n      caller\n        /* \"CitreaNativeYeildManager.sol\":438:16917  contract CitreaNativeYieldManager is Ownable, ReentrancyGuard, Pausable {... */\n      dup2\n      mstore\n        /* \"@openzeppelin/contracts/security/Pausable.sol\":2521:2543  Unpaused(_msgSender()) */\n      log1\n        /* \"@openzeppelin/contracts/access/Ownable.sol\":1500:1562  modifier onlyOwner() {... */\n      jump\t// out\n        /* \"CitreaNativeYeildManager.sol\":438:16917  contract CitreaNativeYieldManager is Ownable, ReentrancyGuard, Pausable {... */\n    tag_487:\n      mload(0x40)\n      shl(0xe5, 0x461bcd)\n      dup2\n      mstore\n      0x20\n      0x04\n      dup3\n      add\n      mstore\n      0x14\n      0x24\n      dup3\n      add\n      mstore\n      shl(0x62, 0x14185d5cd8589b194e881b9bdd081c185d5cd959)\n      0x44\n      dup3\n      add\n      mstore\n      0x64\n      swap1\n      revert\n        /* \"@openzeppelin/contracts/access/Ownable.sol\":1500:1562  modifier onlyOwner() {... */\n    tag_15:\n      tag_489\n      tag_21\n      jump\t// in\n    tag_489:\n        /* \"@openzeppelin/contracts/security/Pausable.sol\":1204:1276  modifier whenNotPaused() {... */\n      tag_490\n      tag_23\n      jump\t// in\n    tag_490:\n        /* \"@openzeppelin/contracts/security/Pausable.sol\":2255:2259  true */\n      0x01\n        /* \"CitreaNativeYeildManager.sol\":438:16917  contract CitreaNativeYieldManager is Ownable, ReentrancyGuard, Pausable {... */\n      not(0xff)\n        /* \"@openzeppelin/contracts/security/Pausable.sol\":2245:2259  _paused = true */\n      0x02\n        /* \"CitreaNativeYeildManager.sol\":438:16917  contract CitreaNativeYieldManager is Ownable, ReentrancyGuard, Pausable {... */\n      sload\n      and\n      or\n        /* \"@openzeppelin/contracts/security/Pausable.sol\":2245:2259  _paused = true */\n      0x02\n        /* \"CitreaNativeYeildManager.sol\":438:16917  contract CitreaNativeYieldManager is Ownable, ReentrancyGuard, Pausable {... */\n      sstore\n        /* \"@openzeppelin/contracts/security/Pausable.sol\":2274:2294  Paused(_msgSender()) */\n      0x62e78cea01bee320cd4e420270b5ea74000d11b0c9f74754ebdbfc544b05a258\n        /* \"CitreaNativeYeildManager.sol\":438:16917  contract CitreaNativeYieldManager is Ownable, ReentrancyGuard, Pausable {... */\n      0x20\n      mload(0x40)\n        /* \"@openzeppelin/contracts/utils/Context.sol\":735:745  msg.sender */\n      caller\n        /* \"CitreaNativeYeildManager.sol\":438:16917  contract CitreaNativeYieldManager is Ownable, ReentrancyGuard, Pausable {... */\n      dup2\n      mstore\n        /* \"@openzeppelin/contracts/security/Pausable.sol\":2274:2294  Paused(_msgSender()) */\n      log1\n        /* \"@openzeppelin/contracts/access/Ownable.sol\":1500:1562  modifier onlyOwner() {... */\n      jump\t// out\n        /* \"CitreaNativeYeildManager.sol\":438:16917  contract CitreaNativeYieldManager is Ownable, ReentrancyGuard, Pausable {... */\n    tag_16:\n      iszero\n      tag_491\n      jumpi\n      jump\t// out\n    tag_491:\n      mload(0x40)\n      shl(0xe5, 0x461bcd)\n      dup2\n      mstore\n      0x20\n      0x04\n      dup3\n      add\n      mstore\n      0x14\n      0x24\n      dup3\n      add\n      mstore\n      shl(0x60, 0x5374616b6520616d6f756e7420746f6f206c6f77)\n      0x44\n      dup3\n      add\n      mstore\n      0x64\n      swap1\n      revert\n    tag_17:\n      dup1\n      sload\n      0x010000000000000000\n      dup2\n      lt\n      iszero\n      tag_469\n      jumpi\n      tag_495\n      swap2\n      0x01\n      dup3\n      add\n      dup2\n      sstore\n      tag_2\n      jump\t// in\n    tag_495:\n      tag_496\n      jumpi\n      0x04\n      0x80\n      dup4\n      tag_498\n      swap5\n      mload\n      dup5\n      sstore\n      0x20\n      dup2\n      add\n      mload\n      0x01\n      dup6\n      add\n      sstore\n      0x40\n      dup2\n      add\n      mload\n      0x02\n      dup6\n      add\n      sstore\n      0x60\n      dup2\n      add\n      mload\n      0x03\n      dup6\n      add\n      sstore\n      add\n      mload\n      iszero\n      iszero\n      swap2\n      add\n      swap1\n      0xff\n      dup1\n      not\n      dup4\n      sload\n      and\n      swap2\n      iszero\n      iszero\n      and\n      or\n      swap1\n      sstore\n      jump\n    tag_498:\n      jump\t// out\n    tag_496:\n      mstore(0x00, shl(0xe0, 0x4e487b71))\n      mstore(0x04, 0x00)\n      revert(0x00, 0x24)\n    tag_19:\n      dup2\n      dup2\n      mul\n      swap3\n      swap2\n      dup2\n      iszero\n      swap2\n      dup5\n      div\n      eq\n      or\n      iszero\n      tag_135\n      jumpi\n      jump\t// out\n        /* \"CitreaNativeYeildManager.sol\":9582:10079  function _calculateYield(address user, uint256 stakeIndex) internal view returns (uint256) {... */\n    tag_20:\n      sub(shl(0xa0, 0x01), 0x01)\n        /* \"CitreaNativeYeildManager.sol\":438:16917  contract CitreaNativeYieldManager is Ownable, ReentrancyGuard, Pausable {... */\n      and\n      0x00\n      swap1\n      dup2\n      mstore\n        /* \"CitreaNativeYeildManager.sol\":9710:9720  userStakes */\n      0x03\n        /* \"CitreaNativeYeildManager.sol\":438:16917  contract CitreaNativeYieldManager is Ownable, ReentrancyGuard, Pausable {... */\n      0x20\n      mstore\n      0x40\n      swap1\n      keccak256\n        /* \"CitreaNativeYeildManager.sol\":9710:9738  userStakes[user][stakeIndex] */\n      tag_501\n      swap2\n        /* \"CitreaNativeYeildManager.sol\":9582:10079  function _calculateYield(address user, uint256 stakeIndex) internal view returns (uint256) {... */\n      swap1\n        /* \"CitreaNativeYeildManager.sol\":9710:9738  userStakes[user][stakeIndex] */\n      tag_2\n      jump\t// in\n    tag_501:\n        /* \"CitreaNativeYeildManager.sol\":9754:9768  stake.isActive */\n      pop\n        /* \"CitreaNativeYeildManager.sol\":438:16917  contract CitreaNativeYieldManager is Ownable, ReentrancyGuard, Pausable {... */\n      0xff\n        /* \"CitreaNativeYeildManager.sol\":9754:9768  stake.isActive */\n      0x04\n      dup3\n      add\n        /* \"CitreaNativeYeildManager.sol\":438:16917  contract CitreaNativeYieldManager is Ownable, ReentrancyGuard, Pausable {... */\n      sload\n      and\n        /* \"CitreaNativeYeildManager.sol\":9753:9768  !stake.isActive */\n      iszero\n        /* \"CitreaNativeYeildManager.sol\":9749:9778  if (!stake.isActive) return 0 */\n      tag_502\n      jumpi\n        /* \"CitreaNativeYeildManager.sol\":9994:10019  annualYield * timeElapsed */\n      tag_504\n        /* \"CitreaNativeYeildManager.sol\":9839:9859  stake.lastUpdateTime */\n      dup2\n        /* \"CitreaNativeYeildManager.sol\":641:646  10000 */\n      0x2710\n        /* \"CitreaNativeYeildManager.sol\":9893:9943  stake.principal * globalYieldPool.currentYieldRate */\n      tag_505\n        /* \"CitreaNativeYeildManager.sol\":9821:9859  block.timestamp - stake.lastUpdateTime */\n      tag_506\n        /* \"CitreaNativeYeildManager.sol\":9839:9859  stake.lastUpdateTime */\n      0x02\n        /* \"CitreaNativeYeildManager.sol\":10023:10031  365 days */\n      0x01e13380\n        /* \"CitreaNativeYeildManager.sol\":9839:9859  stake.lastUpdateTime */\n      swap7\n      add\n        /* \"CitreaNativeYeildManager.sol\":438:16917  contract CitreaNativeYieldManager is Ownable, ReentrancyGuard, Pausable {... */\n      sload\n        /* \"CitreaNativeYeildManager.sol\":9821:9836  block.timestamp */\n      timestamp\n        /* \"CitreaNativeYeildManager.sol\":9821:9859  block.timestamp - stake.lastUpdateTime */\n      tag_6\n      jump\t// in\n    tag_506:\n        /* \"CitreaNativeYeildManager.sol\":438:16917  contract CitreaNativeYieldManager is Ownable, ReentrancyGuard, Pausable {... */\n      swap3\n      sload\n        /* \"CitreaNativeYeildManager.sol\":9911:9943  globalYieldPool.currentYieldRate */\n      0x09\n        /* \"CitreaNativeYeildManager.sol\":438:16917  contract CitreaNativeYieldManager is Ownable, ReentrancyGuard, Pausable {... */\n      sload\n        /* \"CitreaNativeYeildManager.sol\":9893:9943  stake.principal * globalYieldPool.currentYieldRate */\n      swap1\n      tag_19\n      jump\t// in\n    tag_505:\n        /* \"CitreaNativeYeildManager.sol\":438:16917  contract CitreaNativeYieldManager is Ownable, ReentrancyGuard, Pausable {... */\n      div\n        /* \"CitreaNativeYeildManager.sol\":9994:10019  annualYield * timeElapsed */\n      tag_19\n      jump\t// in\n    tag_504:\n        /* \"CitreaNativeYeildManager.sol\":438:16917  contract CitreaNativeYieldManager is Ownable, ReentrancyGuard, Pausable {... */\n      div\n        /* \"CitreaNativeYeildManager.sol\":9582:10079  function _calculateYield(address user, uint256 stakeIndex) internal view returns (uint256) {... */\n      swap1\n      jump\t// out\n        /* \"CitreaNativeYeildManager.sol\":9749:9778  if (!stake.isActive) return 0 */\n    tag_502:\n        /* \"CitreaNativeYeildManager.sol\":9770:9778  return 0 */\n      pop\n        /* \"CitreaNativeYeildManager.sol\":438:16917  contract CitreaNativeYieldManager is Ownable, ReentrancyGuard, Pausable {... */\n      0x00\n        /* \"CitreaNativeYeildManager.sol\":9770:9778  return 0 */\n      swap1\n      jump\t// out\n        /* \"@openzeppelin/contracts/access/Ownable.sol\":1796:1958  function _checkOwner() internal view virtual {... */\n    tag_21:\n        /* \"@openzeppelin/contracts/access/Ownable.sol\":1710:1716  _owner */\n      0x00\n        /* \"CitreaNativeYeildManager.sol\":438:16917  contract CitreaNativeYieldManager is Ownable, ReentrancyGuard, Pausable {... */\n      sload\n      sub(shl(0xa0, 0x01), 0x01)\n      and\n        /* \"@openzeppelin/contracts/utils/Context.sol\":735:745  msg.sender */\n      caller\n        /* \"@openzeppelin/contracts/access/Ownable.sol\":1855:1878  owner() != _msgSender() */\n      sub\n        /* \"@openzeppelin/contracts/access/Ownable.sol\":1851:1952  if (owner() != _msgSender()) {... */\n      tag_507\n      jumpi\n        /* \"@openzeppelin/contracts/access/Ownable.sol\":1796:1958  function _checkOwner() internal view virtual {... */\n      jump\t// out\n        /* \"@openzeppelin/contracts/access/Ownable.sol\":1851:1952  if (owner() != _msgSender()) {... */\n    tag_507:\n        /* \"@openzeppelin/contracts/access/Ownable.sol\":1901:1941  OwnableUnauthorizedAccount(_msgSender()) */\n      shl(0xe0, 0x118cdaa7)\n        /* \"@openzeppelin/contracts/access/Ownable.sol\":1710:1716  _owner */\n      0x00\n        /* \"@openzeppelin/contracts/access/Ownable.sol\":1901:1941  OwnableUnauthorizedAccount(_msgSender()) */\n      mstore\n        /* \"@openzeppelin/contracts/utils/Context.sol\":735:745  msg.sender */\n      caller\n        /* \"@openzeppelin/contracts/access/Ownable.sol\":1901:1941  OwnableUnauthorizedAccount(_msgSender()) */\n      0x04\n        /* \"CitreaNativeYeildManager.sol\":438:16917  contract CitreaNativeYieldManager is Ownable, ReentrancyGuard, Pausable {... */\n      mstore\n      0x24\n        /* \"@openzeppelin/contracts/access/Ownable.sol\":1710:1716  _owner */\n      0x00\n        /* \"@openzeppelin/contracts/access/Ownable.sol\":1901:1941  OwnableUnauthorizedAccount(_msgSender()) */\n      revert\n        /* \"@openzeppelin/contracts/security/ReentrancyGuard.sol\":2336:2623  function _nonReentrantBefore() private {... */\n    tag_22:\n        /* \"@openzeppelin/contracts/security/ReentrancyGuard.sol\":1759:1760  2 */\n      0x02\n        /* \"@openzeppelin/contracts/security/ReentrancyGuard.sol\":2468:2475  _status */\n      0x01\n        /* \"CitreaNativeYeildManager.sol\":438:16917  contract CitreaNativeYieldManager is Ownable, ReentrancyGuard, Pausable {... */\n      sload\n        /* \"@openzeppelin/contracts/security/ReentrancyGuard.sol\":2468:2487  _status != _ENTERED */\n      eq\n        /* \"@openzeppelin/contracts/security/ReentrancyGuard.sol\":1759:1760  2 */\n      tag_509\n      jumpi\n      0x02\n        /* \"@openzeppelin/contracts/security/ReentrancyGuard.sol\":2468:2475  _status */\n      0x01\n        /* \"CitreaNativeYeildManager.sol\":438:16917  contract CitreaNativeYieldManager is Ownable, ReentrancyGuard, Pausable {... */\n      sstore\n        /* \"@openzeppelin/contracts/security/ReentrancyGuard.sol\":2336:2623  function _nonReentrantBefore() private {... */\n      jump\t// out\n        /* \"@openzeppelin/contracts/security/ReentrancyGuard.sol\":1759:1760  2 */\n    tag_509:\n        /* \"CitreaNativeYeildManager.sol\":438:16917  contract CitreaNativeYieldManager is Ownable, ReentrancyGuard, Pausable {... */\n      mload(0x40)\n      shl(0xe5, 0x461bcd)\n        /* \"@openzeppelin/contracts/security/ReentrancyGuard.sol\":1759:1760  2 */\n      dup2\n      mstore\n      0x20\n      0x04\n      dup3\n      add\n      mstore\n      0x1f\n      0x24\n      dup3\n      add\n        /* \"CitreaNativeYeildManager.sol\":438:16917  contract CitreaNativeYieldManager is Ownable, ReentrancyGuard, Pausable {... */\n      mstore\n        /* \"@openzeppelin/contracts/security/ReentrancyGuard.sol\":1759:1760  2 */\n      0x5265656e7472616e637947756172643a207265656e7472616e742063616c6c00\n        /* \"CitreaNativeYeildManager.sol\":438:16917  contract CitreaNativeYieldManager is Ownable, ReentrancyGuard, Pausable {... */\n      0x44\n      dup3\n      add\n        /* \"@openzeppelin/contracts/security/ReentrancyGuard.sol\":1759:1760  2 */\n      mstore\n      0x64\n      swap1\n      revert\n        /* \"@openzeppelin/contracts/security/Pausable.sol\":1767:1873  function _requireNotPaused() internal view virtual {... */\n    tag_23:\n        /* \"CitreaNativeYeildManager.sol\":438:16917  contract CitreaNativeYieldManager is Ownable, ReentrancyGuard, Pausable {... */\n      0xff\n        /* \"@openzeppelin/contracts/security/Pausable.sol\":1685:1692  _paused */\n      0x02\n        /* \"CitreaNativeYeildManager.sol\":438:16917  contract CitreaNativeYieldManager is Ownable, ReentrancyGuard, Pausable {... */\n      sload\n      and\n      tag_511\n      jumpi\n        /* \"@openzeppelin/contracts/security/Pausable.sol\":1767:1873  function _requireNotPaused() internal view virtual {... */\n      jump\t// out\n        /* \"CitreaNativeYeildManager.sol\":438:16917  contract CitreaNativeYieldManager is Ownable, ReentrancyGuard, Pausable {... */\n    tag_511:\n      mload(0x40)\n      shl(0xe5, 0x461bcd)\n      dup2\n      mstore\n      0x20\n      0x04\n      dup3\n      add\n      mstore\n      0x10\n      0x24\n      dup3\n      add\n      mstore\n      shl(0x82, 0x14185d5cd8589b194e881c185d5cd959)\n      0x44\n      dup3\n      add\n      mstore\n      0x64\n      swap1\n      revert\n        /* \"CitreaNativeYeildManager.sol\":8144:9443  function _unstakeBtcInternal(address user, uint256 stakeIndex, address recipient) internal {... */\n    tag_24:\n      swap1\n        /* \"CitreaNativeYeildManager.sol\":438:16917  contract CitreaNativeYieldManager is Ownable, ReentrancyGuard, Pausable {... */\n      0x01\n      dup1\n      0xa0\n      shl\n      sub\n      dup3\n      and\n      swap3\n      dup4\n      0x00\n      mstore\n        /* \"CitreaNativeYeildManager.sol\":8272:8282  userStakes */\n      0x03\n        /* \"CitreaNativeYeildManager.sol\":438:16917  contract CitreaNativeYieldManager is Ownable, ReentrancyGuard, Pausable {... */\n      0x20\n      mstore\n        /* \"CitreaNativeYeildManager.sol\":8380:8413  _calculateYield(user, stakeIndex) */\n      tag_513\n        /* \"CitreaNativeYeildManager.sol\":438:16917  contract CitreaNativeYieldManager is Ownable, ReentrancyGuard, Pausable {... */\n      dup3\n        /* \"CitreaNativeYeildManager.sol\":8272:8300  userStakes[user][stakeIndex] */\n      tag_514\n        /* \"CitreaNativeYeildManager.sol\":438:16917  contract CitreaNativeYieldManager is Ownable, ReentrancyGuard, Pausable {... */\n      dup2\n      keccak256(0x00, 0x40)\n        /* \"CitreaNativeYeildManager.sol\":8272:8300  userStakes[user][stakeIndex] */\n      tag_2\n      jump\t// in\n    tag_514:\n        /* \"CitreaNativeYeildManager.sol\":8380:8413  _calculateYield(user, stakeIndex) */\n      pop\n      swap5\n      tag_20\n      jump\t// in\n    tag_513:\n        /* \"CitreaNativeYeildManager.sol\":8424:8442  stake.accruedYield */\n      swap1\n        /* \"CitreaNativeYeildManager.sol\":8424:8458  stake.accruedYield += currentYield */\n      tag_515\n        /* \"CitreaNativeYeildManager.sol\":8424:8442  stake.accruedYield */\n      0x01\n      dup6\n      add\n        /* \"CitreaNativeYeildManager.sol\":438:16917  contract CitreaNativeYieldManager is Ownable, ReentrancyGuard, Pausable {... */\n      swap3\n      dup4\n      sload\n        /* \"CitreaNativeYeildManager.sol\":8424:8458  stake.accruedYield += currentYield */\n      tag_9\n      jump\t// in\n    tag_515:\n        /* \"CitreaNativeYeildManager.sol\":438:16917  contract CitreaNativeYieldManager is Ownable, ReentrancyGuard, Pausable {... */\n      dup1\n      dup4\n      sstore\n      dup5\n      sload\n        /* \"CitreaNativeYeildManager.sol\":8655:8680  totalAmount - protocolFee */\n      tag_516\n        /* \"CitreaNativeYeildManager.sol\":641:646  10000 */\n      0x2710\n        /* \"CitreaNativeYeildManager.sol\":8571:8607  stake.accruedYield * protocolFeeRate */\n      tag_517\n        /* \"CitreaNativeYeildManager.sol\":8501:8537  stake.principal + stake.accruedYield */\n      tag_518\n      dup6\n      dup6\n      tag_9\n      jump\t// in\n    tag_518:\n        /* \"CitreaNativeYeildManager.sol\":438:16917  contract CitreaNativeYieldManager is Ownable, ReentrancyGuard, Pausable {... */\n      swap5\n        /* \"CitreaNativeYeildManager.sol\":8592:8607  protocolFeeRate */\n      0x0e\n        /* \"CitreaNativeYeildManager.sol\":438:16917  contract CitreaNativeYieldManager is Ownable, ReentrancyGuard, Pausable {... */\n      sload\n        /* \"CitreaNativeYeildManager.sol\":8571:8607  stake.accruedYield * protocolFeeRate */\n      swap1\n      tag_19\n      jump\t// in\n    tag_517:\n        /* \"CitreaNativeYeildManager.sol\":438:16917  contract CitreaNativeYieldManager is Ownable, ReentrancyGuard, Pausable {... */\n      div\n        /* \"CitreaNativeYeildManager.sol\":8655:8680  totalAmount - protocolFee */\n      dup1\n      swap4\n      tag_6\n      jump\t// in\n    tag_516:\n        /* \"CitreaNativeYeildManager.sol\":8272:8282  userStakes */\n      0x03\n        /* \"CitreaNativeYeildManager.sol\":8742:8753  stake.potId */\n      dup8\n      add\n        /* \"CitreaNativeYeildManager.sol\":438:16917  contract CitreaNativeYieldManager is Ownable, ReentrancyGuard, Pausable {... */\n      sload\n        /* \"CitreaNativeYeildManager.sol\":8764:8778  stake.isActive */\n      swap2\n      0x04\n      dup9\n      add\n        /* \"CitreaNativeYeildManager.sol\":438:16917  contract CitreaNativeYieldManager is Ownable, ReentrancyGuard, Pausable {... */\n      not(0xff)\n      dup2\n      sload\n      and\n      swap1\n      sstore\n      dup9\n      0x00\n      mstore\n        /* \"CitreaNativeYeildManager.sol\":8807:8822  userTotalStaked */\n      0x05\n        /* \"CitreaNativeYeildManager.sol\":438:16917  contract CitreaNativeYieldManager is Ownable, ReentrancyGuard, Pausable {... */\n      0x20\n      mstore\n        /* \"CitreaNativeYeildManager.sol\":8807:8847  userTotalStaked[user] -= stake.principal */\n      tag_519\n        /* \"CitreaNativeYeildManager.sol\":438:16917  contract CitreaNativeYieldManager is Ownable, ReentrancyGuard, Pausable {... */\n      keccak256(0x00, 0x40)\n      swap2\n      dup3\n      sload\n        /* \"CitreaNativeYeildManager.sol\":8807:8847  userTotalStaked[user] -= stake.principal */\n      tag_6\n      jump\t// in\n    tag_519:\n        /* \"CitreaNativeYeildManager.sol\":438:16917  contract CitreaNativeYieldManager is Ownable, ReentrancyGuard, Pausable {... */\n      swap1\n      sstore\n        /* \"CitreaNativeYeildManager.sol\":8858:8904  globalYieldPool.totalStaked -= stake.principal */\n      tag_520\n        /* \"CitreaNativeYeildManager.sol\":438:16917  contract CitreaNativeYieldManager is Ownable, ReentrancyGuard, Pausable {... */\n      dup8\n      sload\n        /* \"CitreaNativeYeildManager.sol\":8858:8873  globalYieldPool */\n      0x07\n        /* \"CitreaNativeYeildManager.sol\":438:16917  contract CitreaNativeYieldManager is Ownable, ReentrancyGuard, Pausable {... */\n      sload\n        /* \"CitreaNativeYeildManager.sol\":8858:8904  globalYieldPool.totalStaked -= stake.principal */\n      tag_6\n      jump\t// in\n    tag_520:\n        /* \"CitreaNativeYeildManager.sol\":8858:8873  globalYieldPool */\n      0x07\n        /* \"CitreaNativeYeildManager.sol\":438:16917  contract CitreaNativeYieldManager is Ownable, ReentrancyGuard, Pausable {... */\n      sstore\n        /* \"CitreaNativeYeildManager.sol\":8915:8947  globalYieldPool.participantCount */\n      0x0b\n        /* \"CitreaNativeYeildManager.sol\":438:16917  contract CitreaNativeYieldManager is Ownable, ReentrancyGuard, Pausable {... */\n      sload\n      not(0x00)\n      dup2\n      add\n      swap2\n      swap1\n      dup3\n      gt\n      tag_135\n      jumpi\n      0x00\n      swap5\n      dup6\n      swap5\n      dup6\n      swap5\n      dup6\n      swap5\n        /* \"CitreaNativeYeildManager.sol\":8915:8947  globalYieldPool.participantCount */\n      0x0b\n        /* \"CitreaNativeYeildManager.sol\":438:16917  contract CitreaNativeYieldManager is Ownable, ReentrancyGuard, Pausable {... */\n      sstore\n        /* \"CitreaNativeYeildManager.sol\":8977:8986  potId > 0 */\n      dup1\n        /* \"CitreaNativeYeildManager.sol\":8973:9055  if (potId > 0) {... */\n      tag_523\n      jumpi\n        /* \"CitreaNativeYeildManager.sol\":8144:9443  function _unstakeBtcInternal(address user, uint256 stakeIndex, address recipient) internal {... */\n    tag_524:\n        /* \"CitreaNativeYeildManager.sol\":9112:9127  protocolFee > 0 */\n      pop\n      dup1\n        /* \"CitreaNativeYeildManager.sol\":9108:9185  if (protocolFee > 0) {... */\n      tag_525\n      jumpi\n        /* \"CitreaNativeYeildManager.sol\":8144:9443  function _unstakeBtcInternal(address user, uint256 stakeIndex, address recipient) internal {... */\n    tag_526:\n      pop\n      sub(shl(0xa0, 0x01), 0x01)\n        /* \"CitreaNativeYeildManager.sol\":438:16917  contract CitreaNativeYieldManager is Ownable, ReentrancyGuard, Pausable {... */\n      and\n        /* \"CitreaNativeYeildManager.sol\":9251:9297  payable(recipient).call{value: userAmount}(\"\") */\n      gas\n      call\n      tag_527\n      tag_8\n      jump\t// in\n    tag_527:\n      pop\n        /* \"CitreaNativeYeildManager.sol\":438:16917  contract CitreaNativeYieldManager is Ownable, ReentrancyGuard, Pausable {... */\n      iszero\n      tag_528\n      jumpi\n      swap2\n      sload\n      swap2\n      sload\n      0x40\n      dup1\n      mload\n      swap4\n      dup5\n      mstore\n      0x20\n      dup5\n      add\n      swap2\n      swap1\n      swap2\n      mstore\n      dup3\n      add\n      mstore\n        /* \"CitreaNativeYeildManager.sol\":9369:9435  BtcUnstaked(user, stake.principal, stake.accruedYield, stakeIndex) */\n      0xc8b5ab210e9d3b6a82b80aa35e2cc486dc439d18cbfef6006c423a516768f70b\n      swap1\n        /* \"CitreaNativeYeildManager.sol\":438:16917  contract CitreaNativeYieldManager is Ownable, ReentrancyGuard, Pausable {... */\n      0x60\n      swap1\n        /* \"CitreaNativeYeildManager.sol\":9369:9435  BtcUnstaked(user, stake.principal, stake.accruedYield, stakeIndex) */\n      log2\n        /* \"CitreaNativeYeildManager.sol\":8144:9443  function _unstakeBtcInternal(address user, uint256 stakeIndex, address recipient) internal {... */\n      jump\t// out\n        /* \"CitreaNativeYeildManager.sol\":438:16917  contract CitreaNativeYieldManager is Ownable, ReentrancyGuard, Pausable {... */\n    tag_528:\n      mload(0x40)\n      shl(0xe5, 0x461bcd)\n      dup2\n      mstore\n      0x20\n        /* \"CitreaNativeYeildManager.sol\":8764:8778  stake.isActive */\n      0x04\n        /* \"CitreaNativeYeildManager.sol\":438:16917  contract CitreaNativeYieldManager is Ownable, ReentrancyGuard, Pausable {... */\n      dup3\n      add\n      mstore\n      0x0f\n      0x24\n      dup3\n      add\n      mstore\n      shl(0x8a, 0x151c985b9cd9995c8819985a5b1959)\n      0x44\n      dup3\n      add\n      mstore\n      0x64\n      swap1\n      revert\n        /* \"CitreaNativeYeildManager.sol\":9108:9185  if (protocolFee > 0) {... */\n    tag_525:\n        /* \"CitreaNativeYeildManager.sol\":9144:9173  networkFeePool += protocolFee */\n      tag_531\n        /* \"CitreaNativeYeildManager.sol\":438:16917  contract CitreaNativeYieldManager is Ownable, ReentrancyGuard, Pausable {... */\n      swap1\n        /* \"CitreaNativeYeildManager.sol\":9144:9173  networkFeePool += protocolFee */\n      0x0d\n        /* \"CitreaNativeYeildManager.sol\":438:16917  contract CitreaNativeYieldManager is Ownable, ReentrancyGuard, Pausable {... */\n      sload\n        /* \"CitreaNativeYeildManager.sol\":9144:9173  networkFeePool += protocolFee */\n      tag_9\n      jump\t// in\n    tag_531:\n      0x0d\n        /* \"CitreaNativeYeildManager.sol\":438:16917  contract CitreaNativeYieldManager is Ownable, ReentrancyGuard, Pausable {... */\n      sstore\n        /* \"CitreaNativeYeildManager.sol\":9108:9185  if (protocolFee > 0) {... */\n      0x00\n      jump(tag_526)\n        /* \"CitreaNativeYeildManager.sol\":8973:9055  if (potId > 0) {... */\n    tag_523:\n        /* \"CitreaNativeYeildManager.sol\":438:16917  contract CitreaNativeYieldManager is Ownable, ReentrancyGuard, Pausable {... */\n      dup11\n      sload\n      swap1\n      dup6\n      mstore\n        /* \"CitreaNativeYeildManager.sol\":9003:9017  potTotalStaked */\n      0x06\n        /* \"CitreaNativeYeildManager.sol\":438:16917  contract CitreaNativeYieldManager is Ownable, ReentrancyGuard, Pausable {... */\n      0x20\n      mstore\n        /* \"CitreaNativeYeildManager.sol\":9003:9043  potTotalStaked[potId] -= stake.principal */\n      tag_532\n        /* \"CitreaNativeYeildManager.sol\":438:16917  contract CitreaNativeYieldManager is Ownable, ReentrancyGuard, Pausable {... */\n      0x40\n      dup7\n      keccak256\n      swap2\n      dup3\n      sload\n        /* \"CitreaNativeYeildManager.sol\":9003:9043  potTotalStaked[potId] -= stake.principal */\n      tag_6\n      jump\t// in\n    tag_532:\n        /* \"CitreaNativeYeildManager.sol\":438:16917  contract CitreaNativeYieldManager is Ownable, ReentrancyGuard, Pausable {... */\n      swap1\n      sstore\n        /* \"CitreaNativeYeildManager.sol\":8973:9055  if (potId > 0) {... */\n      0x00\n      jump(tag_524)\n        /* \"CitreaNativeYeildManager.sol\":10694:11408  function _updateGlobalYield() internal {... */\n    tag_25:\n        /* \"CitreaNativeYeildManager.sol\":10778:10793  block.timestamp */\n      timestamp\n        /* \"CitreaNativeYeildManager.sol\":10744:10775  globalYieldPool.lastYieldUpdate */\n      0x0a\n        /* \"CitreaNativeYeildManager.sol\":438:16917  contract CitreaNativeYieldManager is Ownable, ReentrancyGuard, Pausable {... */\n      sstore\n        /* \"CitreaNativeYeildManager.sol\":10744:10759  globalYieldPool */\n      0x07\n        /* \"CitreaNativeYeildManager.sol\":438:16917  contract CitreaNativeYieldManager is Ownable, ReentrancyGuard, Pausable {... */\n      sload\n        /* \"CitreaNativeYeildManager.sol\":10909:10918  100 ether */\n      0x056bc75e2d63100000\n        /* \"CitreaNativeYeildManager.sol\":10879:10918  globalYieldPool.totalStaked > 100 ether */\n      dup2\n      gt\n        /* \"CitreaNativeYeildManager.sol\":10909:10918  100 ether */\n      iszero\n      tag_533\n      jumpi\n        /* \"CitreaNativeYeildManager.sol\":438:16917  contract CitreaNativeYieldManager is Ownable, ReentrancyGuard, Pausable {... */\n      pop\n        /* \"CitreaNativeYeildManager.sol\":10992:11024  globalYieldPool.currentYieldRate */\n      0x09\n        /* \"CitreaNativeYeildManager.sol\":438:16917  contract CitreaNativeYieldManager is Ownable, ReentrancyGuard, Pausable {... */\n      sload\n      0x64\n        /* \"CitreaNativeYeildManager.sol\":10992:11046  globalYieldPool.currentYieldRate > MIN_YIELD_RATE + 50 */\n      dup2\n      gt\n        /* \"CitreaNativeYeildManager.sol\":10988:11121  if (globalYieldPool.currentYieldRate > MIN_YIELD_RATE + 50) {... */\n      tag_535\n      jumpi\n        /* \"CitreaNativeYeildManager.sol\":10875:11401  if (globalYieldPool.totalStaked > 100 ether) {... */\n      pop\n        /* \"CitreaNativeYeildManager.sol\":10694:11408  function _updateGlobalYield() internal {... */\n      jump\t// out\n        /* \"CitreaNativeYeildManager.sol\":10988:11121  if (globalYieldPool.currentYieldRate > MIN_YIELD_RATE + 50) {... */\n    tag_535:\n      not(0x09)\n        /* \"CitreaNativeYeildManager.sol\":438:16917  contract CitreaNativeYieldManager is Ownable, ReentrancyGuard, Pausable {... */\n      dup2\n      add\n      swap1\n      dup2\n      gt\n      tag_135\n      jumpi\n        /* \"CitreaNativeYeildManager.sol\":10992:11024  globalYieldPool.currentYieldRate */\n      0x09\n        /* \"CitreaNativeYeildManager.sol\":438:16917  contract CitreaNativeYieldManager is Ownable, ReentrancyGuard, Pausable {... */\n      sstore\n        /* \"CitreaNativeYeildManager.sol\":10694:11408  function _updateGlobalYield() internal {... */\n      jump\t// out\n        /* \"CitreaNativeYeildManager.sol\":10875:11401  if (globalYieldPool.totalStaked > 100 ether) {... */\n    tag_533:\n        /* \"CitreaNativeYeildManager.sol\":11172:11180  10 ether */\n      0x8ac7230489e80000\n      gt\n        /* \"CitreaNativeYeildManager.sol\":11138:11401  if (globalYieldPool.totalStaked < 10 ether) {... */\n      tag_540\n      jumpi\n        /* \"CitreaNativeYeildManager.sol\":10694:11408  function _updateGlobalYield() internal {... */\n      jump\t// out\n        /* \"CitreaNativeYeildManager.sol\":11138:11401  if (globalYieldPool.totalStaked < 10 ether) {... */\n    tag_540:\n        /* \"CitreaNativeYeildManager.sol\":11261:11293  globalYieldPool.currentYieldRate */\n      0x09\n        /* \"CitreaNativeYeildManager.sol\":438:16917  contract CitreaNativeYieldManager is Ownable, ReentrancyGuard, Pausable {... */\n      sload\n      0x02ee\n        /* \"CitreaNativeYeildManager.sol\":11261:11315  globalYieldPool.currentYieldRate < MAX_YIELD_RATE - 50 */\n      dup2\n      lt\n        /* \"CitreaNativeYeildManager.sol\":11257:11390  if (globalYieldPool.currentYieldRate < MAX_YIELD_RATE - 50) {... */\n      tag_542\n      jumpi\n        /* \"CitreaNativeYeildManager.sol\":11138:11401  if (globalYieldPool.totalStaked < 10 ether) {... */\n      pop\n        /* \"CitreaNativeYeildManager.sol\":438:16917  contract CitreaNativeYieldManager is Ownable, ReentrancyGuard, Pausable {... */\n      jump\t// out\n        /* \"CitreaNativeYeildManager.sol\":11257:11390  if (globalYieldPool.currentYieldRate < MAX_YIELD_RATE - 50) {... */\n    tag_542:\n        /* \"CitreaNativeYeildManager.sol\":10744:10775  globalYieldPool.lastYieldUpdate */\n      0x0a\n        /* \"CitreaNativeYeildManager.sol\":438:16917  contract CitreaNativeYieldManager is Ownable, ReentrancyGuard, Pausable {... */\n      dup2\n      add\n      dup1\n      swap2\n      gt\n      tag_135\n      jumpi\n        /* \"CitreaNativeYeildManager.sol\":11261:11293  globalYieldPool.currentYieldRate */\n      0x09\n        /* \"CitreaNativeYeildManager.sol\":438:16917  contract CitreaNativeYieldManager is Ownable, ReentrancyGuard, Pausable {... */\n      sstore\n        /* \"CitreaNativeYeildManager.sol\":10694:11408  function _updateGlobalYield() internal {... */\n      jump\t// out\n\n    auxdata: 0xa264697066735822122047daefa38587b9a4b79cd0567af56a6dbad846c56e47c5764f2c112fe4fd126864736f6c634300081e0033\n}\n",
				"bytecode": {
					"linkReferences": {},
					"object": "6080806040523460955733156082575f8054336001600160a01b0319821681178355916001600160a01b03909116907f8be0079c531659141344cd1fd0a4f28419497f9722a3daafe3b4186f6b6457e09080a36001805560ff196002541660025560c8600e5562093a80600f5561019060095542600a55611b97908161009a8239f35b631e4fbdf760e01b5f525f60045260245ffd5b5f80fdfe60806040526004361015610090575b361561004e5760405162461bcd60e51b8152602060048201526012602482015271119d5b98dd1a5bdb881b9bdd08199bdd5b9960721b6044820152606490fd5b3461005557005b61006134600d546115e0565b600d557ffd89f3716628d726d771436aef1a2b241477089ecdea8429f2dcdf2f2106c4a46020604051348152a1005b5f3560e01c80630b48baba1461146d578063148a1ed71461066c5780631683e9ce1461143757806316a54675146110c05780631a7a73c21461134b5780631b545a17146113135780631bc6a778146112945780631e99921b1461127757806327ed7188146112565780632d4c5abe146111905780632f0f8a7a146110dd57806330063e3b146110c0578063304a900d146110a55780633f4ba83a14610fc2578063454bbd2914610fda5780634a4e3bd514610fc257806351858e2714610dea578063536fff6c14610f8557806358f8588014610f685780635c975abb14610f465780636340d55c14610eaf5780636987ca1d14610e93578063715018a614610e3c578063719de1ef14610e045780638456cb5914610dea5780638da5cb5b14610dc3578063962ca49614610da657806396ca8d2714610d6e578063a83481e114610ca0578063b4f7403114610c83578063b5d5b5fa14610c3e578063bb57ad2014610b54578063c5b4f4071461098a578063c69ecf0b14610900578063caa7c8aa146108b4578063cec695fa146107db578063cffb911e14610762578063e1f1c4a714610746578063e65eaff714610707578063e8421b5e14610696578063ec6694571461066c578063f2fde38b146105e7578063f4993bbd146103d55763f74b51b30361000e5760203660031901126103d15760043561028f61192a565b6102976118d4565b6102aa66038d7ea4c68000341015611777565b6102b2611afa565b6102ba61155b565b3481525f602082015242604082015281606082015260016080820152335f5260036020526102eb8160405f206117ba565b335f52600360205260405f2054905f198201918211610389578261039d575b50335f52600560205260405f206103223482546115e0565b9055610330346007546115e0565b600755600b546001810180911161038957600b5560408051348152602081019390935282015233907f55b223c72892936a872c1f417e7e143a0592419fe999642dbb4bccb55b8c6e839080606081015b0390a260018055005b634e487b7160e01b5f52601160045260245ffd5b6103b290835f52600460205260405f206117ba565b815f52600660205260405f206103c93482546115e0565b90555f61030a565b5f80fd5b346103d1575f3660031901126103d1576103ed6118d4565b335f52601060205260405f20541515806105c5575b1561058057335f52600560205260405f2054801561054457335f52600360205260405f205f5b815481101561049a5760ff600461043f83856114b2565b50015416610450575b600101610428565b600461045c82846114b2565b5001805460ff1916905561047d61047382846114b2565b505460075461154e565b600755600b545f1981019190821161038957600b91909155610448565b82335f5260056020525f6040812055335f5260106020525f60408120555f80808084335af16104c761158f565b50156104ff576040519081527faf6e7d750e5a786a0b4d0e00806a5f778d09769d9c8c0ee377cc6df72af0711560203392a260018055005b60405162461bcd60e51b815260206004820152601b60248201527f456d657267656e6379207769746864726177616c206661696c656400000000006044820152606490fd5b60405162461bcd60e51b81526020600482015260146024820152734e6f2066756e647320746f20776974686472617760601b6044820152606490fd5b60405162461bcd60e51b815260206004820152601760248201527f456d657267656e63792064656c6179206e6f74206d65740000000000000000006044820152606490fd5b50335f5260106020526105df60405f2054600f54906115e0565b421015610402565b346103d15760203660031901126103d15761060061149c565b6106086118ae565b6001600160a01b03168015610659575f80546001600160a01b03198116831782556001600160a01b0316907f8be0079c531659141344cd1fd0a4f28419497f9722a3daafe3b4186f6b6457e09080a3005b631e4fbdf760e01b5f525f60045260245ffd5b346103d15760203660031901126103d1576004355f526006602052602060405f2054604051908152f35b346103d15760203660031901126103d1576107016004356106b561192a565b6106bd6118d4565b335f5260036020526106d460405f2054821061162a565b335f5260036020526106f960ff60046106f08460405f206114b2565b5001541661166c565b33903361196e565b60018055005b346103d1575f3660031901126103d15760a0600754600854600954600a5490600b54926040519485526020850152604084015260608301526080820152f35b346103d1575f3660031901126103d15760206040516127108152f35b346103d15760403660031901126103d1576024356004355f52600460205260405f209081548110156103d157610797916114b2565b50805460018201546002830154600384015460049094015460408051948552602085019390935291830152606082019290925260ff9091161515608082015260a090f35b346103d15760403660031901126103d15760a061084d6107f961149c565b602435905f608061080861155b565b8281528260208201528260408201528260608201520152600180851b0316805f52600360205261083d60405f2054831061162a565b5f52600360205260405f206114b2565b5061085661155b565b81549182825260018101546020830190815260028201549060408401918252608060ff600460038601549560608801968752015416940193151584526040519485525160208501525160408401525160608301525115156080820152f35b346103d1575f3660031901126103d157335f5260106020524260405f20556040514281527fdcbf58b4b48819c95c8100c354ffdc3633d192e7c3eebfb025492de8c9226b1160203392a2005b5f3660031901126103d157335f52600c60205260ff60405f2054168015610977575b61092b906115ed565b341561093d5761006134600d546115e0565b60405162461bcd60e51b8152602060048201526012602482015271139bc81999595cc81d1bc818dbdb1b1958dd60721b6044820152606490fd5b505f546001600160a01b03163314610922565b60403660031901126103d15761099e61149c565b60243590335f52600c60205260ff60405f2054168015610b41575b6109c2906115ed565b6109ca61192a565b6109d26118d4565b6001600160a01b0316908115610b05576109f566038d7ea4c68000341015611777565b6109fd611afa565b610a0561155b565b3481525f602082015242604082015281606082015260016080820152825f526003602052610a368160405f206117ba565b825f52600360205260405f2054905f1982019182116103895782610ad1575b50825f52600560205260405f20610a6d3482546115e0565b9055610a7b346007546115e0565b600755600b54916001830180931161038957600b929092556040805134815260208101939093528201527f55b223c72892936a872c1f417e7e143a0592419fe999642dbb4bccb55b8c6e83908060608101610380565b610ae690835f52600460205260405f206117ba565b815f52600660205260405f20610afd3482546115e0565b905583610a55565b60405162461bcd60e51b8152602060048201526014602482015273496e76616c69642075736572206164647265737360601b6044820152606490fd5b505f546001600160a01b031633146109b9565b346103d1575f3660031901126103d157335f52600c60205260ff60405f2054168015610c2b575b610b84906115ed565b610b8c6118d4565b600d548015610bee5760075415610bb657610bad905f600d556008546115e0565b60085560018055005b60405162461bcd60e51b815260206004820152601060248201526f4e6f20616374697665207374616b657360801b6044820152606490fd5b60405162461bcd60e51b81526020600482015260156024820152744e6f206665657320746f206469737472696275746560581b6044820152606490fd5b505f546001600160a01b03163314610b7b565b346103d15760403660031901126103d157610c5761149c565b6001600160a01b03165f9081526003602052604090208054602435908110156103d157610797916114b2565b346103d1575f3660031901126103d1576020600f54604051908152f35b346103d15760403660031901126103d157610cb961149c565b7faced61c86c507aa3c2be43553434c6ff191ea7cbbd812491a6ae59abc99d29dc60406024359260018060a01b03811693845f526003602052610d00835f2054821061162a565b845f526003602052610d1b60ff60046106f084875f206114b2565b845f526003602052610d3a81610d3381865f206114b2565b5093611849565b9160018101610d4a8482546115e0565b9055600242910155610d5e826008546115e0565b60085582519182526020820152a2005b346103d15760203660031901126103d1576001600160a01b03610d8f61149c565b165f526010602052602060405f2054604051908152f35b346103d1575f3660031901126103d1576020600954604051908152f35b346103d1575f3660031901126103d1575f546040516001600160a01b039091168152602090f35b346103d1575f3660031901126103d157610e0261172e565b005b346103d15760203660031901126103d1576001600160a01b03610e2561149c565b165f526005602052602060405f2054604051908152f35b346103d1575f3660031901126103d157610e546118ae565b5f80546001600160a01b0319811682556001600160a01b03167f8be0079c531659141344cd1fd0a4f28419497f9722a3daafe3b4186f6b6457e08280a3005b346103d1575f3660031901126103d15760206040516103208152f35b346103d15760203660031901126103d157600435610ecb6118ae565b6101f48111610f0d5760407f1d830358c94d390366ad7162b72e731448e195f3576e63b1f57f5e43c719c5aa91600e549080600e5582519182526020820152a1005b60405162461bcd60e51b815260206004820152601160248201527008ccaca40e4c2e8ca40e8dede40d0d2ced607b1b6044820152606490fd5b346103d1575f3660031901126103d157602060ff600254166040519015158152f35b346103d1575f3660031901126103d1576020600e54604051908152f35b346103d15760203660031901126103d1576001600160a01b03610fa661149c565b165f52600c602052602060ff60405f2054166040519015158152f35b346103d1575f3660031901126103d157610e026116ab565b346103d15760403660031901126103d157610ff361149c565b60243590811515908183036103d15761100a6118ae565b6001600160a01b0316918215611067577fad857fa38c9319cb80848f1ef2f924383b90297eb5d71755738ff037d100faa19161105e602092855f52600c845260405f209060ff801983541691151516179055565b604051908152a2005b60405162461bcd60e51b8152602060048201526016602482015275496e76616c69642063616c6c6572206164647265737360501b6044820152606490fd5b346103d1575f3660031901126103d157602060405160328152f35b346103d1575f3660031901126103d1576020600d54604051908152f35b346103d15760203660031901126103d1576004356110f96118ae565b603281101580611184575b1561114a5760407f4959ad9023bf5b492922b51fbc7c0b5e5ec66aa39700e0da6d8af9b2d430898e91611135611afa565b600954908060095582519182526020820152a1005b60405162461bcd60e51b8152602060048201526012602482015271496e76616c6964207969656c64207261746560701b6044820152606490fd5b50610320811115611104565b346103d15760603660031901126103d1576111a961149c565b6044356001600160a01b03811691602435908383036103d15761123e61070194335f52600c60205260ff60405f2054168015611243575b6111e9906115ed565b6111f161192a565b6111f96118d4565b6001600160a01b0383165f8181526003602052604090205461121c90861061162a565b5f52600360205261123760ff60046106f08760405f206114b2565b151561150e565b61196e565b505f546001600160a01b031633146111e0565b346103d1575f3660031901126103d157602060405166038d7ea4c680008152f35b346103d1575f3660031901126103d1576020604051620151808152f35b346103d15760203660031901126103d1576112ad61149c565b6001600160a01b0381165f908152600360205260408120805491928392915b8285106112de57602084604051908152f35b909192611308600191611302836112f589876114b2565b5001546113028988611849565b906115e0565b9401939291906112cc565b346103d15760203660031901126103d1576001600160a01b0361133461149c565b165f526003602052602060405f2054604051908152f35b346103d15760403660031901126103d15761136461149c565b602435906113706118ae565b6113786118d4565b6001600160a01b03169061138d82151561150e565b600d54918282116113fe575f80808481946113a8828961154e565b600d555af16113b561158f565b50156113c15760018055005b60405162461bcd60e51b8152602060048201526015602482015274119959481dda5d1a191c985dd85b0819985a5b1959605a1b6044820152606490fd5b60405162461bcd60e51b8152602060048201526011602482015270496e73756666696369656e74206665657360781b6044820152606490fd5b346103d1575f3660031901126103d1576080600754600854600954600b5491604051938452602084015260408301526060820152f35b346103d15760403660031901126103d157602061149461148b61149c565b602435906114df565b604051908152f35b600435906001600160a01b03821682036103d157565b80548210156114cb575f52600560205f20910201905f90565b634e487b7160e01b5f52603260045260245ffd5b9060018060a01b0382165f52600360205260405f20548110156115085761150591611849565b90565b50505f90565b1561151557565b60405162461bcd60e51b8152602060048201526011602482015270125b9d985b1a59081c9958da5c1a595b9d607a1b6044820152606490fd5b9190820391821161038957565b6040519060a0820182811067ffffffffffffffff82111761157b57604052565b634e487b7160e01b5f52604160045260245ffd5b3d156115db573d9067ffffffffffffffff821161157b5760405191601f8101601f19908116603f0116830167ffffffffffffffff81118482101761157b5760405282523d5f602084013e565b606090565b9190820180921161038957565b156115f457565b60405162461bcd60e51b815260206004820152600e60248201526d139bdd08185d5d1a1bdc9a5e995960921b6044820152606490fd5b1561163157565b60405162461bcd60e51b8152602060048201526013602482015272092dcecc2d8d2c840e6e8c2d6ca40d2dcc8caf606b1b6044820152606490fd5b1561167357565b60405162461bcd60e51b815260206004820152601060248201526f5374616b65206e6f742061637469766560801b6044820152606490fd5b6116b36118ae565b60025460ff8116156116f25760ff19166002557f5db9ee0a495bf2e6ff9c91a7834c1ba4fdd244a5e8aa4e537bd38aeae4b073aa6020604051338152a1565b60405162461bcd60e51b815260206004820152601460248201527314185d5cd8589b194e881b9bdd081c185d5cd95960621b6044820152606490fd5b6117366118ae565b61173e61192a565b600160ff1960025416176002557f62e78cea01bee320cd4e420270b5ea74000d11b0c9f74754ebdbfc544b05a2586020604051338152a1565b1561177e57565b60405162461bcd60e51b81526020600482015260146024820152735374616b6520616d6f756e7420746f6f206c6f7760601b6044820152606490fd5b80546801000000000000000081101561157b576117dc916001820181556114b2565b611823576004608083611821945184556020810151600185015560408101516002850155606081015160038501550151151591019060ff801983541691151516179055565b565b634e487b7160e01b5f525f60045260245ffd5b8181029291811591840414171561038957565b6001600160a01b03165f90815260036020526040902061186991906114b2565b5060ff600482015416156118a9576118a58161271061189f61189460026301e133809601544261154e565b925460095490611836565b04611836565b0490565b505f90565b5f546001600160a01b031633036118c157565b63118cdaa760e01b5f523360045260245ffd5b6002600154146118e5576002600155565b60405162461bcd60e51b815260206004820152601f60248201527f5265656e7472616e637947756172643a207265656e7472616e742063616c6c006044820152606490fd5b60ff6002541661193657565b60405162461bcd60e51b815260206004820152601060248201526f14185d5cd8589b194e881c185d5cd95960821b6044820152606490fd5b9060018060a01b03821692835f526003602052611999826119928160405f206114b2565b5094611849565b906119a9600185019283546115e0565b80835584546119d36127106119cb6119c185856115e0565b94600e5490611836565b04809361154e565b6003870154916004880160ff198154169055885f5260056020526119fc60405f2091825461154e565b9055611a0b875460075461154e565b600755600b545f19810191908211610389575f94859485948594600b5580611ad9575b5080611ac4575b506001600160a01b03165af1611a4961158f565b5015611a8d57915491546040805193845260208401919091528201527fc8b5ab210e9d3b6a82b80aa35e2cc486dc439d18cbfef6006c423a516768f70b90606090a2565b60405162461bcd60e51b815260206004820152600f60248201526e151c985b9cd9995c8819985a5b1959608a1b6044820152606490fd5b611ad090600d546115e0565b600d555f611a35565b8a549085526006602052611af26040862091825461154e565b90555f611a2e565b42600a5560075468056bc75e2d63100000811115611b32575060095460648111611b215750565b600919810190811161038957600955565b678ac7230489e8000011611b4257565b6009546102ee8110611b515750565b600a81018091116103895760095556fea264697066735822122047daefa38587b9a4b79cd0567af56a6dbad846c56e47c5764f2c112fe4fd126864736f6c634300081e0033",
					"opcodes": "PUSH1 0x80 DUP1 PUSH1 0x40 MSTORE CALLVALUE PUSH1 0x95 JUMPI CALLER ISZERO PUSH1 0x82 JUMPI PUSH0 DUP1 SLOAD CALLER PUSH1 0x1 PUSH1 0x1 PUSH1 0xA0 SHL SUB NOT DUP3 AND DUP2 OR DUP4 SSTORE SWAP2 PUSH1 0x1 PUSH1 0x1 PUSH1 0xA0 SHL SUB SWAP1 SWAP2 AND SWAP1 PUSH32 0x8BE0079C531659141344CD1FD0A4F28419497F9722A3DAAFE3B4186F6B6457E0 SWAP1 DUP1 LOG3 PUSH1 0x1 DUP1 SSTORE PUSH1 0xFF NOT PUSH1 0x2 SLOAD AND PUSH1 0x2 SSTORE PUSH1 0xC8 PUSH1 0xE SSTORE PUSH3 0x93A80 PUSH1 0xF SSTORE PUSH2 0x190 PUSH1 0x9 SSTORE TIMESTAMP PUSH1 0xA SSTORE PUSH2 0x1B97 SWAP1 DUP2 PUSH2 0x9A DUP3 CODECOPY RETURN JUMPDEST PUSH4 0x1E4FBDF7 PUSH1 0xE0 SHL PUSH0 MSTORE PUSH0 PUSH1 0x4 MSTORE PUSH1 0x24 PUSH0 REVERT JUMPDEST PUSH0 DUP1 REVERT INVALID PUSH1 0x80 PUSH1 0x40 MSTORE PUSH1 0x4 CALLDATASIZE LT ISZERO PUSH2 0x90 JUMPI JUMPDEST CALLDATASIZE ISZERO PUSH2 0x4E JUMPI PUSH1 0x40 MLOAD PUSH3 0x461BCD PUSH1 0xE5 SHL DUP2 MSTORE PUSH1 0x20 PUSH1 0x4 DUP3 ADD MSTORE PUSH1 0x12 PUSH1 0x24 DUP3 ADD MSTORE PUSH18 0x119D5B98DD1A5BDB881B9BDD08199BDD5B99 PUSH1 0x72 SHL PUSH1 0x44 DUP3 ADD MSTORE PUSH1 0x64 SWAP1 REVERT JUMPDEST CALLVALUE PUSH2 0x55 JUMPI STOP JUMPDEST PUSH2 0x61 CALLVALUE PUSH1 0xD SLOAD PUSH2 0x15E0 JUMP JUMPDEST PUSH1 0xD SSTORE PUSH32 0xFD89F3716628D726D771436AEF1A2B241477089ECDEA8429F2DCDF2F2106C4A4 PUSH1 0x20 PUSH1 0x40 MLOAD CALLVALUE DUP2 MSTORE LOG1 STOP JUMPDEST PUSH0 CALLDATALOAD PUSH1 0xE0 SHR DUP1 PUSH4 0xB48BABA EQ PUSH2 0x146D JUMPI DUP1 PUSH4 0x148A1ED7 EQ PUSH2 0x66C JUMPI DUP1 PUSH4 0x1683E9CE EQ PUSH2 0x1437 JUMPI DUP1 PUSH4 0x16A54675 EQ PUSH2 0x10C0 JUMPI DUP1 PUSH4 0x1A7A73C2 EQ PUSH2 0x134B JUMPI DUP1 PUSH4 0x1B545A17 EQ PUSH2 0x1313 JUMPI DUP1 PUSH4 0x1BC6A778 EQ PUSH2 0x1294 JUMPI DUP1 PUSH4 0x1E99921B EQ PUSH2 0x1277 JUMPI DUP1 PUSH4 0x27ED7188 EQ PUSH2 0x1256 JUMPI DUP1 PUSH4 0x2D4C5ABE EQ PUSH2 0x1190 JUMPI DUP1 PUSH4 0x2F0F8A7A EQ PUSH2 0x10DD JUMPI DUP1 PUSH4 0x30063E3B EQ PUSH2 0x10C0 JUMPI DUP1 PUSH4 0x304A900D EQ PUSH2 0x10A5 JUMPI DUP1 PUSH4 0x3F4BA83A EQ PUSH2 0xFC2 JUMPI DUP1 PUSH4 0x454BBD29 EQ PUSH2 0xFDA JUMPI DUP1 PUSH4 0x4A4E3BD5 EQ PUSH2 0xFC2 JUMPI DUP1 PUSH4 0x51858E27 EQ PUSH2 0xDEA JUMPI DUP1 PUSH4 0x536FFF6C EQ PUSH2 0xF85 JUMPI DUP1 PUSH4 0x58F85880 EQ PUSH2 0xF68 JUMPI DUP1 PUSH4 0x5C975ABB EQ PUSH2 0xF46 JUMPI DUP1 PUSH4 0x6340D55C EQ PUSH2 0xEAF JUMPI DUP1 PUSH4 0x6987CA1D EQ PUSH2 0xE93 JUMPI DUP1 PUSH4 0x715018A6 EQ PUSH2 0xE3C JUMPI DUP1 PUSH4 0x719DE1EF EQ PUSH2 0xE04 JUMPI DUP1 PUSH4 0x8456CB59 EQ PUSH2 0xDEA JUMPI DUP1 PUSH4 0x8DA5CB5B EQ PUSH2 0xDC3 JUMPI DUP1 PUSH4 0x962CA496 EQ PUSH2 0xDA6 JUMPI DUP1 PUSH4 0x96CA8D27 EQ PUSH2 0xD6E JUMPI DUP1 PUSH4 0xA83481E1 EQ PUSH2 0xCA0 JUMPI DUP1 PUSH4 0xB4F74031 EQ PUSH2 0xC83 JUMPI DUP1 PUSH4 0xB5D5B5FA EQ PUSH2 0xC3E JUMPI DUP1 PUSH4 0xBB57AD20 EQ PUSH2 0xB54 JUMPI DUP1 PUSH4 0xC5B4F407 EQ PUSH2 0x98A JUMPI DUP1 PUSH4 0xC69ECF0B EQ PUSH2 0x900 JUMPI DUP1 PUSH4 0xCAA7C8AA EQ PUSH2 0x8B4 JUMPI DUP1 PUSH4 0xCEC695FA EQ PUSH2 0x7DB JUMPI DUP1 PUSH4 0xCFFB911E EQ PUSH2 0x762 JUMPI DUP1 PUSH4 0xE1F1C4A7 EQ PUSH2 0x746 JUMPI DUP1 PUSH4 0xE65EAFF7 EQ PUSH2 0x707 JUMPI DUP1 PUSH4 0xE8421B5E EQ PUSH2 0x696 JUMPI DUP1 PUSH4 0xEC669457 EQ PUSH2 0x66C JUMPI DUP1 PUSH4 0xF2FDE38B EQ PUSH2 0x5E7 JUMPI DUP1 PUSH4 0xF4993BBD EQ PUSH2 0x3D5 JUMPI PUSH4 0xF74B51B3 SUB PUSH2 0xE JUMPI PUSH1 0x20 CALLDATASIZE PUSH1 0x3 NOT ADD SLT PUSH2 0x3D1 JUMPI PUSH1 0x4 CALLDATALOAD PUSH2 0x28F PUSH2 0x192A JUMP JUMPDEST PUSH2 0x297 PUSH2 0x18D4 JUMP JUMPDEST PUSH2 0x2AA PUSH7 0x38D7EA4C68000 CALLVALUE LT ISZERO PUSH2 0x1777 JUMP JUMPDEST PUSH2 0x2B2 PUSH2 0x1AFA JUMP JUMPDEST PUSH2 0x2BA PUSH2 0x155B JUMP JUMPDEST CALLVALUE DUP2 MSTORE PUSH0 PUSH1 0x20 DUP3 ADD MSTORE TIMESTAMP PUSH1 0x40 DUP3 ADD MSTORE DUP2 PUSH1 0x60 DUP3 ADD MSTORE PUSH1 0x1 PUSH1 0x80 DUP3 ADD MSTORE CALLER PUSH0 MSTORE PUSH1 0x3 PUSH1 0x20 MSTORE PUSH2 0x2EB DUP2 PUSH1 0x40 PUSH0 KECCAK256 PUSH2 0x17BA JUMP JUMPDEST CALLER PUSH0 MSTORE PUSH1 0x3 PUSH1 0x20 MSTORE PUSH1 0x40 PUSH0 KECCAK256 SLOAD SWAP1 PUSH0 NOT DUP3 ADD SWAP2 DUP3 GT PUSH2 0x389 JUMPI DUP3 PUSH2 0x39D JUMPI JUMPDEST POP CALLER PUSH0 MSTORE PUSH1 0x5 PUSH1 0x20 MSTORE PUSH1 0x40 PUSH0 KECCAK256 PUSH2 0x322 CALLVALUE DUP3 SLOAD PUSH2 0x15E0 JUMP JUMPDEST SWAP1 SSTORE PUSH2 0x330 CALLVALUE PUSH1 0x7 SLOAD PUSH2 0x15E0 JUMP JUMPDEST PUSH1 0x7 SSTORE PUSH1 0xB SLOAD PUSH1 0x1 DUP2 ADD DUP1 SWAP2 GT PUSH2 0x389 JUMPI PUSH1 0xB SSTORE PUSH1 0x40 DUP1 MLOAD CALLVALUE DUP2 MSTORE PUSH1 0x20 DUP2 ADD SWAP4 SWAP1 SWAP4 MSTORE DUP3 ADD MSTORE CALLER SWAP1 PUSH32 0x55B223C72892936A872C1F417E7E143A0592419FE999642DBB4BCCB55B8C6E83 SWAP1 DUP1 PUSH1 0x60 DUP2 ADD JUMPDEST SUB SWAP1 LOG2 PUSH1 0x1 DUP1 SSTORE STOP JUMPDEST PUSH4 0x4E487B71 PUSH1 0xE0 SHL PUSH0 MSTORE PUSH1 0x11 PUSH1 0x4 MSTORE PUSH1 0x24 PUSH0 REVERT JUMPDEST PUSH2 0x3B2 SWAP1 DUP4 PUSH0 MSTORE PUSH1 0x4 PUSH1 0x20 MSTORE PUSH1 0x40 PUSH0 KECCAK256 PUSH2 0x17BA JUMP JUMPDEST DUP2 PUSH0 MSTORE PUSH1 0x6 PUSH1 0x20 MSTORE PUSH1 0x40 PUSH0 KECCAK256 PUSH2 0x3C9 CALLVALUE DUP3 SLOAD PUSH2 0x15E0 JUMP JUMPDEST SWAP1 SSTORE PUSH0 PUSH2 0x30A JUMP JUMPDEST PUSH0 DUP1 REVERT JUMPDEST CALLVALUE PUSH2 0x3D1 JUMPI PUSH0 CALLDATASIZE PUSH1 0x3 NOT ADD SLT PUSH2 0x3D1 JUMPI PUSH2 0x3ED PUSH2 0x18D4 JUMP JUMPDEST CALLER PUSH0 MSTORE PUSH1 0x10 PUSH1 0x20 MSTORE PUSH1 0x40 PUSH0 KECCAK256 SLOAD ISZERO ISZERO DUP1 PUSH2 0x5C5 JUMPI JUMPDEST ISZERO PUSH2 0x580 JUMPI CALLER PUSH0 MSTORE PUSH1 0x5 PUSH1 0x20 MSTORE PUSH1 0x40 PUSH0 KECCAK256 SLOAD DUP1 ISZERO PUSH2 0x544 JUMPI CALLER PUSH0 MSTORE PUSH1 0x3 PUSH1 0x20 MSTORE PUSH1 0x40 PUSH0 KECCAK256 PUSH0 JUMPDEST DUP2 SLOAD DUP2 LT ISZERO PUSH2 0x49A JUMPI PUSH1 0xFF PUSH1 0x4 PUSH2 0x43F DUP4 DUP6 PUSH2 0x14B2 JUMP JUMPDEST POP ADD SLOAD AND PUSH2 0x450 JUMPI JUMPDEST PUSH1 0x1 ADD PUSH2 0x428 JUMP JUMPDEST PUSH1 0x4 PUSH2 0x45C DUP3 DUP5 PUSH2 0x14B2 JUMP JUMPDEST POP ADD DUP1 SLOAD PUSH1 0xFF NOT AND SWAP1 SSTORE PUSH2 0x47D PUSH2 0x473 DUP3 DUP5 PUSH2 0x14B2 JUMP JUMPDEST POP SLOAD PUSH1 0x7 SLOAD PUSH2 0x154E JUMP JUMPDEST PUSH1 0x7 SSTORE PUSH1 0xB SLOAD PUSH0 NOT DUP2 ADD SWAP2 SWAP1 DUP3 GT PUSH2 0x389 JUMPI PUSH1 0xB SWAP2 SWAP1 SWAP2 SSTORE PUSH2 0x448 JUMP JUMPDEST DUP3 CALLER PUSH0 MSTORE PUSH1 0x5 PUSH1 0x20 MSTORE PUSH0 PUSH1 0x40 DUP2 KECCAK256 SSTORE CALLER PUSH0 MSTORE PUSH1 0x10 PUSH1 0x20 MSTORE PUSH0 PUSH1 0x40 DUP2 KECCAK256 SSTORE PUSH0 DUP1 DUP1 DUP1 DUP5 CALLER GAS CALL PUSH2 0x4C7 PUSH2 0x158F JUMP JUMPDEST POP ISZERO PUSH2 0x4FF JUMPI PUSH1 0x40 MLOAD SWAP1 DUP2 MSTORE PUSH32 0xAF6E7D750E5A786A0B4D0E00806A5F778D09769D9C8C0EE377CC6DF72AF07115 PUSH1 0x20 CALLER SWAP3 LOG2 PUSH1 0x1 DUP1 SSTORE STOP JUMPDEST PUSH1 0x40 MLOAD PUSH3 0x461BCD PUSH1 0xE5 SHL DUP2 MSTORE PUSH1 0x20 PUSH1 0x4 DUP3 ADD MSTORE PUSH1 0x1B PUSH1 0x24 DUP3 ADD MSTORE PUSH32 0x456D657267656E6379207769746864726177616C206661696C65640000000000 PUSH1 0x44 DUP3 ADD MSTORE PUSH1 0x64 SWAP1 REVERT JUMPDEST PUSH1 0x40 MLOAD PUSH3 0x461BCD PUSH1 0xE5 SHL DUP2 MSTORE PUSH1 0x20 PUSH1 0x4 DUP3 ADD MSTORE PUSH1 0x14 PUSH1 0x24 DUP3 ADD MSTORE PUSH20 0x4E6F2066756E647320746F207769746864726177 PUSH1 0x60 SHL PUSH1 0x44 DUP3 ADD MSTORE PUSH1 0x64 SWAP1 REVERT JUMPDEST PUSH1 0x40 MLOAD PUSH3 0x461BCD PUSH1 0xE5 SHL DUP2 MSTORE PUSH1 0x20 PUSH1 0x4 DUP3 ADD MSTORE PUSH1 0x17 PUSH1 0x24 DUP3 ADD MSTORE PUSH32 0x456D657267656E63792064656C6179206E6F74206D6574000000000000000000 PUSH1 0x44 DUP3 ADD MSTORE PUSH1 0x64 SWAP1 REVERT JUMPDEST POP CALLER PUSH0 MSTORE PUSH1 0x10 PUSH1 0x20 MSTORE PUSH2 0x5DF PUSH1 0x40 PUSH0 KECCAK256 SLOAD PUSH1 0xF SLOAD SWAP1 PUSH2 0x15E0 JUMP JUMPDEST TIMESTAMP LT ISZERO PUSH2 0x402 JUMP JUMPDEST CALLVALUE PUSH2 0x3D1 JUMPI PUSH1 0x20 CALLDATASIZE PUSH1 0x3 NOT ADD SLT PUSH2 0x3D1 JUMPI PUSH2 0x600 PUSH2 0x149C JUMP JUMPDEST PUSH2 0x608 PUSH2 0x18AE JUMP JUMPDEST PUSH1 0x1 PUSH1 0x1 PUSH1 0xA0 SHL SUB AND DUP1 ISZERO PUSH2 0x659 JUMPI PUSH0 DUP1 SLOAD PUSH1 0x1 PUSH1 0x1 PUSH1 0xA0 SHL SUB NOT DUP2 AND DUP4 OR DUP3 SSTORE PUSH1 0x1 PUSH1 0x1 PUSH1 0xA0 SHL SUB AND SWAP1 PUSH32 0x8BE0079C531659141344CD1FD0A4F28419497F9722A3DAAFE3B4186F6B6457E0 SWAP1 DUP1 LOG3 STOP JUMPDEST PUSH4 0x1E4FBDF7 PUSH1 0xE0 SHL PUSH0 MSTORE PUSH0 PUSH1 0x4 MSTORE PUSH1 0x24 PUSH0 REVERT JUMPDEST CALLVALUE PUSH2 0x3D1 JUMPI PUSH1 0x20 CALLDATASIZE PUSH1 0x3 NOT ADD SLT PUSH2 0x3D1 JUMPI PUSH1 0x4 CALLDATALOAD PUSH0 MSTORE PUSH1 0x6 PUSH1 0x20 MSTORE PUSH1 0x20 PUSH1 0x40 PUSH0 KECCAK256 SLOAD PUSH1 0x40 MLOAD SWAP1 DUP2 MSTORE RETURN JUMPDEST CALLVALUE PUSH2 0x3D1 JUMPI PUSH1 0x20 CALLDATASIZE PUSH1 0x3 NOT ADD SLT PUSH2 0x3D1 JUMPI PUSH2 0x701 PUSH1 0x4 CALLDATALOAD PUSH2 0x6B5 PUSH2 0x192A JUMP JUMPDEST PUSH2 0x6BD PUSH2 0x18D4 JUMP JUMPDEST CALLER PUSH0 MSTORE PUSH1 0x3 PUSH1 0x20 MSTORE PUSH2 0x6D4 PUSH1 0x40 PUSH0 KECCAK256 SLOAD DUP3 LT PUSH2 0x162A JUMP JUMPDEST CALLER PUSH0 MSTORE PUSH1 0x3 PUSH1 0x20 MSTORE PUSH2 0x6F9 PUSH1 0xFF PUSH1 0x4 PUSH2 0x6F0 DUP5 PUSH1 0x40 PUSH0 KECCAK256 PUSH2 0x14B2 JUMP JUMPDEST POP ADD SLOAD AND PUSH2 0x166C JUMP JUMPDEST CALLER SWAP1 CALLER PUSH2 0x196E JUMP JUMPDEST PUSH1 0x1 DUP1 SSTORE STOP JUMPDEST CALLVALUE PUSH2 0x3D1 JUMPI PUSH0 CALLDATASIZE PUSH1 0x3 NOT ADD SLT PUSH2 0x3D1 JUMPI PUSH1 0xA0 PUSH1 0x7 SLOAD PUSH1 0x8 SLOAD PUSH1 0x9 SLOAD PUSH1 0xA SLOAD SWAP1 PUSH1 0xB SLOAD SWAP3 PUSH1 0x40 MLOAD SWAP5 DUP6 MSTORE PUSH1 0x20 DUP6 ADD MSTORE PUSH1 0x40 DUP5 ADD MSTORE PUSH1 0x60 DUP4 ADD MSTORE PUSH1 0x80 DUP3 ADD MSTORE RETURN JUMPDEST CALLVALUE PUSH2 0x3D1 JUMPI PUSH0 CALLDATASIZE PUSH1 0x3 NOT ADD SLT PUSH2 0x3D1 JUMPI PUSH1 0x20 PUSH1 0x40 MLOAD PUSH2 0x2710 DUP2 MSTORE RETURN JUMPDEST CALLVALUE PUSH2 0x3D1 JUMPI PUSH1 0x40 CALLDATASIZE PUSH1 0x3 NOT ADD SLT PUSH2 0x3D1 JUMPI PUSH1 0x24 CALLDATALOAD PUSH1 0x4 CALLDATALOAD PUSH0 MSTORE PUSH1 0x4 PUSH1 0x20 MSTORE PUSH1 0x40 PUSH0 KECCAK256 SWAP1 DUP2 SLOAD DUP2 LT ISZERO PUSH2 0x3D1 JUMPI PUSH2 0x797 SWAP2 PUSH2 0x14B2 JUMP JUMPDEST POP DUP1 SLOAD PUSH1 0x1 DUP3 ADD SLOAD PUSH1 0x2 DUP4 ADD SLOAD PUSH1 0x3 DUP5 ADD SLOAD PUSH1 0x4 SWAP1 SWAP5 ADD SLOAD PUSH1 0x40 DUP1 MLOAD SWAP5 DUP6 MSTORE PUSH1 0x20 DUP6 ADD SWAP4 SWAP1 SWAP4 MSTORE SWAP2 DUP4 ADD MSTORE PUSH1 0x60 DUP3 ADD SWAP3 SWAP1 SWAP3 MSTORE PUSH1 0xFF SWAP1 SWAP2 AND ISZERO ISZERO PUSH1 0x80 DUP3 ADD MSTORE PUSH1 0xA0 SWAP1 RETURN JUMPDEST CALLVALUE PUSH2 0x3D1 JUMPI PUSH1 0x40 CALLDATASIZE PUSH1 0x3 NOT ADD SLT PUSH2 0x3D1 JUMPI PUSH1 0xA0 PUSH2 0x84D PUSH2 0x7F9 PUSH2 0x149C JUMP JUMPDEST PUSH1 0x24 CALLDATALOAD SWAP1 PUSH0 PUSH1 0x80 PUSH2 0x808 PUSH2 0x155B JUMP JUMPDEST DUP3 DUP2 MSTORE DUP3 PUSH1 0x20 DUP3 ADD MSTORE DUP3 PUSH1 0x40 DUP3 ADD MSTORE DUP3 PUSH1 0x60 DUP3 ADD MSTORE ADD MSTORE PUSH1 0x1 DUP1 DUP6 SHL SUB AND DUP1 PUSH0 MSTORE PUSH1 0x3 PUSH1 0x20 MSTORE PUSH2 0x83D PUSH1 0x40 PUSH0 KECCAK256 SLOAD DUP4 LT PUSH2 0x162A JUMP JUMPDEST PUSH0 MSTORE PUSH1 0x3 PUSH1 0x20 MSTORE PUSH1 0x40 PUSH0 KECCAK256 PUSH2 0x14B2 JUMP JUMPDEST POP PUSH2 0x856 PUSH2 0x155B JUMP JUMPDEST DUP2 SLOAD SWAP2 DUP3 DUP3 MSTORE PUSH1 0x1 DUP2 ADD SLOAD PUSH1 0x20 DUP4 ADD SWAP1 DUP2 MSTORE PUSH1 0x2 DUP3 ADD SLOAD SWAP1 PUSH1 0x40 DUP5 ADD SWAP2 DUP3 MSTORE PUSH1 0x80 PUSH1 0xFF PUSH1 0x4 PUSH1 0x3 DUP7 ADD SLOAD SWAP6 PUSH1 0x60 DUP9 ADD SWAP7 DUP8 MSTORE ADD SLOAD AND SWAP5 ADD SWAP4 ISZERO ISZERO DUP5 MSTORE PUSH1 0x40 MLOAD SWAP5 DUP6 MSTORE MLOAD PUSH1 0x20 DUP6 ADD MSTORE MLOAD PUSH1 0x40 DUP5 ADD MSTORE MLOAD PUSH1 0x60 DUP4 ADD MSTORE MLOAD ISZERO ISZERO PUSH1 0x80 DUP3 ADD MSTORE RETURN JUMPDEST CALLVALUE PUSH2 0x3D1 JUMPI PUSH0 CALLDATASIZE PUSH1 0x3 NOT ADD SLT PUSH2 0x3D1 JUMPI CALLER PUSH0 MSTORE PUSH1 0x10 PUSH1 0x20 MSTORE TIMESTAMP PUSH1 0x40 PUSH0 KECCAK256 SSTORE PUSH1 0x40 MLOAD TIMESTAMP DUP2 MSTORE PUSH32 0xDCBF58B4B48819C95C8100C354FFDC3633D192E7C3EEBFB025492DE8C9226B11 PUSH1 0x20 CALLER SWAP3 LOG2 STOP JUMPDEST PUSH0 CALLDATASIZE PUSH1 0x3 NOT ADD SLT PUSH2 0x3D1 JUMPI CALLER PUSH0 MSTORE PUSH1 0xC PUSH1 0x20 MSTORE PUSH1 0xFF PUSH1 0x40 PUSH0 KECCAK256 SLOAD AND DUP1 ISZERO PUSH2 0x977 JUMPI JUMPDEST PUSH2 0x92B SWAP1 PUSH2 0x15ED JUMP JUMPDEST CALLVALUE ISZERO PUSH2 0x93D JUMPI PUSH2 0x61 CALLVALUE PUSH1 0xD SLOAD PUSH2 0x15E0 JUMP JUMPDEST PUSH1 0x40 MLOAD PUSH3 0x461BCD PUSH1 0xE5 SHL DUP2 MSTORE PUSH1 0x20 PUSH1 0x4 DUP3 ADD MSTORE PUSH1 0x12 PUSH1 0x24 DUP3 ADD MSTORE PUSH18 0x139BC81999595CC81D1BC818DBDB1B1958DD PUSH1 0x72 SHL PUSH1 0x44 DUP3 ADD MSTORE PUSH1 0x64 SWAP1 REVERT JUMPDEST POP PUSH0 SLOAD PUSH1 0x1 PUSH1 0x1 PUSH1 0xA0 SHL SUB AND CALLER EQ PUSH2 0x922 JUMP JUMPDEST PUSH1 0x40 CALLDATASIZE PUSH1 0x3 NOT ADD SLT PUSH2 0x3D1 JUMPI PUSH2 0x99E PUSH2 0x149C JUMP JUMPDEST PUSH1 0x24 CALLDATALOAD SWAP1 CALLER PUSH0 MSTORE PUSH1 0xC PUSH1 0x20 MSTORE PUSH1 0xFF PUSH1 0x40 PUSH0 KECCAK256 SLOAD AND DUP1 ISZERO PUSH2 0xB41 JUMPI JUMPDEST PUSH2 0x9C2 SWAP1 PUSH2 0x15ED JUMP JUMPDEST PUSH2 0x9CA PUSH2 0x192A JUMP JUMPDEST PUSH2 0x9D2 PUSH2 0x18D4 JUMP JUMPDEST PUSH1 0x1 PUSH1 0x1 PUSH1 0xA0 SHL SUB AND SWAP1 DUP2 ISZERO PUSH2 0xB05 JUMPI PUSH2 0x9F5 PUSH7 0x38D7EA4C68000 CALLVALUE LT ISZERO PUSH2 0x1777 JUMP JUMPDEST PUSH2 0x9FD PUSH2 0x1AFA JUMP JUMPDEST PUSH2 0xA05 PUSH2 0x155B JUMP JUMPDEST CALLVALUE DUP2 MSTORE PUSH0 PUSH1 0x20 DUP3 ADD MSTORE TIMESTAMP PUSH1 0x40 DUP3 ADD MSTORE DUP2 PUSH1 0x60 DUP3 ADD MSTORE PUSH1 0x1 PUSH1 0x80 DUP3 ADD MSTORE DUP3 PUSH0 MSTORE PUSH1 0x3 PUSH1 0x20 MSTORE PUSH2 0xA36 DUP2 PUSH1 0x40 PUSH0 KECCAK256 PUSH2 0x17BA JUMP JUMPDEST DUP3 PUSH0 MSTORE PUSH1 0x3 PUSH1 0x20 MSTORE PUSH1 0x40 PUSH0 KECCAK256 SLOAD SWAP1 PUSH0 NOT DUP3 ADD SWAP2 DUP3 GT PUSH2 0x389 JUMPI DUP3 PUSH2 0xAD1 JUMPI JUMPDEST POP DUP3 PUSH0 MSTORE PUSH1 0x5 PUSH1 0x20 MSTORE PUSH1 0x40 PUSH0 KECCAK256 PUSH2 0xA6D CALLVALUE DUP3 SLOAD PUSH2 0x15E0 JUMP JUMPDEST SWAP1 SSTORE PUSH2 0xA7B CALLVALUE PUSH1 0x7 SLOAD PUSH2 0x15E0 JUMP JUMPDEST PUSH1 0x7 SSTORE PUSH1 0xB SLOAD SWAP2 PUSH1 0x1 DUP4 ADD DUP1 SWAP4 GT PUSH2 0x389 JUMPI PUSH1 0xB SWAP3 SWAP1 SWAP3 SSTORE PUSH1 0x40 DUP1 MLOAD CALLVALUE DUP2 MSTORE PUSH1 0x20 DUP2 ADD SWAP4 SWAP1 SWAP4 MSTORE DUP3 ADD MSTORE PUSH32 0x55B223C72892936A872C1F417E7E143A0592419FE999642DBB4BCCB55B8C6E83 SWAP1 DUP1 PUSH1 0x60 DUP2 ADD PUSH2 0x380 JUMP JUMPDEST PUSH2 0xAE6 SWAP1 DUP4 PUSH0 MSTORE PUSH1 0x4 PUSH1 0x20 MSTORE PUSH1 0x40 PUSH0 KECCAK256 PUSH2 0x17BA JUMP JUMPDEST DUP2 PUSH0 MSTORE PUSH1 0x6 PUSH1 0x20 MSTORE PUSH1 0x40 PUSH0 KECCAK256 PUSH2 0xAFD CALLVALUE DUP3 SLOAD PUSH2 0x15E0 JUMP JUMPDEST SWAP1 SSTORE DUP4 PUSH2 0xA55 JUMP JUMPDEST PUSH1 0x40 MLOAD PUSH3 0x461BCD PUSH1 0xE5 SHL DUP2 MSTORE PUSH1 0x20 PUSH1 0x4 DUP3 ADD MSTORE PUSH1 0x14 PUSH1 0x24 DUP3 ADD MSTORE PUSH20 0x496E76616C696420757365722061646472657373 PUSH1 0x60 SHL PUSH1 0x44 DUP3 ADD MSTORE PUSH1 0x64 SWAP1 REVERT JUMPDEST POP PUSH0 SLOAD PUSH1 0x1 PUSH1 0x1 PUSH1 0xA0 SHL SUB AND CALLER EQ PUSH2 0x9B9 JUMP JUMPDEST CALLVALUE PUSH2 0x3D1 JUMPI PUSH0 CALLDATASIZE PUSH1 0x3 NOT ADD SLT PUSH2 0x3D1 JUMPI CALLER PUSH0 MSTORE PUSH1 0xC PUSH1 0x20 MSTORE PUSH1 0xFF PUSH1 0x40 PUSH0 KECCAK256 SLOAD AND DUP1 ISZERO PUSH2 0xC2B JUMPI JUMPDEST PUSH2 0xB84 SWAP1 PUSH2 0x15ED JUMP JUMPDEST PUSH2 0xB8C PUSH2 0x18D4 JUMP JUMPDEST PUSH1 0xD SLOAD DUP1 ISZERO PUSH2 0xBEE JUMPI PUSH1 0x7 SLOAD ISZERO PUSH2 0xBB6 JUMPI PUSH2 0xBAD SWAP1 PUSH0 PUSH1 0xD SSTORE PUSH1 0x8 SLOAD PUSH2 0x15E0 JUMP JUMPDEST PUSH1 0x8 SSTORE PUSH1 0x1 DUP1 SSTORE STOP JUMPDEST PUSH1 0x40 MLOAD PUSH3 0x461BCD PUSH1 0xE5 SHL DUP2 MSTORE PUSH1 0x20 PUSH1 0x4 DUP3 ADD MSTORE PUSH1 0x10 PUSH1 0x24 DUP3 ADD MSTORE PUSH16 0x4E6F20616374697665207374616B6573 PUSH1 0x80 SHL PUSH1 0x44 DUP3 ADD MSTORE PUSH1 0x64 SWAP1 REVERT JUMPDEST PUSH1 0x40 MLOAD PUSH3 0x461BCD PUSH1 0xE5 SHL DUP2 MSTORE PUSH1 0x20 PUSH1 0x4 DUP3 ADD MSTORE PUSH1 0x15 PUSH1 0x24 DUP3 ADD MSTORE PUSH21 0x4E6F206665657320746F2064697374726962757465 PUSH1 0x58 SHL PUSH1 0x44 DUP3 ADD MSTORE PUSH1 0x64 SWAP1 REVERT JUMPDEST POP PUSH0 SLOAD PUSH1 0x1 PUSH1 0x1 PUSH1 0xA0 SHL SUB AND CALLER EQ PUSH2 0xB7B JUMP JUMPDEST CALLVALUE PUSH2 0x3D1 JUMPI PUSH1 0x40 CALLDATASIZE PUSH1 0x3 NOT ADD SLT PUSH2 0x3D1 JUMPI PUSH2 0xC57 PUSH2 0x149C JUMP JUMPDEST PUSH1 0x1 PUSH1 0x1 PUSH1 0xA0 SHL SUB AND PUSH0 SWAP1 DUP2 MSTORE PUSH1 0x3 PUSH1 0x20 MSTORE PUSH1 0x40 SWAP1 KECCAK256 DUP1 SLOAD PUSH1 0x24 CALLDATALOAD SWAP1 DUP2 LT ISZERO PUSH2 0x3D1 JUMPI PUSH2 0x797 SWAP2 PUSH2 0x14B2 JUMP JUMPDEST CALLVALUE PUSH2 0x3D1 JUMPI PUSH0 CALLDATASIZE PUSH1 0x3 NOT ADD SLT PUSH2 0x3D1 JUMPI PUSH1 0x20 PUSH1 0xF SLOAD PUSH1 0x40 MLOAD SWAP1 DUP2 MSTORE RETURN JUMPDEST CALLVALUE PUSH2 0x3D1 JUMPI PUSH1 0x40 CALLDATASIZE PUSH1 0x3 NOT ADD SLT PUSH2 0x3D1 JUMPI PUSH2 0xCB9 PUSH2 0x149C JUMP JUMPDEST PUSH32 0xACED61C86C507AA3C2BE43553434C6FF191EA7CBBD812491A6AE59ABC99D29DC PUSH1 0x40 PUSH1 0x24 CALLDATALOAD SWAP3 PUSH1 0x1 DUP1 PUSH1 0xA0 SHL SUB DUP2 AND SWAP4 DUP5 PUSH0 MSTORE PUSH1 0x3 PUSH1 0x20 MSTORE PUSH2 0xD00 DUP4 PUSH0 KECCAK256 SLOAD DUP3 LT PUSH2 0x162A JUMP JUMPDEST DUP5 PUSH0 MSTORE PUSH1 0x3 PUSH1 0x20 MSTORE PUSH2 0xD1B PUSH1 0xFF PUSH1 0x4 PUSH2 0x6F0 DUP5 DUP8 PUSH0 KECCAK256 PUSH2 0x14B2 JUMP JUMPDEST DUP5 PUSH0 MSTORE PUSH1 0x3 PUSH1 0x20 MSTORE PUSH2 0xD3A DUP2 PUSH2 0xD33 DUP2 DUP7 PUSH0 KECCAK256 PUSH2 0x14B2 JUMP JUMPDEST POP SWAP4 PUSH2 0x1849 JUMP JUMPDEST SWAP2 PUSH1 0x1 DUP2 ADD PUSH2 0xD4A DUP5 DUP3 SLOAD PUSH2 0x15E0 JUMP JUMPDEST SWAP1 SSTORE PUSH1 0x2 TIMESTAMP SWAP2 ADD SSTORE PUSH2 0xD5E DUP3 PUSH1 0x8 SLOAD PUSH2 0x15E0 JUMP JUMPDEST PUSH1 0x8 SSTORE DUP3 MLOAD SWAP2 DUP3 MSTORE PUSH1 0x20 DUP3 ADD MSTORE LOG2 STOP JUMPDEST CALLVALUE PUSH2 0x3D1 JUMPI PUSH1 0x20 CALLDATASIZE PUSH1 0x3 NOT ADD SLT PUSH2 0x3D1 JUMPI PUSH1 0x1 PUSH1 0x1 PUSH1 0xA0 SHL SUB PUSH2 0xD8F PUSH2 0x149C JUMP JUMPDEST AND PUSH0 MSTORE PUSH1 0x10 PUSH1 0x20 MSTORE PUSH1 0x20 PUSH1 0x40 PUSH0 KECCAK256 SLOAD PUSH1 0x40 MLOAD SWAP1 DUP2 MSTORE RETURN JUMPDEST CALLVALUE PUSH2 0x3D1 JUMPI PUSH0 CALLDATASIZE PUSH1 0x3 NOT ADD SLT PUSH2 0x3D1 JUMPI PUSH1 0x20 PUSH1 0x9 SLOAD PUSH1 0x40 MLOAD SWAP1 DUP2 MSTORE RETURN JUMPDEST CALLVALUE PUSH2 0x3D1 JUMPI PUSH0 CALLDATASIZE PUSH1 0x3 NOT ADD SLT PUSH2 0x3D1 JUMPI PUSH0 SLOAD PUSH1 0x40 MLOAD PUSH1 0x1 PUSH1 0x1 PUSH1 0xA0 SHL SUB SWAP1 SWAP2 AND DUP2 MSTORE PUSH1 0x20 SWAP1 RETURN JUMPDEST CALLVALUE PUSH2 0x3D1 JUMPI PUSH0 CALLDATASIZE PUSH1 0x3 NOT ADD SLT PUSH2 0x3D1 JUMPI PUSH2 0xE02 PUSH2 0x172E JUMP JUMPDEST STOP JUMPDEST CALLVALUE PUSH2 0x3D1 JUMPI PUSH1 0x20 CALLDATASIZE PUSH1 0x3 NOT ADD SLT PUSH2 0x3D1 JUMPI PUSH1 0x1 PUSH1 0x1 PUSH1 0xA0 SHL SUB PUSH2 0xE25 PUSH2 0x149C JUMP JUMPDEST AND PUSH0 MSTORE PUSH1 0x5 PUSH1 0x20 MSTORE PUSH1 0x20 PUSH1 0x40 PUSH0 KECCAK256 SLOAD PUSH1 0x40 MLOAD SWAP1 DUP2 MSTORE RETURN JUMPDEST CALLVALUE PUSH2 0x3D1 JUMPI PUSH0 CALLDATASIZE PUSH1 0x3 NOT ADD SLT PUSH2 0x3D1 JUMPI PUSH2 0xE54 PUSH2 0x18AE JUMP JUMPDEST PUSH0 DUP1 SLOAD PUSH1 0x1 PUSH1 0x1 PUSH1 0xA0 SHL SUB NOT DUP2 AND DUP3 SSTORE PUSH1 0x1 PUSH1 0x1 PUSH1 0xA0 SHL SUB AND PUSH32 0x8BE0079C531659141344CD1FD0A4F28419497F9722A3DAAFE3B4186F6B6457E0 DUP3 DUP1 LOG3 STOP JUMPDEST CALLVALUE PUSH2 0x3D1 JUMPI PUSH0 CALLDATASIZE PUSH1 0x3 NOT ADD SLT PUSH2 0x3D1 JUMPI PUSH1 0x20 PUSH1 0x40 MLOAD PUSH2 0x320 DUP2 MSTORE RETURN JUMPDEST CALLVALUE PUSH2 0x3D1 JUMPI PUSH1 0x20 CALLDATASIZE PUSH1 0x3 NOT ADD SLT PUSH2 0x3D1 JUMPI PUSH1 0x4 CALLDATALOAD PUSH2 0xECB PUSH2 0x18AE JUMP JUMPDEST PUSH2 0x1F4 DUP2 GT PUSH2 0xF0D JUMPI PUSH1 0x40 PUSH32 0x1D830358C94D390366AD7162B72E731448E195F3576E63B1F57F5E43C719C5AA SWAP2 PUSH1 0xE SLOAD SWAP1 DUP1 PUSH1 0xE SSTORE DUP3 MLOAD SWAP2 DUP3 MSTORE PUSH1 0x20 DUP3 ADD MSTORE LOG1 STOP JUMPDEST PUSH1 0x40 MLOAD PUSH3 0x461BCD PUSH1 0xE5 SHL DUP2 MSTORE PUSH1 0x20 PUSH1 0x4 DUP3 ADD MSTORE PUSH1 0x11 PUSH1 0x24 DUP3 ADD MSTORE PUSH17 0x8CCACA40E4C2E8CA40E8DEDE40D0D2CED PUSH1 0x7B SHL PUSH1 0x44 DUP3 ADD MSTORE PUSH1 0x64 SWAP1 REVERT JUMPDEST CALLVALUE PUSH2 0x3D1 JUMPI PUSH0 CALLDATASIZE PUSH1 0x3 NOT ADD SLT PUSH2 0x3D1 JUMPI PUSH1 0x20 PUSH1 0xFF PUSH1 0x2 SLOAD AND PUSH1 0x40 MLOAD SWAP1 ISZERO ISZERO DUP2 MSTORE RETURN JUMPDEST CALLVALUE PUSH2 0x3D1 JUMPI PUSH0 CALLDATASIZE PUSH1 0x3 NOT ADD SLT PUSH2 0x3D1 JUMPI PUSH1 0x20 PUSH1 0xE SLOAD PUSH1 0x40 MLOAD SWAP1 DUP2 MSTORE RETURN JUMPDEST CALLVALUE PUSH2 0x3D1 JUMPI PUSH1 0x20 CALLDATASIZE PUSH1 0x3 NOT ADD SLT PUSH2 0x3D1 JUMPI PUSH1 0x1 PUSH1 0x1 PUSH1 0xA0 SHL SUB PUSH2 0xFA6 PUSH2 0x149C JUMP JUMPDEST AND PUSH0 MSTORE PUSH1 0xC PUSH1 0x20 MSTORE PUSH1 0x20 PUSH1 0xFF PUSH1 0x40 PUSH0 KECCAK256 SLOAD AND PUSH1 0x40 MLOAD SWAP1 ISZERO ISZERO DUP2 MSTORE RETURN JUMPDEST CALLVALUE PUSH2 0x3D1 JUMPI PUSH0 CALLDATASIZE PUSH1 0x3 NOT ADD SLT PUSH2 0x3D1 JUMPI PUSH2 0xE02 PUSH2 0x16AB JUMP JUMPDEST CALLVALUE PUSH2 0x3D1 JUMPI PUSH1 0x40 CALLDATASIZE PUSH1 0x3 NOT ADD SLT PUSH2 0x3D1 JUMPI PUSH2 0xFF3 PUSH2 0x149C JUMP JUMPDEST PUSH1 0x24 CALLDATALOAD SWAP1 DUP2 ISZERO ISZERO SWAP1 DUP2 DUP4 SUB PUSH2 0x3D1 JUMPI PUSH2 0x100A PUSH2 0x18AE JUMP JUMPDEST PUSH1 0x1 PUSH1 0x1 PUSH1 0xA0 SHL SUB AND SWAP2 DUP3 ISZERO PUSH2 0x1067 JUMPI PUSH32 0xAD857FA38C9319CB80848F1EF2F924383B90297EB5D71755738FF037D100FAA1 SWAP2 PUSH2 0x105E PUSH1 0x20 SWAP3 DUP6 PUSH0 MSTORE PUSH1 0xC DUP5 MSTORE PUSH1 0x40 PUSH0 KECCAK256 SWAP1 PUSH1 0xFF DUP1 NOT DUP4 SLOAD AND SWAP2 ISZERO ISZERO AND OR SWAP1 SSTORE JUMP JUMPDEST PUSH1 0x40 MLOAD SWAP1 DUP2 MSTORE LOG2 STOP JUMPDEST PUSH1 0x40 MLOAD PUSH3 0x461BCD PUSH1 0xE5 SHL DUP2 MSTORE PUSH1 0x20 PUSH1 0x4 DUP3 ADD MSTORE PUSH1 0x16 PUSH1 0x24 DUP3 ADD MSTORE PUSH22 0x496E76616C69642063616C6C65722061646472657373 PUSH1 0x50 SHL PUSH1 0x44 DUP3 ADD MSTORE PUSH1 0x64 SWAP1 REVERT JUMPDEST CALLVALUE PUSH2 0x3D1 JUMPI PUSH0 CALLDATASIZE PUSH1 0x3 NOT ADD SLT PUSH2 0x3D1 JUMPI PUSH1 0x20 PUSH1 0x40 MLOAD PUSH1 0x32 DUP2 MSTORE RETURN JUMPDEST CALLVALUE PUSH2 0x3D1 JUMPI PUSH0 CALLDATASIZE PUSH1 0x3 NOT ADD SLT PUSH2 0x3D1 JUMPI PUSH1 0x20 PUSH1 0xD SLOAD PUSH1 0x40 MLOAD SWAP1 DUP2 MSTORE RETURN JUMPDEST CALLVALUE PUSH2 0x3D1 JUMPI PUSH1 0x20 CALLDATASIZE PUSH1 0x3 NOT ADD SLT PUSH2 0x3D1 JUMPI PUSH1 0x4 CALLDATALOAD PUSH2 0x10F9 PUSH2 0x18AE JUMP JUMPDEST PUSH1 0x32 DUP2 LT ISZERO DUP1 PUSH2 0x1184 JUMPI JUMPDEST ISZERO PUSH2 0x114A JUMPI PUSH1 0x40 PUSH32 0x4959AD9023BF5B492922B51FBC7C0B5E5EC66AA39700E0DA6D8AF9B2D430898E SWAP2 PUSH2 0x1135 PUSH2 0x1AFA JUMP JUMPDEST PUSH1 0x9 SLOAD SWAP1 DUP1 PUSH1 0x9 SSTORE DUP3 MLOAD SWAP2 DUP3 MSTORE PUSH1 0x20 DUP3 ADD MSTORE LOG1 STOP JUMPDEST PUSH1 0x40 MLOAD PUSH3 0x461BCD PUSH1 0xE5 SHL DUP2 MSTORE PUSH1 0x20 PUSH1 0x4 DUP3 ADD MSTORE PUSH1 0x12 PUSH1 0x24 DUP3 ADD MSTORE PUSH18 0x496E76616C6964207969656C642072617465 PUSH1 0x70 SHL PUSH1 0x44 DUP3 ADD MSTORE PUSH1 0x64 SWAP1 REVERT JUMPDEST POP PUSH2 0x320 DUP2 GT ISZERO PUSH2 0x1104 JUMP JUMPDEST CALLVALUE PUSH2 0x3D1 JUMPI PUSH1 0x60 CALLDATASIZE PUSH1 0x3 NOT ADD SLT PUSH2 0x3D1 JUMPI PUSH2 0x11A9 PUSH2 0x149C JUMP JUMPDEST PUSH1 0x44 CALLDATALOAD PUSH1 0x1 PUSH1 0x1 PUSH1 0xA0 SHL SUB DUP2 AND SWAP2 PUSH1 0x24 CALLDATALOAD SWAP1 DUP4 DUP4 SUB PUSH2 0x3D1 JUMPI PUSH2 0x123E PUSH2 0x701 SWAP5 CALLER PUSH0 MSTORE PUSH1 0xC PUSH1 0x20 MSTORE PUSH1 0xFF PUSH1 0x40 PUSH0 KECCAK256 SLOAD AND DUP1 ISZERO PUSH2 0x1243 JUMPI JUMPDEST PUSH2 0x11E9 SWAP1 PUSH2 0x15ED JUMP JUMPDEST PUSH2 0x11F1 PUSH2 0x192A JUMP JUMPDEST PUSH2 0x11F9 PUSH2 0x18D4 JUMP JUMPDEST PUSH1 0x1 PUSH1 0x1 PUSH1 0xA0 SHL SUB DUP4 AND PUSH0 DUP2 DUP2 MSTORE PUSH1 0x3 PUSH1 0x20 MSTORE PUSH1 0x40 SWAP1 KECCAK256 SLOAD PUSH2 0x121C SWAP1 DUP7 LT PUSH2 0x162A JUMP JUMPDEST PUSH0 MSTORE PUSH1 0x3 PUSH1 0x20 MSTORE PUSH2 0x1237 PUSH1 0xFF PUSH1 0x4 PUSH2 0x6F0 DUP8 PUSH1 0x40 PUSH0 KECCAK256 PUSH2 0x14B2 JUMP JUMPDEST ISZERO ISZERO PUSH2 0x150E JUMP JUMPDEST PUSH2 0x196E JUMP JUMPDEST POP PUSH0 SLOAD PUSH1 0x1 PUSH1 0x1 PUSH1 0xA0 SHL SUB AND CALLER EQ PUSH2 0x11E0 JUMP JUMPDEST CALLVALUE PUSH2 0x3D1 JUMPI PUSH0 CALLDATASIZE PUSH1 0x3 NOT ADD SLT PUSH2 0x3D1 JUMPI PUSH1 0x20 PUSH1 0x40 MLOAD PUSH7 0x38D7EA4C68000 DUP2 MSTORE RETURN JUMPDEST CALLVALUE PUSH2 0x3D1 JUMPI PUSH0 CALLDATASIZE PUSH1 0x3 NOT ADD SLT PUSH2 0x3D1 JUMPI PUSH1 0x20 PUSH1 0x40 MLOAD PUSH3 0x15180 DUP2 MSTORE RETURN JUMPDEST CALLVALUE PUSH2 0x3D1 JUMPI PUSH1 0x20 CALLDATASIZE PUSH1 0x3 NOT ADD SLT PUSH2 0x3D1 JUMPI PUSH2 0x12AD PUSH2 0x149C JUMP JUMPDEST PUSH1 0x1 PUSH1 0x1 PUSH1 0xA0 SHL SUB DUP2 AND PUSH0 SWAP1 DUP2 MSTORE PUSH1 0x3 PUSH1 0x20 MSTORE PUSH1 0x40 DUP2 KECCAK256 DUP1 SLOAD SWAP2 SWAP3 DUP4 SWAP3 SWAP2 JUMPDEST DUP3 DUP6 LT PUSH2 0x12DE JUMPI PUSH1 0x20 DUP5 PUSH1 0x40 MLOAD SWAP1 DUP2 MSTORE RETURN JUMPDEST SWAP1 SWAP2 SWAP3 PUSH2 0x1308 PUSH1 0x1 SWAP2 PUSH2 0x1302 DUP4 PUSH2 0x12F5 DUP10 DUP8 PUSH2 0x14B2 JUMP JUMPDEST POP ADD SLOAD PUSH2 0x1302 DUP10 DUP9 PUSH2 0x1849 JUMP JUMPDEST SWAP1 PUSH2 0x15E0 JUMP JUMPDEST SWAP5 ADD SWAP4 SWAP3 SWAP2 SWAP1 PUSH2 0x12CC JUMP JUMPDEST CALLVALUE PUSH2 0x3D1 JUMPI PUSH1 0x20 CALLDATASIZE PUSH1 0x3 NOT ADD SLT PUSH2 0x3D1 JUMPI PUSH1 0x1 PUSH1 0x1 PUSH1 0xA0 SHL SUB PUSH2 0x1334 PUSH2 0x149C JUMP JUMPDEST AND PUSH0 MSTORE PUSH1 0x3 PUSH1 0x20 MSTORE PUSH1 0x20 PUSH1 0x40 PUSH0 KECCAK256 SLOAD PUSH1 0x40 MLOAD SWAP1 DUP2 MSTORE RETURN JUMPDEST CALLVALUE PUSH2 0x3D1 JUMPI PUSH1 0x40 CALLDATASIZE PUSH1 0x3 NOT ADD SLT PUSH2 0x3D1 JUMPI PUSH2 0x1364 PUSH2 0x149C JUMP JUMPDEST PUSH1 0x24 CALLDATALOAD SWAP1 PUSH2 0x1370 PUSH2 0x18AE JUMP JUMPDEST PUSH2 0x1378 PUSH2 0x18D4 JUMP JUMPDEST PUSH1 0x1 PUSH1 0x1 PUSH1 0xA0 SHL SUB AND SWAP1 PUSH2 0x138D DUP3 ISZERO ISZERO PUSH2 0x150E JUMP JUMPDEST PUSH1 0xD SLOAD SWAP2 DUP3 DUP3 GT PUSH2 0x13FE JUMPI PUSH0 DUP1 DUP1 DUP5 DUP2 SWAP5 PUSH2 0x13A8 DUP3 DUP10 PUSH2 0x154E JUMP JUMPDEST PUSH1 0xD SSTORE GAS CALL PUSH2 0x13B5 PUSH2 0x158F JUMP JUMPDEST POP ISZERO PUSH2 0x13C1 JUMPI PUSH1 0x1 DUP1 SSTORE STOP JUMPDEST PUSH1 0x40 MLOAD PUSH3 0x461BCD PUSH1 0xE5 SHL DUP2 MSTORE PUSH1 0x20 PUSH1 0x4 DUP3 ADD MSTORE PUSH1 0x15 PUSH1 0x24 DUP3 ADD MSTORE PUSH21 0x119959481DDA5D1A191C985DD85B0819985A5B1959 PUSH1 0x5A SHL PUSH1 0x44 DUP3 ADD MSTORE PUSH1 0x64 SWAP1 REVERT JUMPDEST PUSH1 0x40 MLOAD PUSH3 0x461BCD PUSH1 0xE5 SHL DUP2 MSTORE PUSH1 0x20 PUSH1 0x4 DUP3 ADD MSTORE PUSH1 0x11 PUSH1 0x24 DUP3 ADD MSTORE PUSH17 0x496E73756666696369656E742066656573 PUSH1 0x78 SHL PUSH1 0x44 DUP3 ADD MSTORE PUSH1 0x64 SWAP1 REVERT JUMPDEST CALLVALUE PUSH2 0x3D1 JUMPI PUSH0 CALLDATASIZE PUSH1 0x3 NOT ADD SLT PUSH2 0x3D1 JUMPI PUSH1 0x80 PUSH1 0x7 SLOAD PUSH1 0x8 SLOAD PUSH1 0x9 SLOAD PUSH1 0xB SLOAD SWAP2 PUSH1 0x40 MLOAD SWAP4 DUP5 MSTORE PUSH1 0x20 DUP5 ADD MSTORE PUSH1 0x40 DUP4 ADD MSTORE PUSH1 0x60 DUP3 ADD MSTORE RETURN JUMPDEST CALLVALUE PUSH2 0x3D1 JUMPI PUSH1 0x40 CALLDATASIZE PUSH1 0x3 NOT ADD SLT PUSH2 0x3D1 JUMPI PUSH1 0x20 PUSH2 0x1494 PUSH2 0x148B PUSH2 0x149C JUMP JUMPDEST PUSH1 0x24 CALLDATALOAD SWAP1 PUSH2 0x14DF JUMP JUMPDEST PUSH1 0x40 MLOAD SWAP1 DUP2 MSTORE RETURN JUMPDEST PUSH1 0x4 CALLDATALOAD SWAP1 PUSH1 0x1 PUSH1 0x1 PUSH1 0xA0 SHL SUB DUP3 AND DUP3 SUB PUSH2 0x3D1 JUMPI JUMP JUMPDEST DUP1 SLOAD DUP3 LT ISZERO PUSH2 0x14CB JUMPI PUSH0 MSTORE PUSH1 0x5 PUSH1 0x20 PUSH0 KECCAK256 SWAP2 MUL ADD SWAP1 PUSH0 SWAP1 JUMP JUMPDEST PUSH4 0x4E487B71 PUSH1 0xE0 SHL PUSH0 MSTORE PUSH1 0x32 PUSH1 0x4 MSTORE PUSH1 0x24 PUSH0 REVERT JUMPDEST SWAP1 PUSH1 0x1 DUP1 PUSH1 0xA0 SHL SUB DUP3 AND PUSH0 MSTORE PUSH1 0x3 PUSH1 0x20 MSTORE PUSH1 0x40 PUSH0 KECCAK256 SLOAD DUP2 LT ISZERO PUSH2 0x1508 JUMPI PUSH2 0x1505 SWAP2 PUSH2 0x1849 JUMP JUMPDEST SWAP1 JUMP JUMPDEST POP POP PUSH0 SWAP1 JUMP JUMPDEST ISZERO PUSH2 0x1515 JUMPI JUMP JUMPDEST PUSH1 0x40 MLOAD PUSH3 0x461BCD PUSH1 0xE5 SHL DUP2 MSTORE PUSH1 0x20 PUSH1 0x4 DUP3 ADD MSTORE PUSH1 0x11 PUSH1 0x24 DUP3 ADD MSTORE PUSH17 0x125B9D985B1A59081C9958DA5C1A595B9D PUSH1 0x7A SHL PUSH1 0x44 DUP3 ADD MSTORE PUSH1 0x64 SWAP1 REVERT JUMPDEST SWAP2 SWAP1 DUP3 SUB SWAP2 DUP3 GT PUSH2 0x389 JUMPI JUMP JUMPDEST PUSH1 0x40 MLOAD SWAP1 PUSH1 0xA0 DUP3 ADD DUP3 DUP2 LT PUSH8 0xFFFFFFFFFFFFFFFF DUP3 GT OR PUSH2 0x157B JUMPI PUSH1 0x40 MSTORE JUMP JUMPDEST PUSH4 0x4E487B71 PUSH1 0xE0 SHL PUSH0 MSTORE PUSH1 0x41 PUSH1 0x4 MSTORE PUSH1 0x24 PUSH0 REVERT JUMPDEST RETURNDATASIZE ISZERO PUSH2 0x15DB JUMPI RETURNDATASIZE SWAP1 PUSH8 0xFFFFFFFFFFFFFFFF DUP3 GT PUSH2 0x157B JUMPI PUSH1 0x40 MLOAD SWAP2 PUSH1 0x1F DUP2 ADD PUSH1 0x1F NOT SWAP1 DUP2 AND PUSH1 0x3F ADD AND DUP4 ADD PUSH8 0xFFFFFFFFFFFFFFFF DUP2 GT DUP5 DUP3 LT OR PUSH2 0x157B JUMPI PUSH1 0x40 MSTORE DUP3 MSTORE RETURNDATASIZE PUSH0 PUSH1 0x20 DUP5 ADD RETURNDATACOPY JUMP JUMPDEST PUSH1 0x60 SWAP1 JUMP JUMPDEST SWAP2 SWAP1 DUP3 ADD DUP1 SWAP3 GT PUSH2 0x389 JUMPI JUMP JUMPDEST ISZERO PUSH2 0x15F4 JUMPI JUMP JUMPDEST PUSH1 0x40 MLOAD PUSH3 0x461BCD PUSH1 0xE5 SHL DUP2 MSTORE PUSH1 0x20 PUSH1 0x4 DUP3 ADD MSTORE PUSH1 0xE PUSH1 0x24 DUP3 ADD MSTORE PUSH14 0x139BDD08185D5D1A1BDC9A5E9959 PUSH1 0x92 SHL PUSH1 0x44 DUP3 ADD MSTORE PUSH1 0x64 SWAP1 REVERT JUMPDEST ISZERO PUSH2 0x1631 JUMPI JUMP JUMPDEST PUSH1 0x40 MLOAD PUSH3 0x461BCD PUSH1 0xE5 SHL DUP2 MSTORE PUSH1 0x20 PUSH1 0x4 DUP3 ADD MSTORE PUSH1 0x13 PUSH1 0x24 DUP3 ADD MSTORE PUSH19 0x92DCECC2D8D2C840E6E8C2D6CA40D2DCC8CAF PUSH1 0x6B SHL PUSH1 0x44 DUP3 ADD MSTORE PUSH1 0x64 SWAP1 REVERT JUMPDEST ISZERO PUSH2 0x1673 JUMPI JUMP JUMPDEST PUSH1 0x40 MLOAD PUSH3 0x461BCD PUSH1 0xE5 SHL DUP2 MSTORE PUSH1 0x20 PUSH1 0x4 DUP3 ADD MSTORE PUSH1 0x10 PUSH1 0x24 DUP3 ADD MSTORE PUSH16 0x5374616B65206E6F7420616374697665 PUSH1 0x80 SHL PUSH1 0x44 DUP3 ADD MSTORE PUSH1 0x64 SWAP1 REVERT JUMPDEST PUSH2 0x16B3 PUSH2 0x18AE JUMP JUMPDEST PUSH1 0x2 SLOAD PUSH1 0xFF DUP2 AND ISZERO PUSH2 0x16F2 JUMPI PUSH1 0xFF NOT AND PUSH1 0x2 SSTORE PUSH32 0x5DB9EE0A495BF2E6FF9C91A7834C1BA4FDD244A5E8AA4E537BD38AEAE4B073AA PUSH1 0x20 PUSH1 0x40 MLOAD CALLER DUP2 MSTORE LOG1 JUMP JUMPDEST PUSH1 0x40 MLOAD PUSH3 0x461BCD PUSH1 0xE5 SHL DUP2 MSTORE PUSH1 0x20 PUSH1 0x4 DUP3 ADD MSTORE PUSH1 0x14 PUSH1 0x24 DUP3 ADD MSTORE PUSH20 0x14185D5CD8589B194E881B9BDD081C185D5CD959 PUSH1 0x62 SHL PUSH1 0x44 DUP3 ADD MSTORE PUSH1 0x64 SWAP1 REVERT JUMPDEST PUSH2 0x1736 PUSH2 0x18AE JUMP JUMPDEST PUSH2 0x173E PUSH2 0x192A JUMP JUMPDEST PUSH1 0x1 PUSH1 0xFF NOT PUSH1 0x2 SLOAD AND OR PUSH1 0x2 SSTORE PUSH32 0x62E78CEA01BEE320CD4E420270B5EA74000D11B0C9F74754EBDBFC544B05A258 PUSH1 0x20 PUSH1 0x40 MLOAD CALLER DUP2 MSTORE LOG1 JUMP JUMPDEST ISZERO PUSH2 0x177E JUMPI JUMP JUMPDEST PUSH1 0x40 MLOAD PUSH3 0x461BCD PUSH1 0xE5 SHL DUP2 MSTORE PUSH1 0x20 PUSH1 0x4 DUP3 ADD MSTORE PUSH1 0x14 PUSH1 0x24 DUP3 ADD MSTORE PUSH20 0x5374616B6520616D6F756E7420746F6F206C6F77 PUSH1 0x60 SHL PUSH1 0x44 DUP3 ADD MSTORE PUSH1 0x64 SWAP1 REVERT JUMPDEST DUP1 SLOAD PUSH9 0x10000000000000000 DUP2 LT ISZERO PUSH2 0x157B JUMPI PUSH2 0x17DC SWAP2 PUSH1 0x1 DUP3 ADD DUP2 SSTORE PUSH2 0x14B2 JUMP JUMPDEST PUSH2 0x1823 JUMPI PUSH1 0x4 PUSH1 0x80 DUP4 PUSH2 0x1821 SWAP5 MLOAD DUP5 SSTORE PUSH1 0x20 DUP2 ADD MLOAD PUSH1 0x1 DUP6 ADD SSTORE PUSH1 0x40 DUP2 ADD MLOAD PUSH1 0x2 DUP6 ADD SSTORE PUSH1 0x60 DUP2 ADD MLOAD PUSH1 0x3 DUP6 ADD SSTORE ADD MLOAD ISZERO ISZERO SWAP2 ADD SWAP1 PUSH1 0xFF DUP1 NOT DUP4 SLOAD AND SWAP2 ISZERO ISZERO AND OR SWAP1 SSTORE JUMP JUMPDEST JUMP JUMPDEST PUSH4 0x4E487B71 PUSH1 0xE0 SHL PUSH0 MSTORE PUSH0 PUSH1 0x4 MSTORE PUSH1 0x24 PUSH0 REVERT JUMPDEST DUP2 DUP2 MUL SWAP3 SWAP2 DUP2 ISZERO SWAP2 DUP5 DIV EQ OR ISZERO PUSH2 0x389 JUMPI JUMP JUMPDEST PUSH1 0x1 PUSH1 0x1 PUSH1 0xA0 SHL SUB AND PUSH0 SWAP1 DUP2 MSTORE PUSH1 0x3 PUSH1 0x20 MSTORE PUSH1 0x40 SWAP1 KECCAK256 PUSH2 0x1869 SWAP2 SWAP1 PUSH2 0x14B2 JUMP JUMPDEST POP PUSH1 0xFF PUSH1 0x4 DUP3 ADD SLOAD AND ISZERO PUSH2 0x18A9 JUMPI PUSH2 0x18A5 DUP2 PUSH2 0x2710 PUSH2 0x189F PUSH2 0x1894 PUSH1 0x2 PUSH4 0x1E13380 SWAP7 ADD SLOAD TIMESTAMP PUSH2 0x154E JUMP JUMPDEST SWAP3 SLOAD PUSH1 0x9 SLOAD SWAP1 PUSH2 0x1836 JUMP JUMPDEST DIV PUSH2 0x1836 JUMP JUMPDEST DIV SWAP1 JUMP JUMPDEST POP PUSH0 SWAP1 JUMP JUMPDEST PUSH0 SLOAD PUSH1 0x1 PUSH1 0x1 PUSH1 0xA0 SHL SUB AND CALLER SUB PUSH2 0x18C1 JUMPI JUMP JUMPDEST PUSH4 0x118CDAA7 PUSH1 0xE0 SHL PUSH0 MSTORE CALLER PUSH1 0x4 MSTORE PUSH1 0x24 PUSH0 REVERT JUMPDEST PUSH1 0x2 PUSH1 0x1 SLOAD EQ PUSH2 0x18E5 JUMPI PUSH1 0x2 PUSH1 0x1 SSTORE JUMP JUMPDEST PUSH1 0x40 MLOAD PUSH3 0x461BCD PUSH1 0xE5 SHL DUP2 MSTORE PUSH1 0x20 PUSH1 0x4 DUP3 ADD MSTORE PUSH1 0x1F PUSH1 0x24 DUP3 ADD MSTORE PUSH32 0x5265656E7472616E637947756172643A207265656E7472616E742063616C6C00 PUSH1 0x44 DUP3 ADD MSTORE PUSH1 0x64 SWAP1 REVERT JUMPDEST PUSH1 0xFF PUSH1 0x2 SLOAD AND PUSH2 0x1936 JUMPI JUMP JUMPDEST PUSH1 0x40 MLOAD PUSH3 0x461BCD PUSH1 0xE5 SHL DUP2 MSTORE PUSH1 0x20 PUSH1 0x4 DUP3 ADD MSTORE PUSH1 0x10 PUSH1 0x24 DUP3 ADD MSTORE PUSH16 0x14185D5CD8589B194E881C185D5CD959 PUSH1 0x82 SHL PUSH1 0x44 DUP3 ADD MSTORE PUSH1 0x64 SWAP1 REVERT JUMPDEST SWAP1 PUSH1 0x1 DUP1 PUSH1 0xA0 SHL SUB DUP3 AND SWAP3 DUP4 PUSH0 MSTORE PUSH1 0x3 PUSH1 0x20 MSTORE PUSH2 0x1999 DUP3 PUSH2 0x1992 DUP2 PUSH1 0x40 PUSH0 KECCAK256 PUSH2 0x14B2 JUMP JUMPDEST POP SWAP5 PUSH2 0x1849 JUMP JUMPDEST SWAP1 PUSH2 0x19A9 PUSH1 0x1 DUP6 ADD SWAP3 DUP4 SLOAD PUSH2 0x15E0 JUMP JUMPDEST DUP1 DUP4 SSTORE DUP5 SLOAD PUSH2 0x19D3 PUSH2 0x2710 PUSH2 0x19CB PUSH2 0x19C1 DUP6 DUP6 PUSH2 0x15E0 JUMP JUMPDEST SWAP5 PUSH1 0xE SLOAD SWAP1 PUSH2 0x1836 JUMP JUMPDEST DIV DUP1 SWAP4 PUSH2 0x154E JUMP JUMPDEST PUSH1 0x3 DUP8 ADD SLOAD SWAP2 PUSH1 0x4 DUP9 ADD PUSH1 0xFF NOT DUP2 SLOAD AND SWAP1 SSTORE DUP9 PUSH0 MSTORE PUSH1 0x5 PUSH1 0x20 MSTORE PUSH2 0x19FC PUSH1 0x40 PUSH0 KECCAK256 SWAP2 DUP3 SLOAD PUSH2 0x154E JUMP JUMPDEST SWAP1 SSTORE PUSH2 0x1A0B DUP8 SLOAD PUSH1 0x7 SLOAD PUSH2 0x154E JUMP JUMPDEST PUSH1 0x7 SSTORE PUSH1 0xB SLOAD PUSH0 NOT DUP2 ADD SWAP2 SWAP1 DUP3 GT PUSH2 0x389 JUMPI PUSH0 SWAP5 DUP6 SWAP5 DUP6 SWAP5 DUP6 SWAP5 PUSH1 0xB SSTORE DUP1 PUSH2 0x1AD9 JUMPI JUMPDEST POP DUP1 PUSH2 0x1AC4 JUMPI JUMPDEST POP PUSH1 0x1 PUSH1 0x1 PUSH1 0xA0 SHL SUB AND GAS CALL PUSH2 0x1A49 PUSH2 0x158F JUMP JUMPDEST POP ISZERO PUSH2 0x1A8D JUMPI SWAP2 SLOAD SWAP2 SLOAD PUSH1 0x40 DUP1 MLOAD SWAP4 DUP5 MSTORE PUSH1 0x20 DUP5 ADD SWAP2 SWAP1 SWAP2 MSTORE DUP3 ADD MSTORE PUSH32 0xC8B5AB210E9D3B6A82B80AA35E2CC486DC439D18CBFEF6006C423A516768F70B SWAP1 PUSH1 0x60 SWAP1 LOG2 JUMP JUMPDEST PUSH1 0x40 MLOAD PUSH3 0x461BCD PUSH1 0xE5 SHL DUP2 MSTORE PUSH1 0x20 PUSH1 0x4 DUP3 ADD MSTORE PUSH1 0xF PUSH1 0x24 DUP3 ADD MSTORE PUSH15 0x151C985B9CD9995C8819985A5B1959 PUSH1 0x8A SHL PUSH1 0x44 DUP3 ADD MSTORE PUSH1 0x64 SWAP1 REVERT JUMPDEST PUSH2 0x1AD0 SWAP1 PUSH1 0xD SLOAD PUSH2 0x15E0 JUMP JUMPDEST PUSH1 0xD SSTORE PUSH0 PUSH2 0x1A35 JUMP JUMPDEST DUP11 SLOAD SWAP1 DUP6 MSTORE PUSH1 0x6 PUSH1 0x20 MSTORE PUSH2 0x1AF2 PUSH1 0x40 DUP7 KECCAK256 SWAP2 DUP3 SLOAD PUSH2 0x154E JUMP JUMPDEST SWAP1 SSTORE PUSH0 PUSH2 0x1A2E JUMP JUMPDEST TIMESTAMP PUSH1 0xA SSTORE PUSH1 0x7 SLOAD PUSH9 0x56BC75E2D63100000 DUP2 GT ISZERO PUSH2 0x1B32 JUMPI POP PUSH1 0x9 SLOAD PUSH1 0x64 DUP2 GT PUSH2 0x1B21 JUMPI POP JUMP JUMPDEST PUSH1 0x9 NOT DUP2 ADD SWAP1 DUP2 GT PUSH2 0x389 JUMPI PUSH1 0x9 SSTORE JUMP JUMPDEST PUSH8 0x8AC7230489E80000 GT PUSH2 0x1B42 JUMPI JUMP JUMPDEST PUSH1 0x9 SLOAD PUSH2 0x2EE DUP2 LT PUSH2 0x1B51 JUMPI POP JUMP JUMPDEST PUSH1 0xA DUP2 ADD DUP1 SWAP2 GT PUSH2 0x389 JUMPI PUSH1 0x9 SSTORE JUMP INVALID LOG2 PUSH5 0x6970667358 0x22 SLT KECCAK256 SELFBALANCE 0xDA 0xEF LOG3 DUP6 DUP8 0xB9 LOG4 0xB7 SWAP13 0xD0 JUMP PUSH27 0xF56A6DBAD846C56E47C5764F2C112FE4FD126864736F6C63430008 0x1E STOP CALLER "
				},
				"gasEstimates": {
					"creation": {
						"codeDepositCost": "1412600",
						"executionCost": "162022",
						"totalCost": "1574622"
					},
					"external": {
						"": "26353",
						"BASIS_POINTS()": "959",
						"MAX_YIELD_RATE()": "607",
						"MIN_STAKE_AMOUNT()": "321",
						"MIN_YIELD_RATE()": "409",
						"YIELD_CALCULATION_PERIOD()": "299",
						"authorizedCallers(address)": "2784",
						"collectNetworkFees()": "30519",
						"distributeFees()": "67945",
						"emergencyPause()": "30058",
						"emergencyRequestTime(address)": "2992",
						"emergencyUnpause()": "27909",
						"emergencyWithdrawalDelay()": "2886",
						"executeEmergencyWithdrawal()": "infinite",
						"getCurrentAPY()": "2820",
						"getGlobalYieldPool()": "8649",
						"getNetworkFeePool()": "2490",
						"getPotTotalStaked(uint256)": "2335",
						"getUserCurrentYield(address,uint256)": "infinite",
						"getUserStake(address,uint256)": "infinite",
						"getUserStakeCount(address)": "2508",
						"getUserTotalYield(address)": "infinite",
						"globalYieldPool()": "11562",
						"networkFeePool()": "2314",
						"owner()": "2821",
						"pause()": "30234",
						"paused()": "2678",
						"potStakes(uint256,uint256)": "16005",
						"potTotalStaked(uint256)": "3193",
						"protocolFeeRate()": "2644",
						"renounceOwnership()": "28526",
						"requestEmergencyWithdrawal()": "24446",
						"setAuthorizedCaller(address,bool)": "28474",
						"stakeBtc(uint256)": "infinite",
						"stakeBtcForUser(address,uint256)": "infinite",
						"transferOwnership(address)": "29064",
						"unpause()": "27865",
						"unstakeBtc(uint256)": "infinite",
						"unstakeBtcForUser(address,uint256,address)": "infinite",
						"updateProtocolFeeRate(uint256)": "28271",
						"updateStakeYield(address,uint256)": "infinite",
						"updateYieldRate(uint256)": "76638",
						"userStakes(address,uint256)": "15965",
						"userTotalStaked(address)": "2904",
						"withdrawProtocolFees(address,uint256)": "infinite"
					},
					"internal": {
						"_calculateYield(address,uint256)": "infinite",
						"_unstakeBtcInternal(address,uint256,address)": "infinite",
						"_updateGlobalYield()": "48523"
					}
				},
				"methodIdentifiers": {
					"BASIS_POINTS()": "e1f1c4a7",
					"MAX_YIELD_RATE()": "6987ca1d",
					"MIN_STAKE_AMOUNT()": "27ed7188",
					"MIN_YIELD_RATE()": "304a900d",
					"YIELD_CALCULATION_PERIOD()": "1e99921b",
					"authorizedCallers(address)": "536fff6c",
					"collectNetworkFees()": "c69ecf0b",
					"distributeFees()": "bb57ad20",
					"emergencyPause()": "51858e27",
					"emergencyRequestTime(address)": "96ca8d27",
					"emergencyUnpause()": "4a4e3bd5",
					"emergencyWithdrawalDelay()": "b4f74031",
					"executeEmergencyWithdrawal()": "f4993bbd",
					"getCurrentAPY()": "962ca496",
					"getGlobalYieldPool()": "1683e9ce",
					"getNetworkFeePool()": "30063e3b",
					"getPotTotalStaked(uint256)": "148a1ed7",
					"getUserCurrentYield(address,uint256)": "0b48baba",
					"getUserStake(address,uint256)": "cec695fa",
					"getUserStakeCount(address)": "1b545a17",
					"getUserTotalYield(address)": "1bc6a778",
					"globalYieldPool()": "e65eaff7",
					"networkFeePool()": "16a54675",
					"owner()": "8da5cb5b",
					"pause()": "8456cb59",
					"paused()": "5c975abb",
					"potStakes(uint256,uint256)": "cffb911e",
					"potTotalStaked(uint256)": "ec669457",
					"protocolFeeRate()": "58f85880",
					"renounceOwnership()": "715018a6",
					"requestEmergencyWithdrawal()": "caa7c8aa",
					"setAuthorizedCaller(address,bool)": "454bbd29",
					"stakeBtc(uint256)": "f74b51b3",
					"stakeBtcForUser(address,uint256)": "c5b4f407",
					"transferOwnership(address)": "f2fde38b",
					"unpause()": "3f4ba83a",
					"unstakeBtc(uint256)": "e8421b5e",
					"unstakeBtcForUser(address,uint256,address)": "2d4c5abe",
					"updateProtocolFeeRate(uint256)": "6340d55c",
					"updateStakeYield(address,uint256)": "a83481e1",
					"updateYieldRate(uint256)": "2f0f8a7a",
					"userStakes(address,uint256)": "b5d5b5fa",
					"userTotalStaked(address)": "719de1ef",
					"withdrawProtocolFees(address,uint256)": "1a7a73c2"
				}
			},
			"storageLayout": {
				"storage": [
					{
						"astId": 8,
						"contract": "CitreaNativeYeildManager.sol:CitreaNativeYieldManager",
						"label": "_owner",
						"offset": 0,
						"slot": "0",
						"type": "t_address"
					},
					{
						"astId": 266,
						"contract": "CitreaNativeYeildManager.sol:CitreaNativeYieldManager",
						"label": "_status",
						"offset": 0,
						"slot": "1",
						"type": "t_uint256"
					},
					{
						"astId": 165,
						"contract": "CitreaNativeYeildManager.sol:CitreaNativeYieldManager",
						"label": "_paused",
						"offset": 0,
						"slot": "2",
						"type": "t_bool"
					},
					{
						"astId": 2160,
						"contract": "CitreaNativeYeildManager.sol:CitreaNativeYieldManager",
						"label": "userStakes",
						"offset": 0,
						"slot": "3",
						"type": "t_mapping(t_address,t_array(t_struct(StakeInfo)2143_storage)dyn_storage)"
					},
					{
						"astId": 2166,
						"contract": "CitreaNativeYeildManager.sol:CitreaNativeYieldManager",
						"label": "potStakes",
						"offset": 0,
						"slot": "4",
						"type": "t_mapping(t_uint256,t_array(t_struct(StakeInfo)2143_storage)dyn_storage)"
					},
					{
						"astId": 2170,
						"contract": "CitreaNativeYeildManager.sol:CitreaNativeYieldManager",
						"label": "userTotalStaked",
						"offset": 0,
						"slot": "5",
						"type": "t_mapping(t_address,t_uint256)"
					},
					{
						"astId": 2174,
						"contract": "CitreaNativeYeildManager.sol:CitreaNativeYieldManager",
						"label": "potTotalStaked",
						"offset": 0,
						"slot": "6",
						"type": "t_mapping(t_uint256,t_uint256)"
					},
					{
						"astId": 2177,
						"contract": "CitreaNativeYeildManager.sol:CitreaNativeYieldManager",
						"label": "globalYieldPool",
						"offset": 0,
						"slot": "7",
						"type": "t_struct(YieldPool)2154_storage"
					},
					{
						"astId": 2181,
						"contract": "CitreaNativeYeildManager.sol:CitreaNativeYieldManager",
						"label": "authorizedCallers",
						"offset": 0,
						"slot": "12",
						"type": "t_mapping(t_address,t_bool)"
					},
					{
						"astId": 2183,
						"contract": "CitreaNativeYeildManager.sol:CitreaNativeYieldManager",
						"label": "networkFeePool",
						"offset": 0,
						"slot": "13",
						"type": "t_uint256"
					},
					{
						"astId": 2186,
						"contract": "CitreaNativeYeildManager.sol:CitreaNativeYieldManager",
						"label": "protocolFeeRate",
						"offset": 0,
						"slot": "14",
						"type": "t_uint256"
					},
					{
						"astId": 2189,
						"contract": "CitreaNativeYeildManager.sol:CitreaNativeYieldManager",
						"label": "emergencyWithdrawalDelay",
						"offset": 0,
						"slot": "15",
						"type": "t_uint256"
					},
					{
						"astId": 2193,
						"contract": "CitreaNativeYeildManager.sol:CitreaNativeYieldManager",
						"label": "emergencyRequestTime",
						"offset": 0,
						"slot": "16",
						"type": "t_mapping(t_address,t_uint256)"
					}
				],
				"types": {
					"t_address": {
						"encoding": "inplace",
						"label": "address",
						"numberOfBytes": "20"
					},
					"t_array(t_struct(StakeInfo)2143_storage)dyn_storage": {
						"base": "t_struct(StakeInfo)2143_storage",
						"encoding": "dynamic_array",
						"label": "struct CitreaNativeYieldManager.StakeInfo[]",
						"numberOfBytes": "32"
					},
					"t_bool": {
						"encoding": "inplace",
						"label": "bool",
						"numberOfBytes": "1"
					},
					"t_mapping(t_address,t_array(t_struct(StakeInfo)2143_storage)dyn_storage)": {
						"encoding": "mapping",
						"key": "t_address",
						"label": "mapping(address => struct CitreaNativeYieldManager.StakeInfo[])",
						"numberOfBytes": "32",
						"value": "t_array(t_struct(StakeInfo)2143_storage)dyn_storage"
					},
					"t_mapping(t_address,t_bool)": {
						"encoding": "mapping",
						"key": "t_address",
						"label": "mapping(address => bool)",
						"numberOfBytes": "32",
						"value": "t_bool"
					},
					"t_mapping(t_address,t_uint256)": {
						"encoding": "mapping",
						"key": "t_address",
						"label": "mapping(address => uint256)",
						"numberOfBytes": "32",
						"value": "t_uint256"
					},
					"t_mapping(t_uint256,t_array(t_struct(StakeInfo)2143_storage)dyn_storage)": {
						"encoding": "mapping",
						"key": "t_uint256",
						"label": "mapping(uint256 => struct CitreaNativeYieldManager.StakeInfo[])",
						"numberOfBytes": "32",
						"value": "t_array(t_struct(StakeInfo)2143_storage)dyn_storage"
					},
					"t_mapping(t_uint256,t_uint256)": {
						"encoding": "mapping",
						"key": "t_uint256",
						"label": "mapping(uint256 => uint256)",
						"numberOfBytes": "32",
						"value": "t_uint256"
					},
					"t_struct(StakeInfo)2143_storage": {
						"encoding": "inplace",
						"label": "struct CitreaNativeYieldManager.StakeInfo",
						"members": [
							{
								"astId": 2134,
								"contract": "CitreaNativeYeildManager.sol:CitreaNativeYieldManager",
								"label": "principal",
								"offset": 0,
								"slot": "0",
								"type": "t_uint256"
							},
							{
								"astId": 2136,
								"contract": "CitreaNativeYeildManager.sol:CitreaNativeYieldManager",
								"label": "accruedYield",
								"offset": 0,
								"slot": "1",
								"type": "t_uint256"
							},
							{
								"astId": 2138,
								"contract": "CitreaNativeYeildManager.sol:CitreaNativeYieldManager",
								"label": "lastUpdateTime",
								"offset": 0,
								"slot": "2",
								"type": "t_uint256"
							},
							{
								"astId": 2140,
								"contract": "CitreaNativeYeildManager.sol:CitreaNativeYieldManager",
								"label": "potId",
								"offset": 0,
								"slot": "3",
								"type": "t_uint256"
							},
							{
								"astId": 2142,
								"contract": "CitreaNativeYeildManager.sol:CitreaNativeYieldManager",
								"label": "isActive",
								"offset": 0,
								"slot": "4",
								"type": "t_bool"
							}
						],
						"numberOfBytes": "160"
					},
					"t_struct(YieldPool)2154_storage": {
						"encoding": "inplace",
						"label": "struct CitreaNativeYieldManager.YieldPool",
						"members": [
							{
								"astId": 2145,
								"contract": "CitreaNativeYeildManager.sol:CitreaNativeYieldManager",
								"label": "totalStaked",
								"offset": 0,
								"slot": "0",
								"type": "t_uint256"
							},
							{
								"astId": 2147,
								"contract": "CitreaNativeYeildManager.sol:CitreaNativeYieldManager",
								"label": "totalYieldGenerated",
								"offset": 0,
								"slot": "1",
								"type": "t_uint256"
							},
							{
								"astId": 2149,
								"contract": "CitreaNativeYeildManager.sol:CitreaNativeYieldManager",
								"label": "currentYieldRate",
								"offset": 0,
								"slot": "2",
								"type": "t_uint256"
							},
							{
								"astId": 2151,
								"contract": "CitreaNativeYeildManager.sol:CitreaNativeYieldManager",
								"label": "lastYieldUpdate",
								"offset": 0,
								"slot": "3",
								"type": "t_uint256"
							},
							{
								"astId": 2153,
								"contract": "CitreaNativeYeildManager.sol:CitreaNativeYieldManager",
								"label": "participantCount",
								"offset": 0,
								"slot": "4",
								"type": "t_uint256"
							}
						],
						"numberOfBytes": "160"
					},
					"t_uint256": {
						"encoding": "inplace",
						"label": "uint256",
						"numberOfBytes": "32"
					}
				}
			},
			"userdoc": {
				"kind": "user",
				"methods": {
					"collectNetworkFees()": {
						"notice": "Collect network fees to boost yield pool"
					},
					"distributeFees()": {
						"notice": "Distribute collected fees to active stakers"
					},
					"executeEmergencyWithdrawal()": {
						"notice": "Execute emergency withdrawal after delay"
					},
					"requestEmergencyWithdrawal()": {
						"notice": "Request emergency withdrawal (with delay)"
					},
					"stakeBtc(uint256)": {
						"notice": "Stake BTC for yield generation"
					},
					"stakeBtcForUser(address,uint256)": {
						"notice": "Stake BTC on behalf of another user (for pot operations)"
					},
					"unstakeBtc(uint256)": {
						"notice": "Unstake BTC with accumulated yield"
					},
					"unstakeBtcForUser(address,uint256,address)": {
						"notice": "Unstake BTC for a user (authorized callers only)"
					},
					"updateStakeYield(address,uint256)": {
						"notice": "Update yield for a specific stake"
					}
				},
				"notice": "Native BTC-backed yield generation for ChainPot on Citrea",
				"version": 1
			}
		}
	}
}