{
	"MemberAccountManager1.sol": {
		"MemberAccountManager": {
			"abi": [
				{
					"inputs": [],
					"stateMutability": "nonpayable",
					"type": "constructor"
				},
				{
					"inputs": [
						{
							"internalType": "address",
							"name": "owner",
							"type": "address"
						}
					],
					"name": "OwnableInvalidOwner",
					"type": "error"
				},
				{
					"inputs": [
						{
							"internalType": "address",
							"name": "account",
							"type": "address"
						}
					],
					"name": "OwnableUnauthorizedAccount",
					"type": "error"
				},
				{
					"anonymous": false,
					"inputs": [
						{
							"indexed": true,
							"internalType": "address",
							"name": "caller",
							"type": "address"
						}
					],
					"name": "AuthorizedCallerAdded",
					"type": "event"
				},
				{
					"anonymous": false,
					"inputs": [
						{
							"indexed": true,
							"internalType": "address",
							"name": "caller",
							"type": "address"
						}
					],
					"name": "AuthorizedCallerRemoved",
					"type": "event"
				},
				{
					"anonymous": false,
					"inputs": [
						{
							"indexed": true,
							"internalType": "address",
							"name": "user",
							"type": "address"
						},
						{
							"indexed": false,
							"internalType": "uint256",
							"name": "potId",
							"type": "uint256"
						},
						{
							"indexed": false,
							"internalType": "uint256",
							"name": "cycleId",
							"type": "uint256"
						},
						{
							"indexed": false,
							"internalType": "uint256",
							"name": "bidAmount",
							"type": "uint256"
						},
						{
							"indexed": false,
							"internalType": "bool",
							"name": "didBid",
							"type": "bool"
						}
					],
					"name": "BidUpdated",
					"type": "event"
				},
				{
					"anonymous": false,
					"inputs": [
						{
							"indexed": true,
							"internalType": "address",
							"name": "user",
							"type": "address"
						}
					],
					"name": "MemberRegistered",
					"type": "event"
				},
				{
					"anonymous": false,
					"inputs": [
						{
							"indexed": true,
							"internalType": "address",
							"name": "previousOwner",
							"type": "address"
						},
						{
							"indexed": true,
							"internalType": "address",
							"name": "newOwner",
							"type": "address"
						}
					],
					"name": "OwnershipTransferred",
					"type": "event"
				},
				{
					"anonymous": false,
					"inputs": [
						{
							"indexed": true,
							"internalType": "address",
							"name": "user",
							"type": "address"
						},
						{
							"indexed": false,
							"internalType": "uint256",
							"name": "potId",
							"type": "uint256"
						},
						{
							"indexed": false,
							"internalType": "uint256",
							"name": "cycleId",
							"type": "uint256"
						}
					],
					"name": "ParticipationUpdated",
					"type": "event"
				},
				{
					"anonymous": false,
					"inputs": [
						{
							"indexed": true,
							"internalType": "address",
							"name": "user",
							"type": "address"
						},
						{
							"indexed": false,
							"internalType": "uint256",
							"name": "potId",
							"type": "uint256"
						},
						{
							"indexed": false,
							"internalType": "uint256",
							"name": "cycleId",
							"type": "uint256"
						},
						{
							"indexed": false,
							"internalType": "uint256",
							"name": "amount",
							"type": "uint256"
						}
					],
					"name": "PotFundingUpdated",
					"type": "event"
				},
				{
					"anonymous": false,
					"inputs": [
						{
							"indexed": true,
							"internalType": "address",
							"name": "user",
							"type": "address"
						},
						{
							"indexed": false,
							"internalType": "uint256",
							"name": "potId",
							"type": "uint256"
						},
						{
							"indexed": false,
							"internalType": "uint256",
							"name": "cycleId",
							"type": "uint256"
						}
					],
					"name": "WinnerMarked",
					"type": "event"
				},
				{
					"inputs": [
						{
							"internalType": "address",
							"name": "caller",
							"type": "address"
						}
					],
					"name": "addAuthorizedCaller",
					"outputs": [],
					"stateMutability": "nonpayable",
					"type": "function"
				},
				{
					"inputs": [
						{
							"internalType": "address",
							"name": "",
							"type": "address"
						}
					],
					"name": "authorizedCallers",
					"outputs": [
						{
							"internalType": "bool",
							"name": "",
							"type": "bool"
						}
					],
					"stateMutability": "view",
					"type": "function"
				},
				{
					"inputs": [
						{
							"internalType": "address",
							"name": "user",
							"type": "address"
						},
						{
							"internalType": "uint256",
							"name": "potId",
							"type": "uint256"
						},
						{
							"internalType": "uint256",
							"name": "cycleId",
							"type": "uint256"
						}
					],
					"name": "getCycleParticipation",
					"outputs": [
						{
							"components": [
								{
									"internalType": "uint256",
									"name": "cycleId",
									"type": "uint256"
								},
								{
									"internalType": "uint256",
									"name": "contribution",
									"type": "uint256"
								},
								{
									"internalType": "uint256",
									"name": "bidAmount",
									"type": "uint256"
								},
								{
									"internalType": "bool",
									"name": "didBid",
									"type": "bool"
								},
								{
									"internalType": "bool",
									"name": "won",
									"type": "bool"
								}
							],
							"internalType": "struct MemberAccountManager.CycleParticipation",
							"name": "",
							"type": "tuple"
						}
					],
					"stateMutability": "view",
					"type": "function"
				},
				{
					"inputs": [
						{
							"internalType": "uint256",
							"name": "index",
							"type": "uint256"
						}
					],
					"name": "getMemberByIndex",
					"outputs": [
						{
							"internalType": "address",
							"name": "",
							"type": "address"
						}
					],
					"stateMutability": "view",
					"type": "function"
				},
				{
					"inputs": [
						{
							"internalType": "address",
							"name": "user",
							"type": "address"
						}
					],
					"name": "getMemberProfile",
					"outputs": [
						{
							"internalType": "bool",
							"name": "registered",
							"type": "bool"
						},
						{
							"internalType": "uint256",
							"name": "totalCyclesParticipated",
							"type": "uint256"
						},
						{
							"internalType": "uint256",
							"name": "totalCyclesWon",
							"type": "uint256"
						},
						{
							"internalType": "uint256",
							"name": "totalContribution",
							"type": "uint256"
						},
						{
							"internalType": "uint256",
							"name": "reputationScore",
							"type": "uint256"
						},
						{
							"internalType": "uint256",
							"name": "lastJoinedTimestamp",
							"type": "uint256"
						},
						{
							"internalType": "uint256[]",
							"name": "createdPots",
							"type": "uint256[]"
						},
						{
							"internalType": "uint256[]",
							"name": "joinedPots",
							"type": "uint256[]"
						}
					],
					"stateMutability": "view",
					"type": "function"
				},
				{
					"inputs": [
						{
							"internalType": "address",
							"name": "user",
							"type": "address"
						},
						{
							"internalType": "uint256",
							"name": "potId",
							"type": "uint256"
						}
					],
					"name": "getPotCycles",
					"outputs": [
						{
							"internalType": "uint256[]",
							"name": "",
							"type": "uint256[]"
						}
					],
					"stateMutability": "view",
					"type": "function"
				},
				{
					"inputs": [
						{
							"internalType": "address",
							"name": "user",
							"type": "address"
						}
					],
					"name": "getReputationScore",
					"outputs": [
						{
							"internalType": "uint256",
							"name": "",
							"type": "uint256"
						}
					],
					"stateMutability": "view",
					"type": "function"
				},
				{
					"inputs": [],
					"name": "getTotalMembers",
					"outputs": [
						{
							"internalType": "uint256",
							"name": "",
							"type": "uint256"
						}
					],
					"stateMutability": "view",
					"type": "function"
				},
				{
					"inputs": [
						{
							"internalType": "address",
							"name": "user",
							"type": "address"
						}
					],
					"name": "getWinRate",
					"outputs": [
						{
							"internalType": "uint256",
							"name": "",
							"type": "uint256"
						}
					],
					"stateMutability": "view",
					"type": "function"
				},
				{
					"inputs": [
						{
							"internalType": "address",
							"name": "user",
							"type": "address"
						}
					],
					"name": "isRegistered",
					"outputs": [
						{
							"internalType": "bool",
							"name": "",
							"type": "bool"
						}
					],
					"stateMutability": "view",
					"type": "function"
				},
				{
					"inputs": [
						{
							"internalType": "address",
							"name": "user",
							"type": "address"
						},
						{
							"internalType": "uint256",
							"name": "potId",
							"type": "uint256"
						},
						{
							"internalType": "uint256",
							"name": "cycleId",
							"type": "uint256"
						}
					],
					"name": "markAsWinner",
					"outputs": [],
					"stateMutability": "nonpayable",
					"type": "function"
				},
				{
					"inputs": [],
					"name": "owner",
					"outputs": [
						{
							"internalType": "address",
							"name": "",
							"type": "address"
						}
					],
					"stateMutability": "view",
					"type": "function"
				},
				{
					"inputs": [
						{
							"internalType": "address",
							"name": "user",
							"type": "address"
						}
					],
					"name": "registerMember",
					"outputs": [],
					"stateMutability": "nonpayable",
					"type": "function"
				},
				{
					"inputs": [
						{
							"internalType": "address",
							"name": "caller",
							"type": "address"
						}
					],
					"name": "removeAuthorizedCaller",
					"outputs": [],
					"stateMutability": "nonpayable",
					"type": "function"
				},
				{
					"inputs": [],
					"name": "renounceOwnership",
					"outputs": [],
					"stateMutability": "nonpayable",
					"type": "function"
				},
				{
					"inputs": [
						{
							"internalType": "address",
							"name": "newOwner",
							"type": "address"
						}
					],
					"name": "transferOwnership",
					"outputs": [],
					"stateMutability": "nonpayable",
					"type": "function"
				},
				{
					"inputs": [
						{
							"internalType": "address",
							"name": "user",
							"type": "address"
						},
						{
							"internalType": "uint256",
							"name": "potId",
							"type": "uint256"
						},
						{
							"internalType": "uint256",
							"name": "cycleId",
							"type": "uint256"
						},
						{
							"internalType": "uint256",
							"name": "bidAmount",
							"type": "uint256"
						},
						{
							"internalType": "bool",
							"name": "didBid",
							"type": "bool"
						}
					],
					"name": "updateBidInfo",
					"outputs": [],
					"stateMutability": "nonpayable",
					"type": "function"
				},
				{
					"inputs": [
						{
							"internalType": "address",
							"name": "user",
							"type": "address"
						},
						{
							"internalType": "uint256",
							"name": "potId",
							"type": "uint256"
						},
						{
							"internalType": "uint256",
							"name": "cycleId",
							"type": "uint256"
						},
						{
							"internalType": "uint256",
							"name": "contribution",
							"type": "uint256"
						},
						{
							"internalType": "bool",
							"name": "isCreator",
							"type": "bool"
						}
					],
					"name": "updateParticipation",
					"outputs": [],
					"stateMutability": "nonpayable",
					"type": "function"
				},
				{
					"inputs": [
						{
							"internalType": "address",
							"name": "user",
							"type": "address"
						},
						{
							"internalType": "uint256",
							"name": "potId",
							"type": "uint256"
						},
						{
							"internalType": "uint256",
							"name": "cycleId",
							"type": "uint256"
						},
						{
							"internalType": "uint256",
							"name": "amount",
							"type": "uint256"
						}
					],
					"name": "updatePotFundingDetails",
					"outputs": [],
					"stateMutability": "nonpayable",
					"type": "function"
				}
			],
			"devdoc": {
				"errors": {
					"OwnableInvalidOwner(address)": [
						{
							"details": "The owner is not a valid owner account. (eg. `address(0)`)"
						}
					],
					"OwnableUnauthorizedAccount(address)": [
						{
							"details": "The caller account is not authorized to perform an operation."
						}
					]
				},
				"kind": "dev",
				"methods": {
					"owner()": {
						"details": "Returns the address of the current owner."
					},
					"renounceOwnership()": {
						"details": "Leaves the contract without owner. It will not be possible to call `onlyOwner` functions. Can only be called by the current owner. NOTE: Renouncing ownership will leave the contract without an owner, thereby disabling any functionality that is only available to the owner."
					},
					"transferOwnership(address)": {
						"details": "Transfers ownership of the contract to a new account (`newOwner`). Can only be called by the current owner."
					}
				},
				"title": "MemberAccountManager",
				"version": 1
			},
			"evm": {
				"assembly": "    /* \"MemberAccountManager1.sol\":300:9582  contract MemberAccountManager is Ownable {... */\n  0x80\n  dup1\n  0x40\n  mstore\n  jumpi(tag_1, callvalue)\n    /* \"MemberAccountManager1.sol\":2002:2012  msg.sender */\n  caller\n    /* \"@openzeppelin/contracts/access/Ownable.sol\":1273:1299  initialOwner == address(0) */\n  iszero\n    /* \"@openzeppelin/contracts/access/Ownable.sol\":1269:1364  if (initialOwner == address(0)) {... */\n  tag_3\n  jumpi\n    /* \"@openzeppelin/contracts/access/Ownable.sol\":1297:1298  0 */\n  0x00\n    /* \"MemberAccountManager1.sol\":300:9582  contract MemberAccountManager is Ownable {... */\n  dup1\n  sload\n    /* \"MemberAccountManager1.sol\":2002:2012  msg.sender */\n  caller\n  not(sub(shl(0xa0, 0x01), 0x01))\n    /* \"MemberAccountManager1.sol\":300:9582  contract MemberAccountManager is Ownable {... */\n  dup3\n  and\n  dup2\n  or\n  dup4\n  sstore\n    /* \"MemberAccountManager1.sol\":2002:2012  msg.sender */\n  swap2\n  sub(shl(0xa0, 0x01), 0x01)\n    /* \"MemberAccountManager1.sol\":300:9582  contract MemberAccountManager is Ownable {... */\n  swap1\n  swap2\n  and\n  swap1\n    /* \"@openzeppelin/contracts/access/Ownable.sol\":3052:3092  OwnershipTransferred(oldOwner, newOwner) */\n  0x8be0079c531659141344cd1fd0a4f28419497f9722a3daafe3b4186f6b6457e0\n  swap1\n    /* \"@openzeppelin/contracts/access/Ownable.sol\":1297:1298  0 */\n  dup1\n    /* \"@openzeppelin/contracts/access/Ownable.sol\":3052:3092  OwnershipTransferred(oldOwner, newOwner) */\n  log3\n    /* \"MemberAccountManager1.sol\":300:9582  contract MemberAccountManager is Ownable {... */\n  dataSize(sub_0)\n  swap1\n  dup2\n  dataOffset(sub_0)\n  dup3\n  codecopy\n  return\n    /* \"@openzeppelin/contracts/access/Ownable.sol\":1269:1364  if (initialOwner == address(0)) {... */\ntag_3:\n    /* \"@openzeppelin/contracts/access/Ownable.sol\":1322:1353  OwnableInvalidOwner(address(0)) */\n  shl(0xe0, 0x1e4fbdf7)\n    /* \"@openzeppelin/contracts/access/Ownable.sol\":1297:1298  0 */\n  0x00\n    /* \"@openzeppelin/contracts/access/Ownable.sol\":1322:1353  OwnableInvalidOwner(address(0)) */\n  mstore\n    /* \"@openzeppelin/contracts/access/Ownable.sol\":1297:1298  0 */\n  0x00\n    /* \"@openzeppelin/contracts/access/Ownable.sol\":1322:1353  OwnableInvalidOwner(address(0)) */\n  0x04\n    /* \"MemberAccountManager1.sol\":300:9582  contract MemberAccountManager is Ownable {... */\n  mstore\n  0x24\n    /* \"@openzeppelin/contracts/access/Ownable.sol\":1297:1298  0 */\n  0x00\n    /* \"@openzeppelin/contracts/access/Ownable.sol\":1322:1353  OwnableInvalidOwner(address(0)) */\n  revert\n    /* \"MemberAccountManager1.sol\":300:9582  contract MemberAccountManager is Ownable {... */\ntag_1:\n  0x00\n  dup1\n  revert\nstop\n\nsub_0: assembly {\n        /* \"MemberAccountManager1.sol\":300:9582  contract MemberAccountManager is Ownable {... */\n      mstore(0x40, 0x80)\n      jumpi(tag_20, iszero(lt(calldatasize, 0x04)))\n      0x00\n      dup1\n      revert\n    tag_20:\n      shr(0xe0, calldataload(0x00))\n      dup1\n      0x0649be20\n      eq\n      tag_22\n      jumpi\n      dup1\n      0x13a155ea\n      eq\n      tag_24\n      jumpi\n      dup1\n      0x1b0c7559\n      eq\n      tag_26\n      jumpi\n      dup1\n      0x536fff6c\n      eq\n      tag_28\n      jumpi\n      dup1\n      0x6a84a73d\n      eq\n      tag_30\n      jumpi\n      dup1\n      0x715018a6\n      eq\n      tag_32\n      jumpi\n      dup1\n      0x75a67d5c\n      eq\n      tag_34\n      jumpi\n      dup1\n      0x8da5cb5b\n      eq\n      tag_36\n      jumpi\n      dup1\n      0x8f180305\n      eq\n      tag_38\n      jumpi\n      dup1\n      0x914a1e76\n      eq\n      tag_40\n      jumpi\n      dup1\n      0xabf4cf6b\n      eq\n      tag_42\n      jumpi\n      dup1\n      0xb7aa0231\n      eq\n      tag_44\n      jumpi\n      dup1\n      0xbce73b45\n      eq\n      tag_46\n      jumpi\n      dup1\n      0xc3c5a547\n      eq\n      tag_48\n      jumpi\n      dup1\n      0xc7d8acd8\n      eq\n      tag_50\n      jumpi\n      dup1\n      0xcca28f39\n      eq\n      tag_52\n      jumpi\n      dup1\n      0xdb151c07\n      eq\n      tag_54\n      jumpi\n      dup1\n      0xf2fde38b\n      eq\n      tag_56\n      jumpi\n      0xfcb4888e\n      eq\n      tag_58\n      jumpi\n      0x00\n      dup1\n      revert\n    tag_58:\n      jumpi(tag_62, callvalue)\n      jumpi(tag_62, slt(add(not(0x03), calldatasize), 0x20))\n      sub(shl(0xa0, 0x01), 0x01)\n      tag_64\n      tag_1\n      jump\t// in\n    tag_64:\n      and\n        /* \"MemberAccountManager1.sol\":2874:2920  require(user != address(0), \"Invalid address\") */\n      tag_65\n        /* \"MemberAccountManager1.sol\":2882:2900  user != address(0) */\n      dup2\n      iszero\n      iszero\n        /* \"MemberAccountManager1.sol\":2874:2920  require(user != address(0), \"Invalid address\") */\n      tag_10\n      jump\t// in\n    tag_65:\n        /* \"MemberAccountManager1.sol\":300:9582  contract MemberAccountManager is Ownable {... */\n      dup1\n      0x00\n      mstore\n        /* \"MemberAccountManager1.sol\":2940:2954  memberProfiles */\n      0x01\n        /* \"MemberAccountManager1.sol\":300:9582  contract MemberAccountManager is Ownable {... */\n      0x20\n      mstore\n      jumpi(tag_66, and(sload(keccak256(0x00, 0x40)), 0xff))\n      dup1\n      0x00\n      mstore\n        /* \"MemberAccountManager1.sol\":2940:2954  memberProfiles */\n      0x01\n        /* \"MemberAccountManager1.sol\":300:9582  contract MemberAccountManager is Ownable {... */\n      0x20\n      mstore\n      keccak256(0x00, 0x40)\n        /* \"MemberAccountManager1.sol\":2940:2954  memberProfiles */\n      0x01\n        /* \"MemberAccountManager1.sol\":300:9582  contract MemberAccountManager is Ownable {... */\n      not(0xff)\n      dup3\n      sload\n      and\n      or\n      dup2\n      sstore\n        /* \"MemberAccountManager1.sol\":3132:3135  100 */\n      0x64\n        /* \"MemberAccountManager1.sol\":300:9582  contract MemberAccountManager is Ownable {... */\n      0x04\n        /* \"MemberAccountManager1.sol\":3106:3129  profile.reputationScore */\n      dup3\n      add\n        /* \"MemberAccountManager1.sol\":300:9582  contract MemberAccountManager is Ownable {... */\n      sstore\n        /* \"MemberAccountManager1.sol\":3169:3196  profile.lastJoinedTimestamp */\n      0x05\n        /* \"MemberAccountManager1.sol\":3199:3214  block.timestamp */\n      timestamp\n        /* \"MemberAccountManager1.sol\":3169:3196  profile.lastJoinedTimestamp */\n      swap2\n      add\n        /* \"MemberAccountManager1.sol\":300:9582  contract MemberAccountManager is Ownable {... */\n      sstore\n        /* \"@openzeppelin/contracts/utils/structs/EnumerableSet.sol\":11511:11561  _add(set._inner, bytes32(uint256(uint160(value)))) */\n      tag_68\n      dup2\n      tag_19\n      jump\t// in\n    tag_68:\n      pop\n        /* \"MemberAccountManager1.sol\":3272:3294  MemberRegistered(user) */\n      0x92fabfa210df88d92c2f5a07ddd43a985b208d8b19b7a78ba1284aa4b287d862\n        /* \"MemberAccountManager1.sol\":300:9582  contract MemberAccountManager is Ownable {... */\n      0x00\n        /* \"MemberAccountManager1.sol\":3272:3294  MemberRegistered(user) */\n      dup1\n      log2\n        /* \"MemberAccountManager1.sol\":300:9582  contract MemberAccountManager is Ownable {... */\n      stop\n    tag_66:\n      mload(0x40)\n      shl(0xe5, 0x461bcd)\n      dup2\n      mstore\n      0x20\n      0x04\n      dup3\n      add\n      mstore\n      0x12\n      0x24\n      dup3\n      add\n      mstore\n      shl(0x72, 0x105b1c9958591e481c9959da5cdd195c9959)\n      0x44\n      dup3\n      add\n      mstore\n      0x64\n      swap1\n      revert\n    tag_62:\n      0x00\n      dup1\n      revert\n    tag_56:\n      jumpi(tag_62, callvalue)\n      jumpi(tag_62, slt(add(not(0x03), calldatasize), 0x20))\n      tag_73\n      tag_1\n      jump\t// in\n    tag_73:\n        /* \"@openzeppelin/contracts/access/Ownable.sol\":1500:1562  modifier onlyOwner() {... */\n      tag_74\n      tag_18\n      jump\t// in\n    tag_74:\n      sub(shl(0xa0, 0x01), 0x01)\n        /* \"MemberAccountManager1.sol\":300:9582  contract MemberAccountManager is Ownable {... */\n      and\n        /* \"@openzeppelin/contracts/access/Ownable.sol\":2627:2649  newOwner == address(0) */\n      dup1\n      iszero\n        /* \"@openzeppelin/contracts/access/Ownable.sol\":2623:2714  if (newOwner == address(0)) {... */\n      tag_75\n      jumpi\n        /* \"MemberAccountManager1.sol\":300:9582  contract MemberAccountManager is Ownable {... */\n      0x00\n      dup1\n      sload\n      not(sub(shl(0xa0, 0x01), 0x01))\n      dup2\n      and\n      dup4\n      or\n      dup3\n      sstore\n      sub(shl(0xa0, 0x01), 0x01)\n      and\n      swap1\n        /* \"@openzeppelin/contracts/access/Ownable.sol\":3052:3092  OwnershipTransferred(oldOwner, newOwner) */\n      0x8be0079c531659141344cd1fd0a4f28419497f9722a3daafe3b4186f6b6457e0\n      swap1\n        /* \"MemberAccountManager1.sol\":300:9582  contract MemberAccountManager is Ownable {... */\n      dup1\n        /* \"@openzeppelin/contracts/access/Ownable.sol\":3052:3092  OwnershipTransferred(oldOwner, newOwner) */\n      log3\n        /* \"MemberAccountManager1.sol\":300:9582  contract MemberAccountManager is Ownable {... */\n      stop\n        /* \"@openzeppelin/contracts/access/Ownable.sol\":2623:2714  if (newOwner == address(0)) {... */\n    tag_75:\n        /* \"@openzeppelin/contracts/access/Ownable.sol\":2672:2703  OwnableInvalidOwner(address(0)) */\n      shl(0xe0, 0x1e4fbdf7)\n        /* \"MemberAccountManager1.sol\":300:9582  contract MemberAccountManager is Ownable {... */\n      0x00\n        /* \"@openzeppelin/contracts/access/Ownable.sol\":2672:2703  OwnableInvalidOwner(address(0)) */\n      mstore\n        /* \"MemberAccountManager1.sol\":300:9582  contract MemberAccountManager is Ownable {... */\n      mstore(0x04, 0x00)\n      0x24\n      0x00\n        /* \"@openzeppelin/contracts/access/Ownable.sol\":2672:2703  OwnableInvalidOwner(address(0)) */\n      revert\n        /* \"MemberAccountManager1.sol\":300:9582  contract MemberAccountManager is Ownable {... */\n    tag_54:\n      jumpi(tag_62, callvalue)\n      tag_79\n      calldatasize\n      tag_4\n      jump\t// in\n    tag_79:\n        /* \"MemberAccountManager1.sol\":2256:2266  msg.sender */\n      swap3\n      swap4\n      swap2\n      swap1\n      swap2\n      caller\n        /* \"MemberAccountManager1.sol\":300:9582  contract MemberAccountManager is Ownable {... */\n      0x00\n      mstore\n      mstore(0x20, 0x04)\n      and(sload(keccak256(0x00, 0x40)), 0xff)\n        /* \"MemberAccountManager1.sol\":2238:2292  authorizedCallers[msg.sender] || msg.sender == owner() */\n      dup1\n      iszero\n      tag_80\n      jumpi\n        /* \"MemberAccountManager1.sol\":300:9582  contract MemberAccountManager is Ownable {... */\n    tag_81:\n        /* \"MemberAccountManager1.sol\":2230:2311  require(authorizedCallers[msg.sender] || msg.sender == owner(), \"Not authorized\") */\n      tag_82\n      swap1\n      tag_5\n      jump\t// in\n    tag_82:\n        /* \"MemberAccountManager1.sol\":300:9582  contract MemberAccountManager is Ownable {... */\n      0x01\n      dup1\n      0xa0\n      shl\n      sub\n      and\n      swap4\n      dup5\n      0x00\n      mstore\n        /* \"MemberAccountManager1.sol\":2110:2124  memberProfiles */\n      0x01\n        /* \"MemberAccountManager1.sol\":300:9582  contract MemberAccountManager is Ownable {... */\n      0x20\n      mstore\n        /* \"MemberAccountManager1.sol\":2102:2165  require(memberProfiles[user].registered, \"User not registered\") */\n      tag_83\n        /* \"MemberAccountManager1.sol\":300:9582  contract MemberAccountManager is Ownable {... */\n      and(sload(keccak256(0x00, 0x40)), 0xff)\n        /* \"MemberAccountManager1.sol\":2102:2165  require(memberProfiles[user].registered, \"User not registered\") */\n      tag_6\n      jump\t// in\n    tag_83:\n        /* \"MemberAccountManager1.sol\":3579:3588  potId > 0 */\n      dup1\n      iszero\n        /* \"MemberAccountManager1.sol\":300:9582  contract MemberAccountManager is Ownable {... */\n      tag_84\n      jumpi\n        /* \"MemberAccountManager1.sol\":3626:3637  cycleId > 0 */\n      dup2\n      iszero\n        /* \"MemberAccountManager1.sol\":300:9582  contract MemberAccountManager is Ownable {... */\n      tag_86\n      jumpi\n        /* \"MemberAccountManager1.sol\":3677:3693  contribution > 0 */\n      dup3\n      iszero\n        /* \"MemberAccountManager1.sol\":300:9582  contract MemberAccountManager is Ownable {... */\n      tag_88\n      jumpi\n      dup5\n      0x00\n      mstore\n        /* \"MemberAccountManager1.sol\":2110:2124  memberProfiles */\n      0x01\n        /* \"MemberAccountManager1.sol\":300:9582  contract MemberAccountManager is Ownable {... */\n      0x20\n      mstore\n      keccak256(0x00, 0x40)\n      swap3\n      dup2\n      0x00\n      mstore\n        /* \"MemberAccountManager1.sol\":3816:3828  profile.pots */\n      0x08\n      dup5\n      add\n        /* \"MemberAccountManager1.sol\":300:9582  contract MemberAccountManager is Ownable {... */\n      0x20\n      mstore\n      keccak256(0x00, 0x40)\n      swap5\n      dup6\n      sload\n        /* \"MemberAccountManager1.sol\":3898:3912  pot.potId == 0 */\n      iszero\n        /* \"MemberAccountManager1.sol\":3894:4178  if (pot.potId == 0) {... */\n      tag_90\n      jumpi\n        /* \"MemberAccountManager1.sol\":300:9582  contract MemberAccountManager is Ownable {... */\n    tag_91:\n        /* \"MemberAccountManager1.sol\":4232:4256  bool cycleExists = false */\n      pop\n        /* \"MemberAccountManager1.sol\":300:9582  contract MemberAccountManager is Ownable {... */\n      0x00\n        /* \"MemberAccountManager1.sol\":4272:4285  uint256 i = 0 */\n      swap5\n        /* \"MemberAccountManager1.sol\":300:9582  contract MemberAccountManager is Ownable {... */\n      0x00\n        /* \"MemberAccountManager1.sol\":4291:4303  pot.cycleIds */\n      0x02\n      dup3\n      add\n        /* \"MemberAccountManager1.sol\":300:9582  contract MemberAccountManager is Ownable {... */\n      swap1\n      dup2\n      sload\n        /* \"MemberAccountManager1.sol\":4267:4452  for (uint256 i = 0; i < pot.cycleIds.length; i++) {... */\n      swap1\n        /* \"MemberAccountManager1.sol\":4287:4310  i < pot.cycleIds.length */\n    tag_92:\n      dup2\n      dup2\n      lt\n      tag_93\n      jumpi\n        /* \"MemberAccountManager1.sol\":4267:4452  for (uint256 i = 0; i < pot.cycleIds.length; i++) {... */\n    tag_94:\n        /* \"MemberAccountManager1.sol\":4468:4480  !cycleExists */\n      pop\n      pop\n      swap1\n      swap2\n      swap3\n      swap4\n      dup1\n      swap6\n      swap7\n      iszero\n        /* \"MemberAccountManager1.sol\":4464:4586  if (!cycleExists) {... */\n      tag_95\n      jumpi\n        /* \"MemberAccountManager1.sol\":4267:4452  for (uint256 i = 0; i < pot.cycleIds.length; i++) {... */\n    tag_96:\n        /* \"MemberAccountManager1.sol\":300:9582  contract MemberAccountManager is Ownable {... */\n      pop\n      pop\n      mload(0x40)\n      swap1\n      tag_97\n      dup3\n      tag_12\n      jump\t// in\n    tag_97:\n      dup5\n      dup3\n      mstore\n      tag_98\n      0x03\n      0x20\n        /* \"MemberAccountManager1.sol\":4632:4815  CycleParticipation({... */\n      dup5\n      add\n        /* \"MemberAccountManager1.sol\":300:9582  contract MemberAccountManager is Ownable {... */\n      swap4\n      dup6\n      dup6\n      mstore\n      0x40\n        /* \"MemberAccountManager1.sol\":4632:4815  CycleParticipation({... */\n      dup2\n      add\n        /* \"MemberAccountManager1.sol\":300:9582  contract MemberAccountManager is Ownable {... */\n      0x00\n      dup2\n      mstore\n        /* \"MemberAccountManager1.sol\":4632:4815  CycleParticipation({... */\n      0x60\n      dup3\n      add\n        /* \"MemberAccountManager1.sol\":300:9582  contract MemberAccountManager is Ownable {... */\n      swap6\n      0x00\n      dup8\n      mstore\n        /* \"MemberAccountManager1.sol\":4632:4815  CycleParticipation({... */\n      dup4\n      0x80\n      dup5\n      add\n        /* \"MemberAccountManager1.sol\":300:9582  contract MemberAccountManager is Ownable {... */\n      swap7\n      0x00\n      dup9\n      mstore\n      dup12\n      0x00\n      mstore\n        /* \"MemberAccountManager1.sol\":4598:4620  pot.cycleParticipation */\n      add\n        /* \"MemberAccountManager1.sol\":300:9582  contract MemberAccountManager is Ownable {... */\n      0x20\n      mstore\n      keccak256(0x00, 0x40)\n      swap3\n      mload\n      dup4\n      sstore\n      mload\n        /* \"MemberAccountManager1.sol\":2110:2124  memberProfiles */\n      0x01\n        /* \"MemberAccountManager1.sol\":300:9582  contract MemberAccountManager is Ownable {... */\n      dup4\n      add\n      sstore\n      mload\n        /* \"MemberAccountManager1.sol\":4291:4303  pot.cycleIds */\n      0x02\n        /* \"MemberAccountManager1.sol\":300:9582  contract MemberAccountManager is Ownable {... */\n      dup3\n      add\n      sstore\n      add\n      swap3\n      mload\n      iszero\n      iszero\n      dup4\n      swap1\n      0xff\n      dup1\n      not\n      dup4\n      sload\n      and\n      swap2\n      iszero\n      iszero\n      and\n      or\n      swap1\n      sstore\n      jump\n    tag_98:\n      mload\n      iszero\n      iszero\n      0xff00\n      dup3\n      sload\n      swap2\n        /* \"MemberAccountManager1.sol\":3816:3828  profile.pots */\n      0x08\n        /* \"MemberAccountManager1.sol\":300:9582  contract MemberAccountManager is Ownable {... */\n      shl\n      and\n      swap1\n      not(0xff00)\n      and\n      or\n      swap1\n      sstore\n        /* \"MemberAccountManager1.sol\":4828:4869  profile.totalContribution += contribution */\n      tag_99\n        /* \"MemberAccountManager1.sol\":300:9582  contract MemberAccountManager is Ownable {... */\n      0x03\n        /* \"MemberAccountManager1.sol\":4828:4853  profile.totalContribution */\n      dup6\n      add\n        /* \"MemberAccountManager1.sol\":300:9582  contract MemberAccountManager is Ownable {... */\n      swap2\n      dup3\n      sload\n        /* \"MemberAccountManager1.sol\":4828:4869  profile.totalContribution += contribution */\n      tag_9\n      jump\t// in\n    tag_99:\n        /* \"MemberAccountManager1.sol\":300:9582  contract MemberAccountManager is Ownable {... */\n      swap1\n      sstore\n      0x04\n        /* \"MemberAccountManager1.sol\":4880:4903  profile.reputationScore */\n      dup4\n      add\n        /* \"MemberAccountManager1.sol\":300:9582  contract MemberAccountManager is Ownable {... */\n      swap2\n      dup3\n      sload\n      swap4\n        /* \"MemberAccountManager1.sol\":4291:4303  pot.cycleIds */\n      0x02\n        /* \"MemberAccountManager1.sol\":300:9582  contract MemberAccountManager is Ownable {... */\n      dup6\n      add\n      dup1\n      swap6\n      gt\n      tag_100\n      jumpi\n        /* \"MemberAccountManager1.sol\":4982:5024  ParticipationUpdated(user, potId, cycleId) */\n      0xa0be4606c50f4183c8e5e8a16d1944cec3d3cb766e0d92919e5bbe2e3e9b3991\n        /* \"MemberAccountManager1.sol\":300:9582  contract MemberAccountManager is Ownable {... */\n      swap5\n      0x40\n      swap5\n      sstore\n        /* \"MemberAccountManager1.sol\":4919:4946  profile.lastJoinedTimestamp */\n      0x05\n        /* \"MemberAccountManager1.sol\":4949:4964  block.timestamp */\n      timestamp\n        /* \"MemberAccountManager1.sol\":4919:4946  profile.lastJoinedTimestamp */\n      swap2\n      add\n        /* \"MemberAccountManager1.sol\":300:9582  contract MemberAccountManager is Ownable {... */\n      sstore\n      dup3\n      mload\n      swap2\n      dup3\n      mstore\n      0x20\n      dup3\n      add\n      mstore\n        /* \"MemberAccountManager1.sol\":4982:5024  ParticipationUpdated(user, potId, cycleId) */\n      log2\n        /* \"MemberAccountManager1.sol\":300:9582  contract MemberAccountManager is Ownable {... */\n      stop\n    tag_100:\n      mstore(0x00, shl(0xe0, 0x4e487b71))\n      mstore(0x04, 0x11)\n      revert(0x00, 0x24)\n        /* \"MemberAccountManager1.sol\":4464:4586  if (!cycleExists) {... */\n    tag_95:\n        /* \"MemberAccountManager1.sol\":4497:4523  pot.cycleIds.push(cycleId) */\n      tag_102\n      swap2\n      tag_17\n      jump\t// in\n    tag_102:\n        /* \"MemberAccountManager1.sol\":2110:2124  memberProfiles */\n      0x01\n        /* \"MemberAccountManager1.sol\":4538:4569  profile.totalCyclesParticipated */\n      dup6\n      add\n        /* \"MemberAccountManager1.sol\":300:9582  contract MemberAccountManager is Ownable {... */\n      dup1\n      sload\n      swap1\n        /* \"MemberAccountManager1.sol\":2110:2124  memberProfiles */\n      0x01\n        /* \"MemberAccountManager1.sol\":300:9582  contract MemberAccountManager is Ownable {... */\n      dup3\n      add\n      dup1\n      swap3\n      gt\n      tag_100\n      jumpi\n      sstore\n        /* \"MemberAccountManager1.sol\":4464:4586  if (!cycleExists) {... */\n      dup7\n      dup5\n      jump(tag_96)\n        /* \"MemberAccountManager1.sol\":4312:4315  i++ */\n    tag_93:\n        /* \"MemberAccountManager1.sol\":4336:4351  pot.cycleIds[i] */\n      dup7\n      tag_105\n      dup3\n      dup6\n      tag_15\n      jump\t// in\n    tag_105:\n        /* \"MemberAccountManager1.sol\":300:9582  contract MemberAccountManager is Ownable {... */\n      swap1\n      sload\n      swap1\n      0x03\n      shl\n      shr\n        /* \"MemberAccountManager1.sol\":4336:4362  pot.cycleIds[i] == cycleId */\n      eq\n        /* \"MemberAccountManager1.sol\":4332:4441  if (pot.cycleIds[i] == cycleId) {... */\n      tag_106\n      jumpi\n        /* \"MemberAccountManager1.sol\":2110:2124  memberProfiles */\n      0x01\n        /* \"MemberAccountManager1.sol\":300:9582  contract MemberAccountManager is Ownable {... */\n      add\n        /* \"MemberAccountManager1.sol\":4272:4285  uint256 i = 0 */\n      jump(tag_92)\n        /* \"MemberAccountManager1.sol\":4332:4441  if (pot.cycleIds[i] == cycleId) {... */\n    tag_106:\n      pop\n        /* \"MemberAccountManager1.sol\":2110:2124  memberProfiles */\n      0x01\n      swap8\n      pop\n        /* \"MemberAccountManager1.sol\":4383:4401  cycleExists = true */\n      dup6\n      swap1\n      pop\n        /* \"MemberAccountManager1.sol\":4420:4425  break */\n      dup10\n      jump(tag_94)\n        /* \"MemberAccountManager1.sol\":3894:4178  if (pot.potId == 0) {... */\n    tag_90:\n        /* \"MemberAccountManager1.sol\":300:9582  contract MemberAccountManager is Ownable {... */\n      dup3\n      dup7\n      sstore\n        /* \"MemberAccountManager1.sol\":3961:3986  pot.isCreator = isCreator */\n      tag_108\n        /* \"MemberAccountManager1.sol\":3961:3974  pot.isCreator */\n      dup2\n        /* \"MemberAccountManager1.sol\":2110:2124  memberProfiles */\n      0x01\n        /* \"MemberAccountManager1.sol\":3961:3974  pot.isCreator */\n      dup9\n      add\n        /* \"MemberAccountManager1.sol\":300:9582  contract MemberAccountManager is Ownable {... */\n      swap1\n      0xff\n      dup1\n      not\n      dup4\n      sload\n      and\n      swap2\n      iszero\n      iszero\n      and\n      or\n      swap1\n      sstore\n      jump\n        /* \"MemberAccountManager1.sol\":3961:3986  pot.isCreator = isCreator */\n    tag_108:\n        /* \"MemberAccountManager1.sol\":4015:4167  if (isCreator) {... */\n      iszero\n      tag_109\n      jumpi\n        /* \"MemberAccountManager1.sol\":4049:4080  profile.createdPots.push(potId) */\n      tag_111\n        /* \"MemberAccountManager1.sol\":4049:4068  profile.createdPots */\n      dup3\n      0x06\n      dup7\n      add\n        /* \"MemberAccountManager1.sol\":4049:4080  profile.createdPots.push(potId) */\n      tag_17\n      jump\t// in\n    tag_111:\n        /* \"MemberAccountManager1.sol\":3894:4178  if (pot.potId == 0) {... */\n      dup7\n      jump(tag_91)\n        /* \"MemberAccountManager1.sol\":4015:4167  if (isCreator) {... */\n    tag_109:\n        /* \"MemberAccountManager1.sol\":4121:4151  profile.joinedPots.push(potId) */\n      tag_113\n        /* \"MemberAccountManager1.sol\":4121:4139  profile.joinedPots */\n      dup3\n      0x07\n      dup7\n      add\n        /* \"MemberAccountManager1.sol\":4121:4151  profile.joinedPots.push(potId) */\n      tag_17\n      jump\t// in\n    tag_113:\n        /* \"MemberAccountManager1.sol\":4015:4167  if (isCreator) {... */\n      jump(tag_111)\n        /* \"MemberAccountManager1.sol\":300:9582  contract MemberAccountManager is Ownable {... */\n    tag_88:\n      mload(0x40)\n      shl(0xe5, 0x461bcd)\n      dup2\n      mstore\n      0x20\n      0x04\n      dup3\n      add\n      mstore\n      0x14\n      0x24\n      dup3\n      add\n      mstore\n      shl(0x61, 0x24b73b30b634b21031b7b73a3934b13aba34b7b7)\n      0x44\n      dup3\n      add\n      mstore\n      0x64\n      swap1\n      revert\n    tag_86:\n      mload(0x40)\n      shl(0xe5, 0x461bcd)\n      dup2\n      mstore\n      0x20\n      0x04\n      dup3\n      add\n      mstore\n      0x10\n      0x24\n      dup3\n      add\n      mstore\n      shl(0x82, 0x125b9d985b1a590818de58db19481251)\n      0x44\n      dup3\n      add\n      mstore\n      0x64\n      swap1\n      revert\n    tag_84:\n      mload(0x40)\n      shl(0xe5, 0x461bcd)\n      dup2\n      mstore\n      0x20\n      0x04\n      dup3\n      add\n      mstore\n      0x0e\n      0x24\n      dup3\n      add\n      mstore\n      shl(0x92, 0x125b9d985b1a59081c1bdd081251)\n      0x44\n      dup3\n      add\n      mstore\n      0x64\n      swap1\n      revert\n        /* \"MemberAccountManager1.sol\":2238:2292  authorizedCallers[msg.sender] || msg.sender == owner() */\n    tag_80:\n      pop\n        /* \"MemberAccountManager1.sol\":300:9582  contract MemberAccountManager is Ownable {... */\n      and(sub(shl(0xa0, 0x01), 0x01), sload(0x00))\n        /* \"MemberAccountManager1.sol\":2256:2266  msg.sender */\n      caller\n        /* \"MemberAccountManager1.sol\":2271:2292  msg.sender == owner() */\n      eq\n        /* \"MemberAccountManager1.sol\":2238:2292  authorizedCallers[msg.sender] || msg.sender == owner() */\n      jump(tag_81)\n        /* \"MemberAccountManager1.sol\":300:9582  contract MemberAccountManager is Ownable {... */\n    tag_52:\n      jumpi(tag_62, callvalue)\n      jumpi(tag_62, slt(add(not(0x03), calldatasize), 0x20))\n      sub(shl(0xa0, 0x01), 0x01)\n      tag_118\n      tag_1\n      jump\t// in\n    tag_118:\n      and\n      0x00\n      mstore\n        /* \"MemberAccountManager1.sol\":7905:7919  memberProfiles */\n      0x01\n        /* \"MemberAccountManager1.sol\":300:9582  contract MemberAccountManager is Ownable {... */\n      0x20\n      mstore\n      keccak256(0x00, 0x40)\n      0xff\n      dup2\n      sload\n      and\n      tag_119\n        /* \"MemberAccountManager1.sol\":7905:7919  memberProfiles */\n      0x01\n        /* \"MemberAccountManager1.sol\":7985:8010  p.totalCyclesParticipated */\n      dup4\n      add\n        /* \"MemberAccountManager1.sol\":300:9582  contract MemberAccountManager is Ownable {... */\n      sload\n        /* \"MemberAccountManager1.sol\":8025:8041  p.totalCyclesWon */\n      swap3\n        /* \"MemberAccountManager1.sol\":300:9582  contract MemberAccountManager is Ownable {... */\n      tag_120\n        /* \"MemberAccountManager1.sol\":8025:8041  p.totalCyclesWon */\n      0x02\n      dup3\n      add\n        /* \"MemberAccountManager1.sol\":300:9582  contract MemberAccountManager is Ownable {... */\n      sload\n        /* \"MemberAccountManager1.sol\":8056:8075  p.totalContribution */\n      swap2\n      0x03\n      dup2\n      add\n        /* \"MemberAccountManager1.sol\":300:9582  contract MemberAccountManager is Ownable {... */\n      sload\n      0x04\n        /* \"MemberAccountManager1.sol\":8090:8107  p.reputationScore */\n      dup3\n      add\n        /* \"MemberAccountManager1.sol\":300:9582  contract MemberAccountManager is Ownable {... */\n      sload\n        /* \"MemberAccountManager1.sol\":8122:8143  p.lastJoinedTimestamp */\n      0x05\n      dup4\n      add\n        /* \"MemberAccountManager1.sol\":300:9582  contract MemberAccountManager is Ownable {... */\n      sload\n        /* \"MemberAccountManager1.sol\":8158:8171  p.createdPots */\n      swap2\n        /* \"MemberAccountManager1.sol\":300:9582  contract MemberAccountManager is Ownable {... */\n      tag_121\n        /* \"MemberAccountManager1.sol\":8186:8198  p.joinedPots */\n      0x07\n        /* \"MemberAccountManager1.sol\":300:9582  contract MemberAccountManager is Ownable {... */\n      tag_122\n        /* \"MemberAccountManager1.sol\":8158:8171  p.createdPots */\n      0x06\n      dup8\n      add\n        /* \"MemberAccountManager1.sol\":300:9582  contract MemberAccountManager is Ownable {... */\n      tag_14\n      jump\t// in\n    tag_122:\n        /* \"MemberAccountManager1.sol\":8186:8198  p.joinedPots */\n      swap6\n      add\n        /* \"MemberAccountManager1.sol\":300:9582  contract MemberAccountManager is Ownable {... */\n      tag_14\n      jump\t// in\n    tag_121:\n      swap6\n      mload(0x40)\n      swap10\n      dup11\n      swap10\n      iszero\n      iszero\n      dup11\n      mstore\n      0x20\n      dup11\n      add\n      mstore\n      0x40\n      dup10\n      add\n      mstore\n      0x60\n      dup9\n      add\n      mstore\n      0x80\n      dup8\n      add\n      mstore\n      0xa0\n      dup7\n      add\n      mstore\n      0x0100\n      0xc0\n      dup7\n      add\n      mstore\n      0x0100\n      dup6\n      add\n      swap1\n      tag_3\n      jump\t// in\n    tag_120:\n      swap1\n      dup4\n      dup3\n      sub\n      0xe0\n      dup6\n      add\n      mstore\n      tag_3\n      jump\t// in\n    tag_119:\n      sub\n      swap1\n      return\n    tag_50:\n      jumpi(tag_62, callvalue)\n      tag_125\n      calldatasize\n      tag_4\n      jump\t// in\n    tag_125:\n        /* \"MemberAccountManager1.sol\":2256:2266  msg.sender */\n      swap1\n      swap4\n      swap3\n      swap2\n      swap3\n      caller\n        /* \"MemberAccountManager1.sol\":300:9582  contract MemberAccountManager is Ownable {... */\n      0x00\n      mstore\n      mstore(0x20, 0x04)\n      and(sload(keccak256(0x00, 0x40)), 0xff)\n        /* \"MemberAccountManager1.sol\":2238:2292  authorizedCallers[msg.sender] || msg.sender == owner() */\n      dup1\n      iszero\n      tag_126\n      jumpi\n        /* \"MemberAccountManager1.sol\":300:9582  contract MemberAccountManager is Ownable {... */\n    tag_127:\n        /* \"MemberAccountManager1.sol\":2230:2311  require(authorizedCallers[msg.sender] || msg.sender == owner(), \"Not authorized\") */\n      tag_128\n      swap1\n      tag_5\n      jump\t// in\n    tag_128:\n        /* \"MemberAccountManager1.sol\":300:9582  contract MemberAccountManager is Ownable {... */\n      0x01\n      dup1\n      0xa0\n      shl\n      sub\n      and\n      swap4\n      dup5\n      0x00\n      mstore\n        /* \"MemberAccountManager1.sol\":2110:2124  memberProfiles */\n      0x01\n        /* \"MemberAccountManager1.sol\":300:9582  contract MemberAccountManager is Ownable {... */\n      0x20\n      mstore\n        /* \"MemberAccountManager1.sol\":2102:2165  require(memberProfiles[user].registered, \"User not registered\") */\n      tag_129\n        /* \"MemberAccountManager1.sol\":300:9582  contract MemberAccountManager is Ownable {... */\n      and(sload(keccak256(0x00, 0x40)), 0xff)\n        /* \"MemberAccountManager1.sol\":2102:2165  require(memberProfiles[user].registered, \"User not registered\") */\n      tag_6\n      jump\t// in\n    tag_129:\n        /* \"MemberAccountManager1.sol\":300:9582  contract MemberAccountManager is Ownable {... */\n      dup5\n      0x00\n      mstore\n        /* \"MemberAccountManager1.sol\":2110:2124  memberProfiles */\n      0x01\n        /* \"MemberAccountManager1.sol\":300:9582  contract MemberAccountManager is Ownable {... */\n      0x20\n      mstore\n        /* \"MemberAccountManager1.sol\":6167:6192  memberProfiles[user].pots */\n      0x08\n        /* \"MemberAccountManager1.sol\":300:9582  contract MemberAccountManager is Ownable {... */\n      keccak256(0x00, 0x40)\n        /* \"MemberAccountManager1.sol\":6167:6192  memberProfiles[user].pots */\n      add\n        /* \"MemberAccountManager1.sol\":300:9582  contract MemberAccountManager is Ownable {... */\n      dup4\n      0x00\n      mstore\n      0x20\n      mstore\n        /* \"MemberAccountManager1.sol\":6314:6336  pot.cycleParticipation */\n      0x03\n        /* \"MemberAccountManager1.sol\":300:9582  contract MemberAccountManager is Ownable {... */\n      keccak256(0x00, 0x40)\n        /* \"MemberAccountManager1.sol\":6210:6250  require(pot.potId != 0, \"Pot not found\") */\n      tag_130\n        /* \"MemberAccountManager1.sol\":300:9582  contract MemberAccountManager is Ownable {... */\n      dup2\n      sload\n        /* \"MemberAccountManager1.sol\":6218:6232  pot.potId != 0 */\n      iszero\n      iszero\n        /* \"MemberAccountManager1.sol\":6210:6250  require(pot.potId != 0, \"Pot not found\") */\n      tag_7\n      jump\t// in\n    tag_130:\n        /* \"MemberAccountManager1.sol\":300:9582  contract MemberAccountManager is Ownable {... */\n      dup6\n      0x00\n      mstore\n        /* \"MemberAccountManager1.sol\":6314:6336  pot.cycleParticipation */\n      add\n        /* \"MemberAccountManager1.sol\":300:9582  contract MemberAccountManager is Ownable {... */\n      0x20\n      mstore\n      dup2\n        /* \"MemberAccountManager1.sol\":6477:6506  participation.didBid = didBid */\n      tag_131\n        /* \"MemberAccountManager1.sol\":300:9582  contract MemberAccountManager is Ownable {... */\n      dup2\n        /* \"MemberAccountManager1.sol\":6314:6336  pot.cycleParticipation */\n      0x03\n        /* \"MemberAccountManager1.sol\":300:9582  contract MemberAccountManager is Ownable {... */\n      keccak256(0x00, 0x40)\n        /* \"MemberAccountManager1.sol\":6356:6410  require(participation.cycleId != 0, \"Cycle not found\") */\n      tag_132\n        /* \"MemberAccountManager1.sol\":300:9582  contract MemberAccountManager is Ownable {... */\n      dup2\n      sload\n        /* \"MemberAccountManager1.sol\":6364:6390  participation.cycleId != 0 */\n      iszero\n      iszero\n        /* \"MemberAccountManager1.sol\":6356:6410  require(participation.cycleId != 0, \"Cycle not found\") */\n      tag_8\n      jump\t// in\n    tag_132:\n        /* \"MemberAccountManager1.sol\":6431:6454  participation.bidAmount */\n      dup6\n      0x02\n      dup3\n      add\n        /* \"MemberAccountManager1.sol\":300:9582  contract MemberAccountManager is Ownable {... */\n      sstore\n        /* \"MemberAccountManager1.sol\":6477:6497  participation.didBid */\n      add\n        /* \"MemberAccountManager1.sol\":300:9582  contract MemberAccountManager is Ownable {... */\n      swap1\n      0xff\n      dup1\n      not\n      dup4\n      sload\n      and\n      swap2\n      iszero\n      iszero\n      and\n      or\n      swap1\n      sstore\n      jump\n        /* \"MemberAccountManager1.sol\":6477:6506  participation.didBid = didBid */\n    tag_131:\n        /* \"MemberAccountManager1.sol\":6519:6599  if (didBid) {... */\n      tag_133\n      jumpi\n        /* \"MemberAccountManager1.sol\":300:9582  contract MemberAccountManager is Ownable {... */\n    tag_134:\n      swap1\n      0x80\n      swap3\n      swap2\n        /* \"MemberAccountManager1.sol\":6616:6667  BidUpdated(user, potId, cycleId, bidAmount, didBid) */\n      0xc0de796d4c53c794ddc49e1664f53f55fe5fa868fc58d331893de93b0796cd40\n        /* \"MemberAccountManager1.sol\":300:9582  contract MemberAccountManager is Ownable {... */\n      swap5\n      mload(0x40)\n      swap4\n      dup5\n      mstore\n      0x20\n      dup5\n      add\n      mstore\n      0x40\n      dup4\n      add\n      mstore\n      iszero\n      iszero\n      0x60\n      dup3\n      add\n      mstore\n        /* \"MemberAccountManager1.sol\":6616:6667  BidUpdated(user, potId, cycleId, bidAmount, didBid) */\n      log2\n        /* \"MemberAccountManager1.sol\":300:9582  contract MemberAccountManager is Ownable {... */\n      stop\n        /* \"MemberAccountManager1.sol\":6519:6599  if (didBid) {... */\n    tag_133:\n        /* \"MemberAccountManager1.sol\":300:9582  contract MemberAccountManager is Ownable {... */\n      swap2\n      swap1\n      dup5\n      0x00\n      mstore\n        /* \"MemberAccountManager1.sol\":2110:2124  memberProfiles */\n      0x01\n        /* \"MemberAccountManager1.sol\":300:9582  contract MemberAccountManager is Ownable {... */\n      0x20\n      mstore\n      0x04\n      keccak256(0x00, 0x40)\n        /* \"MemberAccountManager1.sol\":6546:6582  memberProfiles[user].reputationScore */\n      add\n        /* \"MemberAccountManager1.sol\":300:9582  contract MemberAccountManager is Ownable {... */\n      swap3\n      dup4\n      sload\n      swap5\n        /* \"MemberAccountManager1.sol\":2110:2124  memberProfiles */\n      0x01\n        /* \"MemberAccountManager1.sol\":300:9582  contract MemberAccountManager is Ownable {... */\n      dup7\n      add\n      dup1\n      swap7\n      gt\n      tag_100\n      jumpi\n      swap5\n      swap1\n      swap4\n      sstore\n        /* \"MemberAccountManager1.sol\":6519:6599  if (didBid) {... */\n      swap1\n      swap2\n      jump(tag_134)\n        /* \"MemberAccountManager1.sol\":2238:2292  authorizedCallers[msg.sender] || msg.sender == owner() */\n    tag_126:\n      pop\n        /* \"MemberAccountManager1.sol\":300:9582  contract MemberAccountManager is Ownable {... */\n      and(sub(shl(0xa0, 0x01), 0x01), sload(0x00))\n        /* \"MemberAccountManager1.sol\":2256:2266  msg.sender */\n      caller\n        /* \"MemberAccountManager1.sol\":2271:2292  msg.sender == owner() */\n      eq\n        /* \"MemberAccountManager1.sol\":2238:2292  authorizedCallers[msg.sender] || msg.sender == owner() */\n      jump(tag_127)\n        /* \"MemberAccountManager1.sol\":300:9582  contract MemberAccountManager is Ownable {... */\n    tag_48:\n      jumpi(tag_62, callvalue)\n      jumpi(tag_62, slt(add(not(0x03), calldatasize), 0x20))\n      sub(shl(0xa0, 0x01), 0x01)\n      tag_141\n      tag_1\n      jump\t// in\n    tag_141:\n      and\n      0x00\n      mstore\n        /* \"MemberAccountManager1.sol\":8308:8322  memberProfiles */\n      0x01\n        /* \"MemberAccountManager1.sol\":300:9582  contract MemberAccountManager is Ownable {... */\n      0x20\n      mstore\n      0x20\n      and(sload(keccak256(0x00, 0x40)), 0xff)\n      mload(0x40)\n      swap1\n      iszero\n      iszero\n      dup2\n      mstore\n      return\n    tag_46:\n      jumpi(tag_62, callvalue)\n      jumpi(tag_62, slt(add(not(0x03), calldatasize), 0x20))\n      calldataload(0x04)\n        /* \"MemberAccountManager1.sol\":8574:8591  registeredMembers */\n      0x02\n        /* \"MemberAccountManager1.sol\":300:9582  contract MemberAccountManager is Ownable {... */\n      sload\n        /* \"MemberAccountManager1.sol\":8566:8600  index < registeredMembers.length() */\n      dup2\n      lt\n        /* \"MemberAccountManager1.sol\":300:9582  contract MemberAccountManager is Ownable {... */\n      iszero\n      tag_146\n      jumpi\n        /* \"MemberAccountManager1.sol\":8574:8591  registeredMembers */\n      0x02\n        /* \"MemberAccountManager1.sol\":300:9582  contract MemberAccountManager is Ownable {... */\n      sload\n      dup2\n      lt\n      iszero\n      tag_148\n      jumpi\n        /* \"MemberAccountManager1.sol\":8574:8591  registeredMembers */\n      0x02\n        /* \"MemberAccountManager1.sol\":300:9582  contract MemberAccountManager is Ownable {... */\n      0x00\n      mstore\n      0x405787fa12a823e0f2b7631cc41b3ba8828b3321ca811111fa75cd3aa3bb5ace\n      add\n      sload\n      mload(0x40)\n      sub(shl(0xa0, 0x01), 0x01)\n      swap1\n      swap2\n      and\n      dup2\n      mstore\n      0x20\n      swap1\n      return\n    tag_148:\n      mstore(0x00, shl(0xe0, 0x4e487b71))\n      mstore(0x04, 0x32)\n      revert(0x00, 0x24)\n    tag_146:\n      mload(0x40)\n      shl(0xe5, 0x461bcd)\n      dup2\n      mstore\n      0x20\n      0x04\n      dup3\n      add\n      mstore\n      0x13\n      0x24\n      dup3\n      add\n      mstore\n      shl(0x68, 0x496e646578206f7574206f6620626f756e6473)\n      0x44\n      dup3\n      add\n      mstore\n      0x64\n      swap1\n      revert\n    tag_44:\n      jumpi(tag_62, callvalue)\n      jumpi(tag_62, slt(add(not(0x03), calldatasize), 0x20))\n      tag_154\n      tag_1\n      jump\t// in\n    tag_154:\n        /* \"@openzeppelin/contracts/access/Ownable.sol\":1500:1562  modifier onlyOwner() {... */\n      tag_155\n      tag_18\n      jump\t// in\n    tag_155:\n      sub(shl(0xa0, 0x01), 0x01)\n        /* \"MemberAccountManager1.sol\":300:9582  contract MemberAccountManager is Ownable {... */\n      and\n      0x00\n      dup2\n      dup2\n      mstore\n      mstore(0x20, 0x04)\n      0x40\n      dup2\n      keccak256\n      dup1\n      sload\n      not(0xff)\n      and\n      swap1\n      sstore\n        /* \"MemberAccountManager1.sol\":2737:2768  AuthorizedCallerRemoved(caller) */\n      0xc3803387881faad271c47728894e3e36fac830ffc8602ca6fc07733cbda77580\n      swap1\n        /* \"MemberAccountManager1.sol\":300:9582  contract MemberAccountManager is Ownable {... */\n      dup1\n        /* \"MemberAccountManager1.sol\":2737:2768  AuthorizedCallerRemoved(caller) */\n      log2\n        /* \"MemberAccountManager1.sol\":300:9582  contract MemberAccountManager is Ownable {... */\n      stop\n    tag_42:\n      jumpi(tag_62, callvalue)\n      jumpi(tag_62, slt(add(not(0x03), calldatasize), 0x40))\n      sub(shl(0xa0, 0x01), 0x01)\n      tag_160\n      tag_1\n      jump\t// in\n    tag_160:\n      and\n      0x00\n      mstore\n      mstore(0x20, 0x01)\n        /* \"MemberAccountManager1.sol\":9080:9105  memberProfiles[user].pots */\n      0x08\n        /* \"MemberAccountManager1.sol\":300:9582  contract MemberAccountManager is Ownable {... */\n      keccak256(0x00, 0x40)\n        /* \"MemberAccountManager1.sol\":9080:9105  memberProfiles[user].pots */\n      add\n        /* \"MemberAccountManager1.sol\":300:9582  contract MemberAccountManager is Ownable {... */\n      mstore(0x00, calldataload(0x24))\n      0x20\n      mstore\n      tag_119\n      tag_162\n        /* \"MemberAccountManager1.sol\":9080:9121  memberProfiles[user].pots[potId].cycleIds */\n      0x02\n        /* \"MemberAccountManager1.sol\":300:9582  contract MemberAccountManager is Ownable {... */\n      keccak256(0x00, 0x40)\n        /* \"MemberAccountManager1.sol\":9080:9121  memberProfiles[user].pots[potId].cycleIds */\n      add\n        /* \"MemberAccountManager1.sol\":300:9582  contract MemberAccountManager is Ownable {... */\n      tag_14\n      jump\t// in\n    tag_162:\n      mload(0x40)\n      swap2\n      dup3\n      swap2\n      0x20\n      dup4\n      mstore\n      0x20\n      dup4\n      add\n      swap1\n      tag_3\n      jump\t// in\n    tag_40:\n      jumpi(tag_62, callvalue)\n      jumpi(tag_62, slt(add(not(0x03), calldatasize), 0x20))\n      0x20\n      tag_167\n      tag_168\n      tag_1\n      jump\t// in\n    tag_168:\n      tag_13\n      jump\t// in\n    tag_167:\n      mload(0x40)\n      swap1\n      dup2\n      mstore\n      return\n    tag_38:\n      jumpi(tag_62, callvalue)\n      jumpi(tag_62, slt(add(not(0x03), calldatasize), 0x00))\n      0x20\n        /* \"MemberAccountManager1.sol\":8432:8449  registeredMembers */\n      0x02\n        /* \"MemberAccountManager1.sol\":300:9582  contract MemberAccountManager is Ownable {... */\n      sload\n      mload(0x40)\n      swap1\n      dup2\n      mstore\n      return\n    tag_36:\n      jumpi(tag_62, callvalue)\n      jumpi(tag_62, slt(add(not(0x03), calldatasize), 0x00))\n      sload(0x00)\n      mload(0x40)\n      sub(shl(0xa0, 0x01), 0x01)\n      swap1\n      swap2\n      and\n      dup2\n      mstore\n      0x20\n      swap1\n      return\n    tag_34:\n      jumpi(tag_62, callvalue)\n      jumpi(tag_62, slt(add(not(0x03), calldatasize), 0x20))\n      sub(shl(0xa0, 0x01), 0x01)\n      tag_181\n      tag_1\n      jump\t// in\n    tag_181:\n      and\n      0x00\n      mstore\n        /* \"MemberAccountManager1.sol\":9229:9243  memberProfiles */\n      0x01\n        /* \"MemberAccountManager1.sol\":300:9582  contract MemberAccountManager is Ownable {... */\n      0x20\n      mstore\n      0x20\n      0x04\n      keccak256(0x00, 0x40)\n        /* \"MemberAccountManager1.sol\":9229:9265  memberProfiles[user].reputationScore */\n      add\n        /* \"MemberAccountManager1.sol\":300:9582  contract MemberAccountManager is Ownable {... */\n      sload\n      mload(0x40)\n      swap1\n      dup2\n      mstore\n      return\n    tag_32:\n      jumpi(tag_62, callvalue)\n      jumpi(tag_62, slt(add(not(0x03), calldatasize), 0x00))\n        /* \"@openzeppelin/contracts/access/Ownable.sol\":1500:1562  modifier onlyOwner() {... */\n      tag_186\n      tag_18\n      jump\t// in\n    tag_186:\n        /* \"MemberAccountManager1.sol\":300:9582  contract MemberAccountManager is Ownable {... */\n      0x00\n      dup1\n      sload\n      not(sub(shl(0xa0, 0x01), 0x01))\n      dup2\n      and\n      dup3\n      sstore\n      sub(shl(0xa0, 0x01), 0x01)\n      and\n        /* \"@openzeppelin/contracts/access/Ownable.sol\":3052:3092  OwnershipTransferred(oldOwner, newOwner) */\n      0x8be0079c531659141344cd1fd0a4f28419497f9722a3daafe3b4186f6b6457e0\n        /* \"MemberAccountManager1.sol\":300:9582  contract MemberAccountManager is Ownable {... */\n      dup3\n      dup1\n        /* \"@openzeppelin/contracts/access/Ownable.sol\":3052:3092  OwnershipTransferred(oldOwner, newOwner) */\n      log3\n        /* \"MemberAccountManager1.sol\":300:9582  contract MemberAccountManager is Ownable {... */\n      stop\n    tag_30:\n      jumpi(tag_62, callvalue)\n      tag_189\n      calldatasize\n      tag_2\n      jump\t// in\n    tag_189:\n      swap2\n      0x00\n      0x80\n      mload(0x40)\n      tag_190\n      dup2\n      tag_12\n      jump\t// in\n    tag_190:\n      dup3\n      dup2\n      mstore\n      dup3\n      0x20\n      dup3\n      add\n      mstore\n      dup3\n      0x40\n      dup3\n      add\n      mstore\n      dup3\n      0x60\n      dup3\n      add\n      mstore\n      add\n      mstore\n      0x01\n      dup1\n      0xa0\n      shl\n      sub\n      and\n      0x00\n      mstore\n        /* \"MemberAccountManager1.sol\":8862:8876  memberProfiles */\n      0x01\n        /* \"MemberAccountManager1.sol\":300:9582  contract MemberAccountManager is Ownable {... */\n      0x20\n      mstore\n        /* \"MemberAccountManager1.sol\":8862:8887  memberProfiles[user].pots */\n      0x08\n        /* \"MemberAccountManager1.sol\":300:9582  contract MemberAccountManager is Ownable {... */\n      keccak256(0x00, 0x40)\n        /* \"MemberAccountManager1.sol\":8862:8887  memberProfiles[user].pots */\n      add\n        /* \"MemberAccountManager1.sol\":300:9582  contract MemberAccountManager is Ownable {... */\n      swap1\n      0x00\n      mstore\n      0x20\n      mstore\n        /* \"MemberAccountManager1.sol\":8862:8913  memberProfiles[user].pots[potId].cycleParticipation */\n      0x03\n        /* \"MemberAccountManager1.sol\":300:9582  contract MemberAccountManager is Ownable {... */\n      keccak256(0x00, 0x40)\n        /* \"MemberAccountManager1.sol\":8862:8913  memberProfiles[user].pots[potId].cycleParticipation */\n      add\n        /* \"MemberAccountManager1.sol\":300:9582  contract MemberAccountManager is Ownable {... */\n      swap1\n      0x00\n      mstore\n      0x20\n      mstore\n      0xa0\n      keccak256(0x00, 0x40)\n      mload(0x40)\n      swap1\n      tag_191\n      dup3\n      tag_12\n      jump\t// in\n    tag_191:\n      dup1\n      sload\n      swap2\n      dup3\n      dup2\n      mstore\n        /* \"MemberAccountManager1.sol\":8862:8876  memberProfiles */\n      0x01\n        /* \"MemberAccountManager1.sol\":300:9582  contract MemberAccountManager is Ownable {... */\n      dup3\n      add\n      sload\n      swap2\n      0x20\n      dup3\n      add\n      swap3\n      dup4\n      mstore\n        /* \"MemberAccountManager1.sol\":8862:8913  memberProfiles[user].pots[potId].cycleParticipation */\n      0x03\n        /* \"MemberAccountManager1.sol\":300:9582  contract MemberAccountManager is Ownable {... */\n      0x02\n      dup3\n      add\n      sload\n      swap2\n      0x40\n      dup5\n      add\n      swap3\n      dup4\n      mstore\n      add\n      sload\n      swap3\n      0xff\n      0x80\n      0x60\n      dup6\n      add\n      swap5\n      dup3\n      dup8\n      and\n      iszero\n      iszero\n      dup7\n      mstore\n      add\n      swap5\n        /* \"MemberAccountManager1.sol\":8862:8887  memberProfiles[user].pots */\n      0x08\n        /* \"MemberAccountManager1.sol\":300:9582  contract MemberAccountManager is Ownable {... */\n      shr\n      and\n      iszero\n      iszero\n      dup5\n      mstore\n      mload(0x40)\n      swap5\n      dup6\n      mstore\n      mload\n      0x20\n      dup6\n      add\n      mstore\n      mload\n      0x40\n      dup5\n      add\n      mstore\n      mload\n      iszero\n      iszero\n      0x60\n      dup4\n      add\n      mstore\n      mload\n      iszero\n      iszero\n      0x80\n      dup3\n      add\n      mstore\n      return\n    tag_28:\n      jumpi(tag_62, callvalue)\n      jumpi(tag_62, slt(add(not(0x03), calldatasize), 0x20))\n      sub(shl(0xa0, 0x01), 0x01)\n      tag_196\n      tag_1\n      jump\t// in\n    tag_196:\n      and\n      0x00\n      mstore\n      mstore(0x20, 0x04)\n      0x20\n      and(sload(keccak256(0x00, 0x40)), 0xff)\n      mload(0x40)\n      swap1\n      iszero\n      iszero\n      dup2\n      mstore\n      return\n    tag_26:\n      jumpi(tag_62, callvalue)\n      jumpi(tag_62, slt(add(not(0x03), calldatasize), 0x80))\n      tag_201\n      tag_1\n      jump\t// in\n    tag_201:\n      calldataload(0x24)\n      swap1\n      calldataload(0x44)\n      swap1\n      calldataload(0x64)\n        /* \"MemberAccountManager1.sol\":2256:2266  msg.sender */\n      swap1\n      caller\n        /* \"MemberAccountManager1.sol\":300:9582  contract MemberAccountManager is Ownable {... */\n      0x00\n      mstore\n      mstore(0x20, 0x04)\n      and(sload(keccak256(0x00, 0x40)), 0xff)\n        /* \"MemberAccountManager1.sol\":2238:2292  authorizedCallers[msg.sender] || msg.sender == owner() */\n      dup1\n      iszero\n      tag_202\n      jumpi\n        /* \"MemberAccountManager1.sol\":300:9582  contract MemberAccountManager is Ownable {... */\n    tag_203:\n        /* \"MemberAccountManager1.sol\":2230:2311  require(authorizedCallers[msg.sender] || msg.sender == owner(), \"Not authorized\") */\n      tag_204\n      swap1\n      tag_5\n      jump\t// in\n    tag_204:\n        /* \"MemberAccountManager1.sol\":300:9582  contract MemberAccountManager is Ownable {... */\n      0x01\n      dup1\n      0xa0\n      shl\n      sub\n      and\n      swap3\n      dup4\n      0x00\n      mstore\n      mstore(0x20, 0x01)\n        /* \"MemberAccountManager1.sol\":2102:2165  require(memberProfiles[user].registered, \"User not registered\") */\n      tag_205\n        /* \"MemberAccountManager1.sol\":300:9582  contract MemberAccountManager is Ownable {... */\n      and(sload(keccak256(0x00, 0x40)), 0xff)\n        /* \"MemberAccountManager1.sol\":2102:2165  require(memberProfiles[user].registered, \"User not registered\") */\n      tag_6\n      jump\t// in\n    tag_205:\n        /* \"MemberAccountManager1.sol\":5242:5252  amount > 0 */\n      dup2\n      iszero\n        /* \"MemberAccountManager1.sol\":300:9582  contract MemberAccountManager is Ownable {... */\n      tag_206\n      jumpi\n      dup4\n      0x00\n      mstore\n      mstore(0x20, 0x01)\n        /* \"MemberAccountManager1.sol\":5314:5339  memberProfiles[user].pots */\n      0x08\n        /* \"MemberAccountManager1.sol\":300:9582  contract MemberAccountManager is Ownable {... */\n      keccak256(0x00, 0x40)\n        /* \"MemberAccountManager1.sol\":5314:5339  memberProfiles[user].pots */\n      add\n        /* \"MemberAccountManager1.sol\":300:9582  contract MemberAccountManager is Ownable {... */\n      dup2\n      0x00\n      mstore\n      0x20\n      mstore\n        /* \"MemberAccountManager1.sol\":5461:5483  pot.cycleParticipation */\n      0x03\n        /* \"MemberAccountManager1.sol\":300:9582  contract MemberAccountManager is Ownable {... */\n      keccak256(0x00, 0x40)\n        /* \"MemberAccountManager1.sol\":5357:5397  require(pot.potId != 0, \"Pot not found\") */\n      tag_208\n        /* \"MemberAccountManager1.sol\":300:9582  contract MemberAccountManager is Ownable {... */\n      dup2\n      sload\n        /* \"MemberAccountManager1.sol\":5365:5379  pot.potId != 0 */\n      iszero\n      iszero\n        /* \"MemberAccountManager1.sol\":5357:5397  require(pot.potId != 0, \"Pot not found\") */\n      tag_7\n      jump\t// in\n    tag_208:\n        /* \"MemberAccountManager1.sol\":300:9582  contract MemberAccountManager is Ownable {... */\n      dup5\n      0x00\n      mstore\n        /* \"MemberAccountManager1.sol\":5461:5483  pot.cycleParticipation */\n      add\n        /* \"MemberAccountManager1.sol\":300:9582  contract MemberAccountManager is Ownable {... */\n      0x20\n      mstore\n      0x01\n      keccak256(0x00, 0x40)\n        /* \"MemberAccountManager1.sol\":5503:5557  require(participation.cycleId != 0, \"Cycle not found\") */\n      tag_209\n        /* \"MemberAccountManager1.sol\":300:9582  contract MemberAccountManager is Ownable {... */\n      dup2\n      sload\n        /* \"MemberAccountManager1.sol\":5511:5537  participation.cycleId != 0 */\n      iszero\n      iszero\n        /* \"MemberAccountManager1.sol\":5503:5557  require(participation.cycleId != 0, \"Cycle not found\") */\n      tag_8\n      jump\t// in\n    tag_209:\n        /* \"MemberAccountManager1.sol\":5604:5630  participation.contribution */\n      add\n        /* \"MemberAccountManager1.sol\":300:9582  contract MemberAccountManager is Ownable {... */\n      swap2\n      dup1\n      dup4\n      sload\n      swap4\n      sstore\n      dup5\n      0x00\n      mstore\n      mstore(0x20, 0x01)\n        /* \"MemberAccountManager1.sol\":5461:5483  pot.cycleParticipation */\n      0x03\n        /* \"MemberAccountManager1.sol\":300:9582  contract MemberAccountManager is Ownable {... */\n      keccak256(0x00, 0x40)\n        /* \"MemberAccountManager1.sol\":5790:5828  memberProfiles[user].totalContribution */\n      add\n        /* \"MemberAccountManager1.sol\":300:9582  contract MemberAccountManager is Ownable {... */\n      sload\n      swap3\n      dup4\n      sub\n      swap3\n      dup4\n      gt\n      tag_100\n      jumpi\n        /* \"MemberAccountManager1.sol\":5873:5920  PotFundingUpdated(user, potId, cycleId, amount) */\n      0x7d5f0ead71f858f368687dee537578b130a058facd6d86c4f4c84756850e42be\n        /* \"MemberAccountManager1.sol\":5790:5855  memberProfiles[user].totalContribution - oldContribution + amount */\n      swap4\n      tag_212\n      dup3\n        /* \"MemberAccountManager1.sol\":300:9582  contract MemberAccountManager is Ownable {... */\n      0x60\n        /* \"MemberAccountManager1.sol\":5790:5855  memberProfiles[user].totalContribution - oldContribution + amount */\n      swap6\n      tag_9\n      jump\t// in\n    tag_212:\n        /* \"MemberAccountManager1.sol\":300:9582  contract MemberAccountManager is Ownable {... */\n      dup7\n      0x00\n      mstore\n      mstore(0x20, 0x01)\n        /* \"MemberAccountManager1.sol\":5461:5483  pot.cycleParticipation */\n      0x03\n        /* \"MemberAccountManager1.sol\":300:9582  contract MemberAccountManager is Ownable {... */\n      keccak256(0x00, 0x40)\n        /* \"MemberAccountManager1.sol\":5735:5773  memberProfiles[user].totalContribution */\n      add\n        /* \"MemberAccountManager1.sol\":300:9582  contract MemberAccountManager is Ownable {... */\n      sstore\n      mload(0x40)\n      swap3\n      dup4\n      mstore\n      0x20\n      dup4\n      add\n      mstore\n      0x40\n      dup3\n      add\n      mstore\n        /* \"MemberAccountManager1.sol\":5873:5920  PotFundingUpdated(user, potId, cycleId, amount) */\n      log2\n        /* \"MemberAccountManager1.sol\":300:9582  contract MemberAccountManager is Ownable {... */\n      stop\n    tag_206:\n      mload(0x40)\n      shl(0xe5, 0x461bcd)\n      dup2\n      mstore\n      0x20\n      0x04\n      dup3\n      add\n      mstore\n      0x0e\n      0x24\n      dup3\n      add\n      mstore\n      shl(0x92, 0x125b9d985b1a5908185b5bdd5b9d)\n      0x44\n      dup3\n      add\n      mstore\n      0x64\n      swap1\n      revert\n        /* \"MemberAccountManager1.sol\":2238:2292  authorizedCallers[msg.sender] || msg.sender == owner() */\n    tag_202:\n      pop\n        /* \"MemberAccountManager1.sol\":300:9582  contract MemberAccountManager is Ownable {... */\n      and(sub(shl(0xa0, 0x01), 0x01), sload(0x00))\n        /* \"MemberAccountManager1.sol\":2256:2266  msg.sender */\n      caller\n        /* \"MemberAccountManager1.sol\":2271:2292  msg.sender == owner() */\n      eq\n        /* \"MemberAccountManager1.sol\":2238:2292  authorizedCallers[msg.sender] || msg.sender == owner() */\n      jump(tag_203)\n        /* \"MemberAccountManager1.sol\":300:9582  contract MemberAccountManager is Ownable {... */\n    tag_24:\n      jumpi(tag_62, callvalue)\n      jumpi(tag_62, slt(add(not(0x03), calldatasize), 0x20))\n      tag_217\n      tag_1\n      jump\t// in\n    tag_217:\n        /* \"@openzeppelin/contracts/access/Ownable.sol\":1500:1562  modifier onlyOwner() {... */\n      tag_218\n      tag_18\n      jump\t// in\n    tag_218:\n      sub(shl(0xa0, 0x01), 0x01)\n        /* \"MemberAccountManager1.sol\":300:9582  contract MemberAccountManager is Ownable {... */\n      and\n        /* \"MemberAccountManager1.sol\":2458:2506  require(caller != address(0), \"Invalid address\") */\n      tag_219\n        /* \"MemberAccountManager1.sol\":2466:2486  caller != address(0) */\n      dup2\n      iszero\n      iszero\n        /* \"MemberAccountManager1.sol\":2458:2506  require(caller != address(0), \"Invalid address\") */\n      tag_10\n      jump\t// in\n    tag_219:\n        /* \"MemberAccountManager1.sol\":300:9582  contract MemberAccountManager is Ownable {... */\n      dup1\n      0x00\n      mstore\n      mstore(0x20, 0x04)\n      keccak256(0x00, 0x40)\n        /* \"MemberAccountManager1.sol\":2545:2549  true */\n      0x01\n        /* \"MemberAccountManager1.sol\":300:9582  contract MemberAccountManager is Ownable {... */\n      not(0xff)\n      dup3\n      sload\n      and\n      or\n      swap1\n      sstore\n        /* \"MemberAccountManager1.sol\":2565:2594  AuthorizedCallerAdded(caller) */\n      0xeb1b9b92e50b7f88f9ff25d56765095ac6e91540eee214906f4036a908ffbdef\n        /* \"MemberAccountManager1.sol\":300:9582  contract MemberAccountManager is Ownable {... */\n      0x00\n        /* \"MemberAccountManager1.sol\":2565:2594  AuthorizedCallerAdded(caller) */\n      dup1\n      log2\n        /* \"MemberAccountManager1.sol\":300:9582  contract MemberAccountManager is Ownable {... */\n      stop\n    tag_22:\n      jumpi(tag_62, callvalue)\n      tag_222\n      calldatasize\n      tag_2\n      jump\t// in\n    tag_222:\n        /* \"MemberAccountManager1.sol\":2256:2266  msg.sender */\n      swap1\n      swap2\n      caller\n        /* \"MemberAccountManager1.sol\":300:9582  contract MemberAccountManager is Ownable {... */\n      0x00\n      mstore\n      mstore(0x20, 0x04)\n      and(sload(keccak256(0x00, 0x40)), 0xff)\n        /* \"MemberAccountManager1.sol\":2238:2292  authorizedCallers[msg.sender] || msg.sender == owner() */\n      dup1\n      iszero\n      tag_223\n      jumpi\n        /* \"MemberAccountManager1.sol\":300:9582  contract MemberAccountManager is Ownable {... */\n    tag_224:\n        /* \"MemberAccountManager1.sol\":2230:2311  require(authorizedCallers[msg.sender] || msg.sender == owner(), \"Not authorized\") */\n      tag_225\n      swap1\n      tag_5\n      jump\t// in\n    tag_225:\n        /* \"MemberAccountManager1.sol\":300:9582  contract MemberAccountManager is Ownable {... */\n      0x01\n      dup1\n      0xa0\n      shl\n      sub\n      and\n      swap2\n      dup3\n      0x00\n      mstore\n        /* \"MemberAccountManager1.sol\":2110:2124  memberProfiles */\n      0x01\n        /* \"MemberAccountManager1.sol\":300:9582  contract MemberAccountManager is Ownable {... */\n      0x20\n      mstore\n        /* \"MemberAccountManager1.sol\":2102:2165  require(memberProfiles[user].registered, \"User not registered\") */\n      tag_226\n        /* \"MemberAccountManager1.sol\":300:9582  contract MemberAccountManager is Ownable {... */\n      and(sload(keccak256(0x00, 0x40)), 0xff)\n        /* \"MemberAccountManager1.sol\":2102:2165  require(memberProfiles[user].registered, \"User not registered\") */\n      tag_6\n      jump\t// in\n    tag_226:\n        /* \"MemberAccountManager1.sol\":300:9582  contract MemberAccountManager is Ownable {... */\n      dup3\n      0x00\n      mstore\n        /* \"MemberAccountManager1.sol\":2110:2124  memberProfiles */\n      0x01\n        /* \"MemberAccountManager1.sol\":300:9582  contract MemberAccountManager is Ownable {... */\n      0x20\n      mstore\n        /* \"MemberAccountManager1.sol\":6863:6888  memberProfiles[user].pots */\n      0x08\n        /* \"MemberAccountManager1.sol\":300:9582  contract MemberAccountManager is Ownable {... */\n      keccak256(0x00, 0x40)\n        /* \"MemberAccountManager1.sol\":6863:6888  memberProfiles[user].pots */\n      add\n        /* \"MemberAccountManager1.sol\":300:9582  contract MemberAccountManager is Ownable {... */\n      dup2\n      0x00\n      mstore\n      0x20\n      mstore\n        /* \"MemberAccountManager1.sol\":7010:7032  pot.cycleParticipation */\n      0x03\n        /* \"MemberAccountManager1.sol\":300:9582  contract MemberAccountManager is Ownable {... */\n      keccak256(0x00, 0x40)\n        /* \"MemberAccountManager1.sol\":6906:6946  require(pot.potId != 0, \"Pot not found\") */\n      tag_227\n        /* \"MemberAccountManager1.sol\":300:9582  contract MemberAccountManager is Ownable {... */\n      dup2\n      sload\n        /* \"MemberAccountManager1.sol\":6914:6928  pot.potId != 0 */\n      iszero\n      iszero\n        /* \"MemberAccountManager1.sol\":6906:6946  require(pot.potId != 0, \"Pot not found\") */\n      tag_7\n      jump\t// in\n    tag_227:\n        /* \"MemberAccountManager1.sol\":300:9582  contract MemberAccountManager is Ownable {... */\n      dup4\n      0x00\n      mstore\n        /* \"MemberAccountManager1.sol\":7010:7032  pot.cycleParticipation */\n      add\n        /* \"MemberAccountManager1.sol\":300:9582  contract MemberAccountManager is Ownable {... */\n      0x20\n      mstore\n        /* \"MemberAccountManager1.sol\":7010:7032  pot.cycleParticipation */\n      0x03\n        /* \"MemberAccountManager1.sol\":300:9582  contract MemberAccountManager is Ownable {... */\n      keccak256(0x00, 0x40)\n        /* \"MemberAccountManager1.sol\":7052:7106  require(participation.cycleId != 0, \"Cycle not found\") */\n      tag_228\n        /* \"MemberAccountManager1.sol\":300:9582  contract MemberAccountManager is Ownable {... */\n      dup2\n      sload\n        /* \"MemberAccountManager1.sol\":7060:7086  participation.cycleId != 0 */\n      iszero\n      iszero\n        /* \"MemberAccountManager1.sol\":7052:7106  require(participation.cycleId != 0, \"Cycle not found\") */\n      tag_8\n      jump\t// in\n    tag_228:\n        /* \"MemberAccountManager1.sol\":7126:7143  participation.won */\n      add\n        /* \"MemberAccountManager1.sol\":300:9582  contract MemberAccountManager is Ownable {... */\n      dup1\n      sload\n      0xff\n      dup2\n        /* \"MemberAccountManager1.sol\":6863:6888  memberProfiles[user].pots */\n      0x08\n        /* \"MemberAccountManager1.sol\":300:9582  contract MemberAccountManager is Ownable {... */\n      shr\n      and\n      tag_229\n      jumpi\n      0x0100\n      swap1\n      not(0xff00)\n      and\n      or\n      swap1\n      sstore\n      dup3\n      0x00\n      mstore\n        /* \"MemberAccountManager1.sol\":2110:2124  memberProfiles */\n      0x01\n        /* \"MemberAccountManager1.sol\":300:9582  contract MemberAccountManager is Ownable {... */\n      0x20\n      mstore\n        /* \"MemberAccountManager1.sol\":7228:7263  memberProfiles[user].totalCyclesWon */\n      0x02\n        /* \"MemberAccountManager1.sol\":300:9582  contract MemberAccountManager is Ownable {... */\n      keccak256(0x00, 0x40)\n        /* \"MemberAccountManager1.sol\":7228:7263  memberProfiles[user].totalCyclesWon */\n      add\n        /* \"MemberAccountManager1.sol\":300:9582  contract MemberAccountManager is Ownable {... */\n      dup1\n      sload\n      swap1\n        /* \"MemberAccountManager1.sol\":2110:2124  memberProfiles */\n      0x01\n        /* \"MemberAccountManager1.sol\":300:9582  contract MemberAccountManager is Ownable {... */\n      dup3\n      add\n      dup1\n      swap3\n      gt\n      tag_100\n      jumpi\n      sstore\n      dup3\n      0x00\n      mstore\n        /* \"MemberAccountManager1.sol\":2110:2124  memberProfiles */\n      0x01\n        /* \"MemberAccountManager1.sol\":300:9582  contract MemberAccountManager is Ownable {... */\n      0x20\n      mstore\n      0x04\n      keccak256(0x00, 0x40)\n        /* \"MemberAccountManager1.sol\":7279:7315  memberProfiles[user].reputationScore */\n      add\n        /* \"MemberAccountManager1.sol\":300:9582  contract MemberAccountManager is Ownable {... */\n      swap1\n      dup2\n      sload\n      swap3\n        /* \"MemberAccountManager1.sol\":7319:7321  10 */\n      0x0a\n        /* \"MemberAccountManager1.sol\":300:9582  contract MemberAccountManager is Ownable {... */\n      dup5\n      add\n      dup1\n      swap5\n      gt\n      tag_100\n      jumpi\n        /* \"MemberAccountManager1.sol\":7360:7394  WinnerMarked(user, potId, cycleId) */\n      0x423a03a0eef6df82a4eb09b1672e0b3523f91a3cfc076dea4bd9064adf944023\n        /* \"MemberAccountManager1.sol\":300:9582  contract MemberAccountManager is Ownable {... */\n      swap4\n      0x40\n      swap4\n      sstore\n      dup3\n      mload\n      swap2\n      dup3\n      mstore\n      0x20\n      dup3\n      add\n      mstore\n        /* \"MemberAccountManager1.sol\":7360:7394  WinnerMarked(user, potId, cycleId) */\n      log2\n        /* \"MemberAccountManager1.sol\":300:9582  contract MemberAccountManager is Ownable {... */\n      stop\n    tag_229:\n      mload(0x40)\n      shl(0xe5, 0x461bcd)\n      dup2\n      mstore\n      0x20\n      0x04\n      dup3\n      add\n      mstore\n      0x18\n      0x24\n      dup3\n      add\n      mstore\n      0x416c7265616479206d61726b65642061732077696e6e65720000000000000000\n      0x44\n      dup3\n      add\n      mstore\n      0x64\n      swap1\n      revert\n        /* \"MemberAccountManager1.sol\":2238:2292  authorizedCallers[msg.sender] || msg.sender == owner() */\n    tag_223:\n      pop\n        /* \"MemberAccountManager1.sol\":300:9582  contract MemberAccountManager is Ownable {... */\n      and(sub(shl(0xa0, 0x01), 0x01), sload(0x00))\n        /* \"MemberAccountManager1.sol\":2256:2266  msg.sender */\n      caller\n        /* \"MemberAccountManager1.sol\":2271:2292  msg.sender == owner() */\n      eq\n        /* \"MemberAccountManager1.sol\":2238:2292  authorizedCallers[msg.sender] || msg.sender == owner() */\n      jump(tag_224)\n        /* \"MemberAccountManager1.sol\":300:9582  contract MemberAccountManager is Ownable {... */\n    tag_1:\n      calldataload(0x04)\n      swap1\n      sub(shl(0xa0, 0x01), 0x01)\n      dup3\n      and\n      dup3\n      sub\n      tag_62\n      jumpi\n      jump\t// out\n    tag_2:\n      0x60\n      swap1\n      not(0x03)\n      add\n      slt\n      tag_62\n      jumpi\n      calldataload(0x04)\n      sub(shl(0xa0, 0x01), 0x01)\n      dup2\n      and\n      dup2\n      sub\n      tag_62\n      jumpi\n      swap1\n      calldataload(0x24)\n      swap1\n      calldataload(0x44)\n      swap1\n      jump\t// out\n    tag_3:\n      swap1\n      0x20\n      dup1\n      dup4\n      mload\n      swap3\n      dup4\n      dup2\n      mstore\n      add\n      swap3\n      add\n      swap1\n      0x00\n    tag_241:\n      dup2\n      dup2\n      lt\n      tag_242\n      jumpi\n      pop\n      pop\n      pop\n      swap1\n      jump\t// out\n    tag_242:\n      dup3\n      mload\n      dup5\n      mstore\n      0x20\n      swap4\n      dup5\n      add\n      swap4\n      swap1\n      swap3\n      add\n      swap2\n      0x01\n      add\n      jump(tag_241)\n    tag_4:\n      0xa0\n      swap1\n      not(0x03)\n      add\n      slt\n      tag_62\n      jumpi\n      calldataload(0x04)\n      sub(shl(0xa0, 0x01), 0x01)\n      dup2\n      and\n      dup2\n      sub\n      tag_62\n      jumpi\n      swap1\n      calldataload(0x24)\n      swap1\n      calldataload(0x44)\n      swap1\n      calldataload(0x64)\n      swap1\n      calldataload(0x84)\n      dup1\n      iszero\n      iszero\n      dup2\n      sub\n      tag_62\n      jumpi\n      swap1\n      jump\t// out\n    tag_5:\n      iszero\n      tag_250\n      jumpi\n      jump\t// out\n    tag_250:\n      mload(0x40)\n      shl(0xe5, 0x461bcd)\n      dup2\n      mstore\n      0x20\n      0x04\n      dup3\n      add\n      mstore\n      0x0e\n      0x24\n      dup3\n      add\n      mstore\n      shl(0x92, 0x139bdd08185d5d1a1bdc9a5e9959)\n      0x44\n      dup3\n      add\n      mstore\n      0x64\n      swap1\n      revert\n    tag_6:\n      iszero\n      tag_252\n      jumpi\n      jump\t// out\n    tag_252:\n      mload(0x40)\n      shl(0xe5, 0x461bcd)\n      dup2\n      mstore\n      0x20\n      0x04\n      dup3\n      add\n      mstore\n      0x13\n      0x24\n      dup3\n      add\n      mstore\n      shl(0x6a, 0x155cd95c881b9bdd081c9959da5cdd195c9959)\n      0x44\n      dup3\n      add\n      mstore\n      0x64\n      swap1\n      revert\n    tag_7:\n      iszero\n      tag_254\n      jumpi\n      jump\t// out\n    tag_254:\n      mload(0x40)\n      shl(0xe5, 0x461bcd)\n      dup2\n      mstore\n      0x20\n      0x04\n      dup3\n      add\n      mstore\n      0x0d\n      0x24\n      dup3\n      add\n      mstore\n      shl(0x9a, 0x141bdd081b9bdd08199bdd5b99)\n      0x44\n      dup3\n      add\n      mstore\n      0x64\n      swap1\n      revert\n    tag_8:\n      iszero\n      tag_256\n      jumpi\n      jump\t// out\n    tag_256:\n      mload(0x40)\n      shl(0xe5, 0x461bcd)\n      dup2\n      mstore\n      0x20\n      0x04\n      dup3\n      add\n      mstore\n      0x0f\n      0x24\n      dup3\n      add\n      mstore\n      shl(0x8a, 0x10de58db19481b9bdd08199bdd5b99)\n      0x44\n      dup3\n      add\n      mstore\n      0x64\n      swap1\n      revert\n    tag_9:\n      swap2\n      swap1\n      dup3\n      add\n      dup1\n      swap3\n      gt\n      tag_100\n      jumpi\n      jump\t// out\n    tag_10:\n      iszero\n      tag_260\n      jumpi\n      jump\t// out\n    tag_260:\n      mload(0x40)\n      shl(0xe5, 0x461bcd)\n      dup2\n      mstore\n      0x20\n      0x04\n      dup3\n      add\n      mstore\n      0x0f\n      0x24\n      dup3\n      add\n      mstore\n      shl(0x88, 0x496e76616c69642061646472657373)\n      0x44\n      dup3\n      add\n      mstore\n      0x64\n      swap1\n      revert\n    tag_12:\n      0xa0\n      dup2\n      add\n      swap1\n      dup2\n      lt\n      0xffffffffffffffff\n      dup3\n      gt\n      or\n      tag_262\n      jumpi\n      0x40\n      mstore\n      jump\t// out\n    tag_262:\n      mstore(0x00, shl(0xe0, 0x4e487b71))\n      mstore(0x04, 0x41)\n      revert(0x00, 0x24)\n        /* \"MemberAccountManager1.sol\":9281:9579  function getWinRate(address user) external view returns (uint256) {... */\n    tag_13:\n        /* \"MemberAccountManager1.sol\":300:9582  contract MemberAccountManager is Ownable {... */\n      0x01\n      dup1\n      0xa0\n      shl\n      sub\n      and\n      0x00\n      mstore\n        /* \"MemberAccountManager1.sol\":9390:9404  memberProfiles */\n      0x01\n        /* \"MemberAccountManager1.sol\":300:9582  contract MemberAccountManager is Ownable {... */\n      0x20\n      mstore\n      keccak256(0x00, 0x40)\n        /* \"MemberAccountManager1.sol\":9390:9404  memberProfiles */\n      0x01\n        /* \"MemberAccountManager1.sol\":9425:9456  profile.totalCyclesParticipated */\n      dup2\n      add\n        /* \"MemberAccountManager1.sol\":300:9582  contract MemberAccountManager is Ownable {... */\n      sload\n        /* \"MemberAccountManager1.sol\":9425:9461  profile.totalCyclesParticipated == 0 */\n      swap1\n      dup2\n      iszero\n        /* \"MemberAccountManager1.sol\":9421:9471  if (profile.totalCyclesParticipated == 0) return 0 */\n      tag_264\n      jumpi\n        /* \"MemberAccountManager1.sol\":9490:9512  profile.totalCyclesWon */\n      0x02\n      add\n        /* \"MemberAccountManager1.sol\":300:9582  contract MemberAccountManager is Ownable {... */\n      sload\n        /* \"MemberAccountManager1.sol\":9515:9520  10000 */\n      0x2710\n        /* \"MemberAccountManager1.sol\":300:9582  contract MemberAccountManager is Ownable {... */\n      dup2\n      mul\n      swap1\n      dup1\n      dup3\n      div\n        /* \"MemberAccountManager1.sol\":9515:9520  10000 */\n      0x2710\n        /* \"MemberAccountManager1.sol\":300:9582  contract MemberAccountManager is Ownable {... */\n      eq\n      swap1\n      iszero\n      or\n      iszero\n      tag_100\n      jumpi\n      div\n        /* \"MemberAccountManager1.sol\":9281:9579  function getWinRate(address user) external view returns (uint256) {... */\n      swap1\n      jump\t// out\n        /* \"MemberAccountManager1.sol\":9421:9471  if (profile.totalCyclesParticipated == 0) return 0 */\n    tag_264:\n        /* \"MemberAccountManager1.sol\":9463:9471  return 0 */\n      pop\n      pop\n        /* \"MemberAccountManager1.sol\":300:9582  contract MemberAccountManager is Ownable {... */\n      0x00\n        /* \"MemberAccountManager1.sol\":9463:9471  return 0 */\n      swap1\n      jump\t// out\n        /* \"MemberAccountManager1.sol\":300:9582  contract MemberAccountManager is Ownable {... */\n    tag_14:\n      swap1\n      mload(0x40)\n      swap2\n      dup1\n      sload\n      dup1\n      dup5\n      mstore\n      0x20\n      dup5\n      add\n      swap2\n      0x00\n      mstore\n      keccak256(0x00, 0x20)\n      swap1\n      0x00\n    tag_268:\n      dup2\n      dup2\n      lt\n      tag_269\n      jumpi\n      pop\n      pop\n      pop\n      dup3\n      swap1\n      sub\n      0x1f\n      add\n      not(0x1f)\n      and\n      dup3\n      add\n      0xffffffffffffffff\n      dup2\n      gt\n      dup4\n      dup3\n      lt\n      or\n      tag_262\n      jumpi\n      0x40\n      mstore\n      jump\t// out\n    tag_269:\n      dup3\n      sload\n      dup5\n      mstore\n      0x20\n      swap1\n      swap4\n      add\n      swap3\n      0x01\n      swap3\n      dup4\n      add\n      swap3\n      add\n      jump(tag_268)\n    tag_15:\n      dup1\n      sload\n      dup3\n      lt\n      iszero\n      tag_148\n      jumpi\n      0x00\n      mstore\n      keccak256(0x00, 0x20)\n      add\n      swap1\n      0x00\n      swap1\n      jump\t// out\n    tag_17:\n      dup1\n      sload\n      swap1\n      shl(0x40, 0x01)\n      dup3\n      lt\n      iszero\n      tag_262\n      jumpi\n      dup2\n      tag_277\n      swap2\n      0x01\n      tag_278\n      swap5\n      add\n      dup2\n      sstore\n      tag_15\n      jump\t// in\n    tag_277:\n      dup2\n      swap4\n      swap2\n      sload\n      swap1\n      0x03\n      shl\n      swap2\n      dup3\n      shl\n      swap2\n      not(0x00)\n      swap1\n      shl\n      not\n      and\n      or\n      swap1\n      jump\n    tag_278:\n      swap1\n      sstore\n      jump\t// out\n        /* \"@openzeppelin/contracts/access/Ownable.sol\":1796:1958  function _checkOwner() internal view virtual {... */\n    tag_18:\n        /* \"@openzeppelin/contracts/access/Ownable.sol\":1710:1716  _owner */\n      0x00\n        /* \"MemberAccountManager1.sol\":300:9582  contract MemberAccountManager is Ownable {... */\n      sload\n      sub(shl(0xa0, 0x01), 0x01)\n      and\n        /* \"@openzeppelin/contracts/utils/Context.sol\":735:745  msg.sender */\n      caller\n        /* \"@openzeppelin/contracts/access/Ownable.sol\":1855:1878  owner() != _msgSender() */\n      sub\n        /* \"@openzeppelin/contracts/access/Ownable.sol\":1851:1952  if (owner() != _msgSender()) {... */\n      tag_279\n      jumpi\n        /* \"@openzeppelin/contracts/access/Ownable.sol\":1796:1958  function _checkOwner() internal view virtual {... */\n      jump\t// out\n        /* \"@openzeppelin/contracts/access/Ownable.sol\":1851:1952  if (owner() != _msgSender()) {... */\n    tag_279:\n        /* \"@openzeppelin/contracts/access/Ownable.sol\":1901:1941  OwnableUnauthorizedAccount(_msgSender()) */\n      shl(0xe0, 0x118cdaa7)\n        /* \"@openzeppelin/contracts/access/Ownable.sol\":1710:1716  _owner */\n      0x00\n        /* \"@openzeppelin/contracts/access/Ownable.sol\":1901:1941  OwnableUnauthorizedAccount(_msgSender()) */\n      mstore\n        /* \"@openzeppelin/contracts/utils/Context.sol\":735:745  msg.sender */\n      caller\n        /* \"@openzeppelin/contracts/access/Ownable.sol\":1901:1941  OwnableUnauthorizedAccount(_msgSender()) */\n      0x04\n        /* \"MemberAccountManager1.sol\":300:9582  contract MemberAccountManager is Ownable {... */\n      mstore\n      0x24\n        /* \"@openzeppelin/contracts/access/Ownable.sol\":1710:1716  _owner */\n      0x00\n        /* \"@openzeppelin/contracts/access/Ownable.sol\":1901:1941  OwnableUnauthorizedAccount(_msgSender()) */\n      revert\n        /* \"@openzeppelin/contracts/utils/structs/EnumerableSet.sol\":2497:2903  function _add(Set storage set, bytes32 value) private returns (bool) {... */\n    tag_19:\n        /* \"MemberAccountManager1.sol\":300:9582  contract MemberAccountManager is Ownable {... */\n      dup1\n      0x00\n      mstore\n        /* \"@openzeppelin/contracts/utils/structs/EnumerableSet.sol\":5197:5211  set._positions */\n      0x03\n        /* \"MemberAccountManager1.sol\":300:9582  contract MemberAccountManager is Ownable {... */\n      0x20\n      mstore\n      sload(keccak256(0x00, 0x40))\n        /* \"@openzeppelin/contracts/utils/structs/EnumerableSet.sol\":5197:5223  set._positions[value] != 0 */\n      iszero\n        /* \"@openzeppelin/contracts/utils/structs/EnumerableSet.sol\":2576:2897  if (!_contains(set, value)) {... */\n      0x00\n        /* \"MemberAccountManager1.sol\":300:9582  contract MemberAccountManager is Ownable {... */\n      eq\n      tag_281\n      jumpi\n        /* \"MemberAccountManager1.sol\":3227:3244  registeredMembers */\n      0x02\n        /* \"MemberAccountManager1.sol\":300:9582  contract MemberAccountManager is Ownable {... */\n      sload\n      shl(0x40, 0x01)\n      dup2\n      lt\n      iszero\n      tag_262\n      jumpi\n      tag_285\n      tag_277\n      dup3\n        /* \"@openzeppelin/contracts/utils/structs/EnumerableSet.sol\":5197:5211  set._positions */\n      0x01\n        /* \"MemberAccountManager1.sol\":300:9582  contract MemberAccountManager is Ownable {... */\n      dup6\n      swap5\n      add\n        /* \"MemberAccountManager1.sol\":3227:3244  registeredMembers */\n      0x02\n        /* \"MemberAccountManager1.sol\":300:9582  contract MemberAccountManager is Ownable {... */\n      sstore\n        /* \"MemberAccountManager1.sol\":3227:3244  registeredMembers */\n      0x02\n        /* \"MemberAccountManager1.sol\":300:9582  contract MemberAccountManager is Ownable {... */\n      tag_15\n      jump\t// in\n    tag_285:\n      swap1\n      sstore\n        /* \"MemberAccountManager1.sol\":3227:3244  registeredMembers */\n      0x02\n        /* \"MemberAccountManager1.sol\":300:9582  contract MemberAccountManager is Ownable {... */\n      sload\n      swap1\n      0x00\n      mstore\n        /* \"@openzeppelin/contracts/utils/structs/EnumerableSet.sol\":5197:5211  set._positions */\n      0x03\n        /* \"MemberAccountManager1.sol\":300:9582  contract MemberAccountManager is Ownable {... */\n      0x20\n      mstore\n      keccak256(0x00, 0x40)\n      sstore\n        /* \"@openzeppelin/contracts/utils/structs/EnumerableSet.sol\":5197:5211  set._positions */\n      0x01\n        /* \"@openzeppelin/contracts/utils/structs/EnumerableSet.sol\":2832:2843  return true */\n      swap1\n      jump\t// out\n        /* \"@openzeppelin/contracts/utils/structs/EnumerableSet.sol\":2576:2897  if (!_contains(set, value)) {... */\n    tag_281:\n        /* \"@openzeppelin/contracts/utils/structs/EnumerableSet.sol\":2874:2886  return false */\n      pop\n        /* \"MemberAccountManager1.sol\":300:9582  contract MemberAccountManager is Ownable {... */\n      0x00\n        /* \"@openzeppelin/contracts/utils/structs/EnumerableSet.sol\":2874:2886  return false */\n      swap1\n      jump\t// out\n\n    auxdata: 0xa26469706673582212207e3be34e088e32360c1ad919c2d5b11d14f0765020a6adac0cb94d45f78f761e64736f6c634300081e0033\n}\n",
				"bytecode": {
					"linkReferences": {},
					"object": "608080604052346071573315605e575f8054336001600160a01b0319821681178355916001600160a01b03909116907f8be0079c531659141344cd1fd0a4f28419497f9722a3daafe3b4186f6b6457e09080a36111ef90816100768239f35b631e4fbdf760e01b5f525f60045260245ffd5b5f80fdfe60806040526004361015610011575f80fd5b5f3560e01c80630649be2014610cbb57806313a155ea14610c495780631b0c755914610ae2578063536fff6c14610aa55780636a84a73d146109d1578063715018a61461097a57806375a67d5c1461093f5780638da5cb5b146109185780638f180305146108fb578063914a1e76146108d0578063abf4cf6b14610872578063b7aa02311461080d578063bce73b451461075a578063c3c5a5471461071d578063c7d8acd8146105e8578063cca28f3914610533578063db151c0714610242578063f2fde38b146101bd5763fcb4888e146100ea575f80fd5b346101b95760203660031901126101b9576001600160a01b0361010b610e2d565b16610117811515610fe1565b805f52600160205260ff60405f20541661017f57805f52600160205260405f20600160ff198254161781556064600482015560054291015561015881611164565b507f92fabfa210df88d92c2f5a07ddd43a985b208d8b19b7a78ba1284aa4b287d8625f80a2005b60405162461bcd60e51b8152602060048201526012602482015271105b1c9958591e481c9959da5cdd195c995960721b6044820152606490fd5b5f80fd5b346101b95760203660031901126101b9576101d6610e2d565b6101de61113e565b6001600160a01b0316801561022f575f80546001600160a01b03198116831782556001600160a01b0316907f8be0079c531659141344cd1fd0a4f28419497f9722a3daafe3b4186f6b6457e09080a3005b631e4fbdf760e01b5f525f60045260245ffd5b346101b95761025036610ea0565b9293919091335f52600460205260ff60405f2054168015610520575b61027590610edb565b60018060a01b031693845f52600160205261029660ff60405f205416610f18565b80156104ea5781156104b257821561047657845f52600160205260405f2092815f526008840160205260405f2094855415610430575b505f945f60028201908154905b818110610403575b505090919293809596156103e0575b5050604051906102ff8261101f565b84825261035960036020840193858552604081015f815260608201955f87528360808401965f88528b5f520160205260405f20925183555160018301555160028201550192511515839060ff801983541691151516179055565b51151561ff0082549160081b169061ff00191617905561037e60038501918254610fd4565b90556004830191825493600285018095116103cc577fa0be4606c50f4183c8e5e8a16d1944cec3d3cb766e0d92919e5bbe2e3e9b3991946040945560054291015582519182526020820152a2005b634e487b7160e01b5f52601160045260245ffd5b6103e991611102565b60018501805490600182018092116103cc575586846102f0565b8661040e82856110ed565b90549060031b1c14610422576001016102d9565b5060019750859050896102e1565b82865561044c81600188019060ff801983541691151516179055565b156104645761045e8260068601611102565b866102cc565b6104718260078601611102565b61045e565b60405162461bcd60e51b815260206004820152601460248201527324b73b30b634b21031b7b73a3934b13aba34b7b760611b6044820152606490fd5b60405162461bcd60e51b815260206004820152601060248201526f125b9d985b1a590818de58db1948125160821b6044820152606490fd5b60405162461bcd60e51b815260206004820152600e60248201526d125b9d985b1a59081c1bdd08125160921b6044820152606490fd5b505f546001600160a01b0316331461026c565b346101b95760203660031901126101b9576001600160a01b03610554610e2d565b165f52600160205260405f2060ff8154166105e46001830154926105d66002820154916003810154600482015460058301549161059f600761059860068701611091565b9501611091565b95604051998a9915158a5260208a015260408901526060880152608087015260a086015261010060c0860152610100850190610e6d565b9083820360e0850152610e6d565b0390f35b346101b9576105f636610ea0565b9093929192335f52600460205260ff60405f205416801561070a575b61061b90610edb565b60018060a01b031693845f52600160205261063c60ff60405f205416610f18565b845f526001602052600860405f2001835f52602052600360405f2061066381541515610f5a565b855f52016020528161069981600360405f2061068181541515610f96565b856002820155019060ff801983541691151516179055565b6106df575b90608092917fc0de796d4c53c794ddc49e1664f53f55fe5fa868fc58d331893de93b0796cd40946040519384526020840152604083015215156060820152a2005b9190845f526001602052600460405f200192835494600186018096116103cc5794909355909161069e565b505f546001600160a01b03163314610612565b346101b95760203660031901126101b9576001600160a01b0361073e610e2d565b165f526001602052602060ff60405f2054166040519015158152f35b346101b95760203660031901126101b9576004356002548110156107d2576002548110156107be5760025f527f405787fa12a823e0f2b7631cc41b3ba8828b3321ca811111fa75cd3aa3bb5ace01546040516001600160a01b039091168152602090f35b634e487b7160e01b5f52603260045260245ffd5b60405162461bcd60e51b8152602060048201526013602482015272496e646578206f7574206f6620626f756e647360681b6044820152606490fd5b346101b95760203660031901126101b957610826610e2d565b61082e61113e565b6001600160a01b03165f818152600460205260408120805460ff191690557fc3803387881faad271c47728894e3e36fac830ffc8602ca6fc07733cbda775809080a2005b346101b95760403660031901126101b9576001600160a01b03610893610e2d565b165f526001602052600860405f20016024355f526020526105e46108bc600260405f2001611091565b604051918291602083526020830190610e6d565b346101b95760203660031901126101b95760206108f36108ee610e2d565b61104f565b604051908152f35b346101b9575f3660031901126101b9576020600254604051908152f35b346101b9575f3660031901126101b9575f546040516001600160a01b039091168152602090f35b346101b95760203660031901126101b9576001600160a01b03610960610e2d565b165f5260016020526020600460405f200154604051908152f35b346101b9575f3660031901126101b95761099261113e565b5f80546001600160a01b0319811682556001600160a01b03167f8be0079c531659141344cd1fd0a4f28419497f9722a3daafe3b4186f6b6457e08280a3005b346101b9576109df36610e43565b915f60806040516109ef8161101f565b828152826020820152826040820152826060820152015260018060a01b03165f526001602052600860405f2001905f52602052600360405f2001905f5260205260a060405f2060405190610a428261101f565b8054918281526001820154916020820192835260036002820154916040840192835201549260ff6080606085019482871615158652019460081c161515845260405194855251602085015251604084015251151560608301525115156080820152f35b346101b95760203660031901126101b9576001600160a01b03610ac6610e2d565b165f526004602052602060ff60405f2054166040519015158152f35b346101b95760803660031901126101b957610afb610e2d565b602435906044359060643590335f52600460205260ff60405f2054168015610c36575b610b2790610edb565b60018060a01b031692835f526001602052610b4860ff60405f205416610f18565b8115610c0057835f526001602052600860405f2001815f52602052600360405f20610b7581541515610f5a565b845f5201602052600160405f20610b8e81541515610f96565b01918083549355845f526001602052600360405f2001549283039283116103cc577f7d5f0ead71f858f368687dee537578b130a058facd6d86c4f4c84756850e42be93610bdd82606095610fd4565b865f526001602052600360405f20015560405192835260208301526040820152a2005b60405162461bcd60e51b815260206004820152600e60248201526d125b9d985b1a5908185b5bdd5b9d60921b6044820152606490fd5b505f546001600160a01b03163314610b1e565b346101b95760203660031901126101b957610c62610e2d565b610c6a61113e565b6001600160a01b0316610c7e811515610fe1565b805f52600460205260405f20600160ff198254161790557feb1b9b92e50b7f88f9ff25d56765095ac6e91540eee214906f4036a908ffbdef5f80a2005b346101b957610cc936610e43565b9091335f52600460205260ff60405f2054168015610e1a575b610ceb90610edb565b60018060a01b031691825f526001602052610d0c60ff60405f205416610f18565b825f526001602052600860405f2001815f52602052600360405f20610d3381541515610f5a565b835f5201602052600360405f20610d4c81541515610f96565b01805460ff8160081c16610dd5576101009061ff001916179055825f526001602052600260405f2001805490600182018092116103cc5755825f526001602052600460405f200190815492600a84018094116103cc577f423a03a0eef6df82a4eb09b1672e0b3523f91a3cfc076dea4bd9064adf944023936040935582519182526020820152a2005b60405162461bcd60e51b815260206004820152601860248201527f416c7265616479206d61726b65642061732077696e6e657200000000000000006044820152606490fd5b505f546001600160a01b03163314610ce2565b600435906001600160a01b03821682036101b957565b60609060031901126101b9576004356001600160a01b03811681036101b957906024359060443590565b90602080835192838152019201905f5b818110610e8a5750505090565b8251845260209384019390920191600101610e7d565b60a09060031901126101b9576004356001600160a01b03811681036101b9579060243590604435906064359060843580151581036101b95790565b15610ee257565b60405162461bcd60e51b815260206004820152600e60248201526d139bdd08185d5d1a1bdc9a5e995960921b6044820152606490fd5b15610f1f57565b60405162461bcd60e51b8152602060048201526013602482015272155cd95c881b9bdd081c9959da5cdd195c9959606a1b6044820152606490fd5b15610f6157565b60405162461bcd60e51b815260206004820152600d60248201526c141bdd081b9bdd08199bdd5b99609a1b6044820152606490fd5b15610f9d57565b60405162461bcd60e51b815260206004820152600f60248201526e10de58db19481b9bdd08199bdd5b99608a1b6044820152606490fd5b919082018092116103cc57565b15610fe857565b60405162461bcd60e51b815260206004820152600f60248201526e496e76616c6964206164647265737360881b6044820152606490fd5b60a0810190811067ffffffffffffffff82111761103b57604052565b634e487b7160e01b5f52604160045260245ffd5b60018060a01b03165f52600160205260405f20600181015490811561108b576002015461271081029080820461271014901517156103cc570490565b50505f90565b9060405191805480845260208401915f5260205f20905f5b8181106110d757505050829003601f01601f1916820167ffffffffffffffff81118382101761103b57604052565b82548452602090930192600192830192016110a9565b80548210156107be575f5260205f2001905f90565b805490600160401b82101561103b578161112491600161113a940181556110ed565b819391549060031b91821b915f19901b19161790565b9055565b5f546001600160a01b0316330361115157565b63118cdaa760e01b5f523360045260245ffd5b805f52600360205260405f2054155f146111b457600254600160401b81101561103b5761119d61112482600185940160025560026110ed565b9055600254905f52600360205260405f2055600190565b505f9056fea26469706673582212207e3be34e088e32360c1ad919c2d5b11d14f0765020a6adac0cb94d45f78f761e64736f6c634300081e0033",
					"opcodes": "PUSH1 0x80 DUP1 PUSH1 0x40 MSTORE CALLVALUE PUSH1 0x71 JUMPI CALLER ISZERO PUSH1 0x5E JUMPI PUSH0 DUP1 SLOAD CALLER PUSH1 0x1 PUSH1 0x1 PUSH1 0xA0 SHL SUB NOT DUP3 AND DUP2 OR DUP4 SSTORE SWAP2 PUSH1 0x1 PUSH1 0x1 PUSH1 0xA0 SHL SUB SWAP1 SWAP2 AND SWAP1 PUSH32 0x8BE0079C531659141344CD1FD0A4F28419497F9722A3DAAFE3B4186F6B6457E0 SWAP1 DUP1 LOG3 PUSH2 0x11EF SWAP1 DUP2 PUSH2 0x76 DUP3 CODECOPY RETURN JUMPDEST PUSH4 0x1E4FBDF7 PUSH1 0xE0 SHL PUSH0 MSTORE PUSH0 PUSH1 0x4 MSTORE PUSH1 0x24 PUSH0 REVERT JUMPDEST PUSH0 DUP1 REVERT INVALID PUSH1 0x80 PUSH1 0x40 MSTORE PUSH1 0x4 CALLDATASIZE LT ISZERO PUSH2 0x11 JUMPI PUSH0 DUP1 REVERT JUMPDEST PUSH0 CALLDATALOAD PUSH1 0xE0 SHR DUP1 PUSH4 0x649BE20 EQ PUSH2 0xCBB JUMPI DUP1 PUSH4 0x13A155EA EQ PUSH2 0xC49 JUMPI DUP1 PUSH4 0x1B0C7559 EQ PUSH2 0xAE2 JUMPI DUP1 PUSH4 0x536FFF6C EQ PUSH2 0xAA5 JUMPI DUP1 PUSH4 0x6A84A73D EQ PUSH2 0x9D1 JUMPI DUP1 PUSH4 0x715018A6 EQ PUSH2 0x97A JUMPI DUP1 PUSH4 0x75A67D5C EQ PUSH2 0x93F JUMPI DUP1 PUSH4 0x8DA5CB5B EQ PUSH2 0x918 JUMPI DUP1 PUSH4 0x8F180305 EQ PUSH2 0x8FB JUMPI DUP1 PUSH4 0x914A1E76 EQ PUSH2 0x8D0 JUMPI DUP1 PUSH4 0xABF4CF6B EQ PUSH2 0x872 JUMPI DUP1 PUSH4 0xB7AA0231 EQ PUSH2 0x80D JUMPI DUP1 PUSH4 0xBCE73B45 EQ PUSH2 0x75A JUMPI DUP1 PUSH4 0xC3C5A547 EQ PUSH2 0x71D JUMPI DUP1 PUSH4 0xC7D8ACD8 EQ PUSH2 0x5E8 JUMPI DUP1 PUSH4 0xCCA28F39 EQ PUSH2 0x533 JUMPI DUP1 PUSH4 0xDB151C07 EQ PUSH2 0x242 JUMPI DUP1 PUSH4 0xF2FDE38B EQ PUSH2 0x1BD JUMPI PUSH4 0xFCB4888E EQ PUSH2 0xEA JUMPI PUSH0 DUP1 REVERT JUMPDEST CALLVALUE PUSH2 0x1B9 JUMPI PUSH1 0x20 CALLDATASIZE PUSH1 0x3 NOT ADD SLT PUSH2 0x1B9 JUMPI PUSH1 0x1 PUSH1 0x1 PUSH1 0xA0 SHL SUB PUSH2 0x10B PUSH2 0xE2D JUMP JUMPDEST AND PUSH2 0x117 DUP2 ISZERO ISZERO PUSH2 0xFE1 JUMP JUMPDEST DUP1 PUSH0 MSTORE PUSH1 0x1 PUSH1 0x20 MSTORE PUSH1 0xFF PUSH1 0x40 PUSH0 KECCAK256 SLOAD AND PUSH2 0x17F JUMPI DUP1 PUSH0 MSTORE PUSH1 0x1 PUSH1 0x20 MSTORE PUSH1 0x40 PUSH0 KECCAK256 PUSH1 0x1 PUSH1 0xFF NOT DUP3 SLOAD AND OR DUP2 SSTORE PUSH1 0x64 PUSH1 0x4 DUP3 ADD SSTORE PUSH1 0x5 TIMESTAMP SWAP2 ADD SSTORE PUSH2 0x158 DUP2 PUSH2 0x1164 JUMP JUMPDEST POP PUSH32 0x92FABFA210DF88D92C2F5A07DDD43A985B208D8B19B7A78BA1284AA4B287D862 PUSH0 DUP1 LOG2 STOP JUMPDEST PUSH1 0x40 MLOAD PUSH3 0x461BCD PUSH1 0xE5 SHL DUP2 MSTORE PUSH1 0x20 PUSH1 0x4 DUP3 ADD MSTORE PUSH1 0x12 PUSH1 0x24 DUP3 ADD MSTORE PUSH18 0x105B1C9958591E481C9959DA5CDD195C9959 PUSH1 0x72 SHL PUSH1 0x44 DUP3 ADD MSTORE PUSH1 0x64 SWAP1 REVERT JUMPDEST PUSH0 DUP1 REVERT JUMPDEST CALLVALUE PUSH2 0x1B9 JUMPI PUSH1 0x20 CALLDATASIZE PUSH1 0x3 NOT ADD SLT PUSH2 0x1B9 JUMPI PUSH2 0x1D6 PUSH2 0xE2D JUMP JUMPDEST PUSH2 0x1DE PUSH2 0x113E JUMP JUMPDEST PUSH1 0x1 PUSH1 0x1 PUSH1 0xA0 SHL SUB AND DUP1 ISZERO PUSH2 0x22F JUMPI PUSH0 DUP1 SLOAD PUSH1 0x1 PUSH1 0x1 PUSH1 0xA0 SHL SUB NOT DUP2 AND DUP4 OR DUP3 SSTORE PUSH1 0x1 PUSH1 0x1 PUSH1 0xA0 SHL SUB AND SWAP1 PUSH32 0x8BE0079C531659141344CD1FD0A4F28419497F9722A3DAAFE3B4186F6B6457E0 SWAP1 DUP1 LOG3 STOP JUMPDEST PUSH4 0x1E4FBDF7 PUSH1 0xE0 SHL PUSH0 MSTORE PUSH0 PUSH1 0x4 MSTORE PUSH1 0x24 PUSH0 REVERT JUMPDEST CALLVALUE PUSH2 0x1B9 JUMPI PUSH2 0x250 CALLDATASIZE PUSH2 0xEA0 JUMP JUMPDEST SWAP3 SWAP4 SWAP2 SWAP1 SWAP2 CALLER PUSH0 MSTORE PUSH1 0x4 PUSH1 0x20 MSTORE PUSH1 0xFF PUSH1 0x40 PUSH0 KECCAK256 SLOAD AND DUP1 ISZERO PUSH2 0x520 JUMPI JUMPDEST PUSH2 0x275 SWAP1 PUSH2 0xEDB JUMP JUMPDEST PUSH1 0x1 DUP1 PUSH1 0xA0 SHL SUB AND SWAP4 DUP5 PUSH0 MSTORE PUSH1 0x1 PUSH1 0x20 MSTORE PUSH2 0x296 PUSH1 0xFF PUSH1 0x40 PUSH0 KECCAK256 SLOAD AND PUSH2 0xF18 JUMP JUMPDEST DUP1 ISZERO PUSH2 0x4EA JUMPI DUP2 ISZERO PUSH2 0x4B2 JUMPI DUP3 ISZERO PUSH2 0x476 JUMPI DUP5 PUSH0 MSTORE PUSH1 0x1 PUSH1 0x20 MSTORE PUSH1 0x40 PUSH0 KECCAK256 SWAP3 DUP2 PUSH0 MSTORE PUSH1 0x8 DUP5 ADD PUSH1 0x20 MSTORE PUSH1 0x40 PUSH0 KECCAK256 SWAP5 DUP6 SLOAD ISZERO PUSH2 0x430 JUMPI JUMPDEST POP PUSH0 SWAP5 PUSH0 PUSH1 0x2 DUP3 ADD SWAP1 DUP2 SLOAD SWAP1 JUMPDEST DUP2 DUP2 LT PUSH2 0x403 JUMPI JUMPDEST POP POP SWAP1 SWAP2 SWAP3 SWAP4 DUP1 SWAP6 SWAP7 ISZERO PUSH2 0x3E0 JUMPI JUMPDEST POP POP PUSH1 0x40 MLOAD SWAP1 PUSH2 0x2FF DUP3 PUSH2 0x101F JUMP JUMPDEST DUP5 DUP3 MSTORE PUSH2 0x359 PUSH1 0x3 PUSH1 0x20 DUP5 ADD SWAP4 DUP6 DUP6 MSTORE PUSH1 0x40 DUP2 ADD PUSH0 DUP2 MSTORE PUSH1 0x60 DUP3 ADD SWAP6 PUSH0 DUP8 MSTORE DUP4 PUSH1 0x80 DUP5 ADD SWAP7 PUSH0 DUP9 MSTORE DUP12 PUSH0 MSTORE ADD PUSH1 0x20 MSTORE PUSH1 0x40 PUSH0 KECCAK256 SWAP3 MLOAD DUP4 SSTORE MLOAD PUSH1 0x1 DUP4 ADD SSTORE MLOAD PUSH1 0x2 DUP3 ADD SSTORE ADD SWAP3 MLOAD ISZERO ISZERO DUP4 SWAP1 PUSH1 0xFF DUP1 NOT DUP4 SLOAD AND SWAP2 ISZERO ISZERO AND OR SWAP1 SSTORE JUMP JUMPDEST MLOAD ISZERO ISZERO PUSH2 0xFF00 DUP3 SLOAD SWAP2 PUSH1 0x8 SHL AND SWAP1 PUSH2 0xFF00 NOT AND OR SWAP1 SSTORE PUSH2 0x37E PUSH1 0x3 DUP6 ADD SWAP2 DUP3 SLOAD PUSH2 0xFD4 JUMP JUMPDEST SWAP1 SSTORE PUSH1 0x4 DUP4 ADD SWAP2 DUP3 SLOAD SWAP4 PUSH1 0x2 DUP6 ADD DUP1 SWAP6 GT PUSH2 0x3CC JUMPI PUSH32 0xA0BE4606C50F4183C8E5E8A16D1944CEC3D3CB766E0D92919E5BBE2E3E9B3991 SWAP5 PUSH1 0x40 SWAP5 SSTORE PUSH1 0x5 TIMESTAMP SWAP2 ADD SSTORE DUP3 MLOAD SWAP2 DUP3 MSTORE PUSH1 0x20 DUP3 ADD MSTORE LOG2 STOP JUMPDEST PUSH4 0x4E487B71 PUSH1 0xE0 SHL PUSH0 MSTORE PUSH1 0x11 PUSH1 0x4 MSTORE PUSH1 0x24 PUSH0 REVERT JUMPDEST PUSH2 0x3E9 SWAP2 PUSH2 0x1102 JUMP JUMPDEST PUSH1 0x1 DUP6 ADD DUP1 SLOAD SWAP1 PUSH1 0x1 DUP3 ADD DUP1 SWAP3 GT PUSH2 0x3CC JUMPI SSTORE DUP7 DUP5 PUSH2 0x2F0 JUMP JUMPDEST DUP7 PUSH2 0x40E DUP3 DUP6 PUSH2 0x10ED JUMP JUMPDEST SWAP1 SLOAD SWAP1 PUSH1 0x3 SHL SHR EQ PUSH2 0x422 JUMPI PUSH1 0x1 ADD PUSH2 0x2D9 JUMP JUMPDEST POP PUSH1 0x1 SWAP8 POP DUP6 SWAP1 POP DUP10 PUSH2 0x2E1 JUMP JUMPDEST DUP3 DUP7 SSTORE PUSH2 0x44C DUP2 PUSH1 0x1 DUP9 ADD SWAP1 PUSH1 0xFF DUP1 NOT DUP4 SLOAD AND SWAP2 ISZERO ISZERO AND OR SWAP1 SSTORE JUMP JUMPDEST ISZERO PUSH2 0x464 JUMPI PUSH2 0x45E DUP3 PUSH1 0x6 DUP7 ADD PUSH2 0x1102 JUMP JUMPDEST DUP7 PUSH2 0x2CC JUMP JUMPDEST PUSH2 0x471 DUP3 PUSH1 0x7 DUP7 ADD PUSH2 0x1102 JUMP JUMPDEST PUSH2 0x45E JUMP JUMPDEST PUSH1 0x40 MLOAD PUSH3 0x461BCD PUSH1 0xE5 SHL DUP2 MSTORE PUSH1 0x20 PUSH1 0x4 DUP3 ADD MSTORE PUSH1 0x14 PUSH1 0x24 DUP3 ADD MSTORE PUSH20 0x24B73B30B634B21031B7B73A3934B13ABA34B7B7 PUSH1 0x61 SHL PUSH1 0x44 DUP3 ADD MSTORE PUSH1 0x64 SWAP1 REVERT JUMPDEST PUSH1 0x40 MLOAD PUSH3 0x461BCD PUSH1 0xE5 SHL DUP2 MSTORE PUSH1 0x20 PUSH1 0x4 DUP3 ADD MSTORE PUSH1 0x10 PUSH1 0x24 DUP3 ADD MSTORE PUSH16 0x125B9D985B1A590818DE58DB19481251 PUSH1 0x82 SHL PUSH1 0x44 DUP3 ADD MSTORE PUSH1 0x64 SWAP1 REVERT JUMPDEST PUSH1 0x40 MLOAD PUSH3 0x461BCD PUSH1 0xE5 SHL DUP2 MSTORE PUSH1 0x20 PUSH1 0x4 DUP3 ADD MSTORE PUSH1 0xE PUSH1 0x24 DUP3 ADD MSTORE PUSH14 0x125B9D985B1A59081C1BDD081251 PUSH1 0x92 SHL PUSH1 0x44 DUP3 ADD MSTORE PUSH1 0x64 SWAP1 REVERT JUMPDEST POP PUSH0 SLOAD PUSH1 0x1 PUSH1 0x1 PUSH1 0xA0 SHL SUB AND CALLER EQ PUSH2 0x26C JUMP JUMPDEST CALLVALUE PUSH2 0x1B9 JUMPI PUSH1 0x20 CALLDATASIZE PUSH1 0x3 NOT ADD SLT PUSH2 0x1B9 JUMPI PUSH1 0x1 PUSH1 0x1 PUSH1 0xA0 SHL SUB PUSH2 0x554 PUSH2 0xE2D JUMP JUMPDEST AND PUSH0 MSTORE PUSH1 0x1 PUSH1 0x20 MSTORE PUSH1 0x40 PUSH0 KECCAK256 PUSH1 0xFF DUP2 SLOAD AND PUSH2 0x5E4 PUSH1 0x1 DUP4 ADD SLOAD SWAP3 PUSH2 0x5D6 PUSH1 0x2 DUP3 ADD SLOAD SWAP2 PUSH1 0x3 DUP2 ADD SLOAD PUSH1 0x4 DUP3 ADD SLOAD PUSH1 0x5 DUP4 ADD SLOAD SWAP2 PUSH2 0x59F PUSH1 0x7 PUSH2 0x598 PUSH1 0x6 DUP8 ADD PUSH2 0x1091 JUMP JUMPDEST SWAP6 ADD PUSH2 0x1091 JUMP JUMPDEST SWAP6 PUSH1 0x40 MLOAD SWAP10 DUP11 SWAP10 ISZERO ISZERO DUP11 MSTORE PUSH1 0x20 DUP11 ADD MSTORE PUSH1 0x40 DUP10 ADD MSTORE PUSH1 0x60 DUP9 ADD MSTORE PUSH1 0x80 DUP8 ADD MSTORE PUSH1 0xA0 DUP7 ADD MSTORE PUSH2 0x100 PUSH1 0xC0 DUP7 ADD MSTORE PUSH2 0x100 DUP6 ADD SWAP1 PUSH2 0xE6D JUMP JUMPDEST SWAP1 DUP4 DUP3 SUB PUSH1 0xE0 DUP6 ADD MSTORE PUSH2 0xE6D JUMP JUMPDEST SUB SWAP1 RETURN JUMPDEST CALLVALUE PUSH2 0x1B9 JUMPI PUSH2 0x5F6 CALLDATASIZE PUSH2 0xEA0 JUMP JUMPDEST SWAP1 SWAP4 SWAP3 SWAP2 SWAP3 CALLER PUSH0 MSTORE PUSH1 0x4 PUSH1 0x20 MSTORE PUSH1 0xFF PUSH1 0x40 PUSH0 KECCAK256 SLOAD AND DUP1 ISZERO PUSH2 0x70A JUMPI JUMPDEST PUSH2 0x61B SWAP1 PUSH2 0xEDB JUMP JUMPDEST PUSH1 0x1 DUP1 PUSH1 0xA0 SHL SUB AND SWAP4 DUP5 PUSH0 MSTORE PUSH1 0x1 PUSH1 0x20 MSTORE PUSH2 0x63C PUSH1 0xFF PUSH1 0x40 PUSH0 KECCAK256 SLOAD AND PUSH2 0xF18 JUMP JUMPDEST DUP5 PUSH0 MSTORE PUSH1 0x1 PUSH1 0x20 MSTORE PUSH1 0x8 PUSH1 0x40 PUSH0 KECCAK256 ADD DUP4 PUSH0 MSTORE PUSH1 0x20 MSTORE PUSH1 0x3 PUSH1 0x40 PUSH0 KECCAK256 PUSH2 0x663 DUP2 SLOAD ISZERO ISZERO PUSH2 0xF5A JUMP JUMPDEST DUP6 PUSH0 MSTORE ADD PUSH1 0x20 MSTORE DUP2 PUSH2 0x699 DUP2 PUSH1 0x3 PUSH1 0x40 PUSH0 KECCAK256 PUSH2 0x681 DUP2 SLOAD ISZERO ISZERO PUSH2 0xF96 JUMP JUMPDEST DUP6 PUSH1 0x2 DUP3 ADD SSTORE ADD SWAP1 PUSH1 0xFF DUP1 NOT DUP4 SLOAD AND SWAP2 ISZERO ISZERO AND OR SWAP1 SSTORE JUMP JUMPDEST PUSH2 0x6DF JUMPI JUMPDEST SWAP1 PUSH1 0x80 SWAP3 SWAP2 PUSH32 0xC0DE796D4C53C794DDC49E1664F53F55FE5FA868FC58D331893DE93B0796CD40 SWAP5 PUSH1 0x40 MLOAD SWAP4 DUP5 MSTORE PUSH1 0x20 DUP5 ADD MSTORE PUSH1 0x40 DUP4 ADD MSTORE ISZERO ISZERO PUSH1 0x60 DUP3 ADD MSTORE LOG2 STOP JUMPDEST SWAP2 SWAP1 DUP5 PUSH0 MSTORE PUSH1 0x1 PUSH1 0x20 MSTORE PUSH1 0x4 PUSH1 0x40 PUSH0 KECCAK256 ADD SWAP3 DUP4 SLOAD SWAP5 PUSH1 0x1 DUP7 ADD DUP1 SWAP7 GT PUSH2 0x3CC JUMPI SWAP5 SWAP1 SWAP4 SSTORE SWAP1 SWAP2 PUSH2 0x69E JUMP JUMPDEST POP PUSH0 SLOAD PUSH1 0x1 PUSH1 0x1 PUSH1 0xA0 SHL SUB AND CALLER EQ PUSH2 0x612 JUMP JUMPDEST CALLVALUE PUSH2 0x1B9 JUMPI PUSH1 0x20 CALLDATASIZE PUSH1 0x3 NOT ADD SLT PUSH2 0x1B9 JUMPI PUSH1 0x1 PUSH1 0x1 PUSH1 0xA0 SHL SUB PUSH2 0x73E PUSH2 0xE2D JUMP JUMPDEST AND PUSH0 MSTORE PUSH1 0x1 PUSH1 0x20 MSTORE PUSH1 0x20 PUSH1 0xFF PUSH1 0x40 PUSH0 KECCAK256 SLOAD AND PUSH1 0x40 MLOAD SWAP1 ISZERO ISZERO DUP2 MSTORE RETURN JUMPDEST CALLVALUE PUSH2 0x1B9 JUMPI PUSH1 0x20 CALLDATASIZE PUSH1 0x3 NOT ADD SLT PUSH2 0x1B9 JUMPI PUSH1 0x4 CALLDATALOAD PUSH1 0x2 SLOAD DUP2 LT ISZERO PUSH2 0x7D2 JUMPI PUSH1 0x2 SLOAD DUP2 LT ISZERO PUSH2 0x7BE JUMPI PUSH1 0x2 PUSH0 MSTORE PUSH32 0x405787FA12A823E0F2B7631CC41B3BA8828B3321CA811111FA75CD3AA3BB5ACE ADD SLOAD PUSH1 0x40 MLOAD PUSH1 0x1 PUSH1 0x1 PUSH1 0xA0 SHL SUB SWAP1 SWAP2 AND DUP2 MSTORE PUSH1 0x20 SWAP1 RETURN JUMPDEST PUSH4 0x4E487B71 PUSH1 0xE0 SHL PUSH0 MSTORE PUSH1 0x32 PUSH1 0x4 MSTORE PUSH1 0x24 PUSH0 REVERT JUMPDEST PUSH1 0x40 MLOAD PUSH3 0x461BCD PUSH1 0xE5 SHL DUP2 MSTORE PUSH1 0x20 PUSH1 0x4 DUP3 ADD MSTORE PUSH1 0x13 PUSH1 0x24 DUP3 ADD MSTORE PUSH19 0x496E646578206F7574206F6620626F756E6473 PUSH1 0x68 SHL PUSH1 0x44 DUP3 ADD MSTORE PUSH1 0x64 SWAP1 REVERT JUMPDEST CALLVALUE PUSH2 0x1B9 JUMPI PUSH1 0x20 CALLDATASIZE PUSH1 0x3 NOT ADD SLT PUSH2 0x1B9 JUMPI PUSH2 0x826 PUSH2 0xE2D JUMP JUMPDEST PUSH2 0x82E PUSH2 0x113E JUMP JUMPDEST PUSH1 0x1 PUSH1 0x1 PUSH1 0xA0 SHL SUB AND PUSH0 DUP2 DUP2 MSTORE PUSH1 0x4 PUSH1 0x20 MSTORE PUSH1 0x40 DUP2 KECCAK256 DUP1 SLOAD PUSH1 0xFF NOT AND SWAP1 SSTORE PUSH32 0xC3803387881FAAD271C47728894E3E36FAC830FFC8602CA6FC07733CBDA77580 SWAP1 DUP1 LOG2 STOP JUMPDEST CALLVALUE PUSH2 0x1B9 JUMPI PUSH1 0x40 CALLDATASIZE PUSH1 0x3 NOT ADD SLT PUSH2 0x1B9 JUMPI PUSH1 0x1 PUSH1 0x1 PUSH1 0xA0 SHL SUB PUSH2 0x893 PUSH2 0xE2D JUMP JUMPDEST AND PUSH0 MSTORE PUSH1 0x1 PUSH1 0x20 MSTORE PUSH1 0x8 PUSH1 0x40 PUSH0 KECCAK256 ADD PUSH1 0x24 CALLDATALOAD PUSH0 MSTORE PUSH1 0x20 MSTORE PUSH2 0x5E4 PUSH2 0x8BC PUSH1 0x2 PUSH1 0x40 PUSH0 KECCAK256 ADD PUSH2 0x1091 JUMP JUMPDEST PUSH1 0x40 MLOAD SWAP2 DUP3 SWAP2 PUSH1 0x20 DUP4 MSTORE PUSH1 0x20 DUP4 ADD SWAP1 PUSH2 0xE6D JUMP JUMPDEST CALLVALUE PUSH2 0x1B9 JUMPI PUSH1 0x20 CALLDATASIZE PUSH1 0x3 NOT ADD SLT PUSH2 0x1B9 JUMPI PUSH1 0x20 PUSH2 0x8F3 PUSH2 0x8EE PUSH2 0xE2D JUMP JUMPDEST PUSH2 0x104F JUMP JUMPDEST PUSH1 0x40 MLOAD SWAP1 DUP2 MSTORE RETURN JUMPDEST CALLVALUE PUSH2 0x1B9 JUMPI PUSH0 CALLDATASIZE PUSH1 0x3 NOT ADD SLT PUSH2 0x1B9 JUMPI PUSH1 0x20 PUSH1 0x2 SLOAD PUSH1 0x40 MLOAD SWAP1 DUP2 MSTORE RETURN JUMPDEST CALLVALUE PUSH2 0x1B9 JUMPI PUSH0 CALLDATASIZE PUSH1 0x3 NOT ADD SLT PUSH2 0x1B9 JUMPI PUSH0 SLOAD PUSH1 0x40 MLOAD PUSH1 0x1 PUSH1 0x1 PUSH1 0xA0 SHL SUB SWAP1 SWAP2 AND DUP2 MSTORE PUSH1 0x20 SWAP1 RETURN JUMPDEST CALLVALUE PUSH2 0x1B9 JUMPI PUSH1 0x20 CALLDATASIZE PUSH1 0x3 NOT ADD SLT PUSH2 0x1B9 JUMPI PUSH1 0x1 PUSH1 0x1 PUSH1 0xA0 SHL SUB PUSH2 0x960 PUSH2 0xE2D JUMP JUMPDEST AND PUSH0 MSTORE PUSH1 0x1 PUSH1 0x20 MSTORE PUSH1 0x20 PUSH1 0x4 PUSH1 0x40 PUSH0 KECCAK256 ADD SLOAD PUSH1 0x40 MLOAD SWAP1 DUP2 MSTORE RETURN JUMPDEST CALLVALUE PUSH2 0x1B9 JUMPI PUSH0 CALLDATASIZE PUSH1 0x3 NOT ADD SLT PUSH2 0x1B9 JUMPI PUSH2 0x992 PUSH2 0x113E JUMP JUMPDEST PUSH0 DUP1 SLOAD PUSH1 0x1 PUSH1 0x1 PUSH1 0xA0 SHL SUB NOT DUP2 AND DUP3 SSTORE PUSH1 0x1 PUSH1 0x1 PUSH1 0xA0 SHL SUB AND PUSH32 0x8BE0079C531659141344CD1FD0A4F28419497F9722A3DAAFE3B4186F6B6457E0 DUP3 DUP1 LOG3 STOP JUMPDEST CALLVALUE PUSH2 0x1B9 JUMPI PUSH2 0x9DF CALLDATASIZE PUSH2 0xE43 JUMP JUMPDEST SWAP2 PUSH0 PUSH1 0x80 PUSH1 0x40 MLOAD PUSH2 0x9EF DUP2 PUSH2 0x101F JUMP JUMPDEST DUP3 DUP2 MSTORE DUP3 PUSH1 0x20 DUP3 ADD MSTORE DUP3 PUSH1 0x40 DUP3 ADD MSTORE DUP3 PUSH1 0x60 DUP3 ADD MSTORE ADD MSTORE PUSH1 0x1 DUP1 PUSH1 0xA0 SHL SUB AND PUSH0 MSTORE PUSH1 0x1 PUSH1 0x20 MSTORE PUSH1 0x8 PUSH1 0x40 PUSH0 KECCAK256 ADD SWAP1 PUSH0 MSTORE PUSH1 0x20 MSTORE PUSH1 0x3 PUSH1 0x40 PUSH0 KECCAK256 ADD SWAP1 PUSH0 MSTORE PUSH1 0x20 MSTORE PUSH1 0xA0 PUSH1 0x40 PUSH0 KECCAK256 PUSH1 0x40 MLOAD SWAP1 PUSH2 0xA42 DUP3 PUSH2 0x101F JUMP JUMPDEST DUP1 SLOAD SWAP2 DUP3 DUP2 MSTORE PUSH1 0x1 DUP3 ADD SLOAD SWAP2 PUSH1 0x20 DUP3 ADD SWAP3 DUP4 MSTORE PUSH1 0x3 PUSH1 0x2 DUP3 ADD SLOAD SWAP2 PUSH1 0x40 DUP5 ADD SWAP3 DUP4 MSTORE ADD SLOAD SWAP3 PUSH1 0xFF PUSH1 0x80 PUSH1 0x60 DUP6 ADD SWAP5 DUP3 DUP8 AND ISZERO ISZERO DUP7 MSTORE ADD SWAP5 PUSH1 0x8 SHR AND ISZERO ISZERO DUP5 MSTORE PUSH1 0x40 MLOAD SWAP5 DUP6 MSTORE MLOAD PUSH1 0x20 DUP6 ADD MSTORE MLOAD PUSH1 0x40 DUP5 ADD MSTORE MLOAD ISZERO ISZERO PUSH1 0x60 DUP4 ADD MSTORE MLOAD ISZERO ISZERO PUSH1 0x80 DUP3 ADD MSTORE RETURN JUMPDEST CALLVALUE PUSH2 0x1B9 JUMPI PUSH1 0x20 CALLDATASIZE PUSH1 0x3 NOT ADD SLT PUSH2 0x1B9 JUMPI PUSH1 0x1 PUSH1 0x1 PUSH1 0xA0 SHL SUB PUSH2 0xAC6 PUSH2 0xE2D JUMP JUMPDEST AND PUSH0 MSTORE PUSH1 0x4 PUSH1 0x20 MSTORE PUSH1 0x20 PUSH1 0xFF PUSH1 0x40 PUSH0 KECCAK256 SLOAD AND PUSH1 0x40 MLOAD SWAP1 ISZERO ISZERO DUP2 MSTORE RETURN JUMPDEST CALLVALUE PUSH2 0x1B9 JUMPI PUSH1 0x80 CALLDATASIZE PUSH1 0x3 NOT ADD SLT PUSH2 0x1B9 JUMPI PUSH2 0xAFB PUSH2 0xE2D JUMP JUMPDEST PUSH1 0x24 CALLDATALOAD SWAP1 PUSH1 0x44 CALLDATALOAD SWAP1 PUSH1 0x64 CALLDATALOAD SWAP1 CALLER PUSH0 MSTORE PUSH1 0x4 PUSH1 0x20 MSTORE PUSH1 0xFF PUSH1 0x40 PUSH0 KECCAK256 SLOAD AND DUP1 ISZERO PUSH2 0xC36 JUMPI JUMPDEST PUSH2 0xB27 SWAP1 PUSH2 0xEDB JUMP JUMPDEST PUSH1 0x1 DUP1 PUSH1 0xA0 SHL SUB AND SWAP3 DUP4 PUSH0 MSTORE PUSH1 0x1 PUSH1 0x20 MSTORE PUSH2 0xB48 PUSH1 0xFF PUSH1 0x40 PUSH0 KECCAK256 SLOAD AND PUSH2 0xF18 JUMP JUMPDEST DUP2 ISZERO PUSH2 0xC00 JUMPI DUP4 PUSH0 MSTORE PUSH1 0x1 PUSH1 0x20 MSTORE PUSH1 0x8 PUSH1 0x40 PUSH0 KECCAK256 ADD DUP2 PUSH0 MSTORE PUSH1 0x20 MSTORE PUSH1 0x3 PUSH1 0x40 PUSH0 KECCAK256 PUSH2 0xB75 DUP2 SLOAD ISZERO ISZERO PUSH2 0xF5A JUMP JUMPDEST DUP5 PUSH0 MSTORE ADD PUSH1 0x20 MSTORE PUSH1 0x1 PUSH1 0x40 PUSH0 KECCAK256 PUSH2 0xB8E DUP2 SLOAD ISZERO ISZERO PUSH2 0xF96 JUMP JUMPDEST ADD SWAP2 DUP1 DUP4 SLOAD SWAP4 SSTORE DUP5 PUSH0 MSTORE PUSH1 0x1 PUSH1 0x20 MSTORE PUSH1 0x3 PUSH1 0x40 PUSH0 KECCAK256 ADD SLOAD SWAP3 DUP4 SUB SWAP3 DUP4 GT PUSH2 0x3CC JUMPI PUSH32 0x7D5F0EAD71F858F368687DEE537578B130A058FACD6D86C4F4C84756850E42BE SWAP4 PUSH2 0xBDD DUP3 PUSH1 0x60 SWAP6 PUSH2 0xFD4 JUMP JUMPDEST DUP7 PUSH0 MSTORE PUSH1 0x1 PUSH1 0x20 MSTORE PUSH1 0x3 PUSH1 0x40 PUSH0 KECCAK256 ADD SSTORE PUSH1 0x40 MLOAD SWAP3 DUP4 MSTORE PUSH1 0x20 DUP4 ADD MSTORE PUSH1 0x40 DUP3 ADD MSTORE LOG2 STOP JUMPDEST PUSH1 0x40 MLOAD PUSH3 0x461BCD PUSH1 0xE5 SHL DUP2 MSTORE PUSH1 0x20 PUSH1 0x4 DUP3 ADD MSTORE PUSH1 0xE PUSH1 0x24 DUP3 ADD MSTORE PUSH14 0x125B9D985B1A5908185B5BDD5B9D PUSH1 0x92 SHL PUSH1 0x44 DUP3 ADD MSTORE PUSH1 0x64 SWAP1 REVERT JUMPDEST POP PUSH0 SLOAD PUSH1 0x1 PUSH1 0x1 PUSH1 0xA0 SHL SUB AND CALLER EQ PUSH2 0xB1E JUMP JUMPDEST CALLVALUE PUSH2 0x1B9 JUMPI PUSH1 0x20 CALLDATASIZE PUSH1 0x3 NOT ADD SLT PUSH2 0x1B9 JUMPI PUSH2 0xC62 PUSH2 0xE2D JUMP JUMPDEST PUSH2 0xC6A PUSH2 0x113E JUMP JUMPDEST PUSH1 0x1 PUSH1 0x1 PUSH1 0xA0 SHL SUB AND PUSH2 0xC7E DUP2 ISZERO ISZERO PUSH2 0xFE1 JUMP JUMPDEST DUP1 PUSH0 MSTORE PUSH1 0x4 PUSH1 0x20 MSTORE PUSH1 0x40 PUSH0 KECCAK256 PUSH1 0x1 PUSH1 0xFF NOT DUP3 SLOAD AND OR SWAP1 SSTORE PUSH32 0xEB1B9B92E50B7F88F9FF25D56765095AC6E91540EEE214906F4036A908FFBDEF PUSH0 DUP1 LOG2 STOP JUMPDEST CALLVALUE PUSH2 0x1B9 JUMPI PUSH2 0xCC9 CALLDATASIZE PUSH2 0xE43 JUMP JUMPDEST SWAP1 SWAP2 CALLER PUSH0 MSTORE PUSH1 0x4 PUSH1 0x20 MSTORE PUSH1 0xFF PUSH1 0x40 PUSH0 KECCAK256 SLOAD AND DUP1 ISZERO PUSH2 0xE1A JUMPI JUMPDEST PUSH2 0xCEB SWAP1 PUSH2 0xEDB JUMP JUMPDEST PUSH1 0x1 DUP1 PUSH1 0xA0 SHL SUB AND SWAP2 DUP3 PUSH0 MSTORE PUSH1 0x1 PUSH1 0x20 MSTORE PUSH2 0xD0C PUSH1 0xFF PUSH1 0x40 PUSH0 KECCAK256 SLOAD AND PUSH2 0xF18 JUMP JUMPDEST DUP3 PUSH0 MSTORE PUSH1 0x1 PUSH1 0x20 MSTORE PUSH1 0x8 PUSH1 0x40 PUSH0 KECCAK256 ADD DUP2 PUSH0 MSTORE PUSH1 0x20 MSTORE PUSH1 0x3 PUSH1 0x40 PUSH0 KECCAK256 PUSH2 0xD33 DUP2 SLOAD ISZERO ISZERO PUSH2 0xF5A JUMP JUMPDEST DUP4 PUSH0 MSTORE ADD PUSH1 0x20 MSTORE PUSH1 0x3 PUSH1 0x40 PUSH0 KECCAK256 PUSH2 0xD4C DUP2 SLOAD ISZERO ISZERO PUSH2 0xF96 JUMP JUMPDEST ADD DUP1 SLOAD PUSH1 0xFF DUP2 PUSH1 0x8 SHR AND PUSH2 0xDD5 JUMPI PUSH2 0x100 SWAP1 PUSH2 0xFF00 NOT AND OR SWAP1 SSTORE DUP3 PUSH0 MSTORE PUSH1 0x1 PUSH1 0x20 MSTORE PUSH1 0x2 PUSH1 0x40 PUSH0 KECCAK256 ADD DUP1 SLOAD SWAP1 PUSH1 0x1 DUP3 ADD DUP1 SWAP3 GT PUSH2 0x3CC JUMPI SSTORE DUP3 PUSH0 MSTORE PUSH1 0x1 PUSH1 0x20 MSTORE PUSH1 0x4 PUSH1 0x40 PUSH0 KECCAK256 ADD SWAP1 DUP2 SLOAD SWAP3 PUSH1 0xA DUP5 ADD DUP1 SWAP5 GT PUSH2 0x3CC JUMPI PUSH32 0x423A03A0EEF6DF82A4EB09B1672E0B3523F91A3CFC076DEA4BD9064ADF944023 SWAP4 PUSH1 0x40 SWAP4 SSTORE DUP3 MLOAD SWAP2 DUP3 MSTORE PUSH1 0x20 DUP3 ADD MSTORE LOG2 STOP JUMPDEST PUSH1 0x40 MLOAD PUSH3 0x461BCD PUSH1 0xE5 SHL DUP2 MSTORE PUSH1 0x20 PUSH1 0x4 DUP3 ADD MSTORE PUSH1 0x18 PUSH1 0x24 DUP3 ADD MSTORE PUSH32 0x416C7265616479206D61726B65642061732077696E6E65720000000000000000 PUSH1 0x44 DUP3 ADD MSTORE PUSH1 0x64 SWAP1 REVERT JUMPDEST POP PUSH0 SLOAD PUSH1 0x1 PUSH1 0x1 PUSH1 0xA0 SHL SUB AND CALLER EQ PUSH2 0xCE2 JUMP JUMPDEST PUSH1 0x4 CALLDATALOAD SWAP1 PUSH1 0x1 PUSH1 0x1 PUSH1 0xA0 SHL SUB DUP3 AND DUP3 SUB PUSH2 0x1B9 JUMPI JUMP JUMPDEST PUSH1 0x60 SWAP1 PUSH1 0x3 NOT ADD SLT PUSH2 0x1B9 JUMPI PUSH1 0x4 CALLDATALOAD PUSH1 0x1 PUSH1 0x1 PUSH1 0xA0 SHL SUB DUP2 AND DUP2 SUB PUSH2 0x1B9 JUMPI SWAP1 PUSH1 0x24 CALLDATALOAD SWAP1 PUSH1 0x44 CALLDATALOAD SWAP1 JUMP JUMPDEST SWAP1 PUSH1 0x20 DUP1 DUP4 MLOAD SWAP3 DUP4 DUP2 MSTORE ADD SWAP3 ADD SWAP1 PUSH0 JUMPDEST DUP2 DUP2 LT PUSH2 0xE8A JUMPI POP POP POP SWAP1 JUMP JUMPDEST DUP3 MLOAD DUP5 MSTORE PUSH1 0x20 SWAP4 DUP5 ADD SWAP4 SWAP1 SWAP3 ADD SWAP2 PUSH1 0x1 ADD PUSH2 0xE7D JUMP JUMPDEST PUSH1 0xA0 SWAP1 PUSH1 0x3 NOT ADD SLT PUSH2 0x1B9 JUMPI PUSH1 0x4 CALLDATALOAD PUSH1 0x1 PUSH1 0x1 PUSH1 0xA0 SHL SUB DUP2 AND DUP2 SUB PUSH2 0x1B9 JUMPI SWAP1 PUSH1 0x24 CALLDATALOAD SWAP1 PUSH1 0x44 CALLDATALOAD SWAP1 PUSH1 0x64 CALLDATALOAD SWAP1 PUSH1 0x84 CALLDATALOAD DUP1 ISZERO ISZERO DUP2 SUB PUSH2 0x1B9 JUMPI SWAP1 JUMP JUMPDEST ISZERO PUSH2 0xEE2 JUMPI JUMP JUMPDEST PUSH1 0x40 MLOAD PUSH3 0x461BCD PUSH1 0xE5 SHL DUP2 MSTORE PUSH1 0x20 PUSH1 0x4 DUP3 ADD MSTORE PUSH1 0xE PUSH1 0x24 DUP3 ADD MSTORE PUSH14 0x139BDD08185D5D1A1BDC9A5E9959 PUSH1 0x92 SHL PUSH1 0x44 DUP3 ADD MSTORE PUSH1 0x64 SWAP1 REVERT JUMPDEST ISZERO PUSH2 0xF1F JUMPI JUMP JUMPDEST PUSH1 0x40 MLOAD PUSH3 0x461BCD PUSH1 0xE5 SHL DUP2 MSTORE PUSH1 0x20 PUSH1 0x4 DUP3 ADD MSTORE PUSH1 0x13 PUSH1 0x24 DUP3 ADD MSTORE PUSH19 0x155CD95C881B9BDD081C9959DA5CDD195C9959 PUSH1 0x6A SHL PUSH1 0x44 DUP3 ADD MSTORE PUSH1 0x64 SWAP1 REVERT JUMPDEST ISZERO PUSH2 0xF61 JUMPI JUMP JUMPDEST PUSH1 0x40 MLOAD PUSH3 0x461BCD PUSH1 0xE5 SHL DUP2 MSTORE PUSH1 0x20 PUSH1 0x4 DUP3 ADD MSTORE PUSH1 0xD PUSH1 0x24 DUP3 ADD MSTORE PUSH13 0x141BDD081B9BDD08199BDD5B99 PUSH1 0x9A SHL PUSH1 0x44 DUP3 ADD MSTORE PUSH1 0x64 SWAP1 REVERT JUMPDEST ISZERO PUSH2 0xF9D JUMPI JUMP JUMPDEST PUSH1 0x40 MLOAD PUSH3 0x461BCD PUSH1 0xE5 SHL DUP2 MSTORE PUSH1 0x20 PUSH1 0x4 DUP3 ADD MSTORE PUSH1 0xF PUSH1 0x24 DUP3 ADD MSTORE PUSH15 0x10DE58DB19481B9BDD08199BDD5B99 PUSH1 0x8A SHL PUSH1 0x44 DUP3 ADD MSTORE PUSH1 0x64 SWAP1 REVERT JUMPDEST SWAP2 SWAP1 DUP3 ADD DUP1 SWAP3 GT PUSH2 0x3CC JUMPI JUMP JUMPDEST ISZERO PUSH2 0xFE8 JUMPI JUMP JUMPDEST PUSH1 0x40 MLOAD PUSH3 0x461BCD PUSH1 0xE5 SHL DUP2 MSTORE PUSH1 0x20 PUSH1 0x4 DUP3 ADD MSTORE PUSH1 0xF PUSH1 0x24 DUP3 ADD MSTORE PUSH15 0x496E76616C69642061646472657373 PUSH1 0x88 SHL PUSH1 0x44 DUP3 ADD MSTORE PUSH1 0x64 SWAP1 REVERT JUMPDEST PUSH1 0xA0 DUP2 ADD SWAP1 DUP2 LT PUSH8 0xFFFFFFFFFFFFFFFF DUP3 GT OR PUSH2 0x103B JUMPI PUSH1 0x40 MSTORE JUMP JUMPDEST PUSH4 0x4E487B71 PUSH1 0xE0 SHL PUSH0 MSTORE PUSH1 0x41 PUSH1 0x4 MSTORE PUSH1 0x24 PUSH0 REVERT JUMPDEST PUSH1 0x1 DUP1 PUSH1 0xA0 SHL SUB AND PUSH0 MSTORE PUSH1 0x1 PUSH1 0x20 MSTORE PUSH1 0x40 PUSH0 KECCAK256 PUSH1 0x1 DUP2 ADD SLOAD SWAP1 DUP2 ISZERO PUSH2 0x108B JUMPI PUSH1 0x2 ADD SLOAD PUSH2 0x2710 DUP2 MUL SWAP1 DUP1 DUP3 DIV PUSH2 0x2710 EQ SWAP1 ISZERO OR ISZERO PUSH2 0x3CC JUMPI DIV SWAP1 JUMP JUMPDEST POP POP PUSH0 SWAP1 JUMP JUMPDEST SWAP1 PUSH1 0x40 MLOAD SWAP2 DUP1 SLOAD DUP1 DUP5 MSTORE PUSH1 0x20 DUP5 ADD SWAP2 PUSH0 MSTORE PUSH1 0x20 PUSH0 KECCAK256 SWAP1 PUSH0 JUMPDEST DUP2 DUP2 LT PUSH2 0x10D7 JUMPI POP POP POP DUP3 SWAP1 SUB PUSH1 0x1F ADD PUSH1 0x1F NOT AND DUP3 ADD PUSH8 0xFFFFFFFFFFFFFFFF DUP2 GT DUP4 DUP3 LT OR PUSH2 0x103B JUMPI PUSH1 0x40 MSTORE JUMP JUMPDEST DUP3 SLOAD DUP5 MSTORE PUSH1 0x20 SWAP1 SWAP4 ADD SWAP3 PUSH1 0x1 SWAP3 DUP4 ADD SWAP3 ADD PUSH2 0x10A9 JUMP JUMPDEST DUP1 SLOAD DUP3 LT ISZERO PUSH2 0x7BE JUMPI PUSH0 MSTORE PUSH1 0x20 PUSH0 KECCAK256 ADD SWAP1 PUSH0 SWAP1 JUMP JUMPDEST DUP1 SLOAD SWAP1 PUSH1 0x1 PUSH1 0x40 SHL DUP3 LT ISZERO PUSH2 0x103B JUMPI DUP2 PUSH2 0x1124 SWAP2 PUSH1 0x1 PUSH2 0x113A SWAP5 ADD DUP2 SSTORE PUSH2 0x10ED JUMP JUMPDEST DUP2 SWAP4 SWAP2 SLOAD SWAP1 PUSH1 0x3 SHL SWAP2 DUP3 SHL SWAP2 PUSH0 NOT SWAP1 SHL NOT AND OR SWAP1 JUMP JUMPDEST SWAP1 SSTORE JUMP JUMPDEST PUSH0 SLOAD PUSH1 0x1 PUSH1 0x1 PUSH1 0xA0 SHL SUB AND CALLER SUB PUSH2 0x1151 JUMPI JUMP JUMPDEST PUSH4 0x118CDAA7 PUSH1 0xE0 SHL PUSH0 MSTORE CALLER PUSH1 0x4 MSTORE PUSH1 0x24 PUSH0 REVERT JUMPDEST DUP1 PUSH0 MSTORE PUSH1 0x3 PUSH1 0x20 MSTORE PUSH1 0x40 PUSH0 KECCAK256 SLOAD ISZERO PUSH0 EQ PUSH2 0x11B4 JUMPI PUSH1 0x2 SLOAD PUSH1 0x1 PUSH1 0x40 SHL DUP2 LT ISZERO PUSH2 0x103B JUMPI PUSH2 0x119D PUSH2 0x1124 DUP3 PUSH1 0x1 DUP6 SWAP5 ADD PUSH1 0x2 SSTORE PUSH1 0x2 PUSH2 0x10ED JUMP JUMPDEST SWAP1 SSTORE PUSH1 0x2 SLOAD SWAP1 PUSH0 MSTORE PUSH1 0x3 PUSH1 0x20 MSTORE PUSH1 0x40 PUSH0 KECCAK256 SSTORE PUSH1 0x1 SWAP1 JUMP JUMPDEST POP PUSH0 SWAP1 JUMP INVALID LOG2 PUSH5 0x6970667358 0x22 SLT KECCAK256 PUSH31 0x3BE34E088E32360C1AD919C2D5B11D14F0765020A6ADAC0CB94D45F78F761E PUSH5 0x736F6C6343 STOP ADDMOD 0x1E STOP CALLER "
				},
				"gasEstimates": {
					"creation": {
						"codeDepositCost": "918200",
						"executionCost": "26760",
						"totalCost": "944960"
					},
					"external": {
						"addAuthorizedCaller(address)": "27864",
						"authorizedCallers(address)": "2476",
						"getCycleParticipation(address,uint256,uint256)": "infinite",
						"getMemberByIndex(uint256)": "6804",
						"getMemberProfile(address)": "infinite",
						"getPotCycles(address,uint256)": "infinite",
						"getReputationScore(address)": "2536",
						"getTotalMembers()": "2424",
						"getWinRate(address)": "4821",
						"isRegistered(address)": "2696",
						"markAsWinner(address,uint256,uint256)": "85880",
						"owner()": "2425",
						"registerMember(address)": "149695",
						"removeAuthorizedCaller(address)": "28034",
						"renounceOwnership()": "28152",
						"transferOwnership(address)": "28536",
						"updateBidInfo(address,uint256,uint256,uint256,bool)": "84651",
						"updateParticipation(address,uint256,uint256,uint256,bool)": "infinite",
						"updatePotFundingDetails(address,uint256,uint256,uint256)": "61989"
					}
				},
				"methodIdentifiers": {
					"addAuthorizedCaller(address)": "13a155ea",
					"authorizedCallers(address)": "536fff6c",
					"getCycleParticipation(address,uint256,uint256)": "6a84a73d",
					"getMemberByIndex(uint256)": "bce73b45",
					"getMemberProfile(address)": "cca28f39",
					"getPotCycles(address,uint256)": "abf4cf6b",
					"getReputationScore(address)": "75a67d5c",
					"getTotalMembers()": "8f180305",
					"getWinRate(address)": "914a1e76",
					"isRegistered(address)": "c3c5a547",
					"markAsWinner(address,uint256,uint256)": "0649be20",
					"owner()": "8da5cb5b",
					"registerMember(address)": "fcb4888e",
					"removeAuthorizedCaller(address)": "b7aa0231",
					"renounceOwnership()": "715018a6",
					"transferOwnership(address)": "f2fde38b",
					"updateBidInfo(address,uint256,uint256,uint256,bool)": "c7d8acd8",
					"updateParticipation(address,uint256,uint256,uint256,bool)": "db151c07",
					"updatePotFundingDetails(address,uint256,uint256,uint256)": "1b0c7559"
				}
			},
			"storageLayout": {
				"storage": [
					{
						"astId": 8,
						"contract": "MemberAccountManager1.sol:MemberAccountManager",
						"label": "_owner",
						"offset": 0,
						"slot": "0",
						"type": "t_address"
					},
					{
						"astId": 6471,
						"contract": "MemberAccountManager1.sol:MemberAccountManager",
						"label": "memberProfiles",
						"offset": 0,
						"slot": "1",
						"type": "t_mapping(t_address,t_struct(MemberProfile)6465_storage)"
					},
					{
						"astId": 6474,
						"contract": "MemberAccountManager1.sol:MemberAccountManager",
						"label": "registeredMembers",
						"offset": 0,
						"slot": "2",
						"type": "t_struct(AddressSet)5380_storage"
					},
					{
						"astId": 6478,
						"contract": "MemberAccountManager1.sol:MemberAccountManager",
						"label": "authorizedCallers",
						"offset": 0,
						"slot": "4",
						"type": "t_mapping(t_address,t_bool)"
					}
				],
				"types": {
					"t_address": {
						"encoding": "inplace",
						"label": "address",
						"numberOfBytes": "20"
					},
					"t_array(t_bytes32)dyn_storage": {
						"base": "t_bytes32",
						"encoding": "dynamic_array",
						"label": "bytes32[]",
						"numberOfBytes": "32"
					},
					"t_array(t_uint256)dyn_storage": {
						"base": "t_uint256",
						"encoding": "dynamic_array",
						"label": "uint256[]",
						"numberOfBytes": "32"
					},
					"t_bool": {
						"encoding": "inplace",
						"label": "bool",
						"numberOfBytes": "1"
					},
					"t_bytes32": {
						"encoding": "inplace",
						"label": "bytes32",
						"numberOfBytes": "32"
					},
					"t_mapping(t_address,t_bool)": {
						"encoding": "mapping",
						"key": "t_address",
						"label": "mapping(address => bool)",
						"numberOfBytes": "32",
						"value": "t_bool"
					},
					"t_mapping(t_address,t_struct(MemberProfile)6465_storage)": {
						"encoding": "mapping",
						"key": "t_address",
						"label": "mapping(address => struct MemberAccountManager.MemberProfile)",
						"numberOfBytes": "32",
						"value": "t_struct(MemberProfile)6465_storage"
					},
					"t_mapping(t_bytes32,t_uint256)": {
						"encoding": "mapping",
						"key": "t_bytes32",
						"label": "mapping(bytes32 => uint256)",
						"numberOfBytes": "32",
						"value": "t_uint256"
					},
					"t_mapping(t_uint256,t_struct(CycleParticipation)6428_storage)": {
						"encoding": "mapping",
						"key": "t_uint256",
						"label": "mapping(uint256 => struct MemberAccountManager.CycleParticipation)",
						"numberOfBytes": "32",
						"value": "t_struct(CycleParticipation)6428_storage"
					},
					"t_mapping(t_uint256,t_struct(PotData)6441_storage)": {
						"encoding": "mapping",
						"key": "t_uint256",
						"label": "mapping(uint256 => struct MemberAccountManager.PotData)",
						"numberOfBytes": "32",
						"value": "t_struct(PotData)6441_storage"
					},
					"t_struct(AddressSet)5380_storage": {
						"encoding": "inplace",
						"label": "struct EnumerableSet.AddressSet",
						"members": [
							{
								"astId": 5379,
								"contract": "MemberAccountManager1.sol:MemberAccountManager",
								"label": "_inner",
								"offset": 0,
								"slot": "0",
								"type": "t_struct(Set)4894_storage"
							}
						],
						"numberOfBytes": "64"
					},
					"t_struct(CycleParticipation)6428_storage": {
						"encoding": "inplace",
						"label": "struct MemberAccountManager.CycleParticipation",
						"members": [
							{
								"astId": 6419,
								"contract": "MemberAccountManager1.sol:MemberAccountManager",
								"label": "cycleId",
								"offset": 0,
								"slot": "0",
								"type": "t_uint256"
							},
							{
								"astId": 6421,
								"contract": "MemberAccountManager1.sol:MemberAccountManager",
								"label": "contribution",
								"offset": 0,
								"slot": "1",
								"type": "t_uint256"
							},
							{
								"astId": 6423,
								"contract": "MemberAccountManager1.sol:MemberAccountManager",
								"label": "bidAmount",
								"offset": 0,
								"slot": "2",
								"type": "t_uint256"
							},
							{
								"astId": 6425,
								"contract": "MemberAccountManager1.sol:MemberAccountManager",
								"label": "didBid",
								"offset": 0,
								"slot": "3",
								"type": "t_bool"
							},
							{
								"astId": 6427,
								"contract": "MemberAccountManager1.sol:MemberAccountManager",
								"label": "won",
								"offset": 1,
								"slot": "3",
								"type": "t_bool"
							}
						],
						"numberOfBytes": "128"
					},
					"t_struct(MemberProfile)6465_storage": {
						"encoding": "inplace",
						"label": "struct MemberAccountManager.MemberProfile",
						"members": [
							{
								"astId": 6443,
								"contract": "MemberAccountManager1.sol:MemberAccountManager",
								"label": "registered",
								"offset": 0,
								"slot": "0",
								"type": "t_bool"
							},
							{
								"astId": 6445,
								"contract": "MemberAccountManager1.sol:MemberAccountManager",
								"label": "totalCyclesParticipated",
								"offset": 0,
								"slot": "1",
								"type": "t_uint256"
							},
							{
								"astId": 6447,
								"contract": "MemberAccountManager1.sol:MemberAccountManager",
								"label": "totalCyclesWon",
								"offset": 0,
								"slot": "2",
								"type": "t_uint256"
							},
							{
								"astId": 6449,
								"contract": "MemberAccountManager1.sol:MemberAccountManager",
								"label": "totalContribution",
								"offset": 0,
								"slot": "3",
								"type": "t_uint256"
							},
							{
								"astId": 6451,
								"contract": "MemberAccountManager1.sol:MemberAccountManager",
								"label": "reputationScore",
								"offset": 0,
								"slot": "4",
								"type": "t_uint256"
							},
							{
								"astId": 6453,
								"contract": "MemberAccountManager1.sol:MemberAccountManager",
								"label": "lastJoinedTimestamp",
								"offset": 0,
								"slot": "5",
								"type": "t_uint256"
							},
							{
								"astId": 6456,
								"contract": "MemberAccountManager1.sol:MemberAccountManager",
								"label": "createdPots",
								"offset": 0,
								"slot": "6",
								"type": "t_array(t_uint256)dyn_storage"
							},
							{
								"astId": 6459,
								"contract": "MemberAccountManager1.sol:MemberAccountManager",
								"label": "joinedPots",
								"offset": 0,
								"slot": "7",
								"type": "t_array(t_uint256)dyn_storage"
							},
							{
								"astId": 6464,
								"contract": "MemberAccountManager1.sol:MemberAccountManager",
								"label": "pots",
								"offset": 0,
								"slot": "8",
								"type": "t_mapping(t_uint256,t_struct(PotData)6441_storage)"
							}
						],
						"numberOfBytes": "288"
					},
					"t_struct(PotData)6441_storage": {
						"encoding": "inplace",
						"label": "struct MemberAccountManager.PotData",
						"members": [
							{
								"astId": 6430,
								"contract": "MemberAccountManager1.sol:MemberAccountManager",
								"label": "potId",
								"offset": 0,
								"slot": "0",
								"type": "t_uint256"
							},
							{
								"astId": 6432,
								"contract": "MemberAccountManager1.sol:MemberAccountManager",
								"label": "isCreator",
								"offset": 0,
								"slot": "1",
								"type": "t_bool"
							},
							{
								"astId": 6435,
								"contract": "MemberAccountManager1.sol:MemberAccountManager",
								"label": "cycleIds",
								"offset": 0,
								"slot": "2",
								"type": "t_array(t_uint256)dyn_storage"
							},
							{
								"astId": 6440,
								"contract": "MemberAccountManager1.sol:MemberAccountManager",
								"label": "cycleParticipation",
								"offset": 0,
								"slot": "3",
								"type": "t_mapping(t_uint256,t_struct(CycleParticipation)6428_storage)"
							}
						],
						"numberOfBytes": "128"
					},
					"t_struct(Set)4894_storage": {
						"encoding": "inplace",
						"label": "struct EnumerableSet.Set",
						"members": [
							{
								"astId": 4889,
								"contract": "MemberAccountManager1.sol:MemberAccountManager",
								"label": "_values",
								"offset": 0,
								"slot": "0",
								"type": "t_array(t_bytes32)dyn_storage"
							},
							{
								"astId": 4893,
								"contract": "MemberAccountManager1.sol:MemberAccountManager",
								"label": "_positions",
								"offset": 0,
								"slot": "1",
								"type": "t_mapping(t_bytes32,t_uint256)"
							}
						],
						"numberOfBytes": "64"
					},
					"t_uint256": {
						"encoding": "inplace",
						"label": "uint256",
						"numberOfBytes": "32"
					}
				}
			},
			"userdoc": {
				"events": {
					"MemberRegistered(address)": {
						"notice": "=== Events ==="
					}
				},
				"kind": "user",
				"methods": {
					"addAuthorizedCaller(address)": {
						"notice": "=== Authorization Management ==="
					},
					"constructor": {
						"notice": "=== Constructor ==="
					},
					"getMemberProfile(address)": {
						"notice": "=== Read Functions ==="
					},
					"registerMember(address)": {
						"notice": "=== Registration ==="
					},
					"updateParticipation(address,uint256,uint256,uint256,bool)": {
						"notice": "=== Core Functionalities ==="
					}
				},
				"notice": "Tracks user activity: pots, cycles, bids, and performance in ChainPot",
				"version": 1
			}
		}
	}
}