{
	"data": {
		"bytecode": {
			"linkReferences": {},
			"object": "60a03461017257601f612dc038819003918201601f19168301916001600160401b038311848410176101765780849260209460405283398101031261017257516001600160a01b0381169081900361017257331561015f575f8054336001600160a01b03198216811783556040519290916001600160a01b0316907f8be0079c531659141344cd1fd0a4f28419497f9722a3daafe3b4186f6b6457e09080a36001805560ff196002541660025560016003556064600b55611b58600c55811561011d5750608052604051612c35908161018b823960805181818161050501528181610af601528181610c0101528181610f78015281816114640152818161181f015281816119bc01528181611e91015281816125db0152612ab50152f35b62461bcd60e51b815260206004820152601d60248201527f496e76616c6964207969656c64206d616e6167657220616464726573730000006044820152606490fd5b631e4fbdf760e01b5f525f60045260245ffd5b5f80fd5b634e487b7160e01b5f52604160045260245ffdfe60806040526004361015610050575b361561004e5760405162461bcd60e51b8152602060048201526012602482015271119d5b98dd1a5bdb881b9bdd08199bdd5b9960721b6044820152606490fd5b005b5f3560e01c806308f43333146123fd5780630988d9da146123b657806315adc3401461239d5780631ad00447146122b25780631ddfa36514611de65780631fb3214114611dba5780632a59c4b514610f635780632ea7da4914611d4857806333542e4614611c7d5780633cc3bba214611bf557806340a6a97c1461188257806345c80801146117fa5780634a4e3bd5146117675780634ccba848146103265780635111ab471461174a57806351858e27146116f15780635328c2bf1461159d57806356ffb6c01461133b5780635a2bb63d146112875780635c975abb146112655780636433203a14610265578063715018a61461120e578063744bfe61146111565780637cd2223814610fa75780637ecc811d1461042e57806380b7af1814610f635780638da5cb5b14610f3c5780638dbdbe6d14610b885780639088638914610b6b5780639c10052414610ad1578063a7323230146108ba578063ae3b7f0614610823578063b0186731146107e5578063b02c43d01461075f578063b328dc2e146106a8578063b7f4417c14610634578063b93f7819146105c0578063c2661dbe14610494578063c56e610e14610479578063e1e158a514610458578063e7b2969a1461042e578063eaf669e6146103f1578063ecb3dc88146103d4578063eeca08f0146103b7578063efaa729514610350578063f1e6f1d914610326578063f2fde38b146102a15763f6781f1f0361000e575b3461029d57602036600319011261029d576001600160a01b03610286612446565b165f52600a602052602060405f2054604051908152f35b5f80fd5b3461029d57602036600319011261029d576102ba612446565b6102c2612bb9565b6001600160a01b03168015610313575f80546001600160a01b03198116831782556001600160a01b0316907f8be0079c531659141344cd1fd0a4f28419497f9722a3daafe3b4186f6b6457e09080a3005b631e4fbdf760e01b5f525f60045260245ffd5b3461029d57602036600319011261029d576004355f526009602052602060405f2054604051908152f35b3461029d57602036600319011261029d5760206103a4600435801515806103ac575b61037b906127b7565b5f81815260048452604090206003015461039f906001600160a01b031615156127f8565b6129fe565b604051908152f35b506003548110610372565b3461029d575f36600319011261029d576020600b54604051908152f35b3461029d575f36600319011261029d576020600354604051908152f35b3461029d575f36600319011261029d576003545f19810190811161041a57602090604051908152f35b634e487b7160e01b5f52601160045260245ffd5b3461029d57602036600319011261029d576004355f526007602052602060405f2054604051908152f35b3461029d575f36600319011261029d57602060405166038d7ea4c680008152f35b3461029d575f36600319011261029d57602047604051908152f35b3461029d57606036600319011261029d576104ad612446565b6104b5612472565b906104ce60018060a01b0360025460081c163314612672565b6104d6612b1f565b6104de612b63565b6001600160a01b031690811561058c576001600160a01b031690610503821515612900565b7f00000000000000000000000000000000000000000000000000000000000000006001600160a01b031691823b1561029d5760645f928360405195869485936316a62d5f60e11b85526004850152602435602485015260448401525af1801561058157610571575b60018055005b5f61057b91612562565b8061056b565b6040513d5f823e3d90fd5b60405162461bcd60e51b815260206004820152600c60248201526b24b73b30b634b2103ab9b2b960a11b6044820152606490fd5b3461029d57602036600319011261029d5760043580151580610629575b6105e6906127b7565b5f8181526004602052604090206003015461060b906001600160a01b031615156127f8565b5f526004602052602060ff600660405f200154166040519015158152f35b5060035481106105dd565b3461029d57602036600319011261029d576004355f52600560205260405f206040519081602082549182815201915f5260205f20905f5b8181106106925761068e8561068281870382612562565b604051918291826124f8565b0390f35b825484526020909301926001928301920161066b565b3461029d57602036600319011261029d576004356106c4612bb9565b61138881101580610753575b1561070e5760407f64e28030cb9759f05a596b0ab8c1f7391c133b31952247ac2c2a3b4f5050aae491600c549080600c5582519182526020820152a1005b60405162461bcd60e51b815260206004820152601960248201527f496e76616c696420646973747269627574696f6e2072617465000000000000006044820152606490fd5b506123288111156106d0565b3461029d57602036600319011261029d576004355f52600460205261010060405f2060ff815491600181015490600281015460018060a01b036003830154166004830154916006600585015494015494604051978852602088015260408701526060860152608085015260a0840152818116151560c084015260081c16151560e0820152f35b3461029d576107f3366124b1565b905f52600560205260405f20805482101561029d5760209161081491612488565b90549060031b1c604051908152f35b3461029d57602036600319011261029d5760043561083f612bb9565b6101f481116108815760407fa82b850e6100ae23c7e82adbdcf4da8a3740c1540a6241792521a80179a892dc91600b549080600b5582519182526020820152a1005b60405162461bcd60e51b815260206004820152601160248201527008ccaca40e4c2e8ca40e8dede40d0d2ced607b1b6044820152606490fd5b3461029d57606036600319011261029d5760043560243567ffffffffffffffff811161029d576108ee9036906004016124c7565b60443567ffffffffffffffff811161029d5761090e9036906004016124c7565b9261092760018060a01b0360025460081c163314612672565b61092f612b1f565b610937612b63565b83831480610ac8575b15610a92575f935f5b818110610a3a575061095d8547101561297d565b5f5b8481106109b857867ff571bb88b0ec5dc25398fc62c69d5970d50ea313a0a6596b0ca7f0197d37383f60408888845f5260086020526001835f20016109a58382546126ce565b905582519182526020820152a260018055005b6001906109fb5f8080806001600160a01b036109dd6109d8888e8d6126be565b6126db565b166109e9878a8d6126be565b35905af16109f56128d1565b506129c0565b610a068184876126be565b35828060a01b03610a1b6109d8848a896126be565b165f52600a602052610a3260405f209182546126ce565b90550161095f565b94600190610a8b90610a636001600160a01b03610a5b6109d88b8b8a6126be565b161515612900565b610a79610a718986896126be565b351515612940565b610a848885886126be565b35906126ce565b9501610949565b60405162461bcd60e51b815260206004820152600e60248201526d496e76616c69642061727261797360901b6044820152606490fd5b50821515610940565b3461029d575f36600319011261029d57604051630b41f4e760e11b81526080816004817f00000000000000000000000000000000000000000000000000000000000000006001600160a01b03165afa8015610581575f90610b38575b602090604051908152f35b506080813d608011610b63575b81610b5260809383612562565b8101031261029d5760209051610b2d565b3d9150610b45565b3461029d575f36600319011261029d5760206040516276a7008152f35b606036600319011261029d57602435600435610ba2612472565b610bba60018060a01b0360025460081c163314612672565b610bc2612b1f565b610bca612b63565b66038d7ea4c680003410610efe576001600160a01b03811690610bee8215156126ef565b8215610ec857610bff84151561287e565b7f00000000000000000000000000000000000000000000000000000000000000006001600160a01b031690813b1561029d5760405163c5b4f40760e01b81526001600160a01b038216600482015260248101859052915f8360448134855af190811561058157602493602092610eb8575b5060405193848092631b545a1760e01b82528760048301525afa918215610581575f92610e84575b508115610e6d575f19820191821161041a575f516020612be05f395f51905f5291905b60035493610cc885612734565b600355604051610cd781612531565b34815285610d83600660208401938a8552604081018c815260608201878152608083019042825260a08401928b845260c085019860018a5260e086019860018a525f52600460205260405f209551865551600186015551600285015560018060a01b03905116600384019060018060a01b03166bffffffffffffffffffffffff60a01b8254161790555160048301555160058201550192511515839060ff801983541691151516179055565b51151561ff0082549160081b169061ff001916179055865f526005602052610dae8560405f20612742565b805f526006602052610dc38560405f20612742565b855f52600760205260405f20610dda3482546126ce565b9055865f52600860205260405f20906004820190805f528160205260405f205415610e4b575b5f5260205260405f20610e143482546126ce565b9055610e213482546126ce565b9055604080516001600160a01b03929092168252346020830152810191909152606090a460018055005b610e588460058501612776565b60028301610e668154612734565b9055610e00565b5f516020612be05f395f51905f5291505f90610cbb565b9091506020813d602011610eb0575b81610ea060209383612562565b8101031261029d57519085610c98565b3d9150610e93565b5f610ec291612562565b87610c70565b60405162461bcd60e51b815260206004820152600e60248201526d125b9d985b1a59081c1bdd08125160921b6044820152606490fd5b60405162461bcd60e51b81526020600482015260166024820152754465706f73697420616d6f756e7420746f6f206c6f7760501b6044820152606490fd5b3461029d575f36600319011261029d575f546040516001600160a01b039091168152602090f35b3461029d575f36600319011261029d576040517f00000000000000000000000000000000000000000000000000000000000000006001600160a01b03168152602090f35b3461029d57606036600319011261029d57600435610fc361245c565b906044359167ffffffffffffffff831161029d573660238401121561029d57826004013590610ff182612584565b91610fff6040519384612562565b8083526020830194366024838301011161029d57815f9260246020930188378401015261102a612bb9565b611032612b63565b61103d83151561283d565b6001600160a01b031692611052841515612900565b81511561111b576110658347101561297d565b5f80808086885af16110756128d1565b50156110d6577f0b6611f2b90ce7e47b1f8bfc81e38fb1a210f6766c91b8c8d5ee36305d752060926060916040519384928352604060208401525180918160408501528484015e5f828201840152601f01601f19168101030190a260018055005b60405162461bcd60e51b815260206004820152601b60248201527f456d657267656e6379207769746864726177616c206661696c656400000000006044820152606490fd5b60405162461bcd60e51b815260206004820152601360248201527226bab9ba10383937bb34b232903932b0b9b7b760691b6044820152606490fd5b3461029d57604036600319011261029d576004357ffbc3a599b784fe88772fc5abcc07223f64ca0b13acc341f4fb1e46bef0510eb4604061119561245c565b6111ad60018060a01b0360025460081c163314612672565b6111b5612b1f565b6111bd612b63565b6111c884151561283d565b6001600160a01b0316926111dd841515612900565b6111e98147101561297d565b6111fc5f80808085895af16109f56128d1565b81519081525f6020820152a260018055005b3461029d575f36600319011261029d57611226612bb9565b5f80546001600160a01b0319811682556001600160a01b03167f8be0079c531659141344cd1fd0a4f28419497f9722a3daafe3b4186f6b6457e08280a3005b3461029d575f36600319011261029d57602060ff600254166040519015158152f35b3461029d57604036600319011261029d575f8080806112a4612446565b602435906112b0612bb9565b6112b8612b63565b6001600160a01b03166112cc811515612900565b81151580611331575b6112de90612940565b5af16112e86128d1565b50156112f45760018055005b60405162461bcd60e51b81526020600482015260156024820152741199594818dbdb1b1958dd1a5bdb8819985a5b1959605a1b6044820152606490fd5b50478211156112d5565b3461029d57602036600319011261029d5760043561136760018060a01b0360025460081c163314612672565b61136f612b1f565b611377612b63565b61138281151561287e565b805f52600860205260405f2060038101805460ff81166115585760019060ff1916179055815f52600560205260405f20604051808260208294549384815201905f5260205f20925f5b81811061153f5750506113e092500382612562565b5f925f5b82518110156114f4576113f781846128bd565b515f52600460205260405f206006810180549160ff8360081c16806114ea575b611427575b5050506001016113e4565b60038101546005909101546040516305a45d5d60e11b81526001600160a01b039092166004830152602482015291969291602081806044810103817f00000000000000000000000000000000000000000000000000000000000000006001600160a01b03165afa908115610581575f916114b8575b506114a9906001946126ce565b9660ff1916905590868061141c565b90506020813d82116114e2575b816114d260209383612562565b8101031261029d5751600161149c565b3d91506114c5565b5060ff8316611417565b507f188dffc590872dc919b0e448791f95e29ebd499b88d4318fc474dfc17aac6e3e60408585611529600182019283546126ce565b809255549082519182526020820152a260018055005b84548352600194850194869450602090930192016113cb565b60405162461bcd60e51b815260206004820152601760248201527f4379636c6520616c726561647920636f6d706c657465640000000000000000006044820152606490fd5b3461029d57602036600319011261029d576004355f60e06040516115c081612531565b8281528260208201528260408201528260608201528260808201528260a08201528260c08201520152801515806116e6575b6115fb906127b7565b5f81815260046020526040902060030154611620906001600160a01b031615156127f8565b5f52600460205261010060405f206040519061163b82612531565b8054918281526001820154916020820192835260028101546040830190815260018060a01b036003830154166060840190815260048301549160808501928352600660058501549460a0870195865201549560ff60e060c0880197828a1615158952019760081c161515875260405197885251602088015251604087015260018060a01b0390511660608601525160808501525160a084015251151560c083015251151560e0820152f35b5060035481106115f2565b3461029d575f36600319011261029d57611709612bb9565b611711612b1f565b600160ff1960025416176002557f62e78cea01bee320cd4e420270b5ea74000d11b0c9f74754ebdbfc544b05a2586020604051338152a1005b3461029d575f36600319011261029d576020600c54604051908152f35b3461029d575f36600319011261029d5761177f612bb9565b60025460ff8116156117be5760ff19166002557f5db9ee0a495bf2e6ff9c91a7834c1ba4fdd244a5e8aa4e537bd38aeae4b073aa6020604051338152a1005b60405162461bcd60e51b815260206004820152601460248201527314185d5cd8589b194e881b9bdd081c185d5cd95960621b6044820152606490fd5b3461029d575f36600319011261029d57604051634b16524b60e11b81526020816004817f00000000000000000000000000000000000000000000000000000000000000006001600160a01b03165afa8015610581575f9061186057602090604051908152f35b506020813d60201161187a575b81610b5260209383612562565b3d915061186d565b3461029d57606036600319011261029d576024356001600160a01b038116906004359082900361029d576044356118c760018060a01b0360025460081c163314612672565b6118cf612b1f565b6118d7612b63565b6118e282151561283d565b8215611bb7576118f381151561287e565b805f52600560205260405f2092604051808560208297549384815201905f5260205f20925f5b818110611b9e57505061192e92500385612562565b835115611b61575f935f925f5b8251811015611a5e5761194e81846128bd565b515f52600460205260405f20600681015460ff8160081c169081611a53575b5061197c575b5060010161193b565b60038101546005909101546040516305a45d5d60e11b81526001600160a01b039092166004830181905260248301919091529790602081806044810103817f00000000000000000000000000000000000000000000000000000000000000006001600160a01b03165afa9182156105815786915f93611a1b575b5082611a01916126ce565b980361197357611a1490600192966126ce565b9490611973565b915091506020813d8211611a4b575b81611a3760209383612562565b8101031261029d5751908590611a016119f6565b3d9150611a2a565b60ff9150168961196d565b8382868989612710611a72600b54836125a0565b04810390811161041a575f808080611a8a87866126ce565b895af1611a956128d1565b5015611b1c577f51e82aaa8392aa33c66ebb769ce034fc69088ee965c917aabd430f11c7e5498d92604092855f526008602052835f205415155f14611b1657855b5f526009602052611aeb845f209182546126ce565b9055855f52600a602052825f20611b038282546126ce565b905582519182526020820152a360018055005b5f611ad6565b60405162461bcd60e51b815260206004820152601960248201527f5472616e7366657220746f2077696e6e6572206661696c6564000000000000006044820152606490fd5b60405162461bcd60e51b81526020600482015260156024820152744e6f206465706f7369747320666f72206379636c6560581b6044820152606490fd5b8454835260019485019489945060209093019201611919565b60405162461bcd60e51b8152602060048201526016602482015275496e76616c69642077696e6e6572206164647265737360501b6044820152606490fd5b3461029d57602036600319011261029d57600435611c2160018060a01b0360025460081c163314612672565b80151580611c72575b611c33906127b7565b5f81815260046020526040902060030154611c58906001600160a01b031615156127f8565b5f908152600460205260409020600601805460ff19169055005b506003548110611c2a565b3461029d57602036600319011261029d57611c96612446565b611c9e612bb9565b6001600160a01b038116908115611d035760028054610100600160a81b03198116600893841b610100600160a81b031617909155901c6001600160a01b03167fa018098887968f8b15b4ce9f509505d95541487ebd688811337617035460150e5f80a3005b60405162461bcd60e51b815260206004820152601e60248201527f496e76616c69642061756374696f6e20656e67696e65206164647265737300006044820152606490fd5b3461029d57602036600319011261029d576001600160a01b03611d69612446565b165f52600660205260405f206040519081602082549182815201915f5260205f20905f5b818110611da45761068e8561068281870382612562565b8254845260209093019260019283019201611d8d565b3461029d575f36600319011261029d5760025460405160089190911c6001600160a01b03168152602090f35b608036600319011261029d5760243560043560443567ffffffffffffffff811161029d57611e189036906004016124c7565b92909160643567ffffffffffffffff811161029d57611e3b9036906004016124c7565b611e5360018060a01b0360025460081c163314612672565b611e5b612b1f565b611e63612b63565b808614806122a9575b1561226d575f5f5b828110612204575034036121bf575f8481526008602052604081207f00000000000000000000000000000000000000000000000000000000000000006001600160a01b03169792969093600485019390925b818110611ed35760018055005b611ee16109d88284866126be565b90611eed818b876126be565b6001600160a01b03831692903590611f068415156126ef565b8c3b1561029d5760405163c5b4f40760e01b81526001600160a01b0382166004820152602481018b90525f818f8186816044810103925af1908115610581578e6020916024936121af575b5060405192838092631b545a1760e01b82528960048301525afa908115610581575f9161217e575b508b8b8b8b841561215957505050505f19810190811161041a575f516020612be05f395f51905f528c938c9361212e6001988e8e600697925b898b61207b6003549b8c92611fc684612734565b60035560405190611fd682612531565b8c8252602082019586526040820190815260608201878152608083019042825260a08401928c845260c085019860018a5260e086019860018a525f52600460205260405f209551865551600186015551600285015560018060a01b03905116600384019060018060a01b03166bffffffffffffffffffffffff60a01b8254161790555160048301555160058201550192511515839060ff801983541691151516179055565b51151561ff0082549160081b169061ff0019161790558a5f5260056020526120a68960405f20612742565b805f5260066020526120bb8960405f20612742565b895f52600760205260405f206120d28882546126ce565b9055805f528160205260405f205415612137575b5f5260205260405f206120fa8682546126ce565b90556121078582546126ce565b905560405193849384604091949392606082019560018060a01b0316825260208201520152565b0390a401611ec6565b6121448660058501612776565b600283016121528154612734565b90556120e6565b600694506001985f516020612be05f395f51905f52949793969261212e925f92611fb2565b90506020813d82116121a7575b8161219860209383612562565b8101031261029d57518e611f79565b3d915061218b565b5f6121b991612562565b5f611f51565b60405162461bcd60e51b815260206004820152601760248201527f496e636f727265637420746f74616c207061796d656e740000000000000000006044820152606490fd5b9066038d7ea4c680006122188385876126be565b35106122365761222f600191610a848486886126be565b9101611e74565b60405162461bcd60e51b815260206004820152600f60248201526e4465706f73697420746f6f206c6f7760881b6044820152606490fd5b60405162461bcd60e51b8152602060048201526014602482015273496e76616c696420696e7075742061727261797360601b6044820152606490fd5b50851515611e6c565b3461029d57602036600319011261029d576004355f52600860205260405f20805490600181015490600281015492600560ff60038401541692019160405190816020855491828152019081955f5260205f20905f5b81811061237e575050508261231d910383612562565b60405195869560a08701948752602087015260408601521515606085015260a060808501525180915260c0830191905f5b81811061235c575050500390f35b82516001600160a01b031684528594506020938401939092019160010161234e565b82546001600160a01b0316845260209093019260019283019201612307565b3461029d5760206103a46123b0366124b1565b906125b3565b3461029d57604036600319011261029d576123cf61245c565b6004355f526008602052600460405f20019060018060a01b03165f52602052602060405f2054604051908152f35b3461029d57604036600319011261029d57612416612446565b6001600160a01b03165f9081526006602052604090208054602435919082101561029d5760209161081491612488565b600435906001600160a01b038216820361029d57565b602435906001600160a01b038216820361029d57565b604435906001600160a01b038216820361029d57565b805482101561249d575f5260205f2001905f90565b634e487b7160e01b5f52603260045260245ffd5b604090600319011261029d576004359060243590565b9181601f8401121561029d5782359167ffffffffffffffff831161029d576020808501948460051b01011161029d57565b60206040818301928281528451809452019201905f5b81811061251b5750505090565b825184526020938401939092019160010161250e565b610100810190811067ffffffffffffffff82111761254e57604052565b634e487b7160e01b5f52604160045260245ffd5b90601f8019910116810190811067ffffffffffffffff82111761254e57604052565b67ffffffffffffffff811161254e57601f01601f191660200190565b8181029291811591840414171561041a57565b5f52600860205260405f2054801561266c57604051634b16524b60e11b8152906020826004817f00000000000000000000000000000000000000000000000000000000000000006001600160a01b03165afa918215610581575f92612634575b509161271061262a612630936301e13380956125a0565b046125a0565b0490565b9150916020823d602011612664575b8161265060209383612562565b8101031261029d5790519091612710612613565b3d9150612643565b50505f90565b1561267957565b60405162461bcd60e51b815260206004820152601a60248201527f4f6e6c792041756374696f6e456e67696e6520616c6c6f7765640000000000006044820152606490fd5b919081101561249d5760051b0190565b9190820180921161041a57565b356001600160a01b038116810361029d5790565b156126f657565b60405162461bcd60e51b8152602060048201526016602482015275496e76616c6964206d656d626572206164647265737360501b6044820152606490fd5b5f19811461041a5760010190565b8054600160401b81101561254e5761275f91600182018155612488565b819291549060031b91821b915f19901b1916179055565b8054600160401b81101561254e5761279391600182018155612488565b81546001600160a01b0393841660039290921b91821b9390911b1916919091179055565b156127be57565b60405162461bcd60e51b8152602060048201526012602482015271125b9d985b1a590819195c1bdcda5d08125160721b6044820152606490fd5b156127ff57565b60405162461bcd60e51b815260206004820152601660248201527511195c1bdcda5d08191bd95cc81b9bdd08195e1a5cdd60521b6044820152606490fd5b1561284457565b60405162461bcd60e51b81526020600482015260126024820152710416d6f756e74206d757374206265203e20360741b6044820152606490fd5b1561288557565b60405162461bcd60e51b815260206004820152601060248201526f125b9d985b1a590818de58db1948125160821b6044820152606490fd5b805182101561249d5760209160051b010190565b3d156128fb573d906128e282612584565b916128f06040519384612562565b82523d5f602084013e565b606090565b1561290757565b60405162461bcd60e51b8152602060048201526011602482015270125b9d985b1a59081c9958da5c1a595b9d607a1b6044820152606490fd5b1561294757565b60405162461bcd60e51b815260206004820152600e60248201526d125b9d985b1a5908185b5bdd5b9d60921b6044820152606490fd5b1561298457565b60405162461bcd60e51b8152602060048201526014602482015273496e73756666696369656e742062616c616e636560601b6044820152606490fd5b156129c757565b60405162461bcd60e51b815260206004820152600f60248201526e151c985b9cd9995c8819985a5b1959608a1b6044820152606490fd5b5f52600460205260405f20604051612a1581612531565b81548152600182015460208201526002820154604082015260e060018060a01b03600384015416918260608201526004840154608082015260066005850154948560a084015201549060ff8083161592831560c084015260081c1615908115938491015291612b17575b5061266c576040516305a45d5d60e11b81526001600160a01b0391821660048201526024810192909252602090829060449082907f0000000000000000000000000000000000000000000000000000000000000000165afa908115610581575f91612ae8575090565b90506020813d602011612b0f575b81612b0360209383612562565b8101031261029d575190565b3d9150612af6565b90505f612a7f565b60ff60025416612b2b57565b60405162461bcd60e51b815260206004820152601060248201526f14185d5cd8589b194e881c185d5cd95960821b6044820152606490fd5b600260015414612b74576002600155565b60405162461bcd60e51b815260206004820152601f60248201527f5265656e7472616e637947756172643a207265656e7472616e742063616c6c006044820152606490fd5b5f546001600160a01b03163303612bcc57565b63118cdaa760e01b5f523360045260245ffdfe2946d136641258687abb0f73d0fe67fbe44ec9f24c02265b2f696342d332433fa264697066735822122032aea01c381731987b4b6bcadf4ceca4e4938f9a5090751b0d5c23fc25b185e564736f6c634300081e0033",
			"opcodes": "PUSH1 0xA0 CALLVALUE PUSH2 0x172 JUMPI PUSH1 0x1F PUSH2 0x2DC0 CODESIZE DUP2 SWAP1 SUB SWAP2 DUP3 ADD PUSH1 0x1F NOT AND DUP4 ADD SWAP2 PUSH1 0x1 PUSH1 0x1 PUSH1 0x40 SHL SUB DUP4 GT DUP5 DUP5 LT OR PUSH2 0x176 JUMPI DUP1 DUP5 SWAP3 PUSH1 0x20 SWAP5 PUSH1 0x40 MSTORE DUP4 CODECOPY DUP2 ADD SUB SLT PUSH2 0x172 JUMPI MLOAD PUSH1 0x1 PUSH1 0x1 PUSH1 0xA0 SHL SUB DUP2 AND SWAP1 DUP2 SWAP1 SUB PUSH2 0x172 JUMPI CALLER ISZERO PUSH2 0x15F JUMPI PUSH0 DUP1 SLOAD CALLER PUSH1 0x1 PUSH1 0x1 PUSH1 0xA0 SHL SUB NOT DUP3 AND DUP2 OR DUP4 SSTORE PUSH1 0x40 MLOAD SWAP3 SWAP1 SWAP2 PUSH1 0x1 PUSH1 0x1 PUSH1 0xA0 SHL SUB AND SWAP1 PUSH32 0x8BE0079C531659141344CD1FD0A4F28419497F9722A3DAAFE3B4186F6B6457E0 SWAP1 DUP1 LOG3 PUSH1 0x1 DUP1 SSTORE PUSH1 0xFF NOT PUSH1 0x2 SLOAD AND PUSH1 0x2 SSTORE PUSH1 0x1 PUSH1 0x3 SSTORE PUSH1 0x64 PUSH1 0xB SSTORE PUSH2 0x1B58 PUSH1 0xC SSTORE DUP2 ISZERO PUSH2 0x11D JUMPI POP PUSH1 0x80 MSTORE PUSH1 0x40 MLOAD PUSH2 0x2C35 SWAP1 DUP2 PUSH2 0x18B DUP3 CODECOPY PUSH1 0x80 MLOAD DUP2 DUP2 DUP2 PUSH2 0x505 ADD MSTORE DUP2 DUP2 PUSH2 0xAF6 ADD MSTORE DUP2 DUP2 PUSH2 0xC01 ADD MSTORE DUP2 DUP2 PUSH2 0xF78 ADD MSTORE DUP2 DUP2 PUSH2 0x1464 ADD MSTORE DUP2 DUP2 PUSH2 0x181F ADD MSTORE DUP2 DUP2 PUSH2 0x19BC ADD MSTORE DUP2 DUP2 PUSH2 0x1E91 ADD MSTORE DUP2 DUP2 PUSH2 0x25DB ADD MSTORE PUSH2 0x2AB5 ADD MSTORE RETURN JUMPDEST PUSH3 0x461BCD PUSH1 0xE5 SHL DUP2 MSTORE PUSH1 0x20 PUSH1 0x4 DUP3 ADD MSTORE PUSH1 0x1D PUSH1 0x24 DUP3 ADD MSTORE PUSH32 0x496E76616C6964207969656C64206D616E616765722061646472657373000000 PUSH1 0x44 DUP3 ADD MSTORE PUSH1 0x64 SWAP1 REVERT JUMPDEST PUSH4 0x1E4FBDF7 PUSH1 0xE0 SHL PUSH0 MSTORE PUSH0 PUSH1 0x4 MSTORE PUSH1 0x24 PUSH0 REVERT JUMPDEST PUSH0 DUP1 REVERT JUMPDEST PUSH4 0x4E487B71 PUSH1 0xE0 SHL PUSH0 MSTORE PUSH1 0x41 PUSH1 0x4 MSTORE PUSH1 0x24 PUSH0 REVERT INVALID PUSH1 0x80 PUSH1 0x40 MSTORE PUSH1 0x4 CALLDATASIZE LT ISZERO PUSH2 0x50 JUMPI JUMPDEST CALLDATASIZE ISZERO PUSH2 0x4E JUMPI PUSH1 0x40 MLOAD PUSH3 0x461BCD PUSH1 0xE5 SHL DUP2 MSTORE PUSH1 0x20 PUSH1 0x4 DUP3 ADD MSTORE PUSH1 0x12 PUSH1 0x24 DUP3 ADD MSTORE PUSH18 0x119D5B98DD1A5BDB881B9BDD08199BDD5B99 PUSH1 0x72 SHL PUSH1 0x44 DUP3 ADD MSTORE PUSH1 0x64 SWAP1 REVERT JUMPDEST STOP JUMPDEST PUSH0 CALLDATALOAD PUSH1 0xE0 SHR DUP1 PUSH4 0x8F43333 EQ PUSH2 0x23FD JUMPI DUP1 PUSH4 0x988D9DA EQ PUSH2 0x23B6 JUMPI DUP1 PUSH4 0x15ADC340 EQ PUSH2 0x239D JUMPI DUP1 PUSH4 0x1AD00447 EQ PUSH2 0x22B2 JUMPI DUP1 PUSH4 0x1DDFA365 EQ PUSH2 0x1DE6 JUMPI DUP1 PUSH4 0x1FB32141 EQ PUSH2 0x1DBA JUMPI DUP1 PUSH4 0x2A59C4B5 EQ PUSH2 0xF63 JUMPI DUP1 PUSH4 0x2EA7DA49 EQ PUSH2 0x1D48 JUMPI DUP1 PUSH4 0x33542E46 EQ PUSH2 0x1C7D JUMPI DUP1 PUSH4 0x3CC3BBA2 EQ PUSH2 0x1BF5 JUMPI DUP1 PUSH4 0x40A6A97C EQ PUSH2 0x1882 JUMPI DUP1 PUSH4 0x45C80801 EQ PUSH2 0x17FA JUMPI DUP1 PUSH4 0x4A4E3BD5 EQ PUSH2 0x1767 JUMPI DUP1 PUSH4 0x4CCBA848 EQ PUSH2 0x326 JUMPI DUP1 PUSH4 0x5111AB47 EQ PUSH2 0x174A JUMPI DUP1 PUSH4 0x51858E27 EQ PUSH2 0x16F1 JUMPI DUP1 PUSH4 0x5328C2BF EQ PUSH2 0x159D JUMPI DUP1 PUSH4 0x56FFB6C0 EQ PUSH2 0x133B JUMPI DUP1 PUSH4 0x5A2BB63D EQ PUSH2 0x1287 JUMPI DUP1 PUSH4 0x5C975ABB EQ PUSH2 0x1265 JUMPI DUP1 PUSH4 0x6433203A EQ PUSH2 0x265 JUMPI DUP1 PUSH4 0x715018A6 EQ PUSH2 0x120E JUMPI DUP1 PUSH4 0x744BFE61 EQ PUSH2 0x1156 JUMPI DUP1 PUSH4 0x7CD22238 EQ PUSH2 0xFA7 JUMPI DUP1 PUSH4 0x7ECC811D EQ PUSH2 0x42E JUMPI DUP1 PUSH4 0x80B7AF18 EQ PUSH2 0xF63 JUMPI DUP1 PUSH4 0x8DA5CB5B EQ PUSH2 0xF3C JUMPI DUP1 PUSH4 0x8DBDBE6D EQ PUSH2 0xB88 JUMPI DUP1 PUSH4 0x90886389 EQ PUSH2 0xB6B JUMPI DUP1 PUSH4 0x9C100524 EQ PUSH2 0xAD1 JUMPI DUP1 PUSH4 0xA7323230 EQ PUSH2 0x8BA JUMPI DUP1 PUSH4 0xAE3B7F06 EQ PUSH2 0x823 JUMPI DUP1 PUSH4 0xB0186731 EQ PUSH2 0x7E5 JUMPI DUP1 PUSH4 0xB02C43D0 EQ PUSH2 0x75F JUMPI DUP1 PUSH4 0xB328DC2E EQ PUSH2 0x6A8 JUMPI DUP1 PUSH4 0xB7F4417C EQ PUSH2 0x634 JUMPI DUP1 PUSH4 0xB93F7819 EQ PUSH2 0x5C0 JUMPI DUP1 PUSH4 0xC2661DBE EQ PUSH2 0x494 JUMPI DUP1 PUSH4 0xC56E610E EQ PUSH2 0x479 JUMPI DUP1 PUSH4 0xE1E158A5 EQ PUSH2 0x458 JUMPI DUP1 PUSH4 0xE7B2969A EQ PUSH2 0x42E JUMPI DUP1 PUSH4 0xEAF669E6 EQ PUSH2 0x3F1 JUMPI DUP1 PUSH4 0xECB3DC88 EQ PUSH2 0x3D4 JUMPI DUP1 PUSH4 0xEECA08F0 EQ PUSH2 0x3B7 JUMPI DUP1 PUSH4 0xEFAA7295 EQ PUSH2 0x350 JUMPI DUP1 PUSH4 0xF1E6F1D9 EQ PUSH2 0x326 JUMPI DUP1 PUSH4 0xF2FDE38B EQ PUSH2 0x2A1 JUMPI PUSH4 0xF6781F1F SUB PUSH2 0xE JUMPI JUMPDEST CALLVALUE PUSH2 0x29D JUMPI PUSH1 0x20 CALLDATASIZE PUSH1 0x3 NOT ADD SLT PUSH2 0x29D JUMPI PUSH1 0x1 PUSH1 0x1 PUSH1 0xA0 SHL SUB PUSH2 0x286 PUSH2 0x2446 JUMP JUMPDEST AND PUSH0 MSTORE PUSH1 0xA PUSH1 0x20 MSTORE PUSH1 0x20 PUSH1 0x40 PUSH0 KECCAK256 SLOAD PUSH1 0x40 MLOAD SWAP1 DUP2 MSTORE RETURN JUMPDEST PUSH0 DUP1 REVERT JUMPDEST CALLVALUE PUSH2 0x29D JUMPI PUSH1 0x20 CALLDATASIZE PUSH1 0x3 NOT ADD SLT PUSH2 0x29D JUMPI PUSH2 0x2BA PUSH2 0x2446 JUMP JUMPDEST PUSH2 0x2C2 PUSH2 0x2BB9 JUMP JUMPDEST PUSH1 0x1 PUSH1 0x1 PUSH1 0xA0 SHL SUB AND DUP1 ISZERO PUSH2 0x313 JUMPI PUSH0 DUP1 SLOAD PUSH1 0x1 PUSH1 0x1 PUSH1 0xA0 SHL SUB NOT DUP2 AND DUP4 OR DUP3 SSTORE PUSH1 0x1 PUSH1 0x1 PUSH1 0xA0 SHL SUB AND SWAP1 PUSH32 0x8BE0079C531659141344CD1FD0A4F28419497F9722A3DAAFE3B4186F6B6457E0 SWAP1 DUP1 LOG3 STOP JUMPDEST PUSH4 0x1E4FBDF7 PUSH1 0xE0 SHL PUSH0 MSTORE PUSH0 PUSH1 0x4 MSTORE PUSH1 0x24 PUSH0 REVERT JUMPDEST CALLVALUE PUSH2 0x29D JUMPI PUSH1 0x20 CALLDATASIZE PUSH1 0x3 NOT ADD SLT PUSH2 0x29D JUMPI PUSH1 0x4 CALLDATALOAD PUSH0 MSTORE PUSH1 0x9 PUSH1 0x20 MSTORE PUSH1 0x20 PUSH1 0x40 PUSH0 KECCAK256 SLOAD PUSH1 0x40 MLOAD SWAP1 DUP2 MSTORE RETURN JUMPDEST CALLVALUE PUSH2 0x29D JUMPI PUSH1 0x20 CALLDATASIZE PUSH1 0x3 NOT ADD SLT PUSH2 0x29D JUMPI PUSH1 0x20 PUSH2 0x3A4 PUSH1 0x4 CALLDATALOAD DUP1 ISZERO ISZERO DUP1 PUSH2 0x3AC JUMPI JUMPDEST PUSH2 0x37B SWAP1 PUSH2 0x27B7 JUMP JUMPDEST PUSH0 DUP2 DUP2 MSTORE PUSH1 0x4 DUP5 MSTORE PUSH1 0x40 SWAP1 KECCAK256 PUSH1 0x3 ADD SLOAD PUSH2 0x39F SWAP1 PUSH1 0x1 PUSH1 0x1 PUSH1 0xA0 SHL SUB AND ISZERO ISZERO PUSH2 0x27F8 JUMP JUMPDEST PUSH2 0x29FE JUMP JUMPDEST PUSH1 0x40 MLOAD SWAP1 DUP2 MSTORE RETURN JUMPDEST POP PUSH1 0x3 SLOAD DUP2 LT PUSH2 0x372 JUMP JUMPDEST CALLVALUE PUSH2 0x29D JUMPI PUSH0 CALLDATASIZE PUSH1 0x3 NOT ADD SLT PUSH2 0x29D JUMPI PUSH1 0x20 PUSH1 0xB SLOAD PUSH1 0x40 MLOAD SWAP1 DUP2 MSTORE RETURN JUMPDEST CALLVALUE PUSH2 0x29D JUMPI PUSH0 CALLDATASIZE PUSH1 0x3 NOT ADD SLT PUSH2 0x29D JUMPI PUSH1 0x20 PUSH1 0x3 SLOAD PUSH1 0x40 MLOAD SWAP1 DUP2 MSTORE RETURN JUMPDEST CALLVALUE PUSH2 0x29D JUMPI PUSH0 CALLDATASIZE PUSH1 0x3 NOT ADD SLT PUSH2 0x29D JUMPI PUSH1 0x3 SLOAD PUSH0 NOT DUP2 ADD SWAP1 DUP2 GT PUSH2 0x41A JUMPI PUSH1 0x20 SWAP1 PUSH1 0x40 MLOAD SWAP1 DUP2 MSTORE RETURN JUMPDEST PUSH4 0x4E487B71 PUSH1 0xE0 SHL PUSH0 MSTORE PUSH1 0x11 PUSH1 0x4 MSTORE PUSH1 0x24 PUSH0 REVERT JUMPDEST CALLVALUE PUSH2 0x29D JUMPI PUSH1 0x20 CALLDATASIZE PUSH1 0x3 NOT ADD SLT PUSH2 0x29D JUMPI PUSH1 0x4 CALLDATALOAD PUSH0 MSTORE PUSH1 0x7 PUSH1 0x20 MSTORE PUSH1 0x20 PUSH1 0x40 PUSH0 KECCAK256 SLOAD PUSH1 0x40 MLOAD SWAP1 DUP2 MSTORE RETURN JUMPDEST CALLVALUE PUSH2 0x29D JUMPI PUSH0 CALLDATASIZE PUSH1 0x3 NOT ADD SLT PUSH2 0x29D JUMPI PUSH1 0x20 PUSH1 0x40 MLOAD PUSH7 0x38D7EA4C68000 DUP2 MSTORE RETURN JUMPDEST CALLVALUE PUSH2 0x29D JUMPI PUSH0 CALLDATASIZE PUSH1 0x3 NOT ADD SLT PUSH2 0x29D JUMPI PUSH1 0x20 SELFBALANCE PUSH1 0x40 MLOAD SWAP1 DUP2 MSTORE RETURN JUMPDEST CALLVALUE PUSH2 0x29D JUMPI PUSH1 0x60 CALLDATASIZE PUSH1 0x3 NOT ADD SLT PUSH2 0x29D JUMPI PUSH2 0x4AD PUSH2 0x2446 JUMP JUMPDEST PUSH2 0x4B5 PUSH2 0x2472 JUMP JUMPDEST SWAP1 PUSH2 0x4CE PUSH1 0x1 DUP1 PUSH1 0xA0 SHL SUB PUSH1 0x2 SLOAD PUSH1 0x8 SHR AND CALLER EQ PUSH2 0x2672 JUMP JUMPDEST PUSH2 0x4D6 PUSH2 0x2B1F JUMP JUMPDEST PUSH2 0x4DE PUSH2 0x2B63 JUMP JUMPDEST PUSH1 0x1 PUSH1 0x1 PUSH1 0xA0 SHL SUB AND SWAP1 DUP2 ISZERO PUSH2 0x58C JUMPI PUSH1 0x1 PUSH1 0x1 PUSH1 0xA0 SHL SUB AND SWAP1 PUSH2 0x503 DUP3 ISZERO ISZERO PUSH2 0x2900 JUMP JUMPDEST PUSH32 0x0 PUSH1 0x1 PUSH1 0x1 PUSH1 0xA0 SHL SUB AND SWAP2 DUP3 EXTCODESIZE ISZERO PUSH2 0x29D JUMPI PUSH1 0x64 PUSH0 SWAP3 DUP4 PUSH1 0x40 MLOAD SWAP6 DUP7 SWAP5 DUP6 SWAP4 PUSH4 0x16A62D5F PUSH1 0xE1 SHL DUP6 MSTORE PUSH1 0x4 DUP6 ADD MSTORE PUSH1 0x24 CALLDATALOAD PUSH1 0x24 DUP6 ADD MSTORE PUSH1 0x44 DUP5 ADD MSTORE GAS CALL DUP1 ISZERO PUSH2 0x581 JUMPI PUSH2 0x571 JUMPI JUMPDEST PUSH1 0x1 DUP1 SSTORE STOP JUMPDEST PUSH0 PUSH2 0x57B SWAP2 PUSH2 0x2562 JUMP JUMPDEST DUP1 PUSH2 0x56B JUMP JUMPDEST PUSH1 0x40 MLOAD RETURNDATASIZE PUSH0 DUP3 RETURNDATACOPY RETURNDATASIZE SWAP1 REVERT JUMPDEST PUSH1 0x40 MLOAD PUSH3 0x461BCD PUSH1 0xE5 SHL DUP2 MSTORE PUSH1 0x20 PUSH1 0x4 DUP3 ADD MSTORE PUSH1 0xC PUSH1 0x24 DUP3 ADD MSTORE PUSH12 0x24B73B30B634B2103AB9B2B9 PUSH1 0xA1 SHL PUSH1 0x44 DUP3 ADD MSTORE PUSH1 0x64 SWAP1 REVERT JUMPDEST CALLVALUE PUSH2 0x29D JUMPI PUSH1 0x20 CALLDATASIZE PUSH1 0x3 NOT ADD SLT PUSH2 0x29D JUMPI PUSH1 0x4 CALLDATALOAD DUP1 ISZERO ISZERO DUP1 PUSH2 0x629 JUMPI JUMPDEST PUSH2 0x5E6 SWAP1 PUSH2 0x27B7 JUMP JUMPDEST PUSH0 DUP2 DUP2 MSTORE PUSH1 0x4 PUSH1 0x20 MSTORE PUSH1 0x40 SWAP1 KECCAK256 PUSH1 0x3 ADD SLOAD PUSH2 0x60B SWAP1 PUSH1 0x1 PUSH1 0x1 PUSH1 0xA0 SHL SUB AND ISZERO ISZERO PUSH2 0x27F8 JUMP JUMPDEST PUSH0 MSTORE PUSH1 0x4 PUSH1 0x20 MSTORE PUSH1 0x20 PUSH1 0xFF PUSH1 0x6 PUSH1 0x40 PUSH0 KECCAK256 ADD SLOAD AND PUSH1 0x40 MLOAD SWAP1 ISZERO ISZERO DUP2 MSTORE RETURN JUMPDEST POP PUSH1 0x3 SLOAD DUP2 LT PUSH2 0x5DD JUMP JUMPDEST CALLVALUE PUSH2 0x29D JUMPI PUSH1 0x20 CALLDATASIZE PUSH1 0x3 NOT ADD SLT PUSH2 0x29D JUMPI PUSH1 0x4 CALLDATALOAD PUSH0 MSTORE PUSH1 0x5 PUSH1 0x20 MSTORE PUSH1 0x40 PUSH0 KECCAK256 PUSH1 0x40 MLOAD SWAP1 DUP2 PUSH1 0x20 DUP3 SLOAD SWAP2 DUP3 DUP2 MSTORE ADD SWAP2 PUSH0 MSTORE PUSH1 0x20 PUSH0 KECCAK256 SWAP1 PUSH0 JUMPDEST DUP2 DUP2 LT PUSH2 0x692 JUMPI PUSH2 0x68E DUP6 PUSH2 0x682 DUP2 DUP8 SUB DUP3 PUSH2 0x2562 JUMP JUMPDEST PUSH1 0x40 MLOAD SWAP2 DUP3 SWAP2 DUP3 PUSH2 0x24F8 JUMP JUMPDEST SUB SWAP1 RETURN JUMPDEST DUP3 SLOAD DUP5 MSTORE PUSH1 0x20 SWAP1 SWAP4 ADD SWAP3 PUSH1 0x1 SWAP3 DUP4 ADD SWAP3 ADD PUSH2 0x66B JUMP JUMPDEST CALLVALUE PUSH2 0x29D JUMPI PUSH1 0x20 CALLDATASIZE PUSH1 0x3 NOT ADD SLT PUSH2 0x29D JUMPI PUSH1 0x4 CALLDATALOAD PUSH2 0x6C4 PUSH2 0x2BB9 JUMP JUMPDEST PUSH2 0x1388 DUP2 LT ISZERO DUP1 PUSH2 0x753 JUMPI JUMPDEST ISZERO PUSH2 0x70E JUMPI PUSH1 0x40 PUSH32 0x64E28030CB9759F05A596B0AB8C1F7391C133B31952247AC2C2A3B4F5050AAE4 SWAP2 PUSH1 0xC SLOAD SWAP1 DUP1 PUSH1 0xC SSTORE DUP3 MLOAD SWAP2 DUP3 MSTORE PUSH1 0x20 DUP3 ADD MSTORE LOG1 STOP JUMPDEST PUSH1 0x40 MLOAD PUSH3 0x461BCD PUSH1 0xE5 SHL DUP2 MSTORE PUSH1 0x20 PUSH1 0x4 DUP3 ADD MSTORE PUSH1 0x19 PUSH1 0x24 DUP3 ADD MSTORE PUSH32 0x496E76616C696420646973747269627574696F6E207261746500000000000000 PUSH1 0x44 DUP3 ADD MSTORE PUSH1 0x64 SWAP1 REVERT JUMPDEST POP PUSH2 0x2328 DUP2 GT ISZERO PUSH2 0x6D0 JUMP JUMPDEST CALLVALUE PUSH2 0x29D JUMPI PUSH1 0x20 CALLDATASIZE PUSH1 0x3 NOT ADD SLT PUSH2 0x29D JUMPI PUSH1 0x4 CALLDATALOAD PUSH0 MSTORE PUSH1 0x4 PUSH1 0x20 MSTORE PUSH2 0x100 PUSH1 0x40 PUSH0 KECCAK256 PUSH1 0xFF DUP2 SLOAD SWAP2 PUSH1 0x1 DUP2 ADD SLOAD SWAP1 PUSH1 0x2 DUP2 ADD SLOAD PUSH1 0x1 DUP1 PUSH1 0xA0 SHL SUB PUSH1 0x3 DUP4 ADD SLOAD AND PUSH1 0x4 DUP4 ADD SLOAD SWAP2 PUSH1 0x6 PUSH1 0x5 DUP6 ADD SLOAD SWAP5 ADD SLOAD SWAP5 PUSH1 0x40 MLOAD SWAP8 DUP9 MSTORE PUSH1 0x20 DUP9 ADD MSTORE PUSH1 0x40 DUP8 ADD MSTORE PUSH1 0x60 DUP7 ADD MSTORE PUSH1 0x80 DUP6 ADD MSTORE PUSH1 0xA0 DUP5 ADD MSTORE DUP2 DUP2 AND ISZERO ISZERO PUSH1 0xC0 DUP5 ADD MSTORE PUSH1 0x8 SHR AND ISZERO ISZERO PUSH1 0xE0 DUP3 ADD MSTORE RETURN JUMPDEST CALLVALUE PUSH2 0x29D JUMPI PUSH2 0x7F3 CALLDATASIZE PUSH2 0x24B1 JUMP JUMPDEST SWAP1 PUSH0 MSTORE PUSH1 0x5 PUSH1 0x20 MSTORE PUSH1 0x40 PUSH0 KECCAK256 DUP1 SLOAD DUP3 LT ISZERO PUSH2 0x29D JUMPI PUSH1 0x20 SWAP2 PUSH2 0x814 SWAP2 PUSH2 0x2488 JUMP JUMPDEST SWAP1 SLOAD SWAP1 PUSH1 0x3 SHL SHR PUSH1 0x40 MLOAD SWAP1 DUP2 MSTORE RETURN JUMPDEST CALLVALUE PUSH2 0x29D JUMPI PUSH1 0x20 CALLDATASIZE PUSH1 0x3 NOT ADD SLT PUSH2 0x29D JUMPI PUSH1 0x4 CALLDATALOAD PUSH2 0x83F PUSH2 0x2BB9 JUMP JUMPDEST PUSH2 0x1F4 DUP2 GT PUSH2 0x881 JUMPI PUSH1 0x40 PUSH32 0xA82B850E6100AE23C7E82ADBDCF4DA8A3740C1540A6241792521A80179A892DC SWAP2 PUSH1 0xB SLOAD SWAP1 DUP1 PUSH1 0xB SSTORE DUP3 MLOAD SWAP2 DUP3 MSTORE PUSH1 0x20 DUP3 ADD MSTORE LOG1 STOP JUMPDEST PUSH1 0x40 MLOAD PUSH3 0x461BCD PUSH1 0xE5 SHL DUP2 MSTORE PUSH1 0x20 PUSH1 0x4 DUP3 ADD MSTORE PUSH1 0x11 PUSH1 0x24 DUP3 ADD MSTORE PUSH17 0x8CCACA40E4C2E8CA40E8DEDE40D0D2CED PUSH1 0x7B SHL PUSH1 0x44 DUP3 ADD MSTORE PUSH1 0x64 SWAP1 REVERT JUMPDEST CALLVALUE PUSH2 0x29D JUMPI PUSH1 0x60 CALLDATASIZE PUSH1 0x3 NOT ADD SLT PUSH2 0x29D JUMPI PUSH1 0x4 CALLDATALOAD PUSH1 0x24 CALLDATALOAD PUSH8 0xFFFFFFFFFFFFFFFF DUP2 GT PUSH2 0x29D JUMPI PUSH2 0x8EE SWAP1 CALLDATASIZE SWAP1 PUSH1 0x4 ADD PUSH2 0x24C7 JUMP JUMPDEST PUSH1 0x44 CALLDATALOAD PUSH8 0xFFFFFFFFFFFFFFFF DUP2 GT PUSH2 0x29D JUMPI PUSH2 0x90E SWAP1 CALLDATASIZE SWAP1 PUSH1 0x4 ADD PUSH2 0x24C7 JUMP JUMPDEST SWAP3 PUSH2 0x927 PUSH1 0x1 DUP1 PUSH1 0xA0 SHL SUB PUSH1 0x2 SLOAD PUSH1 0x8 SHR AND CALLER EQ PUSH2 0x2672 JUMP JUMPDEST PUSH2 0x92F PUSH2 0x2B1F JUMP JUMPDEST PUSH2 0x937 PUSH2 0x2B63 JUMP JUMPDEST DUP4 DUP4 EQ DUP1 PUSH2 0xAC8 JUMPI JUMPDEST ISZERO PUSH2 0xA92 JUMPI PUSH0 SWAP4 PUSH0 JUMPDEST DUP2 DUP2 LT PUSH2 0xA3A JUMPI POP PUSH2 0x95D DUP6 SELFBALANCE LT ISZERO PUSH2 0x297D JUMP JUMPDEST PUSH0 JUMPDEST DUP5 DUP2 LT PUSH2 0x9B8 JUMPI DUP7 PUSH32 0xF571BB88B0EC5DC25398FC62C69D5970D50EA313A0A6596B0CA7F0197D37383F PUSH1 0x40 DUP9 DUP9 DUP5 PUSH0 MSTORE PUSH1 0x8 PUSH1 0x20 MSTORE PUSH1 0x1 DUP4 PUSH0 KECCAK256 ADD PUSH2 0x9A5 DUP4 DUP3 SLOAD PUSH2 0x26CE JUMP JUMPDEST SWAP1 SSTORE DUP3 MLOAD SWAP2 DUP3 MSTORE PUSH1 0x20 DUP3 ADD MSTORE LOG2 PUSH1 0x1 DUP1 SSTORE STOP JUMPDEST PUSH1 0x1 SWAP1 PUSH2 0x9FB PUSH0 DUP1 DUP1 DUP1 PUSH1 0x1 PUSH1 0x1 PUSH1 0xA0 SHL SUB PUSH2 0x9DD PUSH2 0x9D8 DUP9 DUP15 DUP14 PUSH2 0x26BE JUMP JUMPDEST PUSH2 0x26DB JUMP JUMPDEST AND PUSH2 0x9E9 DUP8 DUP11 DUP14 PUSH2 0x26BE JUMP JUMPDEST CALLDATALOAD SWAP1 GAS CALL PUSH2 0x9F5 PUSH2 0x28D1 JUMP JUMPDEST POP PUSH2 0x29C0 JUMP JUMPDEST PUSH2 0xA06 DUP2 DUP5 DUP8 PUSH2 0x26BE JUMP JUMPDEST CALLDATALOAD DUP3 DUP1 PUSH1 0xA0 SHL SUB PUSH2 0xA1B PUSH2 0x9D8 DUP5 DUP11 DUP10 PUSH2 0x26BE JUMP JUMPDEST AND PUSH0 MSTORE PUSH1 0xA PUSH1 0x20 MSTORE PUSH2 0xA32 PUSH1 0x40 PUSH0 KECCAK256 SWAP2 DUP3 SLOAD PUSH2 0x26CE JUMP JUMPDEST SWAP1 SSTORE ADD PUSH2 0x95F JUMP JUMPDEST SWAP5 PUSH1 0x1 SWAP1 PUSH2 0xA8B SWAP1 PUSH2 0xA63 PUSH1 0x1 PUSH1 0x1 PUSH1 0xA0 SHL SUB PUSH2 0xA5B PUSH2 0x9D8 DUP12 DUP12 DUP11 PUSH2 0x26BE JUMP JUMPDEST AND ISZERO ISZERO PUSH2 0x2900 JUMP JUMPDEST PUSH2 0xA79 PUSH2 0xA71 DUP10 DUP7 DUP10 PUSH2 0x26BE JUMP JUMPDEST CALLDATALOAD ISZERO ISZERO PUSH2 0x2940 JUMP JUMPDEST PUSH2 0xA84 DUP9 DUP6 DUP9 PUSH2 0x26BE JUMP JUMPDEST CALLDATALOAD SWAP1 PUSH2 0x26CE JUMP JUMPDEST SWAP6 ADD PUSH2 0x949 JUMP JUMPDEST PUSH1 0x40 MLOAD PUSH3 0x461BCD PUSH1 0xE5 SHL DUP2 MSTORE PUSH1 0x20 PUSH1 0x4 DUP3 ADD MSTORE PUSH1 0xE PUSH1 0x24 DUP3 ADD MSTORE PUSH14 0x496E76616C696420617272617973 PUSH1 0x90 SHL PUSH1 0x44 DUP3 ADD MSTORE PUSH1 0x64 SWAP1 REVERT JUMPDEST POP DUP3 ISZERO ISZERO PUSH2 0x940 JUMP JUMPDEST CALLVALUE PUSH2 0x29D JUMPI PUSH0 CALLDATASIZE PUSH1 0x3 NOT ADD SLT PUSH2 0x29D JUMPI PUSH1 0x40 MLOAD PUSH4 0xB41F4E7 PUSH1 0xE1 SHL DUP2 MSTORE PUSH1 0x80 DUP2 PUSH1 0x4 DUP2 PUSH32 0x0 PUSH1 0x1 PUSH1 0x1 PUSH1 0xA0 SHL SUB AND GAS STATICCALL DUP1 ISZERO PUSH2 0x581 JUMPI PUSH0 SWAP1 PUSH2 0xB38 JUMPI JUMPDEST PUSH1 0x20 SWAP1 PUSH1 0x40 MLOAD SWAP1 DUP2 MSTORE RETURN JUMPDEST POP PUSH1 0x80 DUP2 RETURNDATASIZE PUSH1 0x80 GT PUSH2 0xB63 JUMPI JUMPDEST DUP2 PUSH2 0xB52 PUSH1 0x80 SWAP4 DUP4 PUSH2 0x2562 JUMP JUMPDEST DUP2 ADD SUB SLT PUSH2 0x29D JUMPI PUSH1 0x20 SWAP1 MLOAD PUSH2 0xB2D JUMP JUMPDEST RETURNDATASIZE SWAP2 POP PUSH2 0xB45 JUMP JUMPDEST CALLVALUE PUSH2 0x29D JUMPI PUSH0 CALLDATASIZE PUSH1 0x3 NOT ADD SLT PUSH2 0x29D JUMPI PUSH1 0x20 PUSH1 0x40 MLOAD PUSH3 0x76A700 DUP2 MSTORE RETURN JUMPDEST PUSH1 0x60 CALLDATASIZE PUSH1 0x3 NOT ADD SLT PUSH2 0x29D JUMPI PUSH1 0x24 CALLDATALOAD PUSH1 0x4 CALLDATALOAD PUSH2 0xBA2 PUSH2 0x2472 JUMP JUMPDEST PUSH2 0xBBA PUSH1 0x1 DUP1 PUSH1 0xA0 SHL SUB PUSH1 0x2 SLOAD PUSH1 0x8 SHR AND CALLER EQ PUSH2 0x2672 JUMP JUMPDEST PUSH2 0xBC2 PUSH2 0x2B1F JUMP JUMPDEST PUSH2 0xBCA PUSH2 0x2B63 JUMP JUMPDEST PUSH7 0x38D7EA4C68000 CALLVALUE LT PUSH2 0xEFE JUMPI PUSH1 0x1 PUSH1 0x1 PUSH1 0xA0 SHL SUB DUP2 AND SWAP1 PUSH2 0xBEE DUP3 ISZERO ISZERO PUSH2 0x26EF JUMP JUMPDEST DUP3 ISZERO PUSH2 0xEC8 JUMPI PUSH2 0xBFF DUP5 ISZERO ISZERO PUSH2 0x287E JUMP JUMPDEST PUSH32 0x0 PUSH1 0x1 PUSH1 0x1 PUSH1 0xA0 SHL SUB AND SWAP1 DUP2 EXTCODESIZE ISZERO PUSH2 0x29D JUMPI PUSH1 0x40 MLOAD PUSH4 0xC5B4F407 PUSH1 0xE0 SHL DUP2 MSTORE PUSH1 0x1 PUSH1 0x1 PUSH1 0xA0 SHL SUB DUP3 AND PUSH1 0x4 DUP3 ADD MSTORE PUSH1 0x24 DUP2 ADD DUP6 SWAP1 MSTORE SWAP2 PUSH0 DUP4 PUSH1 0x44 DUP2 CALLVALUE DUP6 GAS CALL SWAP1 DUP2 ISZERO PUSH2 0x581 JUMPI PUSH1 0x24 SWAP4 PUSH1 0x20 SWAP3 PUSH2 0xEB8 JUMPI JUMPDEST POP PUSH1 0x40 MLOAD SWAP4 DUP5 DUP1 SWAP3 PUSH4 0x1B545A17 PUSH1 0xE0 SHL DUP3 MSTORE DUP8 PUSH1 0x4 DUP4 ADD MSTORE GAS STATICCALL SWAP2 DUP3 ISZERO PUSH2 0x581 JUMPI PUSH0 SWAP3 PUSH2 0xE84 JUMPI JUMPDEST POP DUP2 ISZERO PUSH2 0xE6D JUMPI PUSH0 NOT DUP3 ADD SWAP2 DUP3 GT PUSH2 0x41A JUMPI PUSH0 MLOAD PUSH1 0x20 PUSH2 0x2BE0 PUSH0 CODECOPY PUSH0 MLOAD SWAP1 PUSH0 MSTORE SWAP2 SWAP1 JUMPDEST PUSH1 0x3 SLOAD SWAP4 PUSH2 0xCC8 DUP6 PUSH2 0x2734 JUMP JUMPDEST PUSH1 0x3 SSTORE PUSH1 0x40 MLOAD PUSH2 0xCD7 DUP2 PUSH2 0x2531 JUMP JUMPDEST CALLVALUE DUP2 MSTORE DUP6 PUSH2 0xD83 PUSH1 0x6 PUSH1 0x20 DUP5 ADD SWAP4 DUP11 DUP6 MSTORE PUSH1 0x40 DUP2 ADD DUP13 DUP2 MSTORE PUSH1 0x60 DUP3 ADD DUP8 DUP2 MSTORE PUSH1 0x80 DUP4 ADD SWAP1 TIMESTAMP DUP3 MSTORE PUSH1 0xA0 DUP5 ADD SWAP3 DUP12 DUP5 MSTORE PUSH1 0xC0 DUP6 ADD SWAP9 PUSH1 0x1 DUP11 MSTORE PUSH1 0xE0 DUP7 ADD SWAP9 PUSH1 0x1 DUP11 MSTORE PUSH0 MSTORE PUSH1 0x4 PUSH1 0x20 MSTORE PUSH1 0x40 PUSH0 KECCAK256 SWAP6 MLOAD DUP7 SSTORE MLOAD PUSH1 0x1 DUP7 ADD SSTORE MLOAD PUSH1 0x2 DUP6 ADD SSTORE PUSH1 0x1 DUP1 PUSH1 0xA0 SHL SUB SWAP1 MLOAD AND PUSH1 0x3 DUP5 ADD SWAP1 PUSH1 0x1 DUP1 PUSH1 0xA0 SHL SUB AND PUSH12 0xFFFFFFFFFFFFFFFFFFFFFFFF PUSH1 0xA0 SHL DUP3 SLOAD AND OR SWAP1 SSTORE MLOAD PUSH1 0x4 DUP4 ADD SSTORE MLOAD PUSH1 0x5 DUP3 ADD SSTORE ADD SWAP3 MLOAD ISZERO ISZERO DUP4 SWAP1 PUSH1 0xFF DUP1 NOT DUP4 SLOAD AND SWAP2 ISZERO ISZERO AND OR SWAP1 SSTORE JUMP JUMPDEST MLOAD ISZERO ISZERO PUSH2 0xFF00 DUP3 SLOAD SWAP2 PUSH1 0x8 SHL AND SWAP1 PUSH2 0xFF00 NOT AND OR SWAP1 SSTORE DUP7 PUSH0 MSTORE PUSH1 0x5 PUSH1 0x20 MSTORE PUSH2 0xDAE DUP6 PUSH1 0x40 PUSH0 KECCAK256 PUSH2 0x2742 JUMP JUMPDEST DUP1 PUSH0 MSTORE PUSH1 0x6 PUSH1 0x20 MSTORE PUSH2 0xDC3 DUP6 PUSH1 0x40 PUSH0 KECCAK256 PUSH2 0x2742 JUMP JUMPDEST DUP6 PUSH0 MSTORE PUSH1 0x7 PUSH1 0x20 MSTORE PUSH1 0x40 PUSH0 KECCAK256 PUSH2 0xDDA CALLVALUE DUP3 SLOAD PUSH2 0x26CE JUMP JUMPDEST SWAP1 SSTORE DUP7 PUSH0 MSTORE PUSH1 0x8 PUSH1 0x20 MSTORE PUSH1 0x40 PUSH0 KECCAK256 SWAP1 PUSH1 0x4 DUP3 ADD SWAP1 DUP1 PUSH0 MSTORE DUP2 PUSH1 0x20 MSTORE PUSH1 0x40 PUSH0 KECCAK256 SLOAD ISZERO PUSH2 0xE4B JUMPI JUMPDEST PUSH0 MSTORE PUSH1 0x20 MSTORE PUSH1 0x40 PUSH0 KECCAK256 PUSH2 0xE14 CALLVALUE DUP3 SLOAD PUSH2 0x26CE JUMP JUMPDEST SWAP1 SSTORE PUSH2 0xE21 CALLVALUE DUP3 SLOAD PUSH2 0x26CE JUMP JUMPDEST SWAP1 SSTORE PUSH1 0x40 DUP1 MLOAD PUSH1 0x1 PUSH1 0x1 PUSH1 0xA0 SHL SUB SWAP3 SWAP1 SWAP3 AND DUP3 MSTORE CALLVALUE PUSH1 0x20 DUP4 ADD MSTORE DUP2 ADD SWAP2 SWAP1 SWAP2 MSTORE PUSH1 0x60 SWAP1 LOG4 PUSH1 0x1 DUP1 SSTORE STOP JUMPDEST PUSH2 0xE58 DUP5 PUSH1 0x5 DUP6 ADD PUSH2 0x2776 JUMP JUMPDEST PUSH1 0x2 DUP4 ADD PUSH2 0xE66 DUP2 SLOAD PUSH2 0x2734 JUMP JUMPDEST SWAP1 SSTORE PUSH2 0xE00 JUMP JUMPDEST PUSH0 MLOAD PUSH1 0x20 PUSH2 0x2BE0 PUSH0 CODECOPY PUSH0 MLOAD SWAP1 PUSH0 MSTORE SWAP2 POP PUSH0 SWAP1 PUSH2 0xCBB JUMP JUMPDEST SWAP1 SWAP2 POP PUSH1 0x20 DUP2 RETURNDATASIZE PUSH1 0x20 GT PUSH2 0xEB0 JUMPI JUMPDEST DUP2 PUSH2 0xEA0 PUSH1 0x20 SWAP4 DUP4 PUSH2 0x2562 JUMP JUMPDEST DUP2 ADD SUB SLT PUSH2 0x29D JUMPI MLOAD SWAP1 DUP6 PUSH2 0xC98 JUMP JUMPDEST RETURNDATASIZE SWAP2 POP PUSH2 0xE93 JUMP JUMPDEST PUSH0 PUSH2 0xEC2 SWAP2 PUSH2 0x2562 JUMP JUMPDEST DUP8 PUSH2 0xC70 JUMP JUMPDEST PUSH1 0x40 MLOAD PUSH3 0x461BCD PUSH1 0xE5 SHL DUP2 MSTORE PUSH1 0x20 PUSH1 0x4 DUP3 ADD MSTORE PUSH1 0xE PUSH1 0x24 DUP3 ADD MSTORE PUSH14 0x125B9D985B1A59081C1BDD081251 PUSH1 0x92 SHL PUSH1 0x44 DUP3 ADD MSTORE PUSH1 0x64 SWAP1 REVERT JUMPDEST PUSH1 0x40 MLOAD PUSH3 0x461BCD PUSH1 0xE5 SHL DUP2 MSTORE PUSH1 0x20 PUSH1 0x4 DUP3 ADD MSTORE PUSH1 0x16 PUSH1 0x24 DUP3 ADD MSTORE PUSH22 0x4465706F73697420616D6F756E7420746F6F206C6F77 PUSH1 0x50 SHL PUSH1 0x44 DUP3 ADD MSTORE PUSH1 0x64 SWAP1 REVERT JUMPDEST CALLVALUE PUSH2 0x29D JUMPI PUSH0 CALLDATASIZE PUSH1 0x3 NOT ADD SLT PUSH2 0x29D JUMPI PUSH0 SLOAD PUSH1 0x40 MLOAD PUSH1 0x1 PUSH1 0x1 PUSH1 0xA0 SHL SUB SWAP1 SWAP2 AND DUP2 MSTORE PUSH1 0x20 SWAP1 RETURN JUMPDEST CALLVALUE PUSH2 0x29D JUMPI PUSH0 CALLDATASIZE PUSH1 0x3 NOT ADD SLT PUSH2 0x29D JUMPI PUSH1 0x40 MLOAD PUSH32 0x0 PUSH1 0x1 PUSH1 0x1 PUSH1 0xA0 SHL SUB AND DUP2 MSTORE PUSH1 0x20 SWAP1 RETURN JUMPDEST CALLVALUE PUSH2 0x29D JUMPI PUSH1 0x60 CALLDATASIZE PUSH1 0x3 NOT ADD SLT PUSH2 0x29D JUMPI PUSH1 0x4 CALLDATALOAD PUSH2 0xFC3 PUSH2 0x245C JUMP JUMPDEST SWAP1 PUSH1 0x44 CALLDATALOAD SWAP2 PUSH8 0xFFFFFFFFFFFFFFFF DUP4 GT PUSH2 0x29D JUMPI CALLDATASIZE PUSH1 0x23 DUP5 ADD SLT ISZERO PUSH2 0x29D JUMPI DUP3 PUSH1 0x4 ADD CALLDATALOAD SWAP1 PUSH2 0xFF1 DUP3 PUSH2 0x2584 JUMP JUMPDEST SWAP2 PUSH2 0xFFF PUSH1 0x40 MLOAD SWAP4 DUP5 PUSH2 0x2562 JUMP JUMPDEST DUP1 DUP4 MSTORE PUSH1 0x20 DUP4 ADD SWAP5 CALLDATASIZE PUSH1 0x24 DUP4 DUP4 ADD ADD GT PUSH2 0x29D JUMPI DUP2 PUSH0 SWAP3 PUSH1 0x24 PUSH1 0x20 SWAP4 ADD DUP9 CALLDATACOPY DUP5 ADD ADD MSTORE PUSH2 0x102A PUSH2 0x2BB9 JUMP JUMPDEST PUSH2 0x1032 PUSH2 0x2B63 JUMP JUMPDEST PUSH2 0x103D DUP4 ISZERO ISZERO PUSH2 0x283D JUMP JUMPDEST PUSH1 0x1 PUSH1 0x1 PUSH1 0xA0 SHL SUB AND SWAP3 PUSH2 0x1052 DUP5 ISZERO ISZERO PUSH2 0x2900 JUMP JUMPDEST DUP2 MLOAD ISZERO PUSH2 0x111B JUMPI PUSH2 0x1065 DUP4 SELFBALANCE LT ISZERO PUSH2 0x297D JUMP JUMPDEST PUSH0 DUP1 DUP1 DUP1 DUP7 DUP9 GAS CALL PUSH2 0x1075 PUSH2 0x28D1 JUMP JUMPDEST POP ISZERO PUSH2 0x10D6 JUMPI PUSH32 0xB6611F2B90CE7E47B1F8BFC81E38FB1A210F6766C91B8C8D5EE36305D752060 SWAP3 PUSH1 0x60 SWAP2 PUSH1 0x40 MLOAD SWAP4 DUP5 SWAP3 DUP4 MSTORE PUSH1 0x40 PUSH1 0x20 DUP5 ADD MSTORE MLOAD DUP1 SWAP2 DUP2 PUSH1 0x40 DUP6 ADD MSTORE DUP5 DUP5 ADD MCOPY PUSH0 DUP3 DUP3 ADD DUP5 ADD MSTORE PUSH1 0x1F ADD PUSH1 0x1F NOT AND DUP2 ADD SUB ADD SWAP1 LOG2 PUSH1 0x1 DUP1 SSTORE STOP JUMPDEST PUSH1 0x40 MLOAD PUSH3 0x461BCD PUSH1 0xE5 SHL DUP2 MSTORE PUSH1 0x20 PUSH1 0x4 DUP3 ADD MSTORE PUSH1 0x1B PUSH1 0x24 DUP3 ADD MSTORE PUSH32 0x456D657267656E6379207769746864726177616C206661696C65640000000000 PUSH1 0x44 DUP3 ADD MSTORE PUSH1 0x64 SWAP1 REVERT JUMPDEST PUSH1 0x40 MLOAD PUSH3 0x461BCD PUSH1 0xE5 SHL DUP2 MSTORE PUSH1 0x20 PUSH1 0x4 DUP3 ADD MSTORE PUSH1 0x13 PUSH1 0x24 DUP3 ADD MSTORE PUSH19 0x26BAB9BA10383937BB34B232903932B0B9B7B7 PUSH1 0x69 SHL PUSH1 0x44 DUP3 ADD MSTORE PUSH1 0x64 SWAP1 REVERT JUMPDEST CALLVALUE PUSH2 0x29D JUMPI PUSH1 0x40 CALLDATASIZE PUSH1 0x3 NOT ADD SLT PUSH2 0x29D JUMPI PUSH1 0x4 CALLDATALOAD PUSH32 0xFBC3A599B784FE88772FC5ABCC07223F64CA0B13ACC341F4FB1E46BEF0510EB4 PUSH1 0x40 PUSH2 0x1195 PUSH2 0x245C JUMP JUMPDEST PUSH2 0x11AD PUSH1 0x1 DUP1 PUSH1 0xA0 SHL SUB PUSH1 0x2 SLOAD PUSH1 0x8 SHR AND CALLER EQ PUSH2 0x2672 JUMP JUMPDEST PUSH2 0x11B5 PUSH2 0x2B1F JUMP JUMPDEST PUSH2 0x11BD PUSH2 0x2B63 JUMP JUMPDEST PUSH2 0x11C8 DUP5 ISZERO ISZERO PUSH2 0x283D JUMP JUMPDEST PUSH1 0x1 PUSH1 0x1 PUSH1 0xA0 SHL SUB AND SWAP3 PUSH2 0x11DD DUP5 ISZERO ISZERO PUSH2 0x2900 JUMP JUMPDEST PUSH2 0x11E9 DUP2 SELFBALANCE LT ISZERO PUSH2 0x297D JUMP JUMPDEST PUSH2 0x11FC PUSH0 DUP1 DUP1 DUP1 DUP6 DUP10 GAS CALL PUSH2 0x9F5 PUSH2 0x28D1 JUMP JUMPDEST DUP2 MLOAD SWAP1 DUP2 MSTORE PUSH0 PUSH1 0x20 DUP3 ADD MSTORE LOG2 PUSH1 0x1 DUP1 SSTORE STOP JUMPDEST CALLVALUE PUSH2 0x29D JUMPI PUSH0 CALLDATASIZE PUSH1 0x3 NOT ADD SLT PUSH2 0x29D JUMPI PUSH2 0x1226 PUSH2 0x2BB9 JUMP JUMPDEST PUSH0 DUP1 SLOAD PUSH1 0x1 PUSH1 0x1 PUSH1 0xA0 SHL SUB NOT DUP2 AND DUP3 SSTORE PUSH1 0x1 PUSH1 0x1 PUSH1 0xA0 SHL SUB AND PUSH32 0x8BE0079C531659141344CD1FD0A4F28419497F9722A3DAAFE3B4186F6B6457E0 DUP3 DUP1 LOG3 STOP JUMPDEST CALLVALUE PUSH2 0x29D JUMPI PUSH0 CALLDATASIZE PUSH1 0x3 NOT ADD SLT PUSH2 0x29D JUMPI PUSH1 0x20 PUSH1 0xFF PUSH1 0x2 SLOAD AND PUSH1 0x40 MLOAD SWAP1 ISZERO ISZERO DUP2 MSTORE RETURN JUMPDEST CALLVALUE PUSH2 0x29D JUMPI PUSH1 0x40 CALLDATASIZE PUSH1 0x3 NOT ADD SLT PUSH2 0x29D JUMPI PUSH0 DUP1 DUP1 DUP1 PUSH2 0x12A4 PUSH2 0x2446 JUMP JUMPDEST PUSH1 0x24 CALLDATALOAD SWAP1 PUSH2 0x12B0 PUSH2 0x2BB9 JUMP JUMPDEST PUSH2 0x12B8 PUSH2 0x2B63 JUMP JUMPDEST PUSH1 0x1 PUSH1 0x1 PUSH1 0xA0 SHL SUB AND PUSH2 0x12CC DUP2 ISZERO ISZERO PUSH2 0x2900 JUMP JUMPDEST DUP2 ISZERO ISZERO DUP1 PUSH2 0x1331 JUMPI JUMPDEST PUSH2 0x12DE SWAP1 PUSH2 0x2940 JUMP JUMPDEST GAS CALL PUSH2 0x12E8 PUSH2 0x28D1 JUMP JUMPDEST POP ISZERO PUSH2 0x12F4 JUMPI PUSH1 0x1 DUP1 SSTORE STOP JUMPDEST PUSH1 0x40 MLOAD PUSH3 0x461BCD PUSH1 0xE5 SHL DUP2 MSTORE PUSH1 0x20 PUSH1 0x4 DUP3 ADD MSTORE PUSH1 0x15 PUSH1 0x24 DUP3 ADD MSTORE PUSH21 0x1199594818DBDB1B1958DD1A5BDB8819985A5B1959 PUSH1 0x5A SHL PUSH1 0x44 DUP3 ADD MSTORE PUSH1 0x64 SWAP1 REVERT JUMPDEST POP SELFBALANCE DUP3 GT ISZERO PUSH2 0x12D5 JUMP JUMPDEST CALLVALUE PUSH2 0x29D JUMPI PUSH1 0x20 CALLDATASIZE PUSH1 0x3 NOT ADD SLT PUSH2 0x29D JUMPI PUSH1 0x4 CALLDATALOAD PUSH2 0x1367 PUSH1 0x1 DUP1 PUSH1 0xA0 SHL SUB PUSH1 0x2 SLOAD PUSH1 0x8 SHR AND CALLER EQ PUSH2 0x2672 JUMP JUMPDEST PUSH2 0x136F PUSH2 0x2B1F JUMP JUMPDEST PUSH2 0x1377 PUSH2 0x2B63 JUMP JUMPDEST PUSH2 0x1382 DUP2 ISZERO ISZERO PUSH2 0x287E JUMP JUMPDEST DUP1 PUSH0 MSTORE PUSH1 0x8 PUSH1 0x20 MSTORE PUSH1 0x40 PUSH0 KECCAK256 PUSH1 0x3 DUP2 ADD DUP1 SLOAD PUSH1 0xFF DUP2 AND PUSH2 0x1558 JUMPI PUSH1 0x1 SWAP1 PUSH1 0xFF NOT AND OR SWAP1 SSTORE DUP2 PUSH0 MSTORE PUSH1 0x5 PUSH1 0x20 MSTORE PUSH1 0x40 PUSH0 KECCAK256 PUSH1 0x40 MLOAD DUP1 DUP3 PUSH1 0x20 DUP3 SWAP5 SLOAD SWAP4 DUP5 DUP2 MSTORE ADD SWAP1 PUSH0 MSTORE PUSH1 0x20 PUSH0 KECCAK256 SWAP3 PUSH0 JUMPDEST DUP2 DUP2 LT PUSH2 0x153F JUMPI POP POP PUSH2 0x13E0 SWAP3 POP SUB DUP3 PUSH2 0x2562 JUMP JUMPDEST PUSH0 SWAP3 PUSH0 JUMPDEST DUP3 MLOAD DUP2 LT ISZERO PUSH2 0x14F4 JUMPI PUSH2 0x13F7 DUP2 DUP5 PUSH2 0x28BD JUMP JUMPDEST MLOAD PUSH0 MSTORE PUSH1 0x4 PUSH1 0x20 MSTORE PUSH1 0x40 PUSH0 KECCAK256 PUSH1 0x6 DUP2 ADD DUP1 SLOAD SWAP2 PUSH1 0xFF DUP4 PUSH1 0x8 SHR AND DUP1 PUSH2 0x14EA JUMPI JUMPDEST PUSH2 0x1427 JUMPI JUMPDEST POP POP POP PUSH1 0x1 ADD PUSH2 0x13E4 JUMP JUMPDEST PUSH1 0x3 DUP2 ADD SLOAD PUSH1 0x5 SWAP1 SWAP2 ADD SLOAD PUSH1 0x40 MLOAD PUSH4 0x5A45D5D PUSH1 0xE1 SHL DUP2 MSTORE PUSH1 0x1 PUSH1 0x1 PUSH1 0xA0 SHL SUB SWAP1 SWAP3 AND PUSH1 0x4 DUP4 ADD MSTORE PUSH1 0x24 DUP3 ADD MSTORE SWAP2 SWAP7 SWAP3 SWAP2 PUSH1 0x20 DUP2 DUP1 PUSH1 0x44 DUP2 ADD SUB DUP2 PUSH32 0x0 PUSH1 0x1 PUSH1 0x1 PUSH1 0xA0 SHL SUB AND GAS STATICCALL SWAP1 DUP2 ISZERO PUSH2 0x581 JUMPI PUSH0 SWAP2 PUSH2 0x14B8 JUMPI JUMPDEST POP PUSH2 0x14A9 SWAP1 PUSH1 0x1 SWAP5 PUSH2 0x26CE JUMP JUMPDEST SWAP7 PUSH1 0xFF NOT AND SWAP1 SSTORE SWAP1 DUP7 DUP1 PUSH2 0x141C JUMP JUMPDEST SWAP1 POP PUSH1 0x20 DUP2 RETURNDATASIZE DUP3 GT PUSH2 0x14E2 JUMPI JUMPDEST DUP2 PUSH2 0x14D2 PUSH1 0x20 SWAP4 DUP4 PUSH2 0x2562 JUMP JUMPDEST DUP2 ADD SUB SLT PUSH2 0x29D JUMPI MLOAD PUSH1 0x1 PUSH2 0x149C JUMP JUMPDEST RETURNDATASIZE SWAP2 POP PUSH2 0x14C5 JUMP JUMPDEST POP PUSH1 0xFF DUP4 AND PUSH2 0x1417 JUMP JUMPDEST POP PUSH32 0x188DFFC590872DC919B0E448791F95E29EBD499B88D4318FC474DFC17AAC6E3E PUSH1 0x40 DUP6 DUP6 PUSH2 0x1529 PUSH1 0x1 DUP3 ADD SWAP3 DUP4 SLOAD PUSH2 0x26CE JUMP JUMPDEST DUP1 SWAP3 SSTORE SLOAD SWAP1 DUP3 MLOAD SWAP2 DUP3 MSTORE PUSH1 0x20 DUP3 ADD MSTORE LOG2 PUSH1 0x1 DUP1 SSTORE STOP JUMPDEST DUP5 SLOAD DUP4 MSTORE PUSH1 0x1 SWAP5 DUP6 ADD SWAP5 DUP7 SWAP5 POP PUSH1 0x20 SWAP1 SWAP4 ADD SWAP3 ADD PUSH2 0x13CB JUMP JUMPDEST PUSH1 0x40 MLOAD PUSH3 0x461BCD PUSH1 0xE5 SHL DUP2 MSTORE PUSH1 0x20 PUSH1 0x4 DUP3 ADD MSTORE PUSH1 0x17 PUSH1 0x24 DUP3 ADD MSTORE PUSH32 0x4379636C6520616C726561647920636F6D706C65746564000000000000000000 PUSH1 0x44 DUP3 ADD MSTORE PUSH1 0x64 SWAP1 REVERT JUMPDEST CALLVALUE PUSH2 0x29D JUMPI PUSH1 0x20 CALLDATASIZE PUSH1 0x3 NOT ADD SLT PUSH2 0x29D JUMPI PUSH1 0x4 CALLDATALOAD PUSH0 PUSH1 0xE0 PUSH1 0x40 MLOAD PUSH2 0x15C0 DUP2 PUSH2 0x2531 JUMP JUMPDEST DUP3 DUP2 MSTORE DUP3 PUSH1 0x20 DUP3 ADD MSTORE DUP3 PUSH1 0x40 DUP3 ADD MSTORE DUP3 PUSH1 0x60 DUP3 ADD MSTORE DUP3 PUSH1 0x80 DUP3 ADD MSTORE DUP3 PUSH1 0xA0 DUP3 ADD MSTORE DUP3 PUSH1 0xC0 DUP3 ADD MSTORE ADD MSTORE DUP1 ISZERO ISZERO DUP1 PUSH2 0x16E6 JUMPI JUMPDEST PUSH2 0x15FB SWAP1 PUSH2 0x27B7 JUMP JUMPDEST PUSH0 DUP2 DUP2 MSTORE PUSH1 0x4 PUSH1 0x20 MSTORE PUSH1 0x40 SWAP1 KECCAK256 PUSH1 0x3 ADD SLOAD PUSH2 0x1620 SWAP1 PUSH1 0x1 PUSH1 0x1 PUSH1 0xA0 SHL SUB AND ISZERO ISZERO PUSH2 0x27F8 JUMP JUMPDEST PUSH0 MSTORE PUSH1 0x4 PUSH1 0x20 MSTORE PUSH2 0x100 PUSH1 0x40 PUSH0 KECCAK256 PUSH1 0x40 MLOAD SWAP1 PUSH2 0x163B DUP3 PUSH2 0x2531 JUMP JUMPDEST DUP1 SLOAD SWAP2 DUP3 DUP2 MSTORE PUSH1 0x1 DUP3 ADD SLOAD SWAP2 PUSH1 0x20 DUP3 ADD SWAP3 DUP4 MSTORE PUSH1 0x2 DUP2 ADD SLOAD PUSH1 0x40 DUP4 ADD SWAP1 DUP2 MSTORE PUSH1 0x1 DUP1 PUSH1 0xA0 SHL SUB PUSH1 0x3 DUP4 ADD SLOAD AND PUSH1 0x60 DUP5 ADD SWAP1 DUP2 MSTORE PUSH1 0x4 DUP4 ADD SLOAD SWAP2 PUSH1 0x80 DUP6 ADD SWAP3 DUP4 MSTORE PUSH1 0x6 PUSH1 0x5 DUP6 ADD SLOAD SWAP5 PUSH1 0xA0 DUP8 ADD SWAP6 DUP7 MSTORE ADD SLOAD SWAP6 PUSH1 0xFF PUSH1 0xE0 PUSH1 0xC0 DUP9 ADD SWAP8 DUP3 DUP11 AND ISZERO ISZERO DUP10 MSTORE ADD SWAP8 PUSH1 0x8 SHR AND ISZERO ISZERO DUP8 MSTORE PUSH1 0x40 MLOAD SWAP8 DUP9 MSTORE MLOAD PUSH1 0x20 DUP9 ADD MSTORE MLOAD PUSH1 0x40 DUP8 ADD MSTORE PUSH1 0x1 DUP1 PUSH1 0xA0 SHL SUB SWAP1 MLOAD AND PUSH1 0x60 DUP7 ADD MSTORE MLOAD PUSH1 0x80 DUP6 ADD MSTORE MLOAD PUSH1 0xA0 DUP5 ADD MSTORE MLOAD ISZERO ISZERO PUSH1 0xC0 DUP4 ADD MSTORE MLOAD ISZERO ISZERO PUSH1 0xE0 DUP3 ADD MSTORE RETURN JUMPDEST POP PUSH1 0x3 SLOAD DUP2 LT PUSH2 0x15F2 JUMP JUMPDEST CALLVALUE PUSH2 0x29D JUMPI PUSH0 CALLDATASIZE PUSH1 0x3 NOT ADD SLT PUSH2 0x29D JUMPI PUSH2 0x1709 PUSH2 0x2BB9 JUMP JUMPDEST PUSH2 0x1711 PUSH2 0x2B1F JUMP JUMPDEST PUSH1 0x1 PUSH1 0xFF NOT PUSH1 0x2 SLOAD AND OR PUSH1 0x2 SSTORE PUSH32 0x62E78CEA01BEE320CD4E420270B5EA74000D11B0C9F74754EBDBFC544B05A258 PUSH1 0x20 PUSH1 0x40 MLOAD CALLER DUP2 MSTORE LOG1 STOP JUMPDEST CALLVALUE PUSH2 0x29D JUMPI PUSH0 CALLDATASIZE PUSH1 0x3 NOT ADD SLT PUSH2 0x29D JUMPI PUSH1 0x20 PUSH1 0xC SLOAD PUSH1 0x40 MLOAD SWAP1 DUP2 MSTORE RETURN JUMPDEST CALLVALUE PUSH2 0x29D JUMPI PUSH0 CALLDATASIZE PUSH1 0x3 NOT ADD SLT PUSH2 0x29D JUMPI PUSH2 0x177F PUSH2 0x2BB9 JUMP JUMPDEST PUSH1 0x2 SLOAD PUSH1 0xFF DUP2 AND ISZERO PUSH2 0x17BE JUMPI PUSH1 0xFF NOT AND PUSH1 0x2 SSTORE PUSH32 0x5DB9EE0A495BF2E6FF9C91A7834C1BA4FDD244A5E8AA4E537BD38AEAE4B073AA PUSH1 0x20 PUSH1 0x40 MLOAD CALLER DUP2 MSTORE LOG1 STOP JUMPDEST PUSH1 0x40 MLOAD PUSH3 0x461BCD PUSH1 0xE5 SHL DUP2 MSTORE PUSH1 0x20 PUSH1 0x4 DUP3 ADD MSTORE PUSH1 0x14 PUSH1 0x24 DUP3 ADD MSTORE PUSH20 0x14185D5CD8589B194E881B9BDD081C185D5CD959 PUSH1 0x62 SHL PUSH1 0x44 DUP3 ADD MSTORE PUSH1 0x64 SWAP1 REVERT JUMPDEST CALLVALUE PUSH2 0x29D JUMPI PUSH0 CALLDATASIZE PUSH1 0x3 NOT ADD SLT PUSH2 0x29D JUMPI PUSH1 0x40 MLOAD PUSH4 0x4B16524B PUSH1 0xE1 SHL DUP2 MSTORE PUSH1 0x20 DUP2 PUSH1 0x4 DUP2 PUSH32 0x0 PUSH1 0x1 PUSH1 0x1 PUSH1 0xA0 SHL SUB AND GAS STATICCALL DUP1 ISZERO PUSH2 0x581 JUMPI PUSH0 SWAP1 PUSH2 0x1860 JUMPI PUSH1 0x20 SWAP1 PUSH1 0x40 MLOAD SWAP1 DUP2 MSTORE RETURN JUMPDEST POP PUSH1 0x20 DUP2 RETURNDATASIZE PUSH1 0x20 GT PUSH2 0x187A JUMPI JUMPDEST DUP2 PUSH2 0xB52 PUSH1 0x20 SWAP4 DUP4 PUSH2 0x2562 JUMP JUMPDEST RETURNDATASIZE SWAP2 POP PUSH2 0x186D JUMP JUMPDEST CALLVALUE PUSH2 0x29D JUMPI PUSH1 0x60 CALLDATASIZE PUSH1 0x3 NOT ADD SLT PUSH2 0x29D JUMPI PUSH1 0x24 CALLDATALOAD PUSH1 0x1 PUSH1 0x1 PUSH1 0xA0 SHL SUB DUP2 AND SWAP1 PUSH1 0x4 CALLDATALOAD SWAP1 DUP3 SWAP1 SUB PUSH2 0x29D JUMPI PUSH1 0x44 CALLDATALOAD PUSH2 0x18C7 PUSH1 0x1 DUP1 PUSH1 0xA0 SHL SUB PUSH1 0x2 SLOAD PUSH1 0x8 SHR AND CALLER EQ PUSH2 0x2672 JUMP JUMPDEST PUSH2 0x18CF PUSH2 0x2B1F JUMP JUMPDEST PUSH2 0x18D7 PUSH2 0x2B63 JUMP JUMPDEST PUSH2 0x18E2 DUP3 ISZERO ISZERO PUSH2 0x283D JUMP JUMPDEST DUP3 ISZERO PUSH2 0x1BB7 JUMPI PUSH2 0x18F3 DUP2 ISZERO ISZERO PUSH2 0x287E JUMP JUMPDEST DUP1 PUSH0 MSTORE PUSH1 0x5 PUSH1 0x20 MSTORE PUSH1 0x40 PUSH0 KECCAK256 SWAP3 PUSH1 0x40 MLOAD DUP1 DUP6 PUSH1 0x20 DUP3 SWAP8 SLOAD SWAP4 DUP5 DUP2 MSTORE ADD SWAP1 PUSH0 MSTORE PUSH1 0x20 PUSH0 KECCAK256 SWAP3 PUSH0 JUMPDEST DUP2 DUP2 LT PUSH2 0x1B9E JUMPI POP POP PUSH2 0x192E SWAP3 POP SUB DUP6 PUSH2 0x2562 JUMP JUMPDEST DUP4 MLOAD ISZERO PUSH2 0x1B61 JUMPI PUSH0 SWAP4 PUSH0 SWAP3 PUSH0 JUMPDEST DUP3 MLOAD DUP2 LT ISZERO PUSH2 0x1A5E JUMPI PUSH2 0x194E DUP2 DUP5 PUSH2 0x28BD JUMP JUMPDEST MLOAD PUSH0 MSTORE PUSH1 0x4 PUSH1 0x20 MSTORE PUSH1 0x40 PUSH0 KECCAK256 PUSH1 0x6 DUP2 ADD SLOAD PUSH1 0xFF DUP2 PUSH1 0x8 SHR AND SWAP1 DUP2 PUSH2 0x1A53 JUMPI JUMPDEST POP PUSH2 0x197C JUMPI JUMPDEST POP PUSH1 0x1 ADD PUSH2 0x193B JUMP JUMPDEST PUSH1 0x3 DUP2 ADD SLOAD PUSH1 0x5 SWAP1 SWAP2 ADD SLOAD PUSH1 0x40 MLOAD PUSH4 0x5A45D5D PUSH1 0xE1 SHL DUP2 MSTORE PUSH1 0x1 PUSH1 0x1 PUSH1 0xA0 SHL SUB SWAP1 SWAP3 AND PUSH1 0x4 DUP4 ADD DUP2 SWAP1 MSTORE PUSH1 0x24 DUP4 ADD SWAP2 SWAP1 SWAP2 MSTORE SWAP8 SWAP1 PUSH1 0x20 DUP2 DUP1 PUSH1 0x44 DUP2 ADD SUB DUP2 PUSH32 0x0 PUSH1 0x1 PUSH1 0x1 PUSH1 0xA0 SHL SUB AND GAS STATICCALL SWAP2 DUP3 ISZERO PUSH2 0x581 JUMPI DUP7 SWAP2 PUSH0 SWAP4 PUSH2 0x1A1B JUMPI JUMPDEST POP DUP3 PUSH2 0x1A01 SWAP2 PUSH2 0x26CE JUMP JUMPDEST SWAP9 SUB PUSH2 0x1973 JUMPI PUSH2 0x1A14 SWAP1 PUSH1 0x1 SWAP3 SWAP7 PUSH2 0x26CE JUMP JUMPDEST SWAP5 SWAP1 PUSH2 0x1973 JUMP JUMPDEST SWAP2 POP SWAP2 POP PUSH1 0x20 DUP2 RETURNDATASIZE DUP3 GT PUSH2 0x1A4B JUMPI JUMPDEST DUP2 PUSH2 0x1A37 PUSH1 0x20 SWAP4 DUP4 PUSH2 0x2562 JUMP JUMPDEST DUP2 ADD SUB SLT PUSH2 0x29D JUMPI MLOAD SWAP1 DUP6 SWAP1 PUSH2 0x1A01 PUSH2 0x19F6 JUMP JUMPDEST RETURNDATASIZE SWAP2 POP PUSH2 0x1A2A JUMP JUMPDEST PUSH1 0xFF SWAP2 POP AND DUP10 PUSH2 0x196D JUMP JUMPDEST DUP4 DUP3 DUP7 DUP10 DUP10 PUSH2 0x2710 PUSH2 0x1A72 PUSH1 0xB SLOAD DUP4 PUSH2 0x25A0 JUMP JUMPDEST DIV DUP2 SUB SWAP1 DUP2 GT PUSH2 0x41A JUMPI PUSH0 DUP1 DUP1 DUP1 PUSH2 0x1A8A DUP8 DUP7 PUSH2 0x26CE JUMP JUMPDEST DUP10 GAS CALL PUSH2 0x1A95 PUSH2 0x28D1 JUMP JUMPDEST POP ISZERO PUSH2 0x1B1C JUMPI PUSH32 0x51E82AAA8392AA33C66EBB769CE034FC69088EE965C917AABD430F11C7E5498D SWAP3 PUSH1 0x40 SWAP3 DUP6 PUSH0 MSTORE PUSH1 0x8 PUSH1 0x20 MSTORE DUP4 PUSH0 KECCAK256 SLOAD ISZERO ISZERO PUSH0 EQ PUSH2 0x1B16 JUMPI DUP6 JUMPDEST PUSH0 MSTORE PUSH1 0x9 PUSH1 0x20 MSTORE PUSH2 0x1AEB DUP5 PUSH0 KECCAK256 SWAP2 DUP3 SLOAD PUSH2 0x26CE JUMP JUMPDEST SWAP1 SSTORE DUP6 PUSH0 MSTORE PUSH1 0xA PUSH1 0x20 MSTORE DUP3 PUSH0 KECCAK256 PUSH2 0x1B03 DUP3 DUP3 SLOAD PUSH2 0x26CE JUMP JUMPDEST SWAP1 SSTORE DUP3 MLOAD SWAP2 DUP3 MSTORE PUSH1 0x20 DUP3 ADD MSTORE LOG3 PUSH1 0x1 DUP1 SSTORE STOP JUMPDEST PUSH0 PUSH2 0x1AD6 JUMP JUMPDEST PUSH1 0x40 MLOAD PUSH3 0x461BCD PUSH1 0xE5 SHL DUP2 MSTORE PUSH1 0x20 PUSH1 0x4 DUP3 ADD MSTORE PUSH1 0x19 PUSH1 0x24 DUP3 ADD MSTORE PUSH32 0x5472616E7366657220746F2077696E6E6572206661696C656400000000000000 PUSH1 0x44 DUP3 ADD MSTORE PUSH1 0x64 SWAP1 REVERT JUMPDEST PUSH1 0x40 MLOAD PUSH3 0x461BCD PUSH1 0xE5 SHL DUP2 MSTORE PUSH1 0x20 PUSH1 0x4 DUP3 ADD MSTORE PUSH1 0x15 PUSH1 0x24 DUP3 ADD MSTORE PUSH21 0x4E6F206465706F7369747320666F72206379636C65 PUSH1 0x58 SHL PUSH1 0x44 DUP3 ADD MSTORE PUSH1 0x64 SWAP1 REVERT JUMPDEST DUP5 SLOAD DUP4 MSTORE PUSH1 0x1 SWAP5 DUP6 ADD SWAP5 DUP10 SWAP5 POP PUSH1 0x20 SWAP1 SWAP4 ADD SWAP3 ADD PUSH2 0x1919 JUMP JUMPDEST PUSH1 0x40 MLOAD PUSH3 0x461BCD PUSH1 0xE5 SHL DUP2 MSTORE PUSH1 0x20 PUSH1 0x4 DUP3 ADD MSTORE PUSH1 0x16 PUSH1 0x24 DUP3 ADD MSTORE PUSH22 0x496E76616C69642077696E6E65722061646472657373 PUSH1 0x50 SHL PUSH1 0x44 DUP3 ADD MSTORE PUSH1 0x64 SWAP1 REVERT JUMPDEST CALLVALUE PUSH2 0x29D JUMPI PUSH1 0x20 CALLDATASIZE PUSH1 0x3 NOT ADD SLT PUSH2 0x29D JUMPI PUSH1 0x4 CALLDATALOAD PUSH2 0x1C21 PUSH1 0x1 DUP1 PUSH1 0xA0 SHL SUB PUSH1 0x2 SLOAD PUSH1 0x8 SHR AND CALLER EQ PUSH2 0x2672 JUMP JUMPDEST DUP1 ISZERO ISZERO DUP1 PUSH2 0x1C72 JUMPI JUMPDEST PUSH2 0x1C33 SWAP1 PUSH2 0x27B7 JUMP JUMPDEST PUSH0 DUP2 DUP2 MSTORE PUSH1 0x4 PUSH1 0x20 MSTORE PUSH1 0x40 SWAP1 KECCAK256 PUSH1 0x3 ADD SLOAD PUSH2 0x1C58 SWAP1 PUSH1 0x1 PUSH1 0x1 PUSH1 0xA0 SHL SUB AND ISZERO ISZERO PUSH2 0x27F8 JUMP JUMPDEST PUSH0 SWAP1 DUP2 MSTORE PUSH1 0x4 PUSH1 0x20 MSTORE PUSH1 0x40 SWAP1 KECCAK256 PUSH1 0x6 ADD DUP1 SLOAD PUSH1 0xFF NOT AND SWAP1 SSTORE STOP JUMPDEST POP PUSH1 0x3 SLOAD DUP2 LT PUSH2 0x1C2A JUMP JUMPDEST CALLVALUE PUSH2 0x29D JUMPI PUSH1 0x20 CALLDATASIZE PUSH1 0x3 NOT ADD SLT PUSH2 0x29D JUMPI PUSH2 0x1C96 PUSH2 0x2446 JUMP JUMPDEST PUSH2 0x1C9E PUSH2 0x2BB9 JUMP JUMPDEST PUSH1 0x1 PUSH1 0x1 PUSH1 0xA0 SHL SUB DUP2 AND SWAP1 DUP2 ISZERO PUSH2 0x1D03 JUMPI PUSH1 0x2 DUP1 SLOAD PUSH2 0x100 PUSH1 0x1 PUSH1 0xA8 SHL SUB NOT DUP2 AND PUSH1 0x8 SWAP4 DUP5 SHL PUSH2 0x100 PUSH1 0x1 PUSH1 0xA8 SHL SUB AND OR SWAP1 SWAP2 SSTORE SWAP1 SHR PUSH1 0x1 PUSH1 0x1 PUSH1 0xA0 SHL SUB AND PUSH32 0xA018098887968F8B15B4CE9F509505D95541487EBD688811337617035460150E PUSH0 DUP1 LOG3 STOP JUMPDEST PUSH1 0x40 MLOAD PUSH3 0x461BCD PUSH1 0xE5 SHL DUP2 MSTORE PUSH1 0x20 PUSH1 0x4 DUP3 ADD MSTORE PUSH1 0x1E PUSH1 0x24 DUP3 ADD MSTORE PUSH32 0x496E76616C69642061756374696F6E20656E67696E6520616464726573730000 PUSH1 0x44 DUP3 ADD MSTORE PUSH1 0x64 SWAP1 REVERT JUMPDEST CALLVALUE PUSH2 0x29D JUMPI PUSH1 0x20 CALLDATASIZE PUSH1 0x3 NOT ADD SLT PUSH2 0x29D JUMPI PUSH1 0x1 PUSH1 0x1 PUSH1 0xA0 SHL SUB PUSH2 0x1D69 PUSH2 0x2446 JUMP JUMPDEST AND PUSH0 MSTORE PUSH1 0x6 PUSH1 0x20 MSTORE PUSH1 0x40 PUSH0 KECCAK256 PUSH1 0x40 MLOAD SWAP1 DUP2 PUSH1 0x20 DUP3 SLOAD SWAP2 DUP3 DUP2 MSTORE ADD SWAP2 PUSH0 MSTORE PUSH1 0x20 PUSH0 KECCAK256 SWAP1 PUSH0 JUMPDEST DUP2 DUP2 LT PUSH2 0x1DA4 JUMPI PUSH2 0x68E DUP6 PUSH2 0x682 DUP2 DUP8 SUB DUP3 PUSH2 0x2562 JUMP JUMPDEST DUP3 SLOAD DUP5 MSTORE PUSH1 0x20 SWAP1 SWAP4 ADD SWAP3 PUSH1 0x1 SWAP3 DUP4 ADD SWAP3 ADD PUSH2 0x1D8D JUMP JUMPDEST CALLVALUE PUSH2 0x29D JUMPI PUSH0 CALLDATASIZE PUSH1 0x3 NOT ADD SLT PUSH2 0x29D JUMPI PUSH1 0x2 SLOAD PUSH1 0x40 MLOAD PUSH1 0x8 SWAP2 SWAP1 SWAP2 SHR PUSH1 0x1 PUSH1 0x1 PUSH1 0xA0 SHL SUB AND DUP2 MSTORE PUSH1 0x20 SWAP1 RETURN JUMPDEST PUSH1 0x80 CALLDATASIZE PUSH1 0x3 NOT ADD SLT PUSH2 0x29D JUMPI PUSH1 0x24 CALLDATALOAD PUSH1 0x4 CALLDATALOAD PUSH1 0x44 CALLDATALOAD PUSH8 0xFFFFFFFFFFFFFFFF DUP2 GT PUSH2 0x29D JUMPI PUSH2 0x1E18 SWAP1 CALLDATASIZE SWAP1 PUSH1 0x4 ADD PUSH2 0x24C7 JUMP JUMPDEST SWAP3 SWAP1 SWAP2 PUSH1 0x64 CALLDATALOAD PUSH8 0xFFFFFFFFFFFFFFFF DUP2 GT PUSH2 0x29D JUMPI PUSH2 0x1E3B SWAP1 CALLDATASIZE SWAP1 PUSH1 0x4 ADD PUSH2 0x24C7 JUMP JUMPDEST PUSH2 0x1E53 PUSH1 0x1 DUP1 PUSH1 0xA0 SHL SUB PUSH1 0x2 SLOAD PUSH1 0x8 SHR AND CALLER EQ PUSH2 0x2672 JUMP JUMPDEST PUSH2 0x1E5B PUSH2 0x2B1F JUMP JUMPDEST PUSH2 0x1E63 PUSH2 0x2B63 JUMP JUMPDEST DUP1 DUP7 EQ DUP1 PUSH2 0x22A9 JUMPI JUMPDEST ISZERO PUSH2 0x226D JUMPI PUSH0 PUSH0 JUMPDEST DUP3 DUP2 LT PUSH2 0x2204 JUMPI POP CALLVALUE SUB PUSH2 0x21BF JUMPI PUSH0 DUP5 DUP2 MSTORE PUSH1 0x8 PUSH1 0x20 MSTORE PUSH1 0x40 DUP2 KECCAK256 PUSH32 0x0 PUSH1 0x1 PUSH1 0x1 PUSH1 0xA0 SHL SUB AND SWAP8 SWAP3 SWAP7 SWAP1 SWAP4 PUSH1 0x4 DUP6 ADD SWAP4 SWAP1 SWAP3 JUMPDEST DUP2 DUP2 LT PUSH2 0x1ED3 JUMPI PUSH1 0x1 DUP1 SSTORE STOP JUMPDEST PUSH2 0x1EE1 PUSH2 0x9D8 DUP3 DUP5 DUP7 PUSH2 0x26BE JUMP JUMPDEST SWAP1 PUSH2 0x1EED DUP2 DUP12 DUP8 PUSH2 0x26BE JUMP JUMPDEST PUSH1 0x1 PUSH1 0x1 PUSH1 0xA0 SHL SUB DUP4 AND SWAP3 SWAP1 CALLDATALOAD SWAP1 PUSH2 0x1F06 DUP5 ISZERO ISZERO PUSH2 0x26EF JUMP JUMPDEST DUP13 EXTCODESIZE ISZERO PUSH2 0x29D JUMPI PUSH1 0x40 MLOAD PUSH4 0xC5B4F407 PUSH1 0xE0 SHL DUP2 MSTORE PUSH1 0x1 PUSH1 0x1 PUSH1 0xA0 SHL SUB DUP3 AND PUSH1 0x4 DUP3 ADD MSTORE PUSH1 0x24 DUP2 ADD DUP12 SWAP1 MSTORE PUSH0 DUP2 DUP16 DUP2 DUP7 DUP2 PUSH1 0x44 DUP2 ADD SUB SWAP3 GAS CALL SWAP1 DUP2 ISZERO PUSH2 0x581 JUMPI DUP15 PUSH1 0x20 SWAP2 PUSH1 0x24 SWAP4 PUSH2 0x21AF JUMPI JUMPDEST POP PUSH1 0x40 MLOAD SWAP3 DUP4 DUP1 SWAP3 PUSH4 0x1B545A17 PUSH1 0xE0 SHL DUP3 MSTORE DUP10 PUSH1 0x4 DUP4 ADD MSTORE GAS STATICCALL SWAP1 DUP2 ISZERO PUSH2 0x581 JUMPI PUSH0 SWAP2 PUSH2 0x217E JUMPI JUMPDEST POP DUP12 DUP12 DUP12 DUP12 DUP5 ISZERO PUSH2 0x2159 JUMPI POP POP POP POP PUSH0 NOT DUP2 ADD SWAP1 DUP2 GT PUSH2 0x41A JUMPI PUSH0 MLOAD PUSH1 0x20 PUSH2 0x2BE0 PUSH0 CODECOPY PUSH0 MLOAD SWAP1 PUSH0 MSTORE DUP13 SWAP4 DUP13 SWAP4 PUSH2 0x212E PUSH1 0x1 SWAP9 DUP15 DUP15 PUSH1 0x6 SWAP8 SWAP3 JUMPDEST DUP10 DUP12 PUSH2 0x207B PUSH1 0x3 SLOAD SWAP12 DUP13 SWAP3 PUSH2 0x1FC6 DUP5 PUSH2 0x2734 JUMP JUMPDEST PUSH1 0x3 SSTORE PUSH1 0x40 MLOAD SWAP1 PUSH2 0x1FD6 DUP3 PUSH2 0x2531 JUMP JUMPDEST DUP13 DUP3 MSTORE PUSH1 0x20 DUP3 ADD SWAP6 DUP7 MSTORE PUSH1 0x40 DUP3 ADD SWAP1 DUP2 MSTORE PUSH1 0x60 DUP3 ADD DUP8 DUP2 MSTORE PUSH1 0x80 DUP4 ADD SWAP1 TIMESTAMP DUP3 MSTORE PUSH1 0xA0 DUP5 ADD SWAP3 DUP13 DUP5 MSTORE PUSH1 0xC0 DUP6 ADD SWAP9 PUSH1 0x1 DUP11 MSTORE PUSH1 0xE0 DUP7 ADD SWAP9 PUSH1 0x1 DUP11 MSTORE PUSH0 MSTORE PUSH1 0x4 PUSH1 0x20 MSTORE PUSH1 0x40 PUSH0 KECCAK256 SWAP6 MLOAD DUP7 SSTORE MLOAD PUSH1 0x1 DUP7 ADD SSTORE MLOAD PUSH1 0x2 DUP6 ADD SSTORE PUSH1 0x1 DUP1 PUSH1 0xA0 SHL SUB SWAP1 MLOAD AND PUSH1 0x3 DUP5 ADD SWAP1 PUSH1 0x1 DUP1 PUSH1 0xA0 SHL SUB AND PUSH12 0xFFFFFFFFFFFFFFFFFFFFFFFF PUSH1 0xA0 SHL DUP3 SLOAD AND OR SWAP1 SSTORE MLOAD PUSH1 0x4 DUP4 ADD SSTORE MLOAD PUSH1 0x5 DUP3 ADD SSTORE ADD SWAP3 MLOAD ISZERO ISZERO DUP4 SWAP1 PUSH1 0xFF DUP1 NOT DUP4 SLOAD AND SWAP2 ISZERO ISZERO AND OR SWAP1 SSTORE JUMP JUMPDEST MLOAD ISZERO ISZERO PUSH2 0xFF00 DUP3 SLOAD SWAP2 PUSH1 0x8 SHL AND SWAP1 PUSH2 0xFF00 NOT AND OR SWAP1 SSTORE DUP11 PUSH0 MSTORE PUSH1 0x5 PUSH1 0x20 MSTORE PUSH2 0x20A6 DUP10 PUSH1 0x40 PUSH0 KECCAK256 PUSH2 0x2742 JUMP JUMPDEST DUP1 PUSH0 MSTORE PUSH1 0x6 PUSH1 0x20 MSTORE PUSH2 0x20BB DUP10 PUSH1 0x40 PUSH0 KECCAK256 PUSH2 0x2742 JUMP JUMPDEST DUP10 PUSH0 MSTORE PUSH1 0x7 PUSH1 0x20 MSTORE PUSH1 0x40 PUSH0 KECCAK256 PUSH2 0x20D2 DUP9 DUP3 SLOAD PUSH2 0x26CE JUMP JUMPDEST SWAP1 SSTORE DUP1 PUSH0 MSTORE DUP2 PUSH1 0x20 MSTORE PUSH1 0x40 PUSH0 KECCAK256 SLOAD ISZERO PUSH2 0x2137 JUMPI JUMPDEST PUSH0 MSTORE PUSH1 0x20 MSTORE PUSH1 0x40 PUSH0 KECCAK256 PUSH2 0x20FA DUP7 DUP3 SLOAD PUSH2 0x26CE JUMP JUMPDEST SWAP1 SSTORE PUSH2 0x2107 DUP6 DUP3 SLOAD PUSH2 0x26CE JUMP JUMPDEST SWAP1 SSTORE PUSH1 0x40 MLOAD SWAP4 DUP5 SWAP4 DUP5 PUSH1 0x40 SWAP2 SWAP5 SWAP4 SWAP3 PUSH1 0x60 DUP3 ADD SWAP6 PUSH1 0x1 DUP1 PUSH1 0xA0 SHL SUB AND DUP3 MSTORE PUSH1 0x20 DUP3 ADD MSTORE ADD MSTORE JUMP JUMPDEST SUB SWAP1 LOG4 ADD PUSH2 0x1EC6 JUMP JUMPDEST PUSH2 0x2144 DUP7 PUSH1 0x5 DUP6 ADD PUSH2 0x2776 JUMP JUMPDEST PUSH1 0x2 DUP4 ADD PUSH2 0x2152 DUP2 SLOAD PUSH2 0x2734 JUMP JUMPDEST SWAP1 SSTORE PUSH2 0x20E6 JUMP JUMPDEST PUSH1 0x6 SWAP5 POP PUSH1 0x1 SWAP9 PUSH0 MLOAD PUSH1 0x20 PUSH2 0x2BE0 PUSH0 CODECOPY PUSH0 MLOAD SWAP1 PUSH0 MSTORE SWAP5 SWAP8 SWAP4 SWAP7 SWAP3 PUSH2 0x212E SWAP3 PUSH0 SWAP3 PUSH2 0x1FB2 JUMP JUMPDEST SWAP1 POP PUSH1 0x20 DUP2 RETURNDATASIZE DUP3 GT PUSH2 0x21A7 JUMPI JUMPDEST DUP2 PUSH2 0x2198 PUSH1 0x20 SWAP4 DUP4 PUSH2 0x2562 JUMP JUMPDEST DUP2 ADD SUB SLT PUSH2 0x29D JUMPI MLOAD DUP15 PUSH2 0x1F79 JUMP JUMPDEST RETURNDATASIZE SWAP2 POP PUSH2 0x218B JUMP JUMPDEST PUSH0 PUSH2 0x21B9 SWAP2 PUSH2 0x2562 JUMP JUMPDEST PUSH0 PUSH2 0x1F51 JUMP JUMPDEST PUSH1 0x40 MLOAD PUSH3 0x461BCD PUSH1 0xE5 SHL DUP2 MSTORE PUSH1 0x20 PUSH1 0x4 DUP3 ADD MSTORE PUSH1 0x17 PUSH1 0x24 DUP3 ADD MSTORE PUSH32 0x496E636F727265637420746F74616C207061796D656E74000000000000000000 PUSH1 0x44 DUP3 ADD MSTORE PUSH1 0x64 SWAP1 REVERT JUMPDEST SWAP1 PUSH7 0x38D7EA4C68000 PUSH2 0x2218 DUP4 DUP6 DUP8 PUSH2 0x26BE JUMP JUMPDEST CALLDATALOAD LT PUSH2 0x2236 JUMPI PUSH2 0x222F PUSH1 0x1 SWAP2 PUSH2 0xA84 DUP5 DUP7 DUP9 PUSH2 0x26BE JUMP JUMPDEST SWAP2 ADD PUSH2 0x1E74 JUMP JUMPDEST PUSH1 0x40 MLOAD PUSH3 0x461BCD PUSH1 0xE5 SHL DUP2 MSTORE PUSH1 0x20 PUSH1 0x4 DUP3 ADD MSTORE PUSH1 0xF PUSH1 0x24 DUP3 ADD MSTORE PUSH15 0x4465706F73697420746F6F206C6F77 PUSH1 0x88 SHL PUSH1 0x44 DUP3 ADD MSTORE PUSH1 0x64 SWAP1 REVERT JUMPDEST PUSH1 0x40 MLOAD PUSH3 0x461BCD PUSH1 0xE5 SHL DUP2 MSTORE PUSH1 0x20 PUSH1 0x4 DUP3 ADD MSTORE PUSH1 0x14 PUSH1 0x24 DUP3 ADD MSTORE PUSH20 0x496E76616C696420696E70757420617272617973 PUSH1 0x60 SHL PUSH1 0x44 DUP3 ADD MSTORE PUSH1 0x64 SWAP1 REVERT JUMPDEST POP DUP6 ISZERO ISZERO PUSH2 0x1E6C JUMP JUMPDEST CALLVALUE PUSH2 0x29D JUMPI PUSH1 0x20 CALLDATASIZE PUSH1 0x3 NOT ADD SLT PUSH2 0x29D JUMPI PUSH1 0x4 CALLDATALOAD PUSH0 MSTORE PUSH1 0x8 PUSH1 0x20 MSTORE PUSH1 0x40 PUSH0 KECCAK256 DUP1 SLOAD SWAP1 PUSH1 0x1 DUP2 ADD SLOAD SWAP1 PUSH1 0x2 DUP2 ADD SLOAD SWAP3 PUSH1 0x5 PUSH1 0xFF PUSH1 0x3 DUP5 ADD SLOAD AND SWAP3 ADD SWAP2 PUSH1 0x40 MLOAD SWAP1 DUP2 PUSH1 0x20 DUP6 SLOAD SWAP2 DUP3 DUP2 MSTORE ADD SWAP1 DUP2 SWAP6 PUSH0 MSTORE PUSH1 0x20 PUSH0 KECCAK256 SWAP1 PUSH0 JUMPDEST DUP2 DUP2 LT PUSH2 0x237E JUMPI POP POP POP DUP3 PUSH2 0x231D SWAP2 SUB DUP4 PUSH2 0x2562 JUMP JUMPDEST PUSH1 0x40 MLOAD SWAP6 DUP7 SWAP6 PUSH1 0xA0 DUP8 ADD SWAP5 DUP8 MSTORE PUSH1 0x20 DUP8 ADD MSTORE PUSH1 0x40 DUP7 ADD MSTORE ISZERO ISZERO PUSH1 0x60 DUP6 ADD MSTORE PUSH1 0xA0 PUSH1 0x80 DUP6 ADD MSTORE MLOAD DUP1 SWAP2 MSTORE PUSH1 0xC0 DUP4 ADD SWAP2 SWAP1 PUSH0 JUMPDEST DUP2 DUP2 LT PUSH2 0x235C JUMPI POP POP POP SUB SWAP1 RETURN JUMPDEST DUP3 MLOAD PUSH1 0x1 PUSH1 0x1 PUSH1 0xA0 SHL SUB AND DUP5 MSTORE DUP6 SWAP5 POP PUSH1 0x20 SWAP4 DUP5 ADD SWAP4 SWAP1 SWAP3 ADD SWAP2 PUSH1 0x1 ADD PUSH2 0x234E JUMP JUMPDEST DUP3 SLOAD PUSH1 0x1 PUSH1 0x1 PUSH1 0xA0 SHL SUB AND DUP5 MSTORE PUSH1 0x20 SWAP1 SWAP4 ADD SWAP3 PUSH1 0x1 SWAP3 DUP4 ADD SWAP3 ADD PUSH2 0x2307 JUMP JUMPDEST CALLVALUE PUSH2 0x29D JUMPI PUSH1 0x20 PUSH2 0x3A4 PUSH2 0x23B0 CALLDATASIZE PUSH2 0x24B1 JUMP JUMPDEST SWAP1 PUSH2 0x25B3 JUMP JUMPDEST CALLVALUE PUSH2 0x29D JUMPI PUSH1 0x40 CALLDATASIZE PUSH1 0x3 NOT ADD SLT PUSH2 0x29D JUMPI PUSH2 0x23CF PUSH2 0x245C JUMP JUMPDEST PUSH1 0x4 CALLDATALOAD PUSH0 MSTORE PUSH1 0x8 PUSH1 0x20 MSTORE PUSH1 0x4 PUSH1 0x40 PUSH0 KECCAK256 ADD SWAP1 PUSH1 0x1 DUP1 PUSH1 0xA0 SHL SUB AND PUSH0 MSTORE PUSH1 0x20 MSTORE PUSH1 0x20 PUSH1 0x40 PUSH0 KECCAK256 SLOAD PUSH1 0x40 MLOAD SWAP1 DUP2 MSTORE RETURN JUMPDEST CALLVALUE PUSH2 0x29D JUMPI PUSH1 0x40 CALLDATASIZE PUSH1 0x3 NOT ADD SLT PUSH2 0x29D JUMPI PUSH2 0x2416 PUSH2 0x2446 JUMP JUMPDEST PUSH1 0x1 PUSH1 0x1 PUSH1 0xA0 SHL SUB AND PUSH0 SWAP1 DUP2 MSTORE PUSH1 0x6 PUSH1 0x20 MSTORE PUSH1 0x40 SWAP1 KECCAK256 DUP1 SLOAD PUSH1 0x24 CALLDATALOAD SWAP2 SWAP1 DUP3 LT ISZERO PUSH2 0x29D JUMPI PUSH1 0x20 SWAP2 PUSH2 0x814 SWAP2 PUSH2 0x2488 JUMP JUMPDEST PUSH1 0x4 CALLDATALOAD SWAP1 PUSH1 0x1 PUSH1 0x1 PUSH1 0xA0 SHL SUB DUP3 AND DUP3 SUB PUSH2 0x29D JUMPI JUMP JUMPDEST PUSH1 0x24 CALLDATALOAD SWAP1 PUSH1 0x1 PUSH1 0x1 PUSH1 0xA0 SHL SUB DUP3 AND DUP3 SUB PUSH2 0x29D JUMPI JUMP JUMPDEST PUSH1 0x44 CALLDATALOAD SWAP1 PUSH1 0x1 PUSH1 0x1 PUSH1 0xA0 SHL SUB DUP3 AND DUP3 SUB PUSH2 0x29D JUMPI JUMP JUMPDEST DUP1 SLOAD DUP3 LT ISZERO PUSH2 0x249D JUMPI PUSH0 MSTORE PUSH1 0x20 PUSH0 KECCAK256 ADD SWAP1 PUSH0 SWAP1 JUMP JUMPDEST PUSH4 0x4E487B71 PUSH1 0xE0 SHL PUSH0 MSTORE PUSH1 0x32 PUSH1 0x4 MSTORE PUSH1 0x24 PUSH0 REVERT JUMPDEST PUSH1 0x40 SWAP1 PUSH1 0x3 NOT ADD SLT PUSH2 0x29D JUMPI PUSH1 0x4 CALLDATALOAD SWAP1 PUSH1 0x24 CALLDATALOAD SWAP1 JUMP JUMPDEST SWAP2 DUP2 PUSH1 0x1F DUP5 ADD SLT ISZERO PUSH2 0x29D JUMPI DUP3 CALLDATALOAD SWAP2 PUSH8 0xFFFFFFFFFFFFFFFF DUP4 GT PUSH2 0x29D JUMPI PUSH1 0x20 DUP1 DUP6 ADD SWAP5 DUP5 PUSH1 0x5 SHL ADD ADD GT PUSH2 0x29D JUMPI JUMP JUMPDEST PUSH1 0x20 PUSH1 0x40 DUP2 DUP4 ADD SWAP3 DUP3 DUP2 MSTORE DUP5 MLOAD DUP1 SWAP5 MSTORE ADD SWAP3 ADD SWAP1 PUSH0 JUMPDEST DUP2 DUP2 LT PUSH2 0x251B JUMPI POP POP POP SWAP1 JUMP JUMPDEST DUP3 MLOAD DUP5 MSTORE PUSH1 0x20 SWAP4 DUP5 ADD SWAP4 SWAP1 SWAP3 ADD SWAP2 PUSH1 0x1 ADD PUSH2 0x250E JUMP JUMPDEST PUSH2 0x100 DUP2 ADD SWAP1 DUP2 LT PUSH8 0xFFFFFFFFFFFFFFFF DUP3 GT OR PUSH2 0x254E JUMPI PUSH1 0x40 MSTORE JUMP JUMPDEST PUSH4 0x4E487B71 PUSH1 0xE0 SHL PUSH0 MSTORE PUSH1 0x41 PUSH1 0x4 MSTORE PUSH1 0x24 PUSH0 REVERT JUMPDEST SWAP1 PUSH1 0x1F DUP1 NOT SWAP2 ADD AND DUP2 ADD SWAP1 DUP2 LT PUSH8 0xFFFFFFFFFFFFFFFF DUP3 GT OR PUSH2 0x254E JUMPI PUSH1 0x40 MSTORE JUMP JUMPDEST PUSH8 0xFFFFFFFFFFFFFFFF DUP2 GT PUSH2 0x254E JUMPI PUSH1 0x1F ADD PUSH1 0x1F NOT AND PUSH1 0x20 ADD SWAP1 JUMP JUMPDEST DUP2 DUP2 MUL SWAP3 SWAP2 DUP2 ISZERO SWAP2 DUP5 DIV EQ OR ISZERO PUSH2 0x41A JUMPI JUMP JUMPDEST PUSH0 MSTORE PUSH1 0x8 PUSH1 0x20 MSTORE PUSH1 0x40 PUSH0 KECCAK256 SLOAD DUP1 ISZERO PUSH2 0x266C JUMPI PUSH1 0x40 MLOAD PUSH4 0x4B16524B PUSH1 0xE1 SHL DUP2 MSTORE SWAP1 PUSH1 0x20 DUP3 PUSH1 0x4 DUP2 PUSH32 0x0 PUSH1 0x1 PUSH1 0x1 PUSH1 0xA0 SHL SUB AND GAS STATICCALL SWAP2 DUP3 ISZERO PUSH2 0x581 JUMPI PUSH0 SWAP3 PUSH2 0x2634 JUMPI JUMPDEST POP SWAP2 PUSH2 0x2710 PUSH2 0x262A PUSH2 0x2630 SWAP4 PUSH4 0x1E13380 SWAP6 PUSH2 0x25A0 JUMP JUMPDEST DIV PUSH2 0x25A0 JUMP JUMPDEST DIV SWAP1 JUMP JUMPDEST SWAP2 POP SWAP2 PUSH1 0x20 DUP3 RETURNDATASIZE PUSH1 0x20 GT PUSH2 0x2664 JUMPI JUMPDEST DUP2 PUSH2 0x2650 PUSH1 0x20 SWAP4 DUP4 PUSH2 0x2562 JUMP JUMPDEST DUP2 ADD SUB SLT PUSH2 0x29D JUMPI SWAP1 MLOAD SWAP1 SWAP2 PUSH2 0x2710 PUSH2 0x2613 JUMP JUMPDEST RETURNDATASIZE SWAP2 POP PUSH2 0x2643 JUMP JUMPDEST POP POP PUSH0 SWAP1 JUMP JUMPDEST ISZERO PUSH2 0x2679 JUMPI JUMP JUMPDEST PUSH1 0x40 MLOAD PUSH3 0x461BCD PUSH1 0xE5 SHL DUP2 MSTORE PUSH1 0x20 PUSH1 0x4 DUP3 ADD MSTORE PUSH1 0x1A PUSH1 0x24 DUP3 ADD MSTORE PUSH32 0x4F6E6C792041756374696F6E456E67696E6520616C6C6F776564000000000000 PUSH1 0x44 DUP3 ADD MSTORE PUSH1 0x64 SWAP1 REVERT JUMPDEST SWAP2 SWAP1 DUP2 LT ISZERO PUSH2 0x249D JUMPI PUSH1 0x5 SHL ADD SWAP1 JUMP JUMPDEST SWAP2 SWAP1 DUP3 ADD DUP1 SWAP3 GT PUSH2 0x41A JUMPI JUMP JUMPDEST CALLDATALOAD PUSH1 0x1 PUSH1 0x1 PUSH1 0xA0 SHL SUB DUP2 AND DUP2 SUB PUSH2 0x29D JUMPI SWAP1 JUMP JUMPDEST ISZERO PUSH2 0x26F6 JUMPI JUMP JUMPDEST PUSH1 0x40 MLOAD PUSH3 0x461BCD PUSH1 0xE5 SHL DUP2 MSTORE PUSH1 0x20 PUSH1 0x4 DUP3 ADD MSTORE PUSH1 0x16 PUSH1 0x24 DUP3 ADD MSTORE PUSH22 0x496E76616C6964206D656D6265722061646472657373 PUSH1 0x50 SHL PUSH1 0x44 DUP3 ADD MSTORE PUSH1 0x64 SWAP1 REVERT JUMPDEST PUSH0 NOT DUP2 EQ PUSH2 0x41A JUMPI PUSH1 0x1 ADD SWAP1 JUMP JUMPDEST DUP1 SLOAD PUSH1 0x1 PUSH1 0x40 SHL DUP2 LT ISZERO PUSH2 0x254E JUMPI PUSH2 0x275F SWAP2 PUSH1 0x1 DUP3 ADD DUP2 SSTORE PUSH2 0x2488 JUMP JUMPDEST DUP2 SWAP3 SWAP2 SLOAD SWAP1 PUSH1 0x3 SHL SWAP2 DUP3 SHL SWAP2 PUSH0 NOT SWAP1 SHL NOT AND OR SWAP1 SSTORE JUMP JUMPDEST DUP1 SLOAD PUSH1 0x1 PUSH1 0x40 SHL DUP2 LT ISZERO PUSH2 0x254E JUMPI PUSH2 0x2793 SWAP2 PUSH1 0x1 DUP3 ADD DUP2 SSTORE PUSH2 0x2488 JUMP JUMPDEST DUP2 SLOAD PUSH1 0x1 PUSH1 0x1 PUSH1 0xA0 SHL SUB SWAP4 DUP5 AND PUSH1 0x3 SWAP3 SWAP1 SWAP3 SHL SWAP2 DUP3 SHL SWAP4 SWAP1 SWAP2 SHL NOT AND SWAP2 SWAP1 SWAP2 OR SWAP1 SSTORE JUMP JUMPDEST ISZERO PUSH2 0x27BE JUMPI JUMP JUMPDEST PUSH1 0x40 MLOAD PUSH3 0x461BCD PUSH1 0xE5 SHL DUP2 MSTORE PUSH1 0x20 PUSH1 0x4 DUP3 ADD MSTORE PUSH1 0x12 PUSH1 0x24 DUP3 ADD MSTORE PUSH18 0x125B9D985B1A590819195C1BDCDA5D081251 PUSH1 0x72 SHL PUSH1 0x44 DUP3 ADD MSTORE PUSH1 0x64 SWAP1 REVERT JUMPDEST ISZERO PUSH2 0x27FF JUMPI JUMP JUMPDEST PUSH1 0x40 MLOAD PUSH3 0x461BCD PUSH1 0xE5 SHL DUP2 MSTORE PUSH1 0x20 PUSH1 0x4 DUP3 ADD MSTORE PUSH1 0x16 PUSH1 0x24 DUP3 ADD MSTORE PUSH22 0x11195C1BDCDA5D08191BD95CC81B9BDD08195E1A5CDD PUSH1 0x52 SHL PUSH1 0x44 DUP3 ADD MSTORE PUSH1 0x64 SWAP1 REVERT JUMPDEST ISZERO PUSH2 0x2844 JUMPI JUMP JUMPDEST PUSH1 0x40 MLOAD PUSH3 0x461BCD PUSH1 0xE5 SHL DUP2 MSTORE PUSH1 0x20 PUSH1 0x4 DUP3 ADD MSTORE PUSH1 0x12 PUSH1 0x24 DUP3 ADD MSTORE PUSH18 0x416D6F756E74206D757374206265203E203 PUSH1 0x74 SHL PUSH1 0x44 DUP3 ADD MSTORE PUSH1 0x64 SWAP1 REVERT JUMPDEST ISZERO PUSH2 0x2885 JUMPI JUMP JUMPDEST PUSH1 0x40 MLOAD PUSH3 0x461BCD PUSH1 0xE5 SHL DUP2 MSTORE PUSH1 0x20 PUSH1 0x4 DUP3 ADD MSTORE PUSH1 0x10 PUSH1 0x24 DUP3 ADD MSTORE PUSH16 0x125B9D985B1A590818DE58DB19481251 PUSH1 0x82 SHL PUSH1 0x44 DUP3 ADD MSTORE PUSH1 0x64 SWAP1 REVERT JUMPDEST DUP1 MLOAD DUP3 LT ISZERO PUSH2 0x249D JUMPI PUSH1 0x20 SWAP2 PUSH1 0x5 SHL ADD ADD SWAP1 JUMP JUMPDEST RETURNDATASIZE ISZERO PUSH2 0x28FB JUMPI RETURNDATASIZE SWAP1 PUSH2 0x28E2 DUP3 PUSH2 0x2584 JUMP JUMPDEST SWAP2 PUSH2 0x28F0 PUSH1 0x40 MLOAD SWAP4 DUP5 PUSH2 0x2562 JUMP JUMPDEST DUP3 MSTORE RETURNDATASIZE PUSH0 PUSH1 0x20 DUP5 ADD RETURNDATACOPY JUMP JUMPDEST PUSH1 0x60 SWAP1 JUMP JUMPDEST ISZERO PUSH2 0x2907 JUMPI JUMP JUMPDEST PUSH1 0x40 MLOAD PUSH3 0x461BCD PUSH1 0xE5 SHL DUP2 MSTORE PUSH1 0x20 PUSH1 0x4 DUP3 ADD MSTORE PUSH1 0x11 PUSH1 0x24 DUP3 ADD MSTORE PUSH17 0x125B9D985B1A59081C9958DA5C1A595B9D PUSH1 0x7A SHL PUSH1 0x44 DUP3 ADD MSTORE PUSH1 0x64 SWAP1 REVERT JUMPDEST ISZERO PUSH2 0x2947 JUMPI JUMP JUMPDEST PUSH1 0x40 MLOAD PUSH3 0x461BCD PUSH1 0xE5 SHL DUP2 MSTORE PUSH1 0x20 PUSH1 0x4 DUP3 ADD MSTORE PUSH1 0xE PUSH1 0x24 DUP3 ADD MSTORE PUSH14 0x125B9D985B1A5908185B5BDD5B9D PUSH1 0x92 SHL PUSH1 0x44 DUP3 ADD MSTORE PUSH1 0x64 SWAP1 REVERT JUMPDEST ISZERO PUSH2 0x2984 JUMPI JUMP JUMPDEST PUSH1 0x40 MLOAD PUSH3 0x461BCD PUSH1 0xE5 SHL DUP2 MSTORE PUSH1 0x20 PUSH1 0x4 DUP3 ADD MSTORE PUSH1 0x14 PUSH1 0x24 DUP3 ADD MSTORE PUSH20 0x496E73756666696369656E742062616C616E6365 PUSH1 0x60 SHL PUSH1 0x44 DUP3 ADD MSTORE PUSH1 0x64 SWAP1 REVERT JUMPDEST ISZERO PUSH2 0x29C7 JUMPI JUMP JUMPDEST PUSH1 0x40 MLOAD PUSH3 0x461BCD PUSH1 0xE5 SHL DUP2 MSTORE PUSH1 0x20 PUSH1 0x4 DUP3 ADD MSTORE PUSH1 0xF PUSH1 0x24 DUP3 ADD MSTORE PUSH15 0x151C985B9CD9995C8819985A5B1959 PUSH1 0x8A SHL PUSH1 0x44 DUP3 ADD MSTORE PUSH1 0x64 SWAP1 REVERT JUMPDEST PUSH0 MSTORE PUSH1 0x4 PUSH1 0x20 MSTORE PUSH1 0x40 PUSH0 KECCAK256 PUSH1 0x40 MLOAD PUSH2 0x2A15 DUP2 PUSH2 0x2531 JUMP JUMPDEST DUP2 SLOAD DUP2 MSTORE PUSH1 0x1 DUP3 ADD SLOAD PUSH1 0x20 DUP3 ADD MSTORE PUSH1 0x2 DUP3 ADD SLOAD PUSH1 0x40 DUP3 ADD MSTORE PUSH1 0xE0 PUSH1 0x1 DUP1 PUSH1 0xA0 SHL SUB PUSH1 0x3 DUP5 ADD SLOAD AND SWAP2 DUP3 PUSH1 0x60 DUP3 ADD MSTORE PUSH1 0x4 DUP5 ADD SLOAD PUSH1 0x80 DUP3 ADD MSTORE PUSH1 0x6 PUSH1 0x5 DUP6 ADD SLOAD SWAP5 DUP6 PUSH1 0xA0 DUP5 ADD MSTORE ADD SLOAD SWAP1 PUSH1 0xFF DUP1 DUP4 AND ISZERO SWAP3 DUP4 ISZERO PUSH1 0xC0 DUP5 ADD MSTORE PUSH1 0x8 SHR AND ISZERO SWAP1 DUP2 ISZERO SWAP4 DUP5 SWAP2 ADD MSTORE SWAP2 PUSH2 0x2B17 JUMPI JUMPDEST POP PUSH2 0x266C JUMPI PUSH1 0x40 MLOAD PUSH4 0x5A45D5D PUSH1 0xE1 SHL DUP2 MSTORE PUSH1 0x1 PUSH1 0x1 PUSH1 0xA0 SHL SUB SWAP2 DUP3 AND PUSH1 0x4 DUP3 ADD MSTORE PUSH1 0x24 DUP2 ADD SWAP3 SWAP1 SWAP3 MSTORE PUSH1 0x20 SWAP1 DUP3 SWAP1 PUSH1 0x44 SWAP1 DUP3 SWAP1 PUSH32 0x0 AND GAS STATICCALL SWAP1 DUP2 ISZERO PUSH2 0x581 JUMPI PUSH0 SWAP2 PUSH2 0x2AE8 JUMPI POP SWAP1 JUMP JUMPDEST SWAP1 POP PUSH1 0x20 DUP2 RETURNDATASIZE PUSH1 0x20 GT PUSH2 0x2B0F JUMPI JUMPDEST DUP2 PUSH2 0x2B03 PUSH1 0x20 SWAP4 DUP4 PUSH2 0x2562 JUMP JUMPDEST DUP2 ADD SUB SLT PUSH2 0x29D JUMPI MLOAD SWAP1 JUMP JUMPDEST RETURNDATASIZE SWAP2 POP PUSH2 0x2AF6 JUMP JUMPDEST SWAP1 POP PUSH0 PUSH2 0x2A7F JUMP JUMPDEST PUSH1 0xFF PUSH1 0x2 SLOAD AND PUSH2 0x2B2B JUMPI JUMP JUMPDEST PUSH1 0x40 MLOAD PUSH3 0x461BCD PUSH1 0xE5 SHL DUP2 MSTORE PUSH1 0x20 PUSH1 0x4 DUP3 ADD MSTORE PUSH1 0x10 PUSH1 0x24 DUP3 ADD MSTORE PUSH16 0x14185D5CD8589B194E881C185D5CD959 PUSH1 0x82 SHL PUSH1 0x44 DUP3 ADD MSTORE PUSH1 0x64 SWAP1 REVERT JUMPDEST PUSH1 0x2 PUSH1 0x1 SLOAD EQ PUSH2 0x2B74 JUMPI PUSH1 0x2 PUSH1 0x1 SSTORE JUMP JUMPDEST PUSH1 0x40 MLOAD PUSH3 0x461BCD PUSH1 0xE5 SHL DUP2 MSTORE PUSH1 0x20 PUSH1 0x4 DUP3 ADD MSTORE PUSH1 0x1F PUSH1 0x24 DUP3 ADD MSTORE PUSH32 0x5265656E7472616E637947756172643A207265656E7472616E742063616C6C00 PUSH1 0x44 DUP3 ADD MSTORE PUSH1 0x64 SWAP1 REVERT JUMPDEST PUSH0 SLOAD PUSH1 0x1 PUSH1 0x1 PUSH1 0xA0 SHL SUB AND CALLER SUB PUSH2 0x2BCC JUMPI JUMP JUMPDEST PUSH4 0x118CDAA7 PUSH1 0xE0 SHL PUSH0 MSTORE CALLER PUSH1 0x4 MSTORE PUSH1 0x24 PUSH0 REVERT INVALID 0x29 CHAINID DATALOADN 0x3664 SLT PC PUSH9 0x7ABB0F73D0FE67FBE4 0x4E 0xC9 CALLCODE 0x4C MUL 0x26 JUMPDEST 0x2F PUSH10 0x6342D332433FA2646970 PUSH7 0x735822122032AE LOG0 SHR CODESIZE OR BALANCE SWAP9 PUSH28 0x4B6BCADF4CECA4E4938F9A5090751B0D5C23FC25B185E564736F6C63 NUMBER STOP ADDMOD 0x1E STOP CALLER "
		},
		"gasEstimates": {
			"creation": {
				"codeDepositCost": "2263400",
				"executionCost": "infinite",
				"totalCost": "infinite"
			},
			"external": {
				"": "1219",
				"MAX_CYCLE_DURATION()": "761",
				"MIN_DEPOSIT()": "1003",
				"auctionEngine()": "2391",
				"batchDeposit(uint256,uint256,address[],uint256[])": "infinite",
				"collectPlatformFees(address,uint256)": "infinite",
				"completeCycle(uint256)": "infinite",
				"cycleDeposits(uint256,uint256)": "7411",
				"deactivateDeposit(uint256)": "31220",
				"deposit(uint256,uint256,address)": "infinite",
				"depositCounter()": "3172",
				"deposits(uint256)": "15864",
				"distributeYieldToContributors(uint256,address[],uint256[])": "infinite",
				"emergencyPause()": "30012",
				"emergencyUnpause()": "27819",
				"emergencyWithdraw(uint256,address,string)": "infinite",
				"estimateCycleYield(uint256,uint256)": "infinite",
				"getCurrentDepositId()": "3188",
				"getCurrentYieldRate()": "infinite",
				"getCycleMemberDeposit(uint256,address)": "2493",
				"getCycleSummary(uint256)": "infinite",
				"getDepositInfo(uint256)": "infinite",
				"getDepositYield(uint256)": "infinite",
				"getDepositsForCycle(uint256)": "infinite",
				"getDepositsForUser(address)": "infinite",
				"getEscrowBalance()": "986",
				"getPotBalance(uint256)": "2841",
				"getPotTotalYield(uint256)": "2599",
				"getTotalStakedInYieldManager()": "infinite",
				"getUserTotalYieldEarned(address)": "3429",
				"getYieldManagerAddress()": "infinite",
				"isDepositActive(uint256)": "7556",
				"owner()": "2843",
				"paused()": "2678",
				"platformFeeRate()": "3194",
				"potBalances(uint256)": "3193",
				"potYieldAccrued(uint256)": "3303",
				"releaseFundsToWinner(uint256,address,uint256)": "infinite",
				"renounceOwnership()": "28504",
				"setAuctionEngine(address)": "28377",
				"transferOwnership(address)": "29174",
				"unstakeFundsForUser(address,uint256,address)": "infinite",
				"updatePlatformFeeRate(uint256)": "28513",
				"updateYieldDistributionRate(uint256)": "28628",
				"userDeposits(address,uint256)": "6769",
				"userYieldEarned(address)": "2838",
				"withdrawFunds(uint256,address)": "infinite",
				"yieldDistributionRate()": "2556",
				"yieldManager()": "infinite"
			}
		},
		"methodIdentifiers": {
			"MAX_CYCLE_DURATION()": "90886389",
			"MIN_DEPOSIT()": "e1e158a5",
			"auctionEngine()": "1fb32141",
			"batchDeposit(uint256,uint256,address[],uint256[])": "1ddfa365",
			"collectPlatformFees(address,uint256)": "5a2bb63d",
			"completeCycle(uint256)": "56ffb6c0",
			"cycleDeposits(uint256,uint256)": "b0186731",
			"deactivateDeposit(uint256)": "3cc3bba2",
			"deposit(uint256,uint256,address)": "8dbdbe6d",
			"depositCounter()": "ecb3dc88",
			"deposits(uint256)": "b02c43d0",
			"distributeYieldToContributors(uint256,address[],uint256[])": "a7323230",
			"emergencyPause()": "51858e27",
			"emergencyUnpause()": "4a4e3bd5",
			"emergencyWithdraw(uint256,address,string)": "7cd22238",
			"estimateCycleYield(uint256,uint256)": "15adc340",
			"getCurrentDepositId()": "eaf669e6",
			"getCurrentYieldRate()": "45c80801",
			"getCycleMemberDeposit(uint256,address)": "0988d9da",
			"getCycleSummary(uint256)": "1ad00447",
			"getDepositInfo(uint256)": "5328c2bf",
			"getDepositYield(uint256)": "efaa7295",
			"getDepositsForCycle(uint256)": "b7f4417c",
			"getDepositsForUser(address)": "2ea7da49",
			"getEscrowBalance()": "c56e610e",
			"getPotBalance(uint256)": "7ecc811d",
			"getPotTotalYield(uint256)": "4ccba848",
			"getTotalStakedInYieldManager()": "9c100524",
			"getUserTotalYieldEarned(address)": "f6781f1f",
			"getYieldManagerAddress()": "2a59c4b5",
			"isDepositActive(uint256)": "b93f7819",
			"owner()": "8da5cb5b",
			"paused()": "5c975abb",
			"platformFeeRate()": "eeca08f0",
			"potBalances(uint256)": "e7b2969a",
			"potYieldAccrued(uint256)": "f1e6f1d9",
			"releaseFundsToWinner(uint256,address,uint256)": "40a6a97c",
			"renounceOwnership()": "715018a6",
			"setAuctionEngine(address)": "33542e46",
			"transferOwnership(address)": "f2fde38b",
			"unstakeFundsForUser(address,uint256,address)": "c2661dbe",
			"updatePlatformFeeRate(uint256)": "ae3b7f06",
			"updateYieldDistributionRate(uint256)": "b328dc2e",
			"userDeposits(address,uint256)": "08f43333",
			"userYieldEarned(address)": "6433203a",
			"withdrawFunds(uint256,address)": "744bfe61",
			"yieldDistributionRate()": "5111ab47",
			"yieldManager()": "80b7af18"
		}
	},
	"abi": [
		{
			"inputs": [
				{
					"internalType": "address payable",
					"name": "_yieldManager",
					"type": "address"
				}
			],
			"stateMutability": "nonpayable",
			"type": "constructor"
		},
		{
			"inputs": [
				{
					"internalType": "address",
					"name": "owner",
					"type": "address"
				}
			],
			"name": "OwnableInvalidOwner",
			"type": "error"
		},
		{
			"inputs": [
				{
					"internalType": "address",
					"name": "account",
					"type": "address"
				}
			],
			"name": "OwnableUnauthorizedAccount",
			"type": "error"
		},
		{
			"anonymous": false,
			"inputs": [
				{
					"indexed": true,
					"internalType": "address",
					"name": "oldEngine",
					"type": "address"
				},
				{
					"indexed": true,
					"internalType": "address",
					"name": "newEngine",
					"type": "address"
				}
			],
			"name": "AuctionEngineUpdated",
			"type": "event"
		},
		{
			"anonymous": false,
			"inputs": [
				{
					"indexed": true,
					"internalType": "uint256",
					"name": "cycleId",
					"type": "uint256"
				},
				{
					"indexed": false,
					"internalType": "uint256",
					"name": "totalAmount",
					"type": "uint256"
				},
				{
					"indexed": false,
					"internalType": "uint256",
					"name": "totalYield",
					"type": "uint256"
				}
			],
			"name": "CycleCompleted",
			"type": "event"
		},
		{
			"anonymous": false,
			"inputs": [
				{
					"indexed": true,
					"internalType": "address",
					"name": "user",
					"type": "address"
				},
				{
					"indexed": false,
					"internalType": "uint256",
					"name": "amount",
					"type": "uint256"
				},
				{
					"indexed": false,
					"internalType": "string",
					"name": "reason",
					"type": "string"
				}
			],
			"name": "EmergencyWithdrawal",
			"type": "event"
		},
		{
			"anonymous": false,
			"inputs": [
				{
					"indexed": true,
					"internalType": "uint256",
					"name": "depositId",
					"type": "uint256"
				},
				{
					"indexed": true,
					"internalType": "uint256",
					"name": "potId",
					"type": "uint256"
				},
				{
					"indexed": true,
					"internalType": "uint256",
					"name": "cycleId",
					"type": "uint256"
				},
				{
					"indexed": false,
					"internalType": "address",
					"name": "depositor",
					"type": "address"
				},
				{
					"indexed": false,
					"internalType": "uint256",
					"name": "amount",
					"type": "uint256"
				},
				{
					"indexed": false,
					"internalType": "uint256",
					"name": "yieldStakeIndex",
					"type": "uint256"
				}
			],
			"name": "FundsDeposited",
			"type": "event"
		},
		{
			"anonymous": false,
			"inputs": [
				{
					"indexed": true,
					"internalType": "address",
					"name": "recipient",
					"type": "address"
				},
				{
					"indexed": false,
					"internalType": "uint256",
					"name": "amount",
					"type": "uint256"
				},
				{
					"indexed": false,
					"internalType": "uint256",
					"name": "yield",
					"type": "uint256"
				}
			],
			"name": "FundsWithdrawn",
			"type": "event"
		},
		{
			"anonymous": false,
			"inputs": [
				{
					"indexed": true,
					"internalType": "address",
					"name": "previousOwner",
					"type": "address"
				},
				{
					"indexed": true,
					"internalType": "address",
					"name": "newOwner",
					"type": "address"
				}
			],
			"name": "OwnershipTransferred",
			"type": "event"
		},
		{
			"anonymous": false,
			"inputs": [
				{
					"indexed": false,
					"internalType": "address",
					"name": "account",
					"type": "address"
				}
			],
			"name": "Paused",
			"type": "event"
		},
		{
			"anonymous": false,
			"inputs": [
				{
					"indexed": false,
					"internalType": "uint256",
					"name": "oldRate",
					"type": "uint256"
				},
				{
					"indexed": false,
					"internalType": "uint256",
					"name": "newRate",
					"type": "uint256"
				}
			],
			"name": "PlatformFeeRateUpdated",
			"type": "event"
		},
		{
			"anonymous": false,
			"inputs": [
				{
					"indexed": false,
					"internalType": "address",
					"name": "account",
					"type": "address"
				}
			],
			"name": "Unpaused",
			"type": "event"
		},
		{
			"anonymous": false,
			"inputs": [
				{
					"indexed": true,
					"internalType": "uint256",
					"name": "cycleId",
					"type": "uint256"
				},
				{
					"indexed": true,
					"internalType": "address",
					"name": "winner",
					"type": "address"
				},
				{
					"indexed": false,
					"internalType": "uint256",
					"name": "amount",
					"type": "uint256"
				},
				{
					"indexed": false,
					"internalType": "uint256",
					"name": "yield",
					"type": "uint256"
				}
			],
			"name": "WinnerPaid",
			"type": "event"
		},
		{
			"anonymous": false,
			"inputs": [
				{
					"indexed": true,
					"internalType": "uint256",
					"name": "cycleId",
					"type": "uint256"
				},
				{
					"indexed": false,
					"internalType": "uint256",
					"name": "totalYield",
					"type": "uint256"
				},
				{
					"indexed": false,
					"internalType": "uint256",
					"name": "participantCount",
					"type": "uint256"
				}
			],
			"name": "YieldDistributed",
			"type": "event"
		},
		{
			"anonymous": false,
			"inputs": [
				{
					"indexed": false,
					"internalType": "uint256",
					"name": "oldRate",
					"type": "uint256"
				},
				{
					"indexed": false,
					"internalType": "uint256",
					"name": "newRate",
					"type": "uint256"
				}
			],
			"name": "YieldDistributionRateUpdated",
			"type": "event"
		},
		{
			"stateMutability": "payable",
			"type": "fallback"
		},
		{
			"inputs": [],
			"name": "MAX_CYCLE_DURATION",
			"outputs": [
				{
					"internalType": "uint256",
					"name": "",
					"type": "uint256"
				}
			],
			"stateMutability": "view",
			"type": "function"
		},
		{
			"inputs": [],
			"name": "MIN_DEPOSIT",
			"outputs": [
				{
					"internalType": "uint256",
					"name": "",
					"type": "uint256"
				}
			],
			"stateMutability": "view",
			"type": "function"
		},
		{
			"inputs": [],
			"name": "auctionEngine",
			"outputs": [
				{
					"internalType": "address",
					"name": "",
					"type": "address"
				}
			],
			"stateMutability": "view",
			"type": "function"
		},
		{
			"inputs": [
				{
					"internalType": "uint256",
					"name": "potId",
					"type": "uint256"
				},
				{
					"internalType": "uint256",
					"name": "cycleId",
					"type": "uint256"
				},
				{
					"internalType": "address[]",
					"name": "members",
					"type": "address[]"
				},
				{
					"internalType": "uint256[]",
					"name": "amounts",
					"type": "uint256[]"
				}
			],
			"name": "batchDeposit",
			"outputs": [],
			"stateMutability": "payable",
			"type": "function"
		},
		{
			"inputs": [
				{
					"internalType": "address",
					"name": "recipient",
					"type": "address"
				},
				{
					"internalType": "uint256",
					"name": "amount",
					"type": "uint256"
				}
			],
			"name": "collectPlatformFees",
			"outputs": [],
			"stateMutability": "nonpayable",
			"type": "function"
		},
		{
			"inputs": [
				{
					"internalType": "uint256",
					"name": "cycleId",
					"type": "uint256"
				}
			],
			"name": "completeCycle",
			"outputs": [],
			"stateMutability": "nonpayable",
			"type": "function"
		},
		{
			"inputs": [
				{
					"internalType": "uint256",
					"name": "",
					"type": "uint256"
				},
				{
					"internalType": "uint256",
					"name": "",
					"type": "uint256"
				}
			],
			"name": "cycleDeposits",
			"outputs": [
				{
					"internalType": "uint256",
					"name": "",
					"type": "uint256"
				}
			],
			"stateMutability": "view",
			"type": "function"
		},
		{
			"inputs": [
				{
					"internalType": "uint256",
					"name": "depositId",
					"type": "uint256"
				}
			],
			"name": "deactivateDeposit",
			"outputs": [],
			"stateMutability": "nonpayable",
			"type": "function"
		},
		{
			"inputs": [
				{
					"internalType": "uint256",
					"name": "potId",
					"type": "uint256"
				},
				{
					"internalType": "uint256",
					"name": "cycleId",
					"type": "uint256"
				},
				{
					"internalType": "address",
					"name": "member",
					"type": "address"
				}
			],
			"name": "deposit",
			"outputs": [],
			"stateMutability": "payable",
			"type": "function"
		},
		{
			"inputs": [],
			"name": "depositCounter",
			"outputs": [
				{
					"internalType": "uint256",
					"name": "",
					"type": "uint256"
				}
			],
			"stateMutability": "view",
			"type": "function"
		},
		{
			"inputs": [
				{
					"internalType": "uint256",
					"name": "",
					"type": "uint256"
				}
			],
			"name": "deposits",
			"outputs": [
				{
					"internalType": "uint256",
					"name": "amount",
					"type": "uint256"
				},
				{
					"internalType": "uint256",
					"name": "potId",
					"type": "uint256"
				},
				{
					"internalType": "uint256",
					"name": "cycleId",
					"type": "uint256"
				},
				{
					"internalType": "address",
					"name": "depositor",
					"type": "address"
				},
				{
					"internalType": "uint256",
					"name": "timestamp",
					"type": "uint256"
				},
				{
					"internalType": "uint256",
					"name": "yieldStakeIndex",
					"type": "uint256"
				},
				{
					"internalType": "bool",
					"name": "isActive",
					"type": "bool"
				},
				{
					"internalType": "bool",
					"name": "hasYieldStake",
					"type": "bool"
				}
			],
			"stateMutability": "view",
			"type": "function"
		},
		{
			"inputs": [
				{
					"internalType": "uint256",
					"name": "cycleId",
					"type": "uint256"
				},
				{
					"internalType": "address[]",
					"name": "recipients",
					"type": "address[]"
				},
				{
					"internalType": "uint256[]",
					"name": "amounts",
					"type": "uint256[]"
				}
			],
			"name": "distributeYieldToContributors",
			"outputs": [],
			"stateMutability": "nonpayable",
			"type": "function"
		},
		{
			"inputs": [],
			"name": "emergencyPause",
			"outputs": [],
			"stateMutability": "nonpayable",
			"type": "function"
		},
		{
			"inputs": [],
			"name": "emergencyUnpause",
			"outputs": [],
			"stateMutability": "nonpayable",
			"type": "function"
		},
		{
			"inputs": [
				{
					"internalType": "uint256",
					"name": "amount",
					"type": "uint256"
				},
				{
					"internalType": "address",
					"name": "to",
					"type": "address"
				},
				{
					"internalType": "string",
					"name": "reason",
					"type": "string"
				}
			],
			"name": "emergencyWithdraw",
			"outputs": [],
			"stateMutability": "nonpayable",
			"type": "function"
		},
		{
			"inputs": [
				{
					"internalType": "uint256",
					"name": "cycleId",
					"type": "uint256"
				},
				{
					"internalType": "uint256",
					"name": "duration",
					"type": "uint256"
				}
			],
			"name": "estimateCycleYield",
			"outputs": [
				{
					"internalType": "uint256",
					"name": "estimatedYield",
					"type": "uint256"
				}
			],
			"stateMutability": "view",
			"type": "function"
		},
		{
			"inputs": [],
			"name": "getCurrentDepositId",
			"outputs": [
				{
					"internalType": "uint256",
					"name": "",
					"type": "uint256"
				}
			],
			"stateMutability": "view",
			"type": "function"
		},
		{
			"inputs": [],
			"name": "getCurrentYieldRate",
			"outputs": [
				{
					"internalType": "uint256",
					"name": "",
					"type": "uint256"
				}
			],
			"stateMutability": "view",
			"type": "function"
		},
		{
			"inputs": [
				{
					"internalType": "uint256",
					"name": "cycleId",
					"type": "uint256"
				},
				{
					"internalType": "address",
					"name": "member",
					"type": "address"
				}
			],
			"name": "getCycleMemberDeposit",
			"outputs": [
				{
					"internalType": "uint256",
					"name": "",
					"type": "uint256"
				}
			],
			"stateMutability": "view",
			"type": "function"
		},
		{
			"inputs": [
				{
					"internalType": "uint256",
					"name": "cycleId",
					"type": "uint256"
				}
			],
			"name": "getCycleSummary",
			"outputs": [
				{
					"internalType": "uint256",
					"name": "totalDeposited",
					"type": "uint256"
				},
				{
					"internalType": "uint256",
					"name": "totalYieldGenerated",
					"type": "uint256"
				},
				{
					"internalType": "uint256",
					"name": "participantCount",
					"type": "uint256"
				},
				{
					"internalType": "bool",
					"name": "isCompleted",
					"type": "bool"
				},
				{
					"internalType": "address[]",
					"name": "participants",
					"type": "address[]"
				}
			],
			"stateMutability": "view",
			"type": "function"
		},
		{
			"inputs": [
				{
					"internalType": "uint256",
					"name": "depositId",
					"type": "uint256"
				}
			],
			"name": "getDepositInfo",
			"outputs": [
				{
					"components": [
						{
							"internalType": "uint256",
							"name": "amount",
							"type": "uint256"
						},
						{
							"internalType": "uint256",
							"name": "potId",
							"type": "uint256"
						},
						{
							"internalType": "uint256",
							"name": "cycleId",
							"type": "uint256"
						},
						{
							"internalType": "address",
							"name": "depositor",
							"type": "address"
						},
						{
							"internalType": "uint256",
							"name": "timestamp",
							"type": "uint256"
						},
						{
							"internalType": "uint256",
							"name": "yieldStakeIndex",
							"type": "uint256"
						},
						{
							"internalType": "bool",
							"name": "isActive",
							"type": "bool"
						},
						{
							"internalType": "bool",
							"name": "hasYieldStake",
							"type": "bool"
						}
					],
					"internalType": "struct CitreaEscrow.DepositInfo",
					"name": "",
					"type": "tuple"
				}
			],
			"stateMutability": "view",
			"type": "function"
		},
		{
			"inputs": [
				{
					"internalType": "uint256",
					"name": "depositId",
					"type": "uint256"
				}
			],
			"name": "getDepositYield",
			"outputs": [
				{
					"internalType": "uint256",
					"name": "",
					"type": "uint256"
				}
			],
			"stateMutability": "view",
			"type": "function"
		},
		{
			"inputs": [
				{
					"internalType": "uint256",
					"name": "cycleId",
					"type": "uint256"
				}
			],
			"name": "getDepositsForCycle",
			"outputs": [
				{
					"internalType": "uint256[]",
					"name": "",
					"type": "uint256[]"
				}
			],
			"stateMutability": "view",
			"type": "function"
		},
		{
			"inputs": [
				{
					"internalType": "address",
					"name": "user",
					"type": "address"
				}
			],
			"name": "getDepositsForUser",
			"outputs": [
				{
					"internalType": "uint256[]",
					"name": "",
					"type": "uint256[]"
				}
			],
			"stateMutability": "view",
			"type": "function"
		},
		{
			"inputs": [],
			"name": "getEscrowBalance",
			"outputs": [
				{
					"internalType": "uint256",
					"name": "",
					"type": "uint256"
				}
			],
			"stateMutability": "view",
			"type": "function"
		},
		{
			"inputs": [
				{
					"internalType": "uint256",
					"name": "potId",
					"type": "uint256"
				}
			],
			"name": "getPotBalance",
			"outputs": [
				{
					"internalType": "uint256",
					"name": "",
					"type": "uint256"
				}
			],
			"stateMutability": "view",
			"type": "function"
		},
		{
			"inputs": [
				{
					"internalType": "uint256",
					"name": "potId",
					"type": "uint256"
				}
			],
			"name": "getPotTotalYield",
			"outputs": [
				{
					"internalType": "uint256",
					"name": "",
					"type": "uint256"
				}
			],
			"stateMutability": "view",
			"type": "function"
		},
		{
			"inputs": [],
			"name": "getTotalStakedInYieldManager",
			"outputs": [
				{
					"internalType": "uint256",
					"name": "",
					"type": "uint256"
				}
			],
			"stateMutability": "view",
			"type": "function"
		},
		{
			"inputs": [
				{
					"internalType": "address",
					"name": "user",
					"type": "address"
				}
			],
			"name": "getUserTotalYieldEarned",
			"outputs": [
				{
					"internalType": "uint256",
					"name": "",
					"type": "uint256"
				}
			],
			"stateMutability": "view",
			"type": "function"
		},
		{
			"inputs": [],
			"name": "getYieldManagerAddress",
			"outputs": [
				{
					"internalType": "address",
					"name": "",
					"type": "address"
				}
			],
			"stateMutability": "view",
			"type": "function"
		},
		{
			"inputs": [
				{
					"internalType": "uint256",
					"name": "depositId",
					"type": "uint256"
				}
			],
			"name": "isDepositActive",
			"outputs": [
				{
					"internalType": "bool",
					"name": "",
					"type": "bool"
				}
			],
			"stateMutability": "view",
			"type": "function"
		},
		{
			"inputs": [],
			"name": "owner",
			"outputs": [
				{
					"internalType": "address",
					"name": "",
					"type": "address"
				}
			],
			"stateMutability": "view",
			"type": "function"
		},
		{
			"inputs": [],
			"name": "paused",
			"outputs": [
				{
					"internalType": "bool",
					"name": "",
					"type": "bool"
				}
			],
			"stateMutability": "view",
			"type": "function"
		},
		{
			"inputs": [],
			"name": "platformFeeRate",
			"outputs": [
				{
					"internalType": "uint256",
					"name": "",
					"type": "uint256"
				}
			],
			"stateMutability": "view",
			"type": "function"
		},
		{
			"inputs": [
				{
					"internalType": "uint256",
					"name": "",
					"type": "uint256"
				}
			],
			"name": "potBalances",
			"outputs": [
				{
					"internalType": "uint256",
					"name": "",
					"type": "uint256"
				}
			],
			"stateMutability": "view",
			"type": "function"
		},
		{
			"inputs": [
				{
					"internalType": "uint256",
					"name": "",
					"type": "uint256"
				}
			],
			"name": "potYieldAccrued",
			"outputs": [
				{
					"internalType": "uint256",
					"name": "",
					"type": "uint256"
				}
			],
			"stateMutability": "view",
			"type": "function"
		},
		{
			"inputs": [
				{
					"internalType": "uint256",
					"name": "amount",
					"type": "uint256"
				},
				{
					"internalType": "address payable",
					"name": "winner",
					"type": "address"
				},
				{
					"internalType": "uint256",
					"name": "cycleId",
					"type": "uint256"
				}
			],
			"name": "releaseFundsToWinner",
			"outputs": [],
			"stateMutability": "nonpayable",
			"type": "function"
		},
		{
			"inputs": [],
			"name": "renounceOwnership",
			"outputs": [],
			"stateMutability": "nonpayable",
			"type": "function"
		},
		{
			"inputs": [
				{
					"internalType": "address",
					"name": "_auctionEngine",
					"type": "address"
				}
			],
			"name": "setAuctionEngine",
			"outputs": [],
			"stateMutability": "nonpayable",
			"type": "function"
		},
		{
			"inputs": [
				{
					"internalType": "address",
					"name": "newOwner",
					"type": "address"
				}
			],
			"name": "transferOwnership",
			"outputs": [],
			"stateMutability": "nonpayable",
			"type": "function"
		},
		{
			"inputs": [
				{
					"internalType": "address",
					"name": "user",
					"type": "address"
				},
				{
					"internalType": "uint256",
					"name": "stakeIndex",
					"type": "uint256"
				},
				{
					"internalType": "address",
					"name": "recipient",
					"type": "address"
				}
			],
			"name": "unstakeFundsForUser",
			"outputs": [],
			"stateMutability": "nonpayable",
			"type": "function"
		},
		{
			"inputs": [
				{
					"internalType": "uint256",
					"name": "newRate",
					"type": "uint256"
				}
			],
			"name": "updatePlatformFeeRate",
			"outputs": [],
			"stateMutability": "nonpayable",
			"type": "function"
		},
		{
			"inputs": [
				{
					"internalType": "uint256",
					"name": "newRate",
					"type": "uint256"
				}
			],
			"name": "updateYieldDistributionRate",
			"outputs": [],
			"stateMutability": "nonpayable",
			"type": "function"
		},
		{
			"inputs": [
				{
					"internalType": "address",
					"name": "",
					"type": "address"
				},
				{
					"internalType": "uint256",
					"name": "",
					"type": "uint256"
				}
			],
			"name": "userDeposits",
			"outputs": [
				{
					"internalType": "uint256",
					"name": "",
					"type": "uint256"
				}
			],
			"stateMutability": "view",
			"type": "function"
		},
		{
			"inputs": [
				{
					"internalType": "address",
					"name": "",
					"type": "address"
				}
			],
			"name": "userYieldEarned",
			"outputs": [
				{
					"internalType": "uint256",
					"name": "",
					"type": "uint256"
				}
			],
			"stateMutability": "view",
			"type": "function"
		},
		{
			"inputs": [
				{
					"internalType": "uint256",
					"name": "amount",
					"type": "uint256"
				},
				{
					"internalType": "address",
					"name": "to",
					"type": "address"
				}
			],
			"name": "withdrawFunds",
			"outputs": [],
			"stateMutability": "nonpayable",
			"type": "function"
		},
		{
			"inputs": [],
			"name": "yieldDistributionRate",
			"outputs": [
				{
					"internalType": "uint256",
					"name": "",
					"type": "uint256"
				}
			],
			"stateMutability": "view",
			"type": "function"
		},
		{
			"inputs": [],
			"name": "yieldManager",
			"outputs": [
				{
					"internalType": "contract CitreaNativeYieldManager",
					"name": "",
					"type": "address"
				}
			],
			"stateMutability": "view",
			"type": "function"
		},
		{
			"stateMutability": "payable",
			"type": "receive"
		}
	]
}