{
	"data": {
		"bytecode": {
			"linkReferences": {},
			"object": "60803461021257601f61410c38819003918201601f19168301916001600160401b0383118484101761021657808492606094604052833981010312610212578051906001600160a01b0382168083036102125761006a60406100636020850161022a565b930161022a565b9133156101ff575f8054336001600160a01b03198216811783556040519290916001600160a01b0316907f8be0079c531659141344cd1fd0a4f28419497f9722a3daafe3b4186f6b6457e09080a3600180556002549260016005556001600655156101bd57506001600160a01b0316918215610178576001600160a01b0316928315610142576001600160a81b031990911660089190911b610100600160a81b031617600255600380546001600160a01b031990811692909217905560048054909116919091179055604051613ecd908161023f8239f35b60405162461bcd60e51b815260206004820152600e60248201526d496e76616c696420657363726f7760901b6044820152606490fd5b60405162461bcd60e51b815260206004820152601660248201527f496e76616c6964206c6f747465727920656e67696e65000000000000000000006044820152606490fd5b62461bcd60e51b815260206004820152601660248201527f496e76616c6964206d656d626572206d616e61676572000000000000000000006044820152606490fd5b631e4fbdf760e01b5f525f60045260245ffd5b5f80fd5b634e487b7160e01b5f52604160045260245ffd5b51906001600160a01b03821682036102125756fe6080806040526004361015610052575b5036156100505760405162461bcd60e51b8152602060048201526012602482015271119d5b98dd1a5bdb881b9bdd08199bdd5b9960721b6044820152606490fd5b005b5f905f3560e01c9081627d8c8b1461340a57508062c2943c146130835780630201345d1461303457806315979aee14612ee65780631f20739f14612df657806323cf447f146127fc578063356caaa41461271757806339c34bfe1461266e5780633c69d7c2146126105780633e1cd4ae146125e7578063408799511461100d57806348f470ad1461251a5780634bd3ad781461244e57806350c61d5a1461235157806356ffb6c01461201557806357c90de514611d165780635b1194b214611c0d5780635c975abb14611bea57806368f1722414611b935780636ae1de1114611b755780636e1e277b14611a16578063715018a6146119bc578063739ca188146118b25780637519087b146117b05780637cd22238146115b15780637e3a990114611477578063831d49ef146111605780638b6a101a1461110b5780638da5cb5b146110e457806390886389146110c65780639623daa5146110a85780639aa90366146110795780639b14e048146110575780639e1f45641461100d578063a2d3deeb14610fa1578063a358ca0614610efa578063a3a3f24414610ecd578063caf273c514610ea3578063cc44910514610e08578063ce19057814610d73578063ce9fb3d714610d1a578063d82ce19a14610cdb578063e2fdcc1714610cb2578063e50b9ecd14610920578063e879b475146108ba578063ea0e35b11461089e578063ec656adb1461070b578063ededb972146103b2578063f12d54d814610357578063f2fde38b146102d1578063f33fbaf3146102b35763f79881190361000f57346102b057806003193601126102b0576020604051610e108152f35b80fd5b50346102b057806003193601126102b0576020600654604051908152f35b50346102b05760203660031901126102b0576102eb613444565b6102f3613afa565b6001600160a01b031680156103435781546001600160a01b03198116821783556001600160a01b03167f8be0079c531659141344cd1fd0a4f28419497f9722a3daafe3b4186f6b6457e08380a380f35b631e4fbdf760e01b82526004829052602482fd5b50346102b057806003193601126102b057610370613afa565b610378613ab6565b600160ff1960025416176002557f62e78cea01bee320cd4e420270b5ea74000d11b0c9f74754ebdbfc544b05a2586020604051338152a180f35b50346102b05760203660031901126102b05760043580151580610700575b6103d9906137c1565b808252600760205260408220600101546103fd906001600160a01b031615156137fe565b610405613ab6565b61040d613b20565b8082526007602052604082209080835260096020526040832060018060a01b0333165f5260205260ff60405f205416156106cc5760058201546106875760018201546001600160a01b0316331461064b576009839201915b82548082101561064257610479828561368a565b905460039190911b1c6001600160a01b0316331461049a5750600101610465565b9192915f19810190811161062557906104d26104b96104f6938561368a565b905460039190911b1c6001600160a01b0316918461368a565b81546001600160a01b0393841660039290921b91821b9390911b1916919091179055565b80548015610611575f19019061050c828261368a565b81549060018060a01b039060031b1b19169055555b808252600960209081526040808420335f81815291845290829020805460ff191690558452600a909152822090825b8254808210156106395782610565838661368a565b90549060031b1c1461057a5750600101610550565b9192915f198101908111610625576105a66105986105bc928561368a565b90549060031b1c928461368a565b819391549060031b91821b915f19901b19161790565b905580548015610611575f1901906105d4828261368a565b8154905f199060031b1b19169055555b33907f3f3f0688e94139802c3c8942d34e49ce129cc393db2137e5291cd656438fe2258380a36001805580f35b634e487b7160e01b84526031600452602484fd5b634e487b7160e01b85526011600452602485fd5b505090506105e4565b50509050610521565b60405162461bcd60e51b815260206004820152601460248201527343726561746f722063616e6e6f74206c6561766560601b6044820152606490fd5b60405162461bcd60e51b815260206004820152601e60248201527f43616e6e6f74206c6561766520616674657220706f74207374617274656400006044820152606490fd5b60405162461bcd60e51b815260206004820152600c60248201526b2737ba10309036b2b6b132b960a11b6044820152606490fd5b5060055481106103d0565b50346102b05761071a3661353b565b90610723613afa565b80151580610893575b6107359061373a565b6107418251151561383f565b808352600860205260408320906006820160ff815460a01c16600581101561087f57906003869392036107d4575b5050506107ce5f516020613e785f395f51905f5291549260405191829160408352601860408401527f454d455247454e43595f434f4d504c4554455f4359434c450000000000000000606084015260806020840152608083019061365c565b0390a280f35b805460ff60a01b1916600360a01b1790556004546001600160a01b031690813b1561087057829160248392604051948593849263015bfedb60e61b845260048401525af180156108745761085b575b50506107ce815f516020613e785f395f51905f529254855260076020526005604086200161085181546138d6565b905591849161076f565b81610865916134a3565b61087057825f610823565b8280fd5b6040513d84823e3d90fd5b634e487b7160e01b86526021600452602486fd5b50600654811061072c565b50346102b057806003193601126102b057602060405160648152f35b50346102b05760403660031901126102b05760076040600435926108dc61345a565b9380151580610915575b6108ef9061373a565b8152600860205220019060018060a01b03165f52602052602060405f2054604051908152f35b5060065481106108e6565b50346102b05760203660031901126102b057600435808252600760205261095760018060a01b0360016040852001541633146136fc565b80151580610ca7575b610969906137c1565b8082526007602052604082206001015461098d906001600160a01b031615156137fe565b610995613ab6565b61099d613b20565b808252600760205260408220906109c460ff6008840154166109be81613680565b1561396b565b60098201908154600c84015411610c6d57600583015460048401541115610c315791838093600654926109f6846138d6565b6006558383526008602052604083209082825584600183015560028201428155610a24600383015442613aa9565b6003840190815560068401805460ff60a01b1916600160a01b17905591610a4e87600a8301613907565b610a57886139e7565b92610a628451613a63565b9287956001600285019401965b8651811015610b4557845480610a858389613a95565b5260025460081c6001600160a01b039081169190610aa3848b613a95565b5116916001600160a01b03610ab8858c613a95565b518c546001600160a01b0316911614813b15610b41578e938e8e9360a4938296604051988997889663db151c0760e01b8852600488015260248701526044860152606485015260848401525af1908115610b36578b91610b1d575b5050600101610a6f565b81610b27916134a3565b610b3257898e610b13565b8980fd5b6040513d8d823e3d90fd5b8d80fd5b50919394899650610b5c8b8a939554905490613a38565b9560018060a01b036004541691823b15610c2d57610bab9289898c610bbd889660405198899788968795631ddfa36560e01b8752600487015260248601526080604486015260848501906136b3565b83810360031901606485015290613470565b03925af1801561087457610c0e575b5050907fd236b808a7ea200d11fbf432515050a0031a43723d0285dee3dbb388eec2e49493600a60409493015554905482519182526020820152a36001805580f35b81610c1c91959493956134a3565b610c295790918688610bcc565b8680fd5b8380fd5b60405162461bcd60e51b8152602060048201526014602482015273105b1b0818de58db195cc818dbdb5c1b195d195960621b6044820152606490fd5b60405162461bcd60e51b81526020600482015260126024820152714e6f7420656e6f756768206d656d6265727360701b6044820152606490fd5b506005548110610960565b50346102b057806003193601126102b0576004546040516001600160a01b039091168152602090f35b50346102b057806003193601126102b0576006545f19810191908211610d0657602082604051908152f35b634e487b7160e01b81526011600452602490fd5b50346102b05760203660031901126102b0576004356001600160a01b03811690819003610d6f57610d49613afa565b610d5481151561392d565b6bffffffffffffffffffffffff60a01b600354161760035580f35b5080fd5b50346102b057806003193601126102b057610d8c613afa565b60025460ff811615610dcc5760ff19166002557f5db9ee0a495bf2e6ff9c91a7834c1ba4fdd244a5e8aa4e537bd38aeae4b073aa6020604051338152a180f35b60405162461bcd60e51b815260206004820152601460248201527314185d5cd8589b194e881b9bdd081c185d5cd95960621b6044820152606490fd5b50346102b05760203660031901126102b05760043580151580610e98575b610e2f9061373a565b8152600860205260086040822001805490610e4982613a63565b925b828110610e6c5760405160208082528190610e68908201876136b3565b0390f35b80610e796001928461368a565b838060a01b0391549060031b1c16610e918287613a95565b5201610e4b565b506006548110610e26565b50346102b05760203660031901126102b05760406020916004358152600b83522054604051908152f35b50346102b057806003193601126102b05760025460405160089190911c6001600160a01b03168152602090f35b50346102b05760403660031901126102b05760043560243580151581036108705781610f939284526007602052610f4160018060a01b0360016040872001541633146136fc565b80151580610f96575b610f53906137c1565b80845260076020526040842060010154610f77906001600160a01b031615156137fe565b8352600c602052604083209060ff801983541691151516179055565b80f35b506005548110610f4a565b50346102b05760203660031901126102b0576009604060209260043580151580611002575b610fcf906137c1565b8082526007855282822060010154610ff1906001600160a01b031615156137fe565b815260078452200154604051908152f35b506005548110610fc6565b50346102b05760403660031901126102b057604061102961345a565b9160043581526009602052209060018060a01b03165f52602052602060ff60405f2054166040519015158152f35b50346102b057806003193601126102b057602060405166038d7ea4c680008152f35b50346102b05760203660031901126102b05760ff60406020926004358152600c84522054166040519015158152f35b50346102b057806003193601126102b0576020604051620151808152f35b50346102b057806003193601126102b05760206040516276a7008152f35b50346102b057806003193601126102b057546040516001600160a01b039091168152602090f35b50346102b05760203660031901126102b0576004356001600160a01b03811690819003610d6f5761113a613afa565b61114581151561392d565b6bffffffffffffffffffffffff60a01b600454161760045580f35b50346102b05760203660031901126102b0576004356024602060018060a01b0360025460081c166040519283809263c3c5a54760e01b82523360048301525afa801561146c576111b791849161143d575b50613899565b80151580611432575b6111c9906137c1565b808252600760205260408220600101546111ed906001600160a01b031615156137fe565b6111f5613ab6565b6111fd613b20565b80825260076020526040822061121d60ff6008830154166109be81613680565b818352600960209081526040808520335f908152925290205460ff166113fc5760098101908154600d82015411156113c9576005015461138e57600254604051631d699f5760e21b8152336004820152906020908290602490829060081c6001600160a01b03165afa801561138357849061134c575b6032915010611312576112a79033906138e4565b80825260096020526040822060018060a01b0333165f5260205260405f20600160ff19825416179055338252600a6020526112e58160408420613907565b33907f76d6778dd360e2f2a3c8495be58957b0386725bc74904d097766dc05bfe82e888380a36001805580f35b60405162461bcd60e51b815260206004820152601260248201527152657075746174696f6e20746f6f206c6f7760701b6044820152606490fd5b506020813d60201161137b575b81611366602093836134a3565b810103126113775760329051611293565b5f80fd5b3d9150611359565b6040513d86823e3d90fd5b60405162461bcd60e51b8152602060048201526013602482015272141bdd08185b1c9958591e481cdd185c9d1959606a1b6044820152606490fd5b60405162461bcd60e51b815260206004820152600b60248201526a141bdd081a5cc8199d5b1b60aa1b6044820152606490fd5b60405162461bcd60e51b815260206004820152600e60248201526d105b1c9958591e481a9bda5b995960921b6044820152606490fd5b5060055481106111c0565b61145f915060203d602011611465575b61145781836134a3565b810190613881565b5f6111b1565b503d61144d565b6040513d85823e3d90fd5b50346102b05760203660031901126102b05760043580825260086020526040822054825260076020526114ba60018060a01b0360016040852001541633146136fc565b801515806115a6575b6114cc9061373a565b6114d4613ab6565b80825260086020526040822060ff600682015460a01c1660058110156115925760030361155757600c015460081c60ff1661151257610f9390613b76565b60405162461bcd60e51b815260206004820152601960248201527f5969656c6420616c7265616479206469737472696275746564000000000000006044820152606490fd5b60405162461bcd60e51b815260206004820152601360248201527210de58db19481b9bdd0818dbdb5c1b195d1959606a1b6044820152606490fd5b634e487b7160e01b84526021600452602484fd5b5060065481106114c3565b50346102b05760603660031901126102b0576004356115ce61345a565b9060443567ffffffffffffffff8111610c2d576115ef9036906004016134f5565b916115f8613afa565b611600613b20565b8115611776576001600160a01b0316801561173d576116218351151561383f565b814710611701578380809381935af13d156116fc573d611640816134d9565b9061164e60405192836134a3565b81528360203d92013e5b156116b7575f516020613e785f395f51905f526116ad8392604051918291604083526012604084015271454d455247454e43595f574954484452415760701b606084015260806020840152608083019061365c565b0390a26001805580f35b60405162461bcd60e51b815260206004820152601b60248201527f456d657267656e6379207769746864726177616c206661696c656400000000006044820152606490fd5b611658565b60405162461bcd60e51b8152602060048201526014602482015273496e73756666696369656e742062616c616e636560601b6044820152606490fd5b60405162461bcd60e51b8152602060048201526011602482015270125b9d985b1a59081c9958da5c1a595b9d607a1b6044820152606490fd5b60405162461bcd60e51b81526020600482015260126024820152710416d6f756e74206d757374206265203e20360741b6044820152606490fd5b50346102b05760203660031901126102b05760043580825260076020526117e760018060a01b0360016040852001541633146136fc565b801515806118a7575b6117f9906137c1565b8082526007602052604082206001015461181d906001600160a01b031615156137fe565b8082526007602052600160ff60086040852001541661183b81613680565b036118715780825260076020526008604083200160ff1981541690555f516020613e585f395f51905f526020604051848152a280f35b60405162461bcd60e51b815260206004820152600e60248201526d141bdd081b9bdd081c185d5cd95960921b6044820152606490fd5b5060055481106117f0565b50346102b0576118c13661356e565b9190801515806119b1575b6118d5906137c1565b808252600760205260408220600101546118f9906001600160a01b031615156137fe565b81526007602052611917604082206009600282015491015490613a38565b600480546040516345c8080160e01b81529160209183919082906001600160a01b03165afa9283156119a55792611970575b60206301e13380611967866127106119618888613a38565b04613a38565b04604051908152f35b9091506020813d60201161199d575b8161198c602093836134a3565b810103126113775751906020611949565b3d915061197f565b604051903d90823e3d90fd5b5060055481106118cc565b50346102b057806003193601126102b0576119d5613afa565b80546001600160a01b03198116825581906001600160a01b03167f8be0079c531659141344cd1fd0a4f28419497f9722a3daafe3b4186f6b6457e08280a380f35b50346102b05760203660031901126102b05760043580151580611b6a575b611a3d906137c1565b80825260076020526040822060010154611a61906001600160a01b031615156137fe565b8152600760205260409020600160a01b60019003600182015416600282015491600381015490600481015491600582015491600681015460ff16936007820154600883015460ff1690600e84015496600f85015460ff1696611ac2866135bc565b94611acf600988016139e7565b96600a01611adc90613779565b976040519c8d9c8d986101a08a526101a08a01611af89161365c565b986020015260408d015260608c015260808b015260a08a0152611b1a81613680565b60c089015260e0880152611b2d81613680565b610100870152858103610120870152611b45916136b3565b848103610140860152611b5791613470565b9161016084015215156101808301520390f35b506005548110611a34565b50346102b057806003193601126102b0576020600554604051908152f35b50346102b05760403660031901126102b057611bad613444565b6001600160a01b03168152600a60205260408120805460243592908310156102b0576020611bdb848461368a565b90549060031b1c604051908152f35b50346102b057806003193601126102b057602060ff600254166040519015158152f35b50346102b05760203660031901126102b0576004358082526008602052604082205482526007602052611c5060018060a01b0360016040852001541633146136fc565b80151580611d0b575b611c629061373a565b611c6a613ab6565b8152600860205260408120600681019060ff825460a01c1660058110156115925790611c9b6001611cb793146139a8565b60038101549054845260076020526007604085200154906136ef565b4210611cd157805460ff60a01b1916600160a11b17905580f35b60405162461bcd60e51b8152602060048201526012602482015271546f6f206561726c7920746f20636c6f736560701b6044820152606490fd5b506006548110611c59565b50611d203661356e565b60025460405163c3c5a54760e01b8152336004820152919291906020908290602490829060081c6001600160a01b03165afa801561138357611d6891859161143d5750613899565b8015158061200a575b611d7a9061373a565b611d82613ab6565b611d8a613b20565b80835260086020526040832080548085526007602052604085209060ff600684015460a01c166005811015611ff6576001611dc591146139a8565b8552600960209081526040808720335f908152925290205460ff1615611fbe57611df860038301546007830154906136ef565b421015611f83578315159081611f74575b5015611f3a57823403611f015780600785920160018060a01b0333165f528060205260405f205415611eee575b60018060a01b0333165f526020528360405f205560018060a01b0360025460081c169054813b1561087057829160a4839260405194859384926318fb159b60e31b84523360048501526024840152886044840152896064840152600160848401525af1801561087457611ed9575b50506040519182527f0e54eff26401bf69b81b26f60bd85ef47f5d85275c1d268d84f68d6897431c4760203393a36001805580f35b81611ee3916134a3565b61087057825f611ea4565b611efb3360088401613e03565b50611e36565b60405162461bcd60e51b8152602060048201526011602482015270125b98dbdc9c9958dd081c185e5b595b9d607a1b6044820152606490fd5b60405162461bcd60e51b8152602060048201526012602482015271125b9d985b1a5908189a5908185b5bdd5b9d60721b6044820152606490fd5b6002915001548311155f611e09565b60405162461bcd60e51b8152602060048201526013602482015272109a5908191958591b1a5b99481c185cdcd959606a1b6044820152606490fd5b60405162461bcd60e51b815260206004820152601060248201526f2737ba1030903837ba1036b2b6b132b960811b6044820152606490fd5b634e487b7160e01b87526021600452602487fd5b506006548110611d71565b50346102b05760203660031901126102b057600435808252600860205260408220548252600760205261205860018060a01b0360016040852001541633146136fc565b80151580612346575b61206a9061373a565b612072613ab6565b61207a613b20565b80825260086020526040822060048101549091906001600160a01b0316801561230b576006830160ff815460a01c16600581101561087f576003146122d2576003840154421061229b57600c840160ff81541661225d5784548652600760205285604081209360018060a01b036004541690600588015490823b15610c2d5760648492836040519586948593631029aa5f60e21b8552600485015260248401528b60448401525af1801561087457612244575b5050805460ff19166001179055600f82015460ff16612236575b60045485906001600160a01b0316803b15610d6f5781809160246040518094819363015bfedb60e61b83528a60048401525af180156108745761221d575b5050805460ff60a01b1916600360a01b1790556005810180546121a7906138d6565b809155600482015411156121ef575b507f188dffc590872dc919b0e448791f95e29ebd499b88d4318fc474dfc17aac6e3e6020600b8454940154604051908152a36001805580f35b600801600260ff1982541617905581545f516020613e585f395f51905f52602060405160028152a25f6121b6565b81612227916134a3565b61223257845f612185565b8480fd5b61223f83613b76565b612147565b8161224e916134a3565b61225957855f61212d565b8580fd5b60405162461bcd60e51b8152602060048201526016602482015275119d5b991cc8185b1c9958591e481c995b19585cd95960521b6044820152606490fd5b60405162461bcd60e51b815260206004820152600f60248201526e10de58db19481b9bdd08195b991959608a1b6044820152606490fd5b60405162461bcd60e51b8152602060048201526011602482015270105b1c9958591e4818dbdb5c1b195d1959607a1b6044820152606490fd5b60405162461bcd60e51b815260206004820152601360248201527215da5b9b995c881b9bdd08191958db185c9959606a1b6044820152606490fd5b506006548110612061565b50346102b05760203660031901126102b057600435815260076020526040902061237a816135bc565b600160a01b6001900360018301541660028301549260038101549060048101546005820154600683015460ff166007840154600885015460ff1690600b86015492600c87015494600d88015496600e89015498600f015460ff16996040519d8e809e6101c082526101c082016123ef9161365c565b9d60208201526040015260608d015260808c015260a08b015261241181613680565b60c08a015260e089015261242481613680565b61010088015261012087015261014086015261016085015261018084015215156101a08301520390f35b50346102b05760203660031901126102b057600435808252600760205261248560018060a01b0360016040852001541633146136fc565b8015158061250f575b612497906137c1565b808252600760205260408220600101546124bb906001600160a01b031615156137fe565b80825260076020526124da60ff6008604085200154166109be81613680565b808252600760205260086040832001600160ff198254161790555f516020613e585f395f51905f52602060405160018152a280f35b50600554811061248e565b50346102b05760203660031901126102b057600435801515806125dc575b6125419061373a565b8152600860205260408120805490600281015490600381015460018060a01b03600483015416600583015460ff600685015460a01c1690600885015492600a8601549460ff600c600b89015498015460081c1697604051998a5260208a01526040890152606088015260808701526005811015611ff657610140965060a086015260c085015260e08401526101008301521515610120820152f35b506006548110612538565b50346102b057806003193601126102b0576003546040516001600160a01b039091168152602090f35b50346102b05760203660031901126102b05761262a613444565b612632613afa565b6126466001600160a01b038216151561392d565b60028054610100600160a81b03191660089290921b610100600160a81b031691909117905580f35b50346102b05760203660031901126102b0576080906004358015158061270c575b612698906137c1565b808252600760205260408220600101546126bc906001600160a01b031615156137fe565b80825260076020526040822060ff600f816040600e85015496868152600b60205281812054968152600c602052205416920154169160405193845260208401521515604083015215156060820152f35b50600554811061268f565b50346102b0576107ce5f516020613e785f395f51905f526127373661353b565b612742939193613afa565b831515806127f1575b612754906137c1565b83855260076020526040852060010154612778906001600160a01b031615156137fe565b6127848151151561383f565b838552600760205260086040862001600160ff19825416179055835f516020613e585f395f51905f52602060405160018152a260405191829160408352600f60408401526e454d455247454e43595f504155534560881b606084015260806020840152608083019061365c565b50600554841061274b565b50346102b0576101203660031901126102b05760043567ffffffffffffffff8111610d6f5761282f9036906004016134f5565b90600460843510156102b057610104358015158103610d6f5760025460405163c3c5a54760e01b8152336004820152906020908290602490829060081c6001600160a01b03165afa90811561146c579061288f91849161143d5750613899565b612897613ab6565b82518015159081612dea575b5015612daf5766038d7ea4c6800060243510612d795762015180604435101580612d6a575b15612d2c57610e1060a435101580612d1f575b15612ce357606435151580612cd7575b15612c9c57600260c435101580612c8e575b15612c5157606460e43511612c195760055490612919826138d6565b600555818352600760205260408320845167ffffffffffffffff8111612c05576129438254613584565b601f8111612bc0575b506020601f8211600114612b5a579080612a1293928791612b4f575b508160011b915f199060031b1c19161781555b6001810180546001600160a01b03191633179055602435600282015560443560038201556064356004820155600681016129b6608435613680565b60ff1981541660ff6084351617905560a43560078201556008810160ff19815416905542600b82015560c435600c82015560e435600d820155612a0883600f83019060ff801983541691151516179055565b60093391016138e4565b81835260096020526040832060018060a01b0333165f5260205260405f20600160ff19825416179055338352600a602052612a508260408520613907565b818352600b60205260408320606460243504905560025460081c6001600160a01b0316803b15610c2d5783809160a46040518094819363db151c0760e01b8352336004840152886024840152816044840152816064840152600160848401525af1801561138357612b3a575b50817fa86ee11c94f415cc6c894d349995131c0a25805aec651fc4c17e5ab90810e491602095612af76040519160608352606083019061365c565b9360243588830152151560408201528033940390a360405191817f76d6778dd360e2f2a3c8495be58957b0386725bc74904d097766dc05bfe82e88339280a38152f35b612b458480926134a3565b610870575f612abc565b90508701515f612968565b82865280862090865b601f1984168110612ba8575091600191612a12949382601f19811610612b90575b5050811b01815561297b565b8901515f1960f88460031b161c191690555f80612b84565b9091602060018192858c015181550193019101612b63565b82865260208620601f830160051c81019160208410612bfb575b601f0160051c01905b818110612bf0575061294c565b868155600101612be3565b9091508190612bda565b634e487b7160e01b85526041600452602485fd5b60405162461bcd60e51b815260206004820152601060248201526f546f6f206d616e79206d656d6265727360801b6044820152606490fd5b60405162461bcd60e51b8152602060048201526015602482015274496e76616c6964206d656d626572206c696d69747360581b6044820152606490fd5b5060e43560c43511156128fd565b60405162461bcd60e51b8152602060048201526013602482015272125b9d985b1a590818de58db194818dbdd5b9d606a1b6044820152606490fd5b506064803511156128eb565b60405162461bcd60e51b8152602060048201526014602482015273496e76616c69642062696420646561646c696e6560601b6044820152606490fd5b5060443560a435106128db565b60405162461bcd60e51b815260206004820152601660248201527524b73b30b634b21031bcb1b63290323ab930ba34b7b760511b6044820152606490fd5b506276a70060443511156128c8565b60405162461bcd60e51b815260206004820152600e60248201526d416d6f756e7420746f6f206c6f7760901b6044820152606490fd5b60405162461bcd60e51b8152602060048201526013602482015272092dcecc2d8d2c840dcc2daca40d8cadccee8d606b1b6044820152606490fd5b6064915011155f6128a3565b50346102b057612e053661356e565b8183526007602052612e2760018060a01b0360016040862001541633146136fc565b81151580612edb575b612e39906137c1565b81835260076020526040832060010154612e5d906001600160a01b031615156137fe565b8015612e9e5760207fe1d4409c721da49a264a9059b9bf8b6c77cb315ba8a07a4e41e139ea99ce3dd991838552600b8252806040862055604051908152a280f35b60405162461bcd60e51b815260206004820152601560248201527405468726573686f6c64206d757374206265203e203605c1b6044820152606490fd5b506005548210612e30565b50346102b057612ef53661353b565b8183526007602052612f1760018060a01b0360016040862001541633146136fc565b81151580613029575b612f29906137c1565b81835260076020526040832060010154612f4d906001600160a01b031615156137fe565b612f55613ab6565b8183526007602052604083206005810154612fe4578160086107ce92612f8b5f516020613e785f395f51905f529551151561383f565b01600360ff19825416179055835f516020613e585f395f51905f52602060405160038152a260405191829160408352600960408401526810d05390d15313115160ba1b606084015260806020840152608083019061365c565b60405162461bcd60e51b815260206004820152601960248201527f43616e6e6f742063616e63656c207374617274656420706f74000000000000006044820152606490fd5b506005548210612f20565b50346102b05760203660031901126102b057610e689061306f906040906001600160a01b03613061613444565b168152600a60205220613779565b604051918291602083526020830190613470565b503461137757602036600319011261137757600435805f52600860205260405f20545f5260076020526130c660018060a01b03600160405f2001541633146136fc565b801515806133ff575b6130d89061373a565b6130e0613ab6565b805f52600860205260405f20906006820160ff815460a01c1660058110156133eb576002036133b15782545f52600760205260405f20905f9060088501805480155f146133155750505050600960018060a01b03600354169101906040519063669dc21760e11b825281602481016020600483015284548091526044820190855f5260205f20905f5b8181106132f35750505091815f8160209503925af19081156132a1575f916132ac575b506131969161368a565b90546004840180546001600160a01b03191660039390931b9190911c6001600160a01b031691909117905560015b6002546004840180548554919260081c6001600160a01b0390811692911690823b156113775760645f9283604051958694859362324df160e51b8552600485015260248401528960448401525af180156132a157613263575b507fd144a4f5007e402179221b976303b0c6a84f7f8d6181b4163d18376f32eb96f991600560409260018060a01b0390541695015490825191825215156020820152a380f35b6040919550916132945f7fd144a4f5007e402179221b976303b0c6a84f7f8d6181b4163d18376f32eb96f9946134a3565b60055f969250509161321d565b6040513d5f823e3d90fd5b90506020813d6020116132eb575b816132c7602093836134a3565b8101031261137757519067ffffffffffffffff82168203611377579061319661318c565b3d91506132ba565b82546001600160a01b0316845286945060209093019260019283019201613169565b919293505f915f19915f9060078901915b83811061336857505050506004860180546001600160a01b03199081166001600160a01b039490941693841790915560058701919091558254161790556131c4565b613372818361368a565b905460039190911b1c6001600160a01b03165f818152602085905260409020548681106133a4575b5050600101613326565b909650945060015f61339a565b60405162461bcd60e51b8152602060048201526012602482015271109a59191a5b99c81b9bdd0818db1bdcd95960721b6044820152606490fd5b634e487b7160e01b5f52602160045260245ffd5b5060065481106130cf565b34611377575f366003190112611377576005545f19810191908211613430576020918152f35b634e487b7160e01b5f52601160045260245ffd5b600435906001600160a01b038216820361137757565b602435906001600160a01b038216820361137757565b90602080835192838152019201905f5b81811061348d5750505090565b8251845260209384019390920191600101613480565b90601f8019910116810190811067ffffffffffffffff8211176134c557604052565b634e487b7160e01b5f52604160045260245ffd5b67ffffffffffffffff81116134c557601f01601f191660200190565b81601f820112156113775780359061350c826134d9565b9261351a60405194856134a3565b8284526020838301011161137757815f926020809301838601378301015290565b90604060031983011261137757600435916024359067ffffffffffffffff82116113775761356b916004016134f5565b90565b6040906003190112611377576004359060243590565b90600182811c921680156135b2575b602083101461359e57565b634e487b7160e01b5f52602260045260245ffd5b91607f1691613593565b9060405191825f8254926135cf84613584565b808452936001811690811561363a57506001146135f6575b506135f4925003836134a3565b565b90505f9291925260205f20905f915b81831061361e5750509060206135f4928201015f6135e7565b6020919350806001915483858901015201910190918492613605565b9050602092506135f494915060ff191682840152151560051b8201015f6135e7565b805180835260209291819084018484015e5f828201840152601f01601f1916010190565b600411156133eb57565b805482101561369f575f5260205f2001905f90565b634e487b7160e01b5f52603260045260245ffd5b90602080835192838152019201905f5b8181106136d05750505090565b82516001600160a01b03168452602093840193909201916001016136c3565b9190820391821161343057565b1561370357565b60405162461bcd60e51b815260206004820152600f60248201526e2737ba103837ba1031b932b0ba37b960891b6044820152606490fd5b1561374157565b60405162461bcd60e51b815260206004820152601060248201526f125b9d985b1a590818de58db1948125160821b6044820152606490fd5b90604051918281549182825260208201905f5260205f20925f5b8181106137a85750506135f4925003836134a3565b8454835260019485019487945060209093019201613793565b156137c857565b60405162461bcd60e51b815260206004820152600e60248201526d125b9d985b1a59081c1bdd08125160921b6044820152606490fd5b1561380557565b60405162461bcd60e51b8152602060048201526012602482015271141bdd08191bd95cc81b9bdd08195e1a5cdd60721b6044820152606490fd5b1561384657565b60405162461bcd60e51b815260206004820152601360248201527226bab9ba10383937bb34b232903932b0b9b7b760691b6044820152606490fd5b90816020910312611377575180151581036113775790565b156138a057565b60405162461bcd60e51b815260206004820152600e60248201526d139bdd081c9959da5cdd195c995960921b6044820152606490fd5b5f1981146134305760010190565b90815491600160401b8310156134c557826104d29160016135f49501815561368a565b805490600160401b8210156134c557816105a69160016139299401815561368a565b9055565b1561393457565b60405162461bcd60e51b815260206004820152600f60248201526e496e76616c6964206164647265737360881b6044820152606490fd5b1561397257565b60405162461bcd60e51b815260206004820152600e60248201526d506f74206e6f742061637469766560901b6044820152606490fd5b156139af57565b60405162461bcd60e51b815260206004820152601060248201526f4379636c65206e6f742061637469766560801b6044820152606490fd5b90604051918281549182825260208201905f5260205f20925f5b818110613a165750506135f4925003836134a3565b84546001600160a01b0316835260019485019487945060209093019201613a01565b8181029291811591840414171561343057565b67ffffffffffffffff81116134c55760051b60200190565b90613a6d82613a4b565b613a7a60405191826134a3565b8281528092613a8b601f1991613a4b565b0190602036910137565b805182101561369f5760209160051b010190565b9190820180921161343057565b60ff60025416613ac257565b60405162461bcd60e51b815260206004820152601060248201526f14185d5cd8589b194e881c185d5cd95960821b6044820152606490fd5b5f546001600160a01b03163303613b0d57565b63118cdaa760e01b5f523360045260245ffd5b600260015414613b31576002600155565b60405162461bcd60e51b815260206004820152601f60248201527f5265656e7472616e637947756172643a207265656e7472616e742063616c6c006044820152606490fd5b805f52600860205260405f20805490815f52600760205260405f2090600c81019160ff835460081c16613dfc57613bb660038301546002840154906136ef565b9160018060a01b036004541694604051936256b70d60e61b85528760048601526024850152602084604481895afa9384156132a1575f94613dc8575b505f52600b60205260405f20548310613dc05760098201918254955f1987019680881161343057613c2288613a63565b94613c2c89613a63565b988015613dac5760048601545f9291890491906001600160a01b0316835b858110613d37575050505050508351613c68575b5050505050505050565b803b1561137757613cb5965f918983604051809b81958294630a73232360e41b8452600484015260606024840152613ca3606484018c6136b3565b83810360031901604485015290613470565b03925af19485156132a15784600b600e947ff571bb88b0ec5dc25398fc62c69d5970d50ea313a0a6596b0ca7f0197d37383f99604099613d27575b50015561010061ff001982541617905501613d0c838254613aa9565b90555182519182526020820152a25f80808080808080613c5e565b5f613d31916134a3565b5f613cf0565b8c8a83613d44848761368a565b905460039190911b1c6001600160a01b031603613d66575b5050600101613c4a565b9585613d9c82613da294869a613d9683613d8260019a8d61368a565b8b8060a01b0391549060031b1c1692613a95565b52613a95565b526138d6565b9490508c8a613d5c565b634e487b7160e01b5f52601260045260245ffd5b505050505050565b9093506020813d602011613df4575b81613de4602093836134a3565b810103126113775751925f613bf2565b3d9150613dd7565b5050505050565b6001810190825f528160205260405f2054155f14613e50578054600160401b8110156134c557613e3d6105a682600187940185558461368a565b905554915f5260205260405f2055600190565b5050505f9056fe8e743ffd44850982c7c022333e7c1998664b0922b1752e9aac27fac9b6f89d9d7f96bc980a59eef61959c0a70eb2e6be18cc58ac3af50711e397b0abdc5f8939a2646970667358221220026e22c4f17b708983e0fa84e8eeaa6d8e1896543bdc9e699d52eaf024a5d70764736f6c634300081e0033",
			"opcodes": "PUSH1 0x80 CALLVALUE PUSH2 0x212 JUMPI PUSH1 0x1F PUSH2 0x410C CODESIZE DUP2 SWAP1 SUB SWAP2 DUP3 ADD PUSH1 0x1F NOT AND DUP4 ADD SWAP2 PUSH1 0x1 PUSH1 0x1 PUSH1 0x40 SHL SUB DUP4 GT DUP5 DUP5 LT OR PUSH2 0x216 JUMPI DUP1 DUP5 SWAP3 PUSH1 0x60 SWAP5 PUSH1 0x40 MSTORE DUP4 CODECOPY DUP2 ADD SUB SLT PUSH2 0x212 JUMPI DUP1 MLOAD SWAP1 PUSH1 0x1 PUSH1 0x1 PUSH1 0xA0 SHL SUB DUP3 AND DUP1 DUP4 SUB PUSH2 0x212 JUMPI PUSH2 0x6A PUSH1 0x40 PUSH2 0x63 PUSH1 0x20 DUP6 ADD PUSH2 0x22A JUMP JUMPDEST SWAP4 ADD PUSH2 0x22A JUMP JUMPDEST SWAP2 CALLER ISZERO PUSH2 0x1FF JUMPI PUSH0 DUP1 SLOAD CALLER PUSH1 0x1 PUSH1 0x1 PUSH1 0xA0 SHL SUB NOT DUP3 AND DUP2 OR DUP4 SSTORE PUSH1 0x40 MLOAD SWAP3 SWAP1 SWAP2 PUSH1 0x1 PUSH1 0x1 PUSH1 0xA0 SHL SUB AND SWAP1 PUSH32 0x8BE0079C531659141344CD1FD0A4F28419497F9722A3DAAFE3B4186F6B6457E0 SWAP1 DUP1 LOG3 PUSH1 0x1 DUP1 SSTORE PUSH1 0x2 SLOAD SWAP3 PUSH1 0x1 PUSH1 0x5 SSTORE PUSH1 0x1 PUSH1 0x6 SSTORE ISZERO PUSH2 0x1BD JUMPI POP PUSH1 0x1 PUSH1 0x1 PUSH1 0xA0 SHL SUB AND SWAP2 DUP3 ISZERO PUSH2 0x178 JUMPI PUSH1 0x1 PUSH1 0x1 PUSH1 0xA0 SHL SUB AND SWAP3 DUP4 ISZERO PUSH2 0x142 JUMPI PUSH1 0x1 PUSH1 0x1 PUSH1 0xA8 SHL SUB NOT SWAP1 SWAP2 AND PUSH1 0x8 SWAP2 SWAP1 SWAP2 SHL PUSH2 0x100 PUSH1 0x1 PUSH1 0xA8 SHL SUB AND OR PUSH1 0x2 SSTORE PUSH1 0x3 DUP1 SLOAD PUSH1 0x1 PUSH1 0x1 PUSH1 0xA0 SHL SUB NOT SWAP1 DUP2 AND SWAP3 SWAP1 SWAP3 OR SWAP1 SSTORE PUSH1 0x4 DUP1 SLOAD SWAP1 SWAP2 AND SWAP2 SWAP1 SWAP2 OR SWAP1 SSTORE PUSH1 0x40 MLOAD PUSH2 0x3ECD SWAP1 DUP2 PUSH2 0x23F DUP3 CODECOPY RETURN JUMPDEST PUSH1 0x40 MLOAD PUSH3 0x461BCD PUSH1 0xE5 SHL DUP2 MSTORE PUSH1 0x20 PUSH1 0x4 DUP3 ADD MSTORE PUSH1 0xE PUSH1 0x24 DUP3 ADD MSTORE PUSH14 0x496E76616C696420657363726F77 PUSH1 0x90 SHL PUSH1 0x44 DUP3 ADD MSTORE PUSH1 0x64 SWAP1 REVERT JUMPDEST PUSH1 0x40 MLOAD PUSH3 0x461BCD PUSH1 0xE5 SHL DUP2 MSTORE PUSH1 0x20 PUSH1 0x4 DUP3 ADD MSTORE PUSH1 0x16 PUSH1 0x24 DUP3 ADD MSTORE PUSH32 0x496E76616C6964206C6F747465727920656E67696E6500000000000000000000 PUSH1 0x44 DUP3 ADD MSTORE PUSH1 0x64 SWAP1 REVERT JUMPDEST PUSH3 0x461BCD PUSH1 0xE5 SHL DUP2 MSTORE PUSH1 0x20 PUSH1 0x4 DUP3 ADD MSTORE PUSH1 0x16 PUSH1 0x24 DUP3 ADD MSTORE PUSH32 0x496E76616C6964206D656D626572206D616E6167657200000000000000000000 PUSH1 0x44 DUP3 ADD MSTORE PUSH1 0x64 SWAP1 REVERT JUMPDEST PUSH4 0x1E4FBDF7 PUSH1 0xE0 SHL PUSH0 MSTORE PUSH0 PUSH1 0x4 MSTORE PUSH1 0x24 PUSH0 REVERT JUMPDEST PUSH0 DUP1 REVERT JUMPDEST PUSH4 0x4E487B71 PUSH1 0xE0 SHL PUSH0 MSTORE PUSH1 0x41 PUSH1 0x4 MSTORE PUSH1 0x24 PUSH0 REVERT JUMPDEST MLOAD SWAP1 PUSH1 0x1 PUSH1 0x1 PUSH1 0xA0 SHL SUB DUP3 AND DUP3 SUB PUSH2 0x212 JUMPI JUMP INVALID PUSH1 0x80 DUP1 PUSH1 0x40 MSTORE PUSH1 0x4 CALLDATASIZE LT ISZERO PUSH2 0x52 JUMPI JUMPDEST POP CALLDATASIZE ISZERO PUSH2 0x50 JUMPI PUSH1 0x40 MLOAD PUSH3 0x461BCD PUSH1 0xE5 SHL DUP2 MSTORE PUSH1 0x20 PUSH1 0x4 DUP3 ADD MSTORE PUSH1 0x12 PUSH1 0x24 DUP3 ADD MSTORE PUSH18 0x119D5B98DD1A5BDB881B9BDD08199BDD5B99 PUSH1 0x72 SHL PUSH1 0x44 DUP3 ADD MSTORE PUSH1 0x64 SWAP1 REVERT JUMPDEST STOP JUMPDEST PUSH0 SWAP1 PUSH0 CALLDATALOAD PUSH1 0xE0 SHR SWAP1 DUP2 PUSH3 0x7D8C8B EQ PUSH2 0x340A JUMPI POP DUP1 PUSH3 0xC2943C EQ PUSH2 0x3083 JUMPI DUP1 PUSH4 0x201345D EQ PUSH2 0x3034 JUMPI DUP1 PUSH4 0x15979AEE EQ PUSH2 0x2EE6 JUMPI DUP1 PUSH4 0x1F20739F EQ PUSH2 0x2DF6 JUMPI DUP1 PUSH4 0x23CF447F EQ PUSH2 0x27FC JUMPI DUP1 PUSH4 0x356CAAA4 EQ PUSH2 0x2717 JUMPI DUP1 PUSH4 0x39C34BFE EQ PUSH2 0x266E JUMPI DUP1 PUSH4 0x3C69D7C2 EQ PUSH2 0x2610 JUMPI DUP1 PUSH4 0x3E1CD4AE EQ PUSH2 0x25E7 JUMPI DUP1 PUSH4 0x40879951 EQ PUSH2 0x100D JUMPI DUP1 PUSH4 0x48F470AD EQ PUSH2 0x251A JUMPI DUP1 PUSH4 0x4BD3AD78 EQ PUSH2 0x244E JUMPI DUP1 PUSH4 0x50C61D5A EQ PUSH2 0x2351 JUMPI DUP1 PUSH4 0x56FFB6C0 EQ PUSH2 0x2015 JUMPI DUP1 PUSH4 0x57C90DE5 EQ PUSH2 0x1D16 JUMPI DUP1 PUSH4 0x5B1194B2 EQ PUSH2 0x1C0D JUMPI DUP1 PUSH4 0x5C975ABB EQ PUSH2 0x1BEA JUMPI DUP1 PUSH4 0x68F17224 EQ PUSH2 0x1B93 JUMPI DUP1 PUSH4 0x6AE1DE11 EQ PUSH2 0x1B75 JUMPI DUP1 PUSH4 0x6E1E277B EQ PUSH2 0x1A16 JUMPI DUP1 PUSH4 0x715018A6 EQ PUSH2 0x19BC JUMPI DUP1 PUSH4 0x739CA188 EQ PUSH2 0x18B2 JUMPI DUP1 PUSH4 0x7519087B EQ PUSH2 0x17B0 JUMPI DUP1 PUSH4 0x7CD22238 EQ PUSH2 0x15B1 JUMPI DUP1 PUSH4 0x7E3A9901 EQ PUSH2 0x1477 JUMPI DUP1 PUSH4 0x831D49EF EQ PUSH2 0x1160 JUMPI DUP1 PUSH4 0x8B6A101A EQ PUSH2 0x110B JUMPI DUP1 PUSH4 0x8DA5CB5B EQ PUSH2 0x10E4 JUMPI DUP1 PUSH4 0x90886389 EQ PUSH2 0x10C6 JUMPI DUP1 PUSH4 0x9623DAA5 EQ PUSH2 0x10A8 JUMPI DUP1 PUSH4 0x9AA90366 EQ PUSH2 0x1079 JUMPI DUP1 PUSH4 0x9B14E048 EQ PUSH2 0x1057 JUMPI DUP1 PUSH4 0x9E1F4564 EQ PUSH2 0x100D JUMPI DUP1 PUSH4 0xA2D3DEEB EQ PUSH2 0xFA1 JUMPI DUP1 PUSH4 0xA358CA06 EQ PUSH2 0xEFA JUMPI DUP1 PUSH4 0xA3A3F244 EQ PUSH2 0xECD JUMPI DUP1 PUSH4 0xCAF273C5 EQ PUSH2 0xEA3 JUMPI DUP1 PUSH4 0xCC449105 EQ PUSH2 0xE08 JUMPI DUP1 PUSH4 0xCE190578 EQ PUSH2 0xD73 JUMPI DUP1 PUSH4 0xCE9FB3D7 EQ PUSH2 0xD1A JUMPI DUP1 PUSH4 0xD82CE19A EQ PUSH2 0xCDB JUMPI DUP1 PUSH4 0xE2FDCC17 EQ PUSH2 0xCB2 JUMPI DUP1 PUSH4 0xE50B9ECD EQ PUSH2 0x920 JUMPI DUP1 PUSH4 0xE879B475 EQ PUSH2 0x8BA JUMPI DUP1 PUSH4 0xEA0E35B1 EQ PUSH2 0x89E JUMPI DUP1 PUSH4 0xEC656ADB EQ PUSH2 0x70B JUMPI DUP1 PUSH4 0xEDEDB972 EQ PUSH2 0x3B2 JUMPI DUP1 PUSH4 0xF12D54D8 EQ PUSH2 0x357 JUMPI DUP1 PUSH4 0xF2FDE38B EQ PUSH2 0x2D1 JUMPI DUP1 PUSH4 0xF33FBAF3 EQ PUSH2 0x2B3 JUMPI PUSH4 0xF7988119 SUB PUSH2 0xF JUMPI CALLVALUE PUSH2 0x2B0 JUMPI DUP1 PUSH1 0x3 NOT CALLDATASIZE ADD SLT PUSH2 0x2B0 JUMPI PUSH1 0x20 PUSH1 0x40 MLOAD PUSH2 0xE10 DUP2 MSTORE RETURN JUMPDEST DUP1 REVERT JUMPDEST POP CALLVALUE PUSH2 0x2B0 JUMPI DUP1 PUSH1 0x3 NOT CALLDATASIZE ADD SLT PUSH2 0x2B0 JUMPI PUSH1 0x20 PUSH1 0x6 SLOAD PUSH1 0x40 MLOAD SWAP1 DUP2 MSTORE RETURN JUMPDEST POP CALLVALUE PUSH2 0x2B0 JUMPI PUSH1 0x20 CALLDATASIZE PUSH1 0x3 NOT ADD SLT PUSH2 0x2B0 JUMPI PUSH2 0x2EB PUSH2 0x3444 JUMP JUMPDEST PUSH2 0x2F3 PUSH2 0x3AFA JUMP JUMPDEST PUSH1 0x1 PUSH1 0x1 PUSH1 0xA0 SHL SUB AND DUP1 ISZERO PUSH2 0x343 JUMPI DUP2 SLOAD PUSH1 0x1 PUSH1 0x1 PUSH1 0xA0 SHL SUB NOT DUP2 AND DUP3 OR DUP4 SSTORE PUSH1 0x1 PUSH1 0x1 PUSH1 0xA0 SHL SUB AND PUSH32 0x8BE0079C531659141344CD1FD0A4F28419497F9722A3DAAFE3B4186F6B6457E0 DUP4 DUP1 LOG3 DUP1 RETURN JUMPDEST PUSH4 0x1E4FBDF7 PUSH1 0xE0 SHL DUP3 MSTORE PUSH1 0x4 DUP3 SWAP1 MSTORE PUSH1 0x24 DUP3 REVERT JUMPDEST POP CALLVALUE PUSH2 0x2B0 JUMPI DUP1 PUSH1 0x3 NOT CALLDATASIZE ADD SLT PUSH2 0x2B0 JUMPI PUSH2 0x370 PUSH2 0x3AFA JUMP JUMPDEST PUSH2 0x378 PUSH2 0x3AB6 JUMP JUMPDEST PUSH1 0x1 PUSH1 0xFF NOT PUSH1 0x2 SLOAD AND OR PUSH1 0x2 SSTORE PUSH32 0x62E78CEA01BEE320CD4E420270B5EA74000D11B0C9F74754EBDBFC544B05A258 PUSH1 0x20 PUSH1 0x40 MLOAD CALLER DUP2 MSTORE LOG1 DUP1 RETURN JUMPDEST POP CALLVALUE PUSH2 0x2B0 JUMPI PUSH1 0x20 CALLDATASIZE PUSH1 0x3 NOT ADD SLT PUSH2 0x2B0 JUMPI PUSH1 0x4 CALLDATALOAD DUP1 ISZERO ISZERO DUP1 PUSH2 0x700 JUMPI JUMPDEST PUSH2 0x3D9 SWAP1 PUSH2 0x37C1 JUMP JUMPDEST DUP1 DUP3 MSTORE PUSH1 0x7 PUSH1 0x20 MSTORE PUSH1 0x40 DUP3 KECCAK256 PUSH1 0x1 ADD SLOAD PUSH2 0x3FD SWAP1 PUSH1 0x1 PUSH1 0x1 PUSH1 0xA0 SHL SUB AND ISZERO ISZERO PUSH2 0x37FE JUMP JUMPDEST PUSH2 0x405 PUSH2 0x3AB6 JUMP JUMPDEST PUSH2 0x40D PUSH2 0x3B20 JUMP JUMPDEST DUP1 DUP3 MSTORE PUSH1 0x7 PUSH1 0x20 MSTORE PUSH1 0x40 DUP3 KECCAK256 SWAP1 DUP1 DUP4 MSTORE PUSH1 0x9 PUSH1 0x20 MSTORE PUSH1 0x40 DUP4 KECCAK256 PUSH1 0x1 DUP1 PUSH1 0xA0 SHL SUB CALLER AND PUSH0 MSTORE PUSH1 0x20 MSTORE PUSH1 0xFF PUSH1 0x40 PUSH0 KECCAK256 SLOAD AND ISZERO PUSH2 0x6CC JUMPI PUSH1 0x5 DUP3 ADD SLOAD PUSH2 0x687 JUMPI PUSH1 0x1 DUP3 ADD SLOAD PUSH1 0x1 PUSH1 0x1 PUSH1 0xA0 SHL SUB AND CALLER EQ PUSH2 0x64B JUMPI PUSH1 0x9 DUP4 SWAP3 ADD SWAP2 JUMPDEST DUP3 SLOAD DUP1 DUP3 LT ISZERO PUSH2 0x642 JUMPI PUSH2 0x479 DUP3 DUP6 PUSH2 0x368A JUMP JUMPDEST SWAP1 SLOAD PUSH1 0x3 SWAP2 SWAP1 SWAP2 SHL SHR PUSH1 0x1 PUSH1 0x1 PUSH1 0xA0 SHL SUB AND CALLER EQ PUSH2 0x49A JUMPI POP PUSH1 0x1 ADD PUSH2 0x465 JUMP JUMPDEST SWAP2 SWAP3 SWAP2 PUSH0 NOT DUP2 ADD SWAP1 DUP2 GT PUSH2 0x625 JUMPI SWAP1 PUSH2 0x4D2 PUSH2 0x4B9 PUSH2 0x4F6 SWAP4 DUP6 PUSH2 0x368A JUMP JUMPDEST SWAP1 SLOAD PUSH1 0x3 SWAP2 SWAP1 SWAP2 SHL SHR PUSH1 0x1 PUSH1 0x1 PUSH1 0xA0 SHL SUB AND SWAP2 DUP5 PUSH2 0x368A JUMP JUMPDEST DUP2 SLOAD PUSH1 0x1 PUSH1 0x1 PUSH1 0xA0 SHL SUB SWAP4 DUP5 AND PUSH1 0x3 SWAP3 SWAP1 SWAP3 SHL SWAP2 DUP3 SHL SWAP4 SWAP1 SWAP2 SHL NOT AND SWAP2 SWAP1 SWAP2 OR SWAP1 SSTORE JUMP JUMPDEST DUP1 SLOAD DUP1 ISZERO PUSH2 0x611 JUMPI PUSH0 NOT ADD SWAP1 PUSH2 0x50C DUP3 DUP3 PUSH2 0x368A JUMP JUMPDEST DUP2 SLOAD SWAP1 PUSH1 0x1 DUP1 PUSH1 0xA0 SHL SUB SWAP1 PUSH1 0x3 SHL SHL NOT AND SWAP1 SSTORE SSTORE JUMPDEST DUP1 DUP3 MSTORE PUSH1 0x9 PUSH1 0x20 SWAP1 DUP2 MSTORE PUSH1 0x40 DUP1 DUP5 KECCAK256 CALLER PUSH0 DUP2 DUP2 MSTORE SWAP2 DUP5 MSTORE SWAP1 DUP3 SWAP1 KECCAK256 DUP1 SLOAD PUSH1 0xFF NOT AND SWAP1 SSTORE DUP5 MSTORE PUSH1 0xA SWAP1 SWAP2 MSTORE DUP3 KECCAK256 SWAP1 DUP3 JUMPDEST DUP3 SLOAD DUP1 DUP3 LT ISZERO PUSH2 0x639 JUMPI DUP3 PUSH2 0x565 DUP4 DUP7 PUSH2 0x368A JUMP JUMPDEST SWAP1 SLOAD SWAP1 PUSH1 0x3 SHL SHR EQ PUSH2 0x57A JUMPI POP PUSH1 0x1 ADD PUSH2 0x550 JUMP JUMPDEST SWAP2 SWAP3 SWAP2 PUSH0 NOT DUP2 ADD SWAP1 DUP2 GT PUSH2 0x625 JUMPI PUSH2 0x5A6 PUSH2 0x598 PUSH2 0x5BC SWAP3 DUP6 PUSH2 0x368A JUMP JUMPDEST SWAP1 SLOAD SWAP1 PUSH1 0x3 SHL SHR SWAP3 DUP5 PUSH2 0x368A JUMP JUMPDEST DUP2 SWAP4 SWAP2 SLOAD SWAP1 PUSH1 0x3 SHL SWAP2 DUP3 SHL SWAP2 PUSH0 NOT SWAP1 SHL NOT AND OR SWAP1 JUMP JUMPDEST SWAP1 SSTORE DUP1 SLOAD DUP1 ISZERO PUSH2 0x611 JUMPI PUSH0 NOT ADD SWAP1 PUSH2 0x5D4 DUP3 DUP3 PUSH2 0x368A JUMP JUMPDEST DUP2 SLOAD SWAP1 PUSH0 NOT SWAP1 PUSH1 0x3 SHL SHL NOT AND SWAP1 SSTORE SSTORE JUMPDEST CALLER SWAP1 PUSH32 0x3F3F0688E94139802C3C8942D34E49CE129CC393DB2137E5291CD656438FE225 DUP4 DUP1 LOG3 PUSH1 0x1 DUP1 SSTORE DUP1 RETURN JUMPDEST PUSH4 0x4E487B71 PUSH1 0xE0 SHL DUP5 MSTORE PUSH1 0x31 PUSH1 0x4 MSTORE PUSH1 0x24 DUP5 REVERT JUMPDEST PUSH4 0x4E487B71 PUSH1 0xE0 SHL DUP6 MSTORE PUSH1 0x11 PUSH1 0x4 MSTORE PUSH1 0x24 DUP6 REVERT JUMPDEST POP POP SWAP1 POP PUSH2 0x5E4 JUMP JUMPDEST POP POP SWAP1 POP PUSH2 0x521 JUMP JUMPDEST PUSH1 0x40 MLOAD PUSH3 0x461BCD PUSH1 0xE5 SHL DUP2 MSTORE PUSH1 0x20 PUSH1 0x4 DUP3 ADD MSTORE PUSH1 0x14 PUSH1 0x24 DUP3 ADD MSTORE PUSH20 0x43726561746F722063616E6E6F74206C65617665 PUSH1 0x60 SHL PUSH1 0x44 DUP3 ADD MSTORE PUSH1 0x64 SWAP1 REVERT JUMPDEST PUSH1 0x40 MLOAD PUSH3 0x461BCD PUSH1 0xE5 SHL DUP2 MSTORE PUSH1 0x20 PUSH1 0x4 DUP3 ADD MSTORE PUSH1 0x1E PUSH1 0x24 DUP3 ADD MSTORE PUSH32 0x43616E6E6F74206C6561766520616674657220706F7420737461727465640000 PUSH1 0x44 DUP3 ADD MSTORE PUSH1 0x64 SWAP1 REVERT JUMPDEST PUSH1 0x40 MLOAD PUSH3 0x461BCD PUSH1 0xE5 SHL DUP2 MSTORE PUSH1 0x20 PUSH1 0x4 DUP3 ADD MSTORE PUSH1 0xC PUSH1 0x24 DUP3 ADD MSTORE PUSH12 0x2737BA10309036B2B6B132B9 PUSH1 0xA1 SHL PUSH1 0x44 DUP3 ADD MSTORE PUSH1 0x64 SWAP1 REVERT JUMPDEST POP PUSH1 0x5 SLOAD DUP2 LT PUSH2 0x3D0 JUMP JUMPDEST POP CALLVALUE PUSH2 0x2B0 JUMPI PUSH2 0x71A CALLDATASIZE PUSH2 0x353B JUMP JUMPDEST SWAP1 PUSH2 0x723 PUSH2 0x3AFA JUMP JUMPDEST DUP1 ISZERO ISZERO DUP1 PUSH2 0x893 JUMPI JUMPDEST PUSH2 0x735 SWAP1 PUSH2 0x373A JUMP JUMPDEST PUSH2 0x741 DUP3 MLOAD ISZERO ISZERO PUSH2 0x383F JUMP JUMPDEST DUP1 DUP4 MSTORE PUSH1 0x8 PUSH1 0x20 MSTORE PUSH1 0x40 DUP4 KECCAK256 SWAP1 PUSH1 0x6 DUP3 ADD PUSH1 0xFF DUP2 SLOAD PUSH1 0xA0 SHR AND PUSH1 0x5 DUP2 LT ISZERO PUSH2 0x87F JUMPI SWAP1 PUSH1 0x3 DUP7 SWAP4 SWAP3 SUB PUSH2 0x7D4 JUMPI JUMPDEST POP POP POP PUSH2 0x7CE PUSH0 MLOAD PUSH1 0x20 PUSH2 0x3E78 PUSH0 CODECOPY PUSH0 MLOAD SWAP1 PUSH0 MSTORE SWAP2 SLOAD SWAP3 PUSH1 0x40 MLOAD SWAP2 DUP3 SWAP2 PUSH1 0x40 DUP4 MSTORE PUSH1 0x18 PUSH1 0x40 DUP5 ADD MSTORE PUSH32 0x454D455247454E43595F434F4D504C4554455F4359434C450000000000000000 PUSH1 0x60 DUP5 ADD MSTORE PUSH1 0x80 PUSH1 0x20 DUP5 ADD MSTORE PUSH1 0x80 DUP4 ADD SWAP1 PUSH2 0x365C JUMP JUMPDEST SUB SWAP1 LOG2 DUP1 RETURN JUMPDEST DUP1 SLOAD PUSH1 0xFF PUSH1 0xA0 SHL NOT AND PUSH1 0x3 PUSH1 0xA0 SHL OR SWAP1 SSTORE PUSH1 0x4 SLOAD PUSH1 0x1 PUSH1 0x1 PUSH1 0xA0 SHL SUB AND SWAP1 DUP2 EXTCODESIZE ISZERO PUSH2 0x870 JUMPI DUP3 SWAP2 PUSH1 0x24 DUP4 SWAP3 PUSH1 0x40 MLOAD SWAP5 DUP6 SWAP4 DUP5 SWAP3 PUSH4 0x15BFEDB PUSH1 0xE6 SHL DUP5 MSTORE PUSH1 0x4 DUP5 ADD MSTORE GAS CALL DUP1 ISZERO PUSH2 0x874 JUMPI PUSH2 0x85B JUMPI JUMPDEST POP POP PUSH2 0x7CE DUP2 PUSH0 MLOAD PUSH1 0x20 PUSH2 0x3E78 PUSH0 CODECOPY PUSH0 MLOAD SWAP1 PUSH0 MSTORE SWAP3 SLOAD DUP6 MSTORE PUSH1 0x7 PUSH1 0x20 MSTORE PUSH1 0x5 PUSH1 0x40 DUP7 KECCAK256 ADD PUSH2 0x851 DUP2 SLOAD PUSH2 0x38D6 JUMP JUMPDEST SWAP1 SSTORE SWAP2 DUP5 SWAP2 PUSH2 0x76F JUMP JUMPDEST DUP2 PUSH2 0x865 SWAP2 PUSH2 0x34A3 JUMP JUMPDEST PUSH2 0x870 JUMPI DUP3 PUSH0 PUSH2 0x823 JUMP JUMPDEST DUP3 DUP1 REVERT JUMPDEST PUSH1 0x40 MLOAD RETURNDATASIZE DUP5 DUP3 RETURNDATACOPY RETURNDATASIZE SWAP1 REVERT JUMPDEST PUSH4 0x4E487B71 PUSH1 0xE0 SHL DUP7 MSTORE PUSH1 0x21 PUSH1 0x4 MSTORE PUSH1 0x24 DUP7 REVERT JUMPDEST POP PUSH1 0x6 SLOAD DUP2 LT PUSH2 0x72C JUMP JUMPDEST POP CALLVALUE PUSH2 0x2B0 JUMPI DUP1 PUSH1 0x3 NOT CALLDATASIZE ADD SLT PUSH2 0x2B0 JUMPI PUSH1 0x20 PUSH1 0x40 MLOAD PUSH1 0x64 DUP2 MSTORE RETURN JUMPDEST POP CALLVALUE PUSH2 0x2B0 JUMPI PUSH1 0x40 CALLDATASIZE PUSH1 0x3 NOT ADD SLT PUSH2 0x2B0 JUMPI PUSH1 0x7 PUSH1 0x40 PUSH1 0x4 CALLDATALOAD SWAP3 PUSH2 0x8DC PUSH2 0x345A JUMP JUMPDEST SWAP4 DUP1 ISZERO ISZERO DUP1 PUSH2 0x915 JUMPI JUMPDEST PUSH2 0x8EF SWAP1 PUSH2 0x373A JUMP JUMPDEST DUP2 MSTORE PUSH1 0x8 PUSH1 0x20 MSTORE KECCAK256 ADD SWAP1 PUSH1 0x1 DUP1 PUSH1 0xA0 SHL SUB AND PUSH0 MSTORE PUSH1 0x20 MSTORE PUSH1 0x20 PUSH1 0x40 PUSH0 KECCAK256 SLOAD PUSH1 0x40 MLOAD SWAP1 DUP2 MSTORE RETURN JUMPDEST POP PUSH1 0x6 SLOAD DUP2 LT PUSH2 0x8E6 JUMP JUMPDEST POP CALLVALUE PUSH2 0x2B0 JUMPI PUSH1 0x20 CALLDATASIZE PUSH1 0x3 NOT ADD SLT PUSH2 0x2B0 JUMPI PUSH1 0x4 CALLDATALOAD DUP1 DUP3 MSTORE PUSH1 0x7 PUSH1 0x20 MSTORE PUSH2 0x957 PUSH1 0x1 DUP1 PUSH1 0xA0 SHL SUB PUSH1 0x1 PUSH1 0x40 DUP6 KECCAK256 ADD SLOAD AND CALLER EQ PUSH2 0x36FC JUMP JUMPDEST DUP1 ISZERO ISZERO DUP1 PUSH2 0xCA7 JUMPI JUMPDEST PUSH2 0x969 SWAP1 PUSH2 0x37C1 JUMP JUMPDEST DUP1 DUP3 MSTORE PUSH1 0x7 PUSH1 0x20 MSTORE PUSH1 0x40 DUP3 KECCAK256 PUSH1 0x1 ADD SLOAD PUSH2 0x98D SWAP1 PUSH1 0x1 PUSH1 0x1 PUSH1 0xA0 SHL SUB AND ISZERO ISZERO PUSH2 0x37FE JUMP JUMPDEST PUSH2 0x995 PUSH2 0x3AB6 JUMP JUMPDEST PUSH2 0x99D PUSH2 0x3B20 JUMP JUMPDEST DUP1 DUP3 MSTORE PUSH1 0x7 PUSH1 0x20 MSTORE PUSH1 0x40 DUP3 KECCAK256 SWAP1 PUSH2 0x9C4 PUSH1 0xFF PUSH1 0x8 DUP5 ADD SLOAD AND PUSH2 0x9BE DUP2 PUSH2 0x3680 JUMP JUMPDEST ISZERO PUSH2 0x396B JUMP JUMPDEST PUSH1 0x9 DUP3 ADD SWAP1 DUP2 SLOAD PUSH1 0xC DUP5 ADD SLOAD GT PUSH2 0xC6D JUMPI PUSH1 0x5 DUP4 ADD SLOAD PUSH1 0x4 DUP5 ADD SLOAD GT ISZERO PUSH2 0xC31 JUMPI SWAP2 DUP4 DUP1 SWAP4 PUSH1 0x6 SLOAD SWAP3 PUSH2 0x9F6 DUP5 PUSH2 0x38D6 JUMP JUMPDEST PUSH1 0x6 SSTORE DUP4 DUP4 MSTORE PUSH1 0x8 PUSH1 0x20 MSTORE PUSH1 0x40 DUP4 KECCAK256 SWAP1 DUP3 DUP3 SSTORE DUP5 PUSH1 0x1 DUP4 ADD SSTORE PUSH1 0x2 DUP3 ADD TIMESTAMP DUP2 SSTORE PUSH2 0xA24 PUSH1 0x3 DUP4 ADD SLOAD TIMESTAMP PUSH2 0x3AA9 JUMP JUMPDEST PUSH1 0x3 DUP5 ADD SWAP1 DUP2 SSTORE PUSH1 0x6 DUP5 ADD DUP1 SLOAD PUSH1 0xFF PUSH1 0xA0 SHL NOT AND PUSH1 0x1 PUSH1 0xA0 SHL OR SWAP1 SSTORE SWAP2 PUSH2 0xA4E DUP8 PUSH1 0xA DUP4 ADD PUSH2 0x3907 JUMP JUMPDEST PUSH2 0xA57 DUP9 PUSH2 0x39E7 JUMP JUMPDEST SWAP3 PUSH2 0xA62 DUP5 MLOAD PUSH2 0x3A63 JUMP JUMPDEST SWAP3 DUP8 SWAP6 PUSH1 0x1 PUSH1 0x2 DUP6 ADD SWAP5 ADD SWAP7 JUMPDEST DUP7 MLOAD DUP2 LT ISZERO PUSH2 0xB45 JUMPI DUP5 SLOAD DUP1 PUSH2 0xA85 DUP4 DUP10 PUSH2 0x3A95 JUMP JUMPDEST MSTORE PUSH1 0x2 SLOAD PUSH1 0x8 SHR PUSH1 0x1 PUSH1 0x1 PUSH1 0xA0 SHL SUB SWAP1 DUP2 AND SWAP2 SWAP1 PUSH2 0xAA3 DUP5 DUP12 PUSH2 0x3A95 JUMP JUMPDEST MLOAD AND SWAP2 PUSH1 0x1 PUSH1 0x1 PUSH1 0xA0 SHL SUB PUSH2 0xAB8 DUP6 DUP13 PUSH2 0x3A95 JUMP JUMPDEST MLOAD DUP13 SLOAD PUSH1 0x1 PUSH1 0x1 PUSH1 0xA0 SHL SUB AND SWAP2 AND EQ DUP2 EXTCODESIZE ISZERO PUSH2 0xB41 JUMPI DUP15 SWAP4 DUP15 DUP15 SWAP4 PUSH1 0xA4 SWAP4 DUP3 SWAP7 PUSH1 0x40 MLOAD SWAP9 DUP10 SWAP8 DUP9 SWAP7 PUSH4 0xDB151C07 PUSH1 0xE0 SHL DUP9 MSTORE PUSH1 0x4 DUP9 ADD MSTORE PUSH1 0x24 DUP8 ADD MSTORE PUSH1 0x44 DUP7 ADD MSTORE PUSH1 0x64 DUP6 ADD MSTORE PUSH1 0x84 DUP5 ADD MSTORE GAS CALL SWAP1 DUP2 ISZERO PUSH2 0xB36 JUMPI DUP12 SWAP2 PUSH2 0xB1D JUMPI JUMPDEST POP POP PUSH1 0x1 ADD PUSH2 0xA6F JUMP JUMPDEST DUP2 PUSH2 0xB27 SWAP2 PUSH2 0x34A3 JUMP JUMPDEST PUSH2 0xB32 JUMPI DUP10 DUP15 PUSH2 0xB13 JUMP JUMPDEST DUP10 DUP1 REVERT JUMPDEST PUSH1 0x40 MLOAD RETURNDATASIZE DUP14 DUP3 RETURNDATACOPY RETURNDATASIZE SWAP1 REVERT JUMPDEST DUP14 DUP1 REVERT JUMPDEST POP SWAP2 SWAP4 SWAP5 DUP10 SWAP7 POP PUSH2 0xB5C DUP12 DUP11 SWAP4 SWAP6 SLOAD SWAP1 SLOAD SWAP1 PUSH2 0x3A38 JUMP JUMPDEST SWAP6 PUSH1 0x1 DUP1 PUSH1 0xA0 SHL SUB PUSH1 0x4 SLOAD AND SWAP2 DUP3 EXTCODESIZE ISZERO PUSH2 0xC2D JUMPI PUSH2 0xBAB SWAP3 DUP10 DUP10 DUP13 PUSH2 0xBBD DUP9 SWAP7 PUSH1 0x40 MLOAD SWAP9 DUP10 SWAP8 DUP9 SWAP7 DUP8 SWAP6 PUSH4 0x1DDFA365 PUSH1 0xE0 SHL DUP8 MSTORE PUSH1 0x4 DUP8 ADD MSTORE PUSH1 0x24 DUP7 ADD MSTORE PUSH1 0x80 PUSH1 0x44 DUP7 ADD MSTORE PUSH1 0x84 DUP6 ADD SWAP1 PUSH2 0x36B3 JUMP JUMPDEST DUP4 DUP2 SUB PUSH1 0x3 NOT ADD PUSH1 0x64 DUP6 ADD MSTORE SWAP1 PUSH2 0x3470 JUMP JUMPDEST SUB SWAP3 GAS CALL DUP1 ISZERO PUSH2 0x874 JUMPI PUSH2 0xC0E JUMPI JUMPDEST POP POP SWAP1 PUSH32 0xD236B808A7EA200D11FBF432515050A0031A43723D0285DEE3DBB388EEC2E494 SWAP4 PUSH1 0xA PUSH1 0x40 SWAP5 SWAP4 ADD SSTORE SLOAD SWAP1 SLOAD DUP3 MLOAD SWAP2 DUP3 MSTORE PUSH1 0x20 DUP3 ADD MSTORE LOG3 PUSH1 0x1 DUP1 SSTORE DUP1 RETURN JUMPDEST DUP2 PUSH2 0xC1C SWAP2 SWAP6 SWAP5 SWAP4 SWAP6 PUSH2 0x34A3 JUMP JUMPDEST PUSH2 0xC29 JUMPI SWAP1 SWAP2 DUP7 DUP9 PUSH2 0xBCC JUMP JUMPDEST DUP7 DUP1 REVERT JUMPDEST DUP4 DUP1 REVERT JUMPDEST PUSH1 0x40 MLOAD PUSH3 0x461BCD PUSH1 0xE5 SHL DUP2 MSTORE PUSH1 0x20 PUSH1 0x4 DUP3 ADD MSTORE PUSH1 0x14 PUSH1 0x24 DUP3 ADD MSTORE PUSH20 0x105B1B0818DE58DB195CC818DBDB5C1B195D1959 PUSH1 0x62 SHL PUSH1 0x44 DUP3 ADD MSTORE PUSH1 0x64 SWAP1 REVERT JUMPDEST PUSH1 0x40 MLOAD PUSH3 0x461BCD PUSH1 0xE5 SHL DUP2 MSTORE PUSH1 0x20 PUSH1 0x4 DUP3 ADD MSTORE PUSH1 0x12 PUSH1 0x24 DUP3 ADD MSTORE PUSH18 0x4E6F7420656E6F756768206D656D62657273 PUSH1 0x70 SHL PUSH1 0x44 DUP3 ADD MSTORE PUSH1 0x64 SWAP1 REVERT JUMPDEST POP PUSH1 0x5 SLOAD DUP2 LT PUSH2 0x960 JUMP JUMPDEST POP CALLVALUE PUSH2 0x2B0 JUMPI DUP1 PUSH1 0x3 NOT CALLDATASIZE ADD SLT PUSH2 0x2B0 JUMPI PUSH1 0x4 SLOAD PUSH1 0x40 MLOAD PUSH1 0x1 PUSH1 0x1 PUSH1 0xA0 SHL SUB SWAP1 SWAP2 AND DUP2 MSTORE PUSH1 0x20 SWAP1 RETURN JUMPDEST POP CALLVALUE PUSH2 0x2B0 JUMPI DUP1 PUSH1 0x3 NOT CALLDATASIZE ADD SLT PUSH2 0x2B0 JUMPI PUSH1 0x6 SLOAD PUSH0 NOT DUP2 ADD SWAP2 SWAP1 DUP3 GT PUSH2 0xD06 JUMPI PUSH1 0x20 DUP3 PUSH1 0x40 MLOAD SWAP1 DUP2 MSTORE RETURN JUMPDEST PUSH4 0x4E487B71 PUSH1 0xE0 SHL DUP2 MSTORE PUSH1 0x11 PUSH1 0x4 MSTORE PUSH1 0x24 SWAP1 REVERT JUMPDEST POP CALLVALUE PUSH2 0x2B0 JUMPI PUSH1 0x20 CALLDATASIZE PUSH1 0x3 NOT ADD SLT PUSH2 0x2B0 JUMPI PUSH1 0x4 CALLDATALOAD PUSH1 0x1 PUSH1 0x1 PUSH1 0xA0 SHL SUB DUP2 AND SWAP1 DUP2 SWAP1 SUB PUSH2 0xD6F JUMPI PUSH2 0xD49 PUSH2 0x3AFA JUMP JUMPDEST PUSH2 0xD54 DUP2 ISZERO ISZERO PUSH2 0x392D JUMP JUMPDEST PUSH12 0xFFFFFFFFFFFFFFFFFFFFFFFF PUSH1 0xA0 SHL PUSH1 0x3 SLOAD AND OR PUSH1 0x3 SSTORE DUP1 RETURN JUMPDEST POP DUP1 REVERT JUMPDEST POP CALLVALUE PUSH2 0x2B0 JUMPI DUP1 PUSH1 0x3 NOT CALLDATASIZE ADD SLT PUSH2 0x2B0 JUMPI PUSH2 0xD8C PUSH2 0x3AFA JUMP JUMPDEST PUSH1 0x2 SLOAD PUSH1 0xFF DUP2 AND ISZERO PUSH2 0xDCC JUMPI PUSH1 0xFF NOT AND PUSH1 0x2 SSTORE PUSH32 0x5DB9EE0A495BF2E6FF9C91A7834C1BA4FDD244A5E8AA4E537BD38AEAE4B073AA PUSH1 0x20 PUSH1 0x40 MLOAD CALLER DUP2 MSTORE LOG1 DUP1 RETURN JUMPDEST PUSH1 0x40 MLOAD PUSH3 0x461BCD PUSH1 0xE5 SHL DUP2 MSTORE PUSH1 0x20 PUSH1 0x4 DUP3 ADD MSTORE PUSH1 0x14 PUSH1 0x24 DUP3 ADD MSTORE PUSH20 0x14185D5CD8589B194E881B9BDD081C185D5CD959 PUSH1 0x62 SHL PUSH1 0x44 DUP3 ADD MSTORE PUSH1 0x64 SWAP1 REVERT JUMPDEST POP CALLVALUE PUSH2 0x2B0 JUMPI PUSH1 0x20 CALLDATASIZE PUSH1 0x3 NOT ADD SLT PUSH2 0x2B0 JUMPI PUSH1 0x4 CALLDATALOAD DUP1 ISZERO ISZERO DUP1 PUSH2 0xE98 JUMPI JUMPDEST PUSH2 0xE2F SWAP1 PUSH2 0x373A JUMP JUMPDEST DUP2 MSTORE PUSH1 0x8 PUSH1 0x20 MSTORE PUSH1 0x8 PUSH1 0x40 DUP3 KECCAK256 ADD DUP1 SLOAD SWAP1 PUSH2 0xE49 DUP3 PUSH2 0x3A63 JUMP JUMPDEST SWAP3 JUMPDEST DUP3 DUP2 LT PUSH2 0xE6C JUMPI PUSH1 0x40 MLOAD PUSH1 0x20 DUP1 DUP3 MSTORE DUP2 SWAP1 PUSH2 0xE68 SWAP1 DUP3 ADD DUP8 PUSH2 0x36B3 JUMP JUMPDEST SUB SWAP1 RETURN JUMPDEST DUP1 PUSH2 0xE79 PUSH1 0x1 SWAP3 DUP5 PUSH2 0x368A JUMP JUMPDEST DUP4 DUP1 PUSH1 0xA0 SHL SUB SWAP2 SLOAD SWAP1 PUSH1 0x3 SHL SHR AND PUSH2 0xE91 DUP3 DUP8 PUSH2 0x3A95 JUMP JUMPDEST MSTORE ADD PUSH2 0xE4B JUMP JUMPDEST POP PUSH1 0x6 SLOAD DUP2 LT PUSH2 0xE26 JUMP JUMPDEST POP CALLVALUE PUSH2 0x2B0 JUMPI PUSH1 0x20 CALLDATASIZE PUSH1 0x3 NOT ADD SLT PUSH2 0x2B0 JUMPI PUSH1 0x40 PUSH1 0x20 SWAP2 PUSH1 0x4 CALLDATALOAD DUP2 MSTORE PUSH1 0xB DUP4 MSTORE KECCAK256 SLOAD PUSH1 0x40 MLOAD SWAP1 DUP2 MSTORE RETURN JUMPDEST POP CALLVALUE PUSH2 0x2B0 JUMPI DUP1 PUSH1 0x3 NOT CALLDATASIZE ADD SLT PUSH2 0x2B0 JUMPI PUSH1 0x2 SLOAD PUSH1 0x40 MLOAD PUSH1 0x8 SWAP2 SWAP1 SWAP2 SHR PUSH1 0x1 PUSH1 0x1 PUSH1 0xA0 SHL SUB AND DUP2 MSTORE PUSH1 0x20 SWAP1 RETURN JUMPDEST POP CALLVALUE PUSH2 0x2B0 JUMPI PUSH1 0x40 CALLDATASIZE PUSH1 0x3 NOT ADD SLT PUSH2 0x2B0 JUMPI PUSH1 0x4 CALLDATALOAD PUSH1 0x24 CALLDATALOAD DUP1 ISZERO ISZERO DUP2 SUB PUSH2 0x870 JUMPI DUP2 PUSH2 0xF93 SWAP3 DUP5 MSTORE PUSH1 0x7 PUSH1 0x20 MSTORE PUSH2 0xF41 PUSH1 0x1 DUP1 PUSH1 0xA0 SHL SUB PUSH1 0x1 PUSH1 0x40 DUP8 KECCAK256 ADD SLOAD AND CALLER EQ PUSH2 0x36FC JUMP JUMPDEST DUP1 ISZERO ISZERO DUP1 PUSH2 0xF96 JUMPI JUMPDEST PUSH2 0xF53 SWAP1 PUSH2 0x37C1 JUMP JUMPDEST DUP1 DUP5 MSTORE PUSH1 0x7 PUSH1 0x20 MSTORE PUSH1 0x40 DUP5 KECCAK256 PUSH1 0x1 ADD SLOAD PUSH2 0xF77 SWAP1 PUSH1 0x1 PUSH1 0x1 PUSH1 0xA0 SHL SUB AND ISZERO ISZERO PUSH2 0x37FE JUMP JUMPDEST DUP4 MSTORE PUSH1 0xC PUSH1 0x20 MSTORE PUSH1 0x40 DUP4 KECCAK256 SWAP1 PUSH1 0xFF DUP1 NOT DUP4 SLOAD AND SWAP2 ISZERO ISZERO AND OR SWAP1 SSTORE JUMP JUMPDEST DUP1 RETURN JUMPDEST POP PUSH1 0x5 SLOAD DUP2 LT PUSH2 0xF4A JUMP JUMPDEST POP CALLVALUE PUSH2 0x2B0 JUMPI PUSH1 0x20 CALLDATASIZE PUSH1 0x3 NOT ADD SLT PUSH2 0x2B0 JUMPI PUSH1 0x9 PUSH1 0x40 PUSH1 0x20 SWAP3 PUSH1 0x4 CALLDATALOAD DUP1 ISZERO ISZERO DUP1 PUSH2 0x1002 JUMPI JUMPDEST PUSH2 0xFCF SWAP1 PUSH2 0x37C1 JUMP JUMPDEST DUP1 DUP3 MSTORE PUSH1 0x7 DUP6 MSTORE DUP3 DUP3 KECCAK256 PUSH1 0x1 ADD SLOAD PUSH2 0xFF1 SWAP1 PUSH1 0x1 PUSH1 0x1 PUSH1 0xA0 SHL SUB AND ISZERO ISZERO PUSH2 0x37FE JUMP JUMPDEST DUP2 MSTORE PUSH1 0x7 DUP5 MSTORE KECCAK256 ADD SLOAD PUSH1 0x40 MLOAD SWAP1 DUP2 MSTORE RETURN JUMPDEST POP PUSH1 0x5 SLOAD DUP2 LT PUSH2 0xFC6 JUMP JUMPDEST POP CALLVALUE PUSH2 0x2B0 JUMPI PUSH1 0x40 CALLDATASIZE PUSH1 0x3 NOT ADD SLT PUSH2 0x2B0 JUMPI PUSH1 0x40 PUSH2 0x1029 PUSH2 0x345A JUMP JUMPDEST SWAP2 PUSH1 0x4 CALLDATALOAD DUP2 MSTORE PUSH1 0x9 PUSH1 0x20 MSTORE KECCAK256 SWAP1 PUSH1 0x1 DUP1 PUSH1 0xA0 SHL SUB AND PUSH0 MSTORE PUSH1 0x20 MSTORE PUSH1 0x20 PUSH1 0xFF PUSH1 0x40 PUSH0 KECCAK256 SLOAD AND PUSH1 0x40 MLOAD SWAP1 ISZERO ISZERO DUP2 MSTORE RETURN JUMPDEST POP CALLVALUE PUSH2 0x2B0 JUMPI DUP1 PUSH1 0x3 NOT CALLDATASIZE ADD SLT PUSH2 0x2B0 JUMPI PUSH1 0x20 PUSH1 0x40 MLOAD PUSH7 0x38D7EA4C68000 DUP2 MSTORE RETURN JUMPDEST POP CALLVALUE PUSH2 0x2B0 JUMPI PUSH1 0x20 CALLDATASIZE PUSH1 0x3 NOT ADD SLT PUSH2 0x2B0 JUMPI PUSH1 0xFF PUSH1 0x40 PUSH1 0x20 SWAP3 PUSH1 0x4 CALLDATALOAD DUP2 MSTORE PUSH1 0xC DUP5 MSTORE KECCAK256 SLOAD AND PUSH1 0x40 MLOAD SWAP1 ISZERO ISZERO DUP2 MSTORE RETURN JUMPDEST POP CALLVALUE PUSH2 0x2B0 JUMPI DUP1 PUSH1 0x3 NOT CALLDATASIZE ADD SLT PUSH2 0x2B0 JUMPI PUSH1 0x20 PUSH1 0x40 MLOAD PUSH3 0x15180 DUP2 MSTORE RETURN JUMPDEST POP CALLVALUE PUSH2 0x2B0 JUMPI DUP1 PUSH1 0x3 NOT CALLDATASIZE ADD SLT PUSH2 0x2B0 JUMPI PUSH1 0x20 PUSH1 0x40 MLOAD PUSH3 0x76A700 DUP2 MSTORE RETURN JUMPDEST POP CALLVALUE PUSH2 0x2B0 JUMPI DUP1 PUSH1 0x3 NOT CALLDATASIZE ADD SLT PUSH2 0x2B0 JUMPI SLOAD PUSH1 0x40 MLOAD PUSH1 0x1 PUSH1 0x1 PUSH1 0xA0 SHL SUB SWAP1 SWAP2 AND DUP2 MSTORE PUSH1 0x20 SWAP1 RETURN JUMPDEST POP CALLVALUE PUSH2 0x2B0 JUMPI PUSH1 0x20 CALLDATASIZE PUSH1 0x3 NOT ADD SLT PUSH2 0x2B0 JUMPI PUSH1 0x4 CALLDATALOAD PUSH1 0x1 PUSH1 0x1 PUSH1 0xA0 SHL SUB DUP2 AND SWAP1 DUP2 SWAP1 SUB PUSH2 0xD6F JUMPI PUSH2 0x113A PUSH2 0x3AFA JUMP JUMPDEST PUSH2 0x1145 DUP2 ISZERO ISZERO PUSH2 0x392D JUMP JUMPDEST PUSH12 0xFFFFFFFFFFFFFFFFFFFFFFFF PUSH1 0xA0 SHL PUSH1 0x4 SLOAD AND OR PUSH1 0x4 SSTORE DUP1 RETURN JUMPDEST POP CALLVALUE PUSH2 0x2B0 JUMPI PUSH1 0x20 CALLDATASIZE PUSH1 0x3 NOT ADD SLT PUSH2 0x2B0 JUMPI PUSH1 0x4 CALLDATALOAD PUSH1 0x24 PUSH1 0x20 PUSH1 0x1 DUP1 PUSH1 0xA0 SHL SUB PUSH1 0x2 SLOAD PUSH1 0x8 SHR AND PUSH1 0x40 MLOAD SWAP3 DUP4 DUP1 SWAP3 PUSH4 0xC3C5A547 PUSH1 0xE0 SHL DUP3 MSTORE CALLER PUSH1 0x4 DUP4 ADD MSTORE GAS STATICCALL DUP1 ISZERO PUSH2 0x146C JUMPI PUSH2 0x11B7 SWAP2 DUP5 SWAP2 PUSH2 0x143D JUMPI JUMPDEST POP PUSH2 0x3899 JUMP JUMPDEST DUP1 ISZERO ISZERO DUP1 PUSH2 0x1432 JUMPI JUMPDEST PUSH2 0x11C9 SWAP1 PUSH2 0x37C1 JUMP JUMPDEST DUP1 DUP3 MSTORE PUSH1 0x7 PUSH1 0x20 MSTORE PUSH1 0x40 DUP3 KECCAK256 PUSH1 0x1 ADD SLOAD PUSH2 0x11ED SWAP1 PUSH1 0x1 PUSH1 0x1 PUSH1 0xA0 SHL SUB AND ISZERO ISZERO PUSH2 0x37FE JUMP JUMPDEST PUSH2 0x11F5 PUSH2 0x3AB6 JUMP JUMPDEST PUSH2 0x11FD PUSH2 0x3B20 JUMP JUMPDEST DUP1 DUP3 MSTORE PUSH1 0x7 PUSH1 0x20 MSTORE PUSH1 0x40 DUP3 KECCAK256 PUSH2 0x121D PUSH1 0xFF PUSH1 0x8 DUP4 ADD SLOAD AND PUSH2 0x9BE DUP2 PUSH2 0x3680 JUMP JUMPDEST DUP2 DUP4 MSTORE PUSH1 0x9 PUSH1 0x20 SWAP1 DUP2 MSTORE PUSH1 0x40 DUP1 DUP6 KECCAK256 CALLER PUSH0 SWAP1 DUP2 MSTORE SWAP3 MSTORE SWAP1 KECCAK256 SLOAD PUSH1 0xFF AND PUSH2 0x13FC JUMPI PUSH1 0x9 DUP2 ADD SWAP1 DUP2 SLOAD PUSH1 0xD DUP3 ADD SLOAD GT ISZERO PUSH2 0x13C9 JUMPI PUSH1 0x5 ADD SLOAD PUSH2 0x138E JUMPI PUSH1 0x2 SLOAD PUSH1 0x40 MLOAD PUSH4 0x1D699F57 PUSH1 0xE2 SHL DUP2 MSTORE CALLER PUSH1 0x4 DUP3 ADD MSTORE SWAP1 PUSH1 0x20 SWAP1 DUP3 SWAP1 PUSH1 0x24 SWAP1 DUP3 SWAP1 PUSH1 0x8 SHR PUSH1 0x1 PUSH1 0x1 PUSH1 0xA0 SHL SUB AND GAS STATICCALL DUP1 ISZERO PUSH2 0x1383 JUMPI DUP5 SWAP1 PUSH2 0x134C JUMPI JUMPDEST PUSH1 0x32 SWAP2 POP LT PUSH2 0x1312 JUMPI PUSH2 0x12A7 SWAP1 CALLER SWAP1 PUSH2 0x38E4 JUMP JUMPDEST DUP1 DUP3 MSTORE PUSH1 0x9 PUSH1 0x20 MSTORE PUSH1 0x40 DUP3 KECCAK256 PUSH1 0x1 DUP1 PUSH1 0xA0 SHL SUB CALLER AND PUSH0 MSTORE PUSH1 0x20 MSTORE PUSH1 0x40 PUSH0 KECCAK256 PUSH1 0x1 PUSH1 0xFF NOT DUP3 SLOAD AND OR SWAP1 SSTORE CALLER DUP3 MSTORE PUSH1 0xA PUSH1 0x20 MSTORE PUSH2 0x12E5 DUP2 PUSH1 0x40 DUP5 KECCAK256 PUSH2 0x3907 JUMP JUMPDEST CALLER SWAP1 PUSH32 0x76D6778DD360E2F2A3C8495BE58957B0386725BC74904D097766DC05BFE82E88 DUP4 DUP1 LOG3 PUSH1 0x1 DUP1 SSTORE DUP1 RETURN JUMPDEST PUSH1 0x40 MLOAD PUSH3 0x461BCD PUSH1 0xE5 SHL DUP2 MSTORE PUSH1 0x20 PUSH1 0x4 DUP3 ADD MSTORE PUSH1 0x12 PUSH1 0x24 DUP3 ADD MSTORE PUSH18 0x52657075746174696F6E20746F6F206C6F77 PUSH1 0x70 SHL PUSH1 0x44 DUP3 ADD MSTORE PUSH1 0x64 SWAP1 REVERT JUMPDEST POP PUSH1 0x20 DUP2 RETURNDATASIZE PUSH1 0x20 GT PUSH2 0x137B JUMPI JUMPDEST DUP2 PUSH2 0x1366 PUSH1 0x20 SWAP4 DUP4 PUSH2 0x34A3 JUMP JUMPDEST DUP2 ADD SUB SLT PUSH2 0x1377 JUMPI PUSH1 0x32 SWAP1 MLOAD PUSH2 0x1293 JUMP JUMPDEST PUSH0 DUP1 REVERT JUMPDEST RETURNDATASIZE SWAP2 POP PUSH2 0x1359 JUMP JUMPDEST PUSH1 0x40 MLOAD RETURNDATASIZE DUP7 DUP3 RETURNDATACOPY RETURNDATASIZE SWAP1 REVERT JUMPDEST PUSH1 0x40 MLOAD PUSH3 0x461BCD PUSH1 0xE5 SHL DUP2 MSTORE PUSH1 0x20 PUSH1 0x4 DUP3 ADD MSTORE PUSH1 0x13 PUSH1 0x24 DUP3 ADD MSTORE PUSH19 0x141BDD08185B1C9958591E481CDD185C9D1959 PUSH1 0x6A SHL PUSH1 0x44 DUP3 ADD MSTORE PUSH1 0x64 SWAP1 REVERT JUMPDEST PUSH1 0x40 MLOAD PUSH3 0x461BCD PUSH1 0xE5 SHL DUP2 MSTORE PUSH1 0x20 PUSH1 0x4 DUP3 ADD MSTORE PUSH1 0xB PUSH1 0x24 DUP3 ADD MSTORE PUSH11 0x141BDD081A5CC8199D5B1B PUSH1 0xAA SHL PUSH1 0x44 DUP3 ADD MSTORE PUSH1 0x64 SWAP1 REVERT JUMPDEST PUSH1 0x40 MLOAD PUSH3 0x461BCD PUSH1 0xE5 SHL DUP2 MSTORE PUSH1 0x20 PUSH1 0x4 DUP3 ADD MSTORE PUSH1 0xE PUSH1 0x24 DUP3 ADD MSTORE PUSH14 0x105B1C9958591E481A9BDA5B9959 PUSH1 0x92 SHL PUSH1 0x44 DUP3 ADD MSTORE PUSH1 0x64 SWAP1 REVERT JUMPDEST POP PUSH1 0x5 SLOAD DUP2 LT PUSH2 0x11C0 JUMP JUMPDEST PUSH2 0x145F SWAP2 POP PUSH1 0x20 RETURNDATASIZE PUSH1 0x20 GT PUSH2 0x1465 JUMPI JUMPDEST PUSH2 0x1457 DUP2 DUP4 PUSH2 0x34A3 JUMP JUMPDEST DUP2 ADD SWAP1 PUSH2 0x3881 JUMP JUMPDEST PUSH0 PUSH2 0x11B1 JUMP JUMPDEST POP RETURNDATASIZE PUSH2 0x144D JUMP JUMPDEST PUSH1 0x40 MLOAD RETURNDATASIZE DUP6 DUP3 RETURNDATACOPY RETURNDATASIZE SWAP1 REVERT JUMPDEST POP CALLVALUE PUSH2 0x2B0 JUMPI PUSH1 0x20 CALLDATASIZE PUSH1 0x3 NOT ADD SLT PUSH2 0x2B0 JUMPI PUSH1 0x4 CALLDATALOAD DUP1 DUP3 MSTORE PUSH1 0x8 PUSH1 0x20 MSTORE PUSH1 0x40 DUP3 KECCAK256 SLOAD DUP3 MSTORE PUSH1 0x7 PUSH1 0x20 MSTORE PUSH2 0x14BA PUSH1 0x1 DUP1 PUSH1 0xA0 SHL SUB PUSH1 0x1 PUSH1 0x40 DUP6 KECCAK256 ADD SLOAD AND CALLER EQ PUSH2 0x36FC JUMP JUMPDEST DUP1 ISZERO ISZERO DUP1 PUSH2 0x15A6 JUMPI JUMPDEST PUSH2 0x14CC SWAP1 PUSH2 0x373A JUMP JUMPDEST PUSH2 0x14D4 PUSH2 0x3AB6 JUMP JUMPDEST DUP1 DUP3 MSTORE PUSH1 0x8 PUSH1 0x20 MSTORE PUSH1 0x40 DUP3 KECCAK256 PUSH1 0xFF PUSH1 0x6 DUP3 ADD SLOAD PUSH1 0xA0 SHR AND PUSH1 0x5 DUP2 LT ISZERO PUSH2 0x1592 JUMPI PUSH1 0x3 SUB PUSH2 0x1557 JUMPI PUSH1 0xC ADD SLOAD PUSH1 0x8 SHR PUSH1 0xFF AND PUSH2 0x1512 JUMPI PUSH2 0xF93 SWAP1 PUSH2 0x3B76 JUMP JUMPDEST PUSH1 0x40 MLOAD PUSH3 0x461BCD PUSH1 0xE5 SHL DUP2 MSTORE PUSH1 0x20 PUSH1 0x4 DUP3 ADD MSTORE PUSH1 0x19 PUSH1 0x24 DUP3 ADD MSTORE PUSH32 0x5969656C6420616C726561647920646973747269627574656400000000000000 PUSH1 0x44 DUP3 ADD MSTORE PUSH1 0x64 SWAP1 REVERT JUMPDEST PUSH1 0x40 MLOAD PUSH3 0x461BCD PUSH1 0xE5 SHL DUP2 MSTORE PUSH1 0x20 PUSH1 0x4 DUP3 ADD MSTORE PUSH1 0x13 PUSH1 0x24 DUP3 ADD MSTORE PUSH19 0x10DE58DB19481B9BDD0818DBDB5C1B195D1959 PUSH1 0x6A SHL PUSH1 0x44 DUP3 ADD MSTORE PUSH1 0x64 SWAP1 REVERT JUMPDEST PUSH4 0x4E487B71 PUSH1 0xE0 SHL DUP5 MSTORE PUSH1 0x21 PUSH1 0x4 MSTORE PUSH1 0x24 DUP5 REVERT JUMPDEST POP PUSH1 0x6 SLOAD DUP2 LT PUSH2 0x14C3 JUMP JUMPDEST POP CALLVALUE PUSH2 0x2B0 JUMPI PUSH1 0x60 CALLDATASIZE PUSH1 0x3 NOT ADD SLT PUSH2 0x2B0 JUMPI PUSH1 0x4 CALLDATALOAD PUSH2 0x15CE PUSH2 0x345A JUMP JUMPDEST SWAP1 PUSH1 0x44 CALLDATALOAD PUSH8 0xFFFFFFFFFFFFFFFF DUP2 GT PUSH2 0xC2D JUMPI PUSH2 0x15EF SWAP1 CALLDATASIZE SWAP1 PUSH1 0x4 ADD PUSH2 0x34F5 JUMP JUMPDEST SWAP2 PUSH2 0x15F8 PUSH2 0x3AFA JUMP JUMPDEST PUSH2 0x1600 PUSH2 0x3B20 JUMP JUMPDEST DUP2 ISZERO PUSH2 0x1776 JUMPI PUSH1 0x1 PUSH1 0x1 PUSH1 0xA0 SHL SUB AND DUP1 ISZERO PUSH2 0x173D JUMPI PUSH2 0x1621 DUP4 MLOAD ISZERO ISZERO PUSH2 0x383F JUMP JUMPDEST DUP2 SELFBALANCE LT PUSH2 0x1701 JUMPI DUP4 DUP1 DUP1 SWAP4 DUP2 SWAP4 GAS CALL RETURNDATASIZE ISZERO PUSH2 0x16FC JUMPI RETURNDATASIZE PUSH2 0x1640 DUP2 PUSH2 0x34D9 JUMP JUMPDEST SWAP1 PUSH2 0x164E PUSH1 0x40 MLOAD SWAP3 DUP4 PUSH2 0x34A3 JUMP JUMPDEST DUP2 MSTORE DUP4 PUSH1 0x20 RETURNDATASIZE SWAP3 ADD RETURNDATACOPY JUMPDEST ISZERO PUSH2 0x16B7 JUMPI PUSH0 MLOAD PUSH1 0x20 PUSH2 0x3E78 PUSH0 CODECOPY PUSH0 MLOAD SWAP1 PUSH0 MSTORE PUSH2 0x16AD DUP4 SWAP3 PUSH1 0x40 MLOAD SWAP2 DUP3 SWAP2 PUSH1 0x40 DUP4 MSTORE PUSH1 0x12 PUSH1 0x40 DUP5 ADD MSTORE PUSH18 0x454D455247454E43595F5749544844524157 PUSH1 0x70 SHL PUSH1 0x60 DUP5 ADD MSTORE PUSH1 0x80 PUSH1 0x20 DUP5 ADD MSTORE PUSH1 0x80 DUP4 ADD SWAP1 PUSH2 0x365C JUMP JUMPDEST SUB SWAP1 LOG2 PUSH1 0x1 DUP1 SSTORE DUP1 RETURN JUMPDEST PUSH1 0x40 MLOAD PUSH3 0x461BCD PUSH1 0xE5 SHL DUP2 MSTORE PUSH1 0x20 PUSH1 0x4 DUP3 ADD MSTORE PUSH1 0x1B PUSH1 0x24 DUP3 ADD MSTORE PUSH32 0x456D657267656E6379207769746864726177616C206661696C65640000000000 PUSH1 0x44 DUP3 ADD MSTORE PUSH1 0x64 SWAP1 REVERT JUMPDEST PUSH2 0x1658 JUMP JUMPDEST PUSH1 0x40 MLOAD PUSH3 0x461BCD PUSH1 0xE5 SHL DUP2 MSTORE PUSH1 0x20 PUSH1 0x4 DUP3 ADD MSTORE PUSH1 0x14 PUSH1 0x24 DUP3 ADD MSTORE PUSH20 0x496E73756666696369656E742062616C616E6365 PUSH1 0x60 SHL PUSH1 0x44 DUP3 ADD MSTORE PUSH1 0x64 SWAP1 REVERT JUMPDEST PUSH1 0x40 MLOAD PUSH3 0x461BCD PUSH1 0xE5 SHL DUP2 MSTORE PUSH1 0x20 PUSH1 0x4 DUP3 ADD MSTORE PUSH1 0x11 PUSH1 0x24 DUP3 ADD MSTORE PUSH17 0x125B9D985B1A59081C9958DA5C1A595B9D PUSH1 0x7A SHL PUSH1 0x44 DUP3 ADD MSTORE PUSH1 0x64 SWAP1 REVERT JUMPDEST PUSH1 0x40 MLOAD PUSH3 0x461BCD PUSH1 0xE5 SHL DUP2 MSTORE PUSH1 0x20 PUSH1 0x4 DUP3 ADD MSTORE PUSH1 0x12 PUSH1 0x24 DUP3 ADD MSTORE PUSH18 0x416D6F756E74206D757374206265203E203 PUSH1 0x74 SHL PUSH1 0x44 DUP3 ADD MSTORE PUSH1 0x64 SWAP1 REVERT JUMPDEST POP CALLVALUE PUSH2 0x2B0 JUMPI PUSH1 0x20 CALLDATASIZE PUSH1 0x3 NOT ADD SLT PUSH2 0x2B0 JUMPI PUSH1 0x4 CALLDATALOAD DUP1 DUP3 MSTORE PUSH1 0x7 PUSH1 0x20 MSTORE PUSH2 0x17E7 PUSH1 0x1 DUP1 PUSH1 0xA0 SHL SUB PUSH1 0x1 PUSH1 0x40 DUP6 KECCAK256 ADD SLOAD AND CALLER EQ PUSH2 0x36FC JUMP JUMPDEST DUP1 ISZERO ISZERO DUP1 PUSH2 0x18A7 JUMPI JUMPDEST PUSH2 0x17F9 SWAP1 PUSH2 0x37C1 JUMP JUMPDEST DUP1 DUP3 MSTORE PUSH1 0x7 PUSH1 0x20 MSTORE PUSH1 0x40 DUP3 KECCAK256 PUSH1 0x1 ADD SLOAD PUSH2 0x181D SWAP1 PUSH1 0x1 PUSH1 0x1 PUSH1 0xA0 SHL SUB AND ISZERO ISZERO PUSH2 0x37FE JUMP JUMPDEST DUP1 DUP3 MSTORE PUSH1 0x7 PUSH1 0x20 MSTORE PUSH1 0x1 PUSH1 0xFF PUSH1 0x8 PUSH1 0x40 DUP6 KECCAK256 ADD SLOAD AND PUSH2 0x183B DUP2 PUSH2 0x3680 JUMP JUMPDEST SUB PUSH2 0x1871 JUMPI DUP1 DUP3 MSTORE PUSH1 0x7 PUSH1 0x20 MSTORE PUSH1 0x8 PUSH1 0x40 DUP4 KECCAK256 ADD PUSH1 0xFF NOT DUP2 SLOAD AND SWAP1 SSTORE PUSH0 MLOAD PUSH1 0x20 PUSH2 0x3E58 PUSH0 CODECOPY PUSH0 MLOAD SWAP1 PUSH0 MSTORE PUSH1 0x20 PUSH1 0x40 MLOAD DUP5 DUP2 MSTORE LOG2 DUP1 RETURN JUMPDEST PUSH1 0x40 MLOAD PUSH3 0x461BCD PUSH1 0xE5 SHL DUP2 MSTORE PUSH1 0x20 PUSH1 0x4 DUP3 ADD MSTORE PUSH1 0xE PUSH1 0x24 DUP3 ADD MSTORE PUSH14 0x141BDD081B9BDD081C185D5CD959 PUSH1 0x92 SHL PUSH1 0x44 DUP3 ADD MSTORE PUSH1 0x64 SWAP1 REVERT JUMPDEST POP PUSH1 0x5 SLOAD DUP2 LT PUSH2 0x17F0 JUMP JUMPDEST POP CALLVALUE PUSH2 0x2B0 JUMPI PUSH2 0x18C1 CALLDATASIZE PUSH2 0x356E JUMP JUMPDEST SWAP2 SWAP1 DUP1 ISZERO ISZERO DUP1 PUSH2 0x19B1 JUMPI JUMPDEST PUSH2 0x18D5 SWAP1 PUSH2 0x37C1 JUMP JUMPDEST DUP1 DUP3 MSTORE PUSH1 0x7 PUSH1 0x20 MSTORE PUSH1 0x40 DUP3 KECCAK256 PUSH1 0x1 ADD SLOAD PUSH2 0x18F9 SWAP1 PUSH1 0x1 PUSH1 0x1 PUSH1 0xA0 SHL SUB AND ISZERO ISZERO PUSH2 0x37FE JUMP JUMPDEST DUP2 MSTORE PUSH1 0x7 PUSH1 0x20 MSTORE PUSH2 0x1917 PUSH1 0x40 DUP3 KECCAK256 PUSH1 0x9 PUSH1 0x2 DUP3 ADD SLOAD SWAP2 ADD SLOAD SWAP1 PUSH2 0x3A38 JUMP JUMPDEST PUSH1 0x4 DUP1 SLOAD PUSH1 0x40 MLOAD PUSH4 0x45C80801 PUSH1 0xE0 SHL DUP2 MSTORE SWAP2 PUSH1 0x20 SWAP2 DUP4 SWAP2 SWAP1 DUP3 SWAP1 PUSH1 0x1 PUSH1 0x1 PUSH1 0xA0 SHL SUB AND GAS STATICCALL SWAP3 DUP4 ISZERO PUSH2 0x19A5 JUMPI SWAP3 PUSH2 0x1970 JUMPI JUMPDEST PUSH1 0x20 PUSH4 0x1E13380 PUSH2 0x1967 DUP7 PUSH2 0x2710 PUSH2 0x1961 DUP9 DUP9 PUSH2 0x3A38 JUMP JUMPDEST DIV PUSH2 0x3A38 JUMP JUMPDEST DIV PUSH1 0x40 MLOAD SWAP1 DUP2 MSTORE RETURN JUMPDEST SWAP1 SWAP2 POP PUSH1 0x20 DUP2 RETURNDATASIZE PUSH1 0x20 GT PUSH2 0x199D JUMPI JUMPDEST DUP2 PUSH2 0x198C PUSH1 0x20 SWAP4 DUP4 PUSH2 0x34A3 JUMP JUMPDEST DUP2 ADD SUB SLT PUSH2 0x1377 JUMPI MLOAD SWAP1 PUSH1 0x20 PUSH2 0x1949 JUMP JUMPDEST RETURNDATASIZE SWAP2 POP PUSH2 0x197F JUMP JUMPDEST PUSH1 0x40 MLOAD SWAP1 RETURNDATASIZE SWAP1 DUP3 RETURNDATACOPY RETURNDATASIZE SWAP1 REVERT JUMPDEST POP PUSH1 0x5 SLOAD DUP2 LT PUSH2 0x18CC JUMP JUMPDEST POP CALLVALUE PUSH2 0x2B0 JUMPI DUP1 PUSH1 0x3 NOT CALLDATASIZE ADD SLT PUSH2 0x2B0 JUMPI PUSH2 0x19D5 PUSH2 0x3AFA JUMP JUMPDEST DUP1 SLOAD PUSH1 0x1 PUSH1 0x1 PUSH1 0xA0 SHL SUB NOT DUP2 AND DUP3 SSTORE DUP2 SWAP1 PUSH1 0x1 PUSH1 0x1 PUSH1 0xA0 SHL SUB AND PUSH32 0x8BE0079C531659141344CD1FD0A4F28419497F9722A3DAAFE3B4186F6B6457E0 DUP3 DUP1 LOG3 DUP1 RETURN JUMPDEST POP CALLVALUE PUSH2 0x2B0 JUMPI PUSH1 0x20 CALLDATASIZE PUSH1 0x3 NOT ADD SLT PUSH2 0x2B0 JUMPI PUSH1 0x4 CALLDATALOAD DUP1 ISZERO ISZERO DUP1 PUSH2 0x1B6A JUMPI JUMPDEST PUSH2 0x1A3D SWAP1 PUSH2 0x37C1 JUMP JUMPDEST DUP1 DUP3 MSTORE PUSH1 0x7 PUSH1 0x20 MSTORE PUSH1 0x40 DUP3 KECCAK256 PUSH1 0x1 ADD SLOAD PUSH2 0x1A61 SWAP1 PUSH1 0x1 PUSH1 0x1 PUSH1 0xA0 SHL SUB AND ISZERO ISZERO PUSH2 0x37FE JUMP JUMPDEST DUP2 MSTORE PUSH1 0x7 PUSH1 0x20 MSTORE PUSH1 0x40 SWAP1 KECCAK256 PUSH1 0x1 PUSH1 0xA0 SHL PUSH1 0x1 SWAP1 SUB PUSH1 0x1 DUP3 ADD SLOAD AND PUSH1 0x2 DUP3 ADD SLOAD SWAP2 PUSH1 0x3 DUP2 ADD SLOAD SWAP1 PUSH1 0x4 DUP2 ADD SLOAD SWAP2 PUSH1 0x5 DUP3 ADD SLOAD SWAP2 PUSH1 0x6 DUP2 ADD SLOAD PUSH1 0xFF AND SWAP4 PUSH1 0x7 DUP3 ADD SLOAD PUSH1 0x8 DUP4 ADD SLOAD PUSH1 0xFF AND SWAP1 PUSH1 0xE DUP5 ADD SLOAD SWAP7 PUSH1 0xF DUP6 ADD SLOAD PUSH1 0xFF AND SWAP7 PUSH2 0x1AC2 DUP7 PUSH2 0x35BC JUMP JUMPDEST SWAP5 PUSH2 0x1ACF PUSH1 0x9 DUP9 ADD PUSH2 0x39E7 JUMP JUMPDEST SWAP7 PUSH1 0xA ADD PUSH2 0x1ADC SWAP1 PUSH2 0x3779 JUMP JUMPDEST SWAP8 PUSH1 0x40 MLOAD SWAP13 DUP14 SWAP13 DUP14 SWAP9 PUSH2 0x1A0 DUP11 MSTORE PUSH2 0x1A0 DUP11 ADD PUSH2 0x1AF8 SWAP2 PUSH2 0x365C JUMP JUMPDEST SWAP9 PUSH1 0x20 ADD MSTORE PUSH1 0x40 DUP14 ADD MSTORE PUSH1 0x60 DUP13 ADD MSTORE PUSH1 0x80 DUP12 ADD MSTORE PUSH1 0xA0 DUP11 ADD MSTORE PUSH2 0x1B1A DUP2 PUSH2 0x3680 JUMP JUMPDEST PUSH1 0xC0 DUP10 ADD MSTORE PUSH1 0xE0 DUP9 ADD MSTORE PUSH2 0x1B2D DUP2 PUSH2 0x3680 JUMP JUMPDEST PUSH2 0x100 DUP8 ADD MSTORE DUP6 DUP2 SUB PUSH2 0x120 DUP8 ADD MSTORE PUSH2 0x1B45 SWAP2 PUSH2 0x36B3 JUMP JUMPDEST DUP5 DUP2 SUB PUSH2 0x140 DUP7 ADD MSTORE PUSH2 0x1B57 SWAP2 PUSH2 0x3470 JUMP JUMPDEST SWAP2 PUSH2 0x160 DUP5 ADD MSTORE ISZERO ISZERO PUSH2 0x180 DUP4 ADD MSTORE SUB SWAP1 RETURN JUMPDEST POP PUSH1 0x5 SLOAD DUP2 LT PUSH2 0x1A34 JUMP JUMPDEST POP CALLVALUE PUSH2 0x2B0 JUMPI DUP1 PUSH1 0x3 NOT CALLDATASIZE ADD SLT PUSH2 0x2B0 JUMPI PUSH1 0x20 PUSH1 0x5 SLOAD PUSH1 0x40 MLOAD SWAP1 DUP2 MSTORE RETURN JUMPDEST POP CALLVALUE PUSH2 0x2B0 JUMPI PUSH1 0x40 CALLDATASIZE PUSH1 0x3 NOT ADD SLT PUSH2 0x2B0 JUMPI PUSH2 0x1BAD PUSH2 0x3444 JUMP JUMPDEST PUSH1 0x1 PUSH1 0x1 PUSH1 0xA0 SHL SUB AND DUP2 MSTORE PUSH1 0xA PUSH1 0x20 MSTORE PUSH1 0x40 DUP2 KECCAK256 DUP1 SLOAD PUSH1 0x24 CALLDATALOAD SWAP3 SWAP1 DUP4 LT ISZERO PUSH2 0x2B0 JUMPI PUSH1 0x20 PUSH2 0x1BDB DUP5 DUP5 PUSH2 0x368A JUMP JUMPDEST SWAP1 SLOAD SWAP1 PUSH1 0x3 SHL SHR PUSH1 0x40 MLOAD SWAP1 DUP2 MSTORE RETURN JUMPDEST POP CALLVALUE PUSH2 0x2B0 JUMPI DUP1 PUSH1 0x3 NOT CALLDATASIZE ADD SLT PUSH2 0x2B0 JUMPI PUSH1 0x20 PUSH1 0xFF PUSH1 0x2 SLOAD AND PUSH1 0x40 MLOAD SWAP1 ISZERO ISZERO DUP2 MSTORE RETURN JUMPDEST POP CALLVALUE PUSH2 0x2B0 JUMPI PUSH1 0x20 CALLDATASIZE PUSH1 0x3 NOT ADD SLT PUSH2 0x2B0 JUMPI PUSH1 0x4 CALLDATALOAD DUP1 DUP3 MSTORE PUSH1 0x8 PUSH1 0x20 MSTORE PUSH1 0x40 DUP3 KECCAK256 SLOAD DUP3 MSTORE PUSH1 0x7 PUSH1 0x20 MSTORE PUSH2 0x1C50 PUSH1 0x1 DUP1 PUSH1 0xA0 SHL SUB PUSH1 0x1 PUSH1 0x40 DUP6 KECCAK256 ADD SLOAD AND CALLER EQ PUSH2 0x36FC JUMP JUMPDEST DUP1 ISZERO ISZERO DUP1 PUSH2 0x1D0B JUMPI JUMPDEST PUSH2 0x1C62 SWAP1 PUSH2 0x373A JUMP JUMPDEST PUSH2 0x1C6A PUSH2 0x3AB6 JUMP JUMPDEST DUP2 MSTORE PUSH1 0x8 PUSH1 0x20 MSTORE PUSH1 0x40 DUP2 KECCAK256 PUSH1 0x6 DUP2 ADD SWAP1 PUSH1 0xFF DUP3 SLOAD PUSH1 0xA0 SHR AND PUSH1 0x5 DUP2 LT ISZERO PUSH2 0x1592 JUMPI SWAP1 PUSH2 0x1C9B PUSH1 0x1 PUSH2 0x1CB7 SWAP4 EQ PUSH2 0x39A8 JUMP JUMPDEST PUSH1 0x3 DUP2 ADD SLOAD SWAP1 SLOAD DUP5 MSTORE PUSH1 0x7 PUSH1 0x20 MSTORE PUSH1 0x7 PUSH1 0x40 DUP6 KECCAK256 ADD SLOAD SWAP1 PUSH2 0x36EF JUMP JUMPDEST TIMESTAMP LT PUSH2 0x1CD1 JUMPI DUP1 SLOAD PUSH1 0xFF PUSH1 0xA0 SHL NOT AND PUSH1 0x1 PUSH1 0xA1 SHL OR SWAP1 SSTORE DUP1 RETURN JUMPDEST PUSH1 0x40 MLOAD PUSH3 0x461BCD PUSH1 0xE5 SHL DUP2 MSTORE PUSH1 0x20 PUSH1 0x4 DUP3 ADD MSTORE PUSH1 0x12 PUSH1 0x24 DUP3 ADD MSTORE PUSH18 0x546F6F206561726C7920746F20636C6F7365 PUSH1 0x70 SHL PUSH1 0x44 DUP3 ADD MSTORE PUSH1 0x64 SWAP1 REVERT JUMPDEST POP PUSH1 0x6 SLOAD DUP2 LT PUSH2 0x1C59 JUMP JUMPDEST POP PUSH2 0x1D20 CALLDATASIZE PUSH2 0x356E JUMP JUMPDEST PUSH1 0x2 SLOAD PUSH1 0x40 MLOAD PUSH4 0xC3C5A547 PUSH1 0xE0 SHL DUP2 MSTORE CALLER PUSH1 0x4 DUP3 ADD MSTORE SWAP2 SWAP3 SWAP2 SWAP1 PUSH1 0x20 SWAP1 DUP3 SWAP1 PUSH1 0x24 SWAP1 DUP3 SWAP1 PUSH1 0x8 SHR PUSH1 0x1 PUSH1 0x1 PUSH1 0xA0 SHL SUB AND GAS STATICCALL DUP1 ISZERO PUSH2 0x1383 JUMPI PUSH2 0x1D68 SWAP2 DUP6 SWAP2 PUSH2 0x143D JUMPI POP PUSH2 0x3899 JUMP JUMPDEST DUP1 ISZERO ISZERO DUP1 PUSH2 0x200A JUMPI JUMPDEST PUSH2 0x1D7A SWAP1 PUSH2 0x373A JUMP JUMPDEST PUSH2 0x1D82 PUSH2 0x3AB6 JUMP JUMPDEST PUSH2 0x1D8A PUSH2 0x3B20 JUMP JUMPDEST DUP1 DUP4 MSTORE PUSH1 0x8 PUSH1 0x20 MSTORE PUSH1 0x40 DUP4 KECCAK256 DUP1 SLOAD DUP1 DUP6 MSTORE PUSH1 0x7 PUSH1 0x20 MSTORE PUSH1 0x40 DUP6 KECCAK256 SWAP1 PUSH1 0xFF PUSH1 0x6 DUP5 ADD SLOAD PUSH1 0xA0 SHR AND PUSH1 0x5 DUP2 LT ISZERO PUSH2 0x1FF6 JUMPI PUSH1 0x1 PUSH2 0x1DC5 SWAP2 EQ PUSH2 0x39A8 JUMP JUMPDEST DUP6 MSTORE PUSH1 0x9 PUSH1 0x20 SWAP1 DUP2 MSTORE PUSH1 0x40 DUP1 DUP8 KECCAK256 CALLER PUSH0 SWAP1 DUP2 MSTORE SWAP3 MSTORE SWAP1 KECCAK256 SLOAD PUSH1 0xFF AND ISZERO PUSH2 0x1FBE JUMPI PUSH2 0x1DF8 PUSH1 0x3 DUP4 ADD SLOAD PUSH1 0x7 DUP4 ADD SLOAD SWAP1 PUSH2 0x36EF JUMP JUMPDEST TIMESTAMP LT ISZERO PUSH2 0x1F83 JUMPI DUP4 ISZERO ISZERO SWAP1 DUP2 PUSH2 0x1F74 JUMPI JUMPDEST POP ISZERO PUSH2 0x1F3A JUMPI DUP3 CALLVALUE SUB PUSH2 0x1F01 JUMPI DUP1 PUSH1 0x7 DUP6 SWAP3 ADD PUSH1 0x1 DUP1 PUSH1 0xA0 SHL SUB CALLER AND PUSH0 MSTORE DUP1 PUSH1 0x20 MSTORE PUSH1 0x40 PUSH0 KECCAK256 SLOAD ISZERO PUSH2 0x1EEE JUMPI JUMPDEST PUSH1 0x1 DUP1 PUSH1 0xA0 SHL SUB CALLER AND PUSH0 MSTORE PUSH1 0x20 MSTORE DUP4 PUSH1 0x40 PUSH0 KECCAK256 SSTORE PUSH1 0x1 DUP1 PUSH1 0xA0 SHL SUB PUSH1 0x2 SLOAD PUSH1 0x8 SHR AND SWAP1 SLOAD DUP2 EXTCODESIZE ISZERO PUSH2 0x870 JUMPI DUP3 SWAP2 PUSH1 0xA4 DUP4 SWAP3 PUSH1 0x40 MLOAD SWAP5 DUP6 SWAP4 DUP5 SWAP3 PUSH4 0x18FB159B PUSH1 0xE3 SHL DUP5 MSTORE CALLER PUSH1 0x4 DUP6 ADD MSTORE PUSH1 0x24 DUP5 ADD MSTORE DUP9 PUSH1 0x44 DUP5 ADD MSTORE DUP10 PUSH1 0x64 DUP5 ADD MSTORE PUSH1 0x1 PUSH1 0x84 DUP5 ADD MSTORE GAS CALL DUP1 ISZERO PUSH2 0x874 JUMPI PUSH2 0x1ED9 JUMPI JUMPDEST POP POP PUSH1 0x40 MLOAD SWAP2 DUP3 MSTORE PUSH32 0xE54EFF26401BF69B81B26F60BD85EF47F5D85275C1D268D84F68D6897431C47 PUSH1 0x20 CALLER SWAP4 LOG3 PUSH1 0x1 DUP1 SSTORE DUP1 RETURN JUMPDEST DUP2 PUSH2 0x1EE3 SWAP2 PUSH2 0x34A3 JUMP JUMPDEST PUSH2 0x870 JUMPI DUP3 PUSH0 PUSH2 0x1EA4 JUMP JUMPDEST PUSH2 0x1EFB CALLER PUSH1 0x8 DUP5 ADD PUSH2 0x3E03 JUMP JUMPDEST POP PUSH2 0x1E36 JUMP JUMPDEST PUSH1 0x40 MLOAD PUSH3 0x461BCD PUSH1 0xE5 SHL DUP2 MSTORE PUSH1 0x20 PUSH1 0x4 DUP3 ADD MSTORE PUSH1 0x11 PUSH1 0x24 DUP3 ADD MSTORE PUSH17 0x125B98DBDC9C9958DD081C185E5B595B9D PUSH1 0x7A SHL PUSH1 0x44 DUP3 ADD MSTORE PUSH1 0x64 SWAP1 REVERT JUMPDEST PUSH1 0x40 MLOAD PUSH3 0x461BCD PUSH1 0xE5 SHL DUP2 MSTORE PUSH1 0x20 PUSH1 0x4 DUP3 ADD MSTORE PUSH1 0x12 PUSH1 0x24 DUP3 ADD MSTORE PUSH18 0x125B9D985B1A5908189A5908185B5BDD5B9D PUSH1 0x72 SHL PUSH1 0x44 DUP3 ADD MSTORE PUSH1 0x64 SWAP1 REVERT JUMPDEST PUSH1 0x2 SWAP2 POP ADD SLOAD DUP4 GT ISZERO PUSH0 PUSH2 0x1E09 JUMP JUMPDEST PUSH1 0x40 MLOAD PUSH3 0x461BCD PUSH1 0xE5 SHL DUP2 MSTORE PUSH1 0x20 PUSH1 0x4 DUP3 ADD MSTORE PUSH1 0x13 PUSH1 0x24 DUP3 ADD MSTORE PUSH19 0x109A5908191958591B1A5B99481C185CDCD959 PUSH1 0x6A SHL PUSH1 0x44 DUP3 ADD MSTORE PUSH1 0x64 SWAP1 REVERT JUMPDEST PUSH1 0x40 MLOAD PUSH3 0x461BCD PUSH1 0xE5 SHL DUP2 MSTORE PUSH1 0x20 PUSH1 0x4 DUP3 ADD MSTORE PUSH1 0x10 PUSH1 0x24 DUP3 ADD MSTORE PUSH16 0x2737BA1030903837BA1036B2B6B132B9 PUSH1 0x81 SHL PUSH1 0x44 DUP3 ADD MSTORE PUSH1 0x64 SWAP1 REVERT JUMPDEST PUSH4 0x4E487B71 PUSH1 0xE0 SHL DUP8 MSTORE PUSH1 0x21 PUSH1 0x4 MSTORE PUSH1 0x24 DUP8 REVERT JUMPDEST POP PUSH1 0x6 SLOAD DUP2 LT PUSH2 0x1D71 JUMP JUMPDEST POP CALLVALUE PUSH2 0x2B0 JUMPI PUSH1 0x20 CALLDATASIZE PUSH1 0x3 NOT ADD SLT PUSH2 0x2B0 JUMPI PUSH1 0x4 CALLDATALOAD DUP1 DUP3 MSTORE PUSH1 0x8 PUSH1 0x20 MSTORE PUSH1 0x40 DUP3 KECCAK256 SLOAD DUP3 MSTORE PUSH1 0x7 PUSH1 0x20 MSTORE PUSH2 0x2058 PUSH1 0x1 DUP1 PUSH1 0xA0 SHL SUB PUSH1 0x1 PUSH1 0x40 DUP6 KECCAK256 ADD SLOAD AND CALLER EQ PUSH2 0x36FC JUMP JUMPDEST DUP1 ISZERO ISZERO DUP1 PUSH2 0x2346 JUMPI JUMPDEST PUSH2 0x206A SWAP1 PUSH2 0x373A JUMP JUMPDEST PUSH2 0x2072 PUSH2 0x3AB6 JUMP JUMPDEST PUSH2 0x207A PUSH2 0x3B20 JUMP JUMPDEST DUP1 DUP3 MSTORE PUSH1 0x8 PUSH1 0x20 MSTORE PUSH1 0x40 DUP3 KECCAK256 PUSH1 0x4 DUP2 ADD SLOAD SWAP1 SWAP2 SWAP1 PUSH1 0x1 PUSH1 0x1 PUSH1 0xA0 SHL SUB AND DUP1 ISZERO PUSH2 0x230B JUMPI PUSH1 0x6 DUP4 ADD PUSH1 0xFF DUP2 SLOAD PUSH1 0xA0 SHR AND PUSH1 0x5 DUP2 LT ISZERO PUSH2 0x87F JUMPI PUSH1 0x3 EQ PUSH2 0x22D2 JUMPI PUSH1 0x3 DUP5 ADD SLOAD TIMESTAMP LT PUSH2 0x229B JUMPI PUSH1 0xC DUP5 ADD PUSH1 0xFF DUP2 SLOAD AND PUSH2 0x225D JUMPI DUP5 SLOAD DUP7 MSTORE PUSH1 0x7 PUSH1 0x20 MSTORE DUP6 PUSH1 0x40 DUP2 KECCAK256 SWAP4 PUSH1 0x1 DUP1 PUSH1 0xA0 SHL SUB PUSH1 0x4 SLOAD AND SWAP1 PUSH1 0x5 DUP9 ADD SLOAD SWAP1 DUP3 EXTCODESIZE ISZERO PUSH2 0xC2D JUMPI PUSH1 0x64 DUP5 SWAP3 DUP4 PUSH1 0x40 MLOAD SWAP6 DUP7 SWAP5 DUP6 SWAP4 PUSH4 0x1029AA5F PUSH1 0xE2 SHL DUP6 MSTORE PUSH1 0x4 DUP6 ADD MSTORE PUSH1 0x24 DUP5 ADD MSTORE DUP12 PUSH1 0x44 DUP5 ADD MSTORE GAS CALL DUP1 ISZERO PUSH2 0x874 JUMPI PUSH2 0x2244 JUMPI JUMPDEST POP POP DUP1 SLOAD PUSH1 0xFF NOT AND PUSH1 0x1 OR SWAP1 SSTORE PUSH1 0xF DUP3 ADD SLOAD PUSH1 0xFF AND PUSH2 0x2236 JUMPI JUMPDEST PUSH1 0x4 SLOAD DUP6 SWAP1 PUSH1 0x1 PUSH1 0x1 PUSH1 0xA0 SHL SUB AND DUP1 EXTCODESIZE ISZERO PUSH2 0xD6F JUMPI DUP2 DUP1 SWAP2 PUSH1 0x24 PUSH1 0x40 MLOAD DUP1 SWAP5 DUP2 SWAP4 PUSH4 0x15BFEDB PUSH1 0xE6 SHL DUP4 MSTORE DUP11 PUSH1 0x4 DUP5 ADD MSTORE GAS CALL DUP1 ISZERO PUSH2 0x874 JUMPI PUSH2 0x221D JUMPI JUMPDEST POP POP DUP1 SLOAD PUSH1 0xFF PUSH1 0xA0 SHL NOT AND PUSH1 0x3 PUSH1 0xA0 SHL OR SWAP1 SSTORE PUSH1 0x5 DUP2 ADD DUP1 SLOAD PUSH2 0x21A7 SWAP1 PUSH2 0x38D6 JUMP JUMPDEST DUP1 SWAP2 SSTORE PUSH1 0x4 DUP3 ADD SLOAD GT ISZERO PUSH2 0x21EF JUMPI JUMPDEST POP PUSH32 0x188DFFC590872DC919B0E448791F95E29EBD499B88D4318FC474DFC17AAC6E3E PUSH1 0x20 PUSH1 0xB DUP5 SLOAD SWAP5 ADD SLOAD PUSH1 0x40 MLOAD SWAP1 DUP2 MSTORE LOG3 PUSH1 0x1 DUP1 SSTORE DUP1 RETURN JUMPDEST PUSH1 0x8 ADD PUSH1 0x2 PUSH1 0xFF NOT DUP3 SLOAD AND OR SWAP1 SSTORE DUP2 SLOAD PUSH0 MLOAD PUSH1 0x20 PUSH2 0x3E58 PUSH0 CODECOPY PUSH0 MLOAD SWAP1 PUSH0 MSTORE PUSH1 0x20 PUSH1 0x40 MLOAD PUSH1 0x2 DUP2 MSTORE LOG2 PUSH0 PUSH2 0x21B6 JUMP JUMPDEST DUP2 PUSH2 0x2227 SWAP2 PUSH2 0x34A3 JUMP JUMPDEST PUSH2 0x2232 JUMPI DUP5 PUSH0 PUSH2 0x2185 JUMP JUMPDEST DUP5 DUP1 REVERT JUMPDEST PUSH2 0x223F DUP4 PUSH2 0x3B76 JUMP JUMPDEST PUSH2 0x2147 JUMP JUMPDEST DUP2 PUSH2 0x224E SWAP2 PUSH2 0x34A3 JUMP JUMPDEST PUSH2 0x2259 JUMPI DUP6 PUSH0 PUSH2 0x212D JUMP JUMPDEST DUP6 DUP1 REVERT JUMPDEST PUSH1 0x40 MLOAD PUSH3 0x461BCD PUSH1 0xE5 SHL DUP2 MSTORE PUSH1 0x20 PUSH1 0x4 DUP3 ADD MSTORE PUSH1 0x16 PUSH1 0x24 DUP3 ADD MSTORE PUSH22 0x119D5B991CC8185B1C9958591E481C995B19585CD959 PUSH1 0x52 SHL PUSH1 0x44 DUP3 ADD MSTORE PUSH1 0x64 SWAP1 REVERT JUMPDEST PUSH1 0x40 MLOAD PUSH3 0x461BCD PUSH1 0xE5 SHL DUP2 MSTORE PUSH1 0x20 PUSH1 0x4 DUP3 ADD MSTORE PUSH1 0xF PUSH1 0x24 DUP3 ADD MSTORE PUSH15 0x10DE58DB19481B9BDD08195B991959 PUSH1 0x8A SHL PUSH1 0x44 DUP3 ADD MSTORE PUSH1 0x64 SWAP1 REVERT JUMPDEST PUSH1 0x40 MLOAD PUSH3 0x461BCD PUSH1 0xE5 SHL DUP2 MSTORE PUSH1 0x20 PUSH1 0x4 DUP3 ADD MSTORE PUSH1 0x11 PUSH1 0x24 DUP3 ADD MSTORE PUSH17 0x105B1C9958591E4818DBDB5C1B195D1959 PUSH1 0x7A SHL PUSH1 0x44 DUP3 ADD MSTORE PUSH1 0x64 SWAP1 REVERT JUMPDEST PUSH1 0x40 MLOAD PUSH3 0x461BCD PUSH1 0xE5 SHL DUP2 MSTORE PUSH1 0x20 PUSH1 0x4 DUP3 ADD MSTORE PUSH1 0x13 PUSH1 0x24 DUP3 ADD MSTORE PUSH19 0x15DA5B9B995C881B9BDD08191958DB185C9959 PUSH1 0x6A SHL PUSH1 0x44 DUP3 ADD MSTORE PUSH1 0x64 SWAP1 REVERT JUMPDEST POP PUSH1 0x6 SLOAD DUP2 LT PUSH2 0x2061 JUMP JUMPDEST POP CALLVALUE PUSH2 0x2B0 JUMPI PUSH1 0x20 CALLDATASIZE PUSH1 0x3 NOT ADD SLT PUSH2 0x2B0 JUMPI PUSH1 0x4 CALLDATALOAD DUP2 MSTORE PUSH1 0x7 PUSH1 0x20 MSTORE PUSH1 0x40 SWAP1 KECCAK256 PUSH2 0x237A DUP2 PUSH2 0x35BC JUMP JUMPDEST PUSH1 0x1 PUSH1 0xA0 SHL PUSH1 0x1 SWAP1 SUB PUSH1 0x1 DUP4 ADD SLOAD AND PUSH1 0x2 DUP4 ADD SLOAD SWAP3 PUSH1 0x3 DUP2 ADD SLOAD SWAP1 PUSH1 0x4 DUP2 ADD SLOAD PUSH1 0x5 DUP3 ADD SLOAD PUSH1 0x6 DUP4 ADD SLOAD PUSH1 0xFF AND PUSH1 0x7 DUP5 ADD SLOAD PUSH1 0x8 DUP6 ADD SLOAD PUSH1 0xFF AND SWAP1 PUSH1 0xB DUP7 ADD SLOAD SWAP3 PUSH1 0xC DUP8 ADD SLOAD SWAP5 PUSH1 0xD DUP9 ADD SLOAD SWAP7 PUSH1 0xE DUP10 ADD SLOAD SWAP9 PUSH1 0xF ADD SLOAD PUSH1 0xFF AND SWAP10 PUSH1 0x40 MLOAD SWAP14 DUP15 DUP1 SWAP15 PUSH2 0x1C0 DUP3 MSTORE PUSH2 0x1C0 DUP3 ADD PUSH2 0x23EF SWAP2 PUSH2 0x365C JUMP JUMPDEST SWAP14 PUSH1 0x20 DUP3 ADD MSTORE PUSH1 0x40 ADD MSTORE PUSH1 0x60 DUP14 ADD MSTORE PUSH1 0x80 DUP13 ADD MSTORE PUSH1 0xA0 DUP12 ADD MSTORE PUSH2 0x2411 DUP2 PUSH2 0x3680 JUMP JUMPDEST PUSH1 0xC0 DUP11 ADD MSTORE PUSH1 0xE0 DUP10 ADD MSTORE PUSH2 0x2424 DUP2 PUSH2 0x3680 JUMP JUMPDEST PUSH2 0x100 DUP9 ADD MSTORE PUSH2 0x120 DUP8 ADD MSTORE PUSH2 0x140 DUP7 ADD MSTORE PUSH2 0x160 DUP6 ADD MSTORE PUSH2 0x180 DUP5 ADD MSTORE ISZERO ISZERO PUSH2 0x1A0 DUP4 ADD MSTORE SUB SWAP1 RETURN JUMPDEST POP CALLVALUE PUSH2 0x2B0 JUMPI PUSH1 0x20 CALLDATASIZE PUSH1 0x3 NOT ADD SLT PUSH2 0x2B0 JUMPI PUSH1 0x4 CALLDATALOAD DUP1 DUP3 MSTORE PUSH1 0x7 PUSH1 0x20 MSTORE PUSH2 0x2485 PUSH1 0x1 DUP1 PUSH1 0xA0 SHL SUB PUSH1 0x1 PUSH1 0x40 DUP6 KECCAK256 ADD SLOAD AND CALLER EQ PUSH2 0x36FC JUMP JUMPDEST DUP1 ISZERO ISZERO DUP1 PUSH2 0x250F JUMPI JUMPDEST PUSH2 0x2497 SWAP1 PUSH2 0x37C1 JUMP JUMPDEST DUP1 DUP3 MSTORE PUSH1 0x7 PUSH1 0x20 MSTORE PUSH1 0x40 DUP3 KECCAK256 PUSH1 0x1 ADD SLOAD PUSH2 0x24BB SWAP1 PUSH1 0x1 PUSH1 0x1 PUSH1 0xA0 SHL SUB AND ISZERO ISZERO PUSH2 0x37FE JUMP JUMPDEST DUP1 DUP3 MSTORE PUSH1 0x7 PUSH1 0x20 MSTORE PUSH2 0x24DA PUSH1 0xFF PUSH1 0x8 PUSH1 0x40 DUP6 KECCAK256 ADD SLOAD AND PUSH2 0x9BE DUP2 PUSH2 0x3680 JUMP JUMPDEST DUP1 DUP3 MSTORE PUSH1 0x7 PUSH1 0x20 MSTORE PUSH1 0x8 PUSH1 0x40 DUP4 KECCAK256 ADD PUSH1 0x1 PUSH1 0xFF NOT DUP3 SLOAD AND OR SWAP1 SSTORE PUSH0 MLOAD PUSH1 0x20 PUSH2 0x3E58 PUSH0 CODECOPY PUSH0 MLOAD SWAP1 PUSH0 MSTORE PUSH1 0x20 PUSH1 0x40 MLOAD PUSH1 0x1 DUP2 MSTORE LOG2 DUP1 RETURN JUMPDEST POP PUSH1 0x5 SLOAD DUP2 LT PUSH2 0x248E JUMP JUMPDEST POP CALLVALUE PUSH2 0x2B0 JUMPI PUSH1 0x20 CALLDATASIZE PUSH1 0x3 NOT ADD SLT PUSH2 0x2B0 JUMPI PUSH1 0x4 CALLDATALOAD DUP1 ISZERO ISZERO DUP1 PUSH2 0x25DC JUMPI JUMPDEST PUSH2 0x2541 SWAP1 PUSH2 0x373A JUMP JUMPDEST DUP2 MSTORE PUSH1 0x8 PUSH1 0x20 MSTORE PUSH1 0x40 DUP2 KECCAK256 DUP1 SLOAD SWAP1 PUSH1 0x2 DUP2 ADD SLOAD SWAP1 PUSH1 0x3 DUP2 ADD SLOAD PUSH1 0x1 DUP1 PUSH1 0xA0 SHL SUB PUSH1 0x4 DUP4 ADD SLOAD AND PUSH1 0x5 DUP4 ADD SLOAD PUSH1 0xFF PUSH1 0x6 DUP6 ADD SLOAD PUSH1 0xA0 SHR AND SWAP1 PUSH1 0x8 DUP6 ADD SLOAD SWAP3 PUSH1 0xA DUP7 ADD SLOAD SWAP5 PUSH1 0xFF PUSH1 0xC PUSH1 0xB DUP10 ADD SLOAD SWAP9 ADD SLOAD PUSH1 0x8 SHR AND SWAP8 PUSH1 0x40 MLOAD SWAP10 DUP11 MSTORE PUSH1 0x20 DUP11 ADD MSTORE PUSH1 0x40 DUP10 ADD MSTORE PUSH1 0x60 DUP9 ADD MSTORE PUSH1 0x80 DUP8 ADD MSTORE PUSH1 0x5 DUP2 LT ISZERO PUSH2 0x1FF6 JUMPI PUSH2 0x140 SWAP7 POP PUSH1 0xA0 DUP7 ADD MSTORE PUSH1 0xC0 DUP6 ADD MSTORE PUSH1 0xE0 DUP5 ADD MSTORE PUSH2 0x100 DUP4 ADD MSTORE ISZERO ISZERO PUSH2 0x120 DUP3 ADD MSTORE RETURN JUMPDEST POP PUSH1 0x6 SLOAD DUP2 LT PUSH2 0x2538 JUMP JUMPDEST POP CALLVALUE PUSH2 0x2B0 JUMPI DUP1 PUSH1 0x3 NOT CALLDATASIZE ADD SLT PUSH2 0x2B0 JUMPI PUSH1 0x3 SLOAD PUSH1 0x40 MLOAD PUSH1 0x1 PUSH1 0x1 PUSH1 0xA0 SHL SUB SWAP1 SWAP2 AND DUP2 MSTORE PUSH1 0x20 SWAP1 RETURN JUMPDEST POP CALLVALUE PUSH2 0x2B0 JUMPI PUSH1 0x20 CALLDATASIZE PUSH1 0x3 NOT ADD SLT PUSH2 0x2B0 JUMPI PUSH2 0x262A PUSH2 0x3444 JUMP JUMPDEST PUSH2 0x2632 PUSH2 0x3AFA JUMP JUMPDEST PUSH2 0x2646 PUSH1 0x1 PUSH1 0x1 PUSH1 0xA0 SHL SUB DUP3 AND ISZERO ISZERO PUSH2 0x392D JUMP JUMPDEST PUSH1 0x2 DUP1 SLOAD PUSH2 0x100 PUSH1 0x1 PUSH1 0xA8 SHL SUB NOT AND PUSH1 0x8 SWAP3 SWAP1 SWAP3 SHL PUSH2 0x100 PUSH1 0x1 PUSH1 0xA8 SHL SUB AND SWAP2 SWAP1 SWAP2 OR SWAP1 SSTORE DUP1 RETURN JUMPDEST POP CALLVALUE PUSH2 0x2B0 JUMPI PUSH1 0x20 CALLDATASIZE PUSH1 0x3 NOT ADD SLT PUSH2 0x2B0 JUMPI PUSH1 0x80 SWAP1 PUSH1 0x4 CALLDATALOAD DUP1 ISZERO ISZERO DUP1 PUSH2 0x270C JUMPI JUMPDEST PUSH2 0x2698 SWAP1 PUSH2 0x37C1 JUMP JUMPDEST DUP1 DUP3 MSTORE PUSH1 0x7 PUSH1 0x20 MSTORE PUSH1 0x40 DUP3 KECCAK256 PUSH1 0x1 ADD SLOAD PUSH2 0x26BC SWAP1 PUSH1 0x1 PUSH1 0x1 PUSH1 0xA0 SHL SUB AND ISZERO ISZERO PUSH2 0x37FE JUMP JUMPDEST DUP1 DUP3 MSTORE PUSH1 0x7 PUSH1 0x20 MSTORE PUSH1 0x40 DUP3 KECCAK256 PUSH1 0xFF PUSH1 0xF DUP2 PUSH1 0x40 PUSH1 0xE DUP6 ADD SLOAD SWAP7 DUP7 DUP2 MSTORE PUSH1 0xB PUSH1 0x20 MSTORE DUP2 DUP2 KECCAK256 SLOAD SWAP7 DUP2 MSTORE PUSH1 0xC PUSH1 0x20 MSTORE KECCAK256 SLOAD AND SWAP3 ADD SLOAD AND SWAP2 PUSH1 0x40 MLOAD SWAP4 DUP5 MSTORE PUSH1 0x20 DUP5 ADD MSTORE ISZERO ISZERO PUSH1 0x40 DUP4 ADD MSTORE ISZERO ISZERO PUSH1 0x60 DUP3 ADD MSTORE RETURN JUMPDEST POP PUSH1 0x5 SLOAD DUP2 LT PUSH2 0x268F JUMP JUMPDEST POP CALLVALUE PUSH2 0x2B0 JUMPI PUSH2 0x7CE PUSH0 MLOAD PUSH1 0x20 PUSH2 0x3E78 PUSH0 CODECOPY PUSH0 MLOAD SWAP1 PUSH0 MSTORE PUSH2 0x2737 CALLDATASIZE PUSH2 0x353B JUMP JUMPDEST PUSH2 0x2742 SWAP4 SWAP2 SWAP4 PUSH2 0x3AFA JUMP JUMPDEST DUP4 ISZERO ISZERO DUP1 PUSH2 0x27F1 JUMPI JUMPDEST PUSH2 0x2754 SWAP1 PUSH2 0x37C1 JUMP JUMPDEST DUP4 DUP6 MSTORE PUSH1 0x7 PUSH1 0x20 MSTORE PUSH1 0x40 DUP6 KECCAK256 PUSH1 0x1 ADD SLOAD PUSH2 0x2778 SWAP1 PUSH1 0x1 PUSH1 0x1 PUSH1 0xA0 SHL SUB AND ISZERO ISZERO PUSH2 0x37FE JUMP JUMPDEST PUSH2 0x2784 DUP2 MLOAD ISZERO ISZERO PUSH2 0x383F JUMP JUMPDEST DUP4 DUP6 MSTORE PUSH1 0x7 PUSH1 0x20 MSTORE PUSH1 0x8 PUSH1 0x40 DUP7 KECCAK256 ADD PUSH1 0x1 PUSH1 0xFF NOT DUP3 SLOAD AND OR SWAP1 SSTORE DUP4 PUSH0 MLOAD PUSH1 0x20 PUSH2 0x3E58 PUSH0 CODECOPY PUSH0 MLOAD SWAP1 PUSH0 MSTORE PUSH1 0x20 PUSH1 0x40 MLOAD PUSH1 0x1 DUP2 MSTORE LOG2 PUSH1 0x40 MLOAD SWAP2 DUP3 SWAP2 PUSH1 0x40 DUP4 MSTORE PUSH1 0xF PUSH1 0x40 DUP5 ADD MSTORE PUSH15 0x454D455247454E43595F5041555345 PUSH1 0x88 SHL PUSH1 0x60 DUP5 ADD MSTORE PUSH1 0x80 PUSH1 0x20 DUP5 ADD MSTORE PUSH1 0x80 DUP4 ADD SWAP1 PUSH2 0x365C JUMP JUMPDEST POP PUSH1 0x5 SLOAD DUP5 LT PUSH2 0x274B JUMP JUMPDEST POP CALLVALUE PUSH2 0x2B0 JUMPI PUSH2 0x120 CALLDATASIZE PUSH1 0x3 NOT ADD SLT PUSH2 0x2B0 JUMPI PUSH1 0x4 CALLDATALOAD PUSH8 0xFFFFFFFFFFFFFFFF DUP2 GT PUSH2 0xD6F JUMPI PUSH2 0x282F SWAP1 CALLDATASIZE SWAP1 PUSH1 0x4 ADD PUSH2 0x34F5 JUMP JUMPDEST SWAP1 PUSH1 0x4 PUSH1 0x84 CALLDATALOAD LT ISZERO PUSH2 0x2B0 JUMPI PUSH2 0x104 CALLDATALOAD DUP1 ISZERO ISZERO DUP2 SUB PUSH2 0xD6F JUMPI PUSH1 0x2 SLOAD PUSH1 0x40 MLOAD PUSH4 0xC3C5A547 PUSH1 0xE0 SHL DUP2 MSTORE CALLER PUSH1 0x4 DUP3 ADD MSTORE SWAP1 PUSH1 0x20 SWAP1 DUP3 SWAP1 PUSH1 0x24 SWAP1 DUP3 SWAP1 PUSH1 0x8 SHR PUSH1 0x1 PUSH1 0x1 PUSH1 0xA0 SHL SUB AND GAS STATICCALL SWAP1 DUP2 ISZERO PUSH2 0x146C JUMPI SWAP1 PUSH2 0x288F SWAP2 DUP5 SWAP2 PUSH2 0x143D JUMPI POP PUSH2 0x3899 JUMP JUMPDEST PUSH2 0x2897 PUSH2 0x3AB6 JUMP JUMPDEST DUP3 MLOAD DUP1 ISZERO ISZERO SWAP1 DUP2 PUSH2 0x2DEA JUMPI JUMPDEST POP ISZERO PUSH2 0x2DAF JUMPI PUSH7 0x38D7EA4C68000 PUSH1 0x24 CALLDATALOAD LT PUSH2 0x2D79 JUMPI PUSH3 0x15180 PUSH1 0x44 CALLDATALOAD LT ISZERO DUP1 PUSH2 0x2D6A JUMPI JUMPDEST ISZERO PUSH2 0x2D2C JUMPI PUSH2 0xE10 PUSH1 0xA4 CALLDATALOAD LT ISZERO DUP1 PUSH2 0x2D1F JUMPI JUMPDEST ISZERO PUSH2 0x2CE3 JUMPI PUSH1 0x64 CALLDATALOAD ISZERO ISZERO DUP1 PUSH2 0x2CD7 JUMPI JUMPDEST ISZERO PUSH2 0x2C9C JUMPI PUSH1 0x2 PUSH1 0xC4 CALLDATALOAD LT ISZERO DUP1 PUSH2 0x2C8E JUMPI JUMPDEST ISZERO PUSH2 0x2C51 JUMPI PUSH1 0x64 PUSH1 0xE4 CALLDATALOAD GT PUSH2 0x2C19 JUMPI PUSH1 0x5 SLOAD SWAP1 PUSH2 0x2919 DUP3 PUSH2 0x38D6 JUMP JUMPDEST PUSH1 0x5 SSTORE DUP2 DUP4 MSTORE PUSH1 0x7 PUSH1 0x20 MSTORE PUSH1 0x40 DUP4 KECCAK256 DUP5 MLOAD PUSH8 0xFFFFFFFFFFFFFFFF DUP2 GT PUSH2 0x2C05 JUMPI PUSH2 0x2943 DUP3 SLOAD PUSH2 0x3584 JUMP JUMPDEST PUSH1 0x1F DUP2 GT PUSH2 0x2BC0 JUMPI JUMPDEST POP PUSH1 0x20 PUSH1 0x1F DUP3 GT PUSH1 0x1 EQ PUSH2 0x2B5A JUMPI SWAP1 DUP1 PUSH2 0x2A12 SWAP4 SWAP3 DUP8 SWAP2 PUSH2 0x2B4F JUMPI JUMPDEST POP DUP2 PUSH1 0x1 SHL SWAP2 PUSH0 NOT SWAP1 PUSH1 0x3 SHL SHR NOT AND OR DUP2 SSTORE JUMPDEST PUSH1 0x1 DUP2 ADD DUP1 SLOAD PUSH1 0x1 PUSH1 0x1 PUSH1 0xA0 SHL SUB NOT AND CALLER OR SWAP1 SSTORE PUSH1 0x24 CALLDATALOAD PUSH1 0x2 DUP3 ADD SSTORE PUSH1 0x44 CALLDATALOAD PUSH1 0x3 DUP3 ADD SSTORE PUSH1 0x64 CALLDATALOAD PUSH1 0x4 DUP3 ADD SSTORE PUSH1 0x6 DUP2 ADD PUSH2 0x29B6 PUSH1 0x84 CALLDATALOAD PUSH2 0x3680 JUMP JUMPDEST PUSH1 0xFF NOT DUP2 SLOAD AND PUSH1 0xFF PUSH1 0x84 CALLDATALOAD AND OR SWAP1 SSTORE PUSH1 0xA4 CALLDATALOAD PUSH1 0x7 DUP3 ADD SSTORE PUSH1 0x8 DUP2 ADD PUSH1 0xFF NOT DUP2 SLOAD AND SWAP1 SSTORE TIMESTAMP PUSH1 0xB DUP3 ADD SSTORE PUSH1 0xC4 CALLDATALOAD PUSH1 0xC DUP3 ADD SSTORE PUSH1 0xE4 CALLDATALOAD PUSH1 0xD DUP3 ADD SSTORE PUSH2 0x2A08 DUP4 PUSH1 0xF DUP4 ADD SWAP1 PUSH1 0xFF DUP1 NOT DUP4 SLOAD AND SWAP2 ISZERO ISZERO AND OR SWAP1 SSTORE JUMP JUMPDEST PUSH1 0x9 CALLER SWAP2 ADD PUSH2 0x38E4 JUMP JUMPDEST DUP2 DUP4 MSTORE PUSH1 0x9 PUSH1 0x20 MSTORE PUSH1 0x40 DUP4 KECCAK256 PUSH1 0x1 DUP1 PUSH1 0xA0 SHL SUB CALLER AND PUSH0 MSTORE PUSH1 0x20 MSTORE PUSH1 0x40 PUSH0 KECCAK256 PUSH1 0x1 PUSH1 0xFF NOT DUP3 SLOAD AND OR SWAP1 SSTORE CALLER DUP4 MSTORE PUSH1 0xA PUSH1 0x20 MSTORE PUSH2 0x2A50 DUP3 PUSH1 0x40 DUP6 KECCAK256 PUSH2 0x3907 JUMP JUMPDEST DUP2 DUP4 MSTORE PUSH1 0xB PUSH1 0x20 MSTORE PUSH1 0x40 DUP4 KECCAK256 PUSH1 0x64 PUSH1 0x24 CALLDATALOAD DIV SWAP1 SSTORE PUSH1 0x2 SLOAD PUSH1 0x8 SHR PUSH1 0x1 PUSH1 0x1 PUSH1 0xA0 SHL SUB AND DUP1 EXTCODESIZE ISZERO PUSH2 0xC2D JUMPI DUP4 DUP1 SWAP2 PUSH1 0xA4 PUSH1 0x40 MLOAD DUP1 SWAP5 DUP2 SWAP4 PUSH4 0xDB151C07 PUSH1 0xE0 SHL DUP4 MSTORE CALLER PUSH1 0x4 DUP5 ADD MSTORE DUP9 PUSH1 0x24 DUP5 ADD MSTORE DUP2 PUSH1 0x44 DUP5 ADD MSTORE DUP2 PUSH1 0x64 DUP5 ADD MSTORE PUSH1 0x1 PUSH1 0x84 DUP5 ADD MSTORE GAS CALL DUP1 ISZERO PUSH2 0x1383 JUMPI PUSH2 0x2B3A JUMPI JUMPDEST POP DUP2 PUSH32 0xA86EE11C94F415CC6C894D349995131C0A25805AEC651FC4C17E5AB90810E491 PUSH1 0x20 SWAP6 PUSH2 0x2AF7 PUSH1 0x40 MLOAD SWAP2 PUSH1 0x60 DUP4 MSTORE PUSH1 0x60 DUP4 ADD SWAP1 PUSH2 0x365C JUMP JUMPDEST SWAP4 PUSH1 0x24 CALLDATALOAD DUP9 DUP4 ADD MSTORE ISZERO ISZERO PUSH1 0x40 DUP3 ADD MSTORE DUP1 CALLER SWAP5 SUB SWAP1 LOG3 PUSH1 0x40 MLOAD SWAP2 DUP2 PUSH32 0x76D6778DD360E2F2A3C8495BE58957B0386725BC74904D097766DC05BFE82E88 CALLER SWAP3 DUP1 LOG3 DUP2 MSTORE RETURN JUMPDEST PUSH2 0x2B45 DUP5 DUP1 SWAP3 PUSH2 0x34A3 JUMP JUMPDEST PUSH2 0x870 JUMPI PUSH0 PUSH2 0x2ABC JUMP JUMPDEST SWAP1 POP DUP8 ADD MLOAD PUSH0 PUSH2 0x2968 JUMP JUMPDEST DUP3 DUP7 MSTORE DUP1 DUP7 KECCAK256 SWAP1 DUP7 JUMPDEST PUSH1 0x1F NOT DUP5 AND DUP2 LT PUSH2 0x2BA8 JUMPI POP SWAP2 PUSH1 0x1 SWAP2 PUSH2 0x2A12 SWAP5 SWAP4 DUP3 PUSH1 0x1F NOT DUP2 AND LT PUSH2 0x2B90 JUMPI JUMPDEST POP POP DUP2 SHL ADD DUP2 SSTORE PUSH2 0x297B JUMP JUMPDEST DUP10 ADD MLOAD PUSH0 NOT PUSH1 0xF8 DUP5 PUSH1 0x3 SHL AND SHR NOT AND SWAP1 SSTORE PUSH0 DUP1 PUSH2 0x2B84 JUMP JUMPDEST SWAP1 SWAP2 PUSH1 0x20 PUSH1 0x1 DUP2 SWAP3 DUP6 DUP13 ADD MLOAD DUP2 SSTORE ADD SWAP4 ADD SWAP2 ADD PUSH2 0x2B63 JUMP JUMPDEST DUP3 DUP7 MSTORE PUSH1 0x20 DUP7 KECCAK256 PUSH1 0x1F DUP4 ADD PUSH1 0x5 SHR DUP2 ADD SWAP2 PUSH1 0x20 DUP5 LT PUSH2 0x2BFB JUMPI JUMPDEST PUSH1 0x1F ADD PUSH1 0x5 SHR ADD SWAP1 JUMPDEST DUP2 DUP2 LT PUSH2 0x2BF0 JUMPI POP PUSH2 0x294C JUMP JUMPDEST DUP7 DUP2 SSTORE PUSH1 0x1 ADD PUSH2 0x2BE3 JUMP JUMPDEST SWAP1 SWAP2 POP DUP2 SWAP1 PUSH2 0x2BDA JUMP JUMPDEST PUSH4 0x4E487B71 PUSH1 0xE0 SHL DUP6 MSTORE PUSH1 0x41 PUSH1 0x4 MSTORE PUSH1 0x24 DUP6 REVERT JUMPDEST PUSH1 0x40 MLOAD PUSH3 0x461BCD PUSH1 0xE5 SHL DUP2 MSTORE PUSH1 0x20 PUSH1 0x4 DUP3 ADD MSTORE PUSH1 0x10 PUSH1 0x24 DUP3 ADD MSTORE PUSH16 0x546F6F206D616E79206D656D62657273 PUSH1 0x80 SHL PUSH1 0x44 DUP3 ADD MSTORE PUSH1 0x64 SWAP1 REVERT JUMPDEST PUSH1 0x40 MLOAD PUSH3 0x461BCD PUSH1 0xE5 SHL DUP2 MSTORE PUSH1 0x20 PUSH1 0x4 DUP3 ADD MSTORE PUSH1 0x15 PUSH1 0x24 DUP3 ADD MSTORE PUSH21 0x496E76616C6964206D656D626572206C696D697473 PUSH1 0x58 SHL PUSH1 0x44 DUP3 ADD MSTORE PUSH1 0x64 SWAP1 REVERT JUMPDEST POP PUSH1 0xE4 CALLDATALOAD PUSH1 0xC4 CALLDATALOAD GT ISZERO PUSH2 0x28FD JUMP JUMPDEST PUSH1 0x40 MLOAD PUSH3 0x461BCD PUSH1 0xE5 SHL DUP2 MSTORE PUSH1 0x20 PUSH1 0x4 DUP3 ADD MSTORE PUSH1 0x13 PUSH1 0x24 DUP3 ADD MSTORE PUSH19 0x125B9D985B1A590818DE58DB194818DBDD5B9D PUSH1 0x6A SHL PUSH1 0x44 DUP3 ADD MSTORE PUSH1 0x64 SWAP1 REVERT JUMPDEST POP PUSH1 0x64 DUP1 CALLDATALOAD GT ISZERO PUSH2 0x28EB JUMP JUMPDEST PUSH1 0x40 MLOAD PUSH3 0x461BCD PUSH1 0xE5 SHL DUP2 MSTORE PUSH1 0x20 PUSH1 0x4 DUP3 ADD MSTORE PUSH1 0x14 PUSH1 0x24 DUP3 ADD MSTORE PUSH20 0x496E76616C69642062696420646561646C696E65 PUSH1 0x60 SHL PUSH1 0x44 DUP3 ADD MSTORE PUSH1 0x64 SWAP1 REVERT JUMPDEST POP PUSH1 0x44 CALLDATALOAD PUSH1 0xA4 CALLDATALOAD LT PUSH2 0x28DB JUMP JUMPDEST PUSH1 0x40 MLOAD PUSH3 0x461BCD PUSH1 0xE5 SHL DUP2 MSTORE PUSH1 0x20 PUSH1 0x4 DUP3 ADD MSTORE PUSH1 0x16 PUSH1 0x24 DUP3 ADD MSTORE PUSH22 0x24B73B30B634B21031BCB1B63290323AB930BA34B7B7 PUSH1 0x51 SHL PUSH1 0x44 DUP3 ADD MSTORE PUSH1 0x64 SWAP1 REVERT JUMPDEST POP PUSH3 0x76A700 PUSH1 0x44 CALLDATALOAD GT ISZERO PUSH2 0x28C8 JUMP JUMPDEST PUSH1 0x40 MLOAD PUSH3 0x461BCD PUSH1 0xE5 SHL DUP2 MSTORE PUSH1 0x20 PUSH1 0x4 DUP3 ADD MSTORE PUSH1 0xE PUSH1 0x24 DUP3 ADD MSTORE PUSH14 0x416D6F756E7420746F6F206C6F77 PUSH1 0x90 SHL PUSH1 0x44 DUP3 ADD MSTORE PUSH1 0x64 SWAP1 REVERT JUMPDEST PUSH1 0x40 MLOAD PUSH3 0x461BCD PUSH1 0xE5 SHL DUP2 MSTORE PUSH1 0x20 PUSH1 0x4 DUP3 ADD MSTORE PUSH1 0x13 PUSH1 0x24 DUP3 ADD MSTORE PUSH19 0x92DCECC2D8D2C840DCC2DACA40D8CADCCEE8D PUSH1 0x6B SHL PUSH1 0x44 DUP3 ADD MSTORE PUSH1 0x64 SWAP1 REVERT JUMPDEST PUSH1 0x64 SWAP2 POP GT ISZERO PUSH0 PUSH2 0x28A3 JUMP JUMPDEST POP CALLVALUE PUSH2 0x2B0 JUMPI PUSH2 0x2E05 CALLDATASIZE PUSH2 0x356E JUMP JUMPDEST DUP2 DUP4 MSTORE PUSH1 0x7 PUSH1 0x20 MSTORE PUSH2 0x2E27 PUSH1 0x1 DUP1 PUSH1 0xA0 SHL SUB PUSH1 0x1 PUSH1 0x40 DUP7 KECCAK256 ADD SLOAD AND CALLER EQ PUSH2 0x36FC JUMP JUMPDEST DUP2 ISZERO ISZERO DUP1 PUSH2 0x2EDB JUMPI JUMPDEST PUSH2 0x2E39 SWAP1 PUSH2 0x37C1 JUMP JUMPDEST DUP2 DUP4 MSTORE PUSH1 0x7 PUSH1 0x20 MSTORE PUSH1 0x40 DUP4 KECCAK256 PUSH1 0x1 ADD SLOAD PUSH2 0x2E5D SWAP1 PUSH1 0x1 PUSH1 0x1 PUSH1 0xA0 SHL SUB AND ISZERO ISZERO PUSH2 0x37FE JUMP JUMPDEST DUP1 ISZERO PUSH2 0x2E9E JUMPI PUSH1 0x20 PUSH32 0xE1D4409C721DA49A264A9059B9BF8B6C77CB315BA8A07A4E41E139EA99CE3DD9 SWAP2 DUP4 DUP6 MSTORE PUSH1 0xB DUP3 MSTORE DUP1 PUSH1 0x40 DUP7 KECCAK256 SSTORE PUSH1 0x40 MLOAD SWAP1 DUP2 MSTORE LOG2 DUP1 RETURN JUMPDEST PUSH1 0x40 MLOAD PUSH3 0x461BCD PUSH1 0xE5 SHL DUP2 MSTORE PUSH1 0x20 PUSH1 0x4 DUP3 ADD MSTORE PUSH1 0x15 PUSH1 0x24 DUP3 ADD MSTORE PUSH21 0x5468726573686F6C64206D757374206265203E203 PUSH1 0x5C SHL PUSH1 0x44 DUP3 ADD MSTORE PUSH1 0x64 SWAP1 REVERT JUMPDEST POP PUSH1 0x5 SLOAD DUP3 LT PUSH2 0x2E30 JUMP JUMPDEST POP CALLVALUE PUSH2 0x2B0 JUMPI PUSH2 0x2EF5 CALLDATASIZE PUSH2 0x353B JUMP JUMPDEST DUP2 DUP4 MSTORE PUSH1 0x7 PUSH1 0x20 MSTORE PUSH2 0x2F17 PUSH1 0x1 DUP1 PUSH1 0xA0 SHL SUB PUSH1 0x1 PUSH1 0x40 DUP7 KECCAK256 ADD SLOAD AND CALLER EQ PUSH2 0x36FC JUMP JUMPDEST DUP2 ISZERO ISZERO DUP1 PUSH2 0x3029 JUMPI JUMPDEST PUSH2 0x2F29 SWAP1 PUSH2 0x37C1 JUMP JUMPDEST DUP2 DUP4 MSTORE PUSH1 0x7 PUSH1 0x20 MSTORE PUSH1 0x40 DUP4 KECCAK256 PUSH1 0x1 ADD SLOAD PUSH2 0x2F4D SWAP1 PUSH1 0x1 PUSH1 0x1 PUSH1 0xA0 SHL SUB AND ISZERO ISZERO PUSH2 0x37FE JUMP JUMPDEST PUSH2 0x2F55 PUSH2 0x3AB6 JUMP JUMPDEST DUP2 DUP4 MSTORE PUSH1 0x7 PUSH1 0x20 MSTORE PUSH1 0x40 DUP4 KECCAK256 PUSH1 0x5 DUP2 ADD SLOAD PUSH2 0x2FE4 JUMPI DUP2 PUSH1 0x8 PUSH2 0x7CE SWAP3 PUSH2 0x2F8B PUSH0 MLOAD PUSH1 0x20 PUSH2 0x3E78 PUSH0 CODECOPY PUSH0 MLOAD SWAP1 PUSH0 MSTORE SWAP6 MLOAD ISZERO ISZERO PUSH2 0x383F JUMP JUMPDEST ADD PUSH1 0x3 PUSH1 0xFF NOT DUP3 SLOAD AND OR SWAP1 SSTORE DUP4 PUSH0 MLOAD PUSH1 0x20 PUSH2 0x3E58 PUSH0 CODECOPY PUSH0 MLOAD SWAP1 PUSH0 MSTORE PUSH1 0x20 PUSH1 0x40 MLOAD PUSH1 0x3 DUP2 MSTORE LOG2 PUSH1 0x40 MLOAD SWAP2 DUP3 SWAP2 PUSH1 0x40 DUP4 MSTORE PUSH1 0x9 PUSH1 0x40 DUP5 ADD MSTORE PUSH9 0x10D05390D153131151 PUSH1 0xBA SHL PUSH1 0x60 DUP5 ADD MSTORE PUSH1 0x80 PUSH1 0x20 DUP5 ADD MSTORE PUSH1 0x80 DUP4 ADD SWAP1 PUSH2 0x365C JUMP JUMPDEST PUSH1 0x40 MLOAD PUSH3 0x461BCD PUSH1 0xE5 SHL DUP2 MSTORE PUSH1 0x20 PUSH1 0x4 DUP3 ADD MSTORE PUSH1 0x19 PUSH1 0x24 DUP3 ADD MSTORE PUSH32 0x43616E6E6F742063616E63656C207374617274656420706F7400000000000000 PUSH1 0x44 DUP3 ADD MSTORE PUSH1 0x64 SWAP1 REVERT JUMPDEST POP PUSH1 0x5 SLOAD DUP3 LT PUSH2 0x2F20 JUMP JUMPDEST POP CALLVALUE PUSH2 0x2B0 JUMPI PUSH1 0x20 CALLDATASIZE PUSH1 0x3 NOT ADD SLT PUSH2 0x2B0 JUMPI PUSH2 0xE68 SWAP1 PUSH2 0x306F SWAP1 PUSH1 0x40 SWAP1 PUSH1 0x1 PUSH1 0x1 PUSH1 0xA0 SHL SUB PUSH2 0x3061 PUSH2 0x3444 JUMP JUMPDEST AND DUP2 MSTORE PUSH1 0xA PUSH1 0x20 MSTORE KECCAK256 PUSH2 0x3779 JUMP JUMPDEST PUSH1 0x40 MLOAD SWAP2 DUP3 SWAP2 PUSH1 0x20 DUP4 MSTORE PUSH1 0x20 DUP4 ADD SWAP1 PUSH2 0x3470 JUMP JUMPDEST POP CALLVALUE PUSH2 0x1377 JUMPI PUSH1 0x20 CALLDATASIZE PUSH1 0x3 NOT ADD SLT PUSH2 0x1377 JUMPI PUSH1 0x4 CALLDATALOAD DUP1 PUSH0 MSTORE PUSH1 0x8 PUSH1 0x20 MSTORE PUSH1 0x40 PUSH0 KECCAK256 SLOAD PUSH0 MSTORE PUSH1 0x7 PUSH1 0x20 MSTORE PUSH2 0x30C6 PUSH1 0x1 DUP1 PUSH1 0xA0 SHL SUB PUSH1 0x1 PUSH1 0x40 PUSH0 KECCAK256 ADD SLOAD AND CALLER EQ PUSH2 0x36FC JUMP JUMPDEST DUP1 ISZERO ISZERO DUP1 PUSH2 0x33FF JUMPI JUMPDEST PUSH2 0x30D8 SWAP1 PUSH2 0x373A JUMP JUMPDEST PUSH2 0x30E0 PUSH2 0x3AB6 JUMP JUMPDEST DUP1 PUSH0 MSTORE PUSH1 0x8 PUSH1 0x20 MSTORE PUSH1 0x40 PUSH0 KECCAK256 SWAP1 PUSH1 0x6 DUP3 ADD PUSH1 0xFF DUP2 SLOAD PUSH1 0xA0 SHR AND PUSH1 0x5 DUP2 LT ISZERO PUSH2 0x33EB JUMPI PUSH1 0x2 SUB PUSH2 0x33B1 JUMPI DUP3 SLOAD PUSH0 MSTORE PUSH1 0x7 PUSH1 0x20 MSTORE PUSH1 0x40 PUSH0 KECCAK256 SWAP1 PUSH0 SWAP1 PUSH1 0x8 DUP6 ADD DUP1 SLOAD DUP1 ISZERO PUSH0 EQ PUSH2 0x3315 JUMPI POP POP POP POP PUSH1 0x9 PUSH1 0x1 DUP1 PUSH1 0xA0 SHL SUB PUSH1 0x3 SLOAD AND SWAP2 ADD SWAP1 PUSH1 0x40 MLOAD SWAP1 PUSH4 0x669DC217 PUSH1 0xE1 SHL DUP3 MSTORE DUP2 PUSH1 0x24 DUP2 ADD PUSH1 0x20 PUSH1 0x4 DUP4 ADD MSTORE DUP5 SLOAD DUP1 SWAP2 MSTORE PUSH1 0x44 DUP3 ADD SWAP1 DUP6 PUSH0 MSTORE PUSH1 0x20 PUSH0 KECCAK256 SWAP1 PUSH0 JUMPDEST DUP2 DUP2 LT PUSH2 0x32F3 JUMPI POP POP POP SWAP2 DUP2 PUSH0 DUP2 PUSH1 0x20 SWAP6 SUB SWAP3 GAS CALL SWAP1 DUP2 ISZERO PUSH2 0x32A1 JUMPI PUSH0 SWAP2 PUSH2 0x32AC JUMPI JUMPDEST POP PUSH2 0x3196 SWAP2 PUSH2 0x368A JUMP JUMPDEST SWAP1 SLOAD PUSH1 0x4 DUP5 ADD DUP1 SLOAD PUSH1 0x1 PUSH1 0x1 PUSH1 0xA0 SHL SUB NOT AND PUSH1 0x3 SWAP4 SWAP1 SWAP4 SHL SWAP2 SWAP1 SWAP2 SHR PUSH1 0x1 PUSH1 0x1 PUSH1 0xA0 SHL SUB AND SWAP2 SWAP1 SWAP2 OR SWAP1 SSTORE PUSH1 0x1 JUMPDEST PUSH1 0x2 SLOAD PUSH1 0x4 DUP5 ADD DUP1 SLOAD DUP6 SLOAD SWAP2 SWAP3 PUSH1 0x8 SHR PUSH1 0x1 PUSH1 0x1 PUSH1 0xA0 SHL SUB SWAP1 DUP2 AND SWAP3 SWAP2 AND SWAP1 DUP3 EXTCODESIZE ISZERO PUSH2 0x1377 JUMPI PUSH1 0x64 PUSH0 SWAP3 DUP4 PUSH1 0x40 MLOAD SWAP6 DUP7 SWAP5 DUP6 SWAP4 PUSH3 0x324DF1 PUSH1 0xE5 SHL DUP6 MSTORE PUSH1 0x4 DUP6 ADD MSTORE PUSH1 0x24 DUP5 ADD MSTORE DUP10 PUSH1 0x44 DUP5 ADD MSTORE GAS CALL DUP1 ISZERO PUSH2 0x32A1 JUMPI PUSH2 0x3263 JUMPI JUMPDEST POP PUSH32 0xD144A4F5007E402179221B976303B0C6A84F7F8D6181B4163D18376F32EB96F9 SWAP2 PUSH1 0x5 PUSH1 0x40 SWAP3 PUSH1 0x1 DUP1 PUSH1 0xA0 SHL SUB SWAP1 SLOAD AND SWAP6 ADD SLOAD SWAP1 DUP3 MLOAD SWAP2 DUP3 MSTORE ISZERO ISZERO PUSH1 0x20 DUP3 ADD MSTORE LOG3 DUP1 RETURN JUMPDEST PUSH1 0x40 SWAP2 SWAP6 POP SWAP2 PUSH2 0x3294 PUSH0 PUSH32 0xD144A4F5007E402179221B976303B0C6A84F7F8D6181B4163D18376F32EB96F9 SWAP5 PUSH2 0x34A3 JUMP JUMPDEST PUSH1 0x5 PUSH0 SWAP7 SWAP3 POP POP SWAP2 PUSH2 0x321D JUMP JUMPDEST PUSH1 0x40 MLOAD RETURNDATASIZE PUSH0 DUP3 RETURNDATACOPY RETURNDATASIZE SWAP1 REVERT JUMPDEST SWAP1 POP PUSH1 0x20 DUP2 RETURNDATASIZE PUSH1 0x20 GT PUSH2 0x32EB JUMPI JUMPDEST DUP2 PUSH2 0x32C7 PUSH1 0x20 SWAP4 DUP4 PUSH2 0x34A3 JUMP JUMPDEST DUP2 ADD SUB SLT PUSH2 0x1377 JUMPI MLOAD SWAP1 PUSH8 0xFFFFFFFFFFFFFFFF DUP3 AND DUP3 SUB PUSH2 0x1377 JUMPI SWAP1 PUSH2 0x3196 PUSH2 0x318C JUMP JUMPDEST RETURNDATASIZE SWAP2 POP PUSH2 0x32BA JUMP JUMPDEST DUP3 SLOAD PUSH1 0x1 PUSH1 0x1 PUSH1 0xA0 SHL SUB AND DUP5 MSTORE DUP7 SWAP5 POP PUSH1 0x20 SWAP1 SWAP4 ADD SWAP3 PUSH1 0x1 SWAP3 DUP4 ADD SWAP3 ADD PUSH2 0x3169 JUMP JUMPDEST SWAP2 SWAP3 SWAP4 POP PUSH0 SWAP2 PUSH0 NOT SWAP2 PUSH0 SWAP1 PUSH1 0x7 DUP10 ADD SWAP2 JUMPDEST DUP4 DUP2 LT PUSH2 0x3368 JUMPI POP POP POP POP PUSH1 0x4 DUP7 ADD DUP1 SLOAD PUSH1 0x1 PUSH1 0x1 PUSH1 0xA0 SHL SUB NOT SWAP1 DUP2 AND PUSH1 0x1 PUSH1 0x1 PUSH1 0xA0 SHL SUB SWAP5 SWAP1 SWAP5 AND SWAP4 DUP5 OR SWAP1 SWAP2 SSTORE PUSH1 0x5 DUP8 ADD SWAP2 SWAP1 SWAP2 SSTORE DUP3 SLOAD AND OR SWAP1 SSTORE PUSH2 0x31C4 JUMP JUMPDEST PUSH2 0x3372 DUP2 DUP4 PUSH2 0x368A JUMP JUMPDEST SWAP1 SLOAD PUSH1 0x3 SWAP2 SWAP1 SWAP2 SHL SHR PUSH1 0x1 PUSH1 0x1 PUSH1 0xA0 SHL SUB AND PUSH0 DUP2 DUP2 MSTORE PUSH1 0x20 DUP6 SWAP1 MSTORE PUSH1 0x40 SWAP1 KECCAK256 SLOAD DUP7 DUP2 LT PUSH2 0x33A4 JUMPI JUMPDEST POP POP PUSH1 0x1 ADD PUSH2 0x3326 JUMP JUMPDEST SWAP1 SWAP7 POP SWAP5 POP PUSH1 0x1 PUSH0 PUSH2 0x339A JUMP JUMPDEST PUSH1 0x40 MLOAD PUSH3 0x461BCD PUSH1 0xE5 SHL DUP2 MSTORE PUSH1 0x20 PUSH1 0x4 DUP3 ADD MSTORE PUSH1 0x12 PUSH1 0x24 DUP3 ADD MSTORE PUSH18 0x109A59191A5B99C81B9BDD0818DB1BDCD959 PUSH1 0x72 SHL PUSH1 0x44 DUP3 ADD MSTORE PUSH1 0x64 SWAP1 REVERT JUMPDEST PUSH4 0x4E487B71 PUSH1 0xE0 SHL PUSH0 MSTORE PUSH1 0x21 PUSH1 0x4 MSTORE PUSH1 0x24 PUSH0 REVERT JUMPDEST POP PUSH1 0x6 SLOAD DUP2 LT PUSH2 0x30CF JUMP JUMPDEST CALLVALUE PUSH2 0x1377 JUMPI PUSH0 CALLDATASIZE PUSH1 0x3 NOT ADD SLT PUSH2 0x1377 JUMPI PUSH1 0x5 SLOAD PUSH0 NOT DUP2 ADD SWAP2 SWAP1 DUP3 GT PUSH2 0x3430 JUMPI PUSH1 0x20 SWAP2 DUP2 MSTORE RETURN JUMPDEST PUSH4 0x4E487B71 PUSH1 0xE0 SHL PUSH0 MSTORE PUSH1 0x11 PUSH1 0x4 MSTORE PUSH1 0x24 PUSH0 REVERT JUMPDEST PUSH1 0x4 CALLDATALOAD SWAP1 PUSH1 0x1 PUSH1 0x1 PUSH1 0xA0 SHL SUB DUP3 AND DUP3 SUB PUSH2 0x1377 JUMPI JUMP JUMPDEST PUSH1 0x24 CALLDATALOAD SWAP1 PUSH1 0x1 PUSH1 0x1 PUSH1 0xA0 SHL SUB DUP3 AND DUP3 SUB PUSH2 0x1377 JUMPI JUMP JUMPDEST SWAP1 PUSH1 0x20 DUP1 DUP4 MLOAD SWAP3 DUP4 DUP2 MSTORE ADD SWAP3 ADD SWAP1 PUSH0 JUMPDEST DUP2 DUP2 LT PUSH2 0x348D JUMPI POP POP POP SWAP1 JUMP JUMPDEST DUP3 MLOAD DUP5 MSTORE PUSH1 0x20 SWAP4 DUP5 ADD SWAP4 SWAP1 SWAP3 ADD SWAP2 PUSH1 0x1 ADD PUSH2 0x3480 JUMP JUMPDEST SWAP1 PUSH1 0x1F DUP1 NOT SWAP2 ADD AND DUP2 ADD SWAP1 DUP2 LT PUSH8 0xFFFFFFFFFFFFFFFF DUP3 GT OR PUSH2 0x34C5 JUMPI PUSH1 0x40 MSTORE JUMP JUMPDEST PUSH4 0x4E487B71 PUSH1 0xE0 SHL PUSH0 MSTORE PUSH1 0x41 PUSH1 0x4 MSTORE PUSH1 0x24 PUSH0 REVERT JUMPDEST PUSH8 0xFFFFFFFFFFFFFFFF DUP2 GT PUSH2 0x34C5 JUMPI PUSH1 0x1F ADD PUSH1 0x1F NOT AND PUSH1 0x20 ADD SWAP1 JUMP JUMPDEST DUP2 PUSH1 0x1F DUP3 ADD SLT ISZERO PUSH2 0x1377 JUMPI DUP1 CALLDATALOAD SWAP1 PUSH2 0x350C DUP3 PUSH2 0x34D9 JUMP JUMPDEST SWAP3 PUSH2 0x351A PUSH1 0x40 MLOAD SWAP5 DUP6 PUSH2 0x34A3 JUMP JUMPDEST DUP3 DUP5 MSTORE PUSH1 0x20 DUP4 DUP4 ADD ADD GT PUSH2 0x1377 JUMPI DUP2 PUSH0 SWAP3 PUSH1 0x20 DUP1 SWAP4 ADD DUP4 DUP7 ADD CALLDATACOPY DUP4 ADD ADD MSTORE SWAP1 JUMP JUMPDEST SWAP1 PUSH1 0x40 PUSH1 0x3 NOT DUP4 ADD SLT PUSH2 0x1377 JUMPI PUSH1 0x4 CALLDATALOAD SWAP2 PUSH1 0x24 CALLDATALOAD SWAP1 PUSH8 0xFFFFFFFFFFFFFFFF DUP3 GT PUSH2 0x1377 JUMPI PUSH2 0x356B SWAP2 PUSH1 0x4 ADD PUSH2 0x34F5 JUMP JUMPDEST SWAP1 JUMP JUMPDEST PUSH1 0x40 SWAP1 PUSH1 0x3 NOT ADD SLT PUSH2 0x1377 JUMPI PUSH1 0x4 CALLDATALOAD SWAP1 PUSH1 0x24 CALLDATALOAD SWAP1 JUMP JUMPDEST SWAP1 PUSH1 0x1 DUP3 DUP2 SHR SWAP3 AND DUP1 ISZERO PUSH2 0x35B2 JUMPI JUMPDEST PUSH1 0x20 DUP4 LT EQ PUSH2 0x359E JUMPI JUMP JUMPDEST PUSH4 0x4E487B71 PUSH1 0xE0 SHL PUSH0 MSTORE PUSH1 0x22 PUSH1 0x4 MSTORE PUSH1 0x24 PUSH0 REVERT JUMPDEST SWAP2 PUSH1 0x7F AND SWAP2 PUSH2 0x3593 JUMP JUMPDEST SWAP1 PUSH1 0x40 MLOAD SWAP2 DUP3 PUSH0 DUP3 SLOAD SWAP3 PUSH2 0x35CF DUP5 PUSH2 0x3584 JUMP JUMPDEST DUP1 DUP5 MSTORE SWAP4 PUSH1 0x1 DUP2 AND SWAP1 DUP2 ISZERO PUSH2 0x363A JUMPI POP PUSH1 0x1 EQ PUSH2 0x35F6 JUMPI JUMPDEST POP PUSH2 0x35F4 SWAP3 POP SUB DUP4 PUSH2 0x34A3 JUMP JUMPDEST JUMP JUMPDEST SWAP1 POP PUSH0 SWAP3 SWAP2 SWAP3 MSTORE PUSH1 0x20 PUSH0 KECCAK256 SWAP1 PUSH0 SWAP2 JUMPDEST DUP2 DUP4 LT PUSH2 0x361E JUMPI POP POP SWAP1 PUSH1 0x20 PUSH2 0x35F4 SWAP3 DUP3 ADD ADD PUSH0 PUSH2 0x35E7 JUMP JUMPDEST PUSH1 0x20 SWAP2 SWAP4 POP DUP1 PUSH1 0x1 SWAP2 SLOAD DUP4 DUP6 DUP10 ADD ADD MSTORE ADD SWAP2 ADD SWAP1 SWAP2 DUP5 SWAP3 PUSH2 0x3605 JUMP JUMPDEST SWAP1 POP PUSH1 0x20 SWAP3 POP PUSH2 0x35F4 SWAP5 SWAP2 POP PUSH1 0xFF NOT AND DUP3 DUP5 ADD MSTORE ISZERO ISZERO PUSH1 0x5 SHL DUP3 ADD ADD PUSH0 PUSH2 0x35E7 JUMP JUMPDEST DUP1 MLOAD DUP1 DUP4 MSTORE PUSH1 0x20 SWAP3 SWAP2 DUP2 SWAP1 DUP5 ADD DUP5 DUP5 ADD MCOPY PUSH0 DUP3 DUP3 ADD DUP5 ADD MSTORE PUSH1 0x1F ADD PUSH1 0x1F NOT AND ADD ADD SWAP1 JUMP JUMPDEST PUSH1 0x4 GT ISZERO PUSH2 0x33EB JUMPI JUMP JUMPDEST DUP1 SLOAD DUP3 LT ISZERO PUSH2 0x369F JUMPI PUSH0 MSTORE PUSH1 0x20 PUSH0 KECCAK256 ADD SWAP1 PUSH0 SWAP1 JUMP JUMPDEST PUSH4 0x4E487B71 PUSH1 0xE0 SHL PUSH0 MSTORE PUSH1 0x32 PUSH1 0x4 MSTORE PUSH1 0x24 PUSH0 REVERT JUMPDEST SWAP1 PUSH1 0x20 DUP1 DUP4 MLOAD SWAP3 DUP4 DUP2 MSTORE ADD SWAP3 ADD SWAP1 PUSH0 JUMPDEST DUP2 DUP2 LT PUSH2 0x36D0 JUMPI POP POP POP SWAP1 JUMP JUMPDEST DUP3 MLOAD PUSH1 0x1 PUSH1 0x1 PUSH1 0xA0 SHL SUB AND DUP5 MSTORE PUSH1 0x20 SWAP4 DUP5 ADD SWAP4 SWAP1 SWAP3 ADD SWAP2 PUSH1 0x1 ADD PUSH2 0x36C3 JUMP JUMPDEST SWAP2 SWAP1 DUP3 SUB SWAP2 DUP3 GT PUSH2 0x3430 JUMPI JUMP JUMPDEST ISZERO PUSH2 0x3703 JUMPI JUMP JUMPDEST PUSH1 0x40 MLOAD PUSH3 0x461BCD PUSH1 0xE5 SHL DUP2 MSTORE PUSH1 0x20 PUSH1 0x4 DUP3 ADD MSTORE PUSH1 0xF PUSH1 0x24 DUP3 ADD MSTORE PUSH15 0x2737BA103837BA1031B932B0BA37B9 PUSH1 0x89 SHL PUSH1 0x44 DUP3 ADD MSTORE PUSH1 0x64 SWAP1 REVERT JUMPDEST ISZERO PUSH2 0x3741 JUMPI JUMP JUMPDEST PUSH1 0x40 MLOAD PUSH3 0x461BCD PUSH1 0xE5 SHL DUP2 MSTORE PUSH1 0x20 PUSH1 0x4 DUP3 ADD MSTORE PUSH1 0x10 PUSH1 0x24 DUP3 ADD MSTORE PUSH16 0x125B9D985B1A590818DE58DB19481251 PUSH1 0x82 SHL PUSH1 0x44 DUP3 ADD MSTORE PUSH1 0x64 SWAP1 REVERT JUMPDEST SWAP1 PUSH1 0x40 MLOAD SWAP2 DUP3 DUP2 SLOAD SWAP2 DUP3 DUP3 MSTORE PUSH1 0x20 DUP3 ADD SWAP1 PUSH0 MSTORE PUSH1 0x20 PUSH0 KECCAK256 SWAP3 PUSH0 JUMPDEST DUP2 DUP2 LT PUSH2 0x37A8 JUMPI POP POP PUSH2 0x35F4 SWAP3 POP SUB DUP4 PUSH2 0x34A3 JUMP JUMPDEST DUP5 SLOAD DUP4 MSTORE PUSH1 0x1 SWAP5 DUP6 ADD SWAP5 DUP8 SWAP5 POP PUSH1 0x20 SWAP1 SWAP4 ADD SWAP3 ADD PUSH2 0x3793 JUMP JUMPDEST ISZERO PUSH2 0x37C8 JUMPI JUMP JUMPDEST PUSH1 0x40 MLOAD PUSH3 0x461BCD PUSH1 0xE5 SHL DUP2 MSTORE PUSH1 0x20 PUSH1 0x4 DUP3 ADD MSTORE PUSH1 0xE PUSH1 0x24 DUP3 ADD MSTORE PUSH14 0x125B9D985B1A59081C1BDD081251 PUSH1 0x92 SHL PUSH1 0x44 DUP3 ADD MSTORE PUSH1 0x64 SWAP1 REVERT JUMPDEST ISZERO PUSH2 0x3805 JUMPI JUMP JUMPDEST PUSH1 0x40 MLOAD PUSH3 0x461BCD PUSH1 0xE5 SHL DUP2 MSTORE PUSH1 0x20 PUSH1 0x4 DUP3 ADD MSTORE PUSH1 0x12 PUSH1 0x24 DUP3 ADD MSTORE PUSH18 0x141BDD08191BD95CC81B9BDD08195E1A5CDD PUSH1 0x72 SHL PUSH1 0x44 DUP3 ADD MSTORE PUSH1 0x64 SWAP1 REVERT JUMPDEST ISZERO PUSH2 0x3846 JUMPI JUMP JUMPDEST PUSH1 0x40 MLOAD PUSH3 0x461BCD PUSH1 0xE5 SHL DUP2 MSTORE PUSH1 0x20 PUSH1 0x4 DUP3 ADD MSTORE PUSH1 0x13 PUSH1 0x24 DUP3 ADD MSTORE PUSH19 0x26BAB9BA10383937BB34B232903932B0B9B7B7 PUSH1 0x69 SHL PUSH1 0x44 DUP3 ADD MSTORE PUSH1 0x64 SWAP1 REVERT JUMPDEST SWAP1 DUP2 PUSH1 0x20 SWAP2 SUB SLT PUSH2 0x1377 JUMPI MLOAD DUP1 ISZERO ISZERO DUP2 SUB PUSH2 0x1377 JUMPI SWAP1 JUMP JUMPDEST ISZERO PUSH2 0x38A0 JUMPI JUMP JUMPDEST PUSH1 0x40 MLOAD PUSH3 0x461BCD PUSH1 0xE5 SHL DUP2 MSTORE PUSH1 0x20 PUSH1 0x4 DUP3 ADD MSTORE PUSH1 0xE PUSH1 0x24 DUP3 ADD MSTORE PUSH14 0x139BDD081C9959DA5CDD195C9959 PUSH1 0x92 SHL PUSH1 0x44 DUP3 ADD MSTORE PUSH1 0x64 SWAP1 REVERT JUMPDEST PUSH0 NOT DUP2 EQ PUSH2 0x3430 JUMPI PUSH1 0x1 ADD SWAP1 JUMP JUMPDEST SWAP1 DUP2 SLOAD SWAP2 PUSH1 0x1 PUSH1 0x40 SHL DUP4 LT ISZERO PUSH2 0x34C5 JUMPI DUP3 PUSH2 0x4D2 SWAP2 PUSH1 0x1 PUSH2 0x35F4 SWAP6 ADD DUP2 SSTORE PUSH2 0x368A JUMP JUMPDEST DUP1 SLOAD SWAP1 PUSH1 0x1 PUSH1 0x40 SHL DUP3 LT ISZERO PUSH2 0x34C5 JUMPI DUP2 PUSH2 0x5A6 SWAP2 PUSH1 0x1 PUSH2 0x3929 SWAP5 ADD DUP2 SSTORE PUSH2 0x368A JUMP JUMPDEST SWAP1 SSTORE JUMP JUMPDEST ISZERO PUSH2 0x3934 JUMPI JUMP JUMPDEST PUSH1 0x40 MLOAD PUSH3 0x461BCD PUSH1 0xE5 SHL DUP2 MSTORE PUSH1 0x20 PUSH1 0x4 DUP3 ADD MSTORE PUSH1 0xF PUSH1 0x24 DUP3 ADD MSTORE PUSH15 0x496E76616C69642061646472657373 PUSH1 0x88 SHL PUSH1 0x44 DUP3 ADD MSTORE PUSH1 0x64 SWAP1 REVERT JUMPDEST ISZERO PUSH2 0x3972 JUMPI JUMP JUMPDEST PUSH1 0x40 MLOAD PUSH3 0x461BCD PUSH1 0xE5 SHL DUP2 MSTORE PUSH1 0x20 PUSH1 0x4 DUP3 ADD MSTORE PUSH1 0xE PUSH1 0x24 DUP3 ADD MSTORE PUSH14 0x506F74206E6F7420616374697665 PUSH1 0x90 SHL PUSH1 0x44 DUP3 ADD MSTORE PUSH1 0x64 SWAP1 REVERT JUMPDEST ISZERO PUSH2 0x39AF JUMPI JUMP JUMPDEST PUSH1 0x40 MLOAD PUSH3 0x461BCD PUSH1 0xE5 SHL DUP2 MSTORE PUSH1 0x20 PUSH1 0x4 DUP3 ADD MSTORE PUSH1 0x10 PUSH1 0x24 DUP3 ADD MSTORE PUSH16 0x4379636C65206E6F7420616374697665 PUSH1 0x80 SHL PUSH1 0x44 DUP3 ADD MSTORE PUSH1 0x64 SWAP1 REVERT JUMPDEST SWAP1 PUSH1 0x40 MLOAD SWAP2 DUP3 DUP2 SLOAD SWAP2 DUP3 DUP3 MSTORE PUSH1 0x20 DUP3 ADD SWAP1 PUSH0 MSTORE PUSH1 0x20 PUSH0 KECCAK256 SWAP3 PUSH0 JUMPDEST DUP2 DUP2 LT PUSH2 0x3A16 JUMPI POP POP PUSH2 0x35F4 SWAP3 POP SUB DUP4 PUSH2 0x34A3 JUMP JUMPDEST DUP5 SLOAD PUSH1 0x1 PUSH1 0x1 PUSH1 0xA0 SHL SUB AND DUP4 MSTORE PUSH1 0x1 SWAP5 DUP6 ADD SWAP5 DUP8 SWAP5 POP PUSH1 0x20 SWAP1 SWAP4 ADD SWAP3 ADD PUSH2 0x3A01 JUMP JUMPDEST DUP2 DUP2 MUL SWAP3 SWAP2 DUP2 ISZERO SWAP2 DUP5 DIV EQ OR ISZERO PUSH2 0x3430 JUMPI JUMP JUMPDEST PUSH8 0xFFFFFFFFFFFFFFFF DUP2 GT PUSH2 0x34C5 JUMPI PUSH1 0x5 SHL PUSH1 0x20 ADD SWAP1 JUMP JUMPDEST SWAP1 PUSH2 0x3A6D DUP3 PUSH2 0x3A4B JUMP JUMPDEST PUSH2 0x3A7A PUSH1 0x40 MLOAD SWAP2 DUP3 PUSH2 0x34A3 JUMP JUMPDEST DUP3 DUP2 MSTORE DUP1 SWAP3 PUSH2 0x3A8B PUSH1 0x1F NOT SWAP2 PUSH2 0x3A4B JUMP JUMPDEST ADD SWAP1 PUSH1 0x20 CALLDATASIZE SWAP2 ADD CALLDATACOPY JUMP JUMPDEST DUP1 MLOAD DUP3 LT ISZERO PUSH2 0x369F JUMPI PUSH1 0x20 SWAP2 PUSH1 0x5 SHL ADD ADD SWAP1 JUMP JUMPDEST SWAP2 SWAP1 DUP3 ADD DUP1 SWAP3 GT PUSH2 0x3430 JUMPI JUMP JUMPDEST PUSH1 0xFF PUSH1 0x2 SLOAD AND PUSH2 0x3AC2 JUMPI JUMP JUMPDEST PUSH1 0x40 MLOAD PUSH3 0x461BCD PUSH1 0xE5 SHL DUP2 MSTORE PUSH1 0x20 PUSH1 0x4 DUP3 ADD MSTORE PUSH1 0x10 PUSH1 0x24 DUP3 ADD MSTORE PUSH16 0x14185D5CD8589B194E881C185D5CD959 PUSH1 0x82 SHL PUSH1 0x44 DUP3 ADD MSTORE PUSH1 0x64 SWAP1 REVERT JUMPDEST PUSH0 SLOAD PUSH1 0x1 PUSH1 0x1 PUSH1 0xA0 SHL SUB AND CALLER SUB PUSH2 0x3B0D JUMPI JUMP JUMPDEST PUSH4 0x118CDAA7 PUSH1 0xE0 SHL PUSH0 MSTORE CALLER PUSH1 0x4 MSTORE PUSH1 0x24 PUSH0 REVERT JUMPDEST PUSH1 0x2 PUSH1 0x1 SLOAD EQ PUSH2 0x3B31 JUMPI PUSH1 0x2 PUSH1 0x1 SSTORE JUMP JUMPDEST PUSH1 0x40 MLOAD PUSH3 0x461BCD PUSH1 0xE5 SHL DUP2 MSTORE PUSH1 0x20 PUSH1 0x4 DUP3 ADD MSTORE PUSH1 0x1F PUSH1 0x24 DUP3 ADD MSTORE PUSH32 0x5265656E7472616E637947756172643A207265656E7472616E742063616C6C00 PUSH1 0x44 DUP3 ADD MSTORE PUSH1 0x64 SWAP1 REVERT JUMPDEST DUP1 PUSH0 MSTORE PUSH1 0x8 PUSH1 0x20 MSTORE PUSH1 0x40 PUSH0 KECCAK256 DUP1 SLOAD SWAP1 DUP2 PUSH0 MSTORE PUSH1 0x7 PUSH1 0x20 MSTORE PUSH1 0x40 PUSH0 KECCAK256 SWAP1 PUSH1 0xC DUP2 ADD SWAP2 PUSH1 0xFF DUP4 SLOAD PUSH1 0x8 SHR AND PUSH2 0x3DFC JUMPI PUSH2 0x3BB6 PUSH1 0x3 DUP4 ADD SLOAD PUSH1 0x2 DUP5 ADD SLOAD SWAP1 PUSH2 0x36EF JUMP JUMPDEST SWAP2 PUSH1 0x1 DUP1 PUSH1 0xA0 SHL SUB PUSH1 0x4 SLOAD AND SWAP5 PUSH1 0x40 MLOAD SWAP4 PUSH3 0x56B70D PUSH1 0xE6 SHL DUP6 MSTORE DUP8 PUSH1 0x4 DUP7 ADD MSTORE PUSH1 0x24 DUP6 ADD MSTORE PUSH1 0x20 DUP5 PUSH1 0x44 DUP2 DUP10 GAS STATICCALL SWAP4 DUP5 ISZERO PUSH2 0x32A1 JUMPI PUSH0 SWAP5 PUSH2 0x3DC8 JUMPI JUMPDEST POP PUSH0 MSTORE PUSH1 0xB PUSH1 0x20 MSTORE PUSH1 0x40 PUSH0 KECCAK256 SLOAD DUP4 LT PUSH2 0x3DC0 JUMPI PUSH1 0x9 DUP3 ADD SWAP2 DUP3 SLOAD SWAP6 PUSH0 NOT DUP8 ADD SWAP7 DUP1 DUP9 GT PUSH2 0x3430 JUMPI PUSH2 0x3C22 DUP9 PUSH2 0x3A63 JUMP JUMPDEST SWAP5 PUSH2 0x3C2C DUP10 PUSH2 0x3A63 JUMP JUMPDEST SWAP9 DUP1 ISZERO PUSH2 0x3DAC JUMPI PUSH1 0x4 DUP7 ADD SLOAD PUSH0 SWAP3 SWAP2 DUP10 DIV SWAP2 SWAP1 PUSH1 0x1 PUSH1 0x1 PUSH1 0xA0 SHL SUB AND DUP4 JUMPDEST DUP6 DUP2 LT PUSH2 0x3D37 JUMPI POP POP POP POP POP POP DUP4 MLOAD PUSH2 0x3C68 JUMPI JUMPDEST POP POP POP POP POP POP POP POP JUMP JUMPDEST DUP1 EXTCODESIZE ISZERO PUSH2 0x1377 JUMPI PUSH2 0x3CB5 SWAP7 PUSH0 SWAP2 DUP10 DUP4 PUSH1 0x40 MLOAD DUP1 SWAP12 DUP2 SWAP6 DUP3 SWAP5 PUSH4 0xA732323 PUSH1 0xE4 SHL DUP5 MSTORE PUSH1 0x4 DUP5 ADD MSTORE PUSH1 0x60 PUSH1 0x24 DUP5 ADD MSTORE PUSH2 0x3CA3 PUSH1 0x64 DUP5 ADD DUP13 PUSH2 0x36B3 JUMP JUMPDEST DUP4 DUP2 SUB PUSH1 0x3 NOT ADD PUSH1 0x44 DUP6 ADD MSTORE SWAP1 PUSH2 0x3470 JUMP JUMPDEST SUB SWAP3 GAS CALL SWAP5 DUP6 ISZERO PUSH2 0x32A1 JUMPI DUP5 PUSH1 0xB PUSH1 0xE SWAP5 PUSH32 0xF571BB88B0EC5DC25398FC62C69D5970D50EA313A0A6596B0CA7F0197D37383F SWAP10 PUSH1 0x40 SWAP10 PUSH2 0x3D27 JUMPI JUMPDEST POP ADD SSTORE PUSH2 0x100 PUSH2 0xFF00 NOT DUP3 SLOAD AND OR SWAP1 SSTORE ADD PUSH2 0x3D0C DUP4 DUP3 SLOAD PUSH2 0x3AA9 JUMP JUMPDEST SWAP1 SSTORE MLOAD DUP3 MLOAD SWAP2 DUP3 MSTORE PUSH1 0x20 DUP3 ADD MSTORE LOG2 PUSH0 DUP1 DUP1 DUP1 DUP1 DUP1 DUP1 DUP1 PUSH2 0x3C5E JUMP JUMPDEST PUSH0 PUSH2 0x3D31 SWAP2 PUSH2 0x34A3 JUMP JUMPDEST PUSH0 PUSH2 0x3CF0 JUMP JUMPDEST DUP13 DUP11 DUP4 PUSH2 0x3D44 DUP5 DUP8 PUSH2 0x368A JUMP JUMPDEST SWAP1 SLOAD PUSH1 0x3 SWAP2 SWAP1 SWAP2 SHL SHR PUSH1 0x1 PUSH1 0x1 PUSH1 0xA0 SHL SUB AND SUB PUSH2 0x3D66 JUMPI JUMPDEST POP POP PUSH1 0x1 ADD PUSH2 0x3C4A JUMP JUMPDEST SWAP6 DUP6 PUSH2 0x3D9C DUP3 PUSH2 0x3DA2 SWAP5 DUP7 SWAP11 PUSH2 0x3D96 DUP4 PUSH2 0x3D82 PUSH1 0x1 SWAP11 DUP14 PUSH2 0x368A JUMP JUMPDEST DUP12 DUP1 PUSH1 0xA0 SHL SUB SWAP2 SLOAD SWAP1 PUSH1 0x3 SHL SHR AND SWAP3 PUSH2 0x3A95 JUMP JUMPDEST MSTORE PUSH2 0x3A95 JUMP JUMPDEST MSTORE PUSH2 0x38D6 JUMP JUMPDEST SWAP5 SWAP1 POP DUP13 DUP11 PUSH2 0x3D5C JUMP JUMPDEST PUSH4 0x4E487B71 PUSH1 0xE0 SHL PUSH0 MSTORE PUSH1 0x12 PUSH1 0x4 MSTORE PUSH1 0x24 PUSH0 REVERT JUMPDEST POP POP POP POP POP POP JUMP JUMPDEST SWAP1 SWAP4 POP PUSH1 0x20 DUP2 RETURNDATASIZE PUSH1 0x20 GT PUSH2 0x3DF4 JUMPI JUMPDEST DUP2 PUSH2 0x3DE4 PUSH1 0x20 SWAP4 DUP4 PUSH2 0x34A3 JUMP JUMPDEST DUP2 ADD SUB SLT PUSH2 0x1377 JUMPI MLOAD SWAP3 PUSH0 PUSH2 0x3BF2 JUMP JUMPDEST RETURNDATASIZE SWAP2 POP PUSH2 0x3DD7 JUMP JUMPDEST POP POP POP POP POP JUMP JUMPDEST PUSH1 0x1 DUP2 ADD SWAP1 DUP3 PUSH0 MSTORE DUP2 PUSH1 0x20 MSTORE PUSH1 0x40 PUSH0 KECCAK256 SLOAD ISZERO PUSH0 EQ PUSH2 0x3E50 JUMPI DUP1 SLOAD PUSH1 0x1 PUSH1 0x40 SHL DUP2 LT ISZERO PUSH2 0x34C5 JUMPI PUSH2 0x3E3D PUSH2 0x5A6 DUP3 PUSH1 0x1 DUP8 SWAP5 ADD DUP6 SSTORE DUP5 PUSH2 0x368A JUMP JUMPDEST SWAP1 SSTORE SLOAD SWAP2 PUSH0 MSTORE PUSH1 0x20 MSTORE PUSH1 0x40 PUSH0 KECCAK256 SSTORE PUSH1 0x1 SWAP1 JUMP JUMPDEST POP POP POP PUSH0 SWAP1 JUMP INVALID DUP15 PUSH21 0x3FFD44850982C7C022333E7C1998664B0922B1752E SWAP11 0xAC 0x27 STATICCALL 0xC9 0xB6 EXTCALL SWAP14 SWAP14 PUSH32 0x96BC980A59EEF61959C0A70EB2E6BE18CC58AC3AF50711E397B0ABDC5F8939A2 PUSH5 0x6970667358 0x22 SLT KECCAK256 MUL PUSH15 0x22C4F17B708983E0FA84E8EEAA6D8E XOR SWAP7 SLOAD EXTCODESIZE 0xDC SWAP15 PUSH10 0x9D52EAF024A5D7076473 PUSH16 0x6C634300081E00330000000000000000 "
		},
		"gasEstimates": {
			"creation": {
				"codeDepositCost": "3215400",
				"executionCost": "infinite",
				"totalCost": "infinite"
			},
			"external": {
				"": "1322",
				"MAX_CYCLE_DURATION()": "799",
				"MAX_MEMBERS()": "1151",
				"MIN_AMOUNT_PER_CYCLE()": "865",
				"MIN_BID_DEADLINE()": "1277",
				"MIN_CYCLE_DURATION()": "821",
				"cancelPot(uint256,string)": "infinite",
				"chainPots(uint256)": "infinite",
				"closeBidding(uint256)": "42194",
				"completeCycle(uint256)": "infinite",
				"createPot(string,uint256,uint256,uint256,uint8,uint256,uint256,uint256,bool)": "infinite",
				"cycleCounter()": "3364",
				"declareWinner(uint256)": "infinite",
				"emergencyCompleteCycle(uint256,string)": "infinite",
				"emergencyPausePot(uint256,string)": "infinite",
				"emergencyWithdraw(uint256,address,string)": "infinite",
				"escrow()": "3212",
				"estimatePotYield(uint256,uint256)": "infinite",
				"getCurrentCycleCount()": "3209",
				"getCurrentPotCount()": "2300",
				"getCycleInfo(uint256)": "23979",
				"getCycleParticipants(uint256)": "infinite",
				"getPotInfo(uint256)": "infinite",
				"getPotMemberCount(uint256)": "7515",
				"getPotYieldStats(uint256)": "13443",
				"getUserBid(uint256,address)": "5651",
				"getUserPots(address)": "infinite",
				"globalPause()": "30757",
				"globalUnpause()": "28432",
				"hasJoinedPot(uint256,address)": "3220",
				"isPotMember(uint256,address)": "2714",
				"joinPot(uint256)": "infinite",
				"leavePot(uint256)": "infinite",
				"lotteryEngine()": "2486",
				"manualDistributeYield(uint256)": "infinite",
				"memberManager()": "3089",
				"owner()": "2901",
				"pausePot(uint256)": "infinite",
				"paused()": "2650",
				"placeBid(uint256,uint256)": "infinite",
				"potCounter()": "2682",
				"potMinimumYieldThreshold(uint256)": "3144",
				"potYieldReinvestment(uint256)": "3024",
				"renounceOwnership()": "28527",
				"resumePot(uint256)": "infinite",
				"setYieldThreshold(uint256,uint256)": "30538",
				"startCycle(uint256)": "infinite",
				"toggleYieldReinvestment(uint256,bool)": "31930",
				"transferOwnership(address)": "29253",
				"updateEscrow(address)": "27218",
				"updateLotteryEngine(address)": "27504",
				"updateMemberManager(address)": "26893",
				"userPots(address,uint256)": "7175"
			},
			"internal": {
				"_distributeYieldToCycleMembers(uint256)": "infinite"
			}
		},
		"methodIdentifiers": {
			"MAX_CYCLE_DURATION()": "90886389",
			"MAX_MEMBERS()": "ea0e35b1",
			"MIN_AMOUNT_PER_CYCLE()": "9b14e048",
			"MIN_BID_DEADLINE()": "f7988119",
			"MIN_CYCLE_DURATION()": "9623daa5",
			"cancelPot(uint256,string)": "15979aee",
			"chainPots(uint256)": "50c61d5a",
			"closeBidding(uint256)": "5b1194b2",
			"completeCycle(uint256)": "56ffb6c0",
			"createPot(string,uint256,uint256,uint256,uint8,uint256,uint256,uint256,bool)": "23cf447f",
			"cycleCounter()": "f33fbaf3",
			"declareWinner(uint256)": "00c2943c",
			"emergencyCompleteCycle(uint256,string)": "ec656adb",
			"emergencyPausePot(uint256,string)": "356caaa4",
			"emergencyWithdraw(uint256,address,string)": "7cd22238",
			"escrow()": "e2fdcc17",
			"estimatePotYield(uint256,uint256)": "739ca188",
			"getCurrentCycleCount()": "d82ce19a",
			"getCurrentPotCount()": "007d8c8b",
			"getCycleInfo(uint256)": "48f470ad",
			"getCycleParticipants(uint256)": "cc449105",
			"getPotInfo(uint256)": "6e1e277b",
			"getPotMemberCount(uint256)": "a2d3deeb",
			"getPotYieldStats(uint256)": "39c34bfe",
			"getUserBid(uint256,address)": "e879b475",
			"getUserPots(address)": "0201345d",
			"globalPause()": "f12d54d8",
			"globalUnpause()": "ce190578",
			"hasJoinedPot(uint256,address)": "9e1f4564",
			"isPotMember(uint256,address)": "40879951",
			"joinPot(uint256)": "831d49ef",
			"leavePot(uint256)": "ededb972",
			"lotteryEngine()": "3e1cd4ae",
			"manualDistributeYield(uint256)": "7e3a9901",
			"memberManager()": "a3a3f244",
			"owner()": "8da5cb5b",
			"pausePot(uint256)": "4bd3ad78",
			"paused()": "5c975abb",
			"placeBid(uint256,uint256)": "57c90de5",
			"potCounter()": "6ae1de11",
			"potMinimumYieldThreshold(uint256)": "caf273c5",
			"potYieldReinvestment(uint256)": "9aa90366",
			"renounceOwnership()": "715018a6",
			"resumePot(uint256)": "7519087b",
			"setYieldThreshold(uint256,uint256)": "1f20739f",
			"startCycle(uint256)": "e50b9ecd",
			"toggleYieldReinvestment(uint256,bool)": "a358ca06",
			"transferOwnership(address)": "f2fde38b",
			"updateEscrow(address)": "8b6a101a",
			"updateLotteryEngine(address)": "ce9fb3d7",
			"updateMemberManager(address)": "3c69d7c2",
			"userPots(address,uint256)": "68f17224"
		}
	},
	"abi": [
		{
			"inputs": [
				{
					"internalType": "address",
					"name": "_memberManager",
					"type": "address"
				},
				{
					"internalType": "address payable",
					"name": "_lotteryEngine",
					"type": "address"
				},
				{
					"internalType": "address payable",
					"name": "_escrow",
					"type": "address"
				}
			],
			"stateMutability": "nonpayable",
			"type": "constructor"
		},
		{
			"inputs": [
				{
					"internalType": "address",
					"name": "owner",
					"type": "address"
				}
			],
			"name": "OwnableInvalidOwner",
			"type": "error"
		},
		{
			"inputs": [
				{
					"internalType": "address",
					"name": "account",
					"type": "address"
				}
			],
			"name": "OwnableUnauthorizedAccount",
			"type": "error"
		},
		{
			"anonymous": false,
			"inputs": [
				{
					"indexed": true,
					"internalType": "uint256",
					"name": "cycleId",
					"type": "uint256"
				},
				{
					"indexed": true,
					"internalType": "address",
					"name": "bidder",
					"type": "address"
				},
				{
					"indexed": false,
					"internalType": "uint256",
					"name": "amount",
					"type": "uint256"
				}
			],
			"name": "BidPlaced",
			"type": "event"
		},
		{
			"anonymous": false,
			"inputs": [
				{
					"indexed": true,
					"internalType": "uint256",
					"name": "cycleId",
					"type": "uint256"
				},
				{
					"indexed": true,
					"internalType": "uint256",
					"name": "potId",
					"type": "uint256"
				},
				{
					"indexed": false,
					"internalType": "uint256",
					"name": "totalYield",
					"type": "uint256"
				}
			],
			"name": "CycleCompleted",
			"type": "event"
		},
		{
			"anonymous": false,
			"inputs": [
				{
					"indexed": true,
					"internalType": "uint256",
					"name": "cycleId",
					"type": "uint256"
				},
				{
					"indexed": true,
					"internalType": "uint256",
					"name": "potId",
					"type": "uint256"
				},
				{
					"indexed": false,
					"internalType": "uint256",
					"name": "startTime",
					"type": "uint256"
				},
				{
					"indexed": false,
					"internalType": "uint256",
					"name": "endTime",
					"type": "uint256"
				}
			],
			"name": "CycleStarted",
			"type": "event"
		},
		{
			"anonymous": false,
			"inputs": [
				{
					"indexed": true,
					"internalType": "uint256",
					"name": "potId",
					"type": "uint256"
				},
				{
					"indexed": false,
					"internalType": "string",
					"name": "action",
					"type": "string"
				},
				{
					"indexed": false,
					"internalType": "string",
					"name": "reason",
					"type": "string"
				}
			],
			"name": "EmergencyAction",
			"type": "event"
		},
		{
			"anonymous": false,
			"inputs": [
				{
					"indexed": true,
					"internalType": "uint256",
					"name": "potId",
					"type": "uint256"
				},
				{
					"indexed": true,
					"internalType": "address",
					"name": "user",
					"type": "address"
				}
			],
			"name": "JoinedPot",
			"type": "event"
		},
		{
			"anonymous": false,
			"inputs": [
				{
					"indexed": true,
					"internalType": "uint256",
					"name": "potId",
					"type": "uint256"
				},
				{
					"indexed": true,
					"internalType": "address",
					"name": "user",
					"type": "address"
				}
			],
			"name": "LeftPot",
			"type": "event"
		},
		{
			"anonymous": false,
			"inputs": [
				{
					"indexed": true,
					"internalType": "address",
					"name": "previousOwner",
					"type": "address"
				},
				{
					"indexed": true,
					"internalType": "address",
					"name": "newOwner",
					"type": "address"
				}
			],
			"name": "OwnershipTransferred",
			"type": "event"
		},
		{
			"anonymous": false,
			"inputs": [
				{
					"indexed": false,
					"internalType": "address",
					"name": "account",
					"type": "address"
				}
			],
			"name": "Paused",
			"type": "event"
		},
		{
			"anonymous": false,
			"inputs": [
				{
					"indexed": true,
					"internalType": "uint256",
					"name": "potId",
					"type": "uint256"
				},
				{
					"indexed": false,
					"internalType": "string",
					"name": "name",
					"type": "string"
				},
				{
					"indexed": true,
					"internalType": "address",
					"name": "creator",
					"type": "address"
				},
				{
					"indexed": false,
					"internalType": "uint256",
					"name": "amountPerCycle",
					"type": "uint256"
				},
				{
					"indexed": false,
					"internalType": "bool",
					"name": "autoYieldDistribution",
					"type": "bool"
				}
			],
			"name": "PotCreated",
			"type": "event"
		},
		{
			"anonymous": false,
			"inputs": [
				{
					"indexed": true,
					"internalType": "uint256",
					"name": "potId",
					"type": "uint256"
				},
				{
					"indexed": false,
					"internalType": "enum CitreaAuctionEngine.PotStatus",
					"name": "status",
					"type": "uint8"
				}
			],
			"name": "PotStatusChanged",
			"type": "event"
		},
		{
			"anonymous": false,
			"inputs": [
				{
					"indexed": false,
					"internalType": "address",
					"name": "account",
					"type": "address"
				}
			],
			"name": "Unpaused",
			"type": "event"
		},
		{
			"anonymous": false,
			"inputs": [
				{
					"indexed": true,
					"internalType": "uint256",
					"name": "cycleId",
					"type": "uint256"
				},
				{
					"indexed": true,
					"internalType": "address",
					"name": "winner",
					"type": "address"
				},
				{
					"indexed": false,
					"internalType": "uint256",
					"name": "amount",
					"type": "uint256"
				},
				{
					"indexed": false,
					"internalType": "bool",
					"name": "isLottery",
					"type": "bool"
				}
			],
			"name": "WinnerDeclared",
			"type": "event"
		},
		{
			"anonymous": false,
			"inputs": [
				{
					"indexed": true,
					"internalType": "uint256",
					"name": "cycleId",
					"type": "uint256"
				},
				{
					"indexed": false,
					"internalType": "uint256",
					"name": "totalYield",
					"type": "uint256"
				},
				{
					"indexed": false,
					"internalType": "uint256",
					"name": "recipientCount",
					"type": "uint256"
				}
			],
			"name": "YieldDistributed",
			"type": "event"
		},
		{
			"anonymous": false,
			"inputs": [
				{
					"indexed": true,
					"internalType": "uint256",
					"name": "potId",
					"type": "uint256"
				},
				{
					"indexed": false,
					"internalType": "uint256",
					"name": "threshold",
					"type": "uint256"
				}
			],
			"name": "YieldThresholdUpdated",
			"type": "event"
		},
		{
			"stateMutability": "payable",
			"type": "fallback"
		},
		{
			"inputs": [],
			"name": "MAX_CYCLE_DURATION",
			"outputs": [
				{
					"internalType": "uint256",
					"name": "",
					"type": "uint256"
				}
			],
			"stateMutability": "view",
			"type": "function"
		},
		{
			"inputs": [],
			"name": "MAX_MEMBERS",
			"outputs": [
				{
					"internalType": "uint256",
					"name": "",
					"type": "uint256"
				}
			],
			"stateMutability": "view",
			"type": "function"
		},
		{
			"inputs": [],
			"name": "MIN_AMOUNT_PER_CYCLE",
			"outputs": [
				{
					"internalType": "uint256",
					"name": "",
					"type": "uint256"
				}
			],
			"stateMutability": "view",
			"type": "function"
		},
		{
			"inputs": [],
			"name": "MIN_BID_DEADLINE",
			"outputs": [
				{
					"internalType": "uint256",
					"name": "",
					"type": "uint256"
				}
			],
			"stateMutability": "view",
			"type": "function"
		},
		{
			"inputs": [],
			"name": "MIN_CYCLE_DURATION",
			"outputs": [
				{
					"internalType": "uint256",
					"name": "",
					"type": "uint256"
				}
			],
			"stateMutability": "view",
			"type": "function"
		},
		{
			"inputs": [
				{
					"internalType": "uint256",
					"name": "potId",
					"type": "uint256"
				},
				{
					"internalType": "string",
					"name": "reason",
					"type": "string"
				}
			],
			"name": "cancelPot",
			"outputs": [],
			"stateMutability": "nonpayable",
			"type": "function"
		},
		{
			"inputs": [
				{
					"internalType": "uint256",
					"name": "",
					"type": "uint256"
				}
			],
			"name": "chainPots",
			"outputs": [
				{
					"internalType": "string",
					"name": "name",
					"type": "string"
				},
				{
					"internalType": "address",
					"name": "creator",
					"type": "address"
				},
				{
					"internalType": "uint256",
					"name": "amountPerCycle",
					"type": "uint256"
				},
				{
					"internalType": "uint256",
					"name": "cycleDuration",
					"type": "uint256"
				},
				{
					"internalType": "uint256",
					"name": "cycleCount",
					"type": "uint256"
				},
				{
					"internalType": "uint256",
					"name": "completedCycles",
					"type": "uint256"
				},
				{
					"internalType": "enum CitreaAuctionEngine.CycleFrequency",
					"name": "frequency",
					"type": "uint8"
				},
				{
					"internalType": "uint256",
					"name": "bidDepositDeadline",
					"type": "uint256"
				},
				{
					"internalType": "enum CitreaAuctionEngine.PotStatus",
					"name": "status",
					"type": "uint8"
				},
				{
					"internalType": "uint256",
					"name": "createdAt",
					"type": "uint256"
				},
				{
					"internalType": "uint256",
					"name": "minMembers",
					"type": "uint256"
				},
				{
					"internalType": "uint256",
					"name": "maxMembers",
					"type": "uint256"
				},
				{
					"internalType": "uint256",
					"name": "totalYieldGenerated",
					"type": "uint256"
				},
				{
					"internalType": "bool",
					"name": "autoYieldDistribution",
					"type": "bool"
				}
			],
			"stateMutability": "view",
			"type": "function"
		},
		{
			"inputs": [
				{
					"internalType": "uint256",
					"name": "cycleId",
					"type": "uint256"
				}
			],
			"name": "closeBidding",
			"outputs": [],
			"stateMutability": "nonpayable",
			"type": "function"
		},
		{
			"inputs": [
				{
					"internalType": "uint256",
					"name": "cycleId",
					"type": "uint256"
				}
			],
			"name": "completeCycle",
			"outputs": [],
			"stateMutability": "nonpayable",
			"type": "function"
		},
		{
			"inputs": [
				{
					"internalType": "string",
					"name": "name",
					"type": "string"
				},
				{
					"internalType": "uint256",
					"name": "amountPerCycle",
					"type": "uint256"
				},
				{
					"internalType": "uint256",
					"name": "cycleDuration",
					"type": "uint256"
				},
				{
					"internalType": "uint256",
					"name": "cycleCount",
					"type": "uint256"
				},
				{
					"internalType": "enum CitreaAuctionEngine.CycleFrequency",
					"name": "frequency",
					"type": "uint8"
				},
				{
					"internalType": "uint256",
					"name": "bidDepositDeadline",
					"type": "uint256"
				},
				{
					"internalType": "uint256",
					"name": "minMembers",
					"type": "uint256"
				},
				{
					"internalType": "uint256",
					"name": "maxMembers",
					"type": "uint256"
				},
				{
					"internalType": "bool",
					"name": "autoYieldDistribution",
					"type": "bool"
				}
			],
			"name": "createPot",
			"outputs": [
				{
					"internalType": "uint256",
					"name": "",
					"type": "uint256"
				}
			],
			"stateMutability": "nonpayable",
			"type": "function"
		},
		{
			"inputs": [],
			"name": "cycleCounter",
			"outputs": [
				{
					"internalType": "uint256",
					"name": "",
					"type": "uint256"
				}
			],
			"stateMutability": "view",
			"type": "function"
		},
		{
			"inputs": [
				{
					"internalType": "uint256",
					"name": "cycleId",
					"type": "uint256"
				}
			],
			"name": "declareWinner",
			"outputs": [],
			"stateMutability": "nonpayable",
			"type": "function"
		},
		{
			"inputs": [
				{
					"internalType": "uint256",
					"name": "cycleId",
					"type": "uint256"
				},
				{
					"internalType": "string",
					"name": "reason",
					"type": "string"
				}
			],
			"name": "emergencyCompleteCycle",
			"outputs": [],
			"stateMutability": "nonpayable",
			"type": "function"
		},
		{
			"inputs": [
				{
					"internalType": "uint256",
					"name": "potId",
					"type": "uint256"
				},
				{
					"internalType": "string",
					"name": "reason",
					"type": "string"
				}
			],
			"name": "emergencyPausePot",
			"outputs": [],
			"stateMutability": "nonpayable",
			"type": "function"
		},
		{
			"inputs": [
				{
					"internalType": "uint256",
					"name": "amount",
					"type": "uint256"
				},
				{
					"internalType": "address",
					"name": "to",
					"type": "address"
				},
				{
					"internalType": "string",
					"name": "reason",
					"type": "string"
				}
			],
			"name": "emergencyWithdraw",
			"outputs": [],
			"stateMutability": "nonpayable",
			"type": "function"
		},
		{
			"inputs": [],
			"name": "escrow",
			"outputs": [
				{
					"internalType": "contract CitreaEscrow",
					"name": "",
					"type": "address"
				}
			],
			"stateMutability": "view",
			"type": "function"
		},
		{
			"inputs": [
				{
					"internalType": "uint256",
					"name": "potId",
					"type": "uint256"
				},
				{
					"internalType": "uint256",
					"name": "cycleDuration",
					"type": "uint256"
				}
			],
			"name": "estimatePotYield",
			"outputs": [
				{
					"internalType": "uint256",
					"name": "estimatedYield",
					"type": "uint256"
				}
			],
			"stateMutability": "view",
			"type": "function"
		},
		{
			"inputs": [],
			"name": "getCurrentCycleCount",
			"outputs": [
				{
					"internalType": "uint256",
					"name": "",
					"type": "uint256"
				}
			],
			"stateMutability": "view",
			"type": "function"
		},
		{
			"inputs": [],
			"name": "getCurrentPotCount",
			"outputs": [
				{
					"internalType": "uint256",
					"name": "",
					"type": "uint256"
				}
			],
			"stateMutability": "view",
			"type": "function"
		},
		{
			"inputs": [
				{
					"internalType": "uint256",
					"name": "cycleId",
					"type": "uint256"
				}
			],
			"name": "getCycleInfo",
			"outputs": [
				{
					"internalType": "uint256",
					"name": "potId",
					"type": "uint256"
				},
				{
					"internalType": "uint256",
					"name": "startTime",
					"type": "uint256"
				},
				{
					"internalType": "uint256",
					"name": "endTime",
					"type": "uint256"
				},
				{
					"internalType": "address",
					"name": "winner",
					"type": "address"
				},
				{
					"internalType": "uint256",
					"name": "winningBid",
					"type": "uint256"
				},
				{
					"internalType": "enum CitreaAuctionEngine.CycleStatus",
					"name": "status",
					"type": "uint8"
				},
				{
					"internalType": "uint256",
					"name": "participantCount",
					"type": "uint256"
				},
				{
					"internalType": "uint256",
					"name": "totalDeposited",
					"type": "uint256"
				},
				{
					"internalType": "uint256",
					"name": "totalYieldGenerated",
					"type": "uint256"
				},
				{
					"internalType": "bool",
					"name": "yieldDistributed",
					"type": "bool"
				}
			],
			"stateMutability": "view",
			"type": "function"
		},
		{
			"inputs": [
				{
					"internalType": "uint256",
					"name": "cycleId",
					"type": "uint256"
				}
			],
			"name": "getCycleParticipants",
			"outputs": [
				{
					"internalType": "address[]",
					"name": "",
					"type": "address[]"
				}
			],
			"stateMutability": "view",
			"type": "function"
		},
		{
			"inputs": [
				{
					"internalType": "uint256",
					"name": "potId",
					"type": "uint256"
				}
			],
			"name": "getPotInfo",
			"outputs": [
				{
					"internalType": "string",
					"name": "name",
					"type": "string"
				},
				{
					"internalType": "address",
					"name": "creator",
					"type": "address"
				},
				{
					"internalType": "uint256",
					"name": "amountPerCycle",
					"type": "uint256"
				},
				{
					"internalType": "uint256",
					"name": "cycleDuration",
					"type": "uint256"
				},
				{
					"internalType": "uint256",
					"name": "cycleCount",
					"type": "uint256"
				},
				{
					"internalType": "uint256",
					"name": "completedCycles",
					"type": "uint256"
				},
				{
					"internalType": "enum CitreaAuctionEngine.CycleFrequency",
					"name": "frequency",
					"type": "uint8"
				},
				{
					"internalType": "uint256",
					"name": "bidDepositDeadline",
					"type": "uint256"
				},
				{
					"internalType": "enum CitreaAuctionEngine.PotStatus",
					"name": "status",
					"type": "uint8"
				},
				{
					"internalType": "address[]",
					"name": "members",
					"type": "address[]"
				},
				{
					"internalType": "uint256[]",
					"name": "cycleIds",
					"type": "uint256[]"
				},
				{
					"internalType": "uint256",
					"name": "totalYieldGenerated",
					"type": "uint256"
				},
				{
					"internalType": "bool",
					"name": "autoYieldDistribution",
					"type": "bool"
				}
			],
			"stateMutability": "view",
			"type": "function"
		},
		{
			"inputs": [
				{
					"internalType": "uint256",
					"name": "potId",
					"type": "uint256"
				}
			],
			"name": "getPotMemberCount",
			"outputs": [
				{
					"internalType": "uint256",
					"name": "",
					"type": "uint256"
				}
			],
			"stateMutability": "view",
			"type": "function"
		},
		{
			"inputs": [
				{
					"internalType": "uint256",
					"name": "potId",
					"type": "uint256"
				}
			],
			"name": "getPotYieldStats",
			"outputs": [
				{
					"internalType": "uint256",
					"name": "totalYieldGenerated",
					"type": "uint256"
				},
				{
					"internalType": "uint256",
					"name": "minimumThreshold",
					"type": "uint256"
				},
				{
					"internalType": "bool",
					"name": "reinvestmentEnabled",
					"type": "bool"
				},
				{
					"internalType": "bool",
					"name": "autoDistribution",
					"type": "bool"
				}
			],
			"stateMutability": "view",
			"type": "function"
		},
		{
			"inputs": [
				{
					"internalType": "uint256",
					"name": "cycleId",
					"type": "uint256"
				},
				{
					"internalType": "address",
					"name": "user",
					"type": "address"
				}
			],
			"name": "getUserBid",
			"outputs": [
				{
					"internalType": "uint256",
					"name": "",
					"type": "uint256"
				}
			],
			"stateMutability": "view",
			"type": "function"
		},
		{
			"inputs": [
				{
					"internalType": "address",
					"name": "user",
					"type": "address"
				}
			],
			"name": "getUserPots",
			"outputs": [
				{
					"internalType": "uint256[]",
					"name": "",
					"type": "uint256[]"
				}
			],
			"stateMutability": "view",
			"type": "function"
		},
		{
			"inputs": [],
			"name": "globalPause",
			"outputs": [],
			"stateMutability": "nonpayable",
			"type": "function"
		},
		{
			"inputs": [],
			"name": "globalUnpause",
			"outputs": [],
			"stateMutability": "nonpayable",
			"type": "function"
		},
		{
			"inputs": [
				{
					"internalType": "uint256",
					"name": "",
					"type": "uint256"
				},
				{
					"internalType": "address",
					"name": "",
					"type": "address"
				}
			],
			"name": "hasJoinedPot",
			"outputs": [
				{
					"internalType": "bool",
					"name": "",
					"type": "bool"
				}
			],
			"stateMutability": "view",
			"type": "function"
		},
		{
			"inputs": [
				{
					"internalType": "uint256",
					"name": "potId",
					"type": "uint256"
				},
				{
					"internalType": "address",
					"name": "user",
					"type": "address"
				}
			],
			"name": "isPotMember",
			"outputs": [
				{
					"internalType": "bool",
					"name": "",
					"type": "bool"
				}
			],
			"stateMutability": "view",
			"type": "function"
		},
		{
			"inputs": [
				{
					"internalType": "uint256",
					"name": "potId",
					"type": "uint256"
				}
			],
			"name": "joinPot",
			"outputs": [],
			"stateMutability": "nonpayable",
			"type": "function"
		},
		{
			"inputs": [
				{
					"internalType": "uint256",
					"name": "potId",
					"type": "uint256"
				}
			],
			"name": "leavePot",
			"outputs": [],
			"stateMutability": "nonpayable",
			"type": "function"
		},
		{
			"inputs": [],
			"name": "lotteryEngine",
			"outputs": [
				{
					"internalType": "contract CitreaLotteryEngine",
					"name": "",
					"type": "address"
				}
			],
			"stateMutability": "view",
			"type": "function"
		},
		{
			"inputs": [
				{
					"internalType": "uint256",
					"name": "cycleId",
					"type": "uint256"
				}
			],
			"name": "manualDistributeYield",
			"outputs": [],
			"stateMutability": "nonpayable",
			"type": "function"
		},
		{
			"inputs": [],
			"name": "memberManager",
			"outputs": [
				{
					"internalType": "contract MemberAccountManager",
					"name": "",
					"type": "address"
				}
			],
			"stateMutability": "view",
			"type": "function"
		},
		{
			"inputs": [],
			"name": "owner",
			"outputs": [
				{
					"internalType": "address",
					"name": "",
					"type": "address"
				}
			],
			"stateMutability": "view",
			"type": "function"
		},
		{
			"inputs": [
				{
					"internalType": "uint256",
					"name": "potId",
					"type": "uint256"
				}
			],
			"name": "pausePot",
			"outputs": [],
			"stateMutability": "nonpayable",
			"type": "function"
		},
		{
			"inputs": [],
			"name": "paused",
			"outputs": [
				{
					"internalType": "bool",
					"name": "",
					"type": "bool"
				}
			],
			"stateMutability": "view",
			"type": "function"
		},
		{
			"inputs": [
				{
					"internalType": "uint256",
					"name": "cycleId",
					"type": "uint256"
				},
				{
					"internalType": "uint256",
					"name": "bidAmount",
					"type": "uint256"
				}
			],
			"name": "placeBid",
			"outputs": [],
			"stateMutability": "payable",
			"type": "function"
		},
		{
			"inputs": [],
			"name": "potCounter",
			"outputs": [
				{
					"internalType": "uint256",
					"name": "",
					"type": "uint256"
				}
			],
			"stateMutability": "view",
			"type": "function"
		},
		{
			"inputs": [
				{
					"internalType": "uint256",
					"name": "",
					"type": "uint256"
				}
			],
			"name": "potMinimumYieldThreshold",
			"outputs": [
				{
					"internalType": "uint256",
					"name": "",
					"type": "uint256"
				}
			],
			"stateMutability": "view",
			"type": "function"
		},
		{
			"inputs": [
				{
					"internalType": "uint256",
					"name": "",
					"type": "uint256"
				}
			],
			"name": "potYieldReinvestment",
			"outputs": [
				{
					"internalType": "bool",
					"name": "",
					"type": "bool"
				}
			],
			"stateMutability": "view",
			"type": "function"
		},
		{
			"inputs": [],
			"name": "renounceOwnership",
			"outputs": [],
			"stateMutability": "nonpayable",
			"type": "function"
		},
		{
			"inputs": [
				{
					"internalType": "uint256",
					"name": "potId",
					"type": "uint256"
				}
			],
			"name": "resumePot",
			"outputs": [],
			"stateMutability": "nonpayable",
			"type": "function"
		},
		{
			"inputs": [
				{
					"internalType": "uint256",
					"name": "potId",
					"type": "uint256"
				},
				{
					"internalType": "uint256",
					"name": "threshold",
					"type": "uint256"
				}
			],
			"name": "setYieldThreshold",
			"outputs": [],
			"stateMutability": "nonpayable",
			"type": "function"
		},
		{
			"inputs": [
				{
					"internalType": "uint256",
					"name": "potId",
					"type": "uint256"
				}
			],
			"name": "startCycle",
			"outputs": [],
			"stateMutability": "nonpayable",
			"type": "function"
		},
		{
			"inputs": [
				{
					"internalType": "uint256",
					"name": "potId",
					"type": "uint256"
				},
				{
					"internalType": "bool",
					"name": "enable",
					"type": "bool"
				}
			],
			"name": "toggleYieldReinvestment",
			"outputs": [],
			"stateMutability": "nonpayable",
			"type": "function"
		},
		{
			"inputs": [
				{
					"internalType": "address",
					"name": "newOwner",
					"type": "address"
				}
			],
			"name": "transferOwnership",
			"outputs": [],
			"stateMutability": "nonpayable",
			"type": "function"
		},
		{
			"inputs": [
				{
					"internalType": "address payable",
					"name": "_escrow",
					"type": "address"
				}
			],
			"name": "updateEscrow",
			"outputs": [],
			"stateMutability": "nonpayable",
			"type": "function"
		},
		{
			"inputs": [
				{
					"internalType": "address payable",
					"name": "_lotteryEngine",
					"type": "address"
				}
			],
			"name": "updateLotteryEngine",
			"outputs": [],
			"stateMutability": "nonpayable",
			"type": "function"
		},
		{
			"inputs": [
				{
					"internalType": "address",
					"name": "_memberManager",
					"type": "address"
				}
			],
			"name": "updateMemberManager",
			"outputs": [],
			"stateMutability": "nonpayable",
			"type": "function"
		},
		{
			"inputs": [
				{
					"internalType": "address",
					"name": "",
					"type": "address"
				},
				{
					"internalType": "uint256",
					"name": "",
					"type": "uint256"
				}
			],
			"name": "userPots",
			"outputs": [
				{
					"internalType": "uint256",
					"name": "",
					"type": "uint256"
				}
			],
			"stateMutability": "view",
			"type": "function"
		},
		{
			"stateMutability": "payable",
			"type": "receive"
		}
	]
}