{
	"data": {
		"bytecode": {
			"linkReferences": {},
			"object": "608060405260c8600e5562093a80600f5534801561001b575f5ffd5b50335f73ffffffffffffffffffffffffffffffffffffffff168173ffffffffffffffffffffffffffffffffffffffff160361008d575f6040517f1e4fbdf700000000000000000000000000000000000000000000000000000000815260040161008491906101d8565b60405180910390fd5b61009c816100d860201b60201c565b50600180819055505f60025f6101000a81548160ff021916908315150217905550610190600760020181905550426007600301819055506101f1565b5f5f5f9054906101000a900473ffffffffffffffffffffffffffffffffffffffff169050815f5f6101000a81548173ffffffffffffffffffffffffffffffffffffffff021916908373ffffffffffffffffffffffffffffffffffffffff1602179055508173ffffffffffffffffffffffffffffffffffffffff168173ffffffffffffffffffffffffffffffffffffffff167f8be0079c531659141344cd1fd0a4f28419497f9722a3daafe3b4186f6b6457e060405160405180910390a35050565b5f73ffffffffffffffffffffffffffffffffffffffff82169050919050565b5f6101c282610199565b9050919050565b6101d2816101b8565b82525050565b5f6020820190506101eb5f8301846101c9565b92915050565b613f6c806101fe5f395ff3fe60806040526004361061026a575f3560e01c8063715018a611610143578063c69ecf0b116100b5578063e65eaff711610079578063e65eaff714610939578063e8421b5e14610967578063ec6694571461098f578063f2fde38b146109cb578063f4993bbd146109f3578063f74b51b314610a09576102c9565b8063c69ecf0b14610873578063caa7c8aa1461087d578063cec695fa14610893578063cffb911e146108cf578063e1f1c4a71461090f576102c9565b806396ca8d271161010757806396ca8d2714610773578063a83481e1146107af578063b4f74031146107d7578063b5d5b5fa14610801578063bb57ad2014610841578063c5b4f40714610857576102c9565b8063715018a6146106b7578063719de1ef146106cd5780638456cb59146107095780638da5cb5b1461071f578063962ca49614610749576102c9565b806330063e3b116101dc57806351858e27116101a057806351858e27146105bf578063536fff6c146105d557806358f85880146106115780635c975abb1461063b5780636340d55c146106655780636987ca1d1461068d576102c9565b806330063e3b14610517578063304a900d146105415780633f4ba83a1461056b578063454bbd29146105815780634a4e3bd5146105a9576102c9565b80631b545a171161022e5780631b545a17146103fb5780631bc6a778146104375780631e99921b1461047357806327ed71881461049d5780632d4c5abe146104c75780632f0f8a7a146104ef576102c9565b80630b48baba14610304578063148a1ed7146103405780631683e9ce1461037c57806316a54675146103a95780631a7a73c2146103d3576102c9565b366102c9575f3411156102c75734600d5f8282546102889190613051565b925050819055507ffd89f3716628d726d771436aef1a2b241477089ecdea8429f2dcdf2f2106c4a4346040516102be9190613093565b60405180910390a15b005b6040517f08c379a00000000000000000000000000000000000000000000000000000000081526004016102fb90613106565b60405180910390fd5b34801561030f575f5ffd5b5061032a600480360381019061032591906131ac565b610a25565b6040516103379190613093565b60405180910390f35b34801561034b575f5ffd5b50610366600480360381019061036191906131ea565b610a88565b6040516103739190613093565b60405180910390f35b348015610387575f5ffd5b50610390610aa2565b6040516103a09493929190613215565b60405180910390f35b3480156103b4575f5ffd5b506103bd610acb565b6040516103ca9190613093565b60405180910390f35b3480156103de575f5ffd5b506103f960048036038101906103f491906131ac565b610ad1565b005b348015610406575f5ffd5b50610421600480360381019061041c9190613258565b610c61565b60405161042e9190613093565b60405180910390f35b348015610442575f5ffd5b5061045d60048036038101906104589190613258565b610caa565b60405161046a9190613093565b60405180910390f35b34801561047e575f5ffd5b50610487610d54565b6040516104949190613093565b60405180910390f35b3480156104a8575f5ffd5b506104b1610d5b565b6040516104be9190613093565b60405180910390f35b3480156104d2575f5ffd5b506104ed60048036038101906104e89190613283565b610d66565b005b3480156104fa575f5ffd5b50610515600480360381019061051091906131ea565b610ff2565b005b348015610522575f5ffd5b5061052b6110a4565b6040516105389190613093565b60405180910390f35b34801561054c575f5ffd5b506105556110ad565b6040516105629190613093565b60405180910390f35b348015610576575f5ffd5b5061057f6110b2565b005b34801561058c575f5ffd5b506105a760048036038101906105a29190613308565b6110c4565b005b3480156105b4575f5ffd5b506105bd6111e0565b005b3480156105ca575f5ffd5b506105d36111f2565b005b3480156105e0575f5ffd5b506105fb60048036038101906105f69190613258565b611204565b6040516106089190613355565b60405180910390f35b34801561061c575f5ffd5b50610625611221565b6040516106329190613093565b60405180910390f35b348015610646575f5ffd5b5061064f611227565b60405161065c9190613355565b60405180910390f35b348015610670575f5ffd5b5061068b600480360381019061068691906131ea565b61123c565b005b348015610698575f5ffd5b506106a16112d3565b6040516106ae9190613093565b60405180910390f35b3480156106c2575f5ffd5b506106cb6112d9565b005b3480156106d8575f5ffd5b506106f360048036038101906106ee9190613258565b6112ec565b6040516107009190613093565b60405180910390f35b348015610714575f5ffd5b5061071d611301565b005b34801561072a575f5ffd5b50610733611313565b604051610740919061337d565b60405180910390f35b348015610754575f5ffd5b5061075d61133a565b60405161076a9190613093565b60405180910390f35b34801561077e575f5ffd5b5061079960048036038101906107949190613258565b611346565b6040516107a69190613093565b60405180910390f35b3480156107ba575f5ffd5b506107d560048036038101906107d091906131ac565b61135b565b005b3480156107e2575f5ffd5b506107eb61158a565b6040516107f89190613093565b60405180910390f35b34801561080c575f5ffd5b50610827600480360381019061082291906131ac565b611590565b604051610838959493929190613396565b60405180910390f35b34801561084c575f5ffd5b506108556115e8565b005b610871600480360381019061086c91906131ac565b611773565b005b61087b611bc9565b005b348015610888575f5ffd5b50610891611d22565b005b34801561089e575f5ffd5b506108b960048036038101906108b491906131ac565b611db4565b6040516108c6919061346b565b60405180910390f35b3480156108da575f5ffd5b506108f560048036038101906108f09190613484565b611eed565b604051610906959493929190613396565b60405180910390f35b34801561091a575f5ffd5b50610923611f45565b6040516109309190613093565b60405180910390f35b348015610944575f5ffd5b5061094d611f4b565b60405161095e9594939291906134c2565b60405180910390f35b348015610972575f5ffd5b5061098d600480360381019061098891906131ea565b611f6e565b005b34801561099a575f5ffd5b506109b560048036038101906109b091906131ea565b6120c4565b6040516109c29190613093565b60405180910390f35b3480156109d6575f5ffd5b506109f160048036038101906109ec9190613258565b6120d9565b005b3480156109fe575f5ffd5b50610a0761215d565b005b610a236004803603810190610a1e91906131ea565b612568565b005b5f60035f8473ffffffffffffffffffffffffffffffffffffffff1673ffffffffffffffffffffffffffffffffffffffff1681526020019081526020015f20805490508210610a75575f9050610a82565b610a7f8383612889565b90505b92915050565b5f60065f8381526020019081526020015f20549050919050565b5f5f5f5f60075f0154600760010154600760020154600760040154935093509350935090919293565b600d5481565b610ad9612969565b610ae16129f0565b5f73ffffffffffffffffffffffffffffffffffffffff168273ffffffffffffffffffffffffffffffffffffffff1603610b4f576040517f08c379a0000000000000000000000000000000000000000000000000000000008152600401610b469061355d565b60405180910390fd5b600d54811115610b94576040517f08c379a0000000000000000000000000000000000000000000000000000000008152600401610b8b906135c5565b60405180910390fd5b80600d5f828254610ba591906135e3565b925050819055505f8273ffffffffffffffffffffffffffffffffffffffff1682604051610bd190613643565b5f6040518083038185875af1925050503d805f8114610c0b576040519150601f19603f3d011682016040523d82523d5f602084013e610c10565b606091505b5050905080610c54576040517f08c379a0000000000000000000000000000000000000000000000000000000008152600401610c4b906136a1565b60405180910390fd5b50610c5d612a3f565b5050565b5f60035f8373ffffffffffffffffffffffffffffffffffffffff1673ffffffffffffffffffffffffffffffffffffffff1681526020019081526020015f20805490509050919050565b5f5f60035f8473ffffffffffffffffffffffffffffffffffffffff1673ffffffffffffffffffffffffffffffffffffffff1681526020019081526020015f2090505f5f90505b8180549050811015610d4d57610d068482612889565b828281548110610d1957610d186136bf565b5b905f5260205f20906005020160010154610d339190613051565b83610d3e9190613051565b92508080600101915050610cf0565b5050919050565b6201518081565b66038d7ea4c6800081565b600c5f3373ffffffffffffffffffffffffffffffffffffffff1673ffffffffffffffffffffffffffffffffffffffff1681526020019081526020015f205f9054906101000a900460ff1680610ded5750610dbe611313565b73ffffffffffffffffffffffffffffffffffffffff163373ffffffffffffffffffffffffffffffffffffffff16145b610e2c576040517f08c379a0000000000000000000000000000000000000000000000000000000008152600401610e2390613736565b60405180910390fd5b610e34612a48565b610e3c6129f0565b828260035f8373ffffffffffffffffffffffffffffffffffffffff1673ffffffffffffffffffffffffffffffffffffffff1681526020019081526020015f20805490508110610ec0576040517f08c379a0000000000000000000000000000000000000000000000000000000008152600401610eb79061379e565b60405180910390fd5b60035f8373ffffffffffffffffffffffffffffffffffffffff1673ffffffffffffffffffffffffffffffffffffffff1681526020019081526020015f208181548110610f0f57610f0e6136bf565b5b905f5260205f2090600502016004015f9054906101000a900460ff16610f6a576040517f08c379a0000000000000000000000000000000000000000000000000000000008152600401610f6190613806565b60405180910390fd5b5f73ffffffffffffffffffffffffffffffffffffffff168373ffffffffffffffffffffffffffffffffffffffff1603610fd8576040517f08c379a0000000000000000000000000000000000000000000000000000000008152600401610fcf9061355d565b60405180910390fd5b610fe3858585612a92565b5050610fed612a3f565b505050565b610ffa612969565b6032811015801561100d57506103208111155b61104c576040517f08c379a00000000000000000000000000000000000000000000000000000000081526004016110439061386e565b60405180910390fd5b611054612d71565b5f6007600201549050816007600201819055507f4959ad9023bf5b492922b51fbc7c0b5e5ec66aa39700e0da6d8af9b2d430898e818360405161109892919061388c565b60405180910390a15050565b5f600d54905090565b603281565b6110ba612969565b6110c2612e1b565b565b6110cc612969565b5f73ffffffffffffffffffffffffffffffffffffffff168273ffffffffffffffffffffffffffffffffffffffff160361113a576040517f08c379a0000000000000000000000000000000000000000000000000000000008152600401611131906138fd565b60405180910390fd5b80600c5f8473ffffffffffffffffffffffffffffffffffffffff1673ffffffffffffffffffffffffffffffffffffffff1681526020019081526020015f205f6101000a81548160ff0219169083151502179055508173ffffffffffffffffffffffffffffffffffffffff167fad857fa38c9319cb80848f1ef2f924383b90297eb5d71755738ff037d100faa1826040516111d49190613355565b60405180910390a25050565b6111e8612969565b6111f0612e1b565b565b6111fa612969565b611202612e7c565b565b600c602052805f5260405f205f915054906101000a900460ff1681565b600e5481565b5f60025f9054906101000a900460ff16905090565b611244612969565b6101f4811115611289576040517f08c379a000000000000000000000000000000000000000000000000000000000815260040161128090613965565b60405180910390fd5b5f600e54905081600e819055507f1d830358c94d390366ad7162b72e731448e195f3576e63b1f57f5e43c719c5aa81836040516112c792919061388c565b60405180910390a15050565b61032081565b6112e1612969565b6112ea5f612ede565b565b6005602052805f5260405f205f915090505481565b611309612969565b611311612e7c565b565b5f5f5f9054906101000a900473ffffffffffffffffffffffffffffffffffffffff16905090565b5f600760020154905090565b6010602052805f5260405f205f915090505481565b818160035f8373ffffffffffffffffffffffffffffffffffffffff1673ffffffffffffffffffffffffffffffffffffffff1681526020019081526020015f208054905081106113df576040517f08c379a00000000000000000000000000000000000000000000000000000000081526004016113d69061379e565b60405180910390fd5b60035f8373ffffffffffffffffffffffffffffffffffffffff1673ffffffffffffffffffffffffffffffffffffffff1681526020019081526020015f20818154811061142e5761142d6136bf565b5b905f5260205f2090600502016004015f9054906101000a900460ff16611489576040517f08c379a000000000000000000000000000000000000000000000000000000000815260040161148090613806565b60405180910390fd5b5f60035f8673ffffffffffffffffffffffffffffffffffffffff1673ffffffffffffffffffffffffffffffffffffffff1681526020019081526020015f2084815481106114d9576114d86136bf565b5b905f5260205f20906005020190505f6114f28686612889565b905080826001015f8282546115079190613051565b925050819055504282600201819055508060076001015f82825461152b9190613051565b925050819055508573ffffffffffffffffffffffffffffffffffffffff167faced61c86c507aa3c2be43553434c6ff191ea7cbbd812491a6ae59abc99d29dc828760405161157a92919061388c565b60405180910390a2505050505050565b600f5481565b6003602052815f5260405f2081815481106115a9575f80fd5b905f5260205f2090600502015f9150915050805f015490806001015490806002015490806003015490806004015f9054906101000a900460ff16905085565b600c5f3373ffffffffffffffffffffffffffffffffffffffff1673ffffffffffffffffffffffffffffffffffffffff1681526020019081526020015f205f9054906101000a900460ff168061166f5750611640611313565b73ffffffffffffffffffffffffffffffffffffffff163373ffffffffffffffffffffffffffffffffffffffff16145b6116ae576040517f08c379a00000000000000000000000000000000000000000000000000000000081526004016116a590613736565b60405180910390fd5b6116b66129f0565b5f600d54116116fa576040517f08c379a00000000000000000000000000000000000000000000000000000000081526004016116f1906139cd565b60405180910390fd5b5f60075f015411611740576040517f08c379a000000000000000000000000000000000000000000000000000000000815260040161173790613a35565b60405180910390fd5b5f600d5490505f600d819055508060076001015f8282546117619190613051565b9250508190555050611771612a3f565b565b600c5f3373ffffffffffffffffffffffffffffffffffffffff1673ffffffffffffffffffffffffffffffffffffffff1681526020019081526020015f205f9054906101000a900460ff16806117fa57506117cb611313565b73ffffffffffffffffffffffffffffffffffffffff163373ffffffffffffffffffffffffffffffffffffffff16145b611839576040517f08c379a000000000000000000000000000000000000000000000000000000000815260040161183090613736565b60405180910390fd5b611841612a48565b6118496129f0565b5f73ffffffffffffffffffffffffffffffffffffffff168273ffffffffffffffffffffffffffffffffffffffff16036118b7576040517f08c379a00000000000000000000000000000000000000000000000000000000081526004016118ae90613a9d565b60405180910390fd5b66038d7ea4c68000341015611901576040517f08c379a00000000000000000000000000000000000000000000000000000000081526004016118f890613b05565b60405180910390fd5b611909612d71565b5f6040518060a001604052803481526020015f815260200142815260200183815260200160011515815250905060035f8473ffffffffffffffffffffffffffffffffffffffff1673ffffffffffffffffffffffffffffffffffffffff1681526020019081526020015f2081908060018154018082558091505060019003905f5260205f2090600502015f909190919091505f820151815f01556020820151816001015560408201518160020155606082015181600301556080820151816004015f6101000a81548160ff02191690831515021790555050505f600160035f8673ffffffffffffffffffffffffffffffffffffffff1673ffffffffffffffffffffffffffffffffffffffff1681526020019081526020015f2080549050611a2f91906135e3565b90505f831115611ae05760045f8481526020019081526020015f2082908060018154018082558091505060019003905f5260205f2090600502015f909190919091505f820151815f01556020820151816001015560408201518160020155606082015181600301556080820151816004015f6101000a81548160ff02191690831515021790555050503460065f8581526020019081526020015f205f828254611ad89190613051565b925050819055505b3460055f8673ffffffffffffffffffffffffffffffffffffffff1673ffffffffffffffffffffffffffffffffffffffff1681526020019081526020015f205f828254611b2c9190613051565b925050819055503460075f015f828254611b469190613051565b92505081905550600160076004015f828254611b629190613051565b925050819055508373ffffffffffffffffffffffffffffffffffffffff167f55b223c72892936a872c1f417e7e143a0592419fe999642dbb4bccb55b8c6e83348584604051611bb393929190613b23565b60405180910390a25050611bc5612a3f565b5050565b600c5f3373ffffffffffffffffffffffffffffffffffffffff1673ffffffffffffffffffffffffffffffffffffffff1681526020019081526020015f205f9054906101000a900460ff1680611c505750611c21611313565b73ffffffffffffffffffffffffffffffffffffffff163373ffffffffffffffffffffffffffffffffffffffff16145b611c8f576040517f08c379a0000000000000000000000000000000000000000000000000000000008152600401611c8690613736565b60405180910390fd5b5f3411611cd1576040517f08c379a0000000000000000000000000000000000000000000000000000000008152600401611cc890613ba2565b60405180910390fd5b34600d5f828254611ce29190613051565b925050819055507ffd89f3716628d726d771436aef1a2b241477089ecdea8429f2dcdf2f2106c4a434604051611d189190613093565b60405180910390a1565b4260105f3373ffffffffffffffffffffffffffffffffffffffff1673ffffffffffffffffffffffffffffffffffffffff1681526020019081526020015f20819055503373ffffffffffffffffffffffffffffffffffffffff167fdcbf58b4b48819c95c8100c354ffdc3633d192e7c3eebfb025492de8c9226b1142604051611daa9190613093565b60405180910390a2565b611dbc612fef565b60035f8473ffffffffffffffffffffffffffffffffffffffff1673ffffffffffffffffffffffffffffffffffffffff1681526020019081526020015f20805490508210611e3e576040517f08c379a0000000000000000000000000000000000000000000000000000000008152600401611e359061379e565b60405180910390fd5b60035f8473ffffffffffffffffffffffffffffffffffffffff1673ffffffffffffffffffffffffffffffffffffffff1681526020019081526020015f208281548110611e8d57611e8c6136bf565b5b905f5260205f2090600502016040518060a00160405290815f8201548152602001600182015481526020016002820154815260200160038201548152602001600482015f9054906101000a900460ff161515151581525050905092915050565b6004602052815f5260405f208181548110611f06575f80fd5b905f5260205f2090600502015f9150915050805f015490806001015490806002015490806003015490806004015f9054906101000a900460ff16905085565b61271081565b6007805f0154908060010154908060020154908060030154908060040154905085565b611f76612a48565b611f7e6129f0565b338160035f8373ffffffffffffffffffffffffffffffffffffffff1673ffffffffffffffffffffffffffffffffffffffff1681526020019081526020015f20805490508110612002576040517f08c379a0000000000000000000000000000000000000000000000000000000008152600401611ff99061379e565b60405180910390fd5b60035f8373ffffffffffffffffffffffffffffffffffffffff1673ffffffffffffffffffffffffffffffffffffffff1681526020019081526020015f208181548110612051576120506136bf565b5b905f5260205f2090600502016004015f9054906101000a900460ff166120ac576040517f08c379a00000000000000000000000000000000000000000000000000000000081526004016120a390613806565b60405180910390fd5b6120b7338433612a92565b50506120c1612a3f565b50565b6006602052805f5260405f205f915090505481565b6120e1612969565b5f73ffffffffffffffffffffffffffffffffffffffff168173ffffffffffffffffffffffffffffffffffffffff1603612151575f6040517f1e4fbdf7000000000000000000000000000000000000000000000000000000008152600401612148919061337d565b60405180910390fd5b61215a81612ede565b50565b6121656129f0565b5f60105f3373ffffffffffffffffffffffffffffffffffffffff1673ffffffffffffffffffffffffffffffffffffffff1681526020019081526020015f20541180156121fb5750600f5460105f3373ffffffffffffffffffffffffffffffffffffffff1673ffffffffffffffffffffffffffffffffffffffff1681526020019081526020015f20546121f79190613051565b4210155b61223a576040517f08c379a000000000000000000000000000000000000000000000000000000000815260040161223190613c0a565b60405180910390fd5b5f60055f3373ffffffffffffffffffffffffffffffffffffffff1673ffffffffffffffffffffffffffffffffffffffff1681526020019081526020015f205490505f81116122bd576040517f08c379a00000000000000000000000000000000000000000000000000000000081526004016122b490613c72565b60405180910390fd5b5f60035f3373ffffffffffffffffffffffffffffffffffffffff1673ffffffffffffffffffffffffffffffffffffffff1681526020019081526020015f2090505f5f90505b81805490508110156123e057818181548110612321576123206136bf565b5b905f5260205f2090600502016004015f9054906101000a900460ff16156123d3575f828281548110612356576123556136bf565b5b905f5260205f2090600502016004015f6101000a81548160ff02191690831515021790555081818154811061238e5761238d6136bf565b5b905f5260205f2090600502015f015460075f015f8282546123af91906135e3565b92505081905550600160076004015f8282546123cb91906135e3565b925050819055505b8080600101915050612302565b505f60055f3373ffffffffffffffffffffffffffffffffffffffff1673ffffffffffffffffffffffffffffffffffffffff1681526020019081526020015f20819055505f60105f3373ffffffffffffffffffffffffffffffffffffffff1673ffffffffffffffffffffffffffffffffffffffff1681526020019081526020015f20819055505f3373ffffffffffffffffffffffffffffffffffffffff168360405161248a90613643565b5f6040518083038185875af1925050503d805f81146124c4576040519150601f19603f3d011682016040523d82523d5f602084013e6124c9565b606091505b505090508061250d576040517f08c379a000000000000000000000000000000000000000000000000000000000815260040161250490613cda565b60405180910390fd5b3373ffffffffffffffffffffffffffffffffffffffff167faf6e7d750e5a786a0b4d0e00806a5f778d09769d9c8c0ee377cc6df72af07115846040516125539190613093565b60405180910390a2505050612566612a3f565b565b612570612a48565b6125786129f0565b66038d7ea4c680003410156125c2576040517f08c379a00000000000000000000000000000000000000000000000000000000081526004016125b990613b05565b60405180910390fd5b6125ca612d71565b5f6040518060a001604052803481526020015f815260200142815260200183815260200160011515815250905060035f3373ffffffffffffffffffffffffffffffffffffffff1673ffffffffffffffffffffffffffffffffffffffff1681526020019081526020015f2081908060018154018082558091505060019003905f5260205f2090600502015f909190919091505f820151815f01556020820151816001015560408201518160020155606082015181600301556080820151816004015f6101000a81548160ff02191690831515021790555050505f600160035f3373ffffffffffffffffffffffffffffffffffffffff1673ffffffffffffffffffffffffffffffffffffffff1681526020019081526020015f20805490506126f091906135e3565b90505f8311156127a15760045f8481526020019081526020015f2082908060018154018082558091505060019003905f5260205f2090600502015f909190919091505f820151815f01556020820151816001015560408201518160020155606082015181600301556080820151816004015f6101000a81548160ff02191690831515021790555050503460065f8581526020019081526020015f205f8282546127999190613051565b925050819055505b3460055f3373ffffffffffffffffffffffffffffffffffffffff1673ffffffffffffffffffffffffffffffffffffffff1681526020019081526020015f205f8282546127ed9190613051565b925050819055503460075f015f8282546128079190613051565b92505081905550600160076004015f8282546128239190613051565b925050819055503373ffffffffffffffffffffffffffffffffffffffff167f55b223c72892936a872c1f417e7e143a0592419fe999642dbb4bccb55b8c6e8334858460405161287493929190613b23565b60405180910390a25050612886612a3f565b50565b5f5f60035f8573ffffffffffffffffffffffffffffffffffffffff1673ffffffffffffffffffffffffffffffffffffffff1681526020019081526020015f2083815481106128da576128d96136bf565b5b905f5260205f2090600502019050806004015f9054906101000a900460ff16612906575f915050612963565b5f81600201544261291791906135e3565b90505f612710600760020154845f01546129319190613cf8565b61293b9190613d66565b90505f6301e13380838361294f9190613cf8565b6129599190613d66565b9050809450505050505b92915050565b612971612f9f565b73ffffffffffffffffffffffffffffffffffffffff1661298f611313565b73ffffffffffffffffffffffffffffffffffffffff16146129ee576129b2612f9f565b6040517f118cdaa70000000000000000000000000000000000000000000000000000000081526004016129e5919061337d565b60405180910390fd5b565b600260015403612a35576040517f08c379a0000000000000000000000000000000000000000000000000000000008152600401612a2c90613de0565b60405180910390fd5b6002600181905550565b60018081905550565b612a50611227565b15612a90576040517f08c379a0000000000000000000000000000000000000000000000000000000008152600401612a8790613e48565b60405180910390fd5b565b5f60035f8573ffffffffffffffffffffffffffffffffffffffff1673ffffffffffffffffffffffffffffffffffffffff1681526020019081526020015f208381548110612ae257612ae16136bf565b5b905f5260205f20906005020190505f612afb8585612889565b905080826001015f828254612b109190613051565b925050819055505f8260010154835f0154612b2b9190613051565b90505f612710600e548560010154612b439190613cf8565b612b4d9190613d66565b90505f8183612b5c91906135e3565b90505f856003015490505f866004015f6101000a81548160ff021916908315150217905550855f015460055f8b73ffffffffffffffffffffffffffffffffffffffff1673ffffffffffffffffffffffffffffffffffffffff1681526020019081526020015f205f828254612bd091906135e3565b92505081905550855f015460075f015f828254612bed91906135e3565b92505081905550600160076004015f828254612c0991906135e3565b925050819055505f811115612c4357855f015460065f8381526020019081526020015f205f828254612c3b91906135e3565b925050819055505b5f831115612c645782600d5f828254612c5c9190613051565b925050819055505b5f8773ffffffffffffffffffffffffffffffffffffffff1683604051612c8990613643565b5f6040518083038185875af1925050503d805f8114612cc3576040519150601f19603f3d011682016040523d82523d5f602084013e612cc8565b606091505b5050905080612d0c576040517f08c379a0000000000000000000000000000000000000000000000000000000008152600401612d0390613eb0565b60405180910390fd5b8973ffffffffffffffffffffffffffffffffffffffff167fc8b5ab210e9d3b6a82b80aa35e2cc486dc439d18cbfef6006c423a516768f70b885f015489600101548c604051612d5d93929190613b23565b60405180910390a250505050505050505050565b4260076003018190555068056bc75e2d6310000060075f01541115612dcb57603280612d9d9190613051565b6007600201541115612dc657600a60076002015f828254612dbe91906135e3565b925050819055505b612e19565b678ac7230489e8000060075f01541015612e18576032610320612dee91906135e3565b6007600201541015612e1757600a60076002015f828254612e0f9190613051565b925050819055505b5b5b565b612e23612fa6565b5f60025f6101000a81548160ff0219169083151502179055507f5db9ee0a495bf2e6ff9c91a7834c1ba4fdd244a5e8aa4e537bd38aeae4b073aa612e65612f9f565b604051612e72919061337d565b60405180910390a1565b612e84612a48565b600160025f6101000a81548160ff0219169083151502179055507f62e78cea01bee320cd4e420270b5ea74000d11b0c9f74754ebdbfc544b05a258612ec7612f9f565b604051612ed4919061337d565b60405180910390a1565b5f5f5f9054906101000a900473ffffffffffffffffffffffffffffffffffffffff169050815f5f6101000a81548173ffffffffffffffffffffffffffffffffffffffff021916908373ffffffffffffffffffffffffffffffffffffffff1602179055508173ffffffffffffffffffffffffffffffffffffffff168173ffffffffffffffffffffffffffffffffffffffff167f8be0079c531659141344cd1fd0a4f28419497f9722a3daafe3b4186f6b6457e060405160405180910390a35050565b5f33905090565b612fae611227565b612fed576040517f08c379a0000000000000000000000000000000000000000000000000000000008152600401612fe490613f18565b60405180910390fd5b565b6040518060a001604052805f81526020015f81526020015f81526020015f81526020015f151581525090565b5f819050919050565b7f4e487b71000000000000000000000000000000000000000000000000000000005f52601160045260245ffd5b5f61305b8261301b565b91506130668361301b565b925082820190508082111561307e5761307d613024565b5b92915050565b61308d8161301b565b82525050565b5f6020820190506130a65f830184613084565b92915050565b5f82825260208201905092915050565b7f46756e6374696f6e206e6f7420666f756e6400000000000000000000000000005f82015250565b5f6130f06012836130ac565b91506130fb826130bc565b602082019050919050565b5f6020820190508181035f83015261311d816130e4565b9050919050565b5f5ffd5b5f73ffffffffffffffffffffffffffffffffffffffff82169050919050565b5f61315182613128565b9050919050565b61316181613147565b811461316b575f5ffd5b50565b5f8135905061317c81613158565b92915050565b61318b8161301b565b8114613195575f5ffd5b50565b5f813590506131a681613182565b92915050565b5f5f604083850312156131c2576131c1613124565b5b5f6131cf8582860161316e565b92505060206131e085828601613198565b9150509250929050565b5f602082840312156131ff576131fe613124565b5b5f61320c84828501613198565b91505092915050565b5f6080820190506132285f830187613084565b6132356020830186613084565b6132426040830185613084565b61324f6060830184613084565b95945050505050565b5f6020828403121561326d5761326c613124565b5b5f61327a8482850161316e565b91505092915050565b5f5f5f6060848603121561329a57613299613124565b5b5f6132a78682870161316e565b93505060206132b886828701613198565b92505060406132c98682870161316e565b9150509250925092565b5f8115159050919050565b6132e7816132d3565b81146132f1575f5ffd5b50565b5f81359050613302816132de565b92915050565b5f5f6040838503121561331e5761331d613124565b5b5f61332b8582860161316e565b925050602061333c858286016132f4565b9150509250929050565b61334f816132d3565b82525050565b5f6020820190506133685f830184613346565b92915050565b61337781613147565b82525050565b5f6020820190506133905f83018461336e565b92915050565b5f60a0820190506133a95f830188613084565b6133b66020830187613084565b6133c36040830186613084565b6133d06060830185613084565b6133dd6080830184613346565b9695505050505050565b6133f08161301b565b82525050565b6133ff816132d3565b82525050565b60a082015f8201516134195f8501826133e7565b50602082015161342c60208501826133e7565b50604082015161343f60408501826133e7565b50606082015161345260608501826133e7565b50608082015161346560808501826133f6565b50505050565b5f60a08201905061347e5f830184613405565b92915050565b5f5f6040838503121561349a57613499613124565b5b5f6134a785828601613198565b92505060206134b885828601613198565b9150509250929050565b5f60a0820190506134d55f830188613084565b6134e26020830187613084565b6134ef6040830186613084565b6134fc6060830185613084565b6135096080830184613084565b9695505050505050565b7f496e76616c696420726563697069656e740000000000000000000000000000005f82015250565b5f6135476011836130ac565b915061355282613513565b602082019050919050565b5f6020820190508181035f8301526135748161353b565b9050919050565b7f496e73756666696369656e7420666565730000000000000000000000000000005f82015250565b5f6135af6011836130ac565b91506135ba8261357b565b602082019050919050565b5f6020820190508181035f8301526135dc816135a3565b9050919050565b5f6135ed8261301b565b91506135f88361301b565b92508282039050818111156136105761360f613024565b5b92915050565b5f81905092915050565b50565b5f61362e5f83613616565b915061363982613620565b5f82019050919050565b5f61364d82613623565b9150819050919050565b7f466565207769746864726177616c206661696c656400000000000000000000005f82015250565b5f61368b6015836130ac565b915061369682613657565b602082019050919050565b5f6020820190508181035f8301526136b88161367f565b9050919050565b7f4e487b71000000000000000000000000000000000000000000000000000000005f52603260045260245ffd5b7f4e6f7420617574686f72697a65640000000000000000000000000000000000005f82015250565b5f613720600e836130ac565b915061372b826136ec565b602082019050919050565b5f6020820190508181035f83015261374d81613714565b9050919050565b7f496e76616c6964207374616b6520696e646578000000000000000000000000005f82015250565b5f6137886013836130ac565b915061379382613754565b602082019050919050565b5f6020820190508181035f8301526137b58161377c565b9050919050565b7f5374616b65206e6f7420616374697665000000000000000000000000000000005f82015250565b5f6137f06010836130ac565b91506137fb826137bc565b602082019050919050565b5f6020820190508181035f83015261381d816137e4565b9050919050565b7f496e76616c6964207969656c64207261746500000000000000000000000000005f82015250565b5f6138586012836130ac565b915061386382613824565b602082019050919050565b5f6020820190508181035f8301526138858161384c565b9050919050565b5f60408201905061389f5f830185613084565b6138ac6020830184613084565b9392505050565b7f496e76616c69642063616c6c65722061646472657373000000000000000000005f82015250565b5f6138e76016836130ac565b91506138f2826138b3565b602082019050919050565b5f6020820190508181035f830152613914816138db565b9050919050565b7f466565207261746520746f6f20686967680000000000000000000000000000005f82015250565b5f61394f6011836130ac565b915061395a8261391b565b602082019050919050565b5f6020820190508181035f83015261397c81613943565b9050919050565b7f4e6f206665657320746f206469737472696275746500000000000000000000005f82015250565b5f6139b76015836130ac565b91506139c282613983565b602082019050919050565b5f6020820190508181035f8301526139e4816139ab565b9050919050565b7f4e6f20616374697665207374616b6573000000000000000000000000000000005f82015250565b5f613a1f6010836130ac565b9150613a2a826139eb565b602082019050919050565b5f6020820190508181035f830152613a4c81613a13565b9050919050565b7f496e76616c6964207573657220616464726573730000000000000000000000005f82015250565b5f613a876014836130ac565b9150613a9282613a53565b602082019050919050565b5f6020820190508181035f830152613ab481613a7b565b9050919050565b7f5374616b6520616d6f756e7420746f6f206c6f770000000000000000000000005f82015250565b5f613aef6014836130ac565b9150613afa82613abb565b602082019050919050565b5f6020820190508181035f830152613b1c81613ae3565b9050919050565b5f606082019050613b365f830186613084565b613b436020830185613084565b613b506040830184613084565b949350505050565b7f4e6f206665657320746f20636f6c6c65637400000000000000000000000000005f82015250565b5f613b8c6012836130ac565b9150613b9782613b58565b602082019050919050565b5f6020820190508181035f830152613bb981613b80565b9050919050565b7f456d657267656e63792064656c6179206e6f74206d65740000000000000000005f82015250565b5f613bf46017836130ac565b9150613bff82613bc0565b602082019050919050565b5f6020820190508181035f830152613c2181613be8565b9050919050565b7f4e6f2066756e647320746f2077697468647261770000000000000000000000005f82015250565b5f613c5c6014836130ac565b9150613c6782613c28565b602082019050919050565b5f6020820190508181035f830152613c8981613c50565b9050919050565b7f456d657267656e6379207769746864726177616c206661696c656400000000005f82015250565b5f613cc4601b836130ac565b9150613ccf82613c90565b602082019050919050565b5f6020820190508181035f830152613cf181613cb8565b9050919050565b5f613d028261301b565b9150613d0d8361301b565b9250828202613d1b8161301b565b91508282048414831517613d3257613d31613024565b5b5092915050565b7f4e487b71000000000000000000000000000000000000000000000000000000005f52601260045260245ffd5b5f613d708261301b565b9150613d7b8361301b565b925082613d8b57613d8a613d39565b5b828204905092915050565b7f5265656e7472616e637947756172643a207265656e7472616e742063616c6c005f82015250565b5f613dca601f836130ac565b9150613dd582613d96565b602082019050919050565b5f6020820190508181035f830152613df781613dbe565b9050919050565b7f5061757361626c653a20706175736564000000000000000000000000000000005f82015250565b5f613e326010836130ac565b9150613e3d82613dfe565b602082019050919050565b5f6020820190508181035f830152613e5f81613e26565b9050919050565b7f5472616e73666572206661696c656400000000000000000000000000000000005f82015250565b5f613e9a600f836130ac565b9150613ea582613e66565b602082019050919050565b5f6020820190508181035f830152613ec781613e8e565b9050919050565b7f5061757361626c653a206e6f74207061757365640000000000000000000000005f82015250565b5f613f026014836130ac565b9150613f0d82613ece565b602082019050919050565b5f6020820190508181035f830152613f2f81613ef6565b905091905056fea26469706673582212206a208a6494ed47384da9fbf6e67dbabcf9c126da380c19c036bae54cb1b5516b64736f6c634300081e0033",
			"opcodes": "PUSH1 0x80 PUSH1 0x40 MSTORE PUSH1 0xC8 PUSH1 0xE SSTORE PUSH3 0x93A80 PUSH1 0xF SSTORE CALLVALUE DUP1 ISZERO PUSH2 0x1B JUMPI PUSH0 PUSH0 REVERT JUMPDEST POP CALLER PUSH0 PUSH20 0xFFFFFFFFFFFFFFFFFFFFFFFFFFFFFFFFFFFFFFFF AND DUP2 PUSH20 0xFFFFFFFFFFFFFFFFFFFFFFFFFFFFFFFFFFFFFFFF AND SUB PUSH2 0x8D JUMPI PUSH0 PUSH1 0x40 MLOAD PUSH32 0x1E4FBDF700000000000000000000000000000000000000000000000000000000 DUP2 MSTORE PUSH1 0x4 ADD PUSH2 0x84 SWAP2 SWAP1 PUSH2 0x1D8 JUMP JUMPDEST PUSH1 0x40 MLOAD DUP1 SWAP2 SUB SWAP1 REVERT JUMPDEST PUSH2 0x9C DUP2 PUSH2 0xD8 PUSH1 0x20 SHL PUSH1 0x20 SHR JUMP JUMPDEST POP PUSH1 0x1 DUP1 DUP2 SWAP1 SSTORE POP PUSH0 PUSH1 0x2 PUSH0 PUSH2 0x100 EXP DUP2 SLOAD DUP2 PUSH1 0xFF MUL NOT AND SWAP1 DUP4 ISZERO ISZERO MUL OR SWAP1 SSTORE POP PUSH2 0x190 PUSH1 0x7 PUSH1 0x2 ADD DUP2 SWAP1 SSTORE POP TIMESTAMP PUSH1 0x7 PUSH1 0x3 ADD DUP2 SWAP1 SSTORE POP PUSH2 0x1F1 JUMP JUMPDEST PUSH0 PUSH0 PUSH0 SWAP1 SLOAD SWAP1 PUSH2 0x100 EXP SWAP1 DIV PUSH20 0xFFFFFFFFFFFFFFFFFFFFFFFFFFFFFFFFFFFFFFFF AND SWAP1 POP DUP2 PUSH0 PUSH0 PUSH2 0x100 EXP DUP2 SLOAD DUP2 PUSH20 0xFFFFFFFFFFFFFFFFFFFFFFFFFFFFFFFFFFFFFFFF MUL NOT AND SWAP1 DUP4 PUSH20 0xFFFFFFFFFFFFFFFFFFFFFFFFFFFFFFFFFFFFFFFF AND MUL OR SWAP1 SSTORE POP DUP2 PUSH20 0xFFFFFFFFFFFFFFFFFFFFFFFFFFFFFFFFFFFFFFFF AND DUP2 PUSH20 0xFFFFFFFFFFFFFFFFFFFFFFFFFFFFFFFFFFFFFFFF AND PUSH32 0x8BE0079C531659141344CD1FD0A4F28419497F9722A3DAAFE3B4186F6B6457E0 PUSH1 0x40 MLOAD PUSH1 0x40 MLOAD DUP1 SWAP2 SUB SWAP1 LOG3 POP POP JUMP JUMPDEST PUSH0 PUSH20 0xFFFFFFFFFFFFFFFFFFFFFFFFFFFFFFFFFFFFFFFF DUP3 AND SWAP1 POP SWAP2 SWAP1 POP JUMP JUMPDEST PUSH0 PUSH2 0x1C2 DUP3 PUSH2 0x199 JUMP JUMPDEST SWAP1 POP SWAP2 SWAP1 POP JUMP JUMPDEST PUSH2 0x1D2 DUP2 PUSH2 0x1B8 JUMP JUMPDEST DUP3 MSTORE POP POP JUMP JUMPDEST PUSH0 PUSH1 0x20 DUP3 ADD SWAP1 POP PUSH2 0x1EB PUSH0 DUP4 ADD DUP5 PUSH2 0x1C9 JUMP JUMPDEST SWAP3 SWAP2 POP POP JUMP JUMPDEST PUSH2 0x3F6C DUP1 PUSH2 0x1FE PUSH0 CODECOPY PUSH0 RETURN INVALID PUSH1 0x80 PUSH1 0x40 MSTORE PUSH1 0x4 CALLDATASIZE LT PUSH2 0x26A JUMPI PUSH0 CALLDATALOAD PUSH1 0xE0 SHR DUP1 PUSH4 0x715018A6 GT PUSH2 0x143 JUMPI DUP1 PUSH4 0xC69ECF0B GT PUSH2 0xB5 JUMPI DUP1 PUSH4 0xE65EAFF7 GT PUSH2 0x79 JUMPI DUP1 PUSH4 0xE65EAFF7 EQ PUSH2 0x939 JUMPI DUP1 PUSH4 0xE8421B5E EQ PUSH2 0x967 JUMPI DUP1 PUSH4 0xEC669457 EQ PUSH2 0x98F JUMPI DUP1 PUSH4 0xF2FDE38B EQ PUSH2 0x9CB JUMPI DUP1 PUSH4 0xF4993BBD EQ PUSH2 0x9F3 JUMPI DUP1 PUSH4 0xF74B51B3 EQ PUSH2 0xA09 JUMPI PUSH2 0x2C9 JUMP JUMPDEST DUP1 PUSH4 0xC69ECF0B EQ PUSH2 0x873 JUMPI DUP1 PUSH4 0xCAA7C8AA EQ PUSH2 0x87D JUMPI DUP1 PUSH4 0xCEC695FA EQ PUSH2 0x893 JUMPI DUP1 PUSH4 0xCFFB911E EQ PUSH2 0x8CF JUMPI DUP1 PUSH4 0xE1F1C4A7 EQ PUSH2 0x90F JUMPI PUSH2 0x2C9 JUMP JUMPDEST DUP1 PUSH4 0x96CA8D27 GT PUSH2 0x107 JUMPI DUP1 PUSH4 0x96CA8D27 EQ PUSH2 0x773 JUMPI DUP1 PUSH4 0xA83481E1 EQ PUSH2 0x7AF JUMPI DUP1 PUSH4 0xB4F74031 EQ PUSH2 0x7D7 JUMPI DUP1 PUSH4 0xB5D5B5FA EQ PUSH2 0x801 JUMPI DUP1 PUSH4 0xBB57AD20 EQ PUSH2 0x841 JUMPI DUP1 PUSH4 0xC5B4F407 EQ PUSH2 0x857 JUMPI PUSH2 0x2C9 JUMP JUMPDEST DUP1 PUSH4 0x715018A6 EQ PUSH2 0x6B7 JUMPI DUP1 PUSH4 0x719DE1EF EQ PUSH2 0x6CD JUMPI DUP1 PUSH4 0x8456CB59 EQ PUSH2 0x709 JUMPI DUP1 PUSH4 0x8DA5CB5B EQ PUSH2 0x71F JUMPI DUP1 PUSH4 0x962CA496 EQ PUSH2 0x749 JUMPI PUSH2 0x2C9 JUMP JUMPDEST DUP1 PUSH4 0x30063E3B GT PUSH2 0x1DC JUMPI DUP1 PUSH4 0x51858E27 GT PUSH2 0x1A0 JUMPI DUP1 PUSH4 0x51858E27 EQ PUSH2 0x5BF JUMPI DUP1 PUSH4 0x536FFF6C EQ PUSH2 0x5D5 JUMPI DUP1 PUSH4 0x58F85880 EQ PUSH2 0x611 JUMPI DUP1 PUSH4 0x5C975ABB EQ PUSH2 0x63B JUMPI DUP1 PUSH4 0x6340D55C EQ PUSH2 0x665 JUMPI DUP1 PUSH4 0x6987CA1D EQ PUSH2 0x68D JUMPI PUSH2 0x2C9 JUMP JUMPDEST DUP1 PUSH4 0x30063E3B EQ PUSH2 0x517 JUMPI DUP1 PUSH4 0x304A900D EQ PUSH2 0x541 JUMPI DUP1 PUSH4 0x3F4BA83A EQ PUSH2 0x56B JUMPI DUP1 PUSH4 0x454BBD29 EQ PUSH2 0x581 JUMPI DUP1 PUSH4 0x4A4E3BD5 EQ PUSH2 0x5A9 JUMPI PUSH2 0x2C9 JUMP JUMPDEST DUP1 PUSH4 0x1B545A17 GT PUSH2 0x22E JUMPI DUP1 PUSH4 0x1B545A17 EQ PUSH2 0x3FB JUMPI DUP1 PUSH4 0x1BC6A778 EQ PUSH2 0x437 JUMPI DUP1 PUSH4 0x1E99921B EQ PUSH2 0x473 JUMPI DUP1 PUSH4 0x27ED7188 EQ PUSH2 0x49D JUMPI DUP1 PUSH4 0x2D4C5ABE EQ PUSH2 0x4C7 JUMPI DUP1 PUSH4 0x2F0F8A7A EQ PUSH2 0x4EF JUMPI PUSH2 0x2C9 JUMP JUMPDEST DUP1 PUSH4 0xB48BABA EQ PUSH2 0x304 JUMPI DUP1 PUSH4 0x148A1ED7 EQ PUSH2 0x340 JUMPI DUP1 PUSH4 0x1683E9CE EQ PUSH2 0x37C JUMPI DUP1 PUSH4 0x16A54675 EQ PUSH2 0x3A9 JUMPI DUP1 PUSH4 0x1A7A73C2 EQ PUSH2 0x3D3 JUMPI PUSH2 0x2C9 JUMP JUMPDEST CALLDATASIZE PUSH2 0x2C9 JUMPI PUSH0 CALLVALUE GT ISZERO PUSH2 0x2C7 JUMPI CALLVALUE PUSH1 0xD PUSH0 DUP3 DUP3 SLOAD PUSH2 0x288 SWAP2 SWAP1 PUSH2 0x3051 JUMP JUMPDEST SWAP3 POP POP DUP2 SWAP1 SSTORE POP PUSH32 0xFD89F3716628D726D771436AEF1A2B241477089ECDEA8429F2DCDF2F2106C4A4 CALLVALUE PUSH1 0x40 MLOAD PUSH2 0x2BE SWAP2 SWAP1 PUSH2 0x3093 JUMP JUMPDEST PUSH1 0x40 MLOAD DUP1 SWAP2 SUB SWAP1 LOG1 JUMPDEST STOP JUMPDEST PUSH1 0x40 MLOAD PUSH32 0x8C379A000000000000000000000000000000000000000000000000000000000 DUP2 MSTORE PUSH1 0x4 ADD PUSH2 0x2FB SWAP1 PUSH2 0x3106 JUMP JUMPDEST PUSH1 0x40 MLOAD DUP1 SWAP2 SUB SWAP1 REVERT JUMPDEST CALLVALUE DUP1 ISZERO PUSH2 0x30F JUMPI PUSH0 PUSH0 REVERT JUMPDEST POP PUSH2 0x32A PUSH1 0x4 DUP1 CALLDATASIZE SUB DUP2 ADD SWAP1 PUSH2 0x325 SWAP2 SWAP1 PUSH2 0x31AC JUMP JUMPDEST PUSH2 0xA25 JUMP JUMPDEST PUSH1 0x40 MLOAD PUSH2 0x337 SWAP2 SWAP1 PUSH2 0x3093 JUMP JUMPDEST PUSH1 0x40 MLOAD DUP1 SWAP2 SUB SWAP1 RETURN JUMPDEST CALLVALUE DUP1 ISZERO PUSH2 0x34B JUMPI PUSH0 PUSH0 REVERT JUMPDEST POP PUSH2 0x366 PUSH1 0x4 DUP1 CALLDATASIZE SUB DUP2 ADD SWAP1 PUSH2 0x361 SWAP2 SWAP1 PUSH2 0x31EA JUMP JUMPDEST PUSH2 0xA88 JUMP JUMPDEST PUSH1 0x40 MLOAD PUSH2 0x373 SWAP2 SWAP1 PUSH2 0x3093 JUMP JUMPDEST PUSH1 0x40 MLOAD DUP1 SWAP2 SUB SWAP1 RETURN JUMPDEST CALLVALUE DUP1 ISZERO PUSH2 0x387 JUMPI PUSH0 PUSH0 REVERT JUMPDEST POP PUSH2 0x390 PUSH2 0xAA2 JUMP JUMPDEST PUSH1 0x40 MLOAD PUSH2 0x3A0 SWAP5 SWAP4 SWAP3 SWAP2 SWAP1 PUSH2 0x3215 JUMP JUMPDEST PUSH1 0x40 MLOAD DUP1 SWAP2 SUB SWAP1 RETURN JUMPDEST CALLVALUE DUP1 ISZERO PUSH2 0x3B4 JUMPI PUSH0 PUSH0 REVERT JUMPDEST POP PUSH2 0x3BD PUSH2 0xACB JUMP JUMPDEST PUSH1 0x40 MLOAD PUSH2 0x3CA SWAP2 SWAP1 PUSH2 0x3093 JUMP JUMPDEST PUSH1 0x40 MLOAD DUP1 SWAP2 SUB SWAP1 RETURN JUMPDEST CALLVALUE DUP1 ISZERO PUSH2 0x3DE JUMPI PUSH0 PUSH0 REVERT JUMPDEST POP PUSH2 0x3F9 PUSH1 0x4 DUP1 CALLDATASIZE SUB DUP2 ADD SWAP1 PUSH2 0x3F4 SWAP2 SWAP1 PUSH2 0x31AC JUMP JUMPDEST PUSH2 0xAD1 JUMP JUMPDEST STOP JUMPDEST CALLVALUE DUP1 ISZERO PUSH2 0x406 JUMPI PUSH0 PUSH0 REVERT JUMPDEST POP PUSH2 0x421 PUSH1 0x4 DUP1 CALLDATASIZE SUB DUP2 ADD SWAP1 PUSH2 0x41C SWAP2 SWAP1 PUSH2 0x3258 JUMP JUMPDEST PUSH2 0xC61 JUMP JUMPDEST PUSH1 0x40 MLOAD PUSH2 0x42E SWAP2 SWAP1 PUSH2 0x3093 JUMP JUMPDEST PUSH1 0x40 MLOAD DUP1 SWAP2 SUB SWAP1 RETURN JUMPDEST CALLVALUE DUP1 ISZERO PUSH2 0x442 JUMPI PUSH0 PUSH0 REVERT JUMPDEST POP PUSH2 0x45D PUSH1 0x4 DUP1 CALLDATASIZE SUB DUP2 ADD SWAP1 PUSH2 0x458 SWAP2 SWAP1 PUSH2 0x3258 JUMP JUMPDEST PUSH2 0xCAA JUMP JUMPDEST PUSH1 0x40 MLOAD PUSH2 0x46A SWAP2 SWAP1 PUSH2 0x3093 JUMP JUMPDEST PUSH1 0x40 MLOAD DUP1 SWAP2 SUB SWAP1 RETURN JUMPDEST CALLVALUE DUP1 ISZERO PUSH2 0x47E JUMPI PUSH0 PUSH0 REVERT JUMPDEST POP PUSH2 0x487 PUSH2 0xD54 JUMP JUMPDEST PUSH1 0x40 MLOAD PUSH2 0x494 SWAP2 SWAP1 PUSH2 0x3093 JUMP JUMPDEST PUSH1 0x40 MLOAD DUP1 SWAP2 SUB SWAP1 RETURN JUMPDEST CALLVALUE DUP1 ISZERO PUSH2 0x4A8 JUMPI PUSH0 PUSH0 REVERT JUMPDEST POP PUSH2 0x4B1 PUSH2 0xD5B JUMP JUMPDEST PUSH1 0x40 MLOAD PUSH2 0x4BE SWAP2 SWAP1 PUSH2 0x3093 JUMP JUMPDEST PUSH1 0x40 MLOAD DUP1 SWAP2 SUB SWAP1 RETURN JUMPDEST CALLVALUE DUP1 ISZERO PUSH2 0x4D2 JUMPI PUSH0 PUSH0 REVERT JUMPDEST POP PUSH2 0x4ED PUSH1 0x4 DUP1 CALLDATASIZE SUB DUP2 ADD SWAP1 PUSH2 0x4E8 SWAP2 SWAP1 PUSH2 0x3283 JUMP JUMPDEST PUSH2 0xD66 JUMP JUMPDEST STOP JUMPDEST CALLVALUE DUP1 ISZERO PUSH2 0x4FA JUMPI PUSH0 PUSH0 REVERT JUMPDEST POP PUSH2 0x515 PUSH1 0x4 DUP1 CALLDATASIZE SUB DUP2 ADD SWAP1 PUSH2 0x510 SWAP2 SWAP1 PUSH2 0x31EA JUMP JUMPDEST PUSH2 0xFF2 JUMP JUMPDEST STOP JUMPDEST CALLVALUE DUP1 ISZERO PUSH2 0x522 JUMPI PUSH0 PUSH0 REVERT JUMPDEST POP PUSH2 0x52B PUSH2 0x10A4 JUMP JUMPDEST PUSH1 0x40 MLOAD PUSH2 0x538 SWAP2 SWAP1 PUSH2 0x3093 JUMP JUMPDEST PUSH1 0x40 MLOAD DUP1 SWAP2 SUB SWAP1 RETURN JUMPDEST CALLVALUE DUP1 ISZERO PUSH2 0x54C JUMPI PUSH0 PUSH0 REVERT JUMPDEST POP PUSH2 0x555 PUSH2 0x10AD JUMP JUMPDEST PUSH1 0x40 MLOAD PUSH2 0x562 SWAP2 SWAP1 PUSH2 0x3093 JUMP JUMPDEST PUSH1 0x40 MLOAD DUP1 SWAP2 SUB SWAP1 RETURN JUMPDEST CALLVALUE DUP1 ISZERO PUSH2 0x576 JUMPI PUSH0 PUSH0 REVERT JUMPDEST POP PUSH2 0x57F PUSH2 0x10B2 JUMP JUMPDEST STOP JUMPDEST CALLVALUE DUP1 ISZERO PUSH2 0x58C JUMPI PUSH0 PUSH0 REVERT JUMPDEST POP PUSH2 0x5A7 PUSH1 0x4 DUP1 CALLDATASIZE SUB DUP2 ADD SWAP1 PUSH2 0x5A2 SWAP2 SWAP1 PUSH2 0x3308 JUMP JUMPDEST PUSH2 0x10C4 JUMP JUMPDEST STOP JUMPDEST CALLVALUE DUP1 ISZERO PUSH2 0x5B4 JUMPI PUSH0 PUSH0 REVERT JUMPDEST POP PUSH2 0x5BD PUSH2 0x11E0 JUMP JUMPDEST STOP JUMPDEST CALLVALUE DUP1 ISZERO PUSH2 0x5CA JUMPI PUSH0 PUSH0 REVERT JUMPDEST POP PUSH2 0x5D3 PUSH2 0x11F2 JUMP JUMPDEST STOP JUMPDEST CALLVALUE DUP1 ISZERO PUSH2 0x5E0 JUMPI PUSH0 PUSH0 REVERT JUMPDEST POP PUSH2 0x5FB PUSH1 0x4 DUP1 CALLDATASIZE SUB DUP2 ADD SWAP1 PUSH2 0x5F6 SWAP2 SWAP1 PUSH2 0x3258 JUMP JUMPDEST PUSH2 0x1204 JUMP JUMPDEST PUSH1 0x40 MLOAD PUSH2 0x608 SWAP2 SWAP1 PUSH2 0x3355 JUMP JUMPDEST PUSH1 0x40 MLOAD DUP1 SWAP2 SUB SWAP1 RETURN JUMPDEST CALLVALUE DUP1 ISZERO PUSH2 0x61C JUMPI PUSH0 PUSH0 REVERT JUMPDEST POP PUSH2 0x625 PUSH2 0x1221 JUMP JUMPDEST PUSH1 0x40 MLOAD PUSH2 0x632 SWAP2 SWAP1 PUSH2 0x3093 JUMP JUMPDEST PUSH1 0x40 MLOAD DUP1 SWAP2 SUB SWAP1 RETURN JUMPDEST CALLVALUE DUP1 ISZERO PUSH2 0x646 JUMPI PUSH0 PUSH0 REVERT JUMPDEST POP PUSH2 0x64F PUSH2 0x1227 JUMP JUMPDEST PUSH1 0x40 MLOAD PUSH2 0x65C SWAP2 SWAP1 PUSH2 0x3355 JUMP JUMPDEST PUSH1 0x40 MLOAD DUP1 SWAP2 SUB SWAP1 RETURN JUMPDEST CALLVALUE DUP1 ISZERO PUSH2 0x670 JUMPI PUSH0 PUSH0 REVERT JUMPDEST POP PUSH2 0x68B PUSH1 0x4 DUP1 CALLDATASIZE SUB DUP2 ADD SWAP1 PUSH2 0x686 SWAP2 SWAP1 PUSH2 0x31EA JUMP JUMPDEST PUSH2 0x123C JUMP JUMPDEST STOP JUMPDEST CALLVALUE DUP1 ISZERO PUSH2 0x698 JUMPI PUSH0 PUSH0 REVERT JUMPDEST POP PUSH2 0x6A1 PUSH2 0x12D3 JUMP JUMPDEST PUSH1 0x40 MLOAD PUSH2 0x6AE SWAP2 SWAP1 PUSH2 0x3093 JUMP JUMPDEST PUSH1 0x40 MLOAD DUP1 SWAP2 SUB SWAP1 RETURN JUMPDEST CALLVALUE DUP1 ISZERO PUSH2 0x6C2 JUMPI PUSH0 PUSH0 REVERT JUMPDEST POP PUSH2 0x6CB PUSH2 0x12D9 JUMP JUMPDEST STOP JUMPDEST CALLVALUE DUP1 ISZERO PUSH2 0x6D8 JUMPI PUSH0 PUSH0 REVERT JUMPDEST POP PUSH2 0x6F3 PUSH1 0x4 DUP1 CALLDATASIZE SUB DUP2 ADD SWAP1 PUSH2 0x6EE SWAP2 SWAP1 PUSH2 0x3258 JUMP JUMPDEST PUSH2 0x12EC JUMP JUMPDEST PUSH1 0x40 MLOAD PUSH2 0x700 SWAP2 SWAP1 PUSH2 0x3093 JUMP JUMPDEST PUSH1 0x40 MLOAD DUP1 SWAP2 SUB SWAP1 RETURN JUMPDEST CALLVALUE DUP1 ISZERO PUSH2 0x714 JUMPI PUSH0 PUSH0 REVERT JUMPDEST POP PUSH2 0x71D PUSH2 0x1301 JUMP JUMPDEST STOP JUMPDEST CALLVALUE DUP1 ISZERO PUSH2 0x72A JUMPI PUSH0 PUSH0 REVERT JUMPDEST POP PUSH2 0x733 PUSH2 0x1313 JUMP JUMPDEST PUSH1 0x40 MLOAD PUSH2 0x740 SWAP2 SWAP1 PUSH2 0x337D JUMP JUMPDEST PUSH1 0x40 MLOAD DUP1 SWAP2 SUB SWAP1 RETURN JUMPDEST CALLVALUE DUP1 ISZERO PUSH2 0x754 JUMPI PUSH0 PUSH0 REVERT JUMPDEST POP PUSH2 0x75D PUSH2 0x133A JUMP JUMPDEST PUSH1 0x40 MLOAD PUSH2 0x76A SWAP2 SWAP1 PUSH2 0x3093 JUMP JUMPDEST PUSH1 0x40 MLOAD DUP1 SWAP2 SUB SWAP1 RETURN JUMPDEST CALLVALUE DUP1 ISZERO PUSH2 0x77E JUMPI PUSH0 PUSH0 REVERT JUMPDEST POP PUSH2 0x799 PUSH1 0x4 DUP1 CALLDATASIZE SUB DUP2 ADD SWAP1 PUSH2 0x794 SWAP2 SWAP1 PUSH2 0x3258 JUMP JUMPDEST PUSH2 0x1346 JUMP JUMPDEST PUSH1 0x40 MLOAD PUSH2 0x7A6 SWAP2 SWAP1 PUSH2 0x3093 JUMP JUMPDEST PUSH1 0x40 MLOAD DUP1 SWAP2 SUB SWAP1 RETURN JUMPDEST CALLVALUE DUP1 ISZERO PUSH2 0x7BA JUMPI PUSH0 PUSH0 REVERT JUMPDEST POP PUSH2 0x7D5 PUSH1 0x4 DUP1 CALLDATASIZE SUB DUP2 ADD SWAP1 PUSH2 0x7D0 SWAP2 SWAP1 PUSH2 0x31AC JUMP JUMPDEST PUSH2 0x135B JUMP JUMPDEST STOP JUMPDEST CALLVALUE DUP1 ISZERO PUSH2 0x7E2 JUMPI PUSH0 PUSH0 REVERT JUMPDEST POP PUSH2 0x7EB PUSH2 0x158A JUMP JUMPDEST PUSH1 0x40 MLOAD PUSH2 0x7F8 SWAP2 SWAP1 PUSH2 0x3093 JUMP JUMPDEST PUSH1 0x40 MLOAD DUP1 SWAP2 SUB SWAP1 RETURN JUMPDEST CALLVALUE DUP1 ISZERO PUSH2 0x80C JUMPI PUSH0 PUSH0 REVERT JUMPDEST POP PUSH2 0x827 PUSH1 0x4 DUP1 CALLDATASIZE SUB DUP2 ADD SWAP1 PUSH2 0x822 SWAP2 SWAP1 PUSH2 0x31AC JUMP JUMPDEST PUSH2 0x1590 JUMP JUMPDEST PUSH1 0x40 MLOAD PUSH2 0x838 SWAP6 SWAP5 SWAP4 SWAP3 SWAP2 SWAP1 PUSH2 0x3396 JUMP JUMPDEST PUSH1 0x40 MLOAD DUP1 SWAP2 SUB SWAP1 RETURN JUMPDEST CALLVALUE DUP1 ISZERO PUSH2 0x84C JUMPI PUSH0 PUSH0 REVERT JUMPDEST POP PUSH2 0x855 PUSH2 0x15E8 JUMP JUMPDEST STOP JUMPDEST PUSH2 0x871 PUSH1 0x4 DUP1 CALLDATASIZE SUB DUP2 ADD SWAP1 PUSH2 0x86C SWAP2 SWAP1 PUSH2 0x31AC JUMP JUMPDEST PUSH2 0x1773 JUMP JUMPDEST STOP JUMPDEST PUSH2 0x87B PUSH2 0x1BC9 JUMP JUMPDEST STOP JUMPDEST CALLVALUE DUP1 ISZERO PUSH2 0x888 JUMPI PUSH0 PUSH0 REVERT JUMPDEST POP PUSH2 0x891 PUSH2 0x1D22 JUMP JUMPDEST STOP JUMPDEST CALLVALUE DUP1 ISZERO PUSH2 0x89E JUMPI PUSH0 PUSH0 REVERT JUMPDEST POP PUSH2 0x8B9 PUSH1 0x4 DUP1 CALLDATASIZE SUB DUP2 ADD SWAP1 PUSH2 0x8B4 SWAP2 SWAP1 PUSH2 0x31AC JUMP JUMPDEST PUSH2 0x1DB4 JUMP JUMPDEST PUSH1 0x40 MLOAD PUSH2 0x8C6 SWAP2 SWAP1 PUSH2 0x346B JUMP JUMPDEST PUSH1 0x40 MLOAD DUP1 SWAP2 SUB SWAP1 RETURN JUMPDEST CALLVALUE DUP1 ISZERO PUSH2 0x8DA JUMPI PUSH0 PUSH0 REVERT JUMPDEST POP PUSH2 0x8F5 PUSH1 0x4 DUP1 CALLDATASIZE SUB DUP2 ADD SWAP1 PUSH2 0x8F0 SWAP2 SWAP1 PUSH2 0x3484 JUMP JUMPDEST PUSH2 0x1EED JUMP JUMPDEST PUSH1 0x40 MLOAD PUSH2 0x906 SWAP6 SWAP5 SWAP4 SWAP3 SWAP2 SWAP1 PUSH2 0x3396 JUMP JUMPDEST PUSH1 0x40 MLOAD DUP1 SWAP2 SUB SWAP1 RETURN JUMPDEST CALLVALUE DUP1 ISZERO PUSH2 0x91A JUMPI PUSH0 PUSH0 REVERT JUMPDEST POP PUSH2 0x923 PUSH2 0x1F45 JUMP JUMPDEST PUSH1 0x40 MLOAD PUSH2 0x930 SWAP2 SWAP1 PUSH2 0x3093 JUMP JUMPDEST PUSH1 0x40 MLOAD DUP1 SWAP2 SUB SWAP1 RETURN JUMPDEST CALLVALUE DUP1 ISZERO PUSH2 0x944 JUMPI PUSH0 PUSH0 REVERT JUMPDEST POP PUSH2 0x94D PUSH2 0x1F4B JUMP JUMPDEST PUSH1 0x40 MLOAD PUSH2 0x95E SWAP6 SWAP5 SWAP4 SWAP3 SWAP2 SWAP1 PUSH2 0x34C2 JUMP JUMPDEST PUSH1 0x40 MLOAD DUP1 SWAP2 SUB SWAP1 RETURN JUMPDEST CALLVALUE DUP1 ISZERO PUSH2 0x972 JUMPI PUSH0 PUSH0 REVERT JUMPDEST POP PUSH2 0x98D PUSH1 0x4 DUP1 CALLDATASIZE SUB DUP2 ADD SWAP1 PUSH2 0x988 SWAP2 SWAP1 PUSH2 0x31EA JUMP JUMPDEST PUSH2 0x1F6E JUMP JUMPDEST STOP JUMPDEST CALLVALUE DUP1 ISZERO PUSH2 0x99A JUMPI PUSH0 PUSH0 REVERT JUMPDEST POP PUSH2 0x9B5 PUSH1 0x4 DUP1 CALLDATASIZE SUB DUP2 ADD SWAP1 PUSH2 0x9B0 SWAP2 SWAP1 PUSH2 0x31EA JUMP JUMPDEST PUSH2 0x20C4 JUMP JUMPDEST PUSH1 0x40 MLOAD PUSH2 0x9C2 SWAP2 SWAP1 PUSH2 0x3093 JUMP JUMPDEST PUSH1 0x40 MLOAD DUP1 SWAP2 SUB SWAP1 RETURN JUMPDEST CALLVALUE DUP1 ISZERO PUSH2 0x9D6 JUMPI PUSH0 PUSH0 REVERT JUMPDEST POP PUSH2 0x9F1 PUSH1 0x4 DUP1 CALLDATASIZE SUB DUP2 ADD SWAP1 PUSH2 0x9EC SWAP2 SWAP1 PUSH2 0x3258 JUMP JUMPDEST PUSH2 0x20D9 JUMP JUMPDEST STOP JUMPDEST CALLVALUE DUP1 ISZERO PUSH2 0x9FE JUMPI PUSH0 PUSH0 REVERT JUMPDEST POP PUSH2 0xA07 PUSH2 0x215D JUMP JUMPDEST STOP JUMPDEST PUSH2 0xA23 PUSH1 0x4 DUP1 CALLDATASIZE SUB DUP2 ADD SWAP1 PUSH2 0xA1E SWAP2 SWAP1 PUSH2 0x31EA JUMP JUMPDEST PUSH2 0x2568 JUMP JUMPDEST STOP JUMPDEST PUSH0 PUSH1 0x3 PUSH0 DUP5 PUSH20 0xFFFFFFFFFFFFFFFFFFFFFFFFFFFFFFFFFFFFFFFF AND PUSH20 0xFFFFFFFFFFFFFFFFFFFFFFFFFFFFFFFFFFFFFFFF AND DUP2 MSTORE PUSH1 0x20 ADD SWAP1 DUP2 MSTORE PUSH1 0x20 ADD PUSH0 KECCAK256 DUP1 SLOAD SWAP1 POP DUP3 LT PUSH2 0xA75 JUMPI PUSH0 SWAP1 POP PUSH2 0xA82 JUMP JUMPDEST PUSH2 0xA7F DUP4 DUP4 PUSH2 0x2889 JUMP JUMPDEST SWAP1 POP JUMPDEST SWAP3 SWAP2 POP POP JUMP JUMPDEST PUSH0 PUSH1 0x6 PUSH0 DUP4 DUP2 MSTORE PUSH1 0x20 ADD SWAP1 DUP2 MSTORE PUSH1 0x20 ADD PUSH0 KECCAK256 SLOAD SWAP1 POP SWAP2 SWAP1 POP JUMP JUMPDEST PUSH0 PUSH0 PUSH0 PUSH0 PUSH1 0x7 PUSH0 ADD SLOAD PUSH1 0x7 PUSH1 0x1 ADD SLOAD PUSH1 0x7 PUSH1 0x2 ADD SLOAD PUSH1 0x7 PUSH1 0x4 ADD SLOAD SWAP4 POP SWAP4 POP SWAP4 POP SWAP4 POP SWAP1 SWAP2 SWAP3 SWAP4 JUMP JUMPDEST PUSH1 0xD SLOAD DUP2 JUMP JUMPDEST PUSH2 0xAD9 PUSH2 0x2969 JUMP JUMPDEST PUSH2 0xAE1 PUSH2 0x29F0 JUMP JUMPDEST PUSH0 PUSH20 0xFFFFFFFFFFFFFFFFFFFFFFFFFFFFFFFFFFFFFFFF AND DUP3 PUSH20 0xFFFFFFFFFFFFFFFFFFFFFFFFFFFFFFFFFFFFFFFF AND SUB PUSH2 0xB4F JUMPI PUSH1 0x40 MLOAD PUSH32 0x8C379A000000000000000000000000000000000000000000000000000000000 DUP2 MSTORE PUSH1 0x4 ADD PUSH2 0xB46 SWAP1 PUSH2 0x355D JUMP JUMPDEST PUSH1 0x40 MLOAD DUP1 SWAP2 SUB SWAP1 REVERT JUMPDEST PUSH1 0xD SLOAD DUP2 GT ISZERO PUSH2 0xB94 JUMPI PUSH1 0x40 MLOAD PUSH32 0x8C379A000000000000000000000000000000000000000000000000000000000 DUP2 MSTORE PUSH1 0x4 ADD PUSH2 0xB8B SWAP1 PUSH2 0x35C5 JUMP JUMPDEST PUSH1 0x40 MLOAD DUP1 SWAP2 SUB SWAP1 REVERT JUMPDEST DUP1 PUSH1 0xD PUSH0 DUP3 DUP3 SLOAD PUSH2 0xBA5 SWAP2 SWAP1 PUSH2 0x35E3 JUMP JUMPDEST SWAP3 POP POP DUP2 SWAP1 SSTORE POP PUSH0 DUP3 PUSH20 0xFFFFFFFFFFFFFFFFFFFFFFFFFFFFFFFFFFFFFFFF AND DUP3 PUSH1 0x40 MLOAD PUSH2 0xBD1 SWAP1 PUSH2 0x3643 JUMP JUMPDEST PUSH0 PUSH1 0x40 MLOAD DUP1 DUP4 SUB DUP2 DUP6 DUP8 GAS CALL SWAP3 POP POP POP RETURNDATASIZE DUP1 PUSH0 DUP2 EQ PUSH2 0xC0B JUMPI PUSH1 0x40 MLOAD SWAP2 POP PUSH1 0x1F NOT PUSH1 0x3F RETURNDATASIZE ADD AND DUP3 ADD PUSH1 0x40 MSTORE RETURNDATASIZE DUP3 MSTORE RETURNDATASIZE PUSH0 PUSH1 0x20 DUP5 ADD RETURNDATACOPY PUSH2 0xC10 JUMP JUMPDEST PUSH1 0x60 SWAP2 POP JUMPDEST POP POP SWAP1 POP DUP1 PUSH2 0xC54 JUMPI PUSH1 0x40 MLOAD PUSH32 0x8C379A000000000000000000000000000000000000000000000000000000000 DUP2 MSTORE PUSH1 0x4 ADD PUSH2 0xC4B SWAP1 PUSH2 0x36A1 JUMP JUMPDEST PUSH1 0x40 MLOAD DUP1 SWAP2 SUB SWAP1 REVERT JUMPDEST POP PUSH2 0xC5D PUSH2 0x2A3F JUMP JUMPDEST POP POP JUMP JUMPDEST PUSH0 PUSH1 0x3 PUSH0 DUP4 PUSH20 0xFFFFFFFFFFFFFFFFFFFFFFFFFFFFFFFFFFFFFFFF AND PUSH20 0xFFFFFFFFFFFFFFFFFFFFFFFFFFFFFFFFFFFFFFFF AND DUP2 MSTORE PUSH1 0x20 ADD SWAP1 DUP2 MSTORE PUSH1 0x20 ADD PUSH0 KECCAK256 DUP1 SLOAD SWAP1 POP SWAP1 POP SWAP2 SWAP1 POP JUMP JUMPDEST PUSH0 PUSH0 PUSH1 0x3 PUSH0 DUP5 PUSH20 0xFFFFFFFFFFFFFFFFFFFFFFFFFFFFFFFFFFFFFFFF AND PUSH20 0xFFFFFFFFFFFFFFFFFFFFFFFFFFFFFFFFFFFFFFFF AND DUP2 MSTORE PUSH1 0x20 ADD SWAP1 DUP2 MSTORE PUSH1 0x20 ADD PUSH0 KECCAK256 SWAP1 POP PUSH0 PUSH0 SWAP1 POP JUMPDEST DUP2 DUP1 SLOAD SWAP1 POP DUP2 LT ISZERO PUSH2 0xD4D JUMPI PUSH2 0xD06 DUP5 DUP3 PUSH2 0x2889 JUMP JUMPDEST DUP3 DUP3 DUP2 SLOAD DUP2 LT PUSH2 0xD19 JUMPI PUSH2 0xD18 PUSH2 0x36BF JUMP JUMPDEST JUMPDEST SWAP1 PUSH0 MSTORE PUSH1 0x20 PUSH0 KECCAK256 SWAP1 PUSH1 0x5 MUL ADD PUSH1 0x1 ADD SLOAD PUSH2 0xD33 SWAP2 SWAP1 PUSH2 0x3051 JUMP JUMPDEST DUP4 PUSH2 0xD3E SWAP2 SWAP1 PUSH2 0x3051 JUMP JUMPDEST SWAP3 POP DUP1 DUP1 PUSH1 0x1 ADD SWAP2 POP POP PUSH2 0xCF0 JUMP JUMPDEST POP POP SWAP2 SWAP1 POP JUMP JUMPDEST PUSH3 0x15180 DUP2 JUMP JUMPDEST PUSH7 0x38D7EA4C68000 DUP2 JUMP JUMPDEST PUSH1 0xC PUSH0 CALLER PUSH20 0xFFFFFFFFFFFFFFFFFFFFFFFFFFFFFFFFFFFFFFFF AND PUSH20 0xFFFFFFFFFFFFFFFFFFFFFFFFFFFFFFFFFFFFFFFF AND DUP2 MSTORE PUSH1 0x20 ADD SWAP1 DUP2 MSTORE PUSH1 0x20 ADD PUSH0 KECCAK256 PUSH0 SWAP1 SLOAD SWAP1 PUSH2 0x100 EXP SWAP1 DIV PUSH1 0xFF AND DUP1 PUSH2 0xDED JUMPI POP PUSH2 0xDBE PUSH2 0x1313 JUMP JUMPDEST PUSH20 0xFFFFFFFFFFFFFFFFFFFFFFFFFFFFFFFFFFFFFFFF AND CALLER PUSH20 0xFFFFFFFFFFFFFFFFFFFFFFFFFFFFFFFFFFFFFFFF AND EQ JUMPDEST PUSH2 0xE2C JUMPI PUSH1 0x40 MLOAD PUSH32 0x8C379A000000000000000000000000000000000000000000000000000000000 DUP2 MSTORE PUSH1 0x4 ADD PUSH2 0xE23 SWAP1 PUSH2 0x3736 JUMP JUMPDEST PUSH1 0x40 MLOAD DUP1 SWAP2 SUB SWAP1 REVERT JUMPDEST PUSH2 0xE34 PUSH2 0x2A48 JUMP JUMPDEST PUSH2 0xE3C PUSH2 0x29F0 JUMP JUMPDEST DUP3 DUP3 PUSH1 0x3 PUSH0 DUP4 PUSH20 0xFFFFFFFFFFFFFFFFFFFFFFFFFFFFFFFFFFFFFFFF AND PUSH20 0xFFFFFFFFFFFFFFFFFFFFFFFFFFFFFFFFFFFFFFFF AND DUP2 MSTORE PUSH1 0x20 ADD SWAP1 DUP2 MSTORE PUSH1 0x20 ADD PUSH0 KECCAK256 DUP1 SLOAD SWAP1 POP DUP2 LT PUSH2 0xEC0 JUMPI PUSH1 0x40 MLOAD PUSH32 0x8C379A000000000000000000000000000000000000000000000000000000000 DUP2 MSTORE PUSH1 0x4 ADD PUSH2 0xEB7 SWAP1 PUSH2 0x379E JUMP JUMPDEST PUSH1 0x40 MLOAD DUP1 SWAP2 SUB SWAP1 REVERT JUMPDEST PUSH1 0x3 PUSH0 DUP4 PUSH20 0xFFFFFFFFFFFFFFFFFFFFFFFFFFFFFFFFFFFFFFFF AND PUSH20 0xFFFFFFFFFFFFFFFFFFFFFFFFFFFFFFFFFFFFFFFF AND DUP2 MSTORE PUSH1 0x20 ADD SWAP1 DUP2 MSTORE PUSH1 0x20 ADD PUSH0 KECCAK256 DUP2 DUP2 SLOAD DUP2 LT PUSH2 0xF0F JUMPI PUSH2 0xF0E PUSH2 0x36BF JUMP JUMPDEST JUMPDEST SWAP1 PUSH0 MSTORE PUSH1 0x20 PUSH0 KECCAK256 SWAP1 PUSH1 0x5 MUL ADD PUSH1 0x4 ADD PUSH0 SWAP1 SLOAD SWAP1 PUSH2 0x100 EXP SWAP1 DIV PUSH1 0xFF AND PUSH2 0xF6A JUMPI PUSH1 0x40 MLOAD PUSH32 0x8C379A000000000000000000000000000000000000000000000000000000000 DUP2 MSTORE PUSH1 0x4 ADD PUSH2 0xF61 SWAP1 PUSH2 0x3806 JUMP JUMPDEST PUSH1 0x40 MLOAD DUP1 SWAP2 SUB SWAP1 REVERT JUMPDEST PUSH0 PUSH20 0xFFFFFFFFFFFFFFFFFFFFFFFFFFFFFFFFFFFFFFFF AND DUP4 PUSH20 0xFFFFFFFFFFFFFFFFFFFFFFFFFFFFFFFFFFFFFFFF AND SUB PUSH2 0xFD8 JUMPI PUSH1 0x40 MLOAD PUSH32 0x8C379A000000000000000000000000000000000000000000000000000000000 DUP2 MSTORE PUSH1 0x4 ADD PUSH2 0xFCF SWAP1 PUSH2 0x355D JUMP JUMPDEST PUSH1 0x40 MLOAD DUP1 SWAP2 SUB SWAP1 REVERT JUMPDEST PUSH2 0xFE3 DUP6 DUP6 DUP6 PUSH2 0x2A92 JUMP JUMPDEST POP POP PUSH2 0xFED PUSH2 0x2A3F JUMP JUMPDEST POP POP POP JUMP JUMPDEST PUSH2 0xFFA PUSH2 0x2969 JUMP JUMPDEST PUSH1 0x32 DUP2 LT ISZERO DUP1 ISZERO PUSH2 0x100D JUMPI POP PUSH2 0x320 DUP2 GT ISZERO JUMPDEST PUSH2 0x104C JUMPI PUSH1 0x40 MLOAD PUSH32 0x8C379A000000000000000000000000000000000000000000000000000000000 DUP2 MSTORE PUSH1 0x4 ADD PUSH2 0x1043 SWAP1 PUSH2 0x386E JUMP JUMPDEST PUSH1 0x40 MLOAD DUP1 SWAP2 SUB SWAP1 REVERT JUMPDEST PUSH2 0x1054 PUSH2 0x2D71 JUMP JUMPDEST PUSH0 PUSH1 0x7 PUSH1 0x2 ADD SLOAD SWAP1 POP DUP2 PUSH1 0x7 PUSH1 0x2 ADD DUP2 SWAP1 SSTORE POP PUSH32 0x4959AD9023BF5B492922B51FBC7C0B5E5EC66AA39700E0DA6D8AF9B2D430898E DUP2 DUP4 PUSH1 0x40 MLOAD PUSH2 0x1098 SWAP3 SWAP2 SWAP1 PUSH2 0x388C JUMP JUMPDEST PUSH1 0x40 MLOAD DUP1 SWAP2 SUB SWAP1 LOG1 POP POP JUMP JUMPDEST PUSH0 PUSH1 0xD SLOAD SWAP1 POP SWAP1 JUMP JUMPDEST PUSH1 0x32 DUP2 JUMP JUMPDEST PUSH2 0x10BA PUSH2 0x2969 JUMP JUMPDEST PUSH2 0x10C2 PUSH2 0x2E1B JUMP JUMPDEST JUMP JUMPDEST PUSH2 0x10CC PUSH2 0x2969 JUMP JUMPDEST PUSH0 PUSH20 0xFFFFFFFFFFFFFFFFFFFFFFFFFFFFFFFFFFFFFFFF AND DUP3 PUSH20 0xFFFFFFFFFFFFFFFFFFFFFFFFFFFFFFFFFFFFFFFF AND SUB PUSH2 0x113A JUMPI PUSH1 0x40 MLOAD PUSH32 0x8C379A000000000000000000000000000000000000000000000000000000000 DUP2 MSTORE PUSH1 0x4 ADD PUSH2 0x1131 SWAP1 PUSH2 0x38FD JUMP JUMPDEST PUSH1 0x40 MLOAD DUP1 SWAP2 SUB SWAP1 REVERT JUMPDEST DUP1 PUSH1 0xC PUSH0 DUP5 PUSH20 0xFFFFFFFFFFFFFFFFFFFFFFFFFFFFFFFFFFFFFFFF AND PUSH20 0xFFFFFFFFFFFFFFFFFFFFFFFFFFFFFFFFFFFFFFFF AND DUP2 MSTORE PUSH1 0x20 ADD SWAP1 DUP2 MSTORE PUSH1 0x20 ADD PUSH0 KECCAK256 PUSH0 PUSH2 0x100 EXP DUP2 SLOAD DUP2 PUSH1 0xFF MUL NOT AND SWAP1 DUP4 ISZERO ISZERO MUL OR SWAP1 SSTORE POP DUP2 PUSH20 0xFFFFFFFFFFFFFFFFFFFFFFFFFFFFFFFFFFFFFFFF AND PUSH32 0xAD857FA38C9319CB80848F1EF2F924383B90297EB5D71755738FF037D100FAA1 DUP3 PUSH1 0x40 MLOAD PUSH2 0x11D4 SWAP2 SWAP1 PUSH2 0x3355 JUMP JUMPDEST PUSH1 0x40 MLOAD DUP1 SWAP2 SUB SWAP1 LOG2 POP POP JUMP JUMPDEST PUSH2 0x11E8 PUSH2 0x2969 JUMP JUMPDEST PUSH2 0x11F0 PUSH2 0x2E1B JUMP JUMPDEST JUMP JUMPDEST PUSH2 0x11FA PUSH2 0x2969 JUMP JUMPDEST PUSH2 0x1202 PUSH2 0x2E7C JUMP JUMPDEST JUMP JUMPDEST PUSH1 0xC PUSH1 0x20 MSTORE DUP1 PUSH0 MSTORE PUSH1 0x40 PUSH0 KECCAK256 PUSH0 SWAP2 POP SLOAD SWAP1 PUSH2 0x100 EXP SWAP1 DIV PUSH1 0xFF AND DUP2 JUMP JUMPDEST PUSH1 0xE SLOAD DUP2 JUMP JUMPDEST PUSH0 PUSH1 0x2 PUSH0 SWAP1 SLOAD SWAP1 PUSH2 0x100 EXP SWAP1 DIV PUSH1 0xFF AND SWAP1 POP SWAP1 JUMP JUMPDEST PUSH2 0x1244 PUSH2 0x2969 JUMP JUMPDEST PUSH2 0x1F4 DUP2 GT ISZERO PUSH2 0x1289 JUMPI PUSH1 0x40 MLOAD PUSH32 0x8C379A000000000000000000000000000000000000000000000000000000000 DUP2 MSTORE PUSH1 0x4 ADD PUSH2 0x1280 SWAP1 PUSH2 0x3965 JUMP JUMPDEST PUSH1 0x40 MLOAD DUP1 SWAP2 SUB SWAP1 REVERT JUMPDEST PUSH0 PUSH1 0xE SLOAD SWAP1 POP DUP2 PUSH1 0xE DUP2 SWAP1 SSTORE POP PUSH32 0x1D830358C94D390366AD7162B72E731448E195F3576E63B1F57F5E43C719C5AA DUP2 DUP4 PUSH1 0x40 MLOAD PUSH2 0x12C7 SWAP3 SWAP2 SWAP1 PUSH2 0x388C JUMP JUMPDEST PUSH1 0x40 MLOAD DUP1 SWAP2 SUB SWAP1 LOG1 POP POP JUMP JUMPDEST PUSH2 0x320 DUP2 JUMP JUMPDEST PUSH2 0x12E1 PUSH2 0x2969 JUMP JUMPDEST PUSH2 0x12EA PUSH0 PUSH2 0x2EDE JUMP JUMPDEST JUMP JUMPDEST PUSH1 0x5 PUSH1 0x20 MSTORE DUP1 PUSH0 MSTORE PUSH1 0x40 PUSH0 KECCAK256 PUSH0 SWAP2 POP SWAP1 POP SLOAD DUP2 JUMP JUMPDEST PUSH2 0x1309 PUSH2 0x2969 JUMP JUMPDEST PUSH2 0x1311 PUSH2 0x2E7C JUMP JUMPDEST JUMP JUMPDEST PUSH0 PUSH0 PUSH0 SWAP1 SLOAD SWAP1 PUSH2 0x100 EXP SWAP1 DIV PUSH20 0xFFFFFFFFFFFFFFFFFFFFFFFFFFFFFFFFFFFFFFFF AND SWAP1 POP SWAP1 JUMP JUMPDEST PUSH0 PUSH1 0x7 PUSH1 0x2 ADD SLOAD SWAP1 POP SWAP1 JUMP JUMPDEST PUSH1 0x10 PUSH1 0x20 MSTORE DUP1 PUSH0 MSTORE PUSH1 0x40 PUSH0 KECCAK256 PUSH0 SWAP2 POP SWAP1 POP SLOAD DUP2 JUMP JUMPDEST DUP2 DUP2 PUSH1 0x3 PUSH0 DUP4 PUSH20 0xFFFFFFFFFFFFFFFFFFFFFFFFFFFFFFFFFFFFFFFF AND PUSH20 0xFFFFFFFFFFFFFFFFFFFFFFFFFFFFFFFFFFFFFFFF AND DUP2 MSTORE PUSH1 0x20 ADD SWAP1 DUP2 MSTORE PUSH1 0x20 ADD PUSH0 KECCAK256 DUP1 SLOAD SWAP1 POP DUP2 LT PUSH2 0x13DF JUMPI PUSH1 0x40 MLOAD PUSH32 0x8C379A000000000000000000000000000000000000000000000000000000000 DUP2 MSTORE PUSH1 0x4 ADD PUSH2 0x13D6 SWAP1 PUSH2 0x379E JUMP JUMPDEST PUSH1 0x40 MLOAD DUP1 SWAP2 SUB SWAP1 REVERT JUMPDEST PUSH1 0x3 PUSH0 DUP4 PUSH20 0xFFFFFFFFFFFFFFFFFFFFFFFFFFFFFFFFFFFFFFFF AND PUSH20 0xFFFFFFFFFFFFFFFFFFFFFFFFFFFFFFFFFFFFFFFF AND DUP2 MSTORE PUSH1 0x20 ADD SWAP1 DUP2 MSTORE PUSH1 0x20 ADD PUSH0 KECCAK256 DUP2 DUP2 SLOAD DUP2 LT PUSH2 0x142E JUMPI PUSH2 0x142D PUSH2 0x36BF JUMP JUMPDEST JUMPDEST SWAP1 PUSH0 MSTORE PUSH1 0x20 PUSH0 KECCAK256 SWAP1 PUSH1 0x5 MUL ADD PUSH1 0x4 ADD PUSH0 SWAP1 SLOAD SWAP1 PUSH2 0x100 EXP SWAP1 DIV PUSH1 0xFF AND PUSH2 0x1489 JUMPI PUSH1 0x40 MLOAD PUSH32 0x8C379A000000000000000000000000000000000000000000000000000000000 DUP2 MSTORE PUSH1 0x4 ADD PUSH2 0x1480 SWAP1 PUSH2 0x3806 JUMP JUMPDEST PUSH1 0x40 MLOAD DUP1 SWAP2 SUB SWAP1 REVERT JUMPDEST PUSH0 PUSH1 0x3 PUSH0 DUP7 PUSH20 0xFFFFFFFFFFFFFFFFFFFFFFFFFFFFFFFFFFFFFFFF AND PUSH20 0xFFFFFFFFFFFFFFFFFFFFFFFFFFFFFFFFFFFFFFFF AND DUP2 MSTORE PUSH1 0x20 ADD SWAP1 DUP2 MSTORE PUSH1 0x20 ADD PUSH0 KECCAK256 DUP5 DUP2 SLOAD DUP2 LT PUSH2 0x14D9 JUMPI PUSH2 0x14D8 PUSH2 0x36BF JUMP JUMPDEST JUMPDEST SWAP1 PUSH0 MSTORE PUSH1 0x20 PUSH0 KECCAK256 SWAP1 PUSH1 0x5 MUL ADD SWAP1 POP PUSH0 PUSH2 0x14F2 DUP7 DUP7 PUSH2 0x2889 JUMP JUMPDEST SWAP1 POP DUP1 DUP3 PUSH1 0x1 ADD PUSH0 DUP3 DUP3 SLOAD PUSH2 0x1507 SWAP2 SWAP1 PUSH2 0x3051 JUMP JUMPDEST SWAP3 POP POP DUP2 SWAP1 SSTORE POP TIMESTAMP DUP3 PUSH1 0x2 ADD DUP2 SWAP1 SSTORE POP DUP1 PUSH1 0x7 PUSH1 0x1 ADD PUSH0 DUP3 DUP3 SLOAD PUSH2 0x152B SWAP2 SWAP1 PUSH2 0x3051 JUMP JUMPDEST SWAP3 POP POP DUP2 SWAP1 SSTORE POP DUP6 PUSH20 0xFFFFFFFFFFFFFFFFFFFFFFFFFFFFFFFFFFFFFFFF AND PUSH32 0xACED61C86C507AA3C2BE43553434C6FF191EA7CBBD812491A6AE59ABC99D29DC DUP3 DUP8 PUSH1 0x40 MLOAD PUSH2 0x157A SWAP3 SWAP2 SWAP1 PUSH2 0x388C JUMP JUMPDEST PUSH1 0x40 MLOAD DUP1 SWAP2 SUB SWAP1 LOG2 POP POP POP POP POP POP JUMP JUMPDEST PUSH1 0xF SLOAD DUP2 JUMP JUMPDEST PUSH1 0x3 PUSH1 0x20 MSTORE DUP2 PUSH0 MSTORE PUSH1 0x40 PUSH0 KECCAK256 DUP2 DUP2 SLOAD DUP2 LT PUSH2 0x15A9 JUMPI PUSH0 DUP1 REVERT JUMPDEST SWAP1 PUSH0 MSTORE PUSH1 0x20 PUSH0 KECCAK256 SWAP1 PUSH1 0x5 MUL ADD PUSH0 SWAP2 POP SWAP2 POP POP DUP1 PUSH0 ADD SLOAD SWAP1 DUP1 PUSH1 0x1 ADD SLOAD SWAP1 DUP1 PUSH1 0x2 ADD SLOAD SWAP1 DUP1 PUSH1 0x3 ADD SLOAD SWAP1 DUP1 PUSH1 0x4 ADD PUSH0 SWAP1 SLOAD SWAP1 PUSH2 0x100 EXP SWAP1 DIV PUSH1 0xFF AND SWAP1 POP DUP6 JUMP JUMPDEST PUSH1 0xC PUSH0 CALLER PUSH20 0xFFFFFFFFFFFFFFFFFFFFFFFFFFFFFFFFFFFFFFFF AND PUSH20 0xFFFFFFFFFFFFFFFFFFFFFFFFFFFFFFFFFFFFFFFF AND DUP2 MSTORE PUSH1 0x20 ADD SWAP1 DUP2 MSTORE PUSH1 0x20 ADD PUSH0 KECCAK256 PUSH0 SWAP1 SLOAD SWAP1 PUSH2 0x100 EXP SWAP1 DIV PUSH1 0xFF AND DUP1 PUSH2 0x166F JUMPI POP PUSH2 0x1640 PUSH2 0x1313 JUMP JUMPDEST PUSH20 0xFFFFFFFFFFFFFFFFFFFFFFFFFFFFFFFFFFFFFFFF AND CALLER PUSH20 0xFFFFFFFFFFFFFFFFFFFFFFFFFFFFFFFFFFFFFFFF AND EQ JUMPDEST PUSH2 0x16AE JUMPI PUSH1 0x40 MLOAD PUSH32 0x8C379A000000000000000000000000000000000000000000000000000000000 DUP2 MSTORE PUSH1 0x4 ADD PUSH2 0x16A5 SWAP1 PUSH2 0x3736 JUMP JUMPDEST PUSH1 0x40 MLOAD DUP1 SWAP2 SUB SWAP1 REVERT JUMPDEST PUSH2 0x16B6 PUSH2 0x29F0 JUMP JUMPDEST PUSH0 PUSH1 0xD SLOAD GT PUSH2 0x16FA JUMPI PUSH1 0x40 MLOAD PUSH32 0x8C379A000000000000000000000000000000000000000000000000000000000 DUP2 MSTORE PUSH1 0x4 ADD PUSH2 0x16F1 SWAP1 PUSH2 0x39CD JUMP JUMPDEST PUSH1 0x40 MLOAD DUP1 SWAP2 SUB SWAP1 REVERT JUMPDEST PUSH0 PUSH1 0x7 PUSH0 ADD SLOAD GT PUSH2 0x1740 JUMPI PUSH1 0x40 MLOAD PUSH32 0x8C379A000000000000000000000000000000000000000000000000000000000 DUP2 MSTORE PUSH1 0x4 ADD PUSH2 0x1737 SWAP1 PUSH2 0x3A35 JUMP JUMPDEST PUSH1 0x40 MLOAD DUP1 SWAP2 SUB SWAP1 REVERT JUMPDEST PUSH0 PUSH1 0xD SLOAD SWAP1 POP PUSH0 PUSH1 0xD DUP2 SWAP1 SSTORE POP DUP1 PUSH1 0x7 PUSH1 0x1 ADD PUSH0 DUP3 DUP3 SLOAD PUSH2 0x1761 SWAP2 SWAP1 PUSH2 0x3051 JUMP JUMPDEST SWAP3 POP POP DUP2 SWAP1 SSTORE POP POP PUSH2 0x1771 PUSH2 0x2A3F JUMP JUMPDEST JUMP JUMPDEST PUSH1 0xC PUSH0 CALLER PUSH20 0xFFFFFFFFFFFFFFFFFFFFFFFFFFFFFFFFFFFFFFFF AND PUSH20 0xFFFFFFFFFFFFFFFFFFFFFFFFFFFFFFFFFFFFFFFF AND DUP2 MSTORE PUSH1 0x20 ADD SWAP1 DUP2 MSTORE PUSH1 0x20 ADD PUSH0 KECCAK256 PUSH0 SWAP1 SLOAD SWAP1 PUSH2 0x100 EXP SWAP1 DIV PUSH1 0xFF AND DUP1 PUSH2 0x17FA JUMPI POP PUSH2 0x17CB PUSH2 0x1313 JUMP JUMPDEST PUSH20 0xFFFFFFFFFFFFFFFFFFFFFFFFFFFFFFFFFFFFFFFF AND CALLER PUSH20 0xFFFFFFFFFFFFFFFFFFFFFFFFFFFFFFFFFFFFFFFF AND EQ JUMPDEST PUSH2 0x1839 JUMPI PUSH1 0x40 MLOAD PUSH32 0x8C379A000000000000000000000000000000000000000000000000000000000 DUP2 MSTORE PUSH1 0x4 ADD PUSH2 0x1830 SWAP1 PUSH2 0x3736 JUMP JUMPDEST PUSH1 0x40 MLOAD DUP1 SWAP2 SUB SWAP1 REVERT JUMPDEST PUSH2 0x1841 PUSH2 0x2A48 JUMP JUMPDEST PUSH2 0x1849 PUSH2 0x29F0 JUMP JUMPDEST PUSH0 PUSH20 0xFFFFFFFFFFFFFFFFFFFFFFFFFFFFFFFFFFFFFFFF AND DUP3 PUSH20 0xFFFFFFFFFFFFFFFFFFFFFFFFFFFFFFFFFFFFFFFF AND SUB PUSH2 0x18B7 JUMPI PUSH1 0x40 MLOAD PUSH32 0x8C379A000000000000000000000000000000000000000000000000000000000 DUP2 MSTORE PUSH1 0x4 ADD PUSH2 0x18AE SWAP1 PUSH2 0x3A9D JUMP JUMPDEST PUSH1 0x40 MLOAD DUP1 SWAP2 SUB SWAP1 REVERT JUMPDEST PUSH7 0x38D7EA4C68000 CALLVALUE LT ISZERO PUSH2 0x1901 JUMPI PUSH1 0x40 MLOAD PUSH32 0x8C379A000000000000000000000000000000000000000000000000000000000 DUP2 MSTORE PUSH1 0x4 ADD PUSH2 0x18F8 SWAP1 PUSH2 0x3B05 JUMP JUMPDEST PUSH1 0x40 MLOAD DUP1 SWAP2 SUB SWAP1 REVERT JUMPDEST PUSH2 0x1909 PUSH2 0x2D71 JUMP JUMPDEST PUSH0 PUSH1 0x40 MLOAD DUP1 PUSH1 0xA0 ADD PUSH1 0x40 MSTORE DUP1 CALLVALUE DUP2 MSTORE PUSH1 0x20 ADD PUSH0 DUP2 MSTORE PUSH1 0x20 ADD TIMESTAMP DUP2 MSTORE PUSH1 0x20 ADD DUP4 DUP2 MSTORE PUSH1 0x20 ADD PUSH1 0x1 ISZERO ISZERO DUP2 MSTORE POP SWAP1 POP PUSH1 0x3 PUSH0 DUP5 PUSH20 0xFFFFFFFFFFFFFFFFFFFFFFFFFFFFFFFFFFFFFFFF AND PUSH20 0xFFFFFFFFFFFFFFFFFFFFFFFFFFFFFFFFFFFFFFFF AND DUP2 MSTORE PUSH1 0x20 ADD SWAP1 DUP2 MSTORE PUSH1 0x20 ADD PUSH0 KECCAK256 DUP2 SWAP1 DUP1 PUSH1 0x1 DUP2 SLOAD ADD DUP1 DUP3 SSTORE DUP1 SWAP2 POP POP PUSH1 0x1 SWAP1 SUB SWAP1 PUSH0 MSTORE PUSH1 0x20 PUSH0 KECCAK256 SWAP1 PUSH1 0x5 MUL ADD PUSH0 SWAP1 SWAP2 SWAP1 SWAP2 SWAP1 SWAP2 POP PUSH0 DUP3 ADD MLOAD DUP2 PUSH0 ADD SSTORE PUSH1 0x20 DUP3 ADD MLOAD DUP2 PUSH1 0x1 ADD SSTORE PUSH1 0x40 DUP3 ADD MLOAD DUP2 PUSH1 0x2 ADD SSTORE PUSH1 0x60 DUP3 ADD MLOAD DUP2 PUSH1 0x3 ADD SSTORE PUSH1 0x80 DUP3 ADD MLOAD DUP2 PUSH1 0x4 ADD PUSH0 PUSH2 0x100 EXP DUP2 SLOAD DUP2 PUSH1 0xFF MUL NOT AND SWAP1 DUP4 ISZERO ISZERO MUL OR SWAP1 SSTORE POP POP POP PUSH0 PUSH1 0x1 PUSH1 0x3 PUSH0 DUP7 PUSH20 0xFFFFFFFFFFFFFFFFFFFFFFFFFFFFFFFFFFFFFFFF AND PUSH20 0xFFFFFFFFFFFFFFFFFFFFFFFFFFFFFFFFFFFFFFFF AND DUP2 MSTORE PUSH1 0x20 ADD SWAP1 DUP2 MSTORE PUSH1 0x20 ADD PUSH0 KECCAK256 DUP1 SLOAD SWAP1 POP PUSH2 0x1A2F SWAP2 SWAP1 PUSH2 0x35E3 JUMP JUMPDEST SWAP1 POP PUSH0 DUP4 GT ISZERO PUSH2 0x1AE0 JUMPI PUSH1 0x4 PUSH0 DUP5 DUP2 MSTORE PUSH1 0x20 ADD SWAP1 DUP2 MSTORE PUSH1 0x20 ADD PUSH0 KECCAK256 DUP3 SWAP1 DUP1 PUSH1 0x1 DUP2 SLOAD ADD DUP1 DUP3 SSTORE DUP1 SWAP2 POP POP PUSH1 0x1 SWAP1 SUB SWAP1 PUSH0 MSTORE PUSH1 0x20 PUSH0 KECCAK256 SWAP1 PUSH1 0x5 MUL ADD PUSH0 SWAP1 SWAP2 SWAP1 SWAP2 SWAP1 SWAP2 POP PUSH0 DUP3 ADD MLOAD DUP2 PUSH0 ADD SSTORE PUSH1 0x20 DUP3 ADD MLOAD DUP2 PUSH1 0x1 ADD SSTORE PUSH1 0x40 DUP3 ADD MLOAD DUP2 PUSH1 0x2 ADD SSTORE PUSH1 0x60 DUP3 ADD MLOAD DUP2 PUSH1 0x3 ADD SSTORE PUSH1 0x80 DUP3 ADD MLOAD DUP2 PUSH1 0x4 ADD PUSH0 PUSH2 0x100 EXP DUP2 SLOAD DUP2 PUSH1 0xFF MUL NOT AND SWAP1 DUP4 ISZERO ISZERO MUL OR SWAP1 SSTORE POP POP POP CALLVALUE PUSH1 0x6 PUSH0 DUP6 DUP2 MSTORE PUSH1 0x20 ADD SWAP1 DUP2 MSTORE PUSH1 0x20 ADD PUSH0 KECCAK256 PUSH0 DUP3 DUP3 SLOAD PUSH2 0x1AD8 SWAP2 SWAP1 PUSH2 0x3051 JUMP JUMPDEST SWAP3 POP POP DUP2 SWAP1 SSTORE POP JUMPDEST CALLVALUE PUSH1 0x5 PUSH0 DUP7 PUSH20 0xFFFFFFFFFFFFFFFFFFFFFFFFFFFFFFFFFFFFFFFF AND PUSH20 0xFFFFFFFFFFFFFFFFFFFFFFFFFFFFFFFFFFFFFFFF AND DUP2 MSTORE PUSH1 0x20 ADD SWAP1 DUP2 MSTORE PUSH1 0x20 ADD PUSH0 KECCAK256 PUSH0 DUP3 DUP3 SLOAD PUSH2 0x1B2C SWAP2 SWAP1 PUSH2 0x3051 JUMP JUMPDEST SWAP3 POP POP DUP2 SWAP1 SSTORE POP CALLVALUE PUSH1 0x7 PUSH0 ADD PUSH0 DUP3 DUP3 SLOAD PUSH2 0x1B46 SWAP2 SWAP1 PUSH2 0x3051 JUMP JUMPDEST SWAP3 POP POP DUP2 SWAP1 SSTORE POP PUSH1 0x1 PUSH1 0x7 PUSH1 0x4 ADD PUSH0 DUP3 DUP3 SLOAD PUSH2 0x1B62 SWAP2 SWAP1 PUSH2 0x3051 JUMP JUMPDEST SWAP3 POP POP DUP2 SWAP1 SSTORE POP DUP4 PUSH20 0xFFFFFFFFFFFFFFFFFFFFFFFFFFFFFFFFFFFFFFFF AND PUSH32 0x55B223C72892936A872C1F417E7E143A0592419FE999642DBB4BCCB55B8C6E83 CALLVALUE DUP6 DUP5 PUSH1 0x40 MLOAD PUSH2 0x1BB3 SWAP4 SWAP3 SWAP2 SWAP1 PUSH2 0x3B23 JUMP JUMPDEST PUSH1 0x40 MLOAD DUP1 SWAP2 SUB SWAP1 LOG2 POP POP PUSH2 0x1BC5 PUSH2 0x2A3F JUMP JUMPDEST POP POP JUMP JUMPDEST PUSH1 0xC PUSH0 CALLER PUSH20 0xFFFFFFFFFFFFFFFFFFFFFFFFFFFFFFFFFFFFFFFF AND PUSH20 0xFFFFFFFFFFFFFFFFFFFFFFFFFFFFFFFFFFFFFFFF AND DUP2 MSTORE PUSH1 0x20 ADD SWAP1 DUP2 MSTORE PUSH1 0x20 ADD PUSH0 KECCAK256 PUSH0 SWAP1 SLOAD SWAP1 PUSH2 0x100 EXP SWAP1 DIV PUSH1 0xFF AND DUP1 PUSH2 0x1C50 JUMPI POP PUSH2 0x1C21 PUSH2 0x1313 JUMP JUMPDEST PUSH20 0xFFFFFFFFFFFFFFFFFFFFFFFFFFFFFFFFFFFFFFFF AND CALLER PUSH20 0xFFFFFFFFFFFFFFFFFFFFFFFFFFFFFFFFFFFFFFFF AND EQ JUMPDEST PUSH2 0x1C8F JUMPI PUSH1 0x40 MLOAD PUSH32 0x8C379A000000000000000000000000000000000000000000000000000000000 DUP2 MSTORE PUSH1 0x4 ADD PUSH2 0x1C86 SWAP1 PUSH2 0x3736 JUMP JUMPDEST PUSH1 0x40 MLOAD DUP1 SWAP2 SUB SWAP1 REVERT JUMPDEST PUSH0 CALLVALUE GT PUSH2 0x1CD1 JUMPI PUSH1 0x40 MLOAD PUSH32 0x8C379A000000000000000000000000000000000000000000000000000000000 DUP2 MSTORE PUSH1 0x4 ADD PUSH2 0x1CC8 SWAP1 PUSH2 0x3BA2 JUMP JUMPDEST PUSH1 0x40 MLOAD DUP1 SWAP2 SUB SWAP1 REVERT JUMPDEST CALLVALUE PUSH1 0xD PUSH0 DUP3 DUP3 SLOAD PUSH2 0x1CE2 SWAP2 SWAP1 PUSH2 0x3051 JUMP JUMPDEST SWAP3 POP POP DUP2 SWAP1 SSTORE POP PUSH32 0xFD89F3716628D726D771436AEF1A2B241477089ECDEA8429F2DCDF2F2106C4A4 CALLVALUE PUSH1 0x40 MLOAD PUSH2 0x1D18 SWAP2 SWAP1 PUSH2 0x3093 JUMP JUMPDEST PUSH1 0x40 MLOAD DUP1 SWAP2 SUB SWAP1 LOG1 JUMP JUMPDEST TIMESTAMP PUSH1 0x10 PUSH0 CALLER PUSH20 0xFFFFFFFFFFFFFFFFFFFFFFFFFFFFFFFFFFFFFFFF AND PUSH20 0xFFFFFFFFFFFFFFFFFFFFFFFFFFFFFFFFFFFFFFFF AND DUP2 MSTORE PUSH1 0x20 ADD SWAP1 DUP2 MSTORE PUSH1 0x20 ADD PUSH0 KECCAK256 DUP2 SWAP1 SSTORE POP CALLER PUSH20 0xFFFFFFFFFFFFFFFFFFFFFFFFFFFFFFFFFFFFFFFF AND PUSH32 0xDCBF58B4B48819C95C8100C354FFDC3633D192E7C3EEBFB025492DE8C9226B11 TIMESTAMP PUSH1 0x40 MLOAD PUSH2 0x1DAA SWAP2 SWAP1 PUSH2 0x3093 JUMP JUMPDEST PUSH1 0x40 MLOAD DUP1 SWAP2 SUB SWAP1 LOG2 JUMP JUMPDEST PUSH2 0x1DBC PUSH2 0x2FEF JUMP JUMPDEST PUSH1 0x3 PUSH0 DUP5 PUSH20 0xFFFFFFFFFFFFFFFFFFFFFFFFFFFFFFFFFFFFFFFF AND PUSH20 0xFFFFFFFFFFFFFFFFFFFFFFFFFFFFFFFFFFFFFFFF AND DUP2 MSTORE PUSH1 0x20 ADD SWAP1 DUP2 MSTORE PUSH1 0x20 ADD PUSH0 KECCAK256 DUP1 SLOAD SWAP1 POP DUP3 LT PUSH2 0x1E3E JUMPI PUSH1 0x40 MLOAD PUSH32 0x8C379A000000000000000000000000000000000000000000000000000000000 DUP2 MSTORE PUSH1 0x4 ADD PUSH2 0x1E35 SWAP1 PUSH2 0x379E JUMP JUMPDEST PUSH1 0x40 MLOAD DUP1 SWAP2 SUB SWAP1 REVERT JUMPDEST PUSH1 0x3 PUSH0 DUP5 PUSH20 0xFFFFFFFFFFFFFFFFFFFFFFFFFFFFFFFFFFFFFFFF AND PUSH20 0xFFFFFFFFFFFFFFFFFFFFFFFFFFFFFFFFFFFFFFFF AND DUP2 MSTORE PUSH1 0x20 ADD SWAP1 DUP2 MSTORE PUSH1 0x20 ADD PUSH0 KECCAK256 DUP3 DUP2 SLOAD DUP2 LT PUSH2 0x1E8D JUMPI PUSH2 0x1E8C PUSH2 0x36BF JUMP JUMPDEST JUMPDEST SWAP1 PUSH0 MSTORE PUSH1 0x20 PUSH0 KECCAK256 SWAP1 PUSH1 0x5 MUL ADD PUSH1 0x40 MLOAD DUP1 PUSH1 0xA0 ADD PUSH1 0x40 MSTORE SWAP1 DUP2 PUSH0 DUP3 ADD SLOAD DUP2 MSTORE PUSH1 0x20 ADD PUSH1 0x1 DUP3 ADD SLOAD DUP2 MSTORE PUSH1 0x20 ADD PUSH1 0x2 DUP3 ADD SLOAD DUP2 MSTORE PUSH1 0x20 ADD PUSH1 0x3 DUP3 ADD SLOAD DUP2 MSTORE PUSH1 0x20 ADD PUSH1 0x4 DUP3 ADD PUSH0 SWAP1 SLOAD SWAP1 PUSH2 0x100 EXP SWAP1 DIV PUSH1 0xFF AND ISZERO ISZERO ISZERO ISZERO DUP2 MSTORE POP POP SWAP1 POP SWAP3 SWAP2 POP POP JUMP JUMPDEST PUSH1 0x4 PUSH1 0x20 MSTORE DUP2 PUSH0 MSTORE PUSH1 0x40 PUSH0 KECCAK256 DUP2 DUP2 SLOAD DUP2 LT PUSH2 0x1F06 JUMPI PUSH0 DUP1 REVERT JUMPDEST SWAP1 PUSH0 MSTORE PUSH1 0x20 PUSH0 KECCAK256 SWAP1 PUSH1 0x5 MUL ADD PUSH0 SWAP2 POP SWAP2 POP POP DUP1 PUSH0 ADD SLOAD SWAP1 DUP1 PUSH1 0x1 ADD SLOAD SWAP1 DUP1 PUSH1 0x2 ADD SLOAD SWAP1 DUP1 PUSH1 0x3 ADD SLOAD SWAP1 DUP1 PUSH1 0x4 ADD PUSH0 SWAP1 SLOAD SWAP1 PUSH2 0x100 EXP SWAP1 DIV PUSH1 0xFF AND SWAP1 POP DUP6 JUMP JUMPDEST PUSH2 0x2710 DUP2 JUMP JUMPDEST PUSH1 0x7 DUP1 PUSH0 ADD SLOAD SWAP1 DUP1 PUSH1 0x1 ADD SLOAD SWAP1 DUP1 PUSH1 0x2 ADD SLOAD SWAP1 DUP1 PUSH1 0x3 ADD SLOAD SWAP1 DUP1 PUSH1 0x4 ADD SLOAD SWAP1 POP DUP6 JUMP JUMPDEST PUSH2 0x1F76 PUSH2 0x2A48 JUMP JUMPDEST PUSH2 0x1F7E PUSH2 0x29F0 JUMP JUMPDEST CALLER DUP2 PUSH1 0x3 PUSH0 DUP4 PUSH20 0xFFFFFFFFFFFFFFFFFFFFFFFFFFFFFFFFFFFFFFFF AND PUSH20 0xFFFFFFFFFFFFFFFFFFFFFFFFFFFFFFFFFFFFFFFF AND DUP2 MSTORE PUSH1 0x20 ADD SWAP1 DUP2 MSTORE PUSH1 0x20 ADD PUSH0 KECCAK256 DUP1 SLOAD SWAP1 POP DUP2 LT PUSH2 0x2002 JUMPI PUSH1 0x40 MLOAD PUSH32 0x8C379A000000000000000000000000000000000000000000000000000000000 DUP2 MSTORE PUSH1 0x4 ADD PUSH2 0x1FF9 SWAP1 PUSH2 0x379E JUMP JUMPDEST PUSH1 0x40 MLOAD DUP1 SWAP2 SUB SWAP1 REVERT JUMPDEST PUSH1 0x3 PUSH0 DUP4 PUSH20 0xFFFFFFFFFFFFFFFFFFFFFFFFFFFFFFFFFFFFFFFF AND PUSH20 0xFFFFFFFFFFFFFFFFFFFFFFFFFFFFFFFFFFFFFFFF AND DUP2 MSTORE PUSH1 0x20 ADD SWAP1 DUP2 MSTORE PUSH1 0x20 ADD PUSH0 KECCAK256 DUP2 DUP2 SLOAD DUP2 LT PUSH2 0x2051 JUMPI PUSH2 0x2050 PUSH2 0x36BF JUMP JUMPDEST JUMPDEST SWAP1 PUSH0 MSTORE PUSH1 0x20 PUSH0 KECCAK256 SWAP1 PUSH1 0x5 MUL ADD PUSH1 0x4 ADD PUSH0 SWAP1 SLOAD SWAP1 PUSH2 0x100 EXP SWAP1 DIV PUSH1 0xFF AND PUSH2 0x20AC JUMPI PUSH1 0x40 MLOAD PUSH32 0x8C379A000000000000000000000000000000000000000000000000000000000 DUP2 MSTORE PUSH1 0x4 ADD PUSH2 0x20A3 SWAP1 PUSH2 0x3806 JUMP JUMPDEST PUSH1 0x40 MLOAD DUP1 SWAP2 SUB SWAP1 REVERT JUMPDEST PUSH2 0x20B7 CALLER DUP5 CALLER PUSH2 0x2A92 JUMP JUMPDEST POP POP PUSH2 0x20C1 PUSH2 0x2A3F JUMP JUMPDEST POP JUMP JUMPDEST PUSH1 0x6 PUSH1 0x20 MSTORE DUP1 PUSH0 MSTORE PUSH1 0x40 PUSH0 KECCAK256 PUSH0 SWAP2 POP SWAP1 POP SLOAD DUP2 JUMP JUMPDEST PUSH2 0x20E1 PUSH2 0x2969 JUMP JUMPDEST PUSH0 PUSH20 0xFFFFFFFFFFFFFFFFFFFFFFFFFFFFFFFFFFFFFFFF AND DUP2 PUSH20 0xFFFFFFFFFFFFFFFFFFFFFFFFFFFFFFFFFFFFFFFF AND SUB PUSH2 0x2151 JUMPI PUSH0 PUSH1 0x40 MLOAD PUSH32 0x1E4FBDF700000000000000000000000000000000000000000000000000000000 DUP2 MSTORE PUSH1 0x4 ADD PUSH2 0x2148 SWAP2 SWAP1 PUSH2 0x337D JUMP JUMPDEST PUSH1 0x40 MLOAD DUP1 SWAP2 SUB SWAP1 REVERT JUMPDEST PUSH2 0x215A DUP2 PUSH2 0x2EDE JUMP JUMPDEST POP JUMP JUMPDEST PUSH2 0x2165 PUSH2 0x29F0 JUMP JUMPDEST PUSH0 PUSH1 0x10 PUSH0 CALLER PUSH20 0xFFFFFFFFFFFFFFFFFFFFFFFFFFFFFFFFFFFFFFFF AND PUSH20 0xFFFFFFFFFFFFFFFFFFFFFFFFFFFFFFFFFFFFFFFF AND DUP2 MSTORE PUSH1 0x20 ADD SWAP1 DUP2 MSTORE PUSH1 0x20 ADD PUSH0 KECCAK256 SLOAD GT DUP1 ISZERO PUSH2 0x21FB JUMPI POP PUSH1 0xF SLOAD PUSH1 0x10 PUSH0 CALLER PUSH20 0xFFFFFFFFFFFFFFFFFFFFFFFFFFFFFFFFFFFFFFFF AND PUSH20 0xFFFFFFFFFFFFFFFFFFFFFFFFFFFFFFFFFFFFFFFF AND DUP2 MSTORE PUSH1 0x20 ADD SWAP1 DUP2 MSTORE PUSH1 0x20 ADD PUSH0 KECCAK256 SLOAD PUSH2 0x21F7 SWAP2 SWAP1 PUSH2 0x3051 JUMP JUMPDEST TIMESTAMP LT ISZERO JUMPDEST PUSH2 0x223A JUMPI PUSH1 0x40 MLOAD PUSH32 0x8C379A000000000000000000000000000000000000000000000000000000000 DUP2 MSTORE PUSH1 0x4 ADD PUSH2 0x2231 SWAP1 PUSH2 0x3C0A JUMP JUMPDEST PUSH1 0x40 MLOAD DUP1 SWAP2 SUB SWAP1 REVERT JUMPDEST PUSH0 PUSH1 0x5 PUSH0 CALLER PUSH20 0xFFFFFFFFFFFFFFFFFFFFFFFFFFFFFFFFFFFFFFFF AND PUSH20 0xFFFFFFFFFFFFFFFFFFFFFFFFFFFFFFFFFFFFFFFF AND DUP2 MSTORE PUSH1 0x20 ADD SWAP1 DUP2 MSTORE PUSH1 0x20 ADD PUSH0 KECCAK256 SLOAD SWAP1 POP PUSH0 DUP2 GT PUSH2 0x22BD JUMPI PUSH1 0x40 MLOAD PUSH32 0x8C379A000000000000000000000000000000000000000000000000000000000 DUP2 MSTORE PUSH1 0x4 ADD PUSH2 0x22B4 SWAP1 PUSH2 0x3C72 JUMP JUMPDEST PUSH1 0x40 MLOAD DUP1 SWAP2 SUB SWAP1 REVERT JUMPDEST PUSH0 PUSH1 0x3 PUSH0 CALLER PUSH20 0xFFFFFFFFFFFFFFFFFFFFFFFFFFFFFFFFFFFFFFFF AND PUSH20 0xFFFFFFFFFFFFFFFFFFFFFFFFFFFFFFFFFFFFFFFF AND DUP2 MSTORE PUSH1 0x20 ADD SWAP1 DUP2 MSTORE PUSH1 0x20 ADD PUSH0 KECCAK256 SWAP1 POP PUSH0 PUSH0 SWAP1 POP JUMPDEST DUP2 DUP1 SLOAD SWAP1 POP DUP2 LT ISZERO PUSH2 0x23E0 JUMPI DUP2 DUP2 DUP2 SLOAD DUP2 LT PUSH2 0x2321 JUMPI PUSH2 0x2320 PUSH2 0x36BF JUMP JUMPDEST JUMPDEST SWAP1 PUSH0 MSTORE PUSH1 0x20 PUSH0 KECCAK256 SWAP1 PUSH1 0x5 MUL ADD PUSH1 0x4 ADD PUSH0 SWAP1 SLOAD SWAP1 PUSH2 0x100 EXP SWAP1 DIV PUSH1 0xFF AND ISZERO PUSH2 0x23D3 JUMPI PUSH0 DUP3 DUP3 DUP2 SLOAD DUP2 LT PUSH2 0x2356 JUMPI PUSH2 0x2355 PUSH2 0x36BF JUMP JUMPDEST JUMPDEST SWAP1 PUSH0 MSTORE PUSH1 0x20 PUSH0 KECCAK256 SWAP1 PUSH1 0x5 MUL ADD PUSH1 0x4 ADD PUSH0 PUSH2 0x100 EXP DUP2 SLOAD DUP2 PUSH1 0xFF MUL NOT AND SWAP1 DUP4 ISZERO ISZERO MUL OR SWAP1 SSTORE POP DUP2 DUP2 DUP2 SLOAD DUP2 LT PUSH2 0x238E JUMPI PUSH2 0x238D PUSH2 0x36BF JUMP JUMPDEST JUMPDEST SWAP1 PUSH0 MSTORE PUSH1 0x20 PUSH0 KECCAK256 SWAP1 PUSH1 0x5 MUL ADD PUSH0 ADD SLOAD PUSH1 0x7 PUSH0 ADD PUSH0 DUP3 DUP3 SLOAD PUSH2 0x23AF SWAP2 SWAP1 PUSH2 0x35E3 JUMP JUMPDEST SWAP3 POP POP DUP2 SWAP1 SSTORE POP PUSH1 0x1 PUSH1 0x7 PUSH1 0x4 ADD PUSH0 DUP3 DUP3 SLOAD PUSH2 0x23CB SWAP2 SWAP1 PUSH2 0x35E3 JUMP JUMPDEST SWAP3 POP POP DUP2 SWAP1 SSTORE POP JUMPDEST DUP1 DUP1 PUSH1 0x1 ADD SWAP2 POP POP PUSH2 0x2302 JUMP JUMPDEST POP PUSH0 PUSH1 0x5 PUSH0 CALLER PUSH20 0xFFFFFFFFFFFFFFFFFFFFFFFFFFFFFFFFFFFFFFFF AND PUSH20 0xFFFFFFFFFFFFFFFFFFFFFFFFFFFFFFFFFFFFFFFF AND DUP2 MSTORE PUSH1 0x20 ADD SWAP1 DUP2 MSTORE PUSH1 0x20 ADD PUSH0 KECCAK256 DUP2 SWAP1 SSTORE POP PUSH0 PUSH1 0x10 PUSH0 CALLER PUSH20 0xFFFFFFFFFFFFFFFFFFFFFFFFFFFFFFFFFFFFFFFF AND PUSH20 0xFFFFFFFFFFFFFFFFFFFFFFFFFFFFFFFFFFFFFFFF AND DUP2 MSTORE PUSH1 0x20 ADD SWAP1 DUP2 MSTORE PUSH1 0x20 ADD PUSH0 KECCAK256 DUP2 SWAP1 SSTORE POP PUSH0 CALLER PUSH20 0xFFFFFFFFFFFFFFFFFFFFFFFFFFFFFFFFFFFFFFFF AND DUP4 PUSH1 0x40 MLOAD PUSH2 0x248A SWAP1 PUSH2 0x3643 JUMP JUMPDEST PUSH0 PUSH1 0x40 MLOAD DUP1 DUP4 SUB DUP2 DUP6 DUP8 GAS CALL SWAP3 POP POP POP RETURNDATASIZE DUP1 PUSH0 DUP2 EQ PUSH2 0x24C4 JUMPI PUSH1 0x40 MLOAD SWAP2 POP PUSH1 0x1F NOT PUSH1 0x3F RETURNDATASIZE ADD AND DUP3 ADD PUSH1 0x40 MSTORE RETURNDATASIZE DUP3 MSTORE RETURNDATASIZE PUSH0 PUSH1 0x20 DUP5 ADD RETURNDATACOPY PUSH2 0x24C9 JUMP JUMPDEST PUSH1 0x60 SWAP2 POP JUMPDEST POP POP SWAP1 POP DUP1 PUSH2 0x250D JUMPI PUSH1 0x40 MLOAD PUSH32 0x8C379A000000000000000000000000000000000000000000000000000000000 DUP2 MSTORE PUSH1 0x4 ADD PUSH2 0x2504 SWAP1 PUSH2 0x3CDA JUMP JUMPDEST PUSH1 0x40 MLOAD DUP1 SWAP2 SUB SWAP1 REVERT JUMPDEST CALLER PUSH20 0xFFFFFFFFFFFFFFFFFFFFFFFFFFFFFFFFFFFFFFFF AND PUSH32 0xAF6E7D750E5A786A0B4D0E00806A5F778D09769D9C8C0EE377CC6DF72AF07115 DUP5 PUSH1 0x40 MLOAD PUSH2 0x2553 SWAP2 SWAP1 PUSH2 0x3093 JUMP JUMPDEST PUSH1 0x40 MLOAD DUP1 SWAP2 SUB SWAP1 LOG2 POP POP POP PUSH2 0x2566 PUSH2 0x2A3F JUMP JUMPDEST JUMP JUMPDEST PUSH2 0x2570 PUSH2 0x2A48 JUMP JUMPDEST PUSH2 0x2578 PUSH2 0x29F0 JUMP JUMPDEST PUSH7 0x38D7EA4C68000 CALLVALUE LT ISZERO PUSH2 0x25C2 JUMPI PUSH1 0x40 MLOAD PUSH32 0x8C379A000000000000000000000000000000000000000000000000000000000 DUP2 MSTORE PUSH1 0x4 ADD PUSH2 0x25B9 SWAP1 PUSH2 0x3B05 JUMP JUMPDEST PUSH1 0x40 MLOAD DUP1 SWAP2 SUB SWAP1 REVERT JUMPDEST PUSH2 0x25CA PUSH2 0x2D71 JUMP JUMPDEST PUSH0 PUSH1 0x40 MLOAD DUP1 PUSH1 0xA0 ADD PUSH1 0x40 MSTORE DUP1 CALLVALUE DUP2 MSTORE PUSH1 0x20 ADD PUSH0 DUP2 MSTORE PUSH1 0x20 ADD TIMESTAMP DUP2 MSTORE PUSH1 0x20 ADD DUP4 DUP2 MSTORE PUSH1 0x20 ADD PUSH1 0x1 ISZERO ISZERO DUP2 MSTORE POP SWAP1 POP PUSH1 0x3 PUSH0 CALLER PUSH20 0xFFFFFFFFFFFFFFFFFFFFFFFFFFFFFFFFFFFFFFFF AND PUSH20 0xFFFFFFFFFFFFFFFFFFFFFFFFFFFFFFFFFFFFFFFF AND DUP2 MSTORE PUSH1 0x20 ADD SWAP1 DUP2 MSTORE PUSH1 0x20 ADD PUSH0 KECCAK256 DUP2 SWAP1 DUP1 PUSH1 0x1 DUP2 SLOAD ADD DUP1 DUP3 SSTORE DUP1 SWAP2 POP POP PUSH1 0x1 SWAP1 SUB SWAP1 PUSH0 MSTORE PUSH1 0x20 PUSH0 KECCAK256 SWAP1 PUSH1 0x5 MUL ADD PUSH0 SWAP1 SWAP2 SWAP1 SWAP2 SWAP1 SWAP2 POP PUSH0 DUP3 ADD MLOAD DUP2 PUSH0 ADD SSTORE PUSH1 0x20 DUP3 ADD MLOAD DUP2 PUSH1 0x1 ADD SSTORE PUSH1 0x40 DUP3 ADD MLOAD DUP2 PUSH1 0x2 ADD SSTORE PUSH1 0x60 DUP3 ADD MLOAD DUP2 PUSH1 0x3 ADD SSTORE PUSH1 0x80 DUP3 ADD MLOAD DUP2 PUSH1 0x4 ADD PUSH0 PUSH2 0x100 EXP DUP2 SLOAD DUP2 PUSH1 0xFF MUL NOT AND SWAP1 DUP4 ISZERO ISZERO MUL OR SWAP1 SSTORE POP POP POP PUSH0 PUSH1 0x1 PUSH1 0x3 PUSH0 CALLER PUSH20 0xFFFFFFFFFFFFFFFFFFFFFFFFFFFFFFFFFFFFFFFF AND PUSH20 0xFFFFFFFFFFFFFFFFFFFFFFFFFFFFFFFFFFFFFFFF AND DUP2 MSTORE PUSH1 0x20 ADD SWAP1 DUP2 MSTORE PUSH1 0x20 ADD PUSH0 KECCAK256 DUP1 SLOAD SWAP1 POP PUSH2 0x26F0 SWAP2 SWAP1 PUSH2 0x35E3 JUMP JUMPDEST SWAP1 POP PUSH0 DUP4 GT ISZERO PUSH2 0x27A1 JUMPI PUSH1 0x4 PUSH0 DUP5 DUP2 MSTORE PUSH1 0x20 ADD SWAP1 DUP2 MSTORE PUSH1 0x20 ADD PUSH0 KECCAK256 DUP3 SWAP1 DUP1 PUSH1 0x1 DUP2 SLOAD ADD DUP1 DUP3 SSTORE DUP1 SWAP2 POP POP PUSH1 0x1 SWAP1 SUB SWAP1 PUSH0 MSTORE PUSH1 0x20 PUSH0 KECCAK256 SWAP1 PUSH1 0x5 MUL ADD PUSH0 SWAP1 SWAP2 SWAP1 SWAP2 SWAP1 SWAP2 POP PUSH0 DUP3 ADD MLOAD DUP2 PUSH0 ADD SSTORE PUSH1 0x20 DUP3 ADD MLOAD DUP2 PUSH1 0x1 ADD SSTORE PUSH1 0x40 DUP3 ADD MLOAD DUP2 PUSH1 0x2 ADD SSTORE PUSH1 0x60 DUP3 ADD MLOAD DUP2 PUSH1 0x3 ADD SSTORE PUSH1 0x80 DUP3 ADD MLOAD DUP2 PUSH1 0x4 ADD PUSH0 PUSH2 0x100 EXP DUP2 SLOAD DUP2 PUSH1 0xFF MUL NOT AND SWAP1 DUP4 ISZERO ISZERO MUL OR SWAP1 SSTORE POP POP POP CALLVALUE PUSH1 0x6 PUSH0 DUP6 DUP2 MSTORE PUSH1 0x20 ADD SWAP1 DUP2 MSTORE PUSH1 0x20 ADD PUSH0 KECCAK256 PUSH0 DUP3 DUP3 SLOAD PUSH2 0x2799 SWAP2 SWAP1 PUSH2 0x3051 JUMP JUMPDEST SWAP3 POP POP DUP2 SWAP1 SSTORE POP JUMPDEST CALLVALUE PUSH1 0x5 PUSH0 CALLER PUSH20 0xFFFFFFFFFFFFFFFFFFFFFFFFFFFFFFFFFFFFFFFF AND PUSH20 0xFFFFFFFFFFFFFFFFFFFFFFFFFFFFFFFFFFFFFFFF AND DUP2 MSTORE PUSH1 0x20 ADD SWAP1 DUP2 MSTORE PUSH1 0x20 ADD PUSH0 KECCAK256 PUSH0 DUP3 DUP3 SLOAD PUSH2 0x27ED SWAP2 SWAP1 PUSH2 0x3051 JUMP JUMPDEST SWAP3 POP POP DUP2 SWAP1 SSTORE POP CALLVALUE PUSH1 0x7 PUSH0 ADD PUSH0 DUP3 DUP3 SLOAD PUSH2 0x2807 SWAP2 SWAP1 PUSH2 0x3051 JUMP JUMPDEST SWAP3 POP POP DUP2 SWAP1 SSTORE POP PUSH1 0x1 PUSH1 0x7 PUSH1 0x4 ADD PUSH0 DUP3 DUP3 SLOAD PUSH2 0x2823 SWAP2 SWAP1 PUSH2 0x3051 JUMP JUMPDEST SWAP3 POP POP DUP2 SWAP1 SSTORE POP CALLER PUSH20 0xFFFFFFFFFFFFFFFFFFFFFFFFFFFFFFFFFFFFFFFF AND PUSH32 0x55B223C72892936A872C1F417E7E143A0592419FE999642DBB4BCCB55B8C6E83 CALLVALUE DUP6 DUP5 PUSH1 0x40 MLOAD PUSH2 0x2874 SWAP4 SWAP3 SWAP2 SWAP1 PUSH2 0x3B23 JUMP JUMPDEST PUSH1 0x40 MLOAD DUP1 SWAP2 SUB SWAP1 LOG2 POP POP PUSH2 0x2886 PUSH2 0x2A3F JUMP JUMPDEST POP JUMP JUMPDEST PUSH0 PUSH0 PUSH1 0x3 PUSH0 DUP6 PUSH20 0xFFFFFFFFFFFFFFFFFFFFFFFFFFFFFFFFFFFFFFFF AND PUSH20 0xFFFFFFFFFFFFFFFFFFFFFFFFFFFFFFFFFFFFFFFF AND DUP2 MSTORE PUSH1 0x20 ADD SWAP1 DUP2 MSTORE PUSH1 0x20 ADD PUSH0 KECCAK256 DUP4 DUP2 SLOAD DUP2 LT PUSH2 0x28DA JUMPI PUSH2 0x28D9 PUSH2 0x36BF JUMP JUMPDEST JUMPDEST SWAP1 PUSH0 MSTORE PUSH1 0x20 PUSH0 KECCAK256 SWAP1 PUSH1 0x5 MUL ADD SWAP1 POP DUP1 PUSH1 0x4 ADD PUSH0 SWAP1 SLOAD SWAP1 PUSH2 0x100 EXP SWAP1 DIV PUSH1 0xFF AND PUSH2 0x2906 JUMPI PUSH0 SWAP2 POP POP PUSH2 0x2963 JUMP JUMPDEST PUSH0 DUP2 PUSH1 0x2 ADD SLOAD TIMESTAMP PUSH2 0x2917 SWAP2 SWAP1 PUSH2 0x35E3 JUMP JUMPDEST SWAP1 POP PUSH0 PUSH2 0x2710 PUSH1 0x7 PUSH1 0x2 ADD SLOAD DUP5 PUSH0 ADD SLOAD PUSH2 0x2931 SWAP2 SWAP1 PUSH2 0x3CF8 JUMP JUMPDEST PUSH2 0x293B SWAP2 SWAP1 PUSH2 0x3D66 JUMP JUMPDEST SWAP1 POP PUSH0 PUSH4 0x1E13380 DUP4 DUP4 PUSH2 0x294F SWAP2 SWAP1 PUSH2 0x3CF8 JUMP JUMPDEST PUSH2 0x2959 SWAP2 SWAP1 PUSH2 0x3D66 JUMP JUMPDEST SWAP1 POP DUP1 SWAP5 POP POP POP POP POP JUMPDEST SWAP3 SWAP2 POP POP JUMP JUMPDEST PUSH2 0x2971 PUSH2 0x2F9F JUMP JUMPDEST PUSH20 0xFFFFFFFFFFFFFFFFFFFFFFFFFFFFFFFFFFFFFFFF AND PUSH2 0x298F PUSH2 0x1313 JUMP JUMPDEST PUSH20 0xFFFFFFFFFFFFFFFFFFFFFFFFFFFFFFFFFFFFFFFF AND EQ PUSH2 0x29EE JUMPI PUSH2 0x29B2 PUSH2 0x2F9F JUMP JUMPDEST PUSH1 0x40 MLOAD PUSH32 0x118CDAA700000000000000000000000000000000000000000000000000000000 DUP2 MSTORE PUSH1 0x4 ADD PUSH2 0x29E5 SWAP2 SWAP1 PUSH2 0x337D JUMP JUMPDEST PUSH1 0x40 MLOAD DUP1 SWAP2 SUB SWAP1 REVERT JUMPDEST JUMP JUMPDEST PUSH1 0x2 PUSH1 0x1 SLOAD SUB PUSH2 0x2A35 JUMPI PUSH1 0x40 MLOAD PUSH32 0x8C379A000000000000000000000000000000000000000000000000000000000 DUP2 MSTORE PUSH1 0x4 ADD PUSH2 0x2A2C SWAP1 PUSH2 0x3DE0 JUMP JUMPDEST PUSH1 0x40 MLOAD DUP1 SWAP2 SUB SWAP1 REVERT JUMPDEST PUSH1 0x2 PUSH1 0x1 DUP2 SWAP1 SSTORE POP JUMP JUMPDEST PUSH1 0x1 DUP1 DUP2 SWAP1 SSTORE POP JUMP JUMPDEST PUSH2 0x2A50 PUSH2 0x1227 JUMP JUMPDEST ISZERO PUSH2 0x2A90 JUMPI PUSH1 0x40 MLOAD PUSH32 0x8C379A000000000000000000000000000000000000000000000000000000000 DUP2 MSTORE PUSH1 0x4 ADD PUSH2 0x2A87 SWAP1 PUSH2 0x3E48 JUMP JUMPDEST PUSH1 0x40 MLOAD DUP1 SWAP2 SUB SWAP1 REVERT JUMPDEST JUMP JUMPDEST PUSH0 PUSH1 0x3 PUSH0 DUP6 PUSH20 0xFFFFFFFFFFFFFFFFFFFFFFFFFFFFFFFFFFFFFFFF AND PUSH20 0xFFFFFFFFFFFFFFFFFFFFFFFFFFFFFFFFFFFFFFFF AND DUP2 MSTORE PUSH1 0x20 ADD SWAP1 DUP2 MSTORE PUSH1 0x20 ADD PUSH0 KECCAK256 DUP4 DUP2 SLOAD DUP2 LT PUSH2 0x2AE2 JUMPI PUSH2 0x2AE1 PUSH2 0x36BF JUMP JUMPDEST JUMPDEST SWAP1 PUSH0 MSTORE PUSH1 0x20 PUSH0 KECCAK256 SWAP1 PUSH1 0x5 MUL ADD SWAP1 POP PUSH0 PUSH2 0x2AFB DUP6 DUP6 PUSH2 0x2889 JUMP JUMPDEST SWAP1 POP DUP1 DUP3 PUSH1 0x1 ADD PUSH0 DUP3 DUP3 SLOAD PUSH2 0x2B10 SWAP2 SWAP1 PUSH2 0x3051 JUMP JUMPDEST SWAP3 POP POP DUP2 SWAP1 SSTORE POP PUSH0 DUP3 PUSH1 0x1 ADD SLOAD DUP4 PUSH0 ADD SLOAD PUSH2 0x2B2B SWAP2 SWAP1 PUSH2 0x3051 JUMP JUMPDEST SWAP1 POP PUSH0 PUSH2 0x2710 PUSH1 0xE SLOAD DUP6 PUSH1 0x1 ADD SLOAD PUSH2 0x2B43 SWAP2 SWAP1 PUSH2 0x3CF8 JUMP JUMPDEST PUSH2 0x2B4D SWAP2 SWAP1 PUSH2 0x3D66 JUMP JUMPDEST SWAP1 POP PUSH0 DUP2 DUP4 PUSH2 0x2B5C SWAP2 SWAP1 PUSH2 0x35E3 JUMP JUMPDEST SWAP1 POP PUSH0 DUP6 PUSH1 0x3 ADD SLOAD SWAP1 POP PUSH0 DUP7 PUSH1 0x4 ADD PUSH0 PUSH2 0x100 EXP DUP2 SLOAD DUP2 PUSH1 0xFF MUL NOT AND SWAP1 DUP4 ISZERO ISZERO MUL OR SWAP1 SSTORE POP DUP6 PUSH0 ADD SLOAD PUSH1 0x5 PUSH0 DUP12 PUSH20 0xFFFFFFFFFFFFFFFFFFFFFFFFFFFFFFFFFFFFFFFF AND PUSH20 0xFFFFFFFFFFFFFFFFFFFFFFFFFFFFFFFFFFFFFFFF AND DUP2 MSTORE PUSH1 0x20 ADD SWAP1 DUP2 MSTORE PUSH1 0x20 ADD PUSH0 KECCAK256 PUSH0 DUP3 DUP3 SLOAD PUSH2 0x2BD0 SWAP2 SWAP1 PUSH2 0x35E3 JUMP JUMPDEST SWAP3 POP POP DUP2 SWAP1 SSTORE POP DUP6 PUSH0 ADD SLOAD PUSH1 0x7 PUSH0 ADD PUSH0 DUP3 DUP3 SLOAD PUSH2 0x2BED SWAP2 SWAP1 PUSH2 0x35E3 JUMP JUMPDEST SWAP3 POP POP DUP2 SWAP1 SSTORE POP PUSH1 0x1 PUSH1 0x7 PUSH1 0x4 ADD PUSH0 DUP3 DUP3 SLOAD PUSH2 0x2C09 SWAP2 SWAP1 PUSH2 0x35E3 JUMP JUMPDEST SWAP3 POP POP DUP2 SWAP1 SSTORE POP PUSH0 DUP2 GT ISZERO PUSH2 0x2C43 JUMPI DUP6 PUSH0 ADD SLOAD PUSH1 0x6 PUSH0 DUP4 DUP2 MSTORE PUSH1 0x20 ADD SWAP1 DUP2 MSTORE PUSH1 0x20 ADD PUSH0 KECCAK256 PUSH0 DUP3 DUP3 SLOAD PUSH2 0x2C3B SWAP2 SWAP1 PUSH2 0x35E3 JUMP JUMPDEST SWAP3 POP POP DUP2 SWAP1 SSTORE POP JUMPDEST PUSH0 DUP4 GT ISZERO PUSH2 0x2C64 JUMPI DUP3 PUSH1 0xD PUSH0 DUP3 DUP3 SLOAD PUSH2 0x2C5C SWAP2 SWAP1 PUSH2 0x3051 JUMP JUMPDEST SWAP3 POP POP DUP2 SWAP1 SSTORE POP JUMPDEST PUSH0 DUP8 PUSH20 0xFFFFFFFFFFFFFFFFFFFFFFFFFFFFFFFFFFFFFFFF AND DUP4 PUSH1 0x40 MLOAD PUSH2 0x2C89 SWAP1 PUSH2 0x3643 JUMP JUMPDEST PUSH0 PUSH1 0x40 MLOAD DUP1 DUP4 SUB DUP2 DUP6 DUP8 GAS CALL SWAP3 POP POP POP RETURNDATASIZE DUP1 PUSH0 DUP2 EQ PUSH2 0x2CC3 JUMPI PUSH1 0x40 MLOAD SWAP2 POP PUSH1 0x1F NOT PUSH1 0x3F RETURNDATASIZE ADD AND DUP3 ADD PUSH1 0x40 MSTORE RETURNDATASIZE DUP3 MSTORE RETURNDATASIZE PUSH0 PUSH1 0x20 DUP5 ADD RETURNDATACOPY PUSH2 0x2CC8 JUMP JUMPDEST PUSH1 0x60 SWAP2 POP JUMPDEST POP POP SWAP1 POP DUP1 PUSH2 0x2D0C JUMPI PUSH1 0x40 MLOAD PUSH32 0x8C379A000000000000000000000000000000000000000000000000000000000 DUP2 MSTORE PUSH1 0x4 ADD PUSH2 0x2D03 SWAP1 PUSH2 0x3EB0 JUMP JUMPDEST PUSH1 0x40 MLOAD DUP1 SWAP2 SUB SWAP1 REVERT JUMPDEST DUP10 PUSH20 0xFFFFFFFFFFFFFFFFFFFFFFFFFFFFFFFFFFFFFFFF AND PUSH32 0xC8B5AB210E9D3B6A82B80AA35E2CC486DC439D18CBFEF6006C423A516768F70B DUP9 PUSH0 ADD SLOAD DUP10 PUSH1 0x1 ADD SLOAD DUP13 PUSH1 0x40 MLOAD PUSH2 0x2D5D SWAP4 SWAP3 SWAP2 SWAP1 PUSH2 0x3B23 JUMP JUMPDEST PUSH1 0x40 MLOAD DUP1 SWAP2 SUB SWAP1 LOG2 POP POP POP POP POP POP POP POP POP POP JUMP JUMPDEST TIMESTAMP PUSH1 0x7 PUSH1 0x3 ADD DUP2 SWAP1 SSTORE POP PUSH9 0x56BC75E2D63100000 PUSH1 0x7 PUSH0 ADD SLOAD GT ISZERO PUSH2 0x2DCB JUMPI PUSH1 0x32 DUP1 PUSH2 0x2D9D SWAP2 SWAP1 PUSH2 0x3051 JUMP JUMPDEST PUSH1 0x7 PUSH1 0x2 ADD SLOAD GT ISZERO PUSH2 0x2DC6 JUMPI PUSH1 0xA PUSH1 0x7 PUSH1 0x2 ADD PUSH0 DUP3 DUP3 SLOAD PUSH2 0x2DBE SWAP2 SWAP1 PUSH2 0x35E3 JUMP JUMPDEST SWAP3 POP POP DUP2 SWAP1 SSTORE POP JUMPDEST PUSH2 0x2E19 JUMP JUMPDEST PUSH8 0x8AC7230489E80000 PUSH1 0x7 PUSH0 ADD SLOAD LT ISZERO PUSH2 0x2E18 JUMPI PUSH1 0x32 PUSH2 0x320 PUSH2 0x2DEE SWAP2 SWAP1 PUSH2 0x35E3 JUMP JUMPDEST PUSH1 0x7 PUSH1 0x2 ADD SLOAD LT ISZERO PUSH2 0x2E17 JUMPI PUSH1 0xA PUSH1 0x7 PUSH1 0x2 ADD PUSH0 DUP3 DUP3 SLOAD PUSH2 0x2E0F SWAP2 SWAP1 PUSH2 0x3051 JUMP JUMPDEST SWAP3 POP POP DUP2 SWAP1 SSTORE POP JUMPDEST JUMPDEST JUMPDEST JUMP JUMPDEST PUSH2 0x2E23 PUSH2 0x2FA6 JUMP JUMPDEST PUSH0 PUSH1 0x2 PUSH0 PUSH2 0x100 EXP DUP2 SLOAD DUP2 PUSH1 0xFF MUL NOT AND SWAP1 DUP4 ISZERO ISZERO MUL OR SWAP1 SSTORE POP PUSH32 0x5DB9EE0A495BF2E6FF9C91A7834C1BA4FDD244A5E8AA4E537BD38AEAE4B073AA PUSH2 0x2E65 PUSH2 0x2F9F JUMP JUMPDEST PUSH1 0x40 MLOAD PUSH2 0x2E72 SWAP2 SWAP1 PUSH2 0x337D JUMP JUMPDEST PUSH1 0x40 MLOAD DUP1 SWAP2 SUB SWAP1 LOG1 JUMP JUMPDEST PUSH2 0x2E84 PUSH2 0x2A48 JUMP JUMPDEST PUSH1 0x1 PUSH1 0x2 PUSH0 PUSH2 0x100 EXP DUP2 SLOAD DUP2 PUSH1 0xFF MUL NOT AND SWAP1 DUP4 ISZERO ISZERO MUL OR SWAP1 SSTORE POP PUSH32 0x62E78CEA01BEE320CD4E420270B5EA74000D11B0C9F74754EBDBFC544B05A258 PUSH2 0x2EC7 PUSH2 0x2F9F JUMP JUMPDEST PUSH1 0x40 MLOAD PUSH2 0x2ED4 SWAP2 SWAP1 PUSH2 0x337D JUMP JUMPDEST PUSH1 0x40 MLOAD DUP1 SWAP2 SUB SWAP1 LOG1 JUMP JUMPDEST PUSH0 PUSH0 PUSH0 SWAP1 SLOAD SWAP1 PUSH2 0x100 EXP SWAP1 DIV PUSH20 0xFFFFFFFFFFFFFFFFFFFFFFFFFFFFFFFFFFFFFFFF AND SWAP1 POP DUP2 PUSH0 PUSH0 PUSH2 0x100 EXP DUP2 SLOAD DUP2 PUSH20 0xFFFFFFFFFFFFFFFFFFFFFFFFFFFFFFFFFFFFFFFF MUL NOT AND SWAP1 DUP4 PUSH20 0xFFFFFFFFFFFFFFFFFFFFFFFFFFFFFFFFFFFFFFFF AND MUL OR SWAP1 SSTORE POP DUP2 PUSH20 0xFFFFFFFFFFFFFFFFFFFFFFFFFFFFFFFFFFFFFFFF AND DUP2 PUSH20 0xFFFFFFFFFFFFFFFFFFFFFFFFFFFFFFFFFFFFFFFF AND PUSH32 0x8BE0079C531659141344CD1FD0A4F28419497F9722A3DAAFE3B4186F6B6457E0 PUSH1 0x40 MLOAD PUSH1 0x40 MLOAD DUP1 SWAP2 SUB SWAP1 LOG3 POP POP JUMP JUMPDEST PUSH0 CALLER SWAP1 POP SWAP1 JUMP JUMPDEST PUSH2 0x2FAE PUSH2 0x1227 JUMP JUMPDEST PUSH2 0x2FED JUMPI PUSH1 0x40 MLOAD PUSH32 0x8C379A000000000000000000000000000000000000000000000000000000000 DUP2 MSTORE PUSH1 0x4 ADD PUSH2 0x2FE4 SWAP1 PUSH2 0x3F18 JUMP JUMPDEST PUSH1 0x40 MLOAD DUP1 SWAP2 SUB SWAP1 REVERT JUMPDEST JUMP JUMPDEST PUSH1 0x40 MLOAD DUP1 PUSH1 0xA0 ADD PUSH1 0x40 MSTORE DUP1 PUSH0 DUP2 MSTORE PUSH1 0x20 ADD PUSH0 DUP2 MSTORE PUSH1 0x20 ADD PUSH0 DUP2 MSTORE PUSH1 0x20 ADD PUSH0 DUP2 MSTORE PUSH1 0x20 ADD PUSH0 ISZERO ISZERO DUP2 MSTORE POP SWAP1 JUMP JUMPDEST PUSH0 DUP2 SWAP1 POP SWAP2 SWAP1 POP JUMP JUMPDEST PUSH32 0x4E487B7100000000000000000000000000000000000000000000000000000000 PUSH0 MSTORE PUSH1 0x11 PUSH1 0x4 MSTORE PUSH1 0x24 PUSH0 REVERT JUMPDEST PUSH0 PUSH2 0x305B DUP3 PUSH2 0x301B JUMP JUMPDEST SWAP2 POP PUSH2 0x3066 DUP4 PUSH2 0x301B JUMP JUMPDEST SWAP3 POP DUP3 DUP3 ADD SWAP1 POP DUP1 DUP3 GT ISZERO PUSH2 0x307E JUMPI PUSH2 0x307D PUSH2 0x3024 JUMP JUMPDEST JUMPDEST SWAP3 SWAP2 POP POP JUMP JUMPDEST PUSH2 0x308D DUP2 PUSH2 0x301B JUMP JUMPDEST DUP3 MSTORE POP POP JUMP JUMPDEST PUSH0 PUSH1 0x20 DUP3 ADD SWAP1 POP PUSH2 0x30A6 PUSH0 DUP4 ADD DUP5 PUSH2 0x3084 JUMP JUMPDEST SWAP3 SWAP2 POP POP JUMP JUMPDEST PUSH0 DUP3 DUP3 MSTORE PUSH1 0x20 DUP3 ADD SWAP1 POP SWAP3 SWAP2 POP POP JUMP JUMPDEST PUSH32 0x46756E6374696F6E206E6F7420666F756E640000000000000000000000000000 PUSH0 DUP3 ADD MSTORE POP JUMP JUMPDEST PUSH0 PUSH2 0x30F0 PUSH1 0x12 DUP4 PUSH2 0x30AC JUMP JUMPDEST SWAP2 POP PUSH2 0x30FB DUP3 PUSH2 0x30BC JUMP JUMPDEST PUSH1 0x20 DUP3 ADD SWAP1 POP SWAP2 SWAP1 POP JUMP JUMPDEST PUSH0 PUSH1 0x20 DUP3 ADD SWAP1 POP DUP2 DUP2 SUB PUSH0 DUP4 ADD MSTORE PUSH2 0x311D DUP2 PUSH2 0x30E4 JUMP JUMPDEST SWAP1 POP SWAP2 SWAP1 POP JUMP JUMPDEST PUSH0 PUSH0 REVERT JUMPDEST PUSH0 PUSH20 0xFFFFFFFFFFFFFFFFFFFFFFFFFFFFFFFFFFFFFFFF DUP3 AND SWAP1 POP SWAP2 SWAP1 POP JUMP JUMPDEST PUSH0 PUSH2 0x3151 DUP3 PUSH2 0x3128 JUMP JUMPDEST SWAP1 POP SWAP2 SWAP1 POP JUMP JUMPDEST PUSH2 0x3161 DUP2 PUSH2 0x3147 JUMP JUMPDEST DUP2 EQ PUSH2 0x316B JUMPI PUSH0 PUSH0 REVERT JUMPDEST POP JUMP JUMPDEST PUSH0 DUP2 CALLDATALOAD SWAP1 POP PUSH2 0x317C DUP2 PUSH2 0x3158 JUMP JUMPDEST SWAP3 SWAP2 POP POP JUMP JUMPDEST PUSH2 0x318B DUP2 PUSH2 0x301B JUMP JUMPDEST DUP2 EQ PUSH2 0x3195 JUMPI PUSH0 PUSH0 REVERT JUMPDEST POP JUMP JUMPDEST PUSH0 DUP2 CALLDATALOAD SWAP1 POP PUSH2 0x31A6 DUP2 PUSH2 0x3182 JUMP JUMPDEST SWAP3 SWAP2 POP POP JUMP JUMPDEST PUSH0 PUSH0 PUSH1 0x40 DUP4 DUP6 SUB SLT ISZERO PUSH2 0x31C2 JUMPI PUSH2 0x31C1 PUSH2 0x3124 JUMP JUMPDEST JUMPDEST PUSH0 PUSH2 0x31CF DUP6 DUP3 DUP7 ADD PUSH2 0x316E JUMP JUMPDEST SWAP3 POP POP PUSH1 0x20 PUSH2 0x31E0 DUP6 DUP3 DUP7 ADD PUSH2 0x3198 JUMP JUMPDEST SWAP2 POP POP SWAP3 POP SWAP3 SWAP1 POP JUMP JUMPDEST PUSH0 PUSH1 0x20 DUP3 DUP5 SUB SLT ISZERO PUSH2 0x31FF JUMPI PUSH2 0x31FE PUSH2 0x3124 JUMP JUMPDEST JUMPDEST PUSH0 PUSH2 0x320C DUP5 DUP3 DUP6 ADD PUSH2 0x3198 JUMP JUMPDEST SWAP2 POP POP SWAP3 SWAP2 POP POP JUMP JUMPDEST PUSH0 PUSH1 0x80 DUP3 ADD SWAP1 POP PUSH2 0x3228 PUSH0 DUP4 ADD DUP8 PUSH2 0x3084 JUMP JUMPDEST PUSH2 0x3235 PUSH1 0x20 DUP4 ADD DUP7 PUSH2 0x3084 JUMP JUMPDEST PUSH2 0x3242 PUSH1 0x40 DUP4 ADD DUP6 PUSH2 0x3084 JUMP JUMPDEST PUSH2 0x324F PUSH1 0x60 DUP4 ADD DUP5 PUSH2 0x3084 JUMP JUMPDEST SWAP6 SWAP5 POP POP POP POP POP JUMP JUMPDEST PUSH0 PUSH1 0x20 DUP3 DUP5 SUB SLT ISZERO PUSH2 0x326D JUMPI PUSH2 0x326C PUSH2 0x3124 JUMP JUMPDEST JUMPDEST PUSH0 PUSH2 0x327A DUP5 DUP3 DUP6 ADD PUSH2 0x316E JUMP JUMPDEST SWAP2 POP POP SWAP3 SWAP2 POP POP JUMP JUMPDEST PUSH0 PUSH0 PUSH0 PUSH1 0x60 DUP5 DUP7 SUB SLT ISZERO PUSH2 0x329A JUMPI PUSH2 0x3299 PUSH2 0x3124 JUMP JUMPDEST JUMPDEST PUSH0 PUSH2 0x32A7 DUP7 DUP3 DUP8 ADD PUSH2 0x316E JUMP JUMPDEST SWAP4 POP POP PUSH1 0x20 PUSH2 0x32B8 DUP7 DUP3 DUP8 ADD PUSH2 0x3198 JUMP JUMPDEST SWAP3 POP POP PUSH1 0x40 PUSH2 0x32C9 DUP7 DUP3 DUP8 ADD PUSH2 0x316E JUMP JUMPDEST SWAP2 POP POP SWAP3 POP SWAP3 POP SWAP3 JUMP JUMPDEST PUSH0 DUP2 ISZERO ISZERO SWAP1 POP SWAP2 SWAP1 POP JUMP JUMPDEST PUSH2 0x32E7 DUP2 PUSH2 0x32D3 JUMP JUMPDEST DUP2 EQ PUSH2 0x32F1 JUMPI PUSH0 PUSH0 REVERT JUMPDEST POP JUMP JUMPDEST PUSH0 DUP2 CALLDATALOAD SWAP1 POP PUSH2 0x3302 DUP2 PUSH2 0x32DE JUMP JUMPDEST SWAP3 SWAP2 POP POP JUMP JUMPDEST PUSH0 PUSH0 PUSH1 0x40 DUP4 DUP6 SUB SLT ISZERO PUSH2 0x331E JUMPI PUSH2 0x331D PUSH2 0x3124 JUMP JUMPDEST JUMPDEST PUSH0 PUSH2 0x332B DUP6 DUP3 DUP7 ADD PUSH2 0x316E JUMP JUMPDEST SWAP3 POP POP PUSH1 0x20 PUSH2 0x333C DUP6 DUP3 DUP7 ADD PUSH2 0x32F4 JUMP JUMPDEST SWAP2 POP POP SWAP3 POP SWAP3 SWAP1 POP JUMP JUMPDEST PUSH2 0x334F DUP2 PUSH2 0x32D3 JUMP JUMPDEST DUP3 MSTORE POP POP JUMP JUMPDEST PUSH0 PUSH1 0x20 DUP3 ADD SWAP1 POP PUSH2 0x3368 PUSH0 DUP4 ADD DUP5 PUSH2 0x3346 JUMP JUMPDEST SWAP3 SWAP2 POP POP JUMP JUMPDEST PUSH2 0x3377 DUP2 PUSH2 0x3147 JUMP JUMPDEST DUP3 MSTORE POP POP JUMP JUMPDEST PUSH0 PUSH1 0x20 DUP3 ADD SWAP1 POP PUSH2 0x3390 PUSH0 DUP4 ADD DUP5 PUSH2 0x336E JUMP JUMPDEST SWAP3 SWAP2 POP POP JUMP JUMPDEST PUSH0 PUSH1 0xA0 DUP3 ADD SWAP1 POP PUSH2 0x33A9 PUSH0 DUP4 ADD DUP9 PUSH2 0x3084 JUMP JUMPDEST PUSH2 0x33B6 PUSH1 0x20 DUP4 ADD DUP8 PUSH2 0x3084 JUMP JUMPDEST PUSH2 0x33C3 PUSH1 0x40 DUP4 ADD DUP7 PUSH2 0x3084 JUMP JUMPDEST PUSH2 0x33D0 PUSH1 0x60 DUP4 ADD DUP6 PUSH2 0x3084 JUMP JUMPDEST PUSH2 0x33DD PUSH1 0x80 DUP4 ADD DUP5 PUSH2 0x3346 JUMP JUMPDEST SWAP7 SWAP6 POP POP POP POP POP POP JUMP JUMPDEST PUSH2 0x33F0 DUP2 PUSH2 0x301B JUMP JUMPDEST DUP3 MSTORE POP POP JUMP JUMPDEST PUSH2 0x33FF DUP2 PUSH2 0x32D3 JUMP JUMPDEST DUP3 MSTORE POP POP JUMP JUMPDEST PUSH1 0xA0 DUP3 ADD PUSH0 DUP3 ADD MLOAD PUSH2 0x3419 PUSH0 DUP6 ADD DUP3 PUSH2 0x33E7 JUMP JUMPDEST POP PUSH1 0x20 DUP3 ADD MLOAD PUSH2 0x342C PUSH1 0x20 DUP6 ADD DUP3 PUSH2 0x33E7 JUMP JUMPDEST POP PUSH1 0x40 DUP3 ADD MLOAD PUSH2 0x343F PUSH1 0x40 DUP6 ADD DUP3 PUSH2 0x33E7 JUMP JUMPDEST POP PUSH1 0x60 DUP3 ADD MLOAD PUSH2 0x3452 PUSH1 0x60 DUP6 ADD DUP3 PUSH2 0x33E7 JUMP JUMPDEST POP PUSH1 0x80 DUP3 ADD MLOAD PUSH2 0x3465 PUSH1 0x80 DUP6 ADD DUP3 PUSH2 0x33F6 JUMP JUMPDEST POP POP POP POP JUMP JUMPDEST PUSH0 PUSH1 0xA0 DUP3 ADD SWAP1 POP PUSH2 0x347E PUSH0 DUP4 ADD DUP5 PUSH2 0x3405 JUMP JUMPDEST SWAP3 SWAP2 POP POP JUMP JUMPDEST PUSH0 PUSH0 PUSH1 0x40 DUP4 DUP6 SUB SLT ISZERO PUSH2 0x349A JUMPI PUSH2 0x3499 PUSH2 0x3124 JUMP JUMPDEST JUMPDEST PUSH0 PUSH2 0x34A7 DUP6 DUP3 DUP7 ADD PUSH2 0x3198 JUMP JUMPDEST SWAP3 POP POP PUSH1 0x20 PUSH2 0x34B8 DUP6 DUP3 DUP7 ADD PUSH2 0x3198 JUMP JUMPDEST SWAP2 POP POP SWAP3 POP SWAP3 SWAP1 POP JUMP JUMPDEST PUSH0 PUSH1 0xA0 DUP3 ADD SWAP1 POP PUSH2 0x34D5 PUSH0 DUP4 ADD DUP9 PUSH2 0x3084 JUMP JUMPDEST PUSH2 0x34E2 PUSH1 0x20 DUP4 ADD DUP8 PUSH2 0x3084 JUMP JUMPDEST PUSH2 0x34EF PUSH1 0x40 DUP4 ADD DUP7 PUSH2 0x3084 JUMP JUMPDEST PUSH2 0x34FC PUSH1 0x60 DUP4 ADD DUP6 PUSH2 0x3084 JUMP JUMPDEST PUSH2 0x3509 PUSH1 0x80 DUP4 ADD DUP5 PUSH2 0x3084 JUMP JUMPDEST SWAP7 SWAP6 POP POP POP POP POP POP JUMP JUMPDEST PUSH32 0x496E76616C696420726563697069656E74000000000000000000000000000000 PUSH0 DUP3 ADD MSTORE POP JUMP JUMPDEST PUSH0 PUSH2 0x3547 PUSH1 0x11 DUP4 PUSH2 0x30AC JUMP JUMPDEST SWAP2 POP PUSH2 0x3552 DUP3 PUSH2 0x3513 JUMP JUMPDEST PUSH1 0x20 DUP3 ADD SWAP1 POP SWAP2 SWAP1 POP JUMP JUMPDEST PUSH0 PUSH1 0x20 DUP3 ADD SWAP1 POP DUP2 DUP2 SUB PUSH0 DUP4 ADD MSTORE PUSH2 0x3574 DUP2 PUSH2 0x353B JUMP JUMPDEST SWAP1 POP SWAP2 SWAP1 POP JUMP JUMPDEST PUSH32 0x496E73756666696369656E742066656573000000000000000000000000000000 PUSH0 DUP3 ADD MSTORE POP JUMP JUMPDEST PUSH0 PUSH2 0x35AF PUSH1 0x11 DUP4 PUSH2 0x30AC JUMP JUMPDEST SWAP2 POP PUSH2 0x35BA DUP3 PUSH2 0x357B JUMP JUMPDEST PUSH1 0x20 DUP3 ADD SWAP1 POP SWAP2 SWAP1 POP JUMP JUMPDEST PUSH0 PUSH1 0x20 DUP3 ADD SWAP1 POP DUP2 DUP2 SUB PUSH0 DUP4 ADD MSTORE PUSH2 0x35DC DUP2 PUSH2 0x35A3 JUMP JUMPDEST SWAP1 POP SWAP2 SWAP1 POP JUMP JUMPDEST PUSH0 PUSH2 0x35ED DUP3 PUSH2 0x301B JUMP JUMPDEST SWAP2 POP PUSH2 0x35F8 DUP4 PUSH2 0x301B JUMP JUMPDEST SWAP3 POP DUP3 DUP3 SUB SWAP1 POP DUP2 DUP2 GT ISZERO PUSH2 0x3610 JUMPI PUSH2 0x360F PUSH2 0x3024 JUMP JUMPDEST JUMPDEST SWAP3 SWAP2 POP POP JUMP JUMPDEST PUSH0 DUP2 SWAP1 POP SWAP3 SWAP2 POP POP JUMP JUMPDEST POP JUMP JUMPDEST PUSH0 PUSH2 0x362E PUSH0 DUP4 PUSH2 0x3616 JUMP JUMPDEST SWAP2 POP PUSH2 0x3639 DUP3 PUSH2 0x3620 JUMP JUMPDEST PUSH0 DUP3 ADD SWAP1 POP SWAP2 SWAP1 POP JUMP JUMPDEST PUSH0 PUSH2 0x364D DUP3 PUSH2 0x3623 JUMP JUMPDEST SWAP2 POP DUP2 SWAP1 POP SWAP2 SWAP1 POP JUMP JUMPDEST PUSH32 0x466565207769746864726177616C206661696C65640000000000000000000000 PUSH0 DUP3 ADD MSTORE POP JUMP JUMPDEST PUSH0 PUSH2 0x368B PUSH1 0x15 DUP4 PUSH2 0x30AC JUMP JUMPDEST SWAP2 POP PUSH2 0x3696 DUP3 PUSH2 0x3657 JUMP JUMPDEST PUSH1 0x20 DUP3 ADD SWAP1 POP SWAP2 SWAP1 POP JUMP JUMPDEST PUSH0 PUSH1 0x20 DUP3 ADD SWAP1 POP DUP2 DUP2 SUB PUSH0 DUP4 ADD MSTORE PUSH2 0x36B8 DUP2 PUSH2 0x367F JUMP JUMPDEST SWAP1 POP SWAP2 SWAP1 POP JUMP JUMPDEST PUSH32 0x4E487B7100000000000000000000000000000000000000000000000000000000 PUSH0 MSTORE PUSH1 0x32 PUSH1 0x4 MSTORE PUSH1 0x24 PUSH0 REVERT JUMPDEST PUSH32 0x4E6F7420617574686F72697A6564000000000000000000000000000000000000 PUSH0 DUP3 ADD MSTORE POP JUMP JUMPDEST PUSH0 PUSH2 0x3720 PUSH1 0xE DUP4 PUSH2 0x30AC JUMP JUMPDEST SWAP2 POP PUSH2 0x372B DUP3 PUSH2 0x36EC JUMP JUMPDEST PUSH1 0x20 DUP3 ADD SWAP1 POP SWAP2 SWAP1 POP JUMP JUMPDEST PUSH0 PUSH1 0x20 DUP3 ADD SWAP1 POP DUP2 DUP2 SUB PUSH0 DUP4 ADD MSTORE PUSH2 0x374D DUP2 PUSH2 0x3714 JUMP JUMPDEST SWAP1 POP SWAP2 SWAP1 POP JUMP JUMPDEST PUSH32 0x496E76616C6964207374616B6520696E64657800000000000000000000000000 PUSH0 DUP3 ADD MSTORE POP JUMP JUMPDEST PUSH0 PUSH2 0x3788 PUSH1 0x13 DUP4 PUSH2 0x30AC JUMP JUMPDEST SWAP2 POP PUSH2 0x3793 DUP3 PUSH2 0x3754 JUMP JUMPDEST PUSH1 0x20 DUP3 ADD SWAP1 POP SWAP2 SWAP1 POP JUMP JUMPDEST PUSH0 PUSH1 0x20 DUP3 ADD SWAP1 POP DUP2 DUP2 SUB PUSH0 DUP4 ADD MSTORE PUSH2 0x37B5 DUP2 PUSH2 0x377C JUMP JUMPDEST SWAP1 POP SWAP2 SWAP1 POP JUMP JUMPDEST PUSH32 0x5374616B65206E6F742061637469766500000000000000000000000000000000 PUSH0 DUP3 ADD MSTORE POP JUMP JUMPDEST PUSH0 PUSH2 0x37F0 PUSH1 0x10 DUP4 PUSH2 0x30AC JUMP JUMPDEST SWAP2 POP PUSH2 0x37FB DUP3 PUSH2 0x37BC JUMP JUMPDEST PUSH1 0x20 DUP3 ADD SWAP1 POP SWAP2 SWAP1 POP JUMP JUMPDEST PUSH0 PUSH1 0x20 DUP3 ADD SWAP1 POP DUP2 DUP2 SUB PUSH0 DUP4 ADD MSTORE PUSH2 0x381D DUP2 PUSH2 0x37E4 JUMP JUMPDEST SWAP1 POP SWAP2 SWAP1 POP JUMP JUMPDEST PUSH32 0x496E76616C6964207969656C6420726174650000000000000000000000000000 PUSH0 DUP3 ADD MSTORE POP JUMP JUMPDEST PUSH0 PUSH2 0x3858 PUSH1 0x12 DUP4 PUSH2 0x30AC JUMP JUMPDEST SWAP2 POP PUSH2 0x3863 DUP3 PUSH2 0x3824 JUMP JUMPDEST PUSH1 0x20 DUP3 ADD SWAP1 POP SWAP2 SWAP1 POP JUMP JUMPDEST PUSH0 PUSH1 0x20 DUP3 ADD SWAP1 POP DUP2 DUP2 SUB PUSH0 DUP4 ADD MSTORE PUSH2 0x3885 DUP2 PUSH2 0x384C JUMP JUMPDEST SWAP1 POP SWAP2 SWAP1 POP JUMP JUMPDEST PUSH0 PUSH1 0x40 DUP3 ADD SWAP1 POP PUSH2 0x389F PUSH0 DUP4 ADD DUP6 PUSH2 0x3084 JUMP JUMPDEST PUSH2 0x38AC PUSH1 0x20 DUP4 ADD DUP5 PUSH2 0x3084 JUMP JUMPDEST SWAP4 SWAP3 POP POP POP JUMP JUMPDEST PUSH32 0x496E76616C69642063616C6C6572206164647265737300000000000000000000 PUSH0 DUP3 ADD MSTORE POP JUMP JUMPDEST PUSH0 PUSH2 0x38E7 PUSH1 0x16 DUP4 PUSH2 0x30AC JUMP JUMPDEST SWAP2 POP PUSH2 0x38F2 DUP3 PUSH2 0x38B3 JUMP JUMPDEST PUSH1 0x20 DUP3 ADD SWAP1 POP SWAP2 SWAP1 POP JUMP JUMPDEST PUSH0 PUSH1 0x20 DUP3 ADD SWAP1 POP DUP2 DUP2 SUB PUSH0 DUP4 ADD MSTORE PUSH2 0x3914 DUP2 PUSH2 0x38DB JUMP JUMPDEST SWAP1 POP SWAP2 SWAP1 POP JUMP JUMPDEST PUSH32 0x466565207261746520746F6F2068696768000000000000000000000000000000 PUSH0 DUP3 ADD MSTORE POP JUMP JUMPDEST PUSH0 PUSH2 0x394F PUSH1 0x11 DUP4 PUSH2 0x30AC JUMP JUMPDEST SWAP2 POP PUSH2 0x395A DUP3 PUSH2 0x391B JUMP JUMPDEST PUSH1 0x20 DUP3 ADD SWAP1 POP SWAP2 SWAP1 POP JUMP JUMPDEST PUSH0 PUSH1 0x20 DUP3 ADD SWAP1 POP DUP2 DUP2 SUB PUSH0 DUP4 ADD MSTORE PUSH2 0x397C DUP2 PUSH2 0x3943 JUMP JUMPDEST SWAP1 POP SWAP2 SWAP1 POP JUMP JUMPDEST PUSH32 0x4E6F206665657320746F20646973747269627574650000000000000000000000 PUSH0 DUP3 ADD MSTORE POP JUMP JUMPDEST PUSH0 PUSH2 0x39B7 PUSH1 0x15 DUP4 PUSH2 0x30AC JUMP JUMPDEST SWAP2 POP PUSH2 0x39C2 DUP3 PUSH2 0x3983 JUMP JUMPDEST PUSH1 0x20 DUP3 ADD SWAP1 POP SWAP2 SWAP1 POP JUMP JUMPDEST PUSH0 PUSH1 0x20 DUP3 ADD SWAP1 POP DUP2 DUP2 SUB PUSH0 DUP4 ADD MSTORE PUSH2 0x39E4 DUP2 PUSH2 0x39AB JUMP JUMPDEST SWAP1 POP SWAP2 SWAP1 POP JUMP JUMPDEST PUSH32 0x4E6F20616374697665207374616B657300000000000000000000000000000000 PUSH0 DUP3 ADD MSTORE POP JUMP JUMPDEST PUSH0 PUSH2 0x3A1F PUSH1 0x10 DUP4 PUSH2 0x30AC JUMP JUMPDEST SWAP2 POP PUSH2 0x3A2A DUP3 PUSH2 0x39EB JUMP JUMPDEST PUSH1 0x20 DUP3 ADD SWAP1 POP SWAP2 SWAP1 POP JUMP JUMPDEST PUSH0 PUSH1 0x20 DUP3 ADD SWAP1 POP DUP2 DUP2 SUB PUSH0 DUP4 ADD MSTORE PUSH2 0x3A4C DUP2 PUSH2 0x3A13 JUMP JUMPDEST SWAP1 POP SWAP2 SWAP1 POP JUMP JUMPDEST PUSH32 0x496E76616C696420757365722061646472657373000000000000000000000000 PUSH0 DUP3 ADD MSTORE POP JUMP JUMPDEST PUSH0 PUSH2 0x3A87 PUSH1 0x14 DUP4 PUSH2 0x30AC JUMP JUMPDEST SWAP2 POP PUSH2 0x3A92 DUP3 PUSH2 0x3A53 JUMP JUMPDEST PUSH1 0x20 DUP3 ADD SWAP1 POP SWAP2 SWAP1 POP JUMP JUMPDEST PUSH0 PUSH1 0x20 DUP3 ADD SWAP1 POP DUP2 DUP2 SUB PUSH0 DUP4 ADD MSTORE PUSH2 0x3AB4 DUP2 PUSH2 0x3A7B JUMP JUMPDEST SWAP1 POP SWAP2 SWAP1 POP JUMP JUMPDEST PUSH32 0x5374616B6520616D6F756E7420746F6F206C6F77000000000000000000000000 PUSH0 DUP3 ADD MSTORE POP JUMP JUMPDEST PUSH0 PUSH2 0x3AEF PUSH1 0x14 DUP4 PUSH2 0x30AC JUMP JUMPDEST SWAP2 POP PUSH2 0x3AFA DUP3 PUSH2 0x3ABB JUMP JUMPDEST PUSH1 0x20 DUP3 ADD SWAP1 POP SWAP2 SWAP1 POP JUMP JUMPDEST PUSH0 PUSH1 0x20 DUP3 ADD SWAP1 POP DUP2 DUP2 SUB PUSH0 DUP4 ADD MSTORE PUSH2 0x3B1C DUP2 PUSH2 0x3AE3 JUMP JUMPDEST SWAP1 POP SWAP2 SWAP1 POP JUMP JUMPDEST PUSH0 PUSH1 0x60 DUP3 ADD SWAP1 POP PUSH2 0x3B36 PUSH0 DUP4 ADD DUP7 PUSH2 0x3084 JUMP JUMPDEST PUSH2 0x3B43 PUSH1 0x20 DUP4 ADD DUP6 PUSH2 0x3084 JUMP JUMPDEST PUSH2 0x3B50 PUSH1 0x40 DUP4 ADD DUP5 PUSH2 0x3084 JUMP JUMPDEST SWAP5 SWAP4 POP POP POP POP JUMP JUMPDEST PUSH32 0x4E6F206665657320746F20636F6C6C6563740000000000000000000000000000 PUSH0 DUP3 ADD MSTORE POP JUMP JUMPDEST PUSH0 PUSH2 0x3B8C PUSH1 0x12 DUP4 PUSH2 0x30AC JUMP JUMPDEST SWAP2 POP PUSH2 0x3B97 DUP3 PUSH2 0x3B58 JUMP JUMPDEST PUSH1 0x20 DUP3 ADD SWAP1 POP SWAP2 SWAP1 POP JUMP JUMPDEST PUSH0 PUSH1 0x20 DUP3 ADD SWAP1 POP DUP2 DUP2 SUB PUSH0 DUP4 ADD MSTORE PUSH2 0x3BB9 DUP2 PUSH2 0x3B80 JUMP JUMPDEST SWAP1 POP SWAP2 SWAP1 POP JUMP JUMPDEST PUSH32 0x456D657267656E63792064656C6179206E6F74206D6574000000000000000000 PUSH0 DUP3 ADD MSTORE POP JUMP JUMPDEST PUSH0 PUSH2 0x3BF4 PUSH1 0x17 DUP4 PUSH2 0x30AC JUMP JUMPDEST SWAP2 POP PUSH2 0x3BFF DUP3 PUSH2 0x3BC0 JUMP JUMPDEST PUSH1 0x20 DUP3 ADD SWAP1 POP SWAP2 SWAP1 POP JUMP JUMPDEST PUSH0 PUSH1 0x20 DUP3 ADD SWAP1 POP DUP2 DUP2 SUB PUSH0 DUP4 ADD MSTORE PUSH2 0x3C21 DUP2 PUSH2 0x3BE8 JUMP JUMPDEST SWAP1 POP SWAP2 SWAP1 POP JUMP JUMPDEST PUSH32 0x4E6F2066756E647320746F207769746864726177000000000000000000000000 PUSH0 DUP3 ADD MSTORE POP JUMP JUMPDEST PUSH0 PUSH2 0x3C5C PUSH1 0x14 DUP4 PUSH2 0x30AC JUMP JUMPDEST SWAP2 POP PUSH2 0x3C67 DUP3 PUSH2 0x3C28 JUMP JUMPDEST PUSH1 0x20 DUP3 ADD SWAP1 POP SWAP2 SWAP1 POP JUMP JUMPDEST PUSH0 PUSH1 0x20 DUP3 ADD SWAP1 POP DUP2 DUP2 SUB PUSH0 DUP4 ADD MSTORE PUSH2 0x3C89 DUP2 PUSH2 0x3C50 JUMP JUMPDEST SWAP1 POP SWAP2 SWAP1 POP JUMP JUMPDEST PUSH32 0x456D657267656E6379207769746864726177616C206661696C65640000000000 PUSH0 DUP3 ADD MSTORE POP JUMP JUMPDEST PUSH0 PUSH2 0x3CC4 PUSH1 0x1B DUP4 PUSH2 0x30AC JUMP JUMPDEST SWAP2 POP PUSH2 0x3CCF DUP3 PUSH2 0x3C90 JUMP JUMPDEST PUSH1 0x20 DUP3 ADD SWAP1 POP SWAP2 SWAP1 POP JUMP JUMPDEST PUSH0 PUSH1 0x20 DUP3 ADD SWAP1 POP DUP2 DUP2 SUB PUSH0 DUP4 ADD MSTORE PUSH2 0x3CF1 DUP2 PUSH2 0x3CB8 JUMP JUMPDEST SWAP1 POP SWAP2 SWAP1 POP JUMP JUMPDEST PUSH0 PUSH2 0x3D02 DUP3 PUSH2 0x301B JUMP JUMPDEST SWAP2 POP PUSH2 0x3D0D DUP4 PUSH2 0x301B JUMP JUMPDEST SWAP3 POP DUP3 DUP3 MUL PUSH2 0x3D1B DUP2 PUSH2 0x301B JUMP JUMPDEST SWAP2 POP DUP3 DUP3 DIV DUP5 EQ DUP4 ISZERO OR PUSH2 0x3D32 JUMPI PUSH2 0x3D31 PUSH2 0x3024 JUMP JUMPDEST JUMPDEST POP SWAP3 SWAP2 POP POP JUMP JUMPDEST PUSH32 0x4E487B7100000000000000000000000000000000000000000000000000000000 PUSH0 MSTORE PUSH1 0x12 PUSH1 0x4 MSTORE PUSH1 0x24 PUSH0 REVERT JUMPDEST PUSH0 PUSH2 0x3D70 DUP3 PUSH2 0x301B JUMP JUMPDEST SWAP2 POP PUSH2 0x3D7B DUP4 PUSH2 0x301B JUMP JUMPDEST SWAP3 POP DUP3 PUSH2 0x3D8B JUMPI PUSH2 0x3D8A PUSH2 0x3D39 JUMP JUMPDEST JUMPDEST DUP3 DUP3 DIV SWAP1 POP SWAP3 SWAP2 POP POP JUMP JUMPDEST PUSH32 0x5265656E7472616E637947756172643A207265656E7472616E742063616C6C00 PUSH0 DUP3 ADD MSTORE POP JUMP JUMPDEST PUSH0 PUSH2 0x3DCA PUSH1 0x1F DUP4 PUSH2 0x30AC JUMP JUMPDEST SWAP2 POP PUSH2 0x3DD5 DUP3 PUSH2 0x3D96 JUMP JUMPDEST PUSH1 0x20 DUP3 ADD SWAP1 POP SWAP2 SWAP1 POP JUMP JUMPDEST PUSH0 PUSH1 0x20 DUP3 ADD SWAP1 POP DUP2 DUP2 SUB PUSH0 DUP4 ADD MSTORE PUSH2 0x3DF7 DUP2 PUSH2 0x3DBE JUMP JUMPDEST SWAP1 POP SWAP2 SWAP1 POP JUMP JUMPDEST PUSH32 0x5061757361626C653A2070617573656400000000000000000000000000000000 PUSH0 DUP3 ADD MSTORE POP JUMP JUMPDEST PUSH0 PUSH2 0x3E32 PUSH1 0x10 DUP4 PUSH2 0x30AC JUMP JUMPDEST SWAP2 POP PUSH2 0x3E3D DUP3 PUSH2 0x3DFE JUMP JUMPDEST PUSH1 0x20 DUP3 ADD SWAP1 POP SWAP2 SWAP1 POP JUMP JUMPDEST PUSH0 PUSH1 0x20 DUP3 ADD SWAP1 POP DUP2 DUP2 SUB PUSH0 DUP4 ADD MSTORE PUSH2 0x3E5F DUP2 PUSH2 0x3E26 JUMP JUMPDEST SWAP1 POP SWAP2 SWAP1 POP JUMP JUMPDEST PUSH32 0x5472616E73666572206661696C65640000000000000000000000000000000000 PUSH0 DUP3 ADD MSTORE POP JUMP JUMPDEST PUSH0 PUSH2 0x3E9A PUSH1 0xF DUP4 PUSH2 0x30AC JUMP JUMPDEST SWAP2 POP PUSH2 0x3EA5 DUP3 PUSH2 0x3E66 JUMP JUMPDEST PUSH1 0x20 DUP3 ADD SWAP1 POP SWAP2 SWAP1 POP JUMP JUMPDEST PUSH0 PUSH1 0x20 DUP3 ADD SWAP1 POP DUP2 DUP2 SUB PUSH0 DUP4 ADD MSTORE PUSH2 0x3EC7 DUP2 PUSH2 0x3E8E JUMP JUMPDEST SWAP1 POP SWAP2 SWAP1 POP JUMP JUMPDEST PUSH32 0x5061757361626C653A206E6F7420706175736564000000000000000000000000 PUSH0 DUP3 ADD MSTORE POP JUMP JUMPDEST PUSH0 PUSH2 0x3F02 PUSH1 0x14 DUP4 PUSH2 0x30AC JUMP JUMPDEST SWAP2 POP PUSH2 0x3F0D DUP3 PUSH2 0x3ECE JUMP JUMPDEST PUSH1 0x20 DUP3 ADD SWAP1 POP SWAP2 SWAP1 POP JUMP JUMPDEST PUSH0 PUSH1 0x20 DUP3 ADD SWAP1 POP DUP2 DUP2 SUB PUSH0 DUP4 ADD MSTORE PUSH2 0x3F2F DUP2 PUSH2 0x3EF6 JUMP JUMPDEST SWAP1 POP SWAP2 SWAP1 POP JUMP INVALID LOG2 PUSH5 0x6970667358 0x22 SLT KECCAK256 PUSH11 0x208A6494ED47384DA9FBF6 DUPN 0x7D 0xBA 0xBC EXTDELEGATECALL 0xC1 0x26 0xDA CODESIZE 0xC NOT 0xC0 CALLDATASIZE 0xBA JUMPF 0x4CB1 0xB5 MLOAD PUSH12 0x64736F6C634300081E003300 "
		},
		"gasEstimates": {
			"creation": {
				"codeDepositCost": "3247200",
				"executionCost": "infinite",
				"totalCost": "infinite"
			},
			"external": {
				"": "535",
				"BASIS_POINTS()": "458",
				"MAX_YIELD_RATE()": "480",
				"MIN_STAKE_AMOUNT()": "437",
				"MIN_YIELD_RATE()": "393",
				"YIELD_CALCULATION_PERIOD()": "415",
				"authorizedCallers(address)": "2900",
				"collectNetworkFees()": "infinite",
				"distributeFees()": "infinite",
				"emergencyPause()": "infinite",
				"emergencyRequestTime(address)": "2847",
				"emergencyUnpause()": "infinite",
				"emergencyWithdrawalDelay()": "2514",
				"executeEmergencyWithdrawal()": "infinite",
				"getCurrentAPY()": "2572",
				"getGlobalYieldPool()": "infinite",
				"getNetworkFeePool()": "2478",
				"getPotTotalStaked(uint256)": "infinite",
				"getUserCurrentYield(address,uint256)": "infinite",
				"getUserStake(address,uint256)": "infinite",
				"getUserStakeCount(address)": "2883",
				"getUserTotalYield(address)": "infinite",
				"globalYieldPool()": "infinite",
				"networkFeePool()": "2538",
				"owner()": "2626",
				"pause()": "infinite",
				"paused()": "2584",
				"potStakes(uint256,uint256)": "infinite",
				"potTotalStaked(uint256)": "infinite",
				"protocolFeeRate()": "2514",
				"renounceOwnership()": "infinite",
				"requestEmergencyWithdrawal()": "23980",
				"setAuthorizedCaller(address,bool)": "infinite",
				"stakeBtc(uint256)": "infinite",
				"stakeBtcForUser(address,uint256)": "infinite",
				"transferOwnership(address)": "infinite",
				"unpause()": "infinite",
				"unstakeBtc(uint256)": "infinite",
				"unstakeBtcForUser(address,uint256,address)": "infinite",
				"updateProtocolFeeRate(uint256)": "infinite",
				"updateStakeYield(address,uint256)": "infinite",
				"updateYieldRate(uint256)": "infinite",
				"userStakes(address,uint256)": "infinite",
				"userTotalStaked(address)": "2870",
				"withdrawProtocolFees(address,uint256)": "infinite"
			},
			"internal": {
				"_calculateYield(address,uint256)": "infinite",
				"_unstakeBtcInternal(address,uint256,address)": "infinite",
				"_updateGlobalYield()": "infinite"
			}
		},
		"methodIdentifiers": {
			"BASIS_POINTS()": "e1f1c4a7",
			"MAX_YIELD_RATE()": "6987ca1d",
			"MIN_STAKE_AMOUNT()": "27ed7188",
			"MIN_YIELD_RATE()": "304a900d",
			"YIELD_CALCULATION_PERIOD()": "1e99921b",
			"authorizedCallers(address)": "536fff6c",
			"collectNetworkFees()": "c69ecf0b",
			"distributeFees()": "bb57ad20",
			"emergencyPause()": "51858e27",
			"emergencyRequestTime(address)": "96ca8d27",
			"emergencyUnpause()": "4a4e3bd5",
			"emergencyWithdrawalDelay()": "b4f74031",
			"executeEmergencyWithdrawal()": "f4993bbd",
			"getCurrentAPY()": "962ca496",
			"getGlobalYieldPool()": "1683e9ce",
			"getNetworkFeePool()": "30063e3b",
			"getPotTotalStaked(uint256)": "148a1ed7",
			"getUserCurrentYield(address,uint256)": "0b48baba",
			"getUserStake(address,uint256)": "cec695fa",
			"getUserStakeCount(address)": "1b545a17",
			"getUserTotalYield(address)": "1bc6a778",
			"globalYieldPool()": "e65eaff7",
			"networkFeePool()": "16a54675",
			"owner()": "8da5cb5b",
			"pause()": "8456cb59",
			"paused()": "5c975abb",
			"potStakes(uint256,uint256)": "cffb911e",
			"potTotalStaked(uint256)": "ec669457",
			"protocolFeeRate()": "58f85880",
			"renounceOwnership()": "715018a6",
			"requestEmergencyWithdrawal()": "caa7c8aa",
			"setAuthorizedCaller(address,bool)": "454bbd29",
			"stakeBtc(uint256)": "f74b51b3",
			"stakeBtcForUser(address,uint256)": "c5b4f407",
			"transferOwnership(address)": "f2fde38b",
			"unpause()": "3f4ba83a",
			"unstakeBtc(uint256)": "e8421b5e",
			"unstakeBtcForUser(address,uint256,address)": "2d4c5abe",
			"updateProtocolFeeRate(uint256)": "6340d55c",
			"updateStakeYield(address,uint256)": "a83481e1",
			"updateYieldRate(uint256)": "2f0f8a7a",
			"userStakes(address,uint256)": "b5d5b5fa",
			"userTotalStaked(address)": "719de1ef",
			"withdrawProtocolFees(address,uint256)": "1a7a73c2"
		}
	},
	"abi": [
		{
			"inputs": [],
			"stateMutability": "nonpayable",
			"type": "constructor"
		},
		{
			"inputs": [
				{
					"internalType": "address",
					"name": "owner",
					"type": "address"
				}
			],
			"name": "OwnableInvalidOwner",
			"type": "error"
		},
		{
			"inputs": [
				{
					"internalType": "address",
					"name": "account",
					"type": "address"
				}
			],
			"name": "OwnableUnauthorizedAccount",
			"type": "error"
		},
		{
			"anonymous": false,
			"inputs": [
				{
					"indexed": true,
					"internalType": "address",
					"name": "caller",
					"type": "address"
				},
				{
					"indexed": false,
					"internalType": "bool",
					"name": "authorized",
					"type": "bool"
				}
			],
			"name": "AuthorizedCallerUpdated",
			"type": "event"
		},
		{
			"anonymous": false,
			"inputs": [
				{
					"indexed": true,
					"internalType": "address",
					"name": "user",
					"type": "address"
				},
				{
					"indexed": false,
					"internalType": "uint256",
					"name": "amount",
					"type": "uint256"
				},
				{
					"indexed": false,
					"internalType": "uint256",
					"name": "potId",
					"type": "uint256"
				},
				{
					"indexed": false,
					"internalType": "uint256",
					"name": "stakeIndex",
					"type": "uint256"
				}
			],
			"name": "BtcStaked",
			"type": "event"
		},
		{
			"anonymous": false,
			"inputs": [
				{
					"indexed": true,
					"internalType": "address",
					"name": "user",
					"type": "address"
				},
				{
					"indexed": false,
					"internalType": "uint256",
					"name": "amount",
					"type": "uint256"
				},
				{
					"indexed": false,
					"internalType": "uint256",
					"name": "yield",
					"type": "uint256"
				},
				{
					"indexed": false,
					"internalType": "uint256",
					"name": "stakeIndex",
					"type": "uint256"
				}
			],
			"name": "BtcUnstaked",
			"type": "event"
		},
		{
			"anonymous": false,
			"inputs": [
				{
					"indexed": true,
					"internalType": "address",
					"name": "user",
					"type": "address"
				},
				{
					"indexed": false,
					"internalType": "uint256",
					"name": "amount",
					"type": "uint256"
				}
			],
			"name": "EmergencyWithdrawalExecuted",
			"type": "event"
		},
		{
			"anonymous": false,
			"inputs": [
				{
					"indexed": true,
					"internalType": "address",
					"name": "user",
					"type": "address"
				},
				{
					"indexed": false,
					"internalType": "uint256",
					"name": "requestTime",
					"type": "uint256"
				}
			],
			"name": "EmergencyWithdrawalRequested",
			"type": "event"
		},
		{
			"anonymous": false,
			"inputs": [
				{
					"indexed": false,
					"internalType": "uint256",
					"name": "amount",
					"type": "uint256"
				}
			],
			"name": "NetworkFeesCollected",
			"type": "event"
		},
		{
			"anonymous": false,
			"inputs": [
				{
					"indexed": true,
					"internalType": "address",
					"name": "previousOwner",
					"type": "address"
				},
				{
					"indexed": true,
					"internalType": "address",
					"name": "newOwner",
					"type": "address"
				}
			],
			"name": "OwnershipTransferred",
			"type": "event"
		},
		{
			"anonymous": false,
			"inputs": [
				{
					"indexed": false,
					"internalType": "address",
					"name": "account",
					"type": "address"
				}
			],
			"name": "Paused",
			"type": "event"
		},
		{
			"anonymous": false,
			"inputs": [
				{
					"indexed": false,
					"internalType": "uint256",
					"name": "oldRate",
					"type": "uint256"
				},
				{
					"indexed": false,
					"internalType": "uint256",
					"name": "newRate",
					"type": "uint256"
				}
			],
			"name": "ProtocolFeeRateUpdated",
			"type": "event"
		},
		{
			"anonymous": false,
			"inputs": [
				{
					"indexed": false,
					"internalType": "address",
					"name": "account",
					"type": "address"
				}
			],
			"name": "Unpaused",
			"type": "event"
		},
		{
			"anonymous": false,
			"inputs": [
				{
					"indexed": true,
					"internalType": "address",
					"name": "user",
					"type": "address"
				},
				{
					"indexed": false,
					"internalType": "uint256",
					"name": "amount",
					"type": "uint256"
				},
				{
					"indexed": false,
					"internalType": "uint256",
					"name": "stakeIndex",
					"type": "uint256"
				}
			],
			"name": "YieldAccrued",
			"type": "event"
		},
		{
			"anonymous": false,
			"inputs": [
				{
					"indexed": false,
					"internalType": "uint256",
					"name": "oldRate",
					"type": "uint256"
				},
				{
					"indexed": false,
					"internalType": "uint256",
					"name": "newRate",
					"type": "uint256"
				}
			],
			"name": "YieldRateUpdated",
			"type": "event"
		},
		{
			"stateMutability": "payable",
			"type": "fallback"
		},
		{
			"inputs": [],
			"name": "BASIS_POINTS",
			"outputs": [
				{
					"internalType": "uint256",
					"name": "",
					"type": "uint256"
				}
			],
			"stateMutability": "view",
			"type": "function"
		},
		{
			"inputs": [],
			"name": "MAX_YIELD_RATE",
			"outputs": [
				{
					"internalType": "uint256",
					"name": "",
					"type": "uint256"
				}
			],
			"stateMutability": "view",
			"type": "function"
		},
		{
			"inputs": [],
			"name": "MIN_STAKE_AMOUNT",
			"outputs": [
				{
					"internalType": "uint256",
					"name": "",
					"type": "uint256"
				}
			],
			"stateMutability": "view",
			"type": "function"
		},
		{
			"inputs": [],
			"name": "MIN_YIELD_RATE",
			"outputs": [
				{
					"internalType": "uint256",
					"name": "",
					"type": "uint256"
				}
			],
			"stateMutability": "view",
			"type": "function"
		},
		{
			"inputs": [],
			"name": "YIELD_CALCULATION_PERIOD",
			"outputs": [
				{
					"internalType": "uint256",
					"name": "",
					"type": "uint256"
				}
			],
			"stateMutability": "view",
			"type": "function"
		},
		{
			"inputs": [
				{
					"internalType": "address",
					"name": "",
					"type": "address"
				}
			],
			"name": "authorizedCallers",
			"outputs": [
				{
					"internalType": "bool",
					"name": "",
					"type": "bool"
				}
			],
			"stateMutability": "view",
			"type": "function"
		},
		{
			"inputs": [],
			"name": "collectNetworkFees",
			"outputs": [],
			"stateMutability": "payable",
			"type": "function"
		},
		{
			"inputs": [],
			"name": "distributeFees",
			"outputs": [],
			"stateMutability": "nonpayable",
			"type": "function"
		},
		{
			"inputs": [],
			"name": "emergencyPause",
			"outputs": [],
			"stateMutability": "nonpayable",
			"type": "function"
		},
		{
			"inputs": [
				{
					"internalType": "address",
					"name": "",
					"type": "address"
				}
			],
			"name": "emergencyRequestTime",
			"outputs": [
				{
					"internalType": "uint256",
					"name": "",
					"type": "uint256"
				}
			],
			"stateMutability": "view",
			"type": "function"
		},
		{
			"inputs": [],
			"name": "emergencyUnpause",
			"outputs": [],
			"stateMutability": "nonpayable",
			"type": "function"
		},
		{
			"inputs": [],
			"name": "emergencyWithdrawalDelay",
			"outputs": [
				{
					"internalType": "uint256",
					"name": "",
					"type": "uint256"
				}
			],
			"stateMutability": "view",
			"type": "function"
		},
		{
			"inputs": [],
			"name": "executeEmergencyWithdrawal",
			"outputs": [],
			"stateMutability": "nonpayable",
			"type": "function"
		},
		{
			"inputs": [],
			"name": "getCurrentAPY",
			"outputs": [
				{
					"internalType": "uint256",
					"name": "",
					"type": "uint256"
				}
			],
			"stateMutability": "view",
			"type": "function"
		},
		{
			"inputs": [],
			"name": "getGlobalYieldPool",
			"outputs": [
				{
					"internalType": "uint256",
					"name": "totalStaked",
					"type": "uint256"
				},
				{
					"internalType": "uint256",
					"name": "totalYieldGenerated",
					"type": "uint256"
				},
				{
					"internalType": "uint256",
					"name": "currentYieldRate",
					"type": "uint256"
				},
				{
					"internalType": "uint256",
					"name": "participantCount",
					"type": "uint256"
				}
			],
			"stateMutability": "view",
			"type": "function"
		},
		{
			"inputs": [],
			"name": "getNetworkFeePool",
			"outputs": [
				{
					"internalType": "uint256",
					"name": "",
					"type": "uint256"
				}
			],
			"stateMutability": "view",
			"type": "function"
		},
		{
			"inputs": [
				{
					"internalType": "uint256",
					"name": "potId",
					"type": "uint256"
				}
			],
			"name": "getPotTotalStaked",
			"outputs": [
				{
					"internalType": "uint256",
					"name": "",
					"type": "uint256"
				}
			],
			"stateMutability": "view",
			"type": "function"
		},
		{
			"inputs": [
				{
					"internalType": "address",
					"name": "user",
					"type": "address"
				},
				{
					"internalType": "uint256",
					"name": "stakeIndex",
					"type": "uint256"
				}
			],
			"name": "getUserCurrentYield",
			"outputs": [
				{
					"internalType": "uint256",
					"name": "",
					"type": "uint256"
				}
			],
			"stateMutability": "view",
			"type": "function"
		},
		{
			"inputs": [
				{
					"internalType": "address",
					"name": "user",
					"type": "address"
				},
				{
					"internalType": "uint256",
					"name": "stakeIndex",
					"type": "uint256"
				}
			],
			"name": "getUserStake",
			"outputs": [
				{
					"components": [
						{
							"internalType": "uint256",
							"name": "principal",
							"type": "uint256"
						},
						{
							"internalType": "uint256",
							"name": "accruedYield",
							"type": "uint256"
						},
						{
							"internalType": "uint256",
							"name": "lastUpdateTime",
							"type": "uint256"
						},
						{
							"internalType": "uint256",
							"name": "potId",
							"type": "uint256"
						},
						{
							"internalType": "bool",
							"name": "isActive",
							"type": "bool"
						}
					],
					"internalType": "struct CitreaNativeYieldManager.StakeInfo",
					"name": "",
					"type": "tuple"
				}
			],
			"stateMutability": "view",
			"type": "function"
		},
		{
			"inputs": [
				{
					"internalType": "address",
					"name": "user",
					"type": "address"
				}
			],
			"name": "getUserStakeCount",
			"outputs": [
				{
					"internalType": "uint256",
					"name": "",
					"type": "uint256"
				}
			],
			"stateMutability": "view",
			"type": "function"
		},
		{
			"inputs": [
				{
					"internalType": "address",
					"name": "user",
					"type": "address"
				}
			],
			"name": "getUserTotalYield",
			"outputs": [
				{
					"internalType": "uint256",
					"name": "totalYield",
					"type": "uint256"
				}
			],
			"stateMutability": "view",
			"type": "function"
		},
		{
			"inputs": [],
			"name": "globalYieldPool",
			"outputs": [
				{
					"internalType": "uint256",
					"name": "totalStaked",
					"type": "uint256"
				},
				{
					"internalType": "uint256",
					"name": "totalYieldGenerated",
					"type": "uint256"
				},
				{
					"internalType": "uint256",
					"name": "currentYieldRate",
					"type": "uint256"
				},
				{
					"internalType": "uint256",
					"name": "lastYieldUpdate",
					"type": "uint256"
				},
				{
					"internalType": "uint256",
					"name": "participantCount",
					"type": "uint256"
				}
			],
			"stateMutability": "view",
			"type": "function"
		},
		{
			"inputs": [],
			"name": "networkFeePool",
			"outputs": [
				{
					"internalType": "uint256",
					"name": "",
					"type": "uint256"
				}
			],
			"stateMutability": "view",
			"type": "function"
		},
		{
			"inputs": [],
			"name": "owner",
			"outputs": [
				{
					"internalType": "address",
					"name": "",
					"type": "address"
				}
			],
			"stateMutability": "view",
			"type": "function"
		},
		{
			"inputs": [],
			"name": "pause",
			"outputs": [],
			"stateMutability": "nonpayable",
			"type": "function"
		},
		{
			"inputs": [],
			"name": "paused",
			"outputs": [
				{
					"internalType": "bool",
					"name": "",
					"type": "bool"
				}
			],
			"stateMutability": "view",
			"type": "function"
		},
		{
			"inputs": [
				{
					"internalType": "uint256",
					"name": "",
					"type": "uint256"
				},
				{
					"internalType": "uint256",
					"name": "",
					"type": "uint256"
				}
			],
			"name": "potStakes",
			"outputs": [
				{
					"internalType": "uint256",
					"name": "principal",
					"type": "uint256"
				},
				{
					"internalType": "uint256",
					"name": "accruedYield",
					"type": "uint256"
				},
				{
					"internalType": "uint256",
					"name": "lastUpdateTime",
					"type": "uint256"
				},
				{
					"internalType": "uint256",
					"name": "potId",
					"type": "uint256"
				},
				{
					"internalType": "bool",
					"name": "isActive",
					"type": "bool"
				}
			],
			"stateMutability": "view",
			"type": "function"
		},
		{
			"inputs": [
				{
					"internalType": "uint256",
					"name": "",
					"type": "uint256"
				}
			],
			"name": "potTotalStaked",
			"outputs": [
				{
					"internalType": "uint256",
					"name": "",
					"type": "uint256"
				}
			],
			"stateMutability": "view",
			"type": "function"
		},
		{
			"inputs": [],
			"name": "protocolFeeRate",
			"outputs": [
				{
					"internalType": "uint256",
					"name": "",
					"type": "uint256"
				}
			],
			"stateMutability": "view",
			"type": "function"
		},
		{
			"inputs": [],
			"name": "renounceOwnership",
			"outputs": [],
			"stateMutability": "nonpayable",
			"type": "function"
		},
		{
			"inputs": [],
			"name": "requestEmergencyWithdrawal",
			"outputs": [],
			"stateMutability": "nonpayable",
			"type": "function"
		},
		{
			"inputs": [
				{
					"internalType": "address",
					"name": "caller",
					"type": "address"
				},
				{
					"internalType": "bool",
					"name": "authorized",
					"type": "bool"
				}
			],
			"name": "setAuthorizedCaller",
			"outputs": [],
			"stateMutability": "nonpayable",
			"type": "function"
		},
		{
			"inputs": [
				{
					"internalType": "uint256",
					"name": "potId",
					"type": "uint256"
				}
			],
			"name": "stakeBtc",
			"outputs": [],
			"stateMutability": "payable",
			"type": "function"
		},
		{
			"inputs": [
				{
					"internalType": "address",
					"name": "user",
					"type": "address"
				},
				{
					"internalType": "uint256",
					"name": "potId",
					"type": "uint256"
				}
			],
			"name": "stakeBtcForUser",
			"outputs": [],
			"stateMutability": "payable",
			"type": "function"
		},
		{
			"inputs": [
				{
					"internalType": "address",
					"name": "newOwner",
					"type": "address"
				}
			],
			"name": "transferOwnership",
			"outputs": [],
			"stateMutability": "nonpayable",
			"type": "function"
		},
		{
			"inputs": [],
			"name": "unpause",
			"outputs": [],
			"stateMutability": "nonpayable",
			"type": "function"
		},
		{
			"inputs": [
				{
					"internalType": "uint256",
					"name": "stakeIndex",
					"type": "uint256"
				}
			],
			"name": "unstakeBtc",
			"outputs": [],
			"stateMutability": "nonpayable",
			"type": "function"
		},
		{
			"inputs": [
				{
					"internalType": "address",
					"name": "user",
					"type": "address"
				},
				{
					"internalType": "uint256",
					"name": "stakeIndex",
					"type": "uint256"
				},
				{
					"internalType": "address",
					"name": "recipient",
					"type": "address"
				}
			],
			"name": "unstakeBtcForUser",
			"outputs": [],
			"stateMutability": "nonpayable",
			"type": "function"
		},
		{
			"inputs": [
				{
					"internalType": "uint256",
					"name": "newRate",
					"type": "uint256"
				}
			],
			"name": "updateProtocolFeeRate",
			"outputs": [],
			"stateMutability": "nonpayable",
			"type": "function"
		},
		{
			"inputs": [
				{
					"internalType": "address",
					"name": "user",
					"type": "address"
				},
				{
					"internalType": "uint256",
					"name": "stakeIndex",
					"type": "uint256"
				}
			],
			"name": "updateStakeYield",
			"outputs": [],
			"stateMutability": "nonpayable",
			"type": "function"
		},
		{
			"inputs": [
				{
					"internalType": "uint256",
					"name": "newRate",
					"type": "uint256"
				}
			],
			"name": "updateYieldRate",
			"outputs": [],
			"stateMutability": "nonpayable",
			"type": "function"
		},
		{
			"inputs": [
				{
					"internalType": "address",
					"name": "",
					"type": "address"
				},
				{
					"internalType": "uint256",
					"name": "",
					"type": "uint256"
				}
			],
			"name": "userStakes",
			"outputs": [
				{
					"internalType": "uint256",
					"name": "principal",
					"type": "uint256"
				},
				{
					"internalType": "uint256",
					"name": "accruedYield",
					"type": "uint256"
				},
				{
					"internalType": "uint256",
					"name": "lastUpdateTime",
					"type": "uint256"
				},
				{
					"internalType": "uint256",
					"name": "potId",
					"type": "uint256"
				},
				{
					"internalType": "bool",
					"name": "isActive",
					"type": "bool"
				}
			],
			"stateMutability": "view",
			"type": "function"
		},
		{
			"inputs": [
				{
					"internalType": "address",
					"name": "",
					"type": "address"
				}
			],
			"name": "userTotalStaked",
			"outputs": [
				{
					"internalType": "uint256",
					"name": "",
					"type": "uint256"
				}
			],
			"stateMutability": "view",
			"type": "function"
		},
		{
			"inputs": [
				{
					"internalType": "address",
					"name": "recipient",
					"type": "address"
				},
				{
					"internalType": "uint256",
					"name": "amount",
					"type": "uint256"
				}
			],
			"name": "withdrawProtocolFees",
			"outputs": [],
			"stateMutability": "nonpayable",
			"type": "function"
		},
		{
			"stateMutability": "payable",
			"type": "receive"
		}
	]
}