{
	"data": {
		"bytecode": {
			"linkReferences": {},
			"object": "6080806040523460d657331560c3575f8054336001600160a01b0319821681178355916001600160a01b03909116907f8be0079c531659141344cd1fd0a4f28419497f9722a3daafe3b4186f6b6457e09080a36001805560ff19600254166002556001690101000000000000000060045461012c60055582600355828060501b031916171760045543600a555f19430143811160af57435f5260096020524060405f205561269e90816100db8239f35b634e487b7160e01b5f52601160045260245ffd5b631e4fbdf760e01b5f525f60045260245ffd5b5f80fdfe6080806040526004361015610052575b5036156100505760405162461bcd60e51b8152602060048201526012602482015271119d5b98dd1a5bdb881b9bdd08199bdd5b9960721b6044820152606490fd5b005b5f3560e01c9081630f855ec214611d5e5750806323806fad14611d0e578063262fd73314611bd357806327837eaf14611b125780633959602d14611aed57806345c7006914611955578063461d54e9146116015780634a4e3bd51461156e57806351858e271461151557806352bfa7e51461133d57806358859d741461122f5780635c975abb1461120d5780635f2c66d8146111f157806365b07d581461113c57806369b162011461111257806369dc3ae2146110d557806369f74f6d146110765780636b27e2bb146110045780636e68fc0a14610f9d578063715018a614610f465780637402e13d14610ec2578063888eeea614610ea75780638da5cb5b14610e80578063b76755c514610e5b578063c7513f8714610e3e578063cbbf67ec14610c5a578063cd3b842e14610b95578063d21fb42114610adf578063d598e967146109df578063e71bfdc0146109c2578063e7c4155d1461067a578063f2fcd3281461049a578063f2fde38b14610415578063f3baf070146103f9578063f3fef3a3146102c85763fe6d06b4146101ea575f61000f565b346102c45760403660031901126102c457610203611e05565b61020b611db3565b905f608060405161021b81611e46565b828152826020820152826040820152826060820152015260018060a01b03165f5260076020526001600160401b0360405f2091165f5260205260a060405f2060405161026681611e46565b81549182825260018101546020830190815260ff600283015416906040840191151582526080600460038501549460608701958652015494019384526040519485525160208501525115156040840152516060830152516080820152f35b5f80fd5b346102c45760403660031901126102c4576102e1611e05565b602435906102ed612121565b6102f5612147565b6001600160a01b031680156103c057478211610384575f80809381935af13d1561037f573d61032381611e82565b906103316040519283611e61565b81525f60203d92013e5b156103465760018055005b60405162461bcd60e51b815260206004820152601160248201527015da5d1a191c985dd85b0819985a5b1959607a1b6044820152606490fd5b61033b565b60405162461bcd60e51b8152602060048201526014602482015273496e73756666696369656e742062616c616e636560601b6044820152606490fd5b60405162461bcd60e51b8152602060048201526011602482015270125b9d985b1a59081c9958da5c1a595b9d607a1b6044820152606490fd5b346102c4575f3660031901126102c45760206040516103e88152f35b346102c45760203660031901126102c45761042e611e05565b610436612121565b6001600160a01b03168015610487575f80546001600160a01b03198116831782556001600160a01b0316907f8be0079c531659141344cd1fd0a4f28419497f9722a3daafe3b4186f6b6457e09080a3005b631e4fbdf760e01b5f525f60045260245ffd5b346102c45760403660031901126102c4576104b3611d9d565b6001600160401b03602435916104c76122e1565b6104cf612147565b16805f526006602052600860405f2061051460ff60048301546104fb60018060a01b0382161515611f95565b61050a8260098601541661204b565b60a01c1615611fd5565b0180544210156106355782156105fb57335f52600760205260405f20825f5260205260405f209061054c60ff60028401541615612097565b815415610596575b600490848355436003840155549101556040519182527f776af115a08ee6e6223c4848e4da1ae6f545754de0f819e8baa689e540cca35160203393a360018055005b825f52600860205260405f2090815491600160401b8310156105e757826105c4916001600495018155611f20565b81546001600160a01b0360039290921b91821b19163390911b1790559050610554565b634e487b7160e01b5f52604160045260245ffd5b60405162461bcd60e51b8152602060048201526012602482015271125b9d985b1a590818dbdb5b5a5d1b595b9d60721b6044820152606490fd5b60405162461bcd60e51b815260206004820152601760248201527f436f6d6d69746d656e7420706572696f6420656e6465640000000000000000006044820152606490fd5b346102c45760603660031901126102c45760043560243560443580151581036102c4576106a56122e1565b8282111561098d576fffffffffffffffffffffffffffffffff6106c88484611f88565b116109565760045491816001600160401b036106e5818616612021565b166001600160401b0319851617806004556107026005544261203e565b9082610948575b506040519161071783611e2a565b600183526020830193606085526040840197885260608401908152608084019033825260a08501905f825260c086019343855260e08701954287525f61010089015261012088015215156101408701526001600160401b0389165f52600660205260405f2096865160038110156109345760ff80198a5416911617885551998a519a6001600160401b038c116105e757600160401b8c116105e75760018901548c60018b0155808d1061090b575b506020019a600189015f5260205f209b5f905b8282106108ee575050815160028a0155825160038a0155845160048a018054865160ff60a01b90151560a01b166001600160a01b039093166001600160a81b03199091161791909117905560208b8b61086c8c60096101408e8e8e516005860155516006850155610100810151600785015561012081015160088501550151151591019060ff801983541691151516179055565b60405160018152811515848201527fe0ce7aaeb215bb79a9dd4dc5a9e9268c5abaa14011f5aafa4cc86140273db5de60406001600160401b03851692a28015906108de575b6108c7575b6001600160401b0360405191168152f35b6108d96001600160401b038216612325565b6108b6565b5060ff60045460481c16156108b1565b80516001600160a01b03168e8301556001909101906020016107d8565b60018a015f528c60205f2091820191015b81811061092957506107c5565b5f815560010161091c565b634e487b7160e01b5f52602160045260245ffd5b60481c60ff16915086610709565b60405162461bcd60e51b815260206004820152600f60248201526e52616e676520746f6f206c6172676560881b6044820152606490fd5b60405162461bcd60e51b815260206004820152600d60248201526c496e76616c69642072616e676560981b6044820152606490fd5b346102c4575f3660031901126102c4576020600554604051908152f35b346102c45760403660031901126102c4576004358015908115918282036102c457610a08611e1b565b91610a11612121565b90610ad8575b15610a87577fb2692b979a0ebbc948769201966bf3af4548dc99b201b0188d8f7d727c612b83916040916004549015159069ff0000000000000000008260481b169068ff000000000000000084861b169069ffff00000000000000001916171760045582519182526020820152a1005b60405162461bcd60e51b815260206004820152602360248201527f4174206c65617374206f6e65206d6574686f64206d75737420626520656e61626044820152621b195960ea1b6064820152608490fd5b5080610a17565b346102c45760203660031901126102c457610af8611d9d565b6001600160401b03165f81815260086020526040812080549092909190815b838110610b3f5760608484610b2c8183611f88565b9060405192835260208301526040820152f35b610b498186611f20565b60018060a01b0391549060031b1c165f52600760205260405f20825f5260205260ff600260405f20015416610b81575b600101610b17565b91610b8d600191612113565b929050610b79565b346102c45760203660031901126102c4576004356001600160401b0381116102c4576020610bca610bf4923690600401611e9d565b610bd26122e1565b6040518093819263461d54e960e01b8352604060048401526044830190611dc9565b5f602483015203815f305af18015610c4f576020915f91610c22575b506001600160401b0360405191168152f35b610c429150823d8411610c48575b610c3a8183611e61565b8101906120f4565b82610c10565b503d610c30565b6040513d5f823e3d90fd5b346102c45760203660031901126102c4576001600160401b03610c7b611d9d565b5f610140604051610c8b81611e2a565b828152606060208201528260408201528260608201528260808201528260a08201528260c08201528260e082015282610100820152826101208201520152165f52600660205260405f2060405190610ce282611e2a565b60ff8154166003811015610934578252610cfe60018201611f35565b906020830191825260028101549060408401918252600381015490606085019182526004810154608086019060018060a01b038116825260ff60a088019160a01c1615158152600583015460c0880190815260068401549160e089019283526007850154936101008a0194855260ff60096008880154976101208d01988952015416966101408b0197151588526040519960208b52610da76101808c019c60208d019051611f13565b519861016060408c01528951809c5260206101a08c019a018c5f9d8e5b10610e195750505160608b01525160808a0152516001600160a01b031660a089015251151560c08801525160e08701525161010086015251610120850152516101408401525115156101608301528190039150f35b81516001600160a01b03168c5260019d909d019c60209b8c019b90910190808e610dc4565b346102c4575f3660031901126102c4576020600a54604051908152f35b346102c4575f3660031901126102c457602060ff60045460481c166040519015158152f35b346102c4575f3660031901126102c4575f546040516001600160a01b039091168152602090f35b346102c4575f3660031901126102c4576020604051603c8152f35b346102c45760403660031901126102c457610edb611e05565b610ee3611db3565b9060018060a01b03165f5260076020526001600160401b0360405f2091165f5260205260a060405f2080549060018101549060ff600282015416600460038301549201549260405194855260208501521515604084015260608301526080820152f35b346102c4575f3660031901126102c457610f5e612121565b5f80546001600160a01b0319811682556001600160a01b03167f8be0079c531659141344cd1fd0a4f28419497f9722a3daafe3b4186f6b6457e08280a3005b346102c45760403660031901126102c457610fb66122e1565b60405163e7c4155d60e01b8152600435600482015260243560248201525f60448201526020816064815f305af18015610c4f576020915f91610c2257506001600160401b0360405191168152f35b346102c45760203660031901126102c457600435611020612121565b603c8110158061106a575b1561103557600555005b60405162461bcd60e51b815260206004820152600d60248201526c496e76616c69642064656c617960981b6044820152606490fd5b50610e1081111561102b565b346102c45760403660031901126102c45761108f611d9d565b6001600160401b0360243591165f52600860205260405f2080548210156102c4576020916110bc91611f20565b905460405160039290921b1c6001600160a01b03168152f35b346102c45760203660031901126102c4576001600160a01b036110f6611e05565b165f52600b602052602060ff60405f2054166040519015158152f35b346102c45760203660031901126102c4576004355f526009602052602060405f2054604051908152f35b346102c45760203660031901126102c4576001600160401b0361115d611d9d565b165f52600660205261014060405f2060ff8154169060028101549060038101546004820154600583015460ff600685015492600786015494826009600889015498015416976111af604051809b611f13565b60208a0152604089015260018060a01b038116606089015260a01c161515608087015260a086015260c085015260e08401526101008301521515610120820152f35b346102c4575f3660031901126102c4576020604051610e108152f35b346102c4575f3660031901126102c457602060ff600254166040519015158152f35b346102c45760203660031901126102c4576004356001600160401b0381116102c45761125f903690600401611e9d565b805115611306575f1943014381116112f2576112b8906003546040519060208201924083524260408301524460608301523360601b60808301526094820152609481526112ad60b482611e61565b5190208251906120d6565b81518110156112de5760051b016020908101516040516001600160a01b03919091168152f35b634e487b7160e01b5f52603260045260245ffd5b634e487b7160e01b5f52601160045260245ffd5b60405162461bcd60e51b815260206004820152600f60248201526e4e6f207061727469636970616e747360881b6044820152606490fd5b346102c45760603660031901126102c457611356611d9d565b602435906113626122e1565b61136a612147565b6001600160401b03811691825f5260066020526113ad60ff60405f2061050a8260096004840154936113a560018060a01b0386161515611f95565b01541661204b565b335f52600760205260405f20835f5260205260405f209283549384156114da5760028101908154956113e260ff881615612097565b6004820154421161149f57604051602081019086825260443560408201523360601b606082015260548152611418607482611e61565b5190200361146957611463958460018093015560ff19161790556040519182527fe31c53097a08b041054a61a87113adc8f265bae8df68ba97e83aa8f8901721f760203393a3612382565b60018055005b60405162461bcd60e51b815260206004820152600e60248201526d125b9d985b1a59081c995d99585b60921b6044820152606490fd5b60405162461bcd60e51b815260206004820152601360248201527214995d99585b081c195c9a5bd908195b991959606a1b6044820152606490fd5b60405162461bcd60e51b8152602060048201526013602482015272139bc818dbdb5b5a5d1b595b9d08199bdd5b99606a1b6044820152606490fd5b346102c4575f3660031901126102c45761152d612121565b6115356122e1565b600160ff1960025416176002557f62e78cea01bee320cd4e420270b5ea74000d11b0c9f74754ebdbfc544b05a2586020604051338152a1005b346102c4575f3660031901126102c457611586612121565b60025460ff8116156115c55760ff19166002557f5db9ee0a495bf2e6ff9c91a7834c1ba4fdd244a5e8aa4e537bd38aeae4b073aa6020604051338152a1005b60405162461bcd60e51b815260206004820152601460248201527314185d5cd8589b194e881b9bdd081c185d5cd95960621b6044820152606490fd5b346102c45760403660031901126102c4576004356001600160401b0381116102c457611631903690600401611e9d565b611639611e1b565b6116416122e1565b81518015159081611948575b5015611903576004549060ff8260401c1680156118f6575b156118b1576001600160401b038216916001600160401b0361168684612021565b16906001600160401b0319161780600455816116a46005544261203e565b91816118a3575b50604051916116b983611e2a565b5f835260208301958652604083015f8152606084015f81526080850133815260a08601905f825260c087019143835260e08801934285526101008901955f87526101208a019788526101408a0198151589528b5f52600660205260405f20995160038110156109345760ff80198c54169116178a5560018a019c518051906001600160401b0382116105e757600160401b82116105e7578e80549083815581841061187d575b50506020019d5f5260205f209d5f905b828210611860575050905160028b0155505160038901559051600488018054925160ff60a01b90151560a01b166001600160a01b039092166001600160a81b031990931692909217179055602098506117fa959460099490939092909151600587015551600686015551600785015551600884015551151591019060ff801983541691151516179055565b604051905f825215827fe0ce7aaeb215bb79a9dd4dc5a9e9268c5abaa14011f5aafa4cc86140273db5de60408315948588820152a290611850575b611842575b604051908152f35b61184b81612325565b61183a565b5060ff60045460481c1615611835565b8f91600191816020848060a01b038351169201940155019061176f565b5f528260205f2091820191015b81811061189857508f61175f565b5f815560010161188a565b60ff915060481c16856116ab565b60405162461bcd60e51b815260206004820152601c60248201527f4e6f2072616e646f6d6e657373206d6574686f6420656e61626c6564000000006044820152606490fd5b5060ff8260481c16611665565b60405162461bcd60e51b815260206004820152601960248201527f496e76616c6964207061727469636970616e7420636f756e74000000000000006044820152606490fd5b6103e8915011158361164d565b346102c45760403660031901126102c45761196e611d9d565b6024356001600160401b0381116102c457366023820112156102c457806004013561199881611e82565b906119a66040519283611e61565b808252602082019236602483830101116102c457815f926024602093018637830101526119d1612121565b6119d9612147565b6001600160401b0383165f526006602052611a0a60ff600460405f20015461050a60018060a01b0382161515611f95565b805115611ab2575f194301924384116112f257611aad60276114639560405160208101914082524260408201524460608201526001600160401b0360c01b8560c01b166080820152611a766088828851808b8484015e81015f838201520301601f198101835282611e61565b519020936040519586916626b0b73ab0b61d60c91b60208401525180918484015e81015f838201520301601f198101855284611e61565b6121cf565b60405162461bcd60e51b815260206004820152601360248201527226bab9ba10383937bb34b232903932b0b9b7b760691b6044820152606490fd5b346102c4575f3660031901126102c457602060ff60045460401c166040519015158152f35b346102c45760403660031901126102c457611b2b611e05565b611b33611e1b565b90611b3c612121565b6001600160a01b0316908115611b9b5760207fd6bb5132b8c1a381981b94d9eda2294ab5f22147ef4d46613202cf95d69d10f891835f52600b8252611b908160405f209060ff801983541691151516179055565b6040519015158152a2005b60405162461bcd60e51b815260206004820152601060248201526f24b73b30b634b210383937bb34b232b960811b6044820152606490fd5b346102c45760203660031901126102c45760043543811015611cd357610100611bfc8243611f88565b11611c955780408015611c5b57816040917f90cbc6ad14a45cb8a21348dd4105f964f14f41ee0b36e5965b301804c8591f96935f52600960205280835f2055600a548211611c52575b82519182526020820152a1005b81600a55611c45565b60405162461bcd60e51b8152602060048201526012602482015271092dcecc2d8d2c840c4d8dec6d640d0c2e6d60731b6044820152606490fd5b60405162461bcd60e51b8152602060048201526016602482015275426c6f636b206861736820756e617661696c61626c6560501b6044820152606490fd5b60405162461bcd60e51b8152602060048201526013602482015272109b1bd8dac81b9bdd081e595d081b5a5b9959606a1b6044820152606490fd5b346102c45760203660031901126102c4576001600160401b03611d2f611d9d565b165f526008602052611d5a611d4660405f20611f35565b604051918291602083526020830190611dc9565b0390f35b346102c45760203660031901126102c4576020906001600160401b03611d82611d9d565b165f526006825260ff600460405f20015460a01c1615158152f35b600435906001600160401b03821682036102c457565b602435906001600160401b03821682036102c457565b90602080835192838152019201905f5b818110611de65750505090565b82516001600160a01b0316845260209384019390920191600101611dd9565b600435906001600160a01b03821682036102c457565b6024359081151582036102c457565b61016081019081106001600160401b038211176105e757604052565b60a081019081106001600160401b038211176105e757604052565b90601f801991011681019081106001600160401b038211176105e757604052565b6001600160401b0381116105e757601f01601f191660200190565b81601f820112156102c4578035916001600160401b0383116105e7578260051b9160405193611ecf6020850186611e61565b84526020808501938201019182116102c457602001915b818310611ef35750505090565b82356001600160a01b03811681036102c457815260209283019201611ee6565b9060038210156109345752565b80548210156112de575f5260205f2001905f90565b90604051918281549182825260208201905f5260205f20925f5b818110611f66575050611f6492500383611e61565b565b84546001600160a01b0316835260019485019487945060209093019201611f4f565b919082039182116112f257565b15611f9c57565b60405162461bcd60e51b815260206004820152601160248201527014995c5d595cdd081b9bdd08199bdd5b99607a1b6044820152606490fd5b15611fdc57565b60405162461bcd60e51b815260206004820152601960248201527f5265717565737420616c72656164792066756c66696c6c6564000000000000006044820152606490fd5b6001600160401b03166001600160401b0381146112f25760010190565b919082018092116112f257565b1561205257565b60405162461bcd60e51b815260206004820152601b60248201527f4e6f74206120636f6d6d69742d72657665616c207265717565737400000000006044820152606490fd5b1561209e57565b60405162461bcd60e51b815260206004820152601060248201526f105b1c9958591e481c995d99585b195960821b6044820152606490fd5b81156120e0570690565b634e487b7160e01b5f52601260045260245ffd5b908160209103126102c457516001600160401b03811681036102c45790565b5f1981146112f25760010190565b5f546001600160a01b0316330361213457565b63118cdaa760e01b5f523360045260245ffd5b600260015414612158576002600155565b60405162461bcd60e51b815260206004820152601f60248201527f5265656e7472616e637947756172643a207265656e7472616e742063616c6c006044820152606490fd5b9060609260209183526040828401528051918291826040860152018484015e5f828201840152601f01601f1916010190565b6001600160401b03165f81815260066020526040902060048101805460ff60a01b1916600160a01b179055805491939160ff166003811015610934578061226f57509061224b60017f68dc1228fef2529d8e55d849a6fb811d6fc0355eedb5df83f3d75df9160fcf6193016122458154866120d6565b90611f20565b60018060a01b0391549060031b1c169261226a6040519283928361219d565b0390a3565b60011461227d575b50505050565b60036122c07f6b815b5b9de29f9199853c891bf2bc0936730912186ece85660b071f5aa4c1b6946122ba8460026122c69601549485910154611f88565b906120d6565b9061203e565b6122d56040519283928361219d565b0390a25f808080612277565b60ff600254166122ed57565b60405162461bcd60e51b815260206004820152601060248201526f14185d5cd8589b194e881c185d5cd95960821b6044820152606490fd5b6001600160401b0381165f52600660205260ff600460405f20015460a01c1661237f5780612355611f649261257f565b60405191612364604084611e61565b6009835268084d8dec6d690c2e6d60bb1b60208401526121cf565b50565b6001600160401b03811690815f52600660205260405f2060ff600482015460a01c16612515575f838152600860205260408120805490825b82811061252957505050158091819261251a575b50612515576124d557815f52600860205260405f205f905f935f918054925b83811061247757505050505f1943014381116112f257611f6493604051916020830193845240604083015242606083015260808201526001600160401b0360c01b8360c01b1660a08201526088815261244760a882611e61565b519020604051612458604082611e61565b600c81526b10dbdb5b5a5d14995d99585b60a21b6020820152916121cf565b6124818183611f20565b60018060a01b0391549060031b1c165f52600760205260405f20835f5260205260405f2060ff6002820154166124bb575b506001016123ed565b6001919795826124ce9201541895612113565b96906124b2565b611f6491506124e38161257f565b6040516124f1604082611e61565b6011815270426c6f636b4861736846616c6c6261636b60781b6020820152916121cf565b505050565b6008915001544211155f6123ce565b6125338183611f20565b60018060a01b0391549060031b1c165f52600760205260405f20875f5260205260ff600260405f2001541661256b575b6001016123ba565b92612577600191612113565b939050612563565b6001600160401b0381165f90815260066020526040902060058101548015612656575f1981019081116112f257915b5f194301914383116112f257600a545f52600960205260405f2054906004600682015491015490600354926125e284612113565b60035560405195602087019740885240604087015260608601524260808601524460a086015260c08501526bffffffffffffffffffffffff199060601b1660e084015260f48301526001600160401b0360c01b9060c01b1661011482015260fc815261265061011c82611e61565b51902090565b505f1943014381116112f257916125ae56fea2646970667358221220df6aa6ced4f975b9ab410754fb819daffe22b8b50cf134f3b6ffdcfbdd993e9564736f6c634300081e0033",
			"opcodes": "PUSH1 0x80 DUP1 PUSH1 0x40 MSTORE CALLVALUE PUSH1 0xD6 JUMPI CALLER ISZERO PUSH1 0xC3 JUMPI PUSH0 DUP1 SLOAD CALLER PUSH1 0x1 PUSH1 0x1 PUSH1 0xA0 SHL SUB NOT DUP3 AND DUP2 OR DUP4 SSTORE SWAP2 PUSH1 0x1 PUSH1 0x1 PUSH1 0xA0 SHL SUB SWAP1 SWAP2 AND SWAP1 PUSH32 0x8BE0079C531659141344CD1FD0A4F28419497F9722A3DAAFE3B4186F6B6457E0 SWAP1 DUP1 LOG3 PUSH1 0x1 DUP1 SSTORE PUSH1 0xFF NOT PUSH1 0x2 SLOAD AND PUSH1 0x2 SSTORE PUSH1 0x1 PUSH10 0x1010000000000000000 PUSH1 0x4 SLOAD PUSH2 0x12C PUSH1 0x5 SSTORE DUP3 PUSH1 0x3 SSTORE DUP3 DUP1 PUSH1 0x50 SHL SUB NOT AND OR OR PUSH1 0x4 SSTORE NUMBER PUSH1 0xA SSTORE PUSH0 NOT NUMBER ADD NUMBER DUP2 GT PUSH1 0xAF JUMPI NUMBER PUSH0 MSTORE PUSH1 0x9 PUSH1 0x20 MSTORE BLOCKHASH PUSH1 0x40 PUSH0 KECCAK256 SSTORE PUSH2 0x269E SWAP1 DUP2 PUSH2 0xDB DUP3 CODECOPY RETURN JUMPDEST PUSH4 0x4E487B71 PUSH1 0xE0 SHL PUSH0 MSTORE PUSH1 0x11 PUSH1 0x4 MSTORE PUSH1 0x24 PUSH0 REVERT JUMPDEST PUSH4 0x1E4FBDF7 PUSH1 0xE0 SHL PUSH0 MSTORE PUSH0 PUSH1 0x4 MSTORE PUSH1 0x24 PUSH0 REVERT JUMPDEST PUSH0 DUP1 REVERT INVALID PUSH1 0x80 DUP1 PUSH1 0x40 MSTORE PUSH1 0x4 CALLDATASIZE LT ISZERO PUSH2 0x52 JUMPI JUMPDEST POP CALLDATASIZE ISZERO PUSH2 0x50 JUMPI PUSH1 0x40 MLOAD PUSH3 0x461BCD PUSH1 0xE5 SHL DUP2 MSTORE PUSH1 0x20 PUSH1 0x4 DUP3 ADD MSTORE PUSH1 0x12 PUSH1 0x24 DUP3 ADD MSTORE PUSH18 0x119D5B98DD1A5BDB881B9BDD08199BDD5B99 PUSH1 0x72 SHL PUSH1 0x44 DUP3 ADD MSTORE PUSH1 0x64 SWAP1 REVERT JUMPDEST STOP JUMPDEST PUSH0 CALLDATALOAD PUSH1 0xE0 SHR SWAP1 DUP2 PUSH4 0xF855EC2 EQ PUSH2 0x1D5E JUMPI POP DUP1 PUSH4 0x23806FAD EQ PUSH2 0x1D0E JUMPI DUP1 PUSH4 0x262FD733 EQ PUSH2 0x1BD3 JUMPI DUP1 PUSH4 0x27837EAF EQ PUSH2 0x1B12 JUMPI DUP1 PUSH4 0x3959602D EQ PUSH2 0x1AED JUMPI DUP1 PUSH4 0x45C70069 EQ PUSH2 0x1955 JUMPI DUP1 PUSH4 0x461D54E9 EQ PUSH2 0x1601 JUMPI DUP1 PUSH4 0x4A4E3BD5 EQ PUSH2 0x156E JUMPI DUP1 PUSH4 0x51858E27 EQ PUSH2 0x1515 JUMPI DUP1 PUSH4 0x52BFA7E5 EQ PUSH2 0x133D JUMPI DUP1 PUSH4 0x58859D74 EQ PUSH2 0x122F JUMPI DUP1 PUSH4 0x5C975ABB EQ PUSH2 0x120D JUMPI DUP1 PUSH4 0x5F2C66D8 EQ PUSH2 0x11F1 JUMPI DUP1 PUSH4 0x65B07D58 EQ PUSH2 0x113C JUMPI DUP1 PUSH4 0x69B16201 EQ PUSH2 0x1112 JUMPI DUP1 PUSH4 0x69DC3AE2 EQ PUSH2 0x10D5 JUMPI DUP1 PUSH4 0x69F74F6D EQ PUSH2 0x1076 JUMPI DUP1 PUSH4 0x6B27E2BB EQ PUSH2 0x1004 JUMPI DUP1 PUSH4 0x6E68FC0A EQ PUSH2 0xF9D JUMPI DUP1 PUSH4 0x715018A6 EQ PUSH2 0xF46 JUMPI DUP1 PUSH4 0x7402E13D EQ PUSH2 0xEC2 JUMPI DUP1 PUSH4 0x888EEEA6 EQ PUSH2 0xEA7 JUMPI DUP1 PUSH4 0x8DA5CB5B EQ PUSH2 0xE80 JUMPI DUP1 PUSH4 0xB76755C5 EQ PUSH2 0xE5B JUMPI DUP1 PUSH4 0xC7513F87 EQ PUSH2 0xE3E JUMPI DUP1 PUSH4 0xCBBF67EC EQ PUSH2 0xC5A JUMPI DUP1 PUSH4 0xCD3B842E EQ PUSH2 0xB95 JUMPI DUP1 PUSH4 0xD21FB421 EQ PUSH2 0xADF JUMPI DUP1 PUSH4 0xD598E967 EQ PUSH2 0x9DF JUMPI DUP1 PUSH4 0xE71BFDC0 EQ PUSH2 0x9C2 JUMPI DUP1 PUSH4 0xE7C4155D EQ PUSH2 0x67A JUMPI DUP1 PUSH4 0xF2FCD328 EQ PUSH2 0x49A JUMPI DUP1 PUSH4 0xF2FDE38B EQ PUSH2 0x415 JUMPI DUP1 PUSH4 0xF3BAF070 EQ PUSH2 0x3F9 JUMPI DUP1 PUSH4 0xF3FEF3A3 EQ PUSH2 0x2C8 JUMPI PUSH4 0xFE6D06B4 EQ PUSH2 0x1EA JUMPI PUSH0 PUSH2 0xF JUMP JUMPDEST CALLVALUE PUSH2 0x2C4 JUMPI PUSH1 0x40 CALLDATASIZE PUSH1 0x3 NOT ADD SLT PUSH2 0x2C4 JUMPI PUSH2 0x203 PUSH2 0x1E05 JUMP JUMPDEST PUSH2 0x20B PUSH2 0x1DB3 JUMP JUMPDEST SWAP1 PUSH0 PUSH1 0x80 PUSH1 0x40 MLOAD PUSH2 0x21B DUP2 PUSH2 0x1E46 JUMP JUMPDEST DUP3 DUP2 MSTORE DUP3 PUSH1 0x20 DUP3 ADD MSTORE DUP3 PUSH1 0x40 DUP3 ADD MSTORE DUP3 PUSH1 0x60 DUP3 ADD MSTORE ADD MSTORE PUSH1 0x1 DUP1 PUSH1 0xA0 SHL SUB AND PUSH0 MSTORE PUSH1 0x7 PUSH1 0x20 MSTORE PUSH1 0x1 PUSH1 0x1 PUSH1 0x40 SHL SUB PUSH1 0x40 PUSH0 KECCAK256 SWAP2 AND PUSH0 MSTORE PUSH1 0x20 MSTORE PUSH1 0xA0 PUSH1 0x40 PUSH0 KECCAK256 PUSH1 0x40 MLOAD PUSH2 0x266 DUP2 PUSH2 0x1E46 JUMP JUMPDEST DUP2 SLOAD SWAP2 DUP3 DUP3 MSTORE PUSH1 0x1 DUP2 ADD SLOAD PUSH1 0x20 DUP4 ADD SWAP1 DUP2 MSTORE PUSH1 0xFF PUSH1 0x2 DUP4 ADD SLOAD AND SWAP1 PUSH1 0x40 DUP5 ADD SWAP2 ISZERO ISZERO DUP3 MSTORE PUSH1 0x80 PUSH1 0x4 PUSH1 0x3 DUP6 ADD SLOAD SWAP5 PUSH1 0x60 DUP8 ADD SWAP6 DUP7 MSTORE ADD SLOAD SWAP5 ADD SWAP4 DUP5 MSTORE PUSH1 0x40 MLOAD SWAP5 DUP6 MSTORE MLOAD PUSH1 0x20 DUP6 ADD MSTORE MLOAD ISZERO ISZERO PUSH1 0x40 DUP5 ADD MSTORE MLOAD PUSH1 0x60 DUP4 ADD MSTORE MLOAD PUSH1 0x80 DUP3 ADD MSTORE RETURN JUMPDEST PUSH0 DUP1 REVERT JUMPDEST CALLVALUE PUSH2 0x2C4 JUMPI PUSH1 0x40 CALLDATASIZE PUSH1 0x3 NOT ADD SLT PUSH2 0x2C4 JUMPI PUSH2 0x2E1 PUSH2 0x1E05 JUMP JUMPDEST PUSH1 0x24 CALLDATALOAD SWAP1 PUSH2 0x2ED PUSH2 0x2121 JUMP JUMPDEST PUSH2 0x2F5 PUSH2 0x2147 JUMP JUMPDEST PUSH1 0x1 PUSH1 0x1 PUSH1 0xA0 SHL SUB AND DUP1 ISZERO PUSH2 0x3C0 JUMPI SELFBALANCE DUP3 GT PUSH2 0x384 JUMPI PUSH0 DUP1 DUP1 SWAP4 DUP2 SWAP4 GAS CALL RETURNDATASIZE ISZERO PUSH2 0x37F JUMPI RETURNDATASIZE PUSH2 0x323 DUP2 PUSH2 0x1E82 JUMP JUMPDEST SWAP1 PUSH2 0x331 PUSH1 0x40 MLOAD SWAP3 DUP4 PUSH2 0x1E61 JUMP JUMPDEST DUP2 MSTORE PUSH0 PUSH1 0x20 RETURNDATASIZE SWAP3 ADD RETURNDATACOPY JUMPDEST ISZERO PUSH2 0x346 JUMPI PUSH1 0x1 DUP1 SSTORE STOP JUMPDEST PUSH1 0x40 MLOAD PUSH3 0x461BCD PUSH1 0xE5 SHL DUP2 MSTORE PUSH1 0x20 PUSH1 0x4 DUP3 ADD MSTORE PUSH1 0x11 PUSH1 0x24 DUP3 ADD MSTORE PUSH17 0x15DA5D1A191C985DD85B0819985A5B1959 PUSH1 0x7A SHL PUSH1 0x44 DUP3 ADD MSTORE PUSH1 0x64 SWAP1 REVERT JUMPDEST PUSH2 0x33B JUMP JUMPDEST PUSH1 0x40 MLOAD PUSH3 0x461BCD PUSH1 0xE5 SHL DUP2 MSTORE PUSH1 0x20 PUSH1 0x4 DUP3 ADD MSTORE PUSH1 0x14 PUSH1 0x24 DUP3 ADD MSTORE PUSH20 0x496E73756666696369656E742062616C616E6365 PUSH1 0x60 SHL PUSH1 0x44 DUP3 ADD MSTORE PUSH1 0x64 SWAP1 REVERT JUMPDEST PUSH1 0x40 MLOAD PUSH3 0x461BCD PUSH1 0xE5 SHL DUP2 MSTORE PUSH1 0x20 PUSH1 0x4 DUP3 ADD MSTORE PUSH1 0x11 PUSH1 0x24 DUP3 ADD MSTORE PUSH17 0x125B9D985B1A59081C9958DA5C1A595B9D PUSH1 0x7A SHL PUSH1 0x44 DUP3 ADD MSTORE PUSH1 0x64 SWAP1 REVERT JUMPDEST CALLVALUE PUSH2 0x2C4 JUMPI PUSH0 CALLDATASIZE PUSH1 0x3 NOT ADD SLT PUSH2 0x2C4 JUMPI PUSH1 0x20 PUSH1 0x40 MLOAD PUSH2 0x3E8 DUP2 MSTORE RETURN JUMPDEST CALLVALUE PUSH2 0x2C4 JUMPI PUSH1 0x20 CALLDATASIZE PUSH1 0x3 NOT ADD SLT PUSH2 0x2C4 JUMPI PUSH2 0x42E PUSH2 0x1E05 JUMP JUMPDEST PUSH2 0x436 PUSH2 0x2121 JUMP JUMPDEST PUSH1 0x1 PUSH1 0x1 PUSH1 0xA0 SHL SUB AND DUP1 ISZERO PUSH2 0x487 JUMPI PUSH0 DUP1 SLOAD PUSH1 0x1 PUSH1 0x1 PUSH1 0xA0 SHL SUB NOT DUP2 AND DUP4 OR DUP3 SSTORE PUSH1 0x1 PUSH1 0x1 PUSH1 0xA0 SHL SUB AND SWAP1 PUSH32 0x8BE0079C531659141344CD1FD0A4F28419497F9722A3DAAFE3B4186F6B6457E0 SWAP1 DUP1 LOG3 STOP JUMPDEST PUSH4 0x1E4FBDF7 PUSH1 0xE0 SHL PUSH0 MSTORE PUSH0 PUSH1 0x4 MSTORE PUSH1 0x24 PUSH0 REVERT JUMPDEST CALLVALUE PUSH2 0x2C4 JUMPI PUSH1 0x40 CALLDATASIZE PUSH1 0x3 NOT ADD SLT PUSH2 0x2C4 JUMPI PUSH2 0x4B3 PUSH2 0x1D9D JUMP JUMPDEST PUSH1 0x1 PUSH1 0x1 PUSH1 0x40 SHL SUB PUSH1 0x24 CALLDATALOAD SWAP2 PUSH2 0x4C7 PUSH2 0x22E1 JUMP JUMPDEST PUSH2 0x4CF PUSH2 0x2147 JUMP JUMPDEST AND DUP1 PUSH0 MSTORE PUSH1 0x6 PUSH1 0x20 MSTORE PUSH1 0x8 PUSH1 0x40 PUSH0 KECCAK256 PUSH2 0x514 PUSH1 0xFF PUSH1 0x4 DUP4 ADD SLOAD PUSH2 0x4FB PUSH1 0x1 DUP1 PUSH1 0xA0 SHL SUB DUP3 AND ISZERO ISZERO PUSH2 0x1F95 JUMP JUMPDEST PUSH2 0x50A DUP3 PUSH1 0x9 DUP7 ADD SLOAD AND PUSH2 0x204B JUMP JUMPDEST PUSH1 0xA0 SHR AND ISZERO PUSH2 0x1FD5 JUMP JUMPDEST ADD DUP1 SLOAD TIMESTAMP LT ISZERO PUSH2 0x635 JUMPI DUP3 ISZERO PUSH2 0x5FB JUMPI CALLER PUSH0 MSTORE PUSH1 0x7 PUSH1 0x20 MSTORE PUSH1 0x40 PUSH0 KECCAK256 DUP3 PUSH0 MSTORE PUSH1 0x20 MSTORE PUSH1 0x40 PUSH0 KECCAK256 SWAP1 PUSH2 0x54C PUSH1 0xFF PUSH1 0x2 DUP5 ADD SLOAD AND ISZERO PUSH2 0x2097 JUMP JUMPDEST DUP2 SLOAD ISZERO PUSH2 0x596 JUMPI JUMPDEST PUSH1 0x4 SWAP1 DUP5 DUP4 SSTORE NUMBER PUSH1 0x3 DUP5 ADD SSTORE SLOAD SWAP2 ADD SSTORE PUSH1 0x40 MLOAD SWAP2 DUP3 MSTORE PUSH32 0x776AF115A08EE6E6223C4848E4DA1AE6F545754DE0F819E8BAA689E540CCA351 PUSH1 0x20 CALLER SWAP4 LOG3 PUSH1 0x1 DUP1 SSTORE STOP JUMPDEST DUP3 PUSH0 MSTORE PUSH1 0x8 PUSH1 0x20 MSTORE PUSH1 0x40 PUSH0 KECCAK256 SWAP1 DUP2 SLOAD SWAP2 PUSH1 0x1 PUSH1 0x40 SHL DUP4 LT ISZERO PUSH2 0x5E7 JUMPI DUP3 PUSH2 0x5C4 SWAP2 PUSH1 0x1 PUSH1 0x4 SWAP6 ADD DUP2 SSTORE PUSH2 0x1F20 JUMP JUMPDEST DUP2 SLOAD PUSH1 0x1 PUSH1 0x1 PUSH1 0xA0 SHL SUB PUSH1 0x3 SWAP3 SWAP1 SWAP3 SHL SWAP2 DUP3 SHL NOT AND CALLER SWAP1 SWAP2 SHL OR SWAP1 SSTORE SWAP1 POP PUSH2 0x554 JUMP JUMPDEST PUSH4 0x4E487B71 PUSH1 0xE0 SHL PUSH0 MSTORE PUSH1 0x41 PUSH1 0x4 MSTORE PUSH1 0x24 PUSH0 REVERT JUMPDEST PUSH1 0x40 MLOAD PUSH3 0x461BCD PUSH1 0xE5 SHL DUP2 MSTORE PUSH1 0x20 PUSH1 0x4 DUP3 ADD MSTORE PUSH1 0x12 PUSH1 0x24 DUP3 ADD MSTORE PUSH18 0x125B9D985B1A590818DBDB5B5A5D1B595B9D PUSH1 0x72 SHL PUSH1 0x44 DUP3 ADD MSTORE PUSH1 0x64 SWAP1 REVERT JUMPDEST PUSH1 0x40 MLOAD PUSH3 0x461BCD PUSH1 0xE5 SHL DUP2 MSTORE PUSH1 0x20 PUSH1 0x4 DUP3 ADD MSTORE PUSH1 0x17 PUSH1 0x24 DUP3 ADD MSTORE PUSH32 0x436F6D6D69746D656E7420706572696F6420656E646564000000000000000000 PUSH1 0x44 DUP3 ADD MSTORE PUSH1 0x64 SWAP1 REVERT JUMPDEST CALLVALUE PUSH2 0x2C4 JUMPI PUSH1 0x60 CALLDATASIZE PUSH1 0x3 NOT ADD SLT PUSH2 0x2C4 JUMPI PUSH1 0x4 CALLDATALOAD PUSH1 0x24 CALLDATALOAD PUSH1 0x44 CALLDATALOAD DUP1 ISZERO ISZERO DUP2 SUB PUSH2 0x2C4 JUMPI PUSH2 0x6A5 PUSH2 0x22E1 JUMP JUMPDEST DUP3 DUP3 GT ISZERO PUSH2 0x98D JUMPI PUSH16 0xFFFFFFFFFFFFFFFFFFFFFFFFFFFFFFFF PUSH2 0x6C8 DUP5 DUP5 PUSH2 0x1F88 JUMP JUMPDEST GT PUSH2 0x956 JUMPI PUSH1 0x4 SLOAD SWAP2 DUP2 PUSH1 0x1 PUSH1 0x1 PUSH1 0x40 SHL SUB PUSH2 0x6E5 DUP2 DUP7 AND PUSH2 0x2021 JUMP JUMPDEST AND PUSH1 0x1 PUSH1 0x1 PUSH1 0x40 SHL SUB NOT DUP6 AND OR DUP1 PUSH1 0x4 SSTORE PUSH2 0x702 PUSH1 0x5 SLOAD TIMESTAMP PUSH2 0x203E JUMP JUMPDEST SWAP1 DUP3 PUSH2 0x948 JUMPI JUMPDEST POP PUSH1 0x40 MLOAD SWAP2 PUSH2 0x717 DUP4 PUSH2 0x1E2A JUMP JUMPDEST PUSH1 0x1 DUP4 MSTORE PUSH1 0x20 DUP4 ADD SWAP4 PUSH1 0x60 DUP6 MSTORE PUSH1 0x40 DUP5 ADD SWAP8 DUP9 MSTORE PUSH1 0x60 DUP5 ADD SWAP1 DUP2 MSTORE PUSH1 0x80 DUP5 ADD SWAP1 CALLER DUP3 MSTORE PUSH1 0xA0 DUP6 ADD SWAP1 PUSH0 DUP3 MSTORE PUSH1 0xC0 DUP7 ADD SWAP4 NUMBER DUP6 MSTORE PUSH1 0xE0 DUP8 ADD SWAP6 TIMESTAMP DUP8 MSTORE PUSH0 PUSH2 0x100 DUP10 ADD MSTORE PUSH2 0x120 DUP9 ADD MSTORE ISZERO ISZERO PUSH2 0x140 DUP8 ADD MSTORE PUSH1 0x1 PUSH1 0x1 PUSH1 0x40 SHL SUB DUP10 AND PUSH0 MSTORE PUSH1 0x6 PUSH1 0x20 MSTORE PUSH1 0x40 PUSH0 KECCAK256 SWAP7 DUP7 MLOAD PUSH1 0x3 DUP2 LT ISZERO PUSH2 0x934 JUMPI PUSH1 0xFF DUP1 NOT DUP11 SLOAD AND SWAP2 AND OR DUP9 SSTORE MLOAD SWAP10 DUP11 MLOAD SWAP11 PUSH1 0x1 PUSH1 0x1 PUSH1 0x40 SHL SUB DUP13 GT PUSH2 0x5E7 JUMPI PUSH1 0x1 PUSH1 0x40 SHL DUP13 GT PUSH2 0x5E7 JUMPI PUSH1 0x1 DUP10 ADD SLOAD DUP13 PUSH1 0x1 DUP12 ADD SSTORE DUP1 DUP14 LT PUSH2 0x90B JUMPI JUMPDEST POP PUSH1 0x20 ADD SWAP11 PUSH1 0x1 DUP10 ADD PUSH0 MSTORE PUSH1 0x20 PUSH0 KECCAK256 SWAP12 PUSH0 SWAP1 JUMPDEST DUP3 DUP3 LT PUSH2 0x8EE JUMPI POP POP DUP2 MLOAD PUSH1 0x2 DUP11 ADD SSTORE DUP3 MLOAD PUSH1 0x3 DUP11 ADD SSTORE DUP5 MLOAD PUSH1 0x4 DUP11 ADD DUP1 SLOAD DUP7 MLOAD PUSH1 0xFF PUSH1 0xA0 SHL SWAP1 ISZERO ISZERO PUSH1 0xA0 SHL AND PUSH1 0x1 PUSH1 0x1 PUSH1 0xA0 SHL SUB SWAP1 SWAP4 AND PUSH1 0x1 PUSH1 0x1 PUSH1 0xA8 SHL SUB NOT SWAP1 SWAP2 AND OR SWAP2 SWAP1 SWAP2 OR SWAP1 SSTORE PUSH1 0x20 DUP12 DUP12 PUSH2 0x86C DUP13 PUSH1 0x9 PUSH2 0x140 DUP15 DUP15 DUP15 MLOAD PUSH1 0x5 DUP7 ADD SSTORE MLOAD PUSH1 0x6 DUP6 ADD SSTORE PUSH2 0x100 DUP2 ADD MLOAD PUSH1 0x7 DUP6 ADD SSTORE PUSH2 0x120 DUP2 ADD MLOAD PUSH1 0x8 DUP6 ADD SSTORE ADD MLOAD ISZERO ISZERO SWAP2 ADD SWAP1 PUSH1 0xFF DUP1 NOT DUP4 SLOAD AND SWAP2 ISZERO ISZERO AND OR SWAP1 SSTORE JUMP JUMPDEST PUSH1 0x40 MLOAD PUSH1 0x1 DUP2 MSTORE DUP2 ISZERO ISZERO DUP5 DUP3 ADD MSTORE PUSH32 0xE0CE7AAEB215BB79A9DD4DC5A9E9268C5ABAA14011F5AAFA4CC86140273DB5DE PUSH1 0x40 PUSH1 0x1 PUSH1 0x1 PUSH1 0x40 SHL SUB DUP6 AND SWAP3 LOG2 DUP1 ISZERO SWAP1 PUSH2 0x8DE JUMPI JUMPDEST PUSH2 0x8C7 JUMPI JUMPDEST PUSH1 0x1 PUSH1 0x1 PUSH1 0x40 SHL SUB PUSH1 0x40 MLOAD SWAP2 AND DUP2 MSTORE RETURN JUMPDEST PUSH2 0x8D9 PUSH1 0x1 PUSH1 0x1 PUSH1 0x40 SHL SUB DUP3 AND PUSH2 0x2325 JUMP JUMPDEST PUSH2 0x8B6 JUMP JUMPDEST POP PUSH1 0xFF PUSH1 0x4 SLOAD PUSH1 0x48 SHR AND ISZERO PUSH2 0x8B1 JUMP JUMPDEST DUP1 MLOAD PUSH1 0x1 PUSH1 0x1 PUSH1 0xA0 SHL SUB AND DUP15 DUP4 ADD SSTORE PUSH1 0x1 SWAP1 SWAP2 ADD SWAP1 PUSH1 0x20 ADD PUSH2 0x7D8 JUMP JUMPDEST PUSH1 0x1 DUP11 ADD PUSH0 MSTORE DUP13 PUSH1 0x20 PUSH0 KECCAK256 SWAP2 DUP3 ADD SWAP2 ADD JUMPDEST DUP2 DUP2 LT PUSH2 0x929 JUMPI POP PUSH2 0x7C5 JUMP JUMPDEST PUSH0 DUP2 SSTORE PUSH1 0x1 ADD PUSH2 0x91C JUMP JUMPDEST PUSH4 0x4E487B71 PUSH1 0xE0 SHL PUSH0 MSTORE PUSH1 0x21 PUSH1 0x4 MSTORE PUSH1 0x24 PUSH0 REVERT JUMPDEST PUSH1 0x48 SHR PUSH1 0xFF AND SWAP2 POP DUP7 PUSH2 0x709 JUMP JUMPDEST PUSH1 0x40 MLOAD PUSH3 0x461BCD PUSH1 0xE5 SHL DUP2 MSTORE PUSH1 0x20 PUSH1 0x4 DUP3 ADD MSTORE PUSH1 0xF PUSH1 0x24 DUP3 ADD MSTORE PUSH15 0x52616E676520746F6F206C61726765 PUSH1 0x88 SHL PUSH1 0x44 DUP3 ADD MSTORE PUSH1 0x64 SWAP1 REVERT JUMPDEST PUSH1 0x40 MLOAD PUSH3 0x461BCD PUSH1 0xE5 SHL DUP2 MSTORE PUSH1 0x20 PUSH1 0x4 DUP3 ADD MSTORE PUSH1 0xD PUSH1 0x24 DUP3 ADD MSTORE PUSH13 0x496E76616C69642072616E6765 PUSH1 0x98 SHL PUSH1 0x44 DUP3 ADD MSTORE PUSH1 0x64 SWAP1 REVERT JUMPDEST CALLVALUE PUSH2 0x2C4 JUMPI PUSH0 CALLDATASIZE PUSH1 0x3 NOT ADD SLT PUSH2 0x2C4 JUMPI PUSH1 0x20 PUSH1 0x5 SLOAD PUSH1 0x40 MLOAD SWAP1 DUP2 MSTORE RETURN JUMPDEST CALLVALUE PUSH2 0x2C4 JUMPI PUSH1 0x40 CALLDATASIZE PUSH1 0x3 NOT ADD SLT PUSH2 0x2C4 JUMPI PUSH1 0x4 CALLDATALOAD DUP1 ISZERO SWAP1 DUP2 ISZERO SWAP2 DUP3 DUP3 SUB PUSH2 0x2C4 JUMPI PUSH2 0xA08 PUSH2 0x1E1B JUMP JUMPDEST SWAP2 PUSH2 0xA11 PUSH2 0x2121 JUMP JUMPDEST SWAP1 PUSH2 0xAD8 JUMPI JUMPDEST ISZERO PUSH2 0xA87 JUMPI PUSH32 0xB2692B979A0EBBC948769201966BF3AF4548DC99B201B0188D8F7D727C612B83 SWAP2 PUSH1 0x40 SWAP2 PUSH1 0x4 SLOAD SWAP1 ISZERO ISZERO SWAP1 PUSH10 0xFF000000000000000000 DUP3 PUSH1 0x48 SHL AND SWAP1 PUSH9 0xFF0000000000000000 DUP5 DUP7 SHL AND SWAP1 PUSH10 0xFFFF0000000000000000 NOT AND OR OR PUSH1 0x4 SSTORE DUP3 MLOAD SWAP2 DUP3 MSTORE PUSH1 0x20 DUP3 ADD MSTORE LOG1 STOP JUMPDEST PUSH1 0x40 MLOAD PUSH3 0x461BCD PUSH1 0xE5 SHL DUP2 MSTORE PUSH1 0x20 PUSH1 0x4 DUP3 ADD MSTORE PUSH1 0x23 PUSH1 0x24 DUP3 ADD MSTORE PUSH32 0x4174206C65617374206F6E65206D6574686F64206D75737420626520656E6162 PUSH1 0x44 DUP3 ADD MSTORE PUSH3 0x1B1959 PUSH1 0xEA SHL PUSH1 0x64 DUP3 ADD MSTORE PUSH1 0x84 SWAP1 REVERT JUMPDEST POP DUP1 PUSH2 0xA17 JUMP JUMPDEST CALLVALUE PUSH2 0x2C4 JUMPI PUSH1 0x20 CALLDATASIZE PUSH1 0x3 NOT ADD SLT PUSH2 0x2C4 JUMPI PUSH2 0xAF8 PUSH2 0x1D9D JUMP JUMPDEST PUSH1 0x1 PUSH1 0x1 PUSH1 0x40 SHL SUB AND PUSH0 DUP2 DUP2 MSTORE PUSH1 0x8 PUSH1 0x20 MSTORE PUSH1 0x40 DUP2 KECCAK256 DUP1 SLOAD SWAP1 SWAP3 SWAP1 SWAP2 SWAP1 DUP2 JUMPDEST DUP4 DUP2 LT PUSH2 0xB3F JUMPI PUSH1 0x60 DUP5 DUP5 PUSH2 0xB2C DUP2 DUP4 PUSH2 0x1F88 JUMP JUMPDEST SWAP1 PUSH1 0x40 MLOAD SWAP3 DUP4 MSTORE PUSH1 0x20 DUP4 ADD MSTORE PUSH1 0x40 DUP3 ADD MSTORE RETURN JUMPDEST PUSH2 0xB49 DUP2 DUP7 PUSH2 0x1F20 JUMP JUMPDEST PUSH1 0x1 DUP1 PUSH1 0xA0 SHL SUB SWAP2 SLOAD SWAP1 PUSH1 0x3 SHL SHR AND PUSH0 MSTORE PUSH1 0x7 PUSH1 0x20 MSTORE PUSH1 0x40 PUSH0 KECCAK256 DUP3 PUSH0 MSTORE PUSH1 0x20 MSTORE PUSH1 0xFF PUSH1 0x2 PUSH1 0x40 PUSH0 KECCAK256 ADD SLOAD AND PUSH2 0xB81 JUMPI JUMPDEST PUSH1 0x1 ADD PUSH2 0xB17 JUMP JUMPDEST SWAP2 PUSH2 0xB8D PUSH1 0x1 SWAP2 PUSH2 0x2113 JUMP JUMPDEST SWAP3 SWAP1 POP PUSH2 0xB79 JUMP JUMPDEST CALLVALUE PUSH2 0x2C4 JUMPI PUSH1 0x20 CALLDATASIZE PUSH1 0x3 NOT ADD SLT PUSH2 0x2C4 JUMPI PUSH1 0x4 CALLDATALOAD PUSH1 0x1 PUSH1 0x1 PUSH1 0x40 SHL SUB DUP2 GT PUSH2 0x2C4 JUMPI PUSH1 0x20 PUSH2 0xBCA PUSH2 0xBF4 SWAP3 CALLDATASIZE SWAP1 PUSH1 0x4 ADD PUSH2 0x1E9D JUMP JUMPDEST PUSH2 0xBD2 PUSH2 0x22E1 JUMP JUMPDEST PUSH1 0x40 MLOAD DUP1 SWAP4 DUP2 SWAP3 PUSH4 0x461D54E9 PUSH1 0xE0 SHL DUP4 MSTORE PUSH1 0x40 PUSH1 0x4 DUP5 ADD MSTORE PUSH1 0x44 DUP4 ADD SWAP1 PUSH2 0x1DC9 JUMP JUMPDEST PUSH0 PUSH1 0x24 DUP4 ADD MSTORE SUB DUP2 PUSH0 ADDRESS GAS CALL DUP1 ISZERO PUSH2 0xC4F JUMPI PUSH1 0x20 SWAP2 PUSH0 SWAP2 PUSH2 0xC22 JUMPI JUMPDEST POP PUSH1 0x1 PUSH1 0x1 PUSH1 0x40 SHL SUB PUSH1 0x40 MLOAD SWAP2 AND DUP2 MSTORE RETURN JUMPDEST PUSH2 0xC42 SWAP2 POP DUP3 RETURNDATASIZE DUP5 GT PUSH2 0xC48 JUMPI JUMPDEST PUSH2 0xC3A DUP2 DUP4 PUSH2 0x1E61 JUMP JUMPDEST DUP2 ADD SWAP1 PUSH2 0x20F4 JUMP JUMPDEST DUP3 PUSH2 0xC10 JUMP JUMPDEST POP RETURNDATASIZE PUSH2 0xC30 JUMP JUMPDEST PUSH1 0x40 MLOAD RETURNDATASIZE PUSH0 DUP3 RETURNDATACOPY RETURNDATASIZE SWAP1 REVERT JUMPDEST CALLVALUE PUSH2 0x2C4 JUMPI PUSH1 0x20 CALLDATASIZE PUSH1 0x3 NOT ADD SLT PUSH2 0x2C4 JUMPI PUSH1 0x1 PUSH1 0x1 PUSH1 0x40 SHL SUB PUSH2 0xC7B PUSH2 0x1D9D JUMP JUMPDEST PUSH0 PUSH2 0x140 PUSH1 0x40 MLOAD PUSH2 0xC8B DUP2 PUSH2 0x1E2A JUMP JUMPDEST DUP3 DUP2 MSTORE PUSH1 0x60 PUSH1 0x20 DUP3 ADD MSTORE DUP3 PUSH1 0x40 DUP3 ADD MSTORE DUP3 PUSH1 0x60 DUP3 ADD MSTORE DUP3 PUSH1 0x80 DUP3 ADD MSTORE DUP3 PUSH1 0xA0 DUP3 ADD MSTORE DUP3 PUSH1 0xC0 DUP3 ADD MSTORE DUP3 PUSH1 0xE0 DUP3 ADD MSTORE DUP3 PUSH2 0x100 DUP3 ADD MSTORE DUP3 PUSH2 0x120 DUP3 ADD MSTORE ADD MSTORE AND PUSH0 MSTORE PUSH1 0x6 PUSH1 0x20 MSTORE PUSH1 0x40 PUSH0 KECCAK256 PUSH1 0x40 MLOAD SWAP1 PUSH2 0xCE2 DUP3 PUSH2 0x1E2A JUMP JUMPDEST PUSH1 0xFF DUP2 SLOAD AND PUSH1 0x3 DUP2 LT ISZERO PUSH2 0x934 JUMPI DUP3 MSTORE PUSH2 0xCFE PUSH1 0x1 DUP3 ADD PUSH2 0x1F35 JUMP JUMPDEST SWAP1 PUSH1 0x20 DUP4 ADD SWAP2 DUP3 MSTORE PUSH1 0x2 DUP2 ADD SLOAD SWAP1 PUSH1 0x40 DUP5 ADD SWAP2 DUP3 MSTORE PUSH1 0x3 DUP2 ADD SLOAD SWAP1 PUSH1 0x60 DUP6 ADD SWAP2 DUP3 MSTORE PUSH1 0x4 DUP2 ADD SLOAD PUSH1 0x80 DUP7 ADD SWAP1 PUSH1 0x1 DUP1 PUSH1 0xA0 SHL SUB DUP2 AND DUP3 MSTORE PUSH1 0xFF PUSH1 0xA0 DUP9 ADD SWAP2 PUSH1 0xA0 SHR AND ISZERO ISZERO DUP2 MSTORE PUSH1 0x5 DUP4 ADD SLOAD PUSH1 0xC0 DUP9 ADD SWAP1 DUP2 MSTORE PUSH1 0x6 DUP5 ADD SLOAD SWAP2 PUSH1 0xE0 DUP10 ADD SWAP3 DUP4 MSTORE PUSH1 0x7 DUP6 ADD SLOAD SWAP4 PUSH2 0x100 DUP11 ADD SWAP5 DUP6 MSTORE PUSH1 0xFF PUSH1 0x9 PUSH1 0x8 DUP9 ADD SLOAD SWAP8 PUSH2 0x120 DUP14 ADD SWAP9 DUP10 MSTORE ADD SLOAD AND SWAP7 PUSH2 0x140 DUP12 ADD SWAP8 ISZERO ISZERO DUP9 MSTORE PUSH1 0x40 MLOAD SWAP10 PUSH1 0x20 DUP12 MSTORE PUSH2 0xDA7 PUSH2 0x180 DUP13 ADD SWAP13 PUSH1 0x20 DUP14 ADD SWAP1 MLOAD PUSH2 0x1F13 JUMP JUMPDEST MLOAD SWAP9 PUSH2 0x160 PUSH1 0x40 DUP13 ADD MSTORE DUP10 MLOAD DUP1 SWAP13 MSTORE PUSH1 0x20 PUSH2 0x1A0 DUP13 ADD SWAP11 ADD DUP13 PUSH0 SWAP14 DUP15 JUMPDEST LT PUSH2 0xE19 JUMPI POP POP MLOAD PUSH1 0x60 DUP12 ADD MSTORE MLOAD PUSH1 0x80 DUP11 ADD MSTORE MLOAD PUSH1 0x1 PUSH1 0x1 PUSH1 0xA0 SHL SUB AND PUSH1 0xA0 DUP10 ADD MSTORE MLOAD ISZERO ISZERO PUSH1 0xC0 DUP9 ADD MSTORE MLOAD PUSH1 0xE0 DUP8 ADD MSTORE MLOAD PUSH2 0x100 DUP7 ADD MSTORE MLOAD PUSH2 0x120 DUP6 ADD MSTORE MLOAD PUSH2 0x140 DUP5 ADD MSTORE MLOAD ISZERO ISZERO PUSH2 0x160 DUP4 ADD MSTORE DUP2 SWAP1 SUB SWAP2 POP RETURN JUMPDEST DUP2 MLOAD PUSH1 0x1 PUSH1 0x1 PUSH1 0xA0 SHL SUB AND DUP13 MSTORE PUSH1 0x1 SWAP14 SWAP1 SWAP14 ADD SWAP13 PUSH1 0x20 SWAP12 DUP13 ADD SWAP12 SWAP1 SWAP2 ADD SWAP1 DUP1 DUP15 PUSH2 0xDC4 JUMP JUMPDEST CALLVALUE PUSH2 0x2C4 JUMPI PUSH0 CALLDATASIZE PUSH1 0x3 NOT ADD SLT PUSH2 0x2C4 JUMPI PUSH1 0x20 PUSH1 0xA SLOAD PUSH1 0x40 MLOAD SWAP1 DUP2 MSTORE RETURN JUMPDEST CALLVALUE PUSH2 0x2C4 JUMPI PUSH0 CALLDATASIZE PUSH1 0x3 NOT ADD SLT PUSH2 0x2C4 JUMPI PUSH1 0x20 PUSH1 0xFF PUSH1 0x4 SLOAD PUSH1 0x48 SHR AND PUSH1 0x40 MLOAD SWAP1 ISZERO ISZERO DUP2 MSTORE RETURN JUMPDEST CALLVALUE PUSH2 0x2C4 JUMPI PUSH0 CALLDATASIZE PUSH1 0x3 NOT ADD SLT PUSH2 0x2C4 JUMPI PUSH0 SLOAD PUSH1 0x40 MLOAD PUSH1 0x1 PUSH1 0x1 PUSH1 0xA0 SHL SUB SWAP1 SWAP2 AND DUP2 MSTORE PUSH1 0x20 SWAP1 RETURN JUMPDEST CALLVALUE PUSH2 0x2C4 JUMPI PUSH0 CALLDATASIZE PUSH1 0x3 NOT ADD SLT PUSH2 0x2C4 JUMPI PUSH1 0x20 PUSH1 0x40 MLOAD PUSH1 0x3C DUP2 MSTORE RETURN JUMPDEST CALLVALUE PUSH2 0x2C4 JUMPI PUSH1 0x40 CALLDATASIZE PUSH1 0x3 NOT ADD SLT PUSH2 0x2C4 JUMPI PUSH2 0xEDB PUSH2 0x1E05 JUMP JUMPDEST PUSH2 0xEE3 PUSH2 0x1DB3 JUMP JUMPDEST SWAP1 PUSH1 0x1 DUP1 PUSH1 0xA0 SHL SUB AND PUSH0 MSTORE PUSH1 0x7 PUSH1 0x20 MSTORE PUSH1 0x1 PUSH1 0x1 PUSH1 0x40 SHL SUB PUSH1 0x40 PUSH0 KECCAK256 SWAP2 AND PUSH0 MSTORE PUSH1 0x20 MSTORE PUSH1 0xA0 PUSH1 0x40 PUSH0 KECCAK256 DUP1 SLOAD SWAP1 PUSH1 0x1 DUP2 ADD SLOAD SWAP1 PUSH1 0xFF PUSH1 0x2 DUP3 ADD SLOAD AND PUSH1 0x4 PUSH1 0x3 DUP4 ADD SLOAD SWAP3 ADD SLOAD SWAP3 PUSH1 0x40 MLOAD SWAP5 DUP6 MSTORE PUSH1 0x20 DUP6 ADD MSTORE ISZERO ISZERO PUSH1 0x40 DUP5 ADD MSTORE PUSH1 0x60 DUP4 ADD MSTORE PUSH1 0x80 DUP3 ADD MSTORE RETURN JUMPDEST CALLVALUE PUSH2 0x2C4 JUMPI PUSH0 CALLDATASIZE PUSH1 0x3 NOT ADD SLT PUSH2 0x2C4 JUMPI PUSH2 0xF5E PUSH2 0x2121 JUMP JUMPDEST PUSH0 DUP1 SLOAD PUSH1 0x1 PUSH1 0x1 PUSH1 0xA0 SHL SUB NOT DUP2 AND DUP3 SSTORE PUSH1 0x1 PUSH1 0x1 PUSH1 0xA0 SHL SUB AND PUSH32 0x8BE0079C531659141344CD1FD0A4F28419497F9722A3DAAFE3B4186F6B6457E0 DUP3 DUP1 LOG3 STOP JUMPDEST CALLVALUE PUSH2 0x2C4 JUMPI PUSH1 0x40 CALLDATASIZE PUSH1 0x3 NOT ADD SLT PUSH2 0x2C4 JUMPI PUSH2 0xFB6 PUSH2 0x22E1 JUMP JUMPDEST PUSH1 0x40 MLOAD PUSH4 0xE7C4155D PUSH1 0xE0 SHL DUP2 MSTORE PUSH1 0x4 CALLDATALOAD PUSH1 0x4 DUP3 ADD MSTORE PUSH1 0x24 CALLDATALOAD PUSH1 0x24 DUP3 ADD MSTORE PUSH0 PUSH1 0x44 DUP3 ADD MSTORE PUSH1 0x20 DUP2 PUSH1 0x64 DUP2 PUSH0 ADDRESS GAS CALL DUP1 ISZERO PUSH2 0xC4F JUMPI PUSH1 0x20 SWAP2 PUSH0 SWAP2 PUSH2 0xC22 JUMPI POP PUSH1 0x1 PUSH1 0x1 PUSH1 0x40 SHL SUB PUSH1 0x40 MLOAD SWAP2 AND DUP2 MSTORE RETURN JUMPDEST CALLVALUE PUSH2 0x2C4 JUMPI PUSH1 0x20 CALLDATASIZE PUSH1 0x3 NOT ADD SLT PUSH2 0x2C4 JUMPI PUSH1 0x4 CALLDATALOAD PUSH2 0x1020 PUSH2 0x2121 JUMP JUMPDEST PUSH1 0x3C DUP2 LT ISZERO DUP1 PUSH2 0x106A JUMPI JUMPDEST ISZERO PUSH2 0x1035 JUMPI PUSH1 0x5 SSTORE STOP JUMPDEST PUSH1 0x40 MLOAD PUSH3 0x461BCD PUSH1 0xE5 SHL DUP2 MSTORE PUSH1 0x20 PUSH1 0x4 DUP3 ADD MSTORE PUSH1 0xD PUSH1 0x24 DUP3 ADD MSTORE PUSH13 0x496E76616C69642064656C6179 PUSH1 0x98 SHL PUSH1 0x44 DUP3 ADD MSTORE PUSH1 0x64 SWAP1 REVERT JUMPDEST POP PUSH2 0xE10 DUP2 GT ISZERO PUSH2 0x102B JUMP JUMPDEST CALLVALUE PUSH2 0x2C4 JUMPI PUSH1 0x40 CALLDATASIZE PUSH1 0x3 NOT ADD SLT PUSH2 0x2C4 JUMPI PUSH2 0x108F PUSH2 0x1D9D JUMP JUMPDEST PUSH1 0x1 PUSH1 0x1 PUSH1 0x40 SHL SUB PUSH1 0x24 CALLDATALOAD SWAP2 AND PUSH0 MSTORE PUSH1 0x8 PUSH1 0x20 MSTORE PUSH1 0x40 PUSH0 KECCAK256 DUP1 SLOAD DUP3 LT ISZERO PUSH2 0x2C4 JUMPI PUSH1 0x20 SWAP2 PUSH2 0x10BC SWAP2 PUSH2 0x1F20 JUMP JUMPDEST SWAP1 SLOAD PUSH1 0x40 MLOAD PUSH1 0x3 SWAP3 SWAP1 SWAP3 SHL SHR PUSH1 0x1 PUSH1 0x1 PUSH1 0xA0 SHL SUB AND DUP2 MSTORE RETURN JUMPDEST CALLVALUE PUSH2 0x2C4 JUMPI PUSH1 0x20 CALLDATASIZE PUSH1 0x3 NOT ADD SLT PUSH2 0x2C4 JUMPI PUSH1 0x1 PUSH1 0x1 PUSH1 0xA0 SHL SUB PUSH2 0x10F6 PUSH2 0x1E05 JUMP JUMPDEST AND PUSH0 MSTORE PUSH1 0xB PUSH1 0x20 MSTORE PUSH1 0x20 PUSH1 0xFF PUSH1 0x40 PUSH0 KECCAK256 SLOAD AND PUSH1 0x40 MLOAD SWAP1 ISZERO ISZERO DUP2 MSTORE RETURN JUMPDEST CALLVALUE PUSH2 0x2C4 JUMPI PUSH1 0x20 CALLDATASIZE PUSH1 0x3 NOT ADD SLT PUSH2 0x2C4 JUMPI PUSH1 0x4 CALLDATALOAD PUSH0 MSTORE PUSH1 0x9 PUSH1 0x20 MSTORE PUSH1 0x20 PUSH1 0x40 PUSH0 KECCAK256 SLOAD PUSH1 0x40 MLOAD SWAP1 DUP2 MSTORE RETURN JUMPDEST CALLVALUE PUSH2 0x2C4 JUMPI PUSH1 0x20 CALLDATASIZE PUSH1 0x3 NOT ADD SLT PUSH2 0x2C4 JUMPI PUSH1 0x1 PUSH1 0x1 PUSH1 0x40 SHL SUB PUSH2 0x115D PUSH2 0x1D9D JUMP JUMPDEST AND PUSH0 MSTORE PUSH1 0x6 PUSH1 0x20 MSTORE PUSH2 0x140 PUSH1 0x40 PUSH0 KECCAK256 PUSH1 0xFF DUP2 SLOAD AND SWAP1 PUSH1 0x2 DUP2 ADD SLOAD SWAP1 PUSH1 0x3 DUP2 ADD SLOAD PUSH1 0x4 DUP3 ADD SLOAD PUSH1 0x5 DUP4 ADD SLOAD PUSH1 0xFF PUSH1 0x6 DUP6 ADD SLOAD SWAP3 PUSH1 0x7 DUP7 ADD SLOAD SWAP5 DUP3 PUSH1 0x9 PUSH1 0x8 DUP10 ADD SLOAD SWAP9 ADD SLOAD AND SWAP8 PUSH2 0x11AF PUSH1 0x40 MLOAD DUP1 SWAP12 PUSH2 0x1F13 JUMP JUMPDEST PUSH1 0x20 DUP11 ADD MSTORE PUSH1 0x40 DUP10 ADD MSTORE PUSH1 0x1 DUP1 PUSH1 0xA0 SHL SUB DUP2 AND PUSH1 0x60 DUP10 ADD MSTORE PUSH1 0xA0 SHR AND ISZERO ISZERO PUSH1 0x80 DUP8 ADD MSTORE PUSH1 0xA0 DUP7 ADD MSTORE PUSH1 0xC0 DUP6 ADD MSTORE PUSH1 0xE0 DUP5 ADD MSTORE PUSH2 0x100 DUP4 ADD MSTORE ISZERO ISZERO PUSH2 0x120 DUP3 ADD MSTORE RETURN JUMPDEST CALLVALUE PUSH2 0x2C4 JUMPI PUSH0 CALLDATASIZE PUSH1 0x3 NOT ADD SLT PUSH2 0x2C4 JUMPI PUSH1 0x20 PUSH1 0x40 MLOAD PUSH2 0xE10 DUP2 MSTORE RETURN JUMPDEST CALLVALUE PUSH2 0x2C4 JUMPI PUSH0 CALLDATASIZE PUSH1 0x3 NOT ADD SLT PUSH2 0x2C4 JUMPI PUSH1 0x20 PUSH1 0xFF PUSH1 0x2 SLOAD AND PUSH1 0x40 MLOAD SWAP1 ISZERO ISZERO DUP2 MSTORE RETURN JUMPDEST CALLVALUE PUSH2 0x2C4 JUMPI PUSH1 0x20 CALLDATASIZE PUSH1 0x3 NOT ADD SLT PUSH2 0x2C4 JUMPI PUSH1 0x4 CALLDATALOAD PUSH1 0x1 PUSH1 0x1 PUSH1 0x40 SHL SUB DUP2 GT PUSH2 0x2C4 JUMPI PUSH2 0x125F SWAP1 CALLDATASIZE SWAP1 PUSH1 0x4 ADD PUSH2 0x1E9D JUMP JUMPDEST DUP1 MLOAD ISZERO PUSH2 0x1306 JUMPI PUSH0 NOT NUMBER ADD NUMBER DUP2 GT PUSH2 0x12F2 JUMPI PUSH2 0x12B8 SWAP1 PUSH1 0x3 SLOAD PUSH1 0x40 MLOAD SWAP1 PUSH1 0x20 DUP3 ADD SWAP3 BLOCKHASH DUP4 MSTORE TIMESTAMP PUSH1 0x40 DUP4 ADD MSTORE PREVRANDAO PUSH1 0x60 DUP4 ADD MSTORE CALLER PUSH1 0x60 SHL PUSH1 0x80 DUP4 ADD MSTORE PUSH1 0x94 DUP3 ADD MSTORE PUSH1 0x94 DUP2 MSTORE PUSH2 0x12AD PUSH1 0xB4 DUP3 PUSH2 0x1E61 JUMP JUMPDEST MLOAD SWAP1 KECCAK256 DUP3 MLOAD SWAP1 PUSH2 0x20D6 JUMP JUMPDEST DUP2 MLOAD DUP2 LT ISZERO PUSH2 0x12DE JUMPI PUSH1 0x5 SHL ADD PUSH1 0x20 SWAP1 DUP2 ADD MLOAD PUSH1 0x40 MLOAD PUSH1 0x1 PUSH1 0x1 PUSH1 0xA0 SHL SUB SWAP2 SWAP1 SWAP2 AND DUP2 MSTORE RETURN JUMPDEST PUSH4 0x4E487B71 PUSH1 0xE0 SHL PUSH0 MSTORE PUSH1 0x32 PUSH1 0x4 MSTORE PUSH1 0x24 PUSH0 REVERT JUMPDEST PUSH4 0x4E487B71 PUSH1 0xE0 SHL PUSH0 MSTORE PUSH1 0x11 PUSH1 0x4 MSTORE PUSH1 0x24 PUSH0 REVERT JUMPDEST PUSH1 0x40 MLOAD PUSH3 0x461BCD PUSH1 0xE5 SHL DUP2 MSTORE PUSH1 0x20 PUSH1 0x4 DUP3 ADD MSTORE PUSH1 0xF PUSH1 0x24 DUP3 ADD MSTORE PUSH15 0x4E6F207061727469636970616E7473 PUSH1 0x88 SHL PUSH1 0x44 DUP3 ADD MSTORE PUSH1 0x64 SWAP1 REVERT JUMPDEST CALLVALUE PUSH2 0x2C4 JUMPI PUSH1 0x60 CALLDATASIZE PUSH1 0x3 NOT ADD SLT PUSH2 0x2C4 JUMPI PUSH2 0x1356 PUSH2 0x1D9D JUMP JUMPDEST PUSH1 0x24 CALLDATALOAD SWAP1 PUSH2 0x1362 PUSH2 0x22E1 JUMP JUMPDEST PUSH2 0x136A PUSH2 0x2147 JUMP JUMPDEST PUSH1 0x1 PUSH1 0x1 PUSH1 0x40 SHL SUB DUP2 AND SWAP2 DUP3 PUSH0 MSTORE PUSH1 0x6 PUSH1 0x20 MSTORE PUSH2 0x13AD PUSH1 0xFF PUSH1 0x40 PUSH0 KECCAK256 PUSH2 0x50A DUP3 PUSH1 0x9 PUSH1 0x4 DUP5 ADD SLOAD SWAP4 PUSH2 0x13A5 PUSH1 0x1 DUP1 PUSH1 0xA0 SHL SUB DUP7 AND ISZERO ISZERO PUSH2 0x1F95 JUMP JUMPDEST ADD SLOAD AND PUSH2 0x204B JUMP JUMPDEST CALLER PUSH0 MSTORE PUSH1 0x7 PUSH1 0x20 MSTORE PUSH1 0x40 PUSH0 KECCAK256 DUP4 PUSH0 MSTORE PUSH1 0x20 MSTORE PUSH1 0x40 PUSH0 KECCAK256 SWAP3 DUP4 SLOAD SWAP4 DUP5 ISZERO PUSH2 0x14DA JUMPI PUSH1 0x2 DUP2 ADD SWAP1 DUP2 SLOAD SWAP6 PUSH2 0x13E2 PUSH1 0xFF DUP9 AND ISZERO PUSH2 0x2097 JUMP JUMPDEST PUSH1 0x4 DUP3 ADD SLOAD TIMESTAMP GT PUSH2 0x149F JUMPI PUSH1 0x40 MLOAD PUSH1 0x20 DUP2 ADD SWAP1 DUP7 DUP3 MSTORE PUSH1 0x44 CALLDATALOAD PUSH1 0x40 DUP3 ADD MSTORE CALLER PUSH1 0x60 SHL PUSH1 0x60 DUP3 ADD MSTORE PUSH1 0x54 DUP2 MSTORE PUSH2 0x1418 PUSH1 0x74 DUP3 PUSH2 0x1E61 JUMP JUMPDEST MLOAD SWAP1 KECCAK256 SUB PUSH2 0x1469 JUMPI PUSH2 0x1463 SWAP6 DUP5 PUSH1 0x1 DUP1 SWAP4 ADD SSTORE PUSH1 0xFF NOT AND OR SWAP1 SSTORE PUSH1 0x40 MLOAD SWAP2 DUP3 MSTORE PUSH32 0xE31C53097A08B041054A61A87113ADC8F265BAE8DF68BA97E83AA8F8901721F7 PUSH1 0x20 CALLER SWAP4 LOG3 PUSH2 0x2382 JUMP JUMPDEST PUSH1 0x1 DUP1 SSTORE STOP JUMPDEST PUSH1 0x40 MLOAD PUSH3 0x461BCD PUSH1 0xE5 SHL DUP2 MSTORE PUSH1 0x20 PUSH1 0x4 DUP3 ADD MSTORE PUSH1 0xE PUSH1 0x24 DUP3 ADD MSTORE PUSH14 0x125B9D985B1A59081C995D99585B PUSH1 0x92 SHL PUSH1 0x44 DUP3 ADD MSTORE PUSH1 0x64 SWAP1 REVERT JUMPDEST PUSH1 0x40 MLOAD PUSH3 0x461BCD PUSH1 0xE5 SHL DUP2 MSTORE PUSH1 0x20 PUSH1 0x4 DUP3 ADD MSTORE PUSH1 0x13 PUSH1 0x24 DUP3 ADD MSTORE PUSH19 0x14995D99585B081C195C9A5BD908195B991959 PUSH1 0x6A SHL PUSH1 0x44 DUP3 ADD MSTORE PUSH1 0x64 SWAP1 REVERT JUMPDEST PUSH1 0x40 MLOAD PUSH3 0x461BCD PUSH1 0xE5 SHL DUP2 MSTORE PUSH1 0x20 PUSH1 0x4 DUP3 ADD MSTORE PUSH1 0x13 PUSH1 0x24 DUP3 ADD MSTORE PUSH19 0x139BC818DBDB5B5A5D1B595B9D08199BDD5B99 PUSH1 0x6A SHL PUSH1 0x44 DUP3 ADD MSTORE PUSH1 0x64 SWAP1 REVERT JUMPDEST CALLVALUE PUSH2 0x2C4 JUMPI PUSH0 CALLDATASIZE PUSH1 0x3 NOT ADD SLT PUSH2 0x2C4 JUMPI PUSH2 0x152D PUSH2 0x2121 JUMP JUMPDEST PUSH2 0x1535 PUSH2 0x22E1 JUMP JUMPDEST PUSH1 0x1 PUSH1 0xFF NOT PUSH1 0x2 SLOAD AND OR PUSH1 0x2 SSTORE PUSH32 0x62E78CEA01BEE320CD4E420270B5EA74000D11B0C9F74754EBDBFC544B05A258 PUSH1 0x20 PUSH1 0x40 MLOAD CALLER DUP2 MSTORE LOG1 STOP JUMPDEST CALLVALUE PUSH2 0x2C4 JUMPI PUSH0 CALLDATASIZE PUSH1 0x3 NOT ADD SLT PUSH2 0x2C4 JUMPI PUSH2 0x1586 PUSH2 0x2121 JUMP JUMPDEST PUSH1 0x2 SLOAD PUSH1 0xFF DUP2 AND ISZERO PUSH2 0x15C5 JUMPI PUSH1 0xFF NOT AND PUSH1 0x2 SSTORE PUSH32 0x5DB9EE0A495BF2E6FF9C91A7834C1BA4FDD244A5E8AA4E537BD38AEAE4B073AA PUSH1 0x20 PUSH1 0x40 MLOAD CALLER DUP2 MSTORE LOG1 STOP JUMPDEST PUSH1 0x40 MLOAD PUSH3 0x461BCD PUSH1 0xE5 SHL DUP2 MSTORE PUSH1 0x20 PUSH1 0x4 DUP3 ADD MSTORE PUSH1 0x14 PUSH1 0x24 DUP3 ADD MSTORE PUSH20 0x14185D5CD8589B194E881B9BDD081C185D5CD959 PUSH1 0x62 SHL PUSH1 0x44 DUP3 ADD MSTORE PUSH1 0x64 SWAP1 REVERT JUMPDEST CALLVALUE PUSH2 0x2C4 JUMPI PUSH1 0x40 CALLDATASIZE PUSH1 0x3 NOT ADD SLT PUSH2 0x2C4 JUMPI PUSH1 0x4 CALLDATALOAD PUSH1 0x1 PUSH1 0x1 PUSH1 0x40 SHL SUB DUP2 GT PUSH2 0x2C4 JUMPI PUSH2 0x1631 SWAP1 CALLDATASIZE SWAP1 PUSH1 0x4 ADD PUSH2 0x1E9D JUMP JUMPDEST PUSH2 0x1639 PUSH2 0x1E1B JUMP JUMPDEST PUSH2 0x1641 PUSH2 0x22E1 JUMP JUMPDEST DUP2 MLOAD DUP1 ISZERO ISZERO SWAP1 DUP2 PUSH2 0x1948 JUMPI JUMPDEST POP ISZERO PUSH2 0x1903 JUMPI PUSH1 0x4 SLOAD SWAP1 PUSH1 0xFF DUP3 PUSH1 0x40 SHR AND DUP1 ISZERO PUSH2 0x18F6 JUMPI JUMPDEST ISZERO PUSH2 0x18B1 JUMPI PUSH1 0x1 PUSH1 0x1 PUSH1 0x40 SHL SUB DUP3 AND SWAP2 PUSH1 0x1 PUSH1 0x1 PUSH1 0x40 SHL SUB PUSH2 0x1686 DUP5 PUSH2 0x2021 JUMP JUMPDEST AND SWAP1 PUSH1 0x1 PUSH1 0x1 PUSH1 0x40 SHL SUB NOT AND OR DUP1 PUSH1 0x4 SSTORE DUP2 PUSH2 0x16A4 PUSH1 0x5 SLOAD TIMESTAMP PUSH2 0x203E JUMP JUMPDEST SWAP2 DUP2 PUSH2 0x18A3 JUMPI JUMPDEST POP PUSH1 0x40 MLOAD SWAP2 PUSH2 0x16B9 DUP4 PUSH2 0x1E2A JUMP JUMPDEST PUSH0 DUP4 MSTORE PUSH1 0x20 DUP4 ADD SWAP6 DUP7 MSTORE PUSH1 0x40 DUP4 ADD PUSH0 DUP2 MSTORE PUSH1 0x60 DUP5 ADD PUSH0 DUP2 MSTORE PUSH1 0x80 DUP6 ADD CALLER DUP2 MSTORE PUSH1 0xA0 DUP7 ADD SWAP1 PUSH0 DUP3 MSTORE PUSH1 0xC0 DUP8 ADD SWAP2 NUMBER DUP4 MSTORE PUSH1 0xE0 DUP9 ADD SWAP4 TIMESTAMP DUP6 MSTORE PUSH2 0x100 DUP10 ADD SWAP6 PUSH0 DUP8 MSTORE PUSH2 0x120 DUP11 ADD SWAP8 DUP9 MSTORE PUSH2 0x140 DUP11 ADD SWAP9 ISZERO ISZERO DUP10 MSTORE DUP12 PUSH0 MSTORE PUSH1 0x6 PUSH1 0x20 MSTORE PUSH1 0x40 PUSH0 KECCAK256 SWAP10 MLOAD PUSH1 0x3 DUP2 LT ISZERO PUSH2 0x934 JUMPI PUSH1 0xFF DUP1 NOT DUP13 SLOAD AND SWAP2 AND OR DUP11 SSTORE PUSH1 0x1 DUP11 ADD SWAP13 MLOAD DUP1 MLOAD SWAP1 PUSH1 0x1 PUSH1 0x1 PUSH1 0x40 SHL SUB DUP3 GT PUSH2 0x5E7 JUMPI PUSH1 0x1 PUSH1 0x40 SHL DUP3 GT PUSH2 0x5E7 JUMPI DUP15 DUP1 SLOAD SWAP1 DUP4 DUP2 SSTORE DUP2 DUP5 LT PUSH2 0x187D JUMPI JUMPDEST POP POP PUSH1 0x20 ADD SWAP14 PUSH0 MSTORE PUSH1 0x20 PUSH0 KECCAK256 SWAP14 PUSH0 SWAP1 JUMPDEST DUP3 DUP3 LT PUSH2 0x1860 JUMPI POP POP SWAP1 MLOAD PUSH1 0x2 DUP12 ADD SSTORE POP MLOAD PUSH1 0x3 DUP10 ADD SSTORE SWAP1 MLOAD PUSH1 0x4 DUP9 ADD DUP1 SLOAD SWAP3 MLOAD PUSH1 0xFF PUSH1 0xA0 SHL SWAP1 ISZERO ISZERO PUSH1 0xA0 SHL AND PUSH1 0x1 PUSH1 0x1 PUSH1 0xA0 SHL SUB SWAP1 SWAP3 AND PUSH1 0x1 PUSH1 0x1 PUSH1 0xA8 SHL SUB NOT SWAP1 SWAP4 AND SWAP3 SWAP1 SWAP3 OR OR SWAP1 SSTORE PUSH1 0x20 SWAP9 POP PUSH2 0x17FA SWAP6 SWAP5 PUSH1 0x9 SWAP5 SWAP1 SWAP4 SWAP1 SWAP3 SWAP1 SWAP2 MLOAD PUSH1 0x5 DUP8 ADD SSTORE MLOAD PUSH1 0x6 DUP7 ADD SSTORE MLOAD PUSH1 0x7 DUP6 ADD SSTORE MLOAD PUSH1 0x8 DUP5 ADD SSTORE MLOAD ISZERO ISZERO SWAP2 ADD SWAP1 PUSH1 0xFF DUP1 NOT DUP4 SLOAD AND SWAP2 ISZERO ISZERO AND OR SWAP1 SSTORE JUMP JUMPDEST PUSH1 0x40 MLOAD SWAP1 PUSH0 DUP3 MSTORE ISZERO DUP3 PUSH32 0xE0CE7AAEB215BB79A9DD4DC5A9E9268C5ABAA14011F5AAFA4CC86140273DB5DE PUSH1 0x40 DUP4 ISZERO SWAP5 DUP6 DUP9 DUP3 ADD MSTORE LOG2 SWAP1 PUSH2 0x1850 JUMPI JUMPDEST PUSH2 0x1842 JUMPI JUMPDEST PUSH1 0x40 MLOAD SWAP1 DUP2 MSTORE RETURN JUMPDEST PUSH2 0x184B DUP2 PUSH2 0x2325 JUMP JUMPDEST PUSH2 0x183A JUMP JUMPDEST POP PUSH1 0xFF PUSH1 0x4 SLOAD PUSH1 0x48 SHR AND ISZERO PUSH2 0x1835 JUMP JUMPDEST DUP16 SWAP2 PUSH1 0x1 SWAP2 DUP2 PUSH1 0x20 DUP5 DUP1 PUSH1 0xA0 SHL SUB DUP4 MLOAD AND SWAP3 ADD SWAP5 ADD SSTORE ADD SWAP1 PUSH2 0x176F JUMP JUMPDEST PUSH0 MSTORE DUP3 PUSH1 0x20 PUSH0 KECCAK256 SWAP2 DUP3 ADD SWAP2 ADD JUMPDEST DUP2 DUP2 LT PUSH2 0x1898 JUMPI POP DUP16 PUSH2 0x175F JUMP JUMPDEST PUSH0 DUP2 SSTORE PUSH1 0x1 ADD PUSH2 0x188A JUMP JUMPDEST PUSH1 0xFF SWAP2 POP PUSH1 0x48 SHR AND DUP6 PUSH2 0x16AB JUMP JUMPDEST PUSH1 0x40 MLOAD PUSH3 0x461BCD PUSH1 0xE5 SHL DUP2 MSTORE PUSH1 0x20 PUSH1 0x4 DUP3 ADD MSTORE PUSH1 0x1C PUSH1 0x24 DUP3 ADD MSTORE PUSH32 0x4E6F2072616E646F6D6E657373206D6574686F6420656E61626C656400000000 PUSH1 0x44 DUP3 ADD MSTORE PUSH1 0x64 SWAP1 REVERT JUMPDEST POP PUSH1 0xFF DUP3 PUSH1 0x48 SHR AND PUSH2 0x1665 JUMP JUMPDEST PUSH1 0x40 MLOAD PUSH3 0x461BCD PUSH1 0xE5 SHL DUP2 MSTORE PUSH1 0x20 PUSH1 0x4 DUP3 ADD MSTORE PUSH1 0x19 PUSH1 0x24 DUP3 ADD MSTORE PUSH32 0x496E76616C6964207061727469636970616E7420636F756E7400000000000000 PUSH1 0x44 DUP3 ADD MSTORE PUSH1 0x64 SWAP1 REVERT JUMPDEST PUSH2 0x3E8 SWAP2 POP GT ISZERO DUP4 PUSH2 0x164D JUMP JUMPDEST CALLVALUE PUSH2 0x2C4 JUMPI PUSH1 0x40 CALLDATASIZE PUSH1 0x3 NOT ADD SLT PUSH2 0x2C4 JUMPI PUSH2 0x196E PUSH2 0x1D9D JUMP JUMPDEST PUSH1 0x24 CALLDATALOAD PUSH1 0x1 PUSH1 0x1 PUSH1 0x40 SHL SUB DUP2 GT PUSH2 0x2C4 JUMPI CALLDATASIZE PUSH1 0x23 DUP3 ADD SLT ISZERO PUSH2 0x2C4 JUMPI DUP1 PUSH1 0x4 ADD CALLDATALOAD PUSH2 0x1998 DUP2 PUSH2 0x1E82 JUMP JUMPDEST SWAP1 PUSH2 0x19A6 PUSH1 0x40 MLOAD SWAP3 DUP4 PUSH2 0x1E61 JUMP JUMPDEST DUP1 DUP3 MSTORE PUSH1 0x20 DUP3 ADD SWAP3 CALLDATASIZE PUSH1 0x24 DUP4 DUP4 ADD ADD GT PUSH2 0x2C4 JUMPI DUP2 PUSH0 SWAP3 PUSH1 0x24 PUSH1 0x20 SWAP4 ADD DUP7 CALLDATACOPY DUP4 ADD ADD MSTORE PUSH2 0x19D1 PUSH2 0x2121 JUMP JUMPDEST PUSH2 0x19D9 PUSH2 0x2147 JUMP JUMPDEST PUSH1 0x1 PUSH1 0x1 PUSH1 0x40 SHL SUB DUP4 AND PUSH0 MSTORE PUSH1 0x6 PUSH1 0x20 MSTORE PUSH2 0x1A0A PUSH1 0xFF PUSH1 0x4 PUSH1 0x40 PUSH0 KECCAK256 ADD SLOAD PUSH2 0x50A PUSH1 0x1 DUP1 PUSH1 0xA0 SHL SUB DUP3 AND ISZERO ISZERO PUSH2 0x1F95 JUMP JUMPDEST DUP1 MLOAD ISZERO PUSH2 0x1AB2 JUMPI PUSH0 NOT NUMBER ADD SWAP3 NUMBER DUP5 GT PUSH2 0x12F2 JUMPI PUSH2 0x1AAD PUSH1 0x27 PUSH2 0x1463 SWAP6 PUSH1 0x40 MLOAD PUSH1 0x20 DUP2 ADD SWAP2 BLOCKHASH DUP3 MSTORE TIMESTAMP PUSH1 0x40 DUP3 ADD MSTORE PREVRANDAO PUSH1 0x60 DUP3 ADD MSTORE PUSH1 0x1 PUSH1 0x1 PUSH1 0x40 SHL SUB PUSH1 0xC0 SHL DUP6 PUSH1 0xC0 SHL AND PUSH1 0x80 DUP3 ADD MSTORE PUSH2 0x1A76 PUSH1 0x88 DUP3 DUP9 MLOAD DUP1 DUP12 DUP5 DUP5 ADD MCOPY DUP2 ADD PUSH0 DUP4 DUP3 ADD MSTORE SUB ADD PUSH1 0x1F NOT DUP2 ADD DUP4 MSTORE DUP3 PUSH2 0x1E61 JUMP JUMPDEST MLOAD SWAP1 KECCAK256 SWAP4 PUSH1 0x40 MLOAD SWAP6 DUP7 SWAP2 PUSH7 0x26B0B73AB0B61D PUSH1 0xC9 SHL PUSH1 0x20 DUP5 ADD MSTORE MLOAD DUP1 SWAP2 DUP5 DUP5 ADD MCOPY DUP2 ADD PUSH0 DUP4 DUP3 ADD MSTORE SUB ADD PUSH1 0x1F NOT DUP2 ADD DUP6 MSTORE DUP5 PUSH2 0x1E61 JUMP JUMPDEST PUSH2 0x21CF JUMP JUMPDEST PUSH1 0x40 MLOAD PUSH3 0x461BCD PUSH1 0xE5 SHL DUP2 MSTORE PUSH1 0x20 PUSH1 0x4 DUP3 ADD MSTORE PUSH1 0x13 PUSH1 0x24 DUP3 ADD MSTORE PUSH19 0x26BAB9BA10383937BB34B232903932B0B9B7B7 PUSH1 0x69 SHL PUSH1 0x44 DUP3 ADD MSTORE PUSH1 0x64 SWAP1 REVERT JUMPDEST CALLVALUE PUSH2 0x2C4 JUMPI PUSH0 CALLDATASIZE PUSH1 0x3 NOT ADD SLT PUSH2 0x2C4 JUMPI PUSH1 0x20 PUSH1 0xFF PUSH1 0x4 SLOAD PUSH1 0x40 SHR AND PUSH1 0x40 MLOAD SWAP1 ISZERO ISZERO DUP2 MSTORE RETURN JUMPDEST CALLVALUE PUSH2 0x2C4 JUMPI PUSH1 0x40 CALLDATASIZE PUSH1 0x3 NOT ADD SLT PUSH2 0x2C4 JUMPI PUSH2 0x1B2B PUSH2 0x1E05 JUMP JUMPDEST PUSH2 0x1B33 PUSH2 0x1E1B JUMP JUMPDEST SWAP1 PUSH2 0x1B3C PUSH2 0x2121 JUMP JUMPDEST PUSH1 0x1 PUSH1 0x1 PUSH1 0xA0 SHL SUB AND SWAP1 DUP2 ISZERO PUSH2 0x1B9B JUMPI PUSH1 0x20 PUSH32 0xD6BB5132B8C1A381981B94D9EDA2294AB5F22147EF4D46613202CF95D69D10F8 SWAP2 DUP4 PUSH0 MSTORE PUSH1 0xB DUP3 MSTORE PUSH2 0x1B90 DUP2 PUSH1 0x40 PUSH0 KECCAK256 SWAP1 PUSH1 0xFF DUP1 NOT DUP4 SLOAD AND SWAP2 ISZERO ISZERO AND OR SWAP1 SSTORE JUMP JUMPDEST PUSH1 0x40 MLOAD SWAP1 ISZERO ISZERO DUP2 MSTORE LOG2 STOP JUMPDEST PUSH1 0x40 MLOAD PUSH3 0x461BCD PUSH1 0xE5 SHL DUP2 MSTORE PUSH1 0x20 PUSH1 0x4 DUP3 ADD MSTORE PUSH1 0x10 PUSH1 0x24 DUP3 ADD MSTORE PUSH16 0x24B73B30B634B210383937BB34B232B9 PUSH1 0x81 SHL PUSH1 0x44 DUP3 ADD MSTORE PUSH1 0x64 SWAP1 REVERT JUMPDEST CALLVALUE PUSH2 0x2C4 JUMPI PUSH1 0x20 CALLDATASIZE PUSH1 0x3 NOT ADD SLT PUSH2 0x2C4 JUMPI PUSH1 0x4 CALLDATALOAD NUMBER DUP2 LT ISZERO PUSH2 0x1CD3 JUMPI PUSH2 0x100 PUSH2 0x1BFC DUP3 NUMBER PUSH2 0x1F88 JUMP JUMPDEST GT PUSH2 0x1C95 JUMPI DUP1 BLOCKHASH DUP1 ISZERO PUSH2 0x1C5B JUMPI DUP2 PUSH1 0x40 SWAP2 PUSH32 0x90CBC6AD14A45CB8A21348DD4105F964F14F41EE0B36E5965B301804C8591F96 SWAP4 PUSH0 MSTORE PUSH1 0x9 PUSH1 0x20 MSTORE DUP1 DUP4 PUSH0 KECCAK256 SSTORE PUSH1 0xA SLOAD DUP3 GT PUSH2 0x1C52 JUMPI JUMPDEST DUP3 MLOAD SWAP2 DUP3 MSTORE PUSH1 0x20 DUP3 ADD MSTORE LOG1 STOP JUMPDEST DUP2 PUSH1 0xA SSTORE PUSH2 0x1C45 JUMP JUMPDEST PUSH1 0x40 MLOAD PUSH3 0x461BCD PUSH1 0xE5 SHL DUP2 MSTORE PUSH1 0x20 PUSH1 0x4 DUP3 ADD MSTORE PUSH1 0x12 PUSH1 0x24 DUP3 ADD MSTORE PUSH18 0x92DCECC2D8D2C840C4D8DEC6D640D0C2E6D PUSH1 0x73 SHL PUSH1 0x44 DUP3 ADD MSTORE PUSH1 0x64 SWAP1 REVERT JUMPDEST PUSH1 0x40 MLOAD PUSH3 0x461BCD PUSH1 0xE5 SHL DUP2 MSTORE PUSH1 0x20 PUSH1 0x4 DUP3 ADD MSTORE PUSH1 0x16 PUSH1 0x24 DUP3 ADD MSTORE PUSH22 0x426C6F636B206861736820756E617661696C61626C65 PUSH1 0x50 SHL PUSH1 0x44 DUP3 ADD MSTORE PUSH1 0x64 SWAP1 REVERT JUMPDEST PUSH1 0x40 MLOAD PUSH3 0x461BCD PUSH1 0xE5 SHL DUP2 MSTORE PUSH1 0x20 PUSH1 0x4 DUP3 ADD MSTORE PUSH1 0x13 PUSH1 0x24 DUP3 ADD MSTORE PUSH19 0x109B1BD8DAC81B9BDD081E595D081B5A5B9959 PUSH1 0x6A SHL PUSH1 0x44 DUP3 ADD MSTORE PUSH1 0x64 SWAP1 REVERT JUMPDEST CALLVALUE PUSH2 0x2C4 JUMPI PUSH1 0x20 CALLDATASIZE PUSH1 0x3 NOT ADD SLT PUSH2 0x2C4 JUMPI PUSH1 0x1 PUSH1 0x1 PUSH1 0x40 SHL SUB PUSH2 0x1D2F PUSH2 0x1D9D JUMP JUMPDEST AND PUSH0 MSTORE PUSH1 0x8 PUSH1 0x20 MSTORE PUSH2 0x1D5A PUSH2 0x1D46 PUSH1 0x40 PUSH0 KECCAK256 PUSH2 0x1F35 JUMP JUMPDEST PUSH1 0x40 MLOAD SWAP2 DUP3 SWAP2 PUSH1 0x20 DUP4 MSTORE PUSH1 0x20 DUP4 ADD SWAP1 PUSH2 0x1DC9 JUMP JUMPDEST SUB SWAP1 RETURN JUMPDEST CALLVALUE PUSH2 0x2C4 JUMPI PUSH1 0x20 CALLDATASIZE PUSH1 0x3 NOT ADD SLT PUSH2 0x2C4 JUMPI PUSH1 0x20 SWAP1 PUSH1 0x1 PUSH1 0x1 PUSH1 0x40 SHL SUB PUSH2 0x1D82 PUSH2 0x1D9D JUMP JUMPDEST AND PUSH0 MSTORE PUSH1 0x6 DUP3 MSTORE PUSH1 0xFF PUSH1 0x4 PUSH1 0x40 PUSH0 KECCAK256 ADD SLOAD PUSH1 0xA0 SHR AND ISZERO ISZERO DUP2 MSTORE RETURN JUMPDEST PUSH1 0x4 CALLDATALOAD SWAP1 PUSH1 0x1 PUSH1 0x1 PUSH1 0x40 SHL SUB DUP3 AND DUP3 SUB PUSH2 0x2C4 JUMPI JUMP JUMPDEST PUSH1 0x24 CALLDATALOAD SWAP1 PUSH1 0x1 PUSH1 0x1 PUSH1 0x40 SHL SUB DUP3 AND DUP3 SUB PUSH2 0x2C4 JUMPI JUMP JUMPDEST SWAP1 PUSH1 0x20 DUP1 DUP4 MLOAD SWAP3 DUP4 DUP2 MSTORE ADD SWAP3 ADD SWAP1 PUSH0 JUMPDEST DUP2 DUP2 LT PUSH2 0x1DE6 JUMPI POP POP POP SWAP1 JUMP JUMPDEST DUP3 MLOAD PUSH1 0x1 PUSH1 0x1 PUSH1 0xA0 SHL SUB AND DUP5 MSTORE PUSH1 0x20 SWAP4 DUP5 ADD SWAP4 SWAP1 SWAP3 ADD SWAP2 PUSH1 0x1 ADD PUSH2 0x1DD9 JUMP JUMPDEST PUSH1 0x4 CALLDATALOAD SWAP1 PUSH1 0x1 PUSH1 0x1 PUSH1 0xA0 SHL SUB DUP3 AND DUP3 SUB PUSH2 0x2C4 JUMPI JUMP JUMPDEST PUSH1 0x24 CALLDATALOAD SWAP1 DUP2 ISZERO ISZERO DUP3 SUB PUSH2 0x2C4 JUMPI JUMP JUMPDEST PUSH2 0x160 DUP2 ADD SWAP1 DUP2 LT PUSH1 0x1 PUSH1 0x1 PUSH1 0x40 SHL SUB DUP3 GT OR PUSH2 0x5E7 JUMPI PUSH1 0x40 MSTORE JUMP JUMPDEST PUSH1 0xA0 DUP2 ADD SWAP1 DUP2 LT PUSH1 0x1 PUSH1 0x1 PUSH1 0x40 SHL SUB DUP3 GT OR PUSH2 0x5E7 JUMPI PUSH1 0x40 MSTORE JUMP JUMPDEST SWAP1 PUSH1 0x1F DUP1 NOT SWAP2 ADD AND DUP2 ADD SWAP1 DUP2 LT PUSH1 0x1 PUSH1 0x1 PUSH1 0x40 SHL SUB DUP3 GT OR PUSH2 0x5E7 JUMPI PUSH1 0x40 MSTORE JUMP JUMPDEST PUSH1 0x1 PUSH1 0x1 PUSH1 0x40 SHL SUB DUP2 GT PUSH2 0x5E7 JUMPI PUSH1 0x1F ADD PUSH1 0x1F NOT AND PUSH1 0x20 ADD SWAP1 JUMP JUMPDEST DUP2 PUSH1 0x1F DUP3 ADD SLT ISZERO PUSH2 0x2C4 JUMPI DUP1 CALLDATALOAD SWAP2 PUSH1 0x1 PUSH1 0x1 PUSH1 0x40 SHL SUB DUP4 GT PUSH2 0x5E7 JUMPI DUP3 PUSH1 0x5 SHL SWAP2 PUSH1 0x40 MLOAD SWAP4 PUSH2 0x1ECF PUSH1 0x20 DUP6 ADD DUP7 PUSH2 0x1E61 JUMP JUMPDEST DUP5 MSTORE PUSH1 0x20 DUP1 DUP6 ADD SWAP4 DUP3 ADD ADD SWAP2 DUP3 GT PUSH2 0x2C4 JUMPI PUSH1 0x20 ADD SWAP2 JUMPDEST DUP2 DUP4 LT PUSH2 0x1EF3 JUMPI POP POP POP SWAP1 JUMP JUMPDEST DUP3 CALLDATALOAD PUSH1 0x1 PUSH1 0x1 PUSH1 0xA0 SHL SUB DUP2 AND DUP2 SUB PUSH2 0x2C4 JUMPI DUP2 MSTORE PUSH1 0x20 SWAP3 DUP4 ADD SWAP3 ADD PUSH2 0x1EE6 JUMP JUMPDEST SWAP1 PUSH1 0x3 DUP3 LT ISZERO PUSH2 0x934 JUMPI MSTORE JUMP JUMPDEST DUP1 SLOAD DUP3 LT ISZERO PUSH2 0x12DE JUMPI PUSH0 MSTORE PUSH1 0x20 PUSH0 KECCAK256 ADD SWAP1 PUSH0 SWAP1 JUMP JUMPDEST SWAP1 PUSH1 0x40 MLOAD SWAP2 DUP3 DUP2 SLOAD SWAP2 DUP3 DUP3 MSTORE PUSH1 0x20 DUP3 ADD SWAP1 PUSH0 MSTORE PUSH1 0x20 PUSH0 KECCAK256 SWAP3 PUSH0 JUMPDEST DUP2 DUP2 LT PUSH2 0x1F66 JUMPI POP POP PUSH2 0x1F64 SWAP3 POP SUB DUP4 PUSH2 0x1E61 JUMP JUMPDEST JUMP JUMPDEST DUP5 SLOAD PUSH1 0x1 PUSH1 0x1 PUSH1 0xA0 SHL SUB AND DUP4 MSTORE PUSH1 0x1 SWAP5 DUP6 ADD SWAP5 DUP8 SWAP5 POP PUSH1 0x20 SWAP1 SWAP4 ADD SWAP3 ADD PUSH2 0x1F4F JUMP JUMPDEST SWAP2 SWAP1 DUP3 SUB SWAP2 DUP3 GT PUSH2 0x12F2 JUMPI JUMP JUMPDEST ISZERO PUSH2 0x1F9C JUMPI JUMP JUMPDEST PUSH1 0x40 MLOAD PUSH3 0x461BCD PUSH1 0xE5 SHL DUP2 MSTORE PUSH1 0x20 PUSH1 0x4 DUP3 ADD MSTORE PUSH1 0x11 PUSH1 0x24 DUP3 ADD MSTORE PUSH17 0x14995C5D595CDD081B9BDD08199BDD5B99 PUSH1 0x7A SHL PUSH1 0x44 DUP3 ADD MSTORE PUSH1 0x64 SWAP1 REVERT JUMPDEST ISZERO PUSH2 0x1FDC JUMPI JUMP JUMPDEST PUSH1 0x40 MLOAD PUSH3 0x461BCD PUSH1 0xE5 SHL DUP2 MSTORE PUSH1 0x20 PUSH1 0x4 DUP3 ADD MSTORE PUSH1 0x19 PUSH1 0x24 DUP3 ADD MSTORE PUSH32 0x5265717565737420616C72656164792066756C66696C6C656400000000000000 PUSH1 0x44 DUP3 ADD MSTORE PUSH1 0x64 SWAP1 REVERT JUMPDEST PUSH1 0x1 PUSH1 0x1 PUSH1 0x40 SHL SUB AND PUSH1 0x1 PUSH1 0x1 PUSH1 0x40 SHL SUB DUP2 EQ PUSH2 0x12F2 JUMPI PUSH1 0x1 ADD SWAP1 JUMP JUMPDEST SWAP2 SWAP1 DUP3 ADD DUP1 SWAP3 GT PUSH2 0x12F2 JUMPI JUMP JUMPDEST ISZERO PUSH2 0x2052 JUMPI JUMP JUMPDEST PUSH1 0x40 MLOAD PUSH3 0x461BCD PUSH1 0xE5 SHL DUP2 MSTORE PUSH1 0x20 PUSH1 0x4 DUP3 ADD MSTORE PUSH1 0x1B PUSH1 0x24 DUP3 ADD MSTORE PUSH32 0x4E6F74206120636F6D6D69742D72657665616C20726571756573740000000000 PUSH1 0x44 DUP3 ADD MSTORE PUSH1 0x64 SWAP1 REVERT JUMPDEST ISZERO PUSH2 0x209E JUMPI JUMP JUMPDEST PUSH1 0x40 MLOAD PUSH3 0x461BCD PUSH1 0xE5 SHL DUP2 MSTORE PUSH1 0x20 PUSH1 0x4 DUP3 ADD MSTORE PUSH1 0x10 PUSH1 0x24 DUP3 ADD MSTORE PUSH16 0x105B1C9958591E481C995D99585B1959 PUSH1 0x82 SHL PUSH1 0x44 DUP3 ADD MSTORE PUSH1 0x64 SWAP1 REVERT JUMPDEST DUP2 ISZERO PUSH2 0x20E0 JUMPI MOD SWAP1 JUMP JUMPDEST PUSH4 0x4E487B71 PUSH1 0xE0 SHL PUSH0 MSTORE PUSH1 0x12 PUSH1 0x4 MSTORE PUSH1 0x24 PUSH0 REVERT JUMPDEST SWAP1 DUP2 PUSH1 0x20 SWAP2 SUB SLT PUSH2 0x2C4 JUMPI MLOAD PUSH1 0x1 PUSH1 0x1 PUSH1 0x40 SHL SUB DUP2 AND DUP2 SUB PUSH2 0x2C4 JUMPI SWAP1 JUMP JUMPDEST PUSH0 NOT DUP2 EQ PUSH2 0x12F2 JUMPI PUSH1 0x1 ADD SWAP1 JUMP JUMPDEST PUSH0 SLOAD PUSH1 0x1 PUSH1 0x1 PUSH1 0xA0 SHL SUB AND CALLER SUB PUSH2 0x2134 JUMPI JUMP JUMPDEST PUSH4 0x118CDAA7 PUSH1 0xE0 SHL PUSH0 MSTORE CALLER PUSH1 0x4 MSTORE PUSH1 0x24 PUSH0 REVERT JUMPDEST PUSH1 0x2 PUSH1 0x1 SLOAD EQ PUSH2 0x2158 JUMPI PUSH1 0x2 PUSH1 0x1 SSTORE JUMP JUMPDEST PUSH1 0x40 MLOAD PUSH3 0x461BCD PUSH1 0xE5 SHL DUP2 MSTORE PUSH1 0x20 PUSH1 0x4 DUP3 ADD MSTORE PUSH1 0x1F PUSH1 0x24 DUP3 ADD MSTORE PUSH32 0x5265656E7472616E637947756172643A207265656E7472616E742063616C6C00 PUSH1 0x44 DUP3 ADD MSTORE PUSH1 0x64 SWAP1 REVERT JUMPDEST SWAP1 PUSH1 0x60 SWAP3 PUSH1 0x20 SWAP2 DUP4 MSTORE PUSH1 0x40 DUP3 DUP5 ADD MSTORE DUP1 MLOAD SWAP2 DUP3 SWAP2 DUP3 PUSH1 0x40 DUP7 ADD MSTORE ADD DUP5 DUP5 ADD MCOPY PUSH0 DUP3 DUP3 ADD DUP5 ADD MSTORE PUSH1 0x1F ADD PUSH1 0x1F NOT AND ADD ADD SWAP1 JUMP JUMPDEST PUSH1 0x1 PUSH1 0x1 PUSH1 0x40 SHL SUB AND PUSH0 DUP2 DUP2 MSTORE PUSH1 0x6 PUSH1 0x20 MSTORE PUSH1 0x40 SWAP1 KECCAK256 PUSH1 0x4 DUP2 ADD DUP1 SLOAD PUSH1 0xFF PUSH1 0xA0 SHL NOT AND PUSH1 0x1 PUSH1 0xA0 SHL OR SWAP1 SSTORE DUP1 SLOAD SWAP2 SWAP4 SWAP2 PUSH1 0xFF AND PUSH1 0x3 DUP2 LT ISZERO PUSH2 0x934 JUMPI DUP1 PUSH2 0x226F JUMPI POP SWAP1 PUSH2 0x224B PUSH1 0x1 PUSH32 0x68DC1228FEF2529D8E55D849A6FB811D6FC0355EEDB5DF83F3D75DF9160FCF61 SWAP4 ADD PUSH2 0x2245 DUP2 SLOAD DUP7 PUSH2 0x20D6 JUMP JUMPDEST SWAP1 PUSH2 0x1F20 JUMP JUMPDEST PUSH1 0x1 DUP1 PUSH1 0xA0 SHL SUB SWAP2 SLOAD SWAP1 PUSH1 0x3 SHL SHR AND SWAP3 PUSH2 0x226A PUSH1 0x40 MLOAD SWAP3 DUP4 SWAP3 DUP4 PUSH2 0x219D JUMP JUMPDEST SUB SWAP1 LOG3 JUMP JUMPDEST PUSH1 0x1 EQ PUSH2 0x227D JUMPI JUMPDEST POP POP POP POP JUMP JUMPDEST PUSH1 0x3 PUSH2 0x22C0 PUSH32 0x6B815B5B9DE29F9199853C891BF2BC0936730912186ECE85660B071F5AA4C1B6 SWAP5 PUSH2 0x22BA DUP5 PUSH1 0x2 PUSH2 0x22C6 SWAP7 ADD SLOAD SWAP5 DUP6 SWAP2 ADD SLOAD PUSH2 0x1F88 JUMP JUMPDEST SWAP1 PUSH2 0x20D6 JUMP JUMPDEST SWAP1 PUSH2 0x203E JUMP JUMPDEST PUSH2 0x22D5 PUSH1 0x40 MLOAD SWAP3 DUP4 SWAP3 DUP4 PUSH2 0x219D JUMP JUMPDEST SUB SWAP1 LOG2 PUSH0 DUP1 DUP1 DUP1 PUSH2 0x2277 JUMP JUMPDEST PUSH1 0xFF PUSH1 0x2 SLOAD AND PUSH2 0x22ED JUMPI JUMP JUMPDEST PUSH1 0x40 MLOAD PUSH3 0x461BCD PUSH1 0xE5 SHL DUP2 MSTORE PUSH1 0x20 PUSH1 0x4 DUP3 ADD MSTORE PUSH1 0x10 PUSH1 0x24 DUP3 ADD MSTORE PUSH16 0x14185D5CD8589B194E881C185D5CD959 PUSH1 0x82 SHL PUSH1 0x44 DUP3 ADD MSTORE PUSH1 0x64 SWAP1 REVERT JUMPDEST PUSH1 0x1 PUSH1 0x1 PUSH1 0x40 SHL SUB DUP2 AND PUSH0 MSTORE PUSH1 0x6 PUSH1 0x20 MSTORE PUSH1 0xFF PUSH1 0x4 PUSH1 0x40 PUSH0 KECCAK256 ADD SLOAD PUSH1 0xA0 SHR AND PUSH2 0x237F JUMPI DUP1 PUSH2 0x2355 PUSH2 0x1F64 SWAP3 PUSH2 0x257F JUMP JUMPDEST PUSH1 0x40 MLOAD SWAP2 PUSH2 0x2364 PUSH1 0x40 DUP5 PUSH2 0x1E61 JUMP JUMPDEST PUSH1 0x9 DUP4 MSTORE PUSH9 0x84D8DEC6D690C2E6D PUSH1 0xBB SHL PUSH1 0x20 DUP5 ADD MSTORE PUSH2 0x21CF JUMP JUMPDEST POP JUMP JUMPDEST PUSH1 0x1 PUSH1 0x1 PUSH1 0x40 SHL SUB DUP2 AND SWAP1 DUP2 PUSH0 MSTORE PUSH1 0x6 PUSH1 0x20 MSTORE PUSH1 0x40 PUSH0 KECCAK256 PUSH1 0xFF PUSH1 0x4 DUP3 ADD SLOAD PUSH1 0xA0 SHR AND PUSH2 0x2515 JUMPI PUSH0 DUP4 DUP2 MSTORE PUSH1 0x8 PUSH1 0x20 MSTORE PUSH1 0x40 DUP2 KECCAK256 DUP1 SLOAD SWAP1 DUP3 JUMPDEST DUP3 DUP2 LT PUSH2 0x2529 JUMPI POP POP POP ISZERO DUP1 SWAP2 DUP2 SWAP3 PUSH2 0x251A JUMPI JUMPDEST POP PUSH2 0x2515 JUMPI PUSH2 0x24D5 JUMPI DUP2 PUSH0 MSTORE PUSH1 0x8 PUSH1 0x20 MSTORE PUSH1 0x40 PUSH0 KECCAK256 PUSH0 SWAP1 PUSH0 SWAP4 PUSH0 SWAP2 DUP1 SLOAD SWAP3 JUMPDEST DUP4 DUP2 LT PUSH2 0x2477 JUMPI POP POP POP POP PUSH0 NOT NUMBER ADD NUMBER DUP2 GT PUSH2 0x12F2 JUMPI PUSH2 0x1F64 SWAP4 PUSH1 0x40 MLOAD SWAP2 PUSH1 0x20 DUP4 ADD SWAP4 DUP5 MSTORE BLOCKHASH PUSH1 0x40 DUP4 ADD MSTORE TIMESTAMP PUSH1 0x60 DUP4 ADD MSTORE PUSH1 0x80 DUP3 ADD MSTORE PUSH1 0x1 PUSH1 0x1 PUSH1 0x40 SHL SUB PUSH1 0xC0 SHL DUP4 PUSH1 0xC0 SHL AND PUSH1 0xA0 DUP3 ADD MSTORE PUSH1 0x88 DUP2 MSTORE PUSH2 0x2447 PUSH1 0xA8 DUP3 PUSH2 0x1E61 JUMP JUMPDEST MLOAD SWAP1 KECCAK256 PUSH1 0x40 MLOAD PUSH2 0x2458 PUSH1 0x40 DUP3 PUSH2 0x1E61 JUMP JUMPDEST PUSH1 0xC DUP2 MSTORE PUSH12 0x10DBDB5B5A5D14995D99585B PUSH1 0xA2 SHL PUSH1 0x20 DUP3 ADD MSTORE SWAP2 PUSH2 0x21CF JUMP JUMPDEST PUSH2 0x2481 DUP2 DUP4 PUSH2 0x1F20 JUMP JUMPDEST PUSH1 0x1 DUP1 PUSH1 0xA0 SHL SUB SWAP2 SLOAD SWAP1 PUSH1 0x3 SHL SHR AND PUSH0 MSTORE PUSH1 0x7 PUSH1 0x20 MSTORE PUSH1 0x40 PUSH0 KECCAK256 DUP4 PUSH0 MSTORE PUSH1 0x20 MSTORE PUSH1 0x40 PUSH0 KECCAK256 PUSH1 0xFF PUSH1 0x2 DUP3 ADD SLOAD AND PUSH2 0x24BB JUMPI JUMPDEST POP PUSH1 0x1 ADD PUSH2 0x23ED JUMP JUMPDEST PUSH1 0x1 SWAP2 SWAP8 SWAP6 DUP3 PUSH2 0x24CE SWAP3 ADD SLOAD XOR SWAP6 PUSH2 0x2113 JUMP JUMPDEST SWAP7 SWAP1 PUSH2 0x24B2 JUMP JUMPDEST PUSH2 0x1F64 SWAP2 POP PUSH2 0x24E3 DUP2 PUSH2 0x257F JUMP JUMPDEST PUSH1 0x40 MLOAD PUSH2 0x24F1 PUSH1 0x40 DUP3 PUSH2 0x1E61 JUMP JUMPDEST PUSH1 0x11 DUP2 MSTORE PUSH17 0x426C6F636B4861736846616C6C6261636B PUSH1 0x78 SHL PUSH1 0x20 DUP3 ADD MSTORE SWAP2 PUSH2 0x21CF JUMP JUMPDEST POP POP POP JUMP JUMPDEST PUSH1 0x8 SWAP2 POP ADD SLOAD TIMESTAMP GT ISZERO PUSH0 PUSH2 0x23CE JUMP JUMPDEST PUSH2 0x2533 DUP2 DUP4 PUSH2 0x1F20 JUMP JUMPDEST PUSH1 0x1 DUP1 PUSH1 0xA0 SHL SUB SWAP2 SLOAD SWAP1 PUSH1 0x3 SHL SHR AND PUSH0 MSTORE PUSH1 0x7 PUSH1 0x20 MSTORE PUSH1 0x40 PUSH0 KECCAK256 DUP8 PUSH0 MSTORE PUSH1 0x20 MSTORE PUSH1 0xFF PUSH1 0x2 PUSH1 0x40 PUSH0 KECCAK256 ADD SLOAD AND PUSH2 0x256B JUMPI JUMPDEST PUSH1 0x1 ADD PUSH2 0x23BA JUMP JUMPDEST SWAP3 PUSH2 0x2577 PUSH1 0x1 SWAP2 PUSH2 0x2113 JUMP JUMPDEST SWAP4 SWAP1 POP PUSH2 0x2563 JUMP JUMPDEST PUSH1 0x1 PUSH1 0x1 PUSH1 0x40 SHL SUB DUP2 AND PUSH0 SWAP1 DUP2 MSTORE PUSH1 0x6 PUSH1 0x20 MSTORE PUSH1 0x40 SWAP1 KECCAK256 PUSH1 0x5 DUP2 ADD SLOAD DUP1 ISZERO PUSH2 0x2656 JUMPI PUSH0 NOT DUP2 ADD SWAP1 DUP2 GT PUSH2 0x12F2 JUMPI SWAP2 JUMPDEST PUSH0 NOT NUMBER ADD SWAP2 NUMBER DUP4 GT PUSH2 0x12F2 JUMPI PUSH1 0xA SLOAD PUSH0 MSTORE PUSH1 0x9 PUSH1 0x20 MSTORE PUSH1 0x40 PUSH0 KECCAK256 SLOAD SWAP1 PUSH1 0x4 PUSH1 0x6 DUP3 ADD SLOAD SWAP2 ADD SLOAD SWAP1 PUSH1 0x3 SLOAD SWAP3 PUSH2 0x25E2 DUP5 PUSH2 0x2113 JUMP JUMPDEST PUSH1 0x3 SSTORE PUSH1 0x40 MLOAD SWAP6 PUSH1 0x20 DUP8 ADD SWAP8 BLOCKHASH DUP9 MSTORE BLOCKHASH PUSH1 0x40 DUP8 ADD MSTORE PUSH1 0x60 DUP7 ADD MSTORE TIMESTAMP PUSH1 0x80 DUP7 ADD MSTORE PREVRANDAO PUSH1 0xA0 DUP7 ADD MSTORE PUSH1 0xC0 DUP6 ADD MSTORE PUSH12 0xFFFFFFFFFFFFFFFFFFFFFFFF NOT SWAP1 PUSH1 0x60 SHL AND PUSH1 0xE0 DUP5 ADD MSTORE PUSH1 0xF4 DUP4 ADD MSTORE PUSH1 0x1 PUSH1 0x1 PUSH1 0x40 SHL SUB PUSH1 0xC0 SHL SWAP1 PUSH1 0xC0 SHL AND PUSH2 0x114 DUP3 ADD MSTORE PUSH1 0xFC DUP2 MSTORE PUSH2 0x2650 PUSH2 0x11C DUP3 PUSH2 0x1E61 JUMP JUMPDEST MLOAD SWAP1 KECCAK256 SWAP1 JUMP JUMPDEST POP PUSH0 NOT NUMBER ADD NUMBER DUP2 GT PUSH2 0x12F2 JUMPI SWAP2 PUSH2 0x25AE JUMP INVALID LOG2 PUSH5 0x6970667358 0x22 SLT KECCAK256 0xDF PUSH11 0xA6CED4F975B9AB410754FB DUP2 SWAP14 0xAF INVALID 0x22 0xB8 0xB5 0xC CALL CALLVALUE RETURN 0xB6 SELFDESTRUCT 0xDC EXTSTATICCALL 0xDD SWAP10 RETURNDATACOPY SWAP6 PUSH5 0x736F6C6343 STOP ADDMOD 0x1E STOP CALLER "
		},
		"gasEstimates": {
			"creation": {
				"codeDepositCost": "1977200",
				"executionCost": "186990",
				"totalCost": "2164190"
			},
			"external": {
				"": "978",
				"MAX_PARTICIPANTS()": "879",
				"MAX_REVEAL_DELAY()": "417",
				"MIN_REVEAL_DELAY()": "615",
				"authorizedProviders(address)": "2748",
				"commitRevealDelay()": "2894",
				"commitReveals(address,uint64)": "11521",
				"emergencyPause()": "29866",
				"emergencyUnpause()": "27717",
				"getCommitReveal(address,uint64)": "infinite",
				"getRandomNumber(uint256,uint256)": "infinite",
				"getRandomNumber(uint256,uint256,bool)": "infinite",
				"getRequest(uint64)": "infinite",
				"getRevealStats(uint64)": "infinite",
				"getRevealersForRequest(uint64)": "infinite",
				"historicalBlockHashes(uint256)": "2629",
				"isRequestFulfilled(uint64)": "2422",
				"lastStoredBlock()": "2784",
				"manualResolveRequest(uint64,string)": "infinite",
				"owner()": "2763",
				"paused()": "2510",
				"pendingRequests(uint64)": "19826",
				"previewRandomWinner(address[])": "infinite",
				"renounceOwnership()": "28468",
				"requestRevealers(uint64,uint256)": "7140",
				"revealCommitment(uint64,uint256,uint256)": "infinite",
				"selectRandomWinner(address[])": "infinite",
				"selectRandomWinner(address[],bool)": "infinite",
				"setAuthorizedProvider(address,bool)": "28267",
				"setCommitRevealDelay(uint256)": "24846",
				"setRandomnessMethod(bool,bool)": "28647",
				"storeBlockHash(uint256)": "48046",
				"submitCommitment(uint64,bytes32)": "181450",
				"transferOwnership(address)": "28874",
				"useBlockHashRandomness()": "2362",
				"useCommitRevealScheme()": "2780",
				"withdraw(address,uint256)": "infinite"
			},
			"internal": {
				"_finalizeRequest(uint64,uint256,string memory)": "infinite",
				"_generateCommitRevealRandomValue(uint64)": "infinite",
				"_generateRandomValue(uint64)": "infinite",
				"_tryResolveCommitRevealRequest(uint64)": "infinite",
				"_tryResolveRequest(uint64)": "infinite"
			}
		},
		"methodIdentifiers": {
			"MAX_PARTICIPANTS()": "f3baf070",
			"MAX_REVEAL_DELAY()": "5f2c66d8",
			"MIN_REVEAL_DELAY()": "888eeea6",
			"authorizedProviders(address)": "69dc3ae2",
			"commitRevealDelay()": "e71bfdc0",
			"commitReveals(address,uint64)": "7402e13d",
			"emergencyPause()": "51858e27",
			"emergencyUnpause()": "4a4e3bd5",
			"getCommitReveal(address,uint64)": "fe6d06b4",
			"getRandomNumber(uint256,uint256)": "6e68fc0a",
			"getRandomNumber(uint256,uint256,bool)": "e7c4155d",
			"getRequest(uint64)": "cbbf67ec",
			"getRevealStats(uint64)": "d21fb421",
			"getRevealersForRequest(uint64)": "23806fad",
			"historicalBlockHashes(uint256)": "69b16201",
			"isRequestFulfilled(uint64)": "0f855ec2",
			"lastStoredBlock()": "c7513f87",
			"manualResolveRequest(uint64,string)": "45c70069",
			"owner()": "8da5cb5b",
			"paused()": "5c975abb",
			"pendingRequests(uint64)": "65b07d58",
			"previewRandomWinner(address[])": "58859d74",
			"renounceOwnership()": "715018a6",
			"requestRevealers(uint64,uint256)": "69f74f6d",
			"revealCommitment(uint64,uint256,uint256)": "52bfa7e5",
			"selectRandomWinner(address[])": "cd3b842e",
			"selectRandomWinner(address[],bool)": "461d54e9",
			"setAuthorizedProvider(address,bool)": "27837eaf",
			"setCommitRevealDelay(uint256)": "6b27e2bb",
			"setRandomnessMethod(bool,bool)": "d598e967",
			"storeBlockHash(uint256)": "262fd733",
			"submitCommitment(uint64,bytes32)": "f2fcd328",
			"transferOwnership(address)": "f2fde38b",
			"useBlockHashRandomness()": "3959602d",
			"useCommitRevealScheme()": "b76755c5",
			"withdraw(address,uint256)": "f3fef3a3"
		}
	},
	"abi": [
		{
			"inputs": [],
			"stateMutability": "nonpayable",
			"type": "constructor"
		},
		{
			"inputs": [
				{
					"internalType": "address",
					"name": "owner",
					"type": "address"
				}
			],
			"name": "OwnableInvalidOwner",
			"type": "error"
		},
		{
			"inputs": [
				{
					"internalType": "address",
					"name": "account",
					"type": "address"
				}
			],
			"name": "OwnableUnauthorizedAccount",
			"type": "error"
		},
		{
			"anonymous": false,
			"inputs": [
				{
					"indexed": true,
					"internalType": "address",
					"name": "provider",
					"type": "address"
				},
				{
					"indexed": false,
					"internalType": "bool",
					"name": "authorized",
					"type": "bool"
				}
			],
			"name": "AuthorizedProviderUpdated",
			"type": "event"
		},
		{
			"anonymous": false,
			"inputs": [
				{
					"indexed": false,
					"internalType": "uint256",
					"name": "blockNumber",
					"type": "uint256"
				},
				{
					"indexed": false,
					"internalType": "bytes32",
					"name": "blockHash",
					"type": "bytes32"
				}
			],
			"name": "BlockHashStored",
			"type": "event"
		},
		{
			"anonymous": false,
			"inputs": [
				{
					"indexed": true,
					"internalType": "uint64",
					"name": "sequenceNumber",
					"type": "uint64"
				},
				{
					"indexed": true,
					"internalType": "address",
					"name": "revealer",
					"type": "address"
				},
				{
					"indexed": false,
					"internalType": "bytes32",
					"name": "commitment",
					"type": "bytes32"
				}
			],
			"name": "CommitSubmitted",
			"type": "event"
		},
		{
			"anonymous": false,
			"inputs": [
				{
					"indexed": true,
					"internalType": "address",
					"name": "previousOwner",
					"type": "address"
				},
				{
					"indexed": true,
					"internalType": "address",
					"name": "newOwner",
					"type": "address"
				}
			],
			"name": "OwnershipTransferred",
			"type": "event"
		},
		{
			"anonymous": false,
			"inputs": [
				{
					"indexed": false,
					"internalType": "address",
					"name": "account",
					"type": "address"
				}
			],
			"name": "Paused",
			"type": "event"
		},
		{
			"anonymous": false,
			"inputs": [
				{
					"indexed": false,
					"internalType": "uint256",
					"name": "randomNumber",
					"type": "uint256"
				},
				{
					"indexed": true,
					"internalType": "uint64",
					"name": "sequenceNumber",
					"type": "uint64"
				},
				{
					"indexed": false,
					"internalType": "string",
					"name": "method",
					"type": "string"
				}
			],
			"name": "RandomNumberGenerated",
			"type": "event"
		},
		{
			"anonymous": false,
			"inputs": [
				{
					"indexed": true,
					"internalType": "uint64",
					"name": "sequenceNumber",
					"type": "uint64"
				},
				{
					"indexed": false,
					"internalType": "enum CitreaLotteryEngine.RequestType",
					"name": "requestType",
					"type": "uint8"
				},
				{
					"indexed": false,
					"internalType": "bool",
					"name": "useCommitReveal",
					"type": "bool"
				}
			],
			"name": "RandomRequested",
			"type": "event"
		},
		{
			"anonymous": false,
			"inputs": [
				{
					"indexed": true,
					"internalType": "address",
					"name": "winner",
					"type": "address"
				},
				{
					"indexed": false,
					"internalType": "uint256",
					"name": "randomSeed",
					"type": "uint256"
				},
				{
					"indexed": true,
					"internalType": "uint64",
					"name": "sequenceNumber",
					"type": "uint64"
				},
				{
					"indexed": false,
					"internalType": "string",
					"name": "method",
					"type": "string"
				}
			],
			"name": "RandomWinnerSelected",
			"type": "event"
		},
		{
			"anonymous": false,
			"inputs": [
				{
					"indexed": false,
					"internalType": "bool",
					"name": "blockHash",
					"type": "bool"
				},
				{
					"indexed": false,
					"internalType": "bool",
					"name": "commitReveal",
					"type": "bool"
				}
			],
			"name": "RandomnessMethodUpdated",
			"type": "event"
		},
		{
			"anonymous": false,
			"inputs": [
				{
					"indexed": true,
					"internalType": "uint64",
					"name": "sequenceNumber",
					"type": "uint64"
				},
				{
					"indexed": true,
					"internalType": "address",
					"name": "revealer",
					"type": "address"
				},
				{
					"indexed": false,
					"internalType": "uint256",
					"name": "revealValue",
					"type": "uint256"
				}
			],
			"name": "RevealSubmitted",
			"type": "event"
		},
		{
			"anonymous": false,
			"inputs": [
				{
					"indexed": false,
					"internalType": "address",
					"name": "account",
					"type": "address"
				}
			],
			"name": "Unpaused",
			"type": "event"
		},
		{
			"stateMutability": "payable",
			"type": "fallback"
		},
		{
			"inputs": [],
			"name": "MAX_PARTICIPANTS",
			"outputs": [
				{
					"internalType": "uint256",
					"name": "",
					"type": "uint256"
				}
			],
			"stateMutability": "view",
			"type": "function"
		},
		{
			"inputs": [],
			"name": "MAX_REVEAL_DELAY",
			"outputs": [
				{
					"internalType": "uint256",
					"name": "",
					"type": "uint256"
				}
			],
			"stateMutability": "view",
			"type": "function"
		},
		{
			"inputs": [],
			"name": "MIN_REVEAL_DELAY",
			"outputs": [
				{
					"internalType": "uint256",
					"name": "",
					"type": "uint256"
				}
			],
			"stateMutability": "view",
			"type": "function"
		},
		{
			"inputs": [
				{
					"internalType": "address",
					"name": "",
					"type": "address"
				}
			],
			"name": "authorizedProviders",
			"outputs": [
				{
					"internalType": "bool",
					"name": "",
					"type": "bool"
				}
			],
			"stateMutability": "view",
			"type": "function"
		},
		{
			"inputs": [],
			"name": "commitRevealDelay",
			"outputs": [
				{
					"internalType": "uint256",
					"name": "",
					"type": "uint256"
				}
			],
			"stateMutability": "view",
			"type": "function"
		},
		{
			"inputs": [
				{
					"internalType": "address",
					"name": "",
					"type": "address"
				},
				{
					"internalType": "uint64",
					"name": "",
					"type": "uint64"
				}
			],
			"name": "commitReveals",
			"outputs": [
				{
					"internalType": "bytes32",
					"name": "commitment",
					"type": "bytes32"
				},
				{
					"internalType": "uint256",
					"name": "revealValue",
					"type": "uint256"
				},
				{
					"internalType": "bool",
					"name": "revealed",
					"type": "bool"
				},
				{
					"internalType": "uint256",
					"name": "commitBlock",
					"type": "uint256"
				},
				{
					"internalType": "uint256",
					"name": "revealDeadline",
					"type": "uint256"
				}
			],
			"stateMutability": "view",
			"type": "function"
		},
		{
			"inputs": [],
			"name": "emergencyPause",
			"outputs": [],
			"stateMutability": "nonpayable",
			"type": "function"
		},
		{
			"inputs": [],
			"name": "emergencyUnpause",
			"outputs": [],
			"stateMutability": "nonpayable",
			"type": "function"
		},
		{
			"inputs": [
				{
					"internalType": "address",
					"name": "revealer",
					"type": "address"
				},
				{
					"internalType": "uint64",
					"name": "sequenceNum",
					"type": "uint64"
				}
			],
			"name": "getCommitReveal",
			"outputs": [
				{
					"components": [
						{
							"internalType": "bytes32",
							"name": "commitment",
							"type": "bytes32"
						},
						{
							"internalType": "uint256",
							"name": "revealValue",
							"type": "uint256"
						},
						{
							"internalType": "bool",
							"name": "revealed",
							"type": "bool"
						},
						{
							"internalType": "uint256",
							"name": "commitBlock",
							"type": "uint256"
						},
						{
							"internalType": "uint256",
							"name": "revealDeadline",
							"type": "uint256"
						}
					],
					"internalType": "struct CitreaLotteryEngine.CommitReveal",
					"name": "",
					"type": "tuple"
				}
			],
			"stateMutability": "view",
			"type": "function"
		},
		{
			"inputs": [
				{
					"internalType": "uint256",
					"name": "min",
					"type": "uint256"
				},
				{
					"internalType": "uint256",
					"name": "max",
					"type": "uint256"
				}
			],
			"name": "getRandomNumber",
			"outputs": [
				{
					"internalType": "uint64",
					"name": "",
					"type": "uint64"
				}
			],
			"stateMutability": "nonpayable",
			"type": "function"
		},
		{
			"inputs": [
				{
					"internalType": "uint256",
					"name": "min",
					"type": "uint256"
				},
				{
					"internalType": "uint256",
					"name": "max",
					"type": "uint256"
				},
				{
					"internalType": "bool",
					"name": "useCommitReveal",
					"type": "bool"
				}
			],
			"name": "getRandomNumber",
			"outputs": [
				{
					"internalType": "uint64",
					"name": "sequenceNum",
					"type": "uint64"
				}
			],
			"stateMutability": "nonpayable",
			"type": "function"
		},
		{
			"inputs": [
				{
					"internalType": "uint64",
					"name": "sequenceNum",
					"type": "uint64"
				}
			],
			"name": "getRequest",
			"outputs": [
				{
					"components": [
						{
							"internalType": "enum CitreaLotteryEngine.RequestType",
							"name": "requestType",
							"type": "uint8"
						},
						{
							"internalType": "address[]",
							"name": "participants",
							"type": "address[]"
						},
						{
							"internalType": "uint256",
							"name": "min",
							"type": "uint256"
						},
						{
							"internalType": "uint256",
							"name": "max",
							"type": "uint256"
						},
						{
							"internalType": "address",
							"name": "requester",
							"type": "address"
						},
						{
							"internalType": "bool",
							"name": "fulfilled",
							"type": "bool"
						},
						{
							"internalType": "uint256",
							"name": "requestBlock",
							"type": "uint256"
						},
						{
							"internalType": "uint256",
							"name": "timestamp",
							"type": "uint256"
						},
						{
							"internalType": "bytes32",
							"name": "commitHash",
							"type": "bytes32"
						},
						{
							"internalType": "uint256",
							"name": "revealDeadline",
							"type": "uint256"
						},
						{
							"internalType": "bool",
							"name": "isCommitReveal",
							"type": "bool"
						}
					],
					"internalType": "struct CitreaLotteryEngine.RandomRequest",
					"name": "",
					"type": "tuple"
				}
			],
			"stateMutability": "view",
			"type": "function"
		},
		{
			"inputs": [
				{
					"internalType": "uint64",
					"name": "sequenceNum",
					"type": "uint64"
				}
			],
			"name": "getRevealStats",
			"outputs": [
				{
					"internalType": "uint256",
					"name": "totalRevealers",
					"type": "uint256"
				},
				{
					"internalType": "uint256",
					"name": "revealedCount",
					"type": "uint256"
				},
				{
					"internalType": "uint256",
					"name": "pendingCount",
					"type": "uint256"
				}
			],
			"stateMutability": "view",
			"type": "function"
		},
		{
			"inputs": [
				{
					"internalType": "uint64",
					"name": "sequenceNum",
					"type": "uint64"
				}
			],
			"name": "getRevealersForRequest",
			"outputs": [
				{
					"internalType": "address[]",
					"name": "",
					"type": "address[]"
				}
			],
			"stateMutability": "view",
			"type": "function"
		},
		{
			"inputs": [
				{
					"internalType": "uint256",
					"name": "",
					"type": "uint256"
				}
			],
			"name": "historicalBlockHashes",
			"outputs": [
				{
					"internalType": "bytes32",
					"name": "",
					"type": "bytes32"
				}
			],
			"stateMutability": "view",
			"type": "function"
		},
		{
			"inputs": [
				{
					"internalType": "uint64",
					"name": "sequenceNum",
					"type": "uint64"
				}
			],
			"name": "isRequestFulfilled",
			"outputs": [
				{
					"internalType": "bool",
					"name": "",
					"type": "bool"
				}
			],
			"stateMutability": "view",
			"type": "function"
		},
		{
			"inputs": [],
			"name": "lastStoredBlock",
			"outputs": [
				{
					"internalType": "uint256",
					"name": "",
					"type": "uint256"
				}
			],
			"stateMutability": "view",
			"type": "function"
		},
		{
			"inputs": [
				{
					"internalType": "uint64",
					"name": "sequenceNum",
					"type": "uint64"
				},
				{
					"internalType": "string",
					"name": "reason",
					"type": "string"
				}
			],
			"name": "manualResolveRequest",
			"outputs": [],
			"stateMutability": "nonpayable",
			"type": "function"
		},
		{
			"inputs": [],
			"name": "owner",
			"outputs": [
				{
					"internalType": "address",
					"name": "",
					"type": "address"
				}
			],
			"stateMutability": "view",
			"type": "function"
		},
		{
			"inputs": [],
			"name": "paused",
			"outputs": [
				{
					"internalType": "bool",
					"name": "",
					"type": "bool"
				}
			],
			"stateMutability": "view",
			"type": "function"
		},
		{
			"inputs": [
				{
					"internalType": "uint64",
					"name": "",
					"type": "uint64"
				}
			],
			"name": "pendingRequests",
			"outputs": [
				{
					"internalType": "enum CitreaLotteryEngine.RequestType",
					"name": "requestType",
					"type": "uint8"
				},
				{
					"internalType": "uint256",
					"name": "min",
					"type": "uint256"
				},
				{
					"internalType": "uint256",
					"name": "max",
					"type": "uint256"
				},
				{
					"internalType": "address",
					"name": "requester",
					"type": "address"
				},
				{
					"internalType": "bool",
					"name": "fulfilled",
					"type": "bool"
				},
				{
					"internalType": "uint256",
					"name": "requestBlock",
					"type": "uint256"
				},
				{
					"internalType": "uint256",
					"name": "timestamp",
					"type": "uint256"
				},
				{
					"internalType": "bytes32",
					"name": "commitHash",
					"type": "bytes32"
				},
				{
					"internalType": "uint256",
					"name": "revealDeadline",
					"type": "uint256"
				},
				{
					"internalType": "bool",
					"name": "isCommitReveal",
					"type": "bool"
				}
			],
			"stateMutability": "view",
			"type": "function"
		},
		{
			"inputs": [
				{
					"internalType": "address[]",
					"name": "participants",
					"type": "address[]"
				}
			],
			"name": "previewRandomWinner",
			"outputs": [
				{
					"internalType": "address",
					"name": "",
					"type": "address"
				}
			],
			"stateMutability": "view",
			"type": "function"
		},
		{
			"inputs": [],
			"name": "renounceOwnership",
			"outputs": [],
			"stateMutability": "nonpayable",
			"type": "function"
		},
		{
			"inputs": [
				{
					"internalType": "uint64",
					"name": "",
					"type": "uint64"
				},
				{
					"internalType": "uint256",
					"name": "",
					"type": "uint256"
				}
			],
			"name": "requestRevealers",
			"outputs": [
				{
					"internalType": "address",
					"name": "",
					"type": "address"
				}
			],
			"stateMutability": "view",
			"type": "function"
		},
		{
			"inputs": [
				{
					"internalType": "uint64",
					"name": "sequenceNum",
					"type": "uint64"
				},
				{
					"internalType": "uint256",
					"name": "secret",
					"type": "uint256"
				},
				{
					"internalType": "uint256",
					"name": "salt",
					"type": "uint256"
				}
			],
			"name": "revealCommitment",
			"outputs": [],
			"stateMutability": "nonpayable",
			"type": "function"
		},
		{
			"inputs": [
				{
					"internalType": "address[]",
					"name": "participants",
					"type": "address[]"
				},
				{
					"internalType": "bool",
					"name": "useCommitReveal",
					"type": "bool"
				}
			],
			"name": "selectRandomWinner",
			"outputs": [
				{
					"internalType": "uint64",
					"name": "sequenceNum",
					"type": "uint64"
				}
			],
			"stateMutability": "nonpayable",
			"type": "function"
		},
		{
			"inputs": [
				{
					"internalType": "address[]",
					"name": "participants",
					"type": "address[]"
				}
			],
			"name": "selectRandomWinner",
			"outputs": [
				{
					"internalType": "uint64",
					"name": "",
					"type": "uint64"
				}
			],
			"stateMutability": "nonpayable",
			"type": "function"
		},
		{
			"inputs": [
				{
					"internalType": "address",
					"name": "provider",
					"type": "address"
				},
				{
					"internalType": "bool",
					"name": "authorized",
					"type": "bool"
				}
			],
			"name": "setAuthorizedProvider",
			"outputs": [],
			"stateMutability": "nonpayable",
			"type": "function"
		},
		{
			"inputs": [
				{
					"internalType": "uint256",
					"name": "_delay",
					"type": "uint256"
				}
			],
			"name": "setCommitRevealDelay",
			"outputs": [],
			"stateMutability": "nonpayable",
			"type": "function"
		},
		{
			"inputs": [
				{
					"internalType": "bool",
					"name": "_useBlockHash",
					"type": "bool"
				},
				{
					"internalType": "bool",
					"name": "_useCommitReveal",
					"type": "bool"
				}
			],
			"name": "setRandomnessMethod",
			"outputs": [],
			"stateMutability": "nonpayable",
			"type": "function"
		},
		{
			"inputs": [
				{
					"internalType": "uint256",
					"name": "blockNumber",
					"type": "uint256"
				}
			],
			"name": "storeBlockHash",
			"outputs": [],
			"stateMutability": "nonpayable",
			"type": "function"
		},
		{
			"inputs": [
				{
					"internalType": "uint64",
					"name": "sequenceNum",
					"type": "uint64"
				},
				{
					"internalType": "bytes32",
					"name": "commitment",
					"type": "bytes32"
				}
			],
			"name": "submitCommitment",
			"outputs": [],
			"stateMutability": "nonpayable",
			"type": "function"
		},
		{
			"inputs": [
				{
					"internalType": "address",
					"name": "newOwner",
					"type": "address"
				}
			],
			"name": "transferOwnership",
			"outputs": [],
			"stateMutability": "nonpayable",
			"type": "function"
		},
		{
			"inputs": [],
			"name": "useBlockHashRandomness",
			"outputs": [
				{
					"internalType": "bool",
					"name": "",
					"type": "bool"
				}
			],
			"stateMutability": "view",
			"type": "function"
		},
		{
			"inputs": [],
			"name": "useCommitRevealScheme",
			"outputs": [
				{
					"internalType": "bool",
					"name": "",
					"type": "bool"
				}
			],
			"stateMutability": "view",
			"type": "function"
		},
		{
			"inputs": [
				{
					"internalType": "address",
					"name": "to",
					"type": "address"
				},
				{
					"internalType": "uint256",
					"name": "amount",
					"type": "uint256"
				}
			],
			"name": "withdraw",
			"outputs": [],
			"stateMutability": "nonpayable",
			"type": "function"
		},
		{
			"stateMutability": "payable",
			"type": "receive"
		}
	]
}